:020000040800F2
:100000000000012039B30408D5B30408F9E501085C
:100010004DE40108D5B30408D5B30408000000007E
:10002000000000000000000000000000D5B304083C
:10003000D5B3040800000000D5B30408A19A010854
:10004000D5B30408D5B30408D5B30408D5B3040860
:10005000D5B30408D5B30408BDA70008C5A7000898
:10006000CDA70008D5A70008DDA70008BDA500089A
:10007000CDA50008E1A50008F5A5000809A600081F
:100080001DA6000831A60008D5B30408D5B304089E
:10009000D5B30408D5B30408D5B30408E5A7000810
:1000A00011E300080DE2000821E30008FDE100086B
:1000B00035E2000845E2000855E20008E5A0000826
:1000C000D9A0000819A100080DA10008D5B30408A3
:1000D000D5B30408F9990108059A0108119A010895
:1000E000EDA70008D5B30408D5B3040831E3000830
:1000F000E9E20008D5B30408D9E2000845A60008E3
:10010000D5B304086DD4000865E20008D5B304082F
:100110001D9A0108299A010875E20008E53B0408C8
:1001200059A600086DA6000881A6000895A600083B
:10013000A9A6000800000000000000000000000068
:100140000000000000000000000000002D31040845
:10015000BDA60008D1A60008E5A60008359A01084A
:100160004DA1000841A10008D5B30408D5B3040887
:10017000D5B30408D5B30408000000000000000057
:10018000D5B30408D5B30408D5B30408D5B304081F
:10019000D5B30408D5B3040800000000D5B30408A3
:1001A000000000000000000000000000D5B30408BB
:1001B000D5B30408D5B30408000000000000000017
:1001C000000000000000000000000000000000002F
:1001D000000000000000000000000000D5B304088B
:0801E00074B0040001000000EE
:1001E8000E020100020000002C2B0120342B0120FC
:1001F80000000000E4F50508302B0120FF21010074
:1002080005000000402801203C2B012000000000D0
:10021800BDFF0008382B0120053001000800000050
:10022800242B0120482B012000000000E8F50508D8
:10023800442B012013020100040000007028012053
:10024800542B012000000000F0F50508502B012078
:100258001F020B00160000004C2801205C2B012017
:1002680000000000CDFF0008582B012014020100F7
:1002780005000000C8240120782B012000000000A0
:10028800F4F50508742B0120062001002800000061
:1002980098240120842B012000000000D5FE0008CE
:1002A800802B0120160215003F0000007822012053
:1002B800B02B01200000000005000108AC2B012034
:1002C80021020100F000000004770120207C0120B9
:1002D80000000000596603081C7C01202C00040063
:1002E80010000000F4760120147D012000000000B9
:1002F800C1C20208107D012025201E002C0100002B
:1003080048750120287D0120000000000000000041
:10031800247D01202B001200240000009474012089
:10032800587E012000000000D1C20208547E01203E
:10033800012001000C000000B06B0120807E01202C
:1003480000000000FCF505087C7E01201630010045
:1003580008000000C86B0120907E0120000000000A
:1003680008F605088C7E0120270001000400000023
:10037800BC6B01209C7E01200000000010F60508DF
:10038800987E01200C6004007800000018650120A8
:10039800A47E01200000000011630208A07E012055
:1003A800031101000A0000005C6A0120207F01207F
:1003B800000000000D9F03081C7F0120F7010100C9
:1003C80006000000D4690120307F012000000000F1
:1003D80014F605082C7F012029201400780000005D
:1003E800446901203C7F012000000000000000005B
:1003F800387F01202320010010000000346901200B
:10040800B87F012000000000DDC30208B47F01208E
:100418000B3001001A000000FC680120CC7F01208D
:10042800000000001AF60508C87F01200E700400BD
:100438008002000090650120EC7F01200000000090
:100448004DC10208E87F01200D1001007000000076
:10045800846801207082012000000000BDF20108BC
:100468006C820120220201001C010000686A012040
:10047800E4820120000000006D170108E0820120DD
:1004880018400100380000004C6801200484012055
:100498000000000091060108008401201B020100F1
:1004A800100000005084012040840120000000005A
:1004B800A9FF00083C840120280204000400000071
:1004C800688401206484012000000000A1FF000866
:1004D80060840120270204000400000074840120C5
:1004E800708401200000000099FF00086C8401203E
:1004F8001102010008000000848401207C8401208E
:100508000000000089FF0008788401201212010011
:100518000400000094840120908401200000000061
:100528007DFF00088C840120010201000A00000000
:10053800A88401209C84012000000000B5FE00086A
:1005480098840120001201000A000000C4840120E0
:10055800B884012000000000A9FE0008B48401202E
:100568001A0201003C00000058740120D4840120C4
:100578000000000031060108D0840120FE010100BE
:1005880014000000C069012014850120000000004B
:1005980035FE0008108501201D020200060000003B
:1005A800347801202C8501200000000000000000A4
:1005B800288501202E020100040000005E78012039
:1005C8003885012000000000B97801083485012031
:1005D800FD010100210000003C7801204085012038
:1005E800000000008F7801083C8501200400080005
:1005F800800000007476012068850120000000005A
:1006080000000000648501201C0202001C0000009C
:1006180018690120EC85012000000000C1050108CF
:10062800E8850120263001000800000088780120B4
:100638000C86012000000000319B03080886012079
:100648000C020100040000009078012018860120A7
:1006580000000000C5FE00081486012008120400EE
:10066800140000007478012020860120000000009A
:1006780069FE00081C8601200A9001002400000081
:10068800106801203886012000000000F1C302082C
:1006980034860120031201003D000000F477012098
:1006A800608601200000000034F605085C86012001
:1006B800FD170100A00000007C7B0120A48601201A
:1006C80000000000F5460308A08601201310010071
:1006D80004000000F46801204887012000000000A1
:1006E80074F6050844870120F8310100080000006D
:1006F80034680120508701200000000078F60508C2
:100708004C8701200612040018000000947801208C
:100718005C8701200000000055050108588701206A
:1007280002020100030000004088012078870120B0
:10073800000000000000000074870120F62101007D
:100748000C000000DC690120808701200000000007
:1007580080F605087C8701201A0001000E000000C1
:100768006478012090870120000000008CF60508BD
:100778008C87012014100100050000004468012046
:10078800A48701200000000039C10208A0870120C9
:10079800F5C1010074000000E8690120B08701205C
:1007A800000000006D6B0308AC87012012300100C7
:1007B800100000005064012028880120000000007B
:1007C8009AF60508248801201F5001002400000023
:1007D800708E01209490012000000000ACF60508FE
:1007E8009090012038400100060000005489012043
:1007F800EC90012000000000D0F60508E8900120E8
:100808001B30010010000000AC8C0120F890012082
:100818000000000051400308F4900120101001006E
:1008280002000000788A01200C91012000000000DD
:10083800D6F6050808910120F9010100040000001E
:100848001891012014910120000000004D78010842
:10085800109101202F20010022000000209101208A
:100868003C90012000000000D8F605081C910120EA
:100878002D02010001000000D4930120E093012023
:100888000000000000000000DC93012001010100CD
:1008980004000000A8920120E89301200000000055
:1008A80000000000E49301200001010004000000A2
:1008B800A4920120F093012000000000FCF6050836
:1008C800EC9301200201010003000000A092012026
:1008D800F89301200000000001630208F49301204E
:1008E80029020100400000006893012000940120C3
:1008F8000000000000F70508FC93012020520100C9
:100908000C000000A8910120449401200000000080
:1009180040F70508409401202A1201000800000051
:10092800A091012054940120000000004CF7050814
:100938005094012019000100050000009891012041
:10094800609401200000000054F705085C94012021
:10095800021001000C000000889101206C94012015
:10096800000000005CF705086894012023320100AC
:1009780014000000089A0120709C0120000000006B
:1009880068F705086C9C01200502010004000000BE
:100998003C9B0120889C0120000000007CF7050892
:1009A800849C01202C02010004000000509C0120BE
:1009B800B09C01200000000080F70508AC9C0120D5
:1009C800090201000100000048D60120F4D70120E7
:0C09D8000000000084F70508F0D70120A3
:10800000084A0346D0F8E4005268D3F8F010121A78
:1080100000209142B8BFC3F8F020012283F81C2150
:10802000704700BF001000E01B4B016803F57D7C2A
:1080300002E02C3363452BD01A688A42F9D170B51F
:1080400093F804E0427996450BD02C33634505D074
:108050001A688A42F4D02C336345F9D14FF0FF30CF
:1080600070BD9E4684680022DEF80C50A54208D000
:1080700001320EF10C0E032AE7D0DEF80C50A542B7
:10808000F6D1DEF81050C668B542F1D150B270BDDD
:108090004FF0FF30704700BF48CE04084368426D80
:1080A00030B49A61EFF31182502383F31288416850
:1080B000D2B2856C0B68046D23EA050323430B6081
:1080C00082F31188436981681A68096822F0010205
:1080D000D0E908541A60826A1D605C615A60D0E978
:1080E0000B429C60DA600023B0F86C2030BCCA629E
:1080F00003777047002A4FEA014C034630B50ABFA8
:10810000E6468E468C4600F1C005002419680C3303
:1081100053F8042C43F8084C41EA0C0142EA0E02E1
:10812000AB4243F80C1C43F8042CEFD1D0F8C0301C
:1081300043EA0E03C0E93144C0F8C03030BD00BF8F
:1081400083695969B3F810C00A6830B49C6822F09A
:10815000010224680A60E26822EA0C02E260027D01
:1081600000681F2A06D9203A0824456894402C420A
:1081700042D0FEE70824056894402C42F9D120241F
:1081800004FA02F28260254A1278002A32D01A7F5D
:10819000012A36D0D3F800210132C3F80021EFF3D1
:1081A0001181502282F312885868C9B29D6C02680E
:1081B000DC6C22EA05022243026081F311885A69CD
:1081C0009968D3E90D40096814605061D3E90F4004
:1081D000546090605C6CB3F8B400D4600124C86251
:1081E0001068204310601A8A1C7783F8FD40CB6822
:1081F0001343CB6030BC7047202404FA02F2C26003
:10820000C1E70022D3F8040183F8FD2001300A6899
:10821000C3F8040122F001020A60EBE768010020C4
:1082200010B40C4C6368002B11DD002004F1080C25
:108230000146DCF8AC3003F1C00259600C339342C4
:10824000FBD1013063680CF5867C8342F1DC5DF87C
:10825000044B704768010020704700BF024B03EBDE
:10826000401393F85504704768010020704700BF21
:108270000B4890F86C1589B101EB4101002300F225
:108280007450490010B41C4650F82320063302B144
:1082900014608B42F8D15DF8044B7047704700BF03
:1082A000680100200B4890F86C1589B101EB410181
:1082B000002300F27450490010B41C4650F82320EB
:1082C000063302B114608B42F8D15DF8044B70475D
:1082D000704700BF680100200120704700EB40009C
:1082E000024B03EBC00393F885057047680100203B
:1082F000204890F86C35002B3AD0002200F27453DD
:108300004FF02C0C2DE9F0434FF0500E1A4E1B4D40
:10831000144607E053F8181B01320C6090F86C15F6
:10832000914223DD197C0029F4D05F684FF0FE08EC
:10833000B90AA1F580115229294498BF91F8F48314
:10834000EFF311818EF31288D7F824900CFB0868A4
:10835000C9B209F10109C8F82890D7F8148048F08B
:108360000108C7F8148081F31188D3E7BDE8F083D2
:10837000704700BF68010020A817012048CE0408FC
:1083800000EE100AB8EE400A704700BFBCEEC00A0B
:1083900010EE103A98B27047C64BD3E9A51270B5EB
:1083A0008C0F93F82053100EC2F3072C83F8C842A9
:1083B000C1F383640001012D83F8C942C1F3016454
:1083C00083F8CA42C1F3074483F8CB42C1F30724C0
:1083D000C9B283F8CC42C2F3035483F8CD12A3F898
:1083E000CE02C2F3C030B3F8CE1289B241EA040122
:1083F000C2F30344A3F8CE12C2F3403183F8D04253
:10840000C2F3803483F8D1024FF0000083F8D242E7
:1084100083F8D312C2F3003183F8D412D3F89C123C
:1084200083F8D50240F2EF80022D00F0C3802A20AD
:108430004FEA4C0C83F8E142C1F3C01201F07F0116
:108440000CF07E0C83F8E2C24FF0010C93F8E2428C
:108450001443D3F8A02283F8E242D40F83F8E31246
:10846000910D83F8E442C2F3417401F00C01C2F3B0
:10847000815583F8E542C2F3826483F8E64283F8CB
:10848000E71293F8E712D3F8A442294383F8E712DE
:10849000C2F3405183F8E812002183F8E912C2F3D5
:1084A000004183F8EA12C2F3C03183F8EB12C2F341
:1084B000803183F8EC12C2F3403183F8ED12C2F33D
:1084C000003183F8EE12C2F3812183F8EF12C2F378
:1084D0000121C2F3460283F8F012C4F3074183F886
:1084E000F122220E090283F8F2C283F8F422C4F3C7
:1084F0000722A3F8F6122406B3F8F61289B2114344
:10850000A3F8F612D3F8A812C3F8F8420C0ED3F869
:10851000F82242EA0442C3F8F8220A0AD3F8F842E1
:1085200002F47F422243C1F30724C9B2C3F8F82200
:10853000D3F8F852D3F8AC222C43C3F8F84283F8AE
:10854000FC12110E83F8FD12110C0906C3F800137A
:108550001102D3F800430A4601F47F01214392B28D
:10856000D3F8B042C3F80013D3F800130A43C3F89A
:108570000023C4F30352D3F8001341EA1461C3F893
:10858000001393F804131143C4F3072283F8041370
:10859000210A01F47061A3F80613B3F8061389B237
:1085A0001143C4F34602A3F8061383F8082383F8A3
:1085B00009C370BD1204C1F3072C0D0E02F47C1226
:1085C000C3F8D822C1F30742D3F8D84244EA0524BD
:1085D000C3F8D842D3F8D84222434FF40074C3F80A
:1085E000D822D3F8D822C3F81843013240F100044E
:1085F000A40244EA92549202C3F81443C1F38034B3
:10860000C3F8102314E74FEA8C2CC1F3C265940021
:108610000CF44062C1F3072C04F47F74C3F8D82231
:10862000D3F8D8221443CA0BC3F8D84202F006028A
:10863000D3F8D84244EA9174C3F8D842C1F3026433
:1086400083F8DC52012583F8DD42C1F3425483F8FC
:10865000DE42C1F3824483F8DF42C1F3C03483F8C1
:10866000E02293F8E022224383F8E022D3F8D842B4
:1086700093F8E02293F8D062023205FA02F2B54094
:10868000D617A2FB052EC3F8185305FB06EE04FB14
:108690000EEE0134A2FB0424A644520AC1F3803436
:1086A00042EACE52C3F810234FEA5E22C3F81423E5
:1086B000BEE600BFA817012070B50E4E0D46144649
:1086C000D6F878333BB11A689B881269134096F844
:1086D000752352B15BB9FFF75FFE4FF40073D6F814
:1086E000102300202A60238070BD002BF3D14FF0AF
:1086F000FF3070BDA8170120002070470020704790
:1087000038B5074B14460D46D3F818341B6A984702
:1087100002464FF40073002012682A60238038BD9F
:10872000A817012008B5064BD3F8183423B15B69AC
:108730009847013840B208BD4FF0FF3008BD00BF78
:10874000A8170120002070472DE9F04113B3164609
:108750000F4603EB0208134CD4F818540023394693
:108760003046AD681A46A8470028F5D0D4F818342A
:10877000002BFBD05B6998470028F7D0013607F53E
:108780000077B045E8D1D4F81C340020C4F8203478
:10879000BDE8F081034C0020D4F81C34C4F8203428
:1087A000BDE8F081A81701202DE9F04143B316463A
:1087B0000F4603EB0208164C04E0D4F8181419B164
:1087C0004B699847D4F8181400230D693046394690
:1087D0001A46A8470028F0D1D4F81834002BFBD053
:1087E0005B6998470028F7D0013607F50077B04558
:1087F000E8D1D4F81C340020C4F82034BDE8F0815E
:10880000034C0020D4F81C34C4F82034BDE8F081B7
:10881000A817012000207047034B93F84803003845
:1088200018BF0120704700BFA81701201C4AD2F8CA
:1088300078336BB1186892F875139B880069034010
:1088400021B12BB1002382F848337047002BF9D0B7
:1088500092F84833032B0FD892F83C330133DBB244
:10886000072B82F83C33EDD8D2F81C140123C2F850
:10887000381382F848337047D2F8243409489908ED
:10888000B0EB930F4FF0020306D249085B00814220
:108890009BB201D9FF2BF8D9A2F88033DCE700BFE7
:1088A000A8170120801A0600826D136A5B681B7886
:1088B000FF2B08D090F8F030013BDBB280F8F030AD
:1088C0001BB10120704700207047126A02205268D5
:1088D00013707047836D1B6A5B681B78FF2B0AD18E
:1088E00090F8F030002B03F1FF3280F8F0200CBF3D
:1088F0000220012070470020704700BF034B93F80F
:108900004803032894BF002001207047A8170120C6
:1089100000487047F41A0120034B93F848030038CD
:1089200018BF0120704700BFA8170120034B93F820
:108930004803032894BF002001207047A817012096
:1089400000487047F41A0120184B002030B49C7B7B
:1089500014B11D688D4205D0013010330B28F6D1BB
:1089600030BC7047C2B1124B03EB40218A4201D1A7
:10897000022C18D00F4B93F8E42712B9012283F888
:10898000E4270D4B01225A7000F5B170012203EB70
:1089900000139A7130BC7047074B00F5B17003EBC0
:1089A00000139A71DCE7183BEEE700BF0842012094
:1089B000082C0120F03B0120F02B012030B40023D3
:1089C0001C4C04F5C36084F8D03603E0013310304A
:1089D0000B2B15D005688D42F8D190F80EC0BCF174
:1089E000030FF3D1C2B1144901EB4320824209D1F4
:1089F000A1F1180203F5B173012102EB0312917189
:108A000030BC704794F8E42712B9012284F8E427B7
:108A10000A4A01215170EDE7D4F8CC1603F5B17381
:108A2000064A0420013102EB0313C4F8CC169871F6
:108A3000E6E700BFF03B0120082C0120F02B0120CD
:108A4000134BD0F8D8105B68D0F8E02010B504467E
:108A5000581A824200DC22B9D4F8E4200A44C4F84F
:108A6000DC2094F8D020C4F8D830012A05D0D4F8FE
:108A7000D4300133C4F8D43010BD04F1E801201D16
:108A800010F06AFAD4F8D4300133C4F8D43010BDF1
:108A9000001000E010B58CB0114C002301220DF144
:108AA0000701844604F55F70049203910D498DF827
:108AB0002820069102A902938DF8143009930B9394
:108AC00084F814C4CDE9073310F046FAD4F87C23B7
:108AD000136A002BFCD19DF807000CB010BD00BF3D
:108AE000A8170120D588000870B5054690B0082069
:108AF0000C46FFF7CFFFFF2828D0FE2802D0022027
:108B000010B070BD00230222124E002000218DF80B
:108B10000C308DF8203009930C930E930294CDE91C
:108B200006320122CDE90A01694606F55F708DF82B
:108B30003420CDE90035CDE9043310F00DFAD6F834
:108B40007C33186A0028FCD110B070BD012010B031
:108B500070BD00BFA817012030B5002393B00122DB
:108B60001D4D00200021C5F84433FD248DF814303C
:108B700006938DF828300B930E9310938DF80740D1
:108B800004928DF83C20CDE908320DF10703CDE9C0
:108B90000201CDE90C0102A905F55F70079310F001
:108BA000DBF9D5F87C331C6A002CFCD10120FFF7DF
:108BB00071FFFF2809D0D5F81C2409232046C5F8E9
:108BC000382385F8483313B030BD0423022085F8DC
:108BD000483313B030BD00BFA8170120F8B50C4BC7
:108BE0001D685A69154005405D617DB1094F012638
:108BF000B5FA85F4C4F11F0407EB840306FA04F404
:108C0000D3F8280403689847A543F1D1F8BD00BF05
:108C1000003C0140A817012002692DE9F843C36810
:108C200012EA030828D005460E464FF00047B8FA6E
:108C300088F327FA03F21B3BD24308EA02082A61B1
:108C4000042B16D8DFE803F03B30251A0300B36A83
:108C5000002B3FD003F1FF3900231FFA89F9B362DB
:108C6000746A34B123682046494698476468002CEA
:108C7000F8D1B8F1000FDAD1BDE8F88370680028A8
:108C8000F7D0696B036889B29847B8F1000FCED16D
:108C9000F2E7B0680028ECD0A96B036889B2984766
:108CA000B8F1000FC3D1E7E7F0680028E1D0E96B25
:108CB000036889B29847B8F1000FB8D1DCE7306992
:108CC0000028D6D0296C036889B29847B8F1000F04
:108CD000ADD1D1E7EB6A1FFA83F9C1E710B50446BD
:108CE00082B0806906236A4690F84C11103010F06B
:108CF000B3F958B1BDF80010BDF80220BDF804303A
:108D000049BA52BA5BBAE1812282638202B010BDD5
:108D100010B582B0044690F84D1106236A46103013
:108D200010F09AF970B1BDF80010BDF80220BDF83E
:108D3000043049BA52BA5BBAA4F8D010A4F8D220D1
:108D4000A4F8D43002B010BD8269F0B592F8DC30DE
:108D50008BB00546012B27D0023B012B2FD892F870
:108D60004C31EC46D2F89C2063F07F03154C137015
:108D70008669D6F8A0305F1C0FCCACE80F00D6F89F
:108D80009C30CDE900370FCCACE80F0094E803002D
:108D90008CE80300694606F1100010F0DDF8AA69BE
:108DA00011690B6A002BFCD1D2F8A0305A8852BA54
:108DB000EA819A8852BA2A82DB885BBA6B820120E8
:108DC0000BB0F0BD90D20408F0B590F8DC308BB059
:108DD0000446D0F8A060012B4BD034D9023B012BC4
:108DE0002ED890F84D31EC46D0F89C2063F07F03EC
:108DF000434D1370D0F8A0305F1C0FCDACE80F00CE
:108E0000D4F89C30CDE900370FCDACE80F0095E8E1
:108E100003008CE80300694604F1100010F09CF890
:108E20002269136A002BFCD173885BBAA4F8D03096
:108E3000B3885BBAA4F8D230F3885BBAA4F8D43014
:108E400001200BB0F0BDD0F89C304FF0FF3205216F
:108E50001A605A609A60DA60D0F8E030C0F8F0101A
:108E6000B3F57A7F1FD8032380F8DC3001200BB0E4
:108E7000F0BD90F84C2190F84D319B1A5B100133F6
:108E8000DBB236F8132006EB430653BAA0F8D03015
:108E900073885BBAA0F8D230B3885BBAA0F8D4303C
:108EA00001200BB0F0BD03691A7B2AB35B691BB3C9
:108EB00090F8983003B390F84C310122D0F89C0020
:108EC00063F07F03C4F8A4400E49037094F84D3159
:108ED00094F84C0184F800211B1A84F8DC20D4F8A3
:108EE000A0200733C4F804110132D4F89C10C4E95F
:108EF0003E23C4F8F410A3E7022384F8DC309FE794
:108F000090D20408018000082DE9F041304F07EBB2
:108F1000401898F854340BB9BDE8F08100EB800399
:108F20000E460021044607EB4313450193F836260D
:108F300083F8361688F83A2443F04EFFB8BB25482C
:108F40003D4400EB4410A5F8386443F03DFF3B7806
:108F5000D5F85024A3B1D5F83C140124D2F8AC3094
:108F60008C4003F1C001420010F4004F90B202D1D6
:108F70005A6822435A600C339942F4D1BDE8F0811B
:108F8000D5F83C140124D2F8AC3001F1100203F101
:108F9000C0019440420010F4004F90B202D15A68D0
:108FA00022435A600C338B42F4D1BDE8F0810A4B66
:108FB00093F8E02402EB420203EBC203234493F84C
:108FC0008D64002EBBD0012388F83A34B7E700BF88
:108FD00068010020A0050020A81701202DE9F04F0E
:108FE000364D83B02B781BB9012003B0BDE8F08F5C
:108FF000DFF8CC8005F63836D5F834AB05F5876B4D
:10900000D8F81C3405F6186700244FF6FF79019351
:1090100012E0B0F5606F43D0B881B0EB0901019A5E
:10902000304618BF01210FF0D1FD01345C360BF141
:10903000200B1437082C2CD054452ADADBF8180002
:10904000DBF80420D0E93D0143F0BAFE4FF6FE7391
:1090500098F86924984214D0542A04D1B8F86C24A2
:109060000132A8F86C24D5F8202E484502F10102FF
:10907000C5F8202ECDD1D5F81C2E0132C5F81C2EF6
:10908000CBE7542AD1D1B8F86E240132A8F86E2467
:10909000CBE70123012085F81E3F03B0BDE8F08F28
:1090A00098F8E02402EB420208EBC202224492F854
:1090B0008D240D2AB0D18022BA77AEE76801002056
:1090C000A81701202DE9F0472F4F10F04FFEDFF8D1
:1090D000C09080467E6800202C4C002E48DD002386
:1090E0004FF486711D4601FB0372013392F805218E
:1090F0009E4245EA0205F6D128435FFA80FAD9F884
:109100000430C3F3080383BBEFF311836BBB4FF051
:10911000E02CD4F81C34DCF81810D4F81C2493424A
:10912000F7D1D4F8E4249142F3D8D4F8E8C44FF44A
:109130007A7202FB0CF0401AB0FBFCF002FB030059
:10914000A0EB0803B3F5FA6FCCBF002005F00100D7
:109150000028C2D1BAF1000F04D00C4B93F8692457
:10916000542A08D05046BDE8F08710F0BFFCE7E76E
:1091700082460025C3E7B3F8702450460132A3F8B5
:109180007024BDE8F08700BF68010020A817012007
:1091900000ED00E010B5044642F06EFE01462046A8
:1091A00089B2BDE81040AFE638B50B4D00EB40008A
:1091B00005F27453C40003EBC003254493ED027A17
:1091C000D3ED037AE7EE007AB0EE670A42F054FE80
:1091D000D5F87435186038BD68010020F8B543F043
:1091E00017FE78B31A4F7D68002D11DD3846002434
:1091F00010F8086B16B1037F012B1DD042690134B2
:1092000000F586701368AC4243F001031360F1D19E
:1092100010F0ACFDD7F8204F002C0CDD0D4B03EB0C
:10922000C4041968083333F8042CC868A34242EA1E
:109230000002CA60F5D1F8BD002380F8FC30FEF7CB
:109240002DFFDBE741F098FB0028CBD1F8BD00BF34
:10925000680100208C100020836910B51A4C04EBC3
:109260008303D3F8100537F0F5F8B4F830350C2B3C
:109270000ED8DFE803F0220D0D0D1B0D0D0D070DAF
:109280000D0D1400D4F8F024D36823F40063D360E8
:109290000122002384F82D2584F8323510BDD4F83E
:1092A000F024D36823F48053D360F1E7D4F8F0249A
:1092B000D36823F48063D360EAE7D4F8F024D3685A
:1092C00023F40073D360E3E7A817012080699C3082
:1092D00037F0C0B8F8B5830AA3F58013522B52D8E3
:1092E00004465748034493F8F4030D284BD8554DD2
:1092F000860105EB8013D3F83475A74243D00139BA
:10930000C3F8344589B2C3F84015D5F82414B1FB2D
:10931000F2F100220139C3F84425C3F83C25C3F813
:10932000482593F87125C3F8381502F0FF015AB3A8
:1093300045490223AF1901EB8011204687F87135AA
:10934000043139F0FDFB0123B4F1804F87F871350A
:109350003E4BA4EB0303B3FA83F34FEA531316D047
:10936000ABB93B4A944257D002F58062944253D045
:10937000384902F57C42944218BF8C422FD002F546
:10938000705294422BD0F8BD83F87015D0E7AA191B
:1093900092F870150129F6D0022182F871152E4934
:1093A000A06801400020A160012182F87115AA196E
:1093B000022182F871156268A16803B908B122F42C
:1093C00070022E4422F0700221F08001012000235F
:1093D0006260A16086F8710586F87035F8BDAA193B
:1093E00092F870150129CED0022182F871151A4920
:1093F000A06801401948A1600121201A82F8711566
:109400000021B0FA80F082F87015124A40099442A7
:10941000CDD00028CBD1F8BDAB1993F87025012A27
:10942000B1D002210C4A83F87115A0680240A260F5
:10943000012283F8712583F871156268A168C0E77D
:1094400048CE0408A8170120DC1C012000000140C0
:1094500000040040000C00408800FEFF00040140B2
:1094600010B50F4CD4F8F4284AB194F8003991881B
:1094700003F0010312681B0101FA03F393613DF04D
:109480009FF8D4F81834002BFBD05B69984700286C
:10949000F7D0D4F81C340020C4F8203410BD00BF2D
:1094A000A817012010B54FF0950C92B00446002289
:1094B00001208DF809C044F0400C13460A906CF36B
:1094C00007028DF84000080E04938DF8183060F301
:1094D0000F228DF82C300F9301A811938DF80810EE
:1094E0000390CDE90733CDE90D330B0C090A63F383
:1094F0001742062361F31F6205930DF10301104B20
:1095000001920C9309913DF02BF880F00103DBB23E
:1095100003B18CB90B4C082303A904F55F7084F8E0
:1095200014340FF019FDD4F87C23136A002BFCD1FE
:109530009DF8030012B010BDFF2012B010BD00BF97
:10954000D5880008A81701202DE9F0410546884676
:1095500017461E462F4C94F8480304280BD00828C1
:1095600007D1D4F84033AB4240D0FFF7F5FA0228D8
:10957000F1D0012036E094F83E33ABBB69021820ED
:10958000FFF790FFA0BB94F84833082B2ED0FE23A2
:10959000D4F87C2384F80139117B1F4BC3F82C804D
:1095A00051B1526942B194F80424002A14BF4FF417
:1095B00000724FF4807201E04FF48072174818492E
:1095C0005A630FF0C9FC012206230020C4F824834B
:1095D000C4F82853C4F83073C4F8346384F82C23D7
:1095E00084F84833BDE8F0812946C8E7FC23CFE77B
:1095F000D4F87C23136A002BFCD10A2013F048FE18
:10960000D4F8843313B11A689B889361FFF70EF97D
:109610000320E7E7A817012000000120241B0120F8
:109620000400012070B5214E05460C4696F84833DB
:10963000042B09D0082B1FD1D6F84033834219D010
:10964000FFF78AFA022817D100213720FFF72AFFF7
:1096500021461720FFF726FFB0B996F83E336BB9C5
:1096600069021920FFF71EFF70B90823C6E9D0541C
:1096700086F84833022070BD012070BD29461920AC
:10968000FFF710FF0028F0D0D6F87C23136A002BD8
:10969000FCD10A2013F0FCFDD6F8843313B11A680C
:1096A0009B889361FFF7C2F8032070BDA8170120C3
:1096B0002DE9F041224C07468846164694F848C3E7
:1096C0001D46BCF1040F09D0BCF1080F02D00020E8
:1096D000BDE8F081FFF740FA0228F8D194F83E3354
:1096E000B3B139461120FFF7DDFEB8B90522D4F831
:1096F0001C340120C4F82483C4F82873C4F83063F0
:10970000C4F8345384F84823C4F83833BDE8F081F2
:1097100079021120FFF7C6FE0028E7D0D4F87C2399
:10972000136A002BFCD10A2013F0B2FDD4F8843365
:10973000002BCCD01A6800209B889361C8E700BF3B
:10974000A81701202DE9F041A94C92B094F8746358
:10975000002E00F0068294F848335A1E082A00F2C0
:109760007881DFE812F033006D00B900760149011D
:1097700086011B00760109003CF0F2FE002840F053
:10978000C882D4F83833D4F81C24FA33934280F0DA
:109790005D81FFF74BF894F84833DEE73CF0E0FEDC
:1097A0000028EED0D4F844330022012B84F83C2367
:1097B00040F2E082D4F84023013B08210132C4F892
:1097C000443384F84813C4F840230CE100210846D0
:1097D000FFF768FED4F87C230546136A002BFCD102
:1097E0000A2013F055FDD4F8843313B11A689B880E
:1097F0009361012D40F02A81002740F2AB1108202F
:1098000084F83D73FFF74EFE052800F00282012820
:1098100000F0DF81D4F87C23136A002BFCD10A20EE
:1098200013F036FDD4F8843313B11A689B88936122
:1098300094F83D33002B00F09482022384F84833DF
:1098400094F83D5300213720A5F10205FFF72AFEC9
:109850002920B5FA85F56D09AD072946FFF722FEE7
:10986000D4F87C230546136A002BFCD10A2013F0A0
:109870000FFDD4F8843313B11A689B889361002DCF
:1098800040F0E48094F83D33022B00F00C8200217C
:10989000092084F83E53FFF705FE002800F0BE8142
:1098A0000025D4F87C23136A002BFCD10A2013F086
:1098B000EFFCD4F8843313B11A689B889361002DB0
:1098C00000F0C48000210A20FFF7ECFD002840F0E2
:1098D000D981032384F84833102103A8FFF704F942
:1098E000002840F0B380BDF80D309DF80C205BBA25
:1098F0009DF8111062F307009DF80F20A4F8503373
:109900009DF8193062F30F209DF810201B019DF87F
:10991000145062F317409DF81A20DBB261F31F6008
:10992000DDF8151043EA121302F00F0209BAC4F869
:10993000520303F5FA6384F86023C4F85813290925
:10994000A4F85E33BDF81230D4F87C23A4F8563363
:1099500005F00F0384F85C1384F85D33136A002B61
:10996000FCD10A2013F094FCD4F8843313B11A68A4
:109970009B88936194F83E33B3B94FF40071102083
:10998000FFF790FDD4F87C230546136A002BFCD129
:109990000A2013F07DFCD4F8843313B11A689B8835
:1099A0009361002D7FF4F5AED4F8243411499A0860
:1099B000B1EB930F4FF0020306D252085B008A42CC
:1099C0009BB201D9FF2BF8D904220021A4F88033DF
:1099D0001346C4F8441384F84823042B18BF082BFB
:1099E0000CBF01260026304612B0BDE8F08100BF52
:1099F000A817012040787D014FF40071D4F82403AA
:109A0000FFF772F8012800F0B280022800F0B7805A
:109A1000E0B9D4F87C23136A002BFCD10A2013F0A0
:109A200037FCD4F8843313B11A689B8893610423FC
:109A30000020D4F8305384F8483384F83C03002DD8
:109A4000D1D0D4F83433D4E9C921A84794F84833A5
:109A50005A1ED2B2022AC0D8D4F81C34D4F8382303
:109A60009B1AC82B00F2AA800026304612B0BDE82F
:109A7000F081D4F87C23117B136A002946D0526907
:109A8000002A43D094F80424002A3FD0B3FA83F389
:109A90005B09002BDAD0002302A90122B248ADF8FD
:109AA00008308DF81830079308938DF82C301193F7
:109AB0008DF84020CDE90313022105910DF1070136
:109AC000CDE9091203A9CDE90C33CDE90E330FF02E
:109AD00043FAD4F87C331D6A002DFCD19DF8073081
:109AE00003F01F03052B00F02681FEF79FFED4F83C
:109AF0003073002F3FF42FAED4F834332A46D4F815
:109B000028130120B84794F8483326E694F82C131C
:109B10000023D4F82423944802EB01224FF48071EF
:109B2000049303920122059103A98DF818208DF862
:109B30002C200793089309930A930C930FF00CFAC7
:109B4000D4F87C23136A002BFCD194F82C23013227
:109B5000D2B2A2F1020384F82C23B3FA83F35B0997
:109B600097E7304684F8486312B0BDE8F081D4F836
:109B70003833D4F81C2464339342BFF467AFD4F86D
:109B80007C23136A002BFCD10A2013F081FBD4F84C
:109B9000843313B11A689B889361FEF747FED4F8AB
:109BA0003053002D3FF4D7AD0022D4F83433D4F82D
:109BB00028131046A84794F84833CEE5FEF736FE42
:109BC00094F84863082E18BF042E0CBF0126002607
:109BD00009E702AB03A964480493042303978DF8B3
:109BE0001870079705930A978DF82C500C97CDE9BC
:109BF00008770FF0B1F9D4F87C23136A002BFCD15D
:109C00009DF80B30AB2B7FF407AE022384F83D3375
:109C100002E6D4F87C2384F83D53FDE51021534837
:109C2000FEF762FF00287FF43BAE94F8733313F025
:109C300001033FF435AE94F86423921100F0AF8035
:109C4000012A7FF42DAE94F86B231621484F02258C
:109C50009200D2B2C5F108038B4228BF0B46C3F174
:109C600008059840C91A42FA05F24FF0000540EA8B
:109C7000020017F8012FEDD1013083023546C4F8F8
:109C80004C330EE6D4F87C23136A002BFCD10A2057
:109C900013F0FEFAD4F88433002B3FF47AAD1A683F
:109CA0009B88936175E529463A20FFF7FBFB02ABE1
:109CB000074603A9049304232B4805930123039526
:109CC0008DF82C308DF818500C95CDE90755CDE95D
:109CD00009550FF041F9D4F87C331A6A002AFCD1F7
:109CE00087B91A6A002AFCD10A2013F0D1FAD4F8F5
:109CF000843313B11A689B889361029D2DBAC5F312
:109D00008075C4E51A6A002AC1D01A6A002AF9D1FE
:109D1000BDE7D4F87C23136A002BFCD10A2013F092
:109D2000B7FAD4F8843313B11A689B88936104237B
:109D300084F8483357E60722D4F81C34D4F830535B
:109D400084F84823C4F83833002D3FF48DAED4F89E
:109D500034330120D4E9C921A84794F848335A1E66
:109D600077E684F848337FE6241B01200C1B012092
:109D7000131B01205BD00423D4F87C2384F84833E0
:109D8000136A002BFCD10A2013F082FAD4F8843332
:109D9000002B3FF45BAE1A689B88936156E694F8FB
:109DA00069031146DFF89CC0032500F00F0294F808
:109DB0006D03062780019340C0B2C7F10802AA4292
:109DC00028BF2A46C2F108079140AD1A40FA07F0B1
:109DD0004FF0000741EA00011CF8010FEDD194F8A3
:109DE0006A030231DFF860E00C2780014FF0060CB7
:109DF000C0B2CCF108024FF0000CBA4228BF3A467C
:109E0000C2F108089540BF1A40FA08F045EA00057B
:109E10001EF8010FEDD10135D81705FA01F2A2FBAA
:109E2000033102FB00125B0A43EAC25326E7FEF746
:109E300093FE02287FF40AAED4F87C331A6A002A13
:109E4000FCD1A0E7151B0120121B0120817899B1DC
:109E50000C48D0F80439102B0FD003EB4302013328
:109E60004FF0200C0244C0F80439012382F808198D
:109E700082F809C982F80A3970470521002013F0D9
:109E8000DFBB00BFA81701202DE9F041044690F880
:109E9000210182B010B902B0BDE8F0810FF03EFCA4
:109EA000064680B381882622294B4FF00048C280A5
:109EB000B1FA81F5274844F80C3FC5F11F03026849
:109EC00028FA05F5244F22EA050C244A1A4407EB28
:109ED0008303C3F82844002392F8F044C0F800C07C
:109EE000274445611E4A3068CDE900333FF086FDC6
:109EF00097F83839F02B0BD8164A13682B431360A8
:109F000002B0BDE8F081124BE36002B0BDE8F08121
:109F1000F023032187F83839124B1F5D1C57204668
:109F20003DF0E4FC002CB5880CDB07F01F02012398
:109F30007F09B5FA85F593400B4A28FA05F542F8F2
:109F40002730D9E7B5FA85F528FA05F5D4E700BF3B
:109F5000418A0008003C0140A817012048CE0408AF
:109F600000001110D43E050800E100E090F8DB305D
:109F7000052B03D890F81E31032B01D00020704729
:109F800090F8233103F0FB03022B14BF07200020BD
:109F9000704700BF10B490F8443000F10801484AFF
:109FA000012BC2F840196DD08368464CD968A34292
:109FB00021F46001D960D96841F46001D960996BDE
:109FC00021F440119963996B41F480119963996B65
:109FD00021F4F8419963996B41F488419963996838
:109FE00021F47021996099689960996821F4401171
:109FF000996099689960596821F48061596059683D
:10A0000021F48051596059696FF30B015961596905
:10A01000596148D0D9682B4C21F0E061A342D96046
:10A02000D96841F0E061D960996B21F440119963DE
:10A03000996B41F480119963996B21F478219963AC
:10A04000996B41F410219963996821F4702199600A
:10A0500099689960996821F44011996099689960AC
:10A06000596821F480615960596821F48051596020
:10A0700099696FF30B019961996999611AD000236D
:10A0800080F844301048114B848DC18D408D091BE0
:10A09000C2F84849C2F844095DF8044B93FBF1F358
:10A0A000C2F84C397047D4F8041341F40001C4F8E5
:10A0B0000413AFE706494B6843F400034B60DEE747
:10A0C000A817012000200140007AF01F803801000D
:10A0D00000230140704700BF014836F08FBA00BF2F
:10A0E0000C210120084810B4D0F86439D0F8984900
:10A0F00099691A682CB1234600F664105DF8044B88
:10A1000018475DF8044B7047A8170120014836F046
:10A1100075BA00BF6C210120084810B4D0F8C439CA
:10A12000D0F8F84999691A682CB1234600F6C41092
:10A130005DF8044B18475DF8044B7047A8170120E1
:10A14000014836F05BBA00BFCC210120084810B4AA
:10A15000D0F8243AD0F8584A99691A682CB12346A5
:10A1600000F624205DF8044B18475DF8044B704757
:10A17000A817012030B40469002341684025E46831
:10A1800082690C3154624469956053609363116035
:10A19000C2E90333C2E90533C2E90733C2E90A332E
:10A1A000C2E90C3384B1C269E06893635062116004
:10A1B000C2E90133C2E90333C2E90533C2E9073317
:10A1C000C2E90A33C2E90C3330BC7047114A037A42
:10A1D0000168D35C10B4CC58CA1824F00104CC50E8
:10A1E0001368DB07FCD4037D1F2B09D9203B2022F9
:10A1F0005DF8044B02FA03F343F01803CB60704799
:10A2000020225DF8044B02FA03F343F018038B603D
:10A21000704700BFC83E0508F0B50668356A0029DA
:10A220005DD12B68AC68B769002B60D09C46344B7D
:10A230000CEA0303B3F1005F5DD00CF01F0104F1E1
:10A240001F032CF01F02194421F01F01BFF34F8F91
:10A2500000290BDD114402F12003DFF8A8E08B4256
:10A26000CEF868221A4603F12003F8D1BFF34F8FCE
:10A27000BFF36F8F02684FF480637B615369C7F847
:10A2800004C03C6253B36B68F569002B35D01E46A1
:10A290001B4B3340B3F1005F1BD006F01F0104F1EC
:10A2A0001F0326F01F02194421F01F01BFF34F8F37
:10A2B00000290ADD114402F1200312488B42C0F844
:10A2C00070221A4603F12003F8D1BFF34F8FBFF37A
:10A2D0006F8F4FF480636E606B612C62F0BDEC6930
:10A2E000002CFBD06B691435B769002B9ED1DFF8C9
:10A2F0001CC03246C1E73246BDE7034EEBE700BF64
:10A300000000FFFF00ED00E004000020000000203E
:10A310002DE9F0410468D4E904351A7DD3E90061E0
:10A32000002D4DD01F2AA86138D820202F6800FAB0
:10A3300002F242F01802B2602A7D1F2A39D9203A6F
:10A34000202000FA02F242F01802FA606A68002047
:10A35000086010603046116841F01001116093F8F8
:10A360000880A26941463FF029F92D7AE269384612
:10A3700029463FF023F9274B626813F80800595D1E
:10A38000335843F0010333507B5843F001037B50B3
:10A39000536843F003035360BDE8F081203A202066
:10A3A0002F6800FA02F242F01802F2602A7D1F2A9A
:10A3B000C5D8202000FA02F242F01802BA60C5E7C0
:10A3C0001F2A98611ED8202000FA02F242F01802DB
:10A3D000B260002230460A600A6842F010020A6049
:10A3E0001D7AA26929463FF0E9F80A4B6268595D77
:10A3F000735843F001037350536843F002035360F2
:10A40000BDE8F081203A202000FA02F242F0180262
:10A41000F260DEE7C83E050810B1036882889A61E1
:10A42000704700BF18B1838802681B0493617047AE
:10A4300008B51D200FF072F908B183794BB11E20C9
:10A440000FF06CF908B1837903B108BD5523C380BF
:10A4500008BD5523C380F2E7D3B2012B23D802EB0A
:10A46000420270B54FEA820E104C002223460EF1D4
:10A47000080503E001321C33182A12D093F800C0FB
:10A480008445F7D193F801C08C45F3D15E59002E75
:10A49000F0D0C2EBC2020EF1040303EB8203E0181A
:10A4A00070BD002070BD0020704700BF48D3040875
:10A4B00010B40C4C002304F52D6C01E0152B0CD0CE
:10A4C00003EB430201331CF802108142F6D114441D
:10A4D00094F9D20A5DF8044B70474FF0FF305DF8F5
:10A4E000044B7047A8170120D3B2022B21D802EBEE
:10A4F000420270B54FEA820E0F4C002223460EF145
:10A500000C0503E001322C33172A10D01E68B0422C
:10A51000F8D193F804C08C45F4D15E59002EF1D0E7
:10A520002C210EF1080301FB0233E01870BD00205E
:10A5300070BD0020704700BF48CE0408002838D006
:10A54000002330B51B4D90F804C005F52D6401E0E3
:10A55000152B2CD003EB43020133A15C6145F7D1ED
:10A560001544046890F805E095F9D23ADAB2022A67
:10A570001DD803EB4303104800224FEA830C034627
:10A580000CF10C0503E001322C33172A0FD01968A7
:10A590008C42F8D119797145F5D159590029F2D079
:10A5A0002C210CF1080301FB0233184430BD0020BC
:10A5B00030BD7047A817012048CE04080248436EFA
:10A5C0000BB1543018477047000001200348D0F801
:10A5D00088300BB178301847704700BF0000012069
:10A5E0000348D0F8AC300BB19C301847704700BF1F
:10A5F000000001200348D0F8D0300BB1C03018471C
:10A60000704700BF000001200348D0F8F4300BB1C0
:10A61000E4301847704700BF000001200348D0F81D
:10A62000183113B100F584701847704700000120FD
:10A630000348D0F83C3113B100F5967018477047C5
:10A64000000001200348D0F8603113B100F5A87074
:10A6500018477047000001200348D0F8843113B137
:10A6600000F5BA7018477047000001200348D0F881
:10A67000A83113B100F5CC701847704700000120D5
:10A680000348D0F8CC3113B100F5DE70184770479D
:10A69000000001200348D0F8F03113B100F5F0704C
:10A6A00018477047000001200348D0F8143213B156
:10A6B00000F5017018477047000001200348D0F8EA
:10A6C000383213B100F50A701847704700000120B6
:10A6D0000348D0F85C3213B100F513701847704787
:10A6E000000001200348D0F8803213B100F51C703F
:10A6F000184770470000012001380D4B0D4A00EB50
:10A70000C000116B03EB800310B45B6D83B00A4C87
:10A71000A34214BF4FF480034FF400131943116395
:10A72000126B13400193019B03B05DF8044B70471B
:10A730000000012000380240006002400138F8B5F6
:10A7400000EBC000104C1D46104B04EB8004174674
:10A750000E46606D984214BF962095203DF0F2F8A9
:10A7600094F96900B9096666E5663DF0BFF894F9A9
:10A770006930002B07DB03F01F0001225B0904494D
:10A78000824041F82320F8BD000001200060024013
:10A7900000E100E0800AA0F58010522808D8054B9F
:10A7A000034493F8F4330D2B02D8034AD056704774
:10A7B0000020704748CE0408B43E05080120FEF78B
:10A7C0000DBA00BF0220FEF709BA00BF0420FEF751
:10A7D00005BA00BF0820FEF701BA00BF1020FEF73F
:10A7E000FDB900BF4FF47870FEF7F8B94FF47C4024
:10A7F000FEF7F4B92DE9F04F0E4683B00446154636
:10A80000002800F0C7800268644B13449B0A644A26
:10A81000C6F34119134493F8A0073DF093F8C6F32B
:10A820008103B4F804E006F00301246801939EFA62
:10A83000AEF0B0FA80F001F1FF383EFA00F367D0D5
:10A8400001220327009603E001303EFA00F35ED0B8
:10A8500002FA00F313EA0E03F6D0D4F800C093FA1C
:10A86000A3FBBBFA8BFB93FAA3FABAFA8AFA4FEA74
:10A870004B0BB8F1010F4FEA4A0A07FA0BFB01FA3A
:10A880000AFA2CEA0B0C4CEA0A0CC4F800C04ED9A8
:10A89000D4F80CC093FAA3FBBBFA8BFB93FAA3FA90
:10A8A000BAFA8AFA4FEA4B0B02294FEA4A0A07FA28
:10A8B0000BFB09FA0AFA2CEA0B0C4CEA0A0CC4F856
:10A8C0000CC0C1D193FAA3FABAFA8AFA4FEA132C50
:10A8D000BAF1070F45DCD4F820C093FAA3FABAFA0C
:10A8E0008AFA93FAA3F34FF00F0BB3FA83F34FEA0C
:10A8F0008A0A01309B000BFA0AFA05FA03F32CEAE4
:10A900000A0C4CEA030323623EFA00F3A0D1009E36
:10A91000B8F1010F08D86268C6F3001322EA0E02EC
:10A920000EFB03F31343636003B0BDE8F08FD4F86C
:10A9300008C093FAA3FBBBFA8BFB93FAA3FABAFA0B
:10A940008AFA4FEA4B0B019E4FEA4A0A07FA0BFBC1
:10A9500006FA0AFA2CEA0B0C4CEA0A0CC4F808C0F6
:10A9600096E7D4F824A09CFAACFBBBFA8BFB9CFACC
:10A97000ACF34FF00F0CB3FA83F34FEA8B0B9B0051
:10A980000CFA0BFC05FA03F32AEA0C0A4AEA030361
:10A99000636259E74FF0FF3339E700BF0000FEBFA5
:10A9A00048CE040800B125E7704700BF2DE9F84FF5
:10A9B0006D4EC0EB001306EBC303D3F8104B002C15
:10A9C00000F08A8093F8808B0546070140463CF0F2
:10A9D000B9FF01224FEA581308F01F08013B02FAA1
:10A9E00008F2032B08D8DFE803F0ADB302B95F49E2
:10A9F0000B6A23EA02030B627B1B05F1010B06EBDA
:10AA0000C3035FFA8BFB93F8140B0EF087FE8046AE
:10AA100018B1122380F807B083717B1B06EBC303C8
:10AA200093F8150B0EF07AFE824618B1132380F8C6
:10AA300007B083717B1B06EBC30393F8160B0EF074
:10AA40006DFE814618B1142380F807B083717F1B17
:10AA500050462E2106EBC70696F8182BFFF7A2FFEB
:10AA600096F8192B48460E21FFF79CFF96F8172BF6
:10AA70002E214046FFF796FF23683D4A23F040030E
:10AA8000944223602AD03B4B9C4231D103F50033E2
:10AA90001A6A42F480421A621A6A22F480421A62E6
:10AAA000636843F48053636023685B060CD42068BA
:10AAB00040F217323049314B01400A43226062684C
:10AAC000134043F4E0636360E36923F40063E361EC
:10AAD000236843F040032360BDE8F88F234B5A6A94
:10AAE00042F480525A625A6A22F480525A62D7E77C
:10AAF000234B9C421BD0234B9C420DD0224B9C42AB
:10AB0000CED103F568435A6A42F480125A625A6AF7
:10AB100022F480125A62C3E703F582335A6A42F480
:10AB200000525A625A6A22F400525A62B8E703F598
:10AB3000FE331A6A42F400421A621A6A22F4004290
:10AB40001A62ADE709494B6923EA02034B6153E7F7
:10AB500006494B6A23EA02034B624DE703490B693E
:10AB600023EA02030B6147E7A817012000380240DF
:10AB700000300140003800404000FFFFFBF0FFFFC5
:10AB8000003C0040003401400050014008B1002268
:10AB900030E670472DE9F047CC7824B94FF0000833
:10ABA0004046BDE8F08700F110070D46064689785B
:10ABB00038460EF077F880460028EFD020460EF099
:10ABC000ADFDB0612B7804460133DBB210B1C37127
:10ABD0002223837120460D21DFF88090FFF7D6FFF6
:10ABE0002046FFF719FCD9F81C34632BFBD9194810
:10ABF0000EF044F8DFF868A0174CB08202E05AF873
:10AC0000044F54B13846A04703460028F7D03069B6
:10AC100086F8D8303FF06CFDC2E7E8780EF07EFD94
:10AC2000D9F804790646002FB8DDDFF8388002E055
:10AC30000134A742B2D004EB440518F805000EF029
:10AC40006DFD8642F4D1214608EB05000EF0A8FD0B
:10AC5000A4E700BF40420F0051CD0308A817012010
:10AC6000F0D50408B02001202DE9F74F6023D94C1E
:10AC7000054603FB0043D3F85079D3F85869D3F85D
:10AC80005C89002F00F0A1811EB1B379002B40F048
:10AC90009C81B8F1000F04D098F80630002B40F0EA
:10ACA00094816B1CDBB216B11522F371B271B8F14D
:10ACB000000F04D0162288F8073088F80620387C68
:10ACC0004FF009093CF03EFE3046FFF7A5FB404639
:10ACD0001121FFF7A1FB3046FFF758FF1121404635
:10ACE000FFF754FF4FF0330A05E0BAF1010A09D02B
:10ACF0000A2012F0CDFA002EF7D03368B2881B6913
:10AD00001A42F2D03046FFF78DFB052012F0C0FA50
:10AD10003046FFF781FB052012F0BAFAB9F10109BC
:10AD2000E0D130464FF0600BFFF77CFB052012F0BE
:10AD3000AFFA4046FFF776FB0BFB05FB052012F050
:10AD4000A7FA3046FFF768FB04EB0B0A052012F068
:10AD50009FFA4046FFF760FB9AF8603930460422BC
:10AD6000002B0BF114060CBF1E213E210191FFF7B1
:10AD700019FE4046DFF88082042201994644FFF71D
:10AD800011FE4C224946304641F0D4FDDAF85039E4
:10AD90009FED917AB0EE084A5B68F7EE003A9FEDBE
:10ADA0008F5ACC46CAF864398D4B9A68BAF8623922
:10ADB000C2F3822203EE103A8A4B134493F8B4276D
:10ADC000D4F82434D34007EE903AF8EE677AC7EE11
:10ADD000275A9FED857AF8EEC37AC7EE274ADFED52
:10ADE000837AB0EE007AE5EE877AA5EE875A25EEF3
:10ADF000844A37EE856A34EEE72A13EE103A0CF1F6
:10AE0000010EB3F5C87F40F2145307EE90EADBBFA2
:10AE100019464FF4967278226423C8BF3223F8EEA5
:10AE2000E76AD4BF4FF4167B4FF4827B1344A2F140
:10AE3000320266EEA56AC8BF4FF4FA7107EE903A87
:10AE40005944B8EEE77AC7EE267A07EE102AB8EE34
:10AE5000C77A37EE447A77EEE37AFCEEE77A17EEBC
:10AE6000903AC7EE267AFCEEE77A17EE900A07EEE4
:10AE700090BAF8EEE72A07EE901AF8EEE77A62EE5B
:10AE8000A42A82EEA77A77EE452A32EE477AC2EEFE
:10AE9000A67A77EEE37AFCEEE77A17EE901AC7EE21
:10AEA000267A77EEE37AFCEEE77A17EE902A02F143
:10AEB000020B0BEB010AB0EE467A07EE90AAF8EE11
:10AEC000677AA6EEA77AF4EEC74AF1EE10FA7FDCB5
:10AED00043EA000B5FFA8BFBBBF10F0F00F28E8091
:10AEE00041EA020B1FFA8BFBBBF1FF0F00F28680D9
:10AEF0001B05000403F07F6392B200F47F0003435C
:10AF00003B4843EA0C7300EA01210B4343EA020980
:10AF1000602330465D4301232C442835C4F86899EA
:10AF2000A8444FF00009C4F87039C4F86C99C4F80B
:10AF30007499C4F87899C8E902993EF011FD94F823
:10AF4000A539202BD9B21AD194F8A439012B16D0E7
:10AF5000242384F8A539D4F864391A6822F0010250
:10AF60001A601A6822F480521A601A681A601A6805
:10AF700042F001021A6084F8A51984F8A49900210E
:10AF800097F912003CF0B2FC97F91220BB7C002A22
:10AF900008DB5909012203F01F0302FA03F3154AE3
:10AFA00042F82130002197F911003CF09FFC97F9FD
:10AFB00011207B7C002A08DB5909012203F01F03C2
:10AFC00002FA03F30B4A42F8213003B0BDE8F08FD8
:10AFD00001316EE7A8170120286B6E4E0000164362
:10AFE0000038024048CE0408002474490000704232
:10AFF00000FFFF0000E100E0F8200120BEF10F0F8C
:10B0000086D0F446F9E600BF70B50E4CD4F8346B28
:10B01000002E15DD04F58764002503E0013520349A
:10B02000B5420DD0237F002BF8D0E0680022002825
:10B03000F4D00135217DFFF7DDFB2034B542F1D19D
:10B04000012070BD680100202DE9F04F002393B06E
:10B05000A64E0293A64BA6F6B80ADFF89C9293F888
:10B0600002EDA44D0EF1FF37CDF80CE0FBB20193D9
:10B07000DFF898B2DBF80070BB0AA3F58013522BFF
:10B0800000F2D780534493F8F4330D2B00F2D180B3
:10B0900015F90380039B012B00F01D81039B022BFC
:10B0A00002D1B8F1080F3AD100242146404613F0EE
:10B0B00091F813F017F990F800C0BCF1000F18BF19
:10B0C000BCF1540F14BF4FF0010C4FF0000C40F0D6
:10B0D000F8800434A4B2102CE7D1029B002B00F0BE
:10B0E000B380854A0CE0534493F8F4330D2B0ED80B
:10B0F000EB5643450ED002F586724A4500F0A0801B
:10B1000091680B689B0AA3F58013522BEBD900239F
:10B110004345F0D14B799BF805109942EBD10BF1E7
:10B120001C0BB345A6D1029B09F586790133042B8C
:10B1300002939DD1DFF8D8A10023AAF5876B019374
:10B140000AF59E730293DBF8343B019A93426DDD5E
:10B15000674BDAF80C7093F8182D9AF810300393B7
:10B16000002F63D03B68DBF804506448B988002D99
:10B17000184404914FEA902040F3CE805E4E0024A4
:10B1800005E0013406F58676AC4200F0C3803168F4
:10B190008142F6D1584A4FF48671DDF810C001FBA8
:10B1A0000424039A019E8AF81020049A0136CAF8F2
:10B1B0000C70B2FA82FE0322CAF81840CEF11F05C5
:10B1C0006800CAF80450BA71FE7102FA00F7A16C67
:10B1D0000122D4F85480394302FA00F002FA05F54E
:10B1E0009BF80070A164216D0143D4F8AC00216587
:10B1F000A9B2002F00F0F98045EA08056565C3F89B
:10B2000018C0FCF777FF20460AF1200AFCF746FF3A
:10B2100040F201120123082E2AF8042C029A01960A
:10B2200002F1180202F8073C02928CD113B0BDE87B
:10B23000F08F019B012B7FF672AF4FF0000833E7D0
:10B24000BCF1000F7FF46BAF5846FCF7EDFE9BF8A6
:10B2500005E0C3B2022B00F28B8300F1010C284AF7
:10B260000CEB4C0C02F57D704FEA8C0C03E02C3299
:10B27000904200F07D8313689F42F8D113797345A3
:10B28000F5D152F80C30002BF1D01E480021426855
:10B290009A4212D0013124301029F8D14FF0FF33F7
:10B2A00003EBC303184A02EB830393F87030002BBF
:10B2B0007FF435AFC9F808B035E74B1CDBB2013B72
:10B2C000EEE7029B002B7FF40CAF0BF11C0BB34598
:10B2D0007FF4D0AE27E7B8F1010F3FF4E5AE0BF1F4
:10B2E0001C0BB3457FF4C6AE1DE700BF00D70408B2
:10B2F000A8170120B43E0508700100200000FEBF21
:10B3000048CE0408540001200000012004D604089F
:10B31000A0050020042C76D04FF4867101FB05B106
:10B320000C690694002C00F0058388600130CDE99B
:10B330000723C4B2069B542081F8114181F8100103
:10B34000691C18461E685B79CBF804100593FCF75E
:10B350006BFEC1B28146022900F20A8300F1010EA0
:10B360004FF0000CA7480EEB4E0E079ADDF8148044
:10B370004FEA8E0E089B06E00CF1010C2C30BCF15C
:10B38000170F00F0F58201688E42F5D10179414531
:10B39000F2D150F80E100029EED088462C2109EB8E
:10B3A0004909984801FB0CF101EB8901DFF89492FF
:10B3B0000144CC4608694FF4867101FB05B1C1E92F
:10B3C00007800020DCF8041041452DD001300CF13D
:10B3D000240C1028F6D18C4B93F84C20BAB9542287
:10B3E00083F84D4083F84C2011E0CEF12F0E02FA85
:10B3F0000EF242EA080262654FEA0C429A613A464E
:10B40000FCF778FEFFE60323804A82F8193D804B63
:10B4100080488149814AC3F84804C3F84014C3F8FE
:10B42000502413B0BDE8F08F411C7748C9B20139F0
:10B4300001EBC10100EB810E9EF87010089100290C
:10B44000E5D14FF4867176484FF08C0C8EF8714040
:10B4500001FB05F1734C062A07914FEAA10100FB9D
:10B4600001F107985844C36004F54C73C0F800C15B
:10B470000CFB01FC01EB410103EB4C0301EB01115F
:10B48000C0F8FC304FF0540304EB810407998EF8A8
:10B4900070304FF03303C0F8B440C0F8B830624B9E
:10B4A00003EB0104594BD3F8241400F03182072A2E
:10B4B0005E4B5F485F4A18BF1A465F4B18BF034692
:10B4C0003046B1FBF3F3B1FBF2F2013B511E4FF4F6
:10B4D00086729BB202FB05B2A2F8BC10A2F87430CF
:10B4E0002366079B03F158014F4B19440023A4F82E
:10B4F00058306366E3653DF019FF3368059A43F001
:10B50000800333600C2A0ED8DFE812F0AC010D0086
:10B510000D000D008B010D000D000D00CB010D0085
:10B520000D000D0068014FF486736022304603FB66
:10B5300005B30A924FF48072596933681092012260
:10B5400023F0010309910B920A22336000230C932C
:10B550000F9311930223CDE90D230AAA3DF09EFD1E
:10B5600009990023B1F5807F00F0F68100F2D381C4
:10B57000102900F0FA8100F2E281012900F0F38144
:10B58000042915BF4FF4006208223C23002306F172
:10B590001801C8580243CA50069B1879002840F089
:10B5A000A681336843F0010333600023D9F80420F7
:10B5B0000133904500F09781102B09F12409F5D152
:10B5C0004FF0FF33104A03EBC30302EB8303586DC4
:10B5D0001A4B984214BF962095203CF0B3F9059B76
:10B5E0000C2B00F27D81074A02EB4303B3F8B8C885
:10B5F0004FF48673124903FB05B3A3F818C0002368
:10B6000029E000BF48CE040800000120A81701204F
:10B6100060120020697801086578010871780108D6
:10B620006B4CA407C0160020700100204495080050
:10B63000D0DD06001055220040771B00006002405C
:10B640008C10002054000120964200F080810133CC
:10B65000042B00F0908151F83320002AF4D1DBF85C
:10B66000202F0132CBF8202F0BEBC302DB00C2F8F6
:10B67000246F19440898234690228E884CEA060CC1
:10B680000026A1F804C0BD49FFF758F84FF48673AF
:10B6900040214FF4403003FB05B8B94A4FF4804CC9
:10B6A000D8F81C502B6843F010032B602B6843F034
:10B6B00014032B60C4F8A860C4E91F66C4E92866B7
:10B6C000D8F82030A1670421C4F89430C4F89C1045
:10B6D000E9B208934FF480631039C4F89800C4F8B5
:10B6E000843025F0FF00A2FB0121D8F8B820079B89
:10B6F000C4F890204FF48052D8F80C900909C4F88F
:10B70000882009F1180209F11009226703F170027B
:10B710009C4B1A44D8F8B430C4F88CC06367CDE9A8
:10B7200005013DF04BFFD5F800E0079BC4F820E091
:10B73000D5F814E003F1B802924BC4F824E0D5F830
:10B7400004E01A44089BC4F828E0D5F808E0C4F8DF
:10B750002CE0D5F80CE0C4F8DC300423C4F8C86051
:10B76000C4F8E4304FF48063C4F8F060C4F8CC301F
:10B770004FF40033C4F830E0C4F8E030C4E9306678
:10B78000C4E93A664FF40066D8F80031C4F8B890BE
:10B79000C4F8D0604FF48046C4F8D830D8F8FC30F4
:10B7A000C4F8D460C4F8BC30DDE905013DF006FF03
:10B7B0002B68B7F804C063636B69A3636B68E363CA
:10B7C000AB682364EB6863642B6843F010032B6061
:10B7D0002B6843F014032B603B68E2E433684FF4BA
:10B7E00086724FF480514FF0020E23F0010302FBEA
:10B7F00005B2304651610AAA336000230C930F93BF
:10B80000119360230A934FF48073109301230B93D9
:10B810000A23CDE90D3E3DF041FC4FF400620423C4
:10B82000B5E64FF4867210213368022002FB05B2A0
:10B8300023F0010351616022336000230A924FF428
:10B8400080720C93109201220F930B920A22119393
:10B85000CDE90D200AAA30463DF020FC00234FF42C
:10B86000006294E64FF4867233680121304602FB91
:10B8700005B223F001030B91516160223360002374
:10B880000A924FF480720C930F931193022310923B
:10B890000A22CDE90D230AAA3DF000FC002308226C
:10B8A00075E633684FF486724FF48071022023F0FE
:10B8B000010302FB05B21091516160223360002345
:10B8C0000C930F9311930123CDE90A230A230AAAAB
:10B8D000CDE90D3030463DF0E1FB0822042356E669
:10B8E0004FF0000C84E6DBB20893013B6AE60DF0F2
:10B8F00015FF099038B1069B0221DA79FEF77AFF2D
:10B900005422099BDA80736C43F40043736448E665
:10B910001D4A1E4BD4E5B1F5805F20D0B1F5803FC4
:10B9200017D0B1F5806F15BF4FF4006208223C2399
:10B9300004232CE60223164A82F8193D67E54029C4
:10B9400015BF4FF4006208223C2300231FE6DB00F2
:10B950008FE608223C231AE60822042317E64FF458
:10B960000062042313E6082211E64FF400620EE69B
:10B9700000235B68FFDE00239B88FFDE4181000817
:10B98000ABAAAAAA70010020882A1100A0BB0D0052
:10B99000A81701202DE9F84FDFF830C200227A4EB7
:10B9A00005466346D6F81C4D5968013224338C4253
:10B9B00000F0AC80102AF7D10024744B9D4205D0D2
:10B9C00048339D4202D00020BDE8F88F671EDFF8A3
:10B9D000008207EBC7034FEAC70908EB83029B000D
:10B9E00092F87020002AEED19C444FF0170BACF86F
:10B9F0001CB0002CE7D0DFF8ACA10120DAF824302D
:10BA000043F40063CAF8243011F0BEFDDAF82430A4
:10BA1000012023F40063CAF8243011F0B5FDA6F824
:10BA20006EBEDAF8443043F40063CAF84430DAF802
:10BA3000303043F48003CAF83030DAF8303043F065
:10BA40000C03CAF8303096F8223D002B60D10C224E
:10BA50000E214F48A6F88EBEA6F8BEBEFEF7CAFE5F
:10BA60000C220E214B484F44FEF7C4FE0C220E213F
:10BA70004948FEF7BFFE494B08EB8707DB68C6F86D
:10BA80001C5DC3F30223C3F107011A1D042928BF5B
:10BA90000421062A88BFDA1E4FF0FF3398BF002228
:10BAA0008B40DB4303F0010393403D4A1B01DBB2B3
:10BAB00082F831334FF40033796D5360394A136B98
:10BAC00043F4800313630022374B2A60AB6003F515
:10BAD0009B3303F5EC739D4239D0344B4FF4741013
:10BAE000334AD8600720C3F8A020324AC3F8B40014
:10BAF000914241D096203BF025FF002301222E49A0
:10BB00002046FEF71BFE0120BDE8F88FD4B254E7B3
:10BB10000C220E211E48A6F876BEA6F87EBEA6F818
:10BB200086BEA6F88EBEA6F8BEBEFEF763FE0C2249
:10BB30000E212248FEF75EFE0C220E212048FEF761
:10BB400059FE0C220E211F48FEF754FE88E74FF0E5
:10BB50007460174A583B986007209A65154AD86662
:10BB600091420DD096203BF0EDFE002301221649B4
:10BB70002046FEF7E3FDC6E795203BF0E3FEBCE779
:10BB800095203BF0DFFEF0E7A81701205864024043
:10BB900010260120302601206026012000ED00E063
:10BBA00000E100E000380240802C014000640240C7
:10BBB0006054A3080060024089C7000818260120CD
:10BBC0002026012028260120C1C60008540001209B
:10BBD0000000012070B590F8B2311C09013C052C21
:10BBE0000FD81A4E054603F00F0306EB4402B2F8D5
:10BBF000D40840FA03F2D20703D595F8BD21012AF3
:10BC000001D0012070BD9A402644013A104040F016
:10BC10003FFF96F8E0380E4A034402EBC30452F8A3
:10BC20003320A38810691840ECD0002395F8B32185
:10BC30000221204685F8BD31FEF7DCFDD5F8202134
:10BC4000136843F008031360DBE700BF48CE040825
:10BC5000D024012070B503798AB0344C002B14BF76
:10BC60000122002284F8742303D184F848330AB0F7
:10BC700070BD04F55F76054690F9001030460DF072
:10BC800011F8AD78002D44D101232949294A84F8BF
:10BC90008833D4F82434C4F81024B1EB930FC4F8DB
:10BCA00084534FEA93024FF0020306D252085B001E
:10BCB0008A429BB201D9FF2BF8D94FF47A70A4F8CD
:10BCC000803311F061FCD4F8843313B11A689B8877
:10BCD0009361194DEC460FCDACE80F000FCDACE8E9
:10BCE0000F0095E803008CE80300694630460DF02C
:10BCF00033F9D4F87C23136A002BFCD1D4F81C143C
:10BD0000012284F83C33C4F8381384F848230AB07D
:10BD100070BD28460DF002FD05460028B4D01E2354
:10BD200000220D21C380FEF765FDADE7A8170120B5
:10BD3000801A0600CC1A012030D7040808B9002068
:10BD400070472DE9F04F00228DB02F21044612F0EC
:10BD50001FFB064600B390F805A0DFF88C82D0F8F0
:10BD600000B0A8F830A5FEF7E9FBA8B1D0E901536F
:10BD700000938DB18E4F0022394638464368013218
:10BD800024309D420CD0102AF8D18A4B93F84C20D5
:10BD900012B92F22A3F84C2000200DB0BDE8F08F7F
:10BDA000D2B2844B013A02EBC20203EB8200920052
:10BDB00090F870300193002BEED111442F22C8F877
:10BDC000F0B48A837C4AD8F82414914280F0D08061
:10BDD000019A090A7948C8F8F4240022A0FB01104E
:10BDE0007749C8F80025C8F8F8240209DFF8FC9163
:10BDF0000009A1FB0212C8F8FC04520829F8CE2C55
:10BE0000520029F8D02C98F82D2502F0FF01002AC5
:10BE100000F0BA80022258466A4988F82D2536F08B
:10BE20008FFE0122204688F82D250DF077FC49F879
:10BE3000CC0C28B12F21C1804E21F279FEF7DAFC1B
:10BE4000009B00224FF48060BAF10C0F49F8BC2C23
:10BE500049F8AC2C49F8A42C49E932535A4B49E92A
:10BE60002722196B41F400111963196B01F40011B9
:10BE700003910399196B41F4800119631B6B03F45F
:10BE800080030493049B4FF0400349F8C03C4FF4F7
:10BE9000805349E92E034FF4804349F8B03C4FF4F6
:10BEA000003349F8A83C4FF0030349F8A03C6ED892
:10BEB000464B03EB4A03B3F810399B4603F10804E1
:10BEC000434B444A49F8903C08EB8403C3F8F02400
:10BED0003B460022596824338D425BD00132102A40
:10BEE000F8D14FF0FF33334A03EBC30302EB830374
:10BEF000586D394B984214BF962095203BF022FD97
:10BF000000237A6801332437954247D0102BF8D1AB
:10BF100008EB840801985B4660223049FEF70EFC6E
:10BF2000D8F8F00434F0BCF900287FF435AFB479C8
:10BF300060210A905246630005910B9005A903F019
:10BF40000203069009900793E300214803F00803D9
:10BF500008933BF05DF900287FF41EAFA30751461C
:10BF60001B481ED536F0D4FEB0FA80F0400914E725
:10BF70001B4A1C480A44A0FB0202920D013A92B2ED
:10BF8000501CB1FBF0F124E788F82C1542E79346EA
:10BF9000134693E7531CDBB2013BA4E7DBB20193EA
:10BFA000B6E736F09DFDB0FA80F04009F5E600BF37
:10BFB0005400012000000120006CDC02598B4F016D
:10BFC000ABAAAAAA9C1C01200038024048CE040853
:10BFD000981C0120D82701200060024059920008D7
:10BFE00000366E01819F5E16A8170120A02801204F
:10BFF000014B43F82010704750280040204B214847
:10C00000196C214A41F0805130B4196482B0196C26
:10C01000FF2401F0805101910199016841F4807180
:10C020000160CA20196C41F480611964196C01F433
:10C03000806100915321009D5462506251625B6F98
:10C04000DB0013D4114B00221149C3F85428C3F864
:10C050005828C3F85C28C3F86028C3F86428C3F8DC
:10C060006828C3F8501802B030BC7047A2F50062CF
:10C07000074BD2F850289A42E4D102B030BC704746
:10C0800000380240007000400028004000200040BE
:10C09000316665422DE9F0470646086888B00C46CF
:10C0A000850ABDF84080A5F580159DF844A0522D65
:10C0B00055D819462D4B2B4493F8F4530D2D4ED8DB
:10C0C0002B4FFDF707F994F8059007EB8517A37937
:10C0D000BAF1000F01D083F001035A004FF48071D0
:10C0E000DB00384602F00202CDF8088003F00803B6
:10C0F00003924A460493602301934FF40073CDE901
:10C100000613002301A905933BF082F8A379384672
:10C1100049469F0726D436F0E3FC164BA8010222BD
:10C1200003EB8515D5F8341585F87125124A8D680D
:10C130002A40062A06D0B2F5803F03D00A6842F0B2
:10C1400001020A600344012283F8712521686379A2
:10C1500001F1340271600021D0183060D15008B074
:10C16000BDE8F08736F0D4FDD7E700BF48CE04081D
:10C17000DC1C0120A8170120070001002DE9F84F61
:10C18000D0F894700446524B00F16406FDB227F0DB
:10C19000FF09826800F1180A103D4846D2F8008075
:10C1A000A3FB05352D0929463DF050FA626D0023A9
:10C1B000B2F5807F84F858307ED00DD8102A00F078
:10C1C00083805CD8012A45D0042A16BF6FF4006131
:10C1D0006FF008013C230EE0B2F5805F70D0B2F53D
:10C1E000803F3AD0B2F5806F15BF6FF400616FF0F9
:10C1F00008013C230423324608F11806404656F84D
:10C2000003C001EA0C01F150D4F854B059463CF097
:10C2100045FFBBF5807F2DD023D8BBF1100F3ED05A
:10C2200036D8BBF1010F02D0BBF1040F33D14FF070
:10C23000080C336852462946484643EA0C033360EB
:10C24000402323623DF0BAF93B6843F010033B60A2
:10C25000BDE8F88F6FF00801CDE76FF008013C23CF
:10C26000C9E7BBF5805F22D0BBF5803F1AD0BBF594
:10C27000806F10D108F11C064FF0080CD9E7402A56
:10C2800015BF6FF400616FF008013C230023B2E793
:10C29000BBF1400FCBD03C364FF4006CC9E74FF4F4
:10C2A000006CC6E708F154064FF0080CC1E708F12E
:10C2B0001C064FF4006CBCE76FF0080104239AE7FA
:10C2C0006FF40061042396E76FF4006193E700BF09
:10C2D000ABAAAAAA2DE9F04FDFF840B287B09BF8CD
:10C2E00000301BB9012007B0BDE8F08F854BD3F8B3
:10C2F0001C3404930DF03AFD834A92F8243C002B41
:10C3000000F0F8800BF23464D2F81C340BF6383AA3
:10C310000BF61868C31A2646002705940193019A64
:10C32000002A03DBF36D934200F3CA8007EB870317
:10C330000BEB431393F88C3603F0FF0E002B00F049
:10C340008680D6F89410B36870481A68CBB221F092
:10C35000FF01103BA0FB03036D481B09C35C0B44AA
:10C36000B1895C68D368A4B223EA0103C4F116045E
:10C37000D360072C6BD9DBF8203E0022012101336A
:10C3800015468946CBF8203ED6F89C30CDE902E729
:10C3900018689C4615E0142D1EDC17F1080E48BFE6
:10C3A00007F1170E4FEA2E1705EB2E1507F1FF3E8A
:10C3B000013102FA07F709FA0EFE8C424EEA070233
:10C3C0000AD307468C425CF8040FA0EB0707E2D8BB
:10C3D000C5F115071525E9E7152DDDE902E766D159
:10C3E0004C4CC2F38421C2F3441004EB810104EBF2
:10C3F0008000D1F82C19D0F82C09090241EA00116B
:10C4000002F01F00C2F3C43204EB800004EB82028E
:10C41000D0F82C09D2F82C29014341EA023282EAF1
:10C42000122181EA111101F00F010F293FD1C2F34E
:10C430000F124FF6FF718A4239D0B2F5606F43D0C8
:10C44000A8F80C207146049A50460CF0BFFB304609
:10C450000137FFF793FE2C4BA0360AF15C0A93F8E4
:10C46000243C08F11408BB423FF759AF012226498A
:10C47000059C8BF81E2F0022C1F81C24002B3FF4D2
:10C4800031AF03EB830304EB4313A268A03414F829
:10C49000901C126854F84C0C11F0020F116A14BF72
:10C4A00041EA800101439C421162EED11AE7DBF8B8
:10C4B0001C2E0132CBF81C2EB7B14FF0000EC1E795
:10C4C000002007B0BDE8F08F0E4991F8E03403EB8F
:10C4D000430301EBC3033B4493F88D340D2BAFD1E1
:10C4E000802388F81E30ADE7194658220A4840F0EC
:10C4F0002BF9E2E7012204498BF81E2FC1F81C3406
:10C50000F0E600BFA817012060120020ABAAAAAA7B
:10C51000C83E050848CE04082C1000206801002001
:10C520004A1C4FF4003310B418BF4FF0450C484C70
:10C5300008BF4FF0800C00E00BB3626B013B12EAC6
:10C540000C0FF9D0002925DD626B54071ED4032996
:10C5500020D03F4B5A6BD20720D402291CD01A6935
:10C56000D2B282421ED101295B691DD0062913D1A6
:10C5700013F4604F44D1374A42F8683C0CE000297C
:10C5800004DD636B5B0701D40329E2D103205DF86E
:10C59000044B7047002BF9D00020F8E701205DF82C
:10C5A000044B70471020F2E72B4A1A40002AF3D0C0
:10C5B000002B31DB5C002DD4980031D4D9002DD470
:10C5C0001A0131D45C012DD4D80137D419021DD4FD
:10C5D0005A02E7D49C022DD4D80229D4190317D4C7
:10C5E0005A0323D49C0331D4D8032DD4190429D45D
:10C5F0005A0425D49C041FD41807CDD51A20C6E7A9
:10C60000990405D45A04CDD41B04C5D50F20BEE728
:10C610001320BCE70920BAE71C20B8E70B20B6E7D7
:10C620000A20B4E70D20B2E70C20B0E71420AEE7F3
:10C630001220ACE71120AAE71920A8E70E20A6E7F0
:10C640001820A4E71720A2E71620A0E715209EE7F0
:10C65000002C0140A028012008E0FFFDF8B5164D90
:10C66000D5F8BC32A3B1D5F8C4120446012915D0BF
:10C67000124B40F2FF500021DA6A22F00802DA621F
:10C680009863C5F8BC12236823F001032360F8BD4A
:10C690000A4AD36B43F48073D363F8BD074E40F26C
:10C6A000FF5700230C20B763B36040F24C43F360A4
:10C6B000FFF736FFB763DBE7A8170120002C014026
:10C6C0002F4B1A68910102D59A6D52074BD42C4B0F
:10C6D0001A68500202D5DA6E11063CD4284B1A684B
:10C6E000D20102D59A6D90072DD4254B1A685101BD
:10C6F00002D59A6D120717D4214B1A68120112D570
:10C700009A6DD0060FD59A6D510334D49A6DD20527
:10C7100003D49A6D22F010029A65194B4FF0006213
:10C7200018489A609AE770479A6D500307D49A6D3B
:10C73000D10503D49A6D22F008029A65104B4FF090
:10C7400080629A60D8E79A6D4FF0807122F0020201
:10C750009A659960C9E7DA6E4FF4800122F0800291
:10C76000DA669960BAE79A6D4FF0007122F0040220
:10C770009A659960ABE74FF000629A60704700BF1E
:10C780000064024058640240384B5A68110303D5D4
:10C79000D3F8A02052075BD4344B5A68D00303D59A
:10C7A000D3F8B420110649D4304B5A68520303D54C
:10C7B000D3F8A020900737D42C4B5A68D10203D568
:10C7C000D3F8A02012071CD4284B5A68920217D520
:10C7D000D3F8A020D00613D5D3F8A020510341D41C
:10C7E000D3F8A020D20505D4D3F8A02022F010025F
:10C7F000C3F8A0201D4B4FF400121D48DA602DE74E
:10C800007047D3F8A02050030AD4D3F8A020D10554
:10C8100005D4D3F8A02022F00802C3F8A020134BBF
:10C820004FF48012DA60CFE7D3F8A0204FF48021D4
:10C8300022F00202C3F8A020D960BDE7D3F8B420EB
:10C840004FF4803122F08002C3F8B420D960ABE706
:10C85000D3F8A0204FF4002122F00402C3F8A02056
:10C86000D96099E74FF40012DA6070470064024023
:10C87000A0640240554B93F82033022B00F29580C0
:10C880002DE9F041524D82B06B6913F0007303D073
:10C890000E2002B0BDE8F081009340F2FF564FF445
:10C8A0008A630827AE630446AF6001211020EB6065
:10C8B000FFF736FEAE630028EBD1DFF8208140F2AF
:10C8C0007743AE63012158F8682C3720AA60EB60EB
:10C8D000FFF726FEAE630028DBD13E4A40F27343E9
:10C8E00001216A62AF62EA6A42F03302EA62AE6331
:10C8F000A8603320EB60FFF713FEAE630028C8D1B9
:10C90000694640F22A4201E09F0252D46B6B134207
:10C910006B6BF9D01E0751D46B6B980750D46B6BBF
:10C9200099064FD46B6B9B024ED4B4F5006F009BFD
:10C9300018BF4FF480321BBA08BF4FF480221A424E
:10C9400035D0234D40F2FF5658F8682C40F277431B
:10C95000AE630121AA603720EB60FFF7E1FDAE6313
:10C96000002896D1A4F5006340F24642AE6301214F
:10C97000B3FA83F306205B095B00AB60EA60FFF764
:10C98000CFFDAE63002884D16B6803F400639C4242
:10C990003FF47FAF104A6B68134023436B606B68B2
:10C9A00003F40063A342F6D173E7282070472620E2
:10C9B0006FE7D5F8803041F8043BA7E7042068E72B
:10C9C000022066E7062064E7222062E7A81701201C
:10C9D000002C014000E1F5050081FFFFA0280120A7
:10C9E0000E4A01210D2052F8682C38B50C4C40F24B
:10C9F000FF5540F24D43A563A260E360FFF790FD51
:10CA0000A56340B96069C0F34320A0F10400B0FA07
:10CA100080F0400938BD002038BD00BFA0280120AB
:10CA2000002C01402DE9F0439D4D83B015F8646C56
:10CA300036B19C4B93F89432184603B0BDE8F083AE
:10CA4000994B0122994C022005F8642C5A6C42F44F
:10CA500000625A645B6C03F400630193019A944B87
:10CA600062681340032243F076036360636823F433
:10CA700080736360226010F087FD636840F2FF52AC
:10CA800043F4807363604FF40033A2634FF4806219
:10CA9000A660E26001E0002B60D0626B013B1006F3
:10CAA000F9D5002B5AD040F2FF564FF4D5724FF40F
:10CAB00089630721A6630820A663A260E360FFF7ED
:10CAC0002FFDA663002842D04FF00009774C40F2BA
:10CAD000FF5600230121A6633720A36040F277436D
:10CAE000E360FFF71DFDA663034648BBDFF8C8817E
:10CAF000074649EA0808814610E0A6630137C4F8F2
:10CB00000880E260FFF70CFD4FF6FE720346A66355
:10CB1000B0B96369002B2ADB974228D840F27743EB
:10CB2000A6630121C4F808903720E360FFF7F8FC02
:10CB3000034640F2694203212920A663002BDCD082
:10CB4000584A82F89432184603B0BDE8F083594B36
:10CB500001224FF0804983F82023B7E7534A40F27F
:10CB6000FF51032391634F4A82F89432EBE74FF66B
:10CB7000FF72974200F0928059006DD54D4C02270C
:10CB80004A4B84F820731B689A076FD0474E40F2D7
:10CB9000FF5800230221C6F83880B36040F2C24338
:10CBA0000846F360FFF7BCFCC6F83880034600284F
:10CBB000C6D17369062FC4F8A432B369C4F8A83289
:10CBC000F369C4F8AC32336AC4F8B03250D0022FE3
:10CBD0004ED955F8683C40F2FF57344E02210920E7
:10CBE000B763B36040F2C943F360FFF799FCB763E2
:10CBF00003460028A4D17369C4F89432B369C4F819
:10CC00009832F369C4F89C32336AC4F8A032FBF757
:10CC1000C3FB0346002893D1244E40F2474355F806
:10CC2000682C40F2FF5501210720B563B260F36024
:10CC3000FFF776FCB5631E4A034671680A407260CE
:10CC400000287FF47DAF94F8223D1BB34FF40060C1
:10CC5000FFF710FE034673E7144B1B689B0705D0D4
:10CC6000144C94F82073042FD1D08FE7262367E764
:10CC70000E4E40F2FF5700230621B7630320B36036
:10CC800040F24343F360FFF74BFCB76303460028D1
:10CC90009FD055E7FFF7EEFD034651E71B234FE713
:10CCA000A02801200000012000380240002C014093
:10CCB0000081FFFFA817012000001080294B10B54C
:10CCC00013F85F0C0CF02AFD28B11F24002220214C
:10CCD000C480FDF78FFD244CD4F8F4284AB194F8B1
:10CCE0000039918803F0010312681B0101FA03F374
:10CCF000936194F9232DD3B2012B18D81B4B4FF01D
:10CD00000C0C082003F528711CFB020C02E01C33FC
:10CD10008B420CD01A78032AF9D15A78002AF6D11E
:10CD200053F80C000028F2D0FEF734FE08B90120B9
:10CD300010BDD4F8783343B1196894F875239B88F3
:10CD400009690B4052B9002BF1D0FFF76BFE0028A8
:10CD5000EDD1D4F81C34C4F8203410BD002BE6D13A
:10CD6000F3E700BFA0280120A817012048D304083A
:10CD700008B5FFF757FE58B1114A92F83C3301331A
:10CD8000DBB2072B82F83C3303D9002382F8483307
:10CD900008BDD2F8783343B1186892F875139B88B0
:10CDA0000069034049B1002BEFD1D2F81C140123D4
:10CDB000C2F8381382F8483308BD002BE5D0F4E7F9
:10CDC000A817012010B50379324C002B14BF0123A2
:10CDD000002384F8743303D1002384F8483310BD52
:10CDE00094F9232DD3B2012BF6D82B4B4FF00C0C1A
:10CDF000082003F528711CFB020C02E01C338B4257
:10CE0000EAD01A78032AF9D15A78002AF6D153F8D1
:10CE10000C000028F2D0214913464A682431904280
:10CE200008D00133102BF8D1002384F8153484F88E
:10CE3000483310BD94F8212D0133003A84F815349D
:10CE400018BF012284F81624FEF7A4FDD4F8783325
:10CE500093B1196894F875239B8809690B404AB906
:10CE600053B994F83C330022013384F8482384F802
:10CE70003C3310BD002BF4D1FFF7D4FD0028F0D1D6
:10CE8000D4F81C24012384F83C03C4F8382384F824
:10CE9000483310BDA817012048D3040854000120CE
:10CEA000174A01210D2052F8682C38B5154C40F274
:10CEB000FF5540F24D43A563A260E360FFF730FBEE
:10CEC000A56320B96369C3F34323042B02D04FF059
:10CED000FF3038BD0C4BD3F878030028F9D0026836
:10CEE00093F875338088126910402BB9003818BF49
:10CEF0000120013840B238BDB0FA80F04009F8E7AF
:10CF0000A0280120002C0140A8170120F8B51B4ED5
:10CF100010460A46D6F878433CB12568A1882C69AA
:10CF2000214096F8754324B329BB00213AF004F957
:10CF300008BBD6F8BC32002BFBD1114F40F2FF5595
:10CF4000104C57F8682C40F24D43A5630121A260B4
:10CF50000D20E360FFF7E4FAA5630028F1D16369CF
:10CF6000C3F34323042BECD1D6F81C34C6F8203489
:10CF7000F8BD0029D9D14FF0FF30F8BDA817012026
:10CF8000A0280120002C0140F8B51B4E10460A468F
:10CF9000D6F878433CB12568A1882C69214096F8E1
:10CFA000754324B329BB00213AF062F808BBD6F8D8
:10CFB000C032002BFBD1114F40F2FF55104C57F8F7
:10CFC000682C40F24D43A5630121A2600D20E3606F
:10CFD000FFF7A6FAA5630028F1D16369C3F34323E1
:10CFE000042BECD1D6F81C34C6F82034F8BD002947
:10CFF000D9D14FF0FF30F8BDA8170120A02801209B
:10D00000002C014070B5174D002295F81634C5F874
:10D010004423F3B9144B53F8682C40F2FF56134CD9
:10D0200040F24D4301210D20A663A260E360FFF7AB
:10D0300077FAA66320B96369C3F34323042B0CD0AA
:10D04000D5F81C2409230020C5F8382385F8483377
:10D0500070BD054B43F8582CDDE7022085F84833B6
:10D0600070BD00BFA8170120A0280120002C01409E
:10D07000F8B5924C94F87463002E00F0DC8094F8BC
:10D0800048536B1E082B0ED8DFE803F0C7057B0D55
:10D090002862460D1900FFF7A3FC002840F0CF805E
:10D0A00094F848536B1EDBB2022B40F2BA80082D75
:10D0B00018BF042D0CBF012600263046F8BDFFF72F
:10D0C0008FFC002840F0EF80D4F83833D4F81C24CB
:10D0D000FA339342E4D2FFF74BFED0E7D4F8BC72A8
:10D0E000002F40F0D780FFF77BFC0028C7D0042337
