:020000040800F2
:1000000000000120698004080581040835C1010849
:1000100089BF01080581040805810408000000006B
:10002000000000000000000000000000058104083E
:10003000058104080000000005810408B17D010865
:100040000581040805810408058104080581040868
:10005000058104080581040889A0000891A0000812
:1000600099A00008A1A00008A9A00008799E000896
:100070008D9E0008A19E0008B59E0008C99E00083C
:10008000DD9E0008F19E0008058104080581040832
:10009000058104080581040805810408B1A0000851
:1000A0007DC8000879C700088DC8000869C7000826
:1000B000A1C70008B1C70008C1C70008A19900087E
:1000C00095990008D5990008C99900080581040888
:1000D00005810408097D0108157D0108217D0108BD
:1000E000B9A0000805810408058104089DC800081E
:1000F00055C800080581040845C80008059F000888
:100100000581040805810408D1C700080581040899
:100110002D7D0108397D0108E1C70008F90D0408AB
:10012000199F00082D9F0008419F0008559F000857
:10013000699F0008000000000000000000000000AF
:10014000000000000000000000000000410304085F
:100150007D9F0008919F0008A59F0008457D01082C
:10016000099A0008FD990008058104080581040822
:10017000058104080581040800000000000000005B
:100180000581040805810408058104080581040827
:1001900005810408058104080000000005810408A9
:1001A00000000000000000000000000005810408BD
:1001B000058104080581040800000000000000001B
:1001C000000000000000000000000000000000002F
:1001D000000000000000000000000000058104088D
:0801E000A47D040001000000F1
:1001E8000530010008000000142A0120F02E01202B
:1001F80000000000DCCA0508EC2E012013020100F3
:100208000400000064270120FC2E012000000000EB
:10021800E4CA0508F82E01200A02010014000000B3
:10022800FC260120042F012000000000998300080B
:10023800002F01201F020B0016000000CC26012011
:100248001C2F01200000000051DD0008182F01209C
:10025800062001002800000038230120382F012043
:10026800000000007DDC0008342F01201602150074
:100278003F00000018210120642F01200000000029
:1002880089DD0008602F012021020100F000000034
:10029800346101208866012000000000093B030842
:1002A800846601202C000400100000002461012055
:1002B8007C67012000000000219702087867012070
:1002C80025201E002C010000785F01209067012086
:1002D80000000000000000008C6701202B001200C5
:1002E80024000000C45E0120C06801200000000056
:1002F80031970208BC680120012001000C000000B1
:10030800A0550120E868012000000000E8CA05089F
:10031800E46801201630010008000000B8550120EB
:10032800F868012000000000F4CA0508F4680120FC
:100338002700010004000000AC55012004690120D9
:1003480000000000FCCA0508006901200C600400D8
:1003580078000000084F01200C690120000000000F
:10036800E139020808690120031101000A000000B0
:100378004C5401208869012000000000B97203086C
:1003880084690120F701010006000000C453012020
:10039800986901200000000000CB0508946901203D
:1003A800292014007800000034530120A46901209A
:1003B8000000000000000000A069012023200100C7
:1003C8001000000024530120206A012000000000D2
:1003D8003D9802081C6A01200B3001001A00000039
:1003E800EC520120346A01200000000006CB050809
:1003F800306A01200E70040080020000804F012046
:10040800546A012000000000AD950208506A0120DE
:100418000D1001007000000074520120D86C0120FA
:100428000000000093CA0108D46C012022020100D8
:100438001C010000585401204C6D012000000000F0
:10044800D5EF0008486D0120184001003800000071
:100458003C5201206C6E01200000000095E200086B
:10046800686E01201B02010010000000B86E012018
:10047800A86E0120000000003DDD0008A46E0120E8
:100488002802040004000000D06E0120CC6E012078
:100498000000000035DD0008C86E012027020400B6
:1004A80004000000DC6E0120D86E0120000000006E
:1004B8002DDD0008D46E01201102010008000000A3
:1004C800EC6E0120E46E01200000000021DD000830
:1004D800E06E01201212010004000000FC6E0120F1
:1004E800F86E01200000000019DD0008F46E0120FC
:1004F800010201000A000000106F0120046F0120B2
:100508000000000055DC0008006F01200012010007
:100518000A0000002C6F0120206F0120000000005D
:1005280049DC00081C6F01201A0201003C00000091
:10053800885E01203C6F01200000000035E20008C1
:10054800386F0120FE01010014000000B0530120A3
:100558007C6F012000000000DDDB0008786F0120BF
:100568001D0202000600000064620120946F012051
:100578000000000000000000906F01202E02010022
:10058800040000008E620120A06F0120000000001E
:10059800655701089C6F0120FD0101002100000042
:1005A8006C620120A86F0120000000003B57010881
:1005B800A46F01200400080080000000A46001204E
:1005C800D06F01200000000000000000CC6F012067
:1005D8001C0202001C000000085301205470012076
:1005E80000000000F9E100085070012026300100E9
:1005F80008000000B86201207470012000000000AB
:10060800DD6E030870700120FA010100040000008B
:10061800C0620120807001200000000065DC000835
:100628007C7001200C02010004000000C46201205B
:1006380088700120000000006DDC00088470012033
:100648000812040014000000A46201209070012028
:100658000000000009DC00088C7001200A900100ED
:100668002400000000520120A870012000000000B2
:1006780051980208A4700120031201003D000000F7
:1006880024620120D07001200000000020CB050862
:10069800CC700120FD170100A0000000E4650120D6
:1006A8001471012000000000E11A030810710120F4
:1006B8001310010004000000E4520120B871012069
:1006C8000000000060CB0508B4710120F62101008C
:1006D8000C000000CC530120C07101200000000074
:1006E80064CB0508BC710120F83101000800000046
:1006F80024520120D07101200000000070CB0508B1
:10070800CC7101200612040018000000FC620120D0
:10071800DC7101200000000081E10008D87101208F
:100728000202010003000000B0720120F8710120EC
:100738000000000000000000F47101201A00010010
:100748000E000000946201200072012000000000E9
:1007580078CB0508FC710120141001000500000089
:1007680034520120147201200000000099950208FB
:1007780010720120F5C1010074000000D853012057
:100788002072012000000000913F03081C72012024
:100798001230010010000000484E0120987201201C
:1007A8000000000086CB0508947201201F5001004C
:1007B8002400000004790120087B012000000000CB
:1007C80098CB0508047B0120384001000600000092
:1007D800C4730120607B012000000000BCCB050829
:1007E8005C7B01201B3001001000000040770120D5
:1007F8006C7B0120000000003D140308687B012089
:1008080010100100020000000C750120807B0120FF
:1008180000000000C2CB05087C7B0120F901010023
:10082800040000008C7B0120887B01200000000070
:10083800F9560108847B01200E0201000200000025
:10084800D07A0120947B012000000000C4CB050869
:10085800907B01202F200100220000009C7B0120BA
:10086800F873012000000000C6CB0508987B012022
:100878002D020100010000004C7E0120587E01205D
:100888000000000000000000547E0120010101006A
:1008980004000000B87D0120607E012000000000F7
:1008A800000000005C7E012000010100040000003F
:1008B800B47D0120687E012000000000E8CB050817
:1008C800647E01200201010003000000B07D0120C8
:1008D800707E012000000000D13902086C7E0120E2
:1008E8002902010040000000E07D0120787E0120FF
:1008F80000000000ECCB0508747E012020520100A6
:100908000C000000247C0120BC7E012000000000B7
:100918002CCC0508B87E01202A120100080000002E
:100928001C7C0120CC7E01200000000038CC05088A
:10093800C87E01201900010005000000147C012078
:10094800D87E01200000000040CC0508D47E01209C
:10095800021001000C000000047C0120E47E01204C
:100968000000000048CC0508E07E01202332010089
:100978001400000068840120D086012000000000D7
:1009880054CC0508CC8601200502010004000000B3
:100998009C850120E88601200000000068CC05083D
:1009A800E48601202C02010004000000B08601202A
:1009B80010870120000000006CCC05080C8701207E
:1009C800090201000100000078C00120E4C00120F4
:0C09D8000000000070CC0508E0C0012009
:10800000084A0346D0F8E4005268D3F8F010121A78
:1080100000209142B8BFC3F8F020012283F81C2150
:10802000704700BF001000E01B4B016803F57D7C2A
:1080300002E02C3363452BD01A688A42F9D170B51F
:1080400093F804E0427996450BD02C33634505D074
:108050001A688A42F4D02C336345F9D14FF0FF30CF
:1080600070BD9E4684680022DEF80C50A54208D000
:1080700001320EF10C0E032AE7D0DEF80C50A542B7
:10808000F6D1DEF81050C668B542F1D150B270BDDD
:108090004FF0FF30704700BFB09B04084368426D4B
:1080A00030B49A61EFF31182502383F31288416850
:1080B000D2B2856C0B68046D23EA050323430B6081
:1080C00082F31188436981681A68096822F0010205
:1080D000D0E908541A60826A1D605C615A60D0E978
:1080E0000B429C60DA600023B0F86C2030BCCA629E
:1080F00003777047002A4FEA014C034630B50ABFA8
:10810000E6468E468C4600F1C005002419680C3303
:1081100053F8042C43F8084C41EA0C0142EA0E02E1
:10812000AB4243F80C1C43F8042CEFD1D0F8C0301C
:1081300043EA0E03C0E93144C0F8C03030BD00BF8F
:1081400083695969B3F810C00A6830B49C6822F09A
:10815000010224680A60E26822EA0C02E260027D01
:1081600000681F2A06D9203A0824456894402C420A
:1081700042D0FEE70824056894402C42F9D120241F
:1081800004FA02F28260254A1278002A32D01A7F5D
:10819000012A36D0D3F800210132C3F80021EFF3D1
:1081A0001181502282F312885868C9B29D6C02680E
:1081B000DC6C22EA05022243026081F311885A69CD
:1081C0009968D3E90D40096814605061D3E90F4004
:1081D000546090605C6CB3F8B400D4600124C86251
:1081E0001068204310601A8A1C7783F8FD40CB6822
:1081F0001343CB6030BC7047202404FA02F2C26003
:10820000C1E70022D3F8040183F8FD2001300A6899
:10821000C3F8040122F001020A60EBE7C801002064
:1082200010B40C4C6368002B11DD002004F1080C25
:108230000146DCF8AC3003F1C00259600C339342C4
:10824000FBD1013063680CF5867C8342F1DC5DF87C
:10825000044B7047C8010020704700BF024B03EB7E
:10826000401393F855047047C8010020704700BFC1
:108270000B4890F86C1589B101EB4101002300F225
:108280007450490010B41C4650F82320063302B144
:1082900014608B42F8D15DF8044B7047704700BF03
:1082A000C80100200B4890F86C1589B101EB410121
:1082B000002300F27450490010B41C4650F82320EB
:1082C000063302B114608B42F8D15DF8044B70475D
:1082D000704700BFC80100200120704700EB40003C
:1082E000024B03EBC00393F885057047C8010020DB
:1082F000204890F86C35002B3AD0002200F27453DD
:108300004FF02C0C2DE9F0434FF0500E1A4E1B4D40
:10831000144607E053F8181B01320C6090F86C15F6
:10832000914223DD197C0029F4D05F684FF0FE08EC
:10833000B90AA1F580115229294498BF91F8F48314
:10834000EFF311818EF31288D7F824900CFB0868A4
:10835000C9B209F10109C8F82890D7F8148048F08B
:108360000108C7F8148081F31188D3E7BDE8F083D2
:10837000704700BFC801002080170120B09B04088F
:1083800000EE100AB8EE400A704700BFBCEEC00A0B
:1083900010EE103A98B2704709494FF4EB7200237F
:1083A0004FF0230CC0F80210C2800649064A037041
:1083B000A0F808C0C0F80A104382C0F80E20704729
:1083C0004A01B400C2010E01960044000346012296
:1083D00000205A77704700BF826908B50346006BDA
:1083E000D96A02449A6101B18847002008BD00BFE4
:1083F000436A02461B681B6A5B685B7813F00100E6
:1084000008BF5077704700BFC2628161704700BFEC
:10841000704700BF043070470C4B93F89822D3F894
:10842000941202440144D2B2C3F8941283F8982201
:1084300093F89822120605D593F8982282F08002CC
:1084400083F89822024B01221A707047801701208E
:10845000000001202DE9F84F164FD7F89C52ED0A85
:1084600023D00026DFF850A007F52879B04674190C
:10847000D7F8A0124FF01003524648BF0134D1F88C
:1084800028B04846C7F8CC826410E102D8470F28CC
:108490000BDD094B03F1100153F8042B013207D116
:1084A0008B42F9D12546B542E1DCE802BDE8F88F00
:1084B000661CF8E78017012000000020194BD3F854
:1084C000D412D3F8D8228A1A322A15D8D3F8EC223B
:1084D0008A4200D37047D3F8DC22F2B110683231FF
:1084E000928810B44469C3F8EC1222425DF8044B40
:1084F00018BF120482617047D3F8DC1249B193F8B7
:10850000E822888802F001020968120100FA02F2EA
:108510008A610022C3F8EC2270473231C3F8EC12B2
:10852000704700BF80170120074BD3F8DC224AB107
:1085300093F8E832918803F0010312681B0101FAF5
:1085400003F393610020704780170120044B4FF420
:10855000007C0020D3F8F832A2F800C00B6070470E
:1085600080170120002070470120704701207047CC
:1085700000207047134BD0F8D8105B68D0F8E0208B
:1085800010B50446581A824200DC22B9D4F8E4201F
:108590000A44C4F8DC2094F8D020C4F8D830012A6A
:1085A00005D0D4F8D4300133C4F8D43010BD04F170
:1085B000E801201D0EF036FED4F8D4300133C4F8A3
:1085C000D43010BD001000E0CB070DD430B590F8CA
:1085D00028308DB0C468012B07D0B4F1807F01D959
:1085E000012303770DB030BD7047194B456AD3E9BD
:1085F000CA13B1EB930F4FEA93024FF0020306D276
:1086000052085B0091429BB201D2FF2BF8D9B4F122
:10861000807FAB80E6D90122002301A9B72402772D
:10862000284604928DF814208DF828208DF80440F7
:108630000B93CDE9021302A9CDE90633CDE9083346
:108640000EF0F0FD2A68136A002BFCD1CAE700BFC8
:108650008017012030B590F828308BB00446012BEC
:1086600008D0407F10B901200BB030BD00236377E4
:108670000BB030BD456A2B681A7B22BB637F002B91
:10868000F1D013490220002301220290081D8DF829
:108690000C208DF820200993CDE90010694628466A
:1086A000CDE90433CDE906330EF0BCFD2A68136A28
:1086B000002BFCD1074B5B7DD84303F0010300F096
:1086C00001006377D4E71B6A002BD7D00020CBE7EB
:1086D000100000200000002030B504468BB094F854
:1086E0002830012B08D0637F0BB100236377012072
:1086F0000BB030BD1B6A23B1656A2B681A7B002A58
:10870000F8D1637F002BF2D0104902200023012210
:108710000290081D8DF80C208DF820200993CDE9DA
:10872000001069462846CDE90433CDE906330EF042
:1087300079FD2A68136A002BFCD1054B5B7D03F0A1
:108740000102DB076277D2D5C9E700BF1000002025
:1087500000000020214A002330B5044695B0101DCA
:108760001F4D0693019002200B93109313931193C6
:108770000290207F00920495CDE90E3301238DF8FD
:108780000C3007938DF820308DF834308DF8483058
:1087900002F10803083A0593031D0A920C93114B4A
:1087A0000993636A1A68136A002BFCD1A0B10E48C2
:1087B0000A0E00F11A0342760A0A9970080C6946FB
:1087C0005A701870606A0EF02DFD636A1A68136A99
:1087D000002BFCD115B030BD044BEDE7200000208C
:1087E000F1830008CD83000800000020190000205C
:1087F00010B594B0044650220749684640F056FE32
:108800006946606A0EF00EFD636A1A68136A002BEF
:10881000FCD114B010BD00BFF89F0408F8B50546A0
:10882000406A0068046A002CFCD12C7FA869002CE7
:1088300036D0234E040E052786F82D402E36B07014
:108840004FEA104C000A1F4C86F800C0012B7070D4
:108850004FF000000E68676326641668A6642E63F6
:10886000A06520D0022B1AD15368012220651E4436
:108870004968E365144B84F84C0061652E6384F805
:1088800060206366114B6A7FA3F11401686A002AB5
:1088900008BF19460EF0C6FCEB6A5BB1286BF8BD49
:1088A00004270B4ECBE7084A84F84C306065E0653E
:1088B0002265E7E76B6A1A68136A002BFCD1EDE7C3
:1088C0000000002000000120D983000818000120CA
:1088D0002D00002000B583B08161019201A9049AA6
:1088E00000930123C2626A46FFF798FF03B05DF868
:1088F00004FB00BF70B51D46436A94B006461B6872
:108900001C6A002CFCD1314B0B9203F13C02304825
:108910000694009203F14002049003F134000192A6
:1089200002220590029201228DF820408DF80C2041
:108930008DF834208DF84820327F0C95101D13944B
:10894000CDE90944CDE90E44CDE910440790002A51
:108950003AD00A0E363303F8012C0A0C99701D4CDC
:10896000090A1A705970706AD4E9CA32B3EB920FCF
:108970004FEA92014FF0020206D2490852008B42A0
:1089800092B201D2FF2AF8D9737F8280D3B16946AF
:108990000EF048FC706A03681A6A002AFCD10222B1
:1089A000D4E9CB34B4EB930F4FEA930106D24908D4
:1089B00052008C4292B201D2FF2AF8D98280284616
:1089C00014B070BD05A9E3E73533C6E70000002009
:1089D000F183000880170120F8B50C4B1D685A6917
:1089E000154005405D617DB1094F0126B5FA85F45A
:1089F000C4F11F0407EB840306FA04F4D3F834032C
:108A000003689847A543F1D1F8BD00BF003C014081
:108A10008017012002692DE9F843C36812EA0308B0
:108A200028D005460E464FF00047B8FA88F327FADB
:108A300003F21B3BD24308EA02082A61042B16D832
:108A4000DFE803F03B30251A0300B36A002B3FD068
:108A500003F1FF3900231FFA89F9B362746A34B154
:108A600023682046494698476468002CF8D1B8F13D
:108A7000000FDAD1BDE8F88370680028F7D0696B81
:108A8000036889B29847B8F1000FCED1F2E7B06819
:108A90000028ECD0A96B036889B29847B8F1000FA1
:108AA000C3D1E7E7F0680028E1D0E96B036889B239
:108AB0009847B8F1000FB8D1DCE730690028D6D06C
:108AC000296C036889B29847B8F1000FADD1D1E79E
:108AD000EB6A1FFA83F9C1E78269F0B592F8DC30DE
:108AE0008BB00546012B27D0023B012B2FD892F8E3
:108AF0004C31EC46D2F89C2063F07F03154C137088
:108B00008669D6F8A0305F1C0FCCACE80F00D6F811
:108B10009C30CDE900370FCCACE80F0094E803009F
:108B20008CE80300694606F110000EF07BFBAA6991
:108B300011690B6A002BFCD1D2F8A0305A8852BAC6
:108B4000EA819A8852BA2A82DB885BBA6B8201205A
:108B50000BB0F0BD48A00408F0B590F8DC308BB045
:108B60000446D0F8A060012B4BD034D9023B012B36
:108B70002ED890F84D31EC46D0F89C2063F07F035E
:108B8000434D1370D0F8A0305F1C0FCDACE80F0040
:108B9000D4F89C30CDE900370FCDACE80F0095E854
:108BA00003008CE80300694604F110000EF03AFB64
:108BB0002269136A002BFCD173885BBAA4F8D03009
:108BC000B3885BBAA4F8D230F3885BBAA4F8D43087
:108BD00001200BB0F0BDD0F89C304FF0FF320521E2
:108BE0001A605A609A60DA60D0F8E030C0F8F0108D
:108BF000B3F57A7F1FD8032380F8DC3001200BB057
:108C0000F0BD90F84C2190F84D319B1A5B10013368
:108C1000DBB236F8132006EB430653BAA0F8D03087
:108C200073885BBAA0F8D230B3885BBAA0F8D430AE
:108C300001200BB0F0BD03691A7B2AB35B691BB33B
:108C400090F8983003B390F84C310122D0F89C0092
:108C500063F07F03C4F8A4400E49037094F84D31CB
:108C600094F84C0184F800211B1A84F8DC20D4F815
:108C7000A0200733C4F804110132D4F89C10C4E9D1
:108C80003E23C4F8F410A3E7022384F8DC309FE706
:108C900048A00408018000082DE9F041304F07EB9F
:108CA000401898F854340BB9BDE8F08100EB80030C
:108CB0000E460021044607EB4313450193F8362680
:108CC00083F8361688F83A2440F03EFFB8BB2548B2
:108CD0003D4400EB4410A5F8386440F039FF3B7880
:108CE000D5F85024A3B1D5F83C140124D2F8AC3007
:108CF0008C4003F1C001420010F4004F90B202D149
:108D00005A6822435A600C339942F4D1BDE8F0818D
:108D1000D5F83C140124D2F8AC3001F1100203F173
:108D2000C0019440420010F4004F90B202D15A6842
:108D300022435A600C338B42F4D1BDE8F0810A4BD8
:108D400093F8EC2302EB420203EBC203234493F8B3
:108D50009963002EBBD0012388F83A34B7E700BFEF
:108D6000C801002000060020801701202DE9F04FE7
:108D7000364D83B02B781BB9012003B0BDE8F08FCE
:108D8000DFF8CC8005F63836D5F834AB05F5876BBF
:108D9000D8F8D43205F6186700244FF6FF7901930E
:108DA00012E0B0F5606F43D0B881B0EB0901019AD1
:108DB000304618BF01210EF06FF801345C360BF11C
:108DC000200B1437082C2CD054452ADADBF8180075
:108DD000DBF80420D0E93D0140F0C6FE4FF6FE73FB
:108DE00098F87523984214D0542A04D1B8F87823FF
:108DF0000132A8F87823D5F8202E484502F1010267
:108E0000C5F8202ECDD1D5F81C2E0132C5F81C2E68
:108E1000CBE7542AD1D1B8F87A230132A8F87A23C3
:108E2000CBE70123012085F81E3F03B0BDE8F08F9A
:108E300098F8EC2302EB420208EBC202224492F8BB
:108E400099230D2AB0D18022BA77AEE7C80100205D
:108E5000801701202DE9F0472F4F0FF00FF9DFF8B1
:108E6000C09080467E6800202C4C002E48DD0023F8
:108E70004FF486711D4601FB0372013392F8052100
:108E80009E4245EA0205F6D128435FFA80FAD9F8F6
:108E90000430C3F3080383BBEFF311836BBB4FF0C4
:108EA000E02CD4F8D432DCF81810D4F8D422934251
:108EB000F7D1D4F8F0239142F3D8D4F8F4C34FF4A7
:108EC0007A7202FB0CF0401AB0FBFCF002FB0300CC
:108ED000A0EB0803B3F5FA6FCCBF002005F001004A
:108EE0000028C2D1BAF1000F04D00C4B93F87523BF
:108EF000542A08D05046BDE8F0870EF07FFFE7E720
:108F000082460025C3E7B3F87C2350460132A3F81C
:108F10007C23BDE8F08700BFC80100208017012036
:108F200000ED00E010B504463FF058FE0146204633
:108F300089B2BDE81040AFE638B50B4D00EB4000FC
:108F400005F27453C40003EBC003254493ED027A89
:108F5000D3ED037AE7EE007AB0EE670A3FF03EFE0B
:108F6000D5F87435186038BDC8010020F8B540F058
:108F7000E3FD78B31A4F7D68002D11DD38460024DB
:108F800010F8086B16B1037F012B1DD04269013424
:108F900000F586701368AC4243F001031360F1D111
:108FA0000FF06CF8D7F8204F002C0CDD0D4B03EBC5
:108FB000C4041968083333F8042CC868A34242EA91
:108FC0000002CA60F5D1F8BD002380F8FC30FFF73D
:108FD00065F8DBE73EF0A2FC0028CBD1F8BD00BF6E
:108FE000C8010020EC100020836910B51A4C04EB76
:108FF0008303D3F81C0434F071FBB4F83C340C2B1D
:109000000ED8DFE803F0220D0D0D1B0D0D0D070D21
:109010000D0D1400D4F8FC23D36823F40063D3604F
:109020000122002384F8392484F83E3410BDD4F89A
:10903000FC23D36823F48053D360F1E7D4F8FC23F6
:10904000D36823F48063D360EAE7D4F8FC23D368C1
:1090500023F40073D360E3E78017012080699C301C
:1090600034F03CBBF8B5830AA3F58013522B52D8D9
:1090700004465748034493F8F4030D284BD8554D44
:10908000860105EB8013D3F84074A74243D0013921
:10909000C3F8404489B2C3F84C14D5F82C13B1FB83
:1090A000F2F100220139C3F85024C3F84824C3F870
:1090B000542493F87D24C3F8441402F0FF015AB3FA
:1090C00045490223AF1901EB8011204687F87D3412
:1090D000043136F03FFE0123B4F1804F87F87D3430
:1090E0003E4BA4EB0303B3FA83F34FEA531316D0BA
:1090F000ABB93B4A944257D002F58062944253D0B8
:10910000384902F57C42944218BF8C422FD002F5B8
:10911000705294422BD0F8BD83F87C14D0E7AA1982
:1091200092F87C140129F6D0022182F87D142E4990
:10913000A06801400020A160012182F87D14AA19D5
:10914000022182F87D146268A16803B908B122F493
:1091500070022E4422F0700221F0800101200023D1
:109160006260A16086F87D0486F87C34F8BDAA1997
:1091700092F87C140129CED0022182F87D141A497C
:10918000A06801401948A1600121201A82F87D14CD
:109190000021B0FA80F082F87C14124A400994420F
:1091A000CDD00028CBD1F8BDAB1993F87C24012A8F
:1091B000B1D002210C4A83F87D14A0680240A2605D
:1091C000012283F87D2483F87D146268A168C0E7DA
:1091D000B09B040880170120C01B01200000014043
:1091E00000040040000C00408800FEFF0004014025
:1091F0002DE9F843DDF820800F4616460021202295
:1092000004461D4640F048FAB8F1000F0CD0D8F8DB
:109210000030B8F80A20E3811B0C2382D8F8043010
:109220006282E3821B0C238338463EF0ABFEF306DA
:1092300019D4431EB8B107EB000C01E0013B12D377
:109240001CF801EDBEF12E0FF8D1C01A03F101098F
:10925000421EB944032AA8BF0322082BA8BF082333
:1092600090461A4606E008280246B9464FF0000824
:10927000A8BF08224FF020333946204623606360A0
:1092800040F014F9164B04F1080042464946238188
:10929000837040F00BF9611EE21D11F801CFACF1B3
:1092A0006103ACF1200C192B98BF81F800C09142EA
:1092B000F3D104F10A0011F8013FA3F16102203B50
:1092C000192A98BF0B708142F5D1182365832D0CA4
:1092D000E6722373099BA582E361BDE8F88300BFB2
:1092E000202020002DE9F04FD24F85B0D7F8D402CE
:1092F000C7F8D802002B60D013440C46154601F580
:10930000FF7B99461EE0002D66D0D7F80433AB42B0
:1093100000F0CB80D7F80033AB4200F0FF80D7E9F4
:10932000C231AB424DD88D42C0F07C81691A2046D3
:109330003AF034FB04F50072013514460BF5007B5E
:109340004D453AD0D7F81023AA42DCD8AA1AD7F84C
:109350002063D308316B02F0070802338B4202D33B
:10936000B26B93420BD93146184603933AF0E6FAB2
:10937000039B0646002800F09281C7F8200332794B
:10938000002A40F02681D6F828A0BAF1000F00F09C
:109390007D81326B013520464FF400719B1AF268D3
:1093A0000BF5007B08EBC308334602EB4822D0479D
:1093B00004F500724D451446C4D1002005B0BDE847
:1093C000F08F8D42B2D24FF400720021204640F05F
:1093D00063F904F50072AFE74FF4007229462046A6
:1093E00040F05AF98023944A84F8BE310C2384F863
:1093F000C231D7F80013D7F8F8329142C4F8C61139
:10940000C4F8CA3100F32E818C4A013B8C4E82FB9A
:109410000102C81786FB01C60A44C0EB6212C0EB0A
:109420002630884E86FB02C6C2EB821C84F8C1013E
:109430008010A1EB0C01164420F03F0001310843DD
:10944000D117C1EBE61184F8C0010A4484F8BF21AA
:10945000794A934200F31281784A794882FB0312D9
:10946000D91780FB03601A44C1EB6212C1EB2031B3
:10947000744880FB0260C2EB821684F8C511891023
:109480009B1B104421F03F0101331943D317C3EB59
:10949000E01384F8C4111A4484F8C3214AF6552312
:1094A00004F50072ABF8003046E74FF0FF330026BA
:1094B0004FF4F072201D84F8EC31314684F8ED3120
:1094C00084F8EE3184F8EF31522323706370612306
:1094D000A37084F8E7314123E37084F8E631722306
:1094E00084F8E43184F8E531D7F81833C4F8E8316A
:1094F00040F0D2F8552304F50072C4F8F06184F806
:10950000FE316FF05503C4F8F461C4F8F86184F8D3
:10951000FC6184F8FD6184F8FF310DE74FF40072BF
:1095200000212046484E40F0B7F8484B02224AF648
:10953000552C03CB45F6EB03227422732380902332
:10954000A273A370F82384F82C200822C4F8030027
:109550006273C4F807106375D7F80013D7F8F832B0
:109560005B1A2362D7E9C2135B1A63620023E372BA
:10957000E3736377A377E37784F82D3084F82E3094
:1095800084F82F3084F83130314BA3613E232377A8
:10959000012384F83030802384F840302D4BC4F808
:1095A00042302D4B84F8462004F5007203CBC4F8FA
:1095B0004B101988C4F84700A4F84F109B7803CECD
:1095C00084F85130C4F85200C4F85610ABF800C00B
:1095D000B2E64FF400720021204640F05DF8336C93
:1095E000B8F1000F64D104F1200A002B00F0A28032
:1095F000336B112219492046CDE90088FFF7F8FDA9
:10960000336C1A6C002A00F0A2801B6B50461122AA
:109610001349CDE90088FFF7EBFD04F1400A4FF450
:10962000E07892E0E91A20463AF0B8F904F50072C1
:1096300082E600BF80170120FF03FB008320088221
:1096400097554541818080805012050838120508E1
:109650003F00FF0029940E0D441205083012050842
:1096600034120508FF22013B84F8C1214FF6FF7236
:10967000A4F8BF213A4A93427FF7EEAEFF2384F865
:10968000C5314FF6FF73A4F8C33107E74FF40072FA
:109690005146204640F000F804F500724CE6314B8C
:1096A00004F50072C4E900330834A242FAD143E65B
:1096B000002B766C14BF02230123C3EB0813002E8A
:1096C0003FF487AE013BB66C002B01DD002EF9D1D3
:1096D000A2464FF40078002E3FF47BAE0AEB08035D
:1096E00003959A460BE00025A8F12008CDE900E596
:1096F000FFF77EFDB66CCEB1B8F11F0F16D93579E4
:1097000006F11C0E11223168336BAAEB0800002D04
:10971000E9D17279A8F12008356942F02102CDE93A
:1097200000E5FFF765FDB66C002EE5D1039D04F55D
:10973000007201E6CDE9008843464FF4F078082234
:10974000D7F8FC122046FFF753FD766CC3E750466E
:10975000434611220449CDE90088FFF749FD5CE743
:10976000FF03FB00DEADBEEF341205082DE9F0412A
:10977000044690F8210182B010B902B0BDE8F08132
:109780000EF032F9064680B381882622294B4FF02D
:109790000048C280B1FA81F5274844F80C3FC5F172
:1097A0001F03026828FA05F5244F22EA050C244A13
:1097B0001A4407EB8303C3F83443002392F840456F
:1097C000C0F800C0274445611E4A3068CDE9003327
:1097D0003DF016FA97F80038F02B0BD8164A1368AC
:1097E0002B43136002B0BDE8F081124BE36002B07E
:1097F000BDE8F081F023032187F80038124B1F5D8C
:109800001C5720463BF07CF9002CB5880CDB07F098
:109810001F0201237F09B5FA85F593400B4A28FA08
:1098200005F542F82730D9E7B5FA85F528FA05F5A8
:10983000D4E700BF75850008003C01408017012077
:10984000B09B040800001110F812050800E100E0C8
:1098500010B490F8443000F10801484A012BC2F8D6
:1098600008186DD08368464CD968A34221F4600182
:10987000D960D96841F46001D960996B21F4401135
:109880009963996B41F480119963996B21F4F841C4
:109890009963996B41F488419963996821F4702127
:1098A000996099689960996821F440119960996864
:1098B0009960596821F480615960596821F4805198
:1098C000596059696FF30B0159615969596148D061
:1098D000D9682B4C21F0E061A342D960D96841F0EE
:1098E000E061D960996B21F440119963996B41F45F
:1098F00080119963996B21F478219963996B41F4F4
:1099000010219963996821F4702199609968996090
:10991000996821F44011996099689960596821F417
:1099200080615960596821F48051596099696FF3D9
:109930000B019961996999611AD0002380F844302C
:109940001048114B848DC18D408D091BC2F8104801
:10995000C2F80C085DF8044B93FBF1F3C2F814381D
:109960007047D4F8041341F40001C4F80413AFE7BE
:1099700006494B6843F400034B60DEE78017012083
:1099800000200140007AF01F8038010000230140D0
:10999000704700BF014833F075BF00BFAC1F012006
:1099A000084810B4D0F82C38D0F8604899691A6883
:1099B0002CB1234600F62C005DF8044B18475DF8E7
:1099C000044B704780170120014833F05BBF00BF94
:1099D0000C200120084810B4D0F88C38D0F8C048CA
:1099E00099691A682CB1234600F68C005DF8044B87
:1099F00018475DF8044B704780170120014833F089
:109A000041BF00BF6C200120084810B4D0F8EC38EA
:109A1000D0F8204999691A682CB1234600F6EC0069
:109A20005DF8044B18475DF8044B70478017012020
:109A300030B40469002341684025E46882690C3130
:109A4000546244699560536093631160C2E90333C3
:109A5000C2E90533C2E90733C2E90A33C2E90C336C
:109A600084B1C269E068936350621160C2E9013356
:109A7000C2E90333C2E90533C2E90733C2E90A3355
:109A8000C2E90C3330BC7047114A037A0168D35CD9
:109A900010B4CC58CA1824F00104CC501368DB076A
:109AA000FCD4037D1F2B09D9203B20225DF8044BF9
:109AB00002FA03F343F01803CB60704720225DF8ED
:109AC000044B02FA03F343F018038B60704700BFA6
:109AD000EC120508F0B50668356A00295DD12B68DF
:109AE000AC68B769002B60D09C46344B0CEA03038A
:109AF000B3F1005F5DD00CF01F0104F11F032CF0E7
:109B00001F02194421F01F01BFF34F8F00290BDD05
:109B1000114402F12003DFF8A8E08B42CEF868225E
:109B20001A4603F12003F8D1BFF34F8FBFF36F8FB5
:109B300002684FF480637B615369C7F804C03C62DC
:109B400053B36B68F569002B35D01E461B4B334071
:109B5000B3F1005F1BD006F01F0104F11F0326F0D4
:109B60001F02194421F01F01BFF34F8F00290ADDA6
:109B7000114402F1200312488B42C0F870221A46A9
:109B800003F12003F8D1BFF34F8FBFF36F8F4FF472
:109B900080636E606B612C62F0BDEC69002CFBD0C1
:109BA0006B691435B769002B9ED1DFF81CC03246B3
:109BB000C1E73246BDE7034EEBE700BF0000FFFF01
:109BC00000ED00E048000020440000202DE9F041B5
:109BD0000468D4E904351A7DD3E90061002D4DD025
:109BE0001F2AA86138D820202F6800FA02F242F01C
:109BF0001802B2602A7D1F2A39D9203A202000FAA3
:109C000002F242F01802FA606A68002008601060F0
:109C10003046116841F01001116093F80880A26984
:109C200041463CF0CDFD2D7AE269384629463CF0AC
:109C3000C7FD274B626813F80800595D335843F09D
:109C4000010333507B5843F001037B50536843F0CA
:109C500003035360BDE8F081203A20202F6800FA0A
:109C600002F242F01802F2602A7D1F2AC5D8202095
:109C700000FA02F242F01802BA60C5E71F2A9861A2
:109C80001ED8202000FA02F242F01802B260002230
:109C900030460A600A6842F010020A601D7AA26922
:109CA00029463CF08DFD0A4B6268595D735843F0BC
:109CB00001037350536843F002035360BDE8F08121
:109CC000203A202000FA02F242F01802F260DEE7A9
:109CD000EC12050810B1036882889A61704700BFD2
:109CE00018B1838802681B049361704708B51D2072
:109CF0000DF07AFE08B183794BB11E200DF074FE91
:109D000008B1837903B108BD5523C38008BD55232D
:109D1000C380F2E7D3B2012B23D802EB420270B525
:109D20004FEA820E104C002223460EF1080503E094
:109D300001321C33172A12D093F800C08445F7D1A2
:109D400093F801C08C45F3D15E59002EF0D0C2EBE0
:109D5000C2020EF1040303EB8203E01870BD002081
:109D600070BD0020704700BF00A1040810B40C4C67
:109D7000002304F6981C01E0152B0CD003EB4302E2
:109D800001331CF802108142F6D1144494F99A0967
:109D90005DF8044B70474FF0FF305DF8044B70479F
:109DA00080170120D3B2022B21D802EB420270B5FA
:109DB0004FEA820E0F4C002223460EF10C0503E001
:109DC00001322C33172A10D01E68B042F8D193F814
:109DD00004C08C45F4D15E59002EF1D02C210EF137
:109DE000080301FB0233E01870BD002070BD0020A5
:109DF000704700BFB09B0408002838D0002330B55E
:109E00001B4D90F804C005F6981401E0152B2CD0DA
:109E100003EB43020133A15C6145F7D115440468AB
:109E200090F805E095F99A39DAB2022A1DD803EBC9
:109E30004303104800224FEA830C03460CF10C0543
:109E400003E001322C33172A0FD019688C42F8D165
:109E500019797145F5D159590029F2D02C210CF10D
:109E6000080301FB0233184430BD002030BD7047A9
:109E700080170120B09B04080348D0F890300BB144
:109E800080301847704700BF000001200348D0F819
:109E9000B4300BB1A4301847704700BF0000012058
:109EA0000348D0F8D8300BB1C8301847704700BF0E
:109EB000000001200348D0F8FC300BB1EC3018470B
:109EC000704700BF000001200348D0F8203113B1D3
:109ED00000F5887018477047000001200348D0F84B
:109EE000443113B100F59A70184770470000012003
:109EF0000348D0F8683113B100F5AC7018477047CB
:109F0000000001200348D0F88C3113B100F5BE7079
:109F100018477047000001200348D0F8B03113B152
:109F200000F5D07018477047000001200348D0F8B2
:109F3000D43113B100F5E2701847704700000120DA
:109F40000348D0F8F83113B100F5F47018477047A2
:109F5000000001200348D0F81C3213B100F5037053
:109F600018477047000001200348D0F8403213B171
:109F700000F50C7018477047000001200348D0F826
:109F8000643213B100F515701847704700000120C6
:109F90000348D0F8883213B100F51E701847704797
:109FA000000001200348D0F8AC3213B100F527704F
:109FB000184770470000012001380E4B0E4A00EB95
:109FC000C000116B03EB800310B4D3F8803083B072
:109FD0000A4CA34214BF4FF480034FF400131943FB
:109FE0001163126B13400193019B03B05DF8044BA6
:109FF000704700BF000001200038024000600240AE
:10A000000138F8B500EBC000124C1D46124B04EBB2
:10A01000800417460E46D4F88000984214BF96205C
:10A0200095203AF099FD94F99500B909C4F890602B
:10A03000C4F898503AF064FD94F99530002B07DB92
:10A0400003F01F0001225B090449824041F82320EC
:10A05000F8BD00BF000001200060024000E100E008
:10A06000800AA0F58010522808D8054B034493F8C5
:10A07000F4330D2B02D8034AD056704700207047A6
:10A08000B09B0408DC1205080120FEF7A5BC00BF48
:10A090000220FEF7A1BC00BF0420FEF79DBC00BF5C
:10A0A0000820FEF799BC00BF1020FEF795BC00BF4A
:10A0B0004FF47870FEF790BC4FF47C40FEF78CBCF8
:10A0C0002DE9F04F0E4683B004461546002800F0F7
:10A0D000C7800268644B13449B0A644AC6F3411963
:10A0E000134493F8D4073AF037FDC6F38103B4F86C
:10A0F00004E006F00301246801939EFAAEF0B0FA82
:10A1000080F001F1FF383EFA00F367D00122032707
:10A11000009603E001303EFA00F35ED002FA00F34D
:10A1200013EA0E03F6D0D4F800C093FAA3FBBBFAEF
:10A130008BFB93FAA3FABAFA8AFA4FEA4B0BB8F1FF
:10A14000010F4FEA4A0A07FA0BFB01FA0AFA2CEA56
:10A150000B0C4CEA0A0CC4F800C04ED9D4F80CC061
:10A1600093FAA3FBBBFA8BFB93FAA3FABAFA8AFA27
:10A170004FEA4B0B02294FEA4A0A07FA0BFB09FA8E
:10A180000AFA2CEA0B0C4CEA0A0CC4F80CC0C1D138
:10A1900093FAA3FABAFA8AFA4FEA132CBAF1070F24
:10A1A00045DCD4F820C093FAA3FABAFA8AFA93FAF3
:10A1B000A3F34FF00F0BB3FA83F34FEA8A0A01308F
:10A1C0009B000BFA0AFA05FA03F32CEA0A0C4CEA94
:10A1D000030323623EFA00F3A0D1009EB8F1010F01
:10A1E00008D86268C6F3001322EA0E020EFB03F3DE
:10A1F0001343636003B0BDE8F08FD4F808C093FA4E
:10A20000A3FBBBFA8BFB93FAA3FABAFA8AFA4FEADA
:10A210004B0B019E4FEA4A0A07FA0BFB06FA0AFAB1
:10A220002CEA0B0C4CEA0A0CC4F808C096E7D4F8E8
:10A2300024A09CFAACFBBBFA8BFB9CFAACF34FF06E
:10A240000F0CB3FA83F34FEA8B0B9B000CFA0BFC59
:10A2500005FA03F32AEA0C0A4AEA0303636259E7A0
:10A260004FF0FF3339E700BF0000FEBFB09B04088A
:10A2700000B125E7704700BF2DE9F84F6D4EC0EBE8
:10A28000001306EBC303D3F8D849002C00F08A80F2
:10A2900093F8488A0546070140463AF05DFC0122E2
:10A2A0004FEA581308F01F08013B02FA08F2032B8B
:10A2B00008D8DFE803F0ADB302B95F490B6A23EABF
:10A2C00002030B627B1B05F1010B06EBC3035FFA74
:10A2D0008BFB93F8DC090DF087FB804618B1122345
:10A2E00080F807B083717B1B06EBC30393F8DD098D
:10A2F0000DF07AFB824618B1132380F807B0837102
:10A300007B1B06EBC30393F8DE090DF06DFB814662
:10A3100018B1142380F807B083717F1B50462E219B
:10A3200006EBC70696F8E029FFF7A2FF96F8E129A9
:10A3300048460E21FFF79CFF96F8DF292E21404664
:10A34000FFF796FF23683D4A23F0400394422360C1
:10A350002AD03B4B9C4231D103F500331A6A42F4B8
:10A3600080421A621A6A22F480421A62636843F4D5
:10A370008053636023685B060CD4206840F2173278
:10A380003049314B01400A4322606268134043F474
:10A39000E0636360E36923F40063E361236843F0EF
:10A3A00040032360BDE8F88F234B5A6A42F4805281
:10A3B0005A625A6A22F480525A62D7E7234B9C426F
:10A3C0001BD0234B9C420DD0224B9C42CED103F597
:10A3D00068435A6A42F480125A625A6A22F480121E
:10A3E0005A62C3E703F582335A6A42F400525A6252
:10A3F0005A6A22F400525A62B8E703F5FE331A6A29
:10A4000042F400421A621A6A22F400421A62ADE76C
:10A4100009494B6923EA02034B6153E706494B6A3A
:10A4200023EA02034B624DE703490B6923EA020367
:10A430000B6147E7801701200038024000300140DF
:10A44000003800404000FFFFFBF0FFFF003C0040F1
:10A45000003401400050014008B1002230E670474E
:10A460002DE9F04191F80380B8F1000F03D10027E6
:10A470003846BDE8F08100F110060C4605468978A3
:10A4800030460CF075FD07460028F0D040460DF030
:10A49000ABFAA861237880460133DBB210B1C371F7
:10A4A0002223837140460D21FFF7D6FF4046FFF778
:10A4B00011FC0F4AD2F8D432632BFBD90D480CF0B3
:10A4C00043FDDFF838800C4BA88202E058F8043FC7
:10A4D00053B13046984703460028F7D0286985F8DD
:10A4E000D8303DF007FAC3E7E0780DF0DBFABEE7BD
:10A4F0008017012040420F005D9F03088CA30408D1
:10A500002DE9F74F6023D94C054603FB0043D3F8F0
:10A510001878D3F82068D3F82488002F00F0A181A0
:10A520001EB1B379002B40F09C81B8F1000F04D02C
:10A5300098F80630002B40F094816B1CDBB216B10A
:10A540001522F371B271B8F1000F04D0162288F809
:10A55000073088F80620387C4FF009093AF0FCFAF9
:10A560003046FFF7B7FB40461121FFF7B3FB3046FB
:10A57000FFF772FF11214046FFF76EFF4FF0330ADD
:10A5800005E0BAF1010A09D00A2011F05DF8002EA9
:10A59000F7D03368B2881B691A42F2D03046FFF711
:10A5A0009FFB052011F050F83046FFF793FB052084
:10A5B00011F04AF8B9F10109E0D130464FF0600BD3
:10A5C000FFF78EFB052011F03FF84046FFF788FBB0
:10A5D0000BFB05FB052011F037F83046FFF77AFB3F
:10A5E00004EB0B0A052011F02FF84046FFF772FB31
:10A5F0009AF8283830460422002B0BF114060CBFC1
:10A600001E213E210191FFF733FE4046DFF8808294
:10A61000042201994644FFF72BFE4C22494630465E
:10A620003FF03AF8DAF818389FED917AB0EE084A20
:10A630005B68F7EE003A9FED8F5ACC46CAF82C388B
:10A640008D4B9A68BAF82A38C2F3822203EE103A88
:10A650008A4B134493F8E827D4F82C33D34007EE01
:10A66000903AF8EE677AC7EE275A9FED857AF8EEB2
:10A67000C37AC7EE274ADFED837AB0EE007AE5EEC3
:10A68000877AA5EE875A25EE844A37EE856A34EE3E
:10A69000E72A13EE103A0CF1010EB3F5C87F40F231
:10A6A000145307EE90EADBBF19464FF496727822F6
:10A6B0006423C8BF3223F8EEE76AD4BF4FF4167B99
:10A6C0004FF4827B1344A2F1320266EEA56AC8BF42
:10A6D0004FF4FA7107EE903A5944B8EEE77AC7EEB4
:10A6E000267A07EE102AB8EEC77A37EE447A77EE6C
:10A6F000E37AFCEEE77A17EE903AC7EE267AFCEEA4
:10A70000E77A17EE900A07EE90BAF8EEE72A07EE1E
:10A71000901AF8EEE77A62EEA42A82EEA77A77EE34
:10A72000452A32EE477AC2EEA67A77EEE37AFCEE5D
:10A73000E77A17EE901AC7EE267A77EEE37AFCEE08
:10A74000E77A17EE902A02F1020B0BEB010AB0EE4A
:10A75000467A07EE90AAF8EE677AA6EEA77AF4EEAC
:10A76000C74AF1EE10FA7FDC43EA000B5FFA8BFB7D
:10A77000BBF10F0F00F28E8041EA020B1FFA8BFB38
:10A78000BBF1FF0F00F286801B05000403F07F631E
:10A7900092B200F47F0003433B4843EA0C7300EAA3
:10A7A00001210B4343EA0209602330465D43012344
:10A7B0002C442835C4F83098A8444FF00009C4F858
:10A7C0003838C4F83498C4F83C98C4F84098C8E9BC
:10A7D00002993CF0C7F994F86D38202BD9B21AD100
:10A7E00094F86C38012B16D0242384F86D38D4F8F3
:10A7F0002C381A6822F001021A601A6822F480527A
:10A800001A601A681A601A6842F001021A6084F825
:10A810006D1884F86C98002197F912003AF070F9DD
:10A8200097F91220BB7C002A08DB5909012203F0AA
:10A830001F0302FA03F3154A42F82130002197F969
:10A8400011003AF05DF997F911207B7C002A08DBB2
:10A850005909012203F01F0302FA03F30B4A42F8DD
:10A86000213003B0BDE8F08F01316EE78017012081
:10A87000286B6E4E0000164300380240B09B04085F
:10A88000002474490000704200FFFF0000E100E076
:10A89000981F0120BEF10F0F86D0F446F9E600BFE5
:10A8A00070B50E4CD4F8346B002E15DD04F58764BA
:10A8B000002503E001352034B5420DD0237F002B65
:10A8C000F8D0E06800220028F4D00135217DFFF7A0
:10A8D000F7FB2034B542F1D1012070BDC801002042
:10A8E0002DE9F04F002393B0A64E0293A64BA6F697
:10A8F000EC0ADFF89C9293F8CAEBA44D0EF1FF37F7
:10A90000CDF80CE0FBB20193DFF898B2DBF80070F1
:10A91000BB0AA3F58013522B00F2D780534493F85F
:10A92000F4330D2B00F2D18015F90380039B012B2A
:10A9300000F01D81039B022B02D1B8F1080F3AD120
:10A9400000242146404611F0E3F911F069FA90F82D
:10A9500000C0BCF1000F18BFBCF1540F14BF4FF082
:10A96000010C4FF0000C40F0F8800434A4B2102C1D
:10A97000E7D1029B002B00F0B380854A0CE05344E2
:10A9800093F8F4330D2B0ED8EB5643450ED002F559
:10A9900086724A4500F0A08091680B689B0AA3F577
:10A9A0008013522BEBD900234345F0D14B799BF810
:10A9B00005109942EBD10BF11C0BB345A6D1029BBC
:10A9C00009F586790133042B02939DD1DFF8D8A1D4
:10A9D0000023AAF5876B01930AF59E730293DBF8B7
:10A9E000343B019A93426DDD674BDAF80C7093F8B3
:10A9F000E02B9AF810300393002F63D03B68DBF80C
:10AA000004506448B988002D184404914FEA9020FE
:10AA100040F3CE805E4E002405E0013406F58676D4
:10AA2000AC4200F0C38031688142F6D1584A4FF4FD
:10AA30008671DDF810C001FB0424039A019E8AF898
:10AA40001020049A0136CAF80C70B2FA82FE032272
:10AA5000CAF81840CEF11F056800CAF80450BA7150
:10AA6000FE7102FA00F7A16C0122D4F85480394338
:10AA700002FA00F002FA05F59BF80070A164216D5E
:10AA80000143D4F8AC002165A9B2002F00F0F98091
:10AA900045EA08056565C3F818C0FDF72BFB20469D
:10AAA0000AF1200AFDF7FAFA40F201120123082EFA
:10AAB0002AF8042C029A019602F1180202F8073CC7
:10AAC00002928CD113B0BDE8F08F019B012B7FF671
:10AAD00072AF4FF0000833E7BCF1000F7FF46BAFAB
:10AAE0005846FDF7A1FA9BF805E0C3B2022B00F22D
:10AAF0008B8300F1010C284A0CEB4C0C02F57D70A5
:10AB00004FEA8C0C03E02C32904200F07D831368F6
:10AB10009F42F8D113797345F5D152F80C30002BD0
:10AB2000F1D01E48002142689A4212D001312430EF
:10AB30001029F8D14FF0FF3303EBC303184A02EB9F
:10AB4000830393F89C30002B7FF435AFC9F808B02D
:10AB500035E74B1CDBB2013BEEE7029B002B7FF499
:10AB60000CAF0BF11C0BB3457FF4D0AE27E7B8F167
:10AB7000010F3FF4E5AE0BF11C0BB3457FF4C6AEFD
:10AB80001DE700BF9CA4040880170120DC12050803
:10AB9000D00100200000FEBFB09B0408800001200F
:10ABA00000000120A0A3040800060020042C76D099
:10ABB0004FF4867101FB05B10C690694002C00F07E
:10ABC000058388600130CDE90723C4B2069B542079
:10ABD00081F8114181F81001691C18461E685B79E3
:10ABE000CBF804100593FDF71FFAC1B28146022984
:10ABF00000F20A8300F1010E4FF0000CA7480EEBA3
:10AC00004E0E079ADDF814804FEA8E0E089B06E080
:10AC10000CF1010C2C30BCF1170F00F0F58201682B
:10AC20008E42F5D101794145F2D150F80E1000293C
:10AC3000EED088462C2109EB4909984801FB0CF11C
:10AC400001EB8901DFF894920144CC4608694FF486
:10AC5000867101FB05B1C1E907800020DCF8041012
:10AC600041452DD001300CF1240C1028F6D18C4B2D
:10AC700093F87820BAB9542283F8794083F8782081
:10AC800011E0CEF12F0E02FA0EF242EA08026265DE
:10AC90004FEA0C429A613A46FDF72CFAFFE603238D
:10ACA000804A82F8E13B804B80488149814AC3F861
:10ACB0004804C3F84014C3F8502413B0BDE8F08F23
:10ACC000411C7748C9B2013901EBC10100EB810E8B
:10ACD0009EF89C1008910029E5D14FF486717648C2
:10ACE0004FF08C0C8EF89D4001FB05F1734C062A49
:10ACF00007914FEAA10100FB01F107985844C36096
:10AD000004F54C73C0F800C10CFB01FC01EB4101E0
:10AD100003EB4C0301EB0111C0F8FC304FF054037E
:10AD200004EB810407998EF89C304FF03303C0F890
:10AD3000B440C0F8B830624B03EB0104594BD3F870
:10AD40002C1300F03182072A5E4B5F485F4A18BF20
:10AD50001A465F4B18BF03463046B1FBF3F3B1FB15
:10AD6000F2F2013B511E4FF486729BB202FB05B218
:10AD7000A2F8BC10A2F874302366079B03F15801B7
:10AD80004F4B19440023A4F858306366E3653BF049
:10AD9000CFFB3368059A43F0800333600C2A0ED84A
:10ADA000DFE812F0AC010D000D000D008B010D006D
:10ADB0000D000D00CB010D000D000D0068014FF4DA
:10ADC00086736022304603FB05B30A924FF480720B
:10ADD000596933681092012223F0010309910B9203
:10ADE0000A22336000230C930F9311930223CDE9C1
:10ADF0000D230AAA3BF054FA09990023B1F5807F8C
:10AE000000F0F68100F2D381102900F0FA8100F2FF
:10AE1000E281012900F0F381042915BF4FF400629B
:10AE200008223C23002306F11801C8580243CA50E7
:10AE3000069B1879002840F0A681336843F001038F
:10AE400033600023D9F804200133904500F0978146
:10AE5000102B09F12409F5D14FF0FF33104A03EB11
:10AE6000C30302EB8303D3F880001A4B984214BF4C
:10AE70009620952039F070FE059B0C2B00F27C810A
:10AE8000064A02EB4303B3F8ECC84FF48673124949
:10AE900003FB05B3A3F818C0002328E0B09B040807
:10AEA0000000012080170120C01200201557010862
:10AEB000115701081D5701086B4CA40720170020EB
:10AEC000D001002044950800D0DD06001055220076
:10AED00040771B0000600240EC1000208000012041
:10AEE000964200F080810133042B00F0908151F8EC
:10AEF0003320002AF4D1DBF8202F0132CBF8202FA9
:10AF00000BEBC302DB00C2F8246F194408982346F8
:10AF100090228E884CEA060C0026A1F804C0BD4998
:10AF2000FFF76EF84FF4867340214FF4403003FB77
:10AF300005B8B94A4FF4804CD8F81C502B6843F040
:10AF400010032B602B6843F014032B60C4F8A86037
:10AF5000C4E91F66C4E92866D8F82030A167042137
:10AF6000C4F89430C4F89C10E9B208934FF480639D
:10AF70001039C4F89800C4F8843025F0FF00A2FB13
:10AF80000121D8F8B820079BC4F890204FF48052D4
:10AF9000D8F80C900909C4F8882009F1180209F1C1
:10AFA0001009226703F170029C4B1A44D8F8B430A0
:10AFB000C4F88CC06367CDE905013BF001FCD5F80E
:10AFC00000E0079BC4F820E0D5F814E003F1B802D4
:10AFD000924BC4F824E0D5F804E01A44089BC4F866
:10AFE00028E0D5F808E0C4F82CE0D5F80CE0C4F867
:10AFF000DC300423C4F8C860C4F8E4304FF4806344
:10B00000C4F8F060C4F8CC304FF40033C4F830E03A
:10B01000C4F8E030C4E93066C4E93A664FF400662B
:10B02000D8F80031C4F8B890C4F8D0604FF4804626
:10B03000C4F8D830D8F8FC30C4F8D460C4F8BC30B8
:10B04000DDE905013BF0BCFB2B68B7F804C0636386
:10B050006B69A3636B68E363AB682364EB68636449
:10B060002B6843F010032B602B6843F014032B6014
:10B070003B68E2E433684FF486724FF480514FF03E
:10B08000020E23F0010302FB05B2304651610AAA09
:10B09000336000230C930F93119360230A934FF4B2
:10B0A0008073109301230B930A23CDE90D3E3BF0EF
:10B0B000F7F84FF400620423B5E64FF486721021CE
:10B0C0003368022002FB05B223F0010351616022C4
:10B0D000336000230A924FF480720C931092012285
:10B0E0000F930B920A221193CDE90D200AAA304644
:10B0F0003BF0D6F800234FF4006294E64FF48672DA
:10B1000033680121304602FB05B223F001030B91A5
:10B1100051616022336000230A924FF480720C93D5
:10B120000F931193022310920A22CDE90D230AAA4C
:10B130003BF0B6F80023082275E633684FF48672B8
:10B140004FF48071022023F0010302FB05B210913D
:10B1500051616022336000230C930F9311930123FC
:10B16000CDE90A230A230AAACDE90D3030463BF087
:10B1700097F80822042356E64FF0000C85E6DBB270
:10B180000893013B6AE60CF02FFC099038B1069B4E
:10B190000221DA79FEF794FF5422099BDA80736C5E
:10B1A00043F40043736448E61D4A1E4BD4E5B1F5F1
:10B1B000805F20D0B1F5803F17D0B1F5806F15BF0B
:10B1C0004FF4006208223C2304232CE60223164A93
:10B1D00082F8E13B67E5402915BF4FF40062082281
:10B1E0003C2300231FE6DB008FE608223C231AE6FF
:10B1F0000822042317E64FF40062042313E6082212
:10B2000011E64FF400620EE600235B68FFDE0023C8
:10B210009B88FFDE41810008ABAAAAAAD0010020CA
:10B22000882A1100A0BB0D008017012070B590F88E
:10B23000B2311C09013C052C0FD81A4E054603F00B
:10B240000F0306EB4402B2F8080940FA03F2D207F2
:10B2500003D595F8BD21012A01D0012070BD9A4087
:10B260002644013A10403EF0C5FA96F814390E4AC9
:10B27000034402EBC30452F83320A388106918403A
:10B28000ECD0002395F8B3210221204685F8BD318A
:10B29000FEF716FFD5F82021136843F0080313606A
:10B2A000DBE700BFB09B04086423012008B900203D
:10B2B00070472DE9F04F00228DB02F21044610F089
:10B2C00005FE064600B390F80590984FD0F800A010
:10B2D000A7F83C94FEF790FDB0B1D0E9015301937B
:10B2E00095B1DFF880820022414640464368013232
:10B2F00024309D420CD0102AF8D18D4B93F8782041
:10B3000012B92F22A3F8782000200DB0BDE8F08FED
:10B31000D2B2874B013A02EBC20203EB82009200E9
:10B3200090F89CB0BBF1000FEED111442F22C7F86A
:10B33000FCA38A83D7F82C137E4A914280F0D780F1
:10B340005A46090A7C48C7F800240022A0FB0110D5
:10B350007A49C7F80C24C7F8042402090009A1FBA4
:10B360000212C7F808045208A7F8E62E5200A7F800
:10B37000E42E97F8392402F0FF01002A00F0C38080
:10B38000022250466E4987F8392434F0E3FC01224A
:10B39000204687F839240CF027FBC7F8E80E28B1BF
:10B3A0002F21C1804E21F279FEF78AFE019B0022F7
:10B3B000C7F8EC5EB9F10C0FC7F8F03E614BC7F867
:10B3C000F82EC7F8082FC7F8102FC7F8182FC7F89E
:10B3D0001C2F196B41F400111963196B01F4001152
:10B3E00003910399196B41F4800119631B6B03F4FA
:10B3F00080030493049B4FF04003C7F8F43E4FF4DE
:10B400008063C7F8FC3E4FF48053C7F8003F4FF409
:10B410008043C7F8043F4FF40033C7F80C3F4FF0A8
:10B420000303C7F8143F71D8474B03EB4903B3F844
:10B430001C49A246083445494346002207EB8400D4
:10B44000C0F8FC13A1F52F61C7F8241F5968013219
:10B4500024338D425DD0102AF8D14FF0FF3202EB39
:10B46000C202334B03EB8203D3F88000384B98427F
:10B4700014BF9620952039F06FFB0023D8F80420E4
:10B48000013308F12408954246D0102BF6D107EB82
:10B4900084075846534660222E49FEF7B1FDD7F87F
:10B4A000FC0332F041F800287FF42EAFB47960211C
:10B4B0000A904A46630005910B9005A903F0020328
:10B4C000069009900793E300234803F008030893CC
:10B4D00039F0B2F800287FF417AFA30749461E4899
:10B4E0001DD534F01FFDB0FA80F040090DE71B4A6E
:10B4F0001B480A44A0FB0202920D013A92B2501C72
:10B50000B1FBF0F11DE787F8381439E7924614468D
:10B5100090E7D2B2013AA2E75FFA83FBB7E734F0D3
:10B52000E9FBB0FA80F04009EFE600BF8017012088
:10B5300000000120006CDC02598B4F01ABAAAAAAC3
:10B54000801B012000380240B09B04086C260120BB
:10B5500000600240E98F00087C1B012000366E016C
:10B56000819F5E1680000120014B53F82000704738
:10B5700050280040014B43F82010704750280040ED
:10B58000204B2148196C214A41F0805130B4196494
:10B5900082B0196CFF2401F080510191019901687A
:10B5A00041F480710160CA20196C41F48061196412
:10B5B000196C01F4806100915321009D5462506226
:10B5C00051625B6FDB0013D4114B00221149C3F8A9
:10B5D0005428C3F85828C3F85C28C3F86028C3F877
:10B5E0006428C3F86828C3F8501802B030BC70470C
:10B5F000A2F50062074BD2F850289A42E4D102B07B
:10B6000030BC704700380240007000400028004005
:10B6100000200040316665422DE9F0470646086883
:10B6200088B00C46850ABDF84080A5F580159DF8C8
:10B6300044A0522D55D819462D4B2B4493F8F45362
:10B640000D2D4ED82B4FFDF70DFD94F8059007EB0F
:10B650008517A379BAF1000F01D083F001035A00D6
:10B660004FF48071DB00384602F00202CDF808800A
:10B6700003F0080303924A460493602301934FF4B6
:10B680000073CDE90613002301A9059338F0D4FF18
:10B69000A379384649469F0726D434F02BFB164B36
:10B6A000A801022203EB8515D5F8401485F87D2406
:10B6B000124A8D682A40062A06D0B2F5803F03D090
:10B6C0000A6842F001020A600344012283F87D24E3
:10B6D0002168637901F1340271600021D018306073
:10B6E000D15008B0BDE8F08734F01CFCD7E700BFAC
:10B6F000B09B0408C01B0120801701200700010037
:10B700002DE9F84FD0F894700446524B00F16406CE
:10B71000FDB227F0FF09826800F1180A103D484683
:10B72000D2F80080A3FB05352D0929463BF090F89F
:10B73000626D0023B2F5807F84F858307ED00DD83A
:10B74000102A00F083805CD8012A45D0042A16BF55
:10B750006FF400616FF008013C230EE0B2F5805FEA
:10B7600070D0B2F5803F3AD0B2F5806F15BF6FF45C
:10B7700000616FF008013C230423324608F11806EB
:10B78000404656F803C001EA0C01F150D4F854B019
:10B7900059463AF085FDBBF5807F2DD023D8BBF10B
:10B7A000100F3ED036D8BBF1010F02D0BBF1040F11
:10B7B00033D14FF0080C336852462946484643EAD5
:10B7C0000C033360402323623AF0FAFF3B6843F0F6
:10B7D00010033B60BDE8F88F6FF00801CDE76FF014
:10B7E00008013C23C9E7BBF5805F22D0BBF5803F51
:10B7F0001AD0BBF5806F10D108F11C064FF0080C71
:10B80000D9E7402A15BF6FF400616FF008013C23AF
:10B810000023B2E7BBF1400FCBD03C364FF4006CB5
:10B82000C9E74FF4006CC6E708F154064FF0080C66
:10B83000C1E708F11C064FF4006CBCE76FF008018B
:10B8400004239AE76FF40061042396E76FF4006124
:10B8500093E700BFABAAAAAA2DE9F04FDFF840B2E8
:10B8600087B09BF800301BB9012007B0BDE8F08F0E
:10B87000854BD3F8D43204930CF000FC834A92F841
:10B88000243C002B00F0F8800BF23464D2F81C3416
:10B890000BF6383A0BF61868C31A264600270594AB
:10B8A0000193019A002A03DBF36D934200F3CA80EF
:10B8B00007EB87030BEB431393F88C3603F0FF0E73
:10B8C000002B00F08680D6F89410B36870481A6890
:10B8D000CBB221F0FF01103BA0FB03036D481B0915
:10B8E000C35C0B44B1895C68D368A4B223EA01034A
:10B8F000C4F11604D360072C6BD9DBF8203E00227C
:10B900000121013315468946CBF8203ED6F89C30FC
:10B91000CDE902E718689C4615E0142D1EDC17F1EE
:10B92000080E48BF07F1170E4FEA2E1705EB2E152C
:10B9300007F1FF3E013102FA07F709FA0EFE8C42C9
:10B940004EEA07020AD307468C425CF8040FA0EBCC
:10B950000707E2D8C5F115071525E9E7152DDDE93B
:10B9600002E766D14C4CC2F38421C2F3441004EBCD
:10B97000810104EB8000D1F83819D0F838090902A8
:10B9800041EA001102F01F00C2F3C43204EB800050
:10B9900004EB8202D0F83809D2F83829014341EA91
:10B9A000023282EA122181EA111101F00F010F29FE
:10B9B0003FD1C2F30F124FF6FF718A4239D0B2F570
:10B9C000606F43D0A8F80C207146049A50460BF0E3
:10B9D00063FA30460137FFF793FE2C4BA0360AF18D
:10B9E0005C0A93F8243C08F11408BB423FF759AFB6
:10B9F00001222649059C8BF81E2F0022C1F81C2429
:10BA0000002B3FF431AF03EB830304EB4313A26835
:10BA1000A03414F8901C126854F84C0C11F0020F6A
:10BA2000116A14BF41EA800101439C421162EED1C8
:10BA30001AE7DBF81C2E0132CBF81C2EB7B14FF001
:10BA4000000EC1E7002007B0BDE8F08F0E4991F865
:10BA5000EC3303EB430301EBC3033B4493F899330B
:10BA60000D2BAFD1802388F81E30ADE71946582240
:10BA70000A483DF01BFDE2E7012204498BF81E2F26
:10BA8000C1F81C34F0E600BF80170120C01200206E
:10BA9000ABAAAAAAEC120508B09B04088C100020DF
:10BAA000C80100202DE9F0472422D0F820518168F8
:10BAB0000023C0F8942104462A6800F5907622F00D
:10BAC00001022A602B606B60AB60C0F89C3180F88B
:10BAD0009031C0F89431C0F824114079C4F89831FD
:10BAE0008202C4F83831C4F8403102F4805223791C
:10BAF000C4F82821020313F0010702F40052C4F82D
:10BB00002C214FEA002202F48062C4F8302103F0B5
:10BB1000020240F0C680002A40F0EC80C4F8347184
:10BB2000B14B03F1200153F8042F944200F0F78049
:10BB30009942F8D10207D4F8943140F10481002BE6
:10BB400000F0358124233046C4F894312B6823F06B
:10BB500001032B6034F00AFA012817D0D4F84431DD
:10BB6000002B40F02E816B6823F490436B60AB6830
:10BB700023F02203AB60AB6843F00803AB603046B0
:10BB80002B6843F001032B603AF08CFF002F5CD050
:10BB9000D4F8FC70002F00F0F080D4F8043104F1E8
:10BBA0003C08C4E90F7300234046C4E91133C4E9DB
:10BBB0001433C4E91833C4E91A334FF48033E3650E
:10BBC0004FF48063E3644FF48073A3653BF0AEFBF6
:10BBD000404631F0A9FCD4F898A1C4F88C81BAF1A0
:10BBE000200F66672ED1E368626999B252B3B1FA49
:10BBF00081F94FEA591929B394F89001012821D00D
:10BC00000B46A4F878112221C4F89C914046C4F850
:10BC10007421C4F898117549C4F88C90A1677449CF
:10BC2000E1677449C4F8881005F1240131F016FD6C
:10BC3000002800F0CA80102384F89091C4F89C3149
:10BC4000C4F894A17B68C4F814312379990764D5AA
:10BC5000D4F80051002D56D0D4F80821002304F167
:10BC60009C07C4F8A8303846C4F8B030C4E927525D
:10BC70004022C4F8A4204FF48062C4F8AC204FF4F2
:10BC80008032C4E92D33C4E93033C4E93233C4F817
:10BC9000BC203BF04BFB384631F046FC00287FD0FF
:10BCA000FEE70423C4F83431B2B10C23C4F83431B4
:10BCB000C3077FF535AFD4F844314FF4803243F0F9
:10BCC0000203C4F84C2143F00103C4F844314FF49B
:10BCD0000033C4F8483123E7C1077FF521AFD4F81A
:10BCE000443143F00203C4F844314FF48033C4F8C4
:10BCF0004C3115E70823C207C4F834317FF510AF83
:10BD0000D4F84431DFE7D4F8A0311A6842F0800259
:10BD10001A601A6842F040021A60BDE8F08794F891
:10BD2000BC31002B3FF406AFD4F84431020743F096
:10BD30000803C4F844314FF40043C4F85431D4F834
:10BD400094313FF5FCAE002B34D024233046C4F8A8
:10BD500094312B6823F001032B6034F007F901289C
:10BD60003FF414AFD4F844313BBB6B6823F49043E9
:10BD70006B60AB6823F02A0300E7D4F8A0311A689F
:10BD800042F480721A609A6842F001029A601A685E
:10BD900042F020021A601A6842F010021A6054E75A
:10BDA000C4F88871C4F8D4606860BDE8F08784F88E
:10BDB0009031C7E684F89031C7E7304634F04AFA4C
:10BDC000D3E7304634F046FACDE684F890012B688C
:10BDD00043F480732B60AB6843F00103AB60AB6846
:10BDE00043F04003AB602DE7E81E002075DA03083E
:10BDF000A5DA0308A9DA03082DE9F041EFF311856C
:10BE0000502383F31288D0F800311B6813F001032C
:10BE100004D0EDB285F31188BDE8F081D0F894210B
:10BE20000446D0F898110A4302F02102212AF0D0EA
:10BE3000D0E90912914250D090B23ED819462369F8
:10BE40001B1A9BB2D4F89461A1620021202E84F8C1
:10BE5000A411DED1A1698918DBD0B3FA83F77F0979
:10BE6000002BD6D094F89021012AD2D00122D4F808
:10BE70008801A4F8723184F890212122C4F89C71C1
:10BE8000D4F82081C4F86C11A4F87031C4F894215E
:10BE9000B0B1144A0765C263134A0264134AC2640C
:10BEA00008F1280231F0DAFB50B1102384F89071C8
:10BEB000C4F89C31C4F89461ABE7081A83B2C1E7B7
:10BEC00000234022C8F8202084F89031D8F80830A8
:10BED00043F08003C8F808309BE7012380F8A431C1
:10BEE00097E700BF4DDA030871DA0308A9DA0308FF
:10BEF00070B5D0F820410546E369990614D5606A0B
:10BF0000EB6AC0B2002B73D0296B9847D5F820415B
:10BF1000236823F480732360A36823F00103A360E4
:10BF2000A36943F00803A361E369DA0701D501239C
:10BF30002362E3699B0701D502232362E3695E075D
:10BF400001D504232362E369180701D5082323627E
:10BF5000E369590615D54023236295F8BD61002E8B
:10BF600030D0D5F80031D3B12846FFF745FF95F81A
:10BF7000A431002B48D095F8BD61D5F82041002EA2
:10BF80004AD0D5F8003153B1E369DB0606D56B6BB7
:10BF900013B19847D5F820411023236270BDE3699F
:10BFA0001A06F1D5D5E90923934230D0A969CA5CB4
:10BFB0000133D2B2A2622A69B3FBF2F102FB113360
:10BFC000AB62E1E795F8B2010BF00EFD236823F0B8
:10BFD00008032360012385F8BD310028C1D0324613
:10BFE0002021FEF76DF8D5F80031002BBCD1D6E743
:10BFF000EB696A69D054EB69EA680133B3FBF2F18B
:10C0000002FB1133EB6181E7D5F82041B9E72368E2
:10C0100023F080032360B7E795F8B2010BF0E4FC4E
:10C02000236823F008032360012385F8BD3100282D
:10C03000A7D032462021FEF743F8A2E72DE9F04FC2
:10C04000C74C83B004EB8004D4F82C4C002C71D086
:10C05000D4F8AC511F46DFF8249306466B6890462F
:10C06000A160C4F8A03109F6B813688F2360BD4AF7
:10C07000DFF80CB3D5E90C13E060C4E905312B8F70
:10C08000C4F8A82123612A780BEB420393F94C0FE3
:10C0900053000193C3B2012B50D9D4F800E1BEF193
:10C0A000000F13D0B04B002158680131243386456E
:10C0B00000F002811029F7D1AC4B93F8781029B920
:10C0C000013283F879200B2283F87820D4F8FC9091
:10C0D000B9F1000F40F090806B68C4F8203195F8FA
:10C0E0002800002840F0A68094F8B2010BF07CFCF8
:10C0F00002213A07034694F8B0A184F8BD1140F13B
:10C100009C80002800F09E8017F0510F00F02681DF
:10C1100017F0410F0CBF2A214A210B220136184685
:10C12000DE719A7194F8B321FDF7CAFFB9F1000FDF
:10C1300000F0FD80204603B0BDE8F08F09F5AA614C
:10C140004FF00C0A08234FF0000E8C461AFB003A01
:10C1500006E00EF1010E0CF11C0CBEF1170F19D008
:10C160009CF80030042BF4D19CF801309342F0D1BC
:10C170005CF80A30002BECD0C4F80031CEEBCE03D3
:10C1800000EB400C9B0003EB8C034B44D3F85C3575
:10C19000C4F80831019B9B449BF94D3F01333FF4A8
:10C1A0007CAF0023864604E001331C31172B3FF49B
:10C1B00074AF91F800C0BCF1050FF5D191F801C042
:10C1C0009445F1D151F80A000028EDD0C3EBC30328
:10C1D00084460EEB4E00D4F800E19B00C4F8FCC08E
:10C1E00003EB80039944D9F85C35C4F80431BEF1FF
:10C1F000000F7FF457AFE1465B4A002351680133DB
:10C200002432894536D0102BF8D1584A6B6892F801
:10C21000781000297FF461AF2978013182F8791014
:10C220000C2182F87810C4F8203195F828000028F5
:10C230003FF45AAF38F090FC56E718F0020F01D0E7
:10C24000002868D150460BF0CFFB00283FF46EAFBA
:10C2500018F0010F3FF46AAF0C2201360221C671BB
:10C26000827194F8B121FDF72BFFB9F1000F7FF433
:10C2700061AF5CE0DBB23D4A013B03EBC30302EB81
:10C28000830393F89C20002A7FF426AF2A78D3F802
:10C290008000013283F89D20354A904214BF9620D9
:10C2A00095200C2283F89C2038F056FC6B6803F133
:10C2B0002402C4F81C2110E75FFA81F92B4B09F125
:10C2C000FF3101EBC10103EB810393F89C100029BE
:10C2D0007FF4FCAE0132264883F89D20D3F88020FD
:10C2E000824214BF962095200B2283F89C2038F0C0
:10C2F00033FC2346484695F82B201E49FDF780FE67
:10C300006B68D4F8FC902833C4F81831B9F1000FE9
:10C310003FF4E2AE70E70B223B06827106F10102A8
:10C32000C2712FD494F8B321FDF7CAFE8AE795F8BD
:10C330002C1095F92A00890938F0E2FB95F92A209A
:10C3400095F82A30002AFFF6F5AE03F01F0001220F
:10C350005B090949824041F82320EBE63A21DCE6FB
:10C36000C01200202DB20008800001200000012032
:10C37000006002405D90000800E100E0B09B04080E
:10C38000801701200123204684F8BD31FEF74EFFBF
:10C3900058E700BFBFF34F8F0549064BCA6802F448
:10C3A000E0621343CB60BFF34F8F00BFFDE700BFD8
:10C3B00000ED00E00400FA0508B572B6FFF7EAFFE9
:10C3C00030B583B0FFF7DCF80320FFF7CDF8012884
:10C3D0004CD0324C0025324A0523C4F89850C4F89A
:10C3E0009C50C4F8A020C4F89430BFF34F8FBFF323
:10C3F0006F8F4FF6FF01E2682A4B0A4013432A4A27
:10C40000E360536F33F0ECF9284B2949A3FB002379
:10C41000D4F8FC209B0C42F08072C4F8FC20C1F8D8
:10C42000F433D1F82C332349234AA1FB03132349C6
:10C430009B09C2F8B01F5560013B1168B3F1807FC2
:10C4400041F00101116007D34FF0E022136943F07E
:10C450000403136103B030BD4FF0E022F0215361BB
:10C46000072384F8231095611361EDE7022103206F
:10C47000FFF780F80C4B12485A6C124942F4804284
:10C480005A645B6C03F480430193019A02680B6861
:10C49000026083F308884B689847FEE700ED00E0F0
:10C4A0001B0000060005FA050038024083DE1B432E
:10C4B00080170120D34D6210001000E055CEACC5AE
:10C4C000003801400000F01F800AA0F580105228BB
:10C4D0001CD80F4B034493F8F4330D2B16D80139B5
:10C4E00010B40C4C04EB831CD4F82C438BB2DCF856
:10C4F00040040CF24441CCF84C34B4FBF2F2013A63
:10C500005DF8044BCCF8442433F024BC704700BFE2
:10C51000B09B04088017012070B50468A30AA3F536
:10C520008013522B05D82D4E334493F8F4530D2D20
:10C5300000D970BD2046FCF795FD294BA8010222C9
:10C5400003EB8515D5F8401485F87D24254A8D68C0
:10C550002A40062A06D0B2F5803F03D00A6842F08E
:10C5600001020A601A180121002382F87D141E4975
:10C5700051F8332094420AD001330E2BF8D1012117
:10C58000002038F0BDFA194B01221A6070BD06EB8D
:10C59000C306012196F9ED4996F8ED59204638F089
:10C5A000AFFA002CC5DB05F01F0201216B090F4C0F
:10C5B00001FA02F21B2D44F8232006D1192038F08D
:10C5C0009FFA4FF00073236070BD2E2DB1D12C2047
:10C5D00038F096FA4FF48053636070BDB09B040846
:10C5E000801701200700010098A5040800E100E081
:10C5F00003689B0AA3F58013522B52D8F0B5344C34
:10C60000234493F8F4330D2B4AD84479022531485A
:10C610004FEA831E24FA05FC00EB831605FA0CF59D
:10C62000644603EB830CD6F8406403EB4C0C002902
:10C630003BD0A444F4682C4300EB8C0569606A612C
:10C64000F460EFF3118C502282F312882C2101FB4D
:10C6500003F2845802442CB3211D546203EB83027D
:10C660001D4D03EB4202920015441032024452F871
:10C67000044F0CB10C60211DAA42F8D100225FFAD0
:10C680008CFC0A608CF311882C2202FB03035B6A8A
:10C69000ABB18644DEF84024D36843F00103D36095
:10C6A000F0BD704711462431D8E7F768644427EAA3
:10C6B0000505F56000EB840569606A61C1E77044B7
:10C6C000D0F84024D36823F00103D360F0BD00BF4D
:10C6D000B09B040880170120A017012003689B0A63
:10C6E000A3F58013522B00D970470F4A134493F8D7
:10C6F000F4330D2BF8D8022210B40C4C407904EB23
:10C70000831C20FA02F3DCF8400402FA03F3C26847
:10C7100029B922EA03035DF8044BC3607047134351
:10C720005DF8044BC3607047B09B0408801701207C
:10C7300003689B0AA3F58013522B10D8084A1344B0
:10C7400093F8F4230D2A0AD8407902230549D840EA
:10C7500001EB82128340D2F84024DB43136170471F
:10C76000B09B04088017012001490248FCF752B928
:10C77000801701200000014010B5064C06482146F4
:10C78000FCF748F904F5C6710448BDE81040FCF711
:10C7900041B900BF80170120000001400044014062
:10C7A00002494FF08040FCF735B900BFAC170120BB
:10C7B00001490248FCF72EB9D817012000040040B7
:10C7C00001490248FCF726B904180120000800407E
:10C7D00001490248FCF71EB930180120000C004046
:10C7E000F8B5164D164E2A69EB681A404FF0004016
:10C7F000B2FA82F3EAB120FA03F3012A6FEA0303E3
:10C8000002EA03012B610A46F2D1D6F804718FB116
:10C81000013F0023BFB2C6F80431D6F8004134B15D
:10C8200023682046394698476468002CF8D10022D6
:10C83000DCE7F8BDEF6ABFB2EFE700BF00100040D1
:10C840008017012001490248FCF7E4B8B418012020
:10C850000004014010B5064C064804F59A71FCF737
:10C86000D9F804F504710448BDE81040FCF7D2B8CB
:10C870008017012000040140001C004001490248CB
:10C88000FCF7C8B8E0180120004001400149024807
:10C89000FCF7C0B83819012000480140014902489E
:10C8A000FCF7B8B864190120001800402DE9F041E8
:10C8B0004FF425728EB000215E483CF0EDFE5E4BD9
:10C8C0005E4D4FF000085A6C40F22227A5F658261C
:10C8D000A5F1700442F001025A645A6C02F00102A0
:10C8E0000092009A1A6C42F001021A641A6C02F06B
:10C8F00001020192019A1A6C42F002021A641A6C47
:10C9000002F002020292029A1A6C42F004021A64C5
:10C910001A6C02F004020392039A1A6C42F00802A5
:10C920001A641A6C02F008020492049A1A6C42F01B
:10C9300010021A641A6C02F010020592059A1A6C21
:10C9400042F020021A641A6C02F020020692069A43
:10C950005A6C42F002025A645A6C02F002020792C8
:10C96000079A5A6C42F480325A645A6C02F480324C
:10C970000892089A5A6C42F400325A645A6C02F4D3
:10C9800000320992099A5A6C42F480225A645A6C15
:10C9900002F480220A920A9A1A6C42F040021A6447
:10C9A0001A6C02F040020B920B9A1A6C42F0800251
:10C9B0001A641A6C02F080020C920C9A1A6C42F4FF
:10C9C00080721A641B6C03F480730D930D9B55F8F1
:10C9D0002810002354F83320914226D001330E2B27
:10C9E000F8D1002008F1070838F0B6F8B845EED1C4
:10C9F0004FF0000840F2222755F82810002354F881
:10CA0000332091420CD001330E2BF8D1002008F1D5
:10CA1000070838F0A1F8B845EED10EB0BDE8F081B6
:10CA200006EBC30393F8EC09F1E706EBC30393F8B5
:10CA3000EC09D7E7801701200038024008A6040857
:10CA4000800AA0F5801052280ED8084B034493F8B2
:10CA5000F4230D2A08D8064B03EB8213D3F84024A5
:10CA6000136843F001031360704700BFB09B0408D4
:10CA70008017012038B5264C94F8643F012B12D161
:10CA8000042894BF002301236BB904EB40000D463A
:10CA900094F87C1FC4F8903FB4F87E2FB0F8863F1E
:10CAA000B4F8820F01B138BD07EE902ADFED196AA4
:10CAB000D4F8742FB8EEE77ADFED177A27EE267AEE
:10CAC00006EE902A6422F8EE666A02FB03F366EE35
:10CAD000A76A07EE903A02FB0033B8EEE76A07EE6A
:10CAE000903A27EE067AF8EEE77A87EE270A20EEEC
:10CAF000260A3CF073F8D4F86C2FB4F8803F10602D
:10CB0000D4F8D42213442B44C4F8943F38BD00BF5A
:10CB1000801701200AD7233CCA269B3E2DE9F0410D
:10CB2000A14CA4B0D4F85C38022B00F039829F48A5
:10CB30009F4AA049121A3CF0B9FC9F489F4AA0495D
:10CB4000121A3CF0B3FCD4F85838012B00F2C08024
:10CB500003EB43039B4A9C4E02EB430032F8132045
:10CB600041888388C6E9B021C6F8C832974C984DF1
:10CB7000984BB2FBF1F2984901FB02F20021C5F893
:10CB80002C23D4F8882042F47002C4F888201A6854
:10CB900042F001021A609960904A18680240904879
:10CBA0001A60C0F308078F4A5A601A6822F480227C
:10CBB0001A60D96007B1FEE78B49A0604FF6FF000D
:10CBC0000A688A4B42F400720A60E268024013432A
:10CBD000E36038F085FABFF34F8FBFF36F8FC4F86F
:10CBE0005072BFF34F8FBFF36F8F636943F400330D
:10CBF0006361BFF34F8FBFF36F8FC4F88470BFF3CF
:10CC00004F8FD4F8803043F6E07CC3F3C90EC3F3F2
:10CC10004E33580100EA0C01734641EA8372013B2E
:10CC20005F1CC4F86022F8D1203810F1200FF1D138
:10CC3000BFF34F8F636943F480336361BFF34F8F5A
:10CC4000BFF36F8F6849634B0A6842F480720A60D1
:10CC5000196C674A41F080511964196C01F08051D8
:10CC600002910299116841F4404111601268D6F8AE
:10CC7000C04202F440420192019A9A6802F00C020A
:10CC8000042AD6E9B17100F08B809A6802F00C0298
:10CC9000082A00F081804F4A136843F48033136000
:10CCA000D5F8980F04E0D5F8983F1B1A642B72D87A
:10CCB00013689B03F7D5474A936803F00C03082BCE
:10CCC00069D0136823F080731360D5F8980F08E0DB
:10CCD0003D4ED6E9B02149E7D5F8983F1B1A022B03
:10CCE00059D813689E01F7D40B06790843EA8413D8
:10CCF000013943EA01433F4919435160136843F046
:10CD000080731360334AD5F8981F04E0D5F8983F34
:10CD10005B1A022B3FD813689801F7D5136C43F0C8
:10CD200080531364136C324A03F080530393039BC4
:10CD3000136843F480331360D5F8981F05E0D5F8E5
:10CD4000983F5B1AB3F57A7F2DD85368DB03F6D58D
:10CD50001368274943F400331360D5F8982F05E092
:10CD6000D5F8983F9B1AB3F57A7F1CD84B689E0381
:10CD7000F6D54FF400124FF0006304A804924FF46C
:10CD8000C07221930723CDE9082303230A9332F0CD
:10CD90005BFD88B3FEE7FEE75B685A027FF57BAF79
:10CDA0000C4B1B6887E7FEE70020004000000000F6
:10CDB000C83600001494050800000020C8010020B7
:10CDC000EDE3050890AE04080000012000ED00E04E
:10CDD000801701200038024040420F00FFFFF6FE9E
:10CDE0000000000810300024003C02400003FA0557
:10CDF00000700040080040206C4A136803F00F03E5
:10CE0000062B0AD8136823F00F0343F007031360BF
:10CE1000136803F00F03072B69D1654B9A6842F43E
:10CE2000E0529A609A6842F460429A609A6822F0EE
:10CE3000F0029A601A68900159D59A6841F28830D8
:10CE400022F0030242F002029A60D5F8981F04E033
:10CE5000D5F8982F521A824249D89A6802F00C02EB
:10CE6000082AF5D1514A136819070AD5136823F027
:10CE70000F0343F007031360136803F00F03072B3E
:10CE800035D1DFF82C814B4ED8F8083023F4E0532D
:10CE900043F4A053C8F80830D8F8083023F46043AE
:10CEA00043F40043C8F8083032F09AFCD8F8083050
:10CEB000C3F30313334493F8F43120FA03F3C5F8B2
:10CEC0002C3338F00DF9002304A8CDE91333CDE954
:10CED0001533CDE91733CDE91933CDE91B33CDE94E
:10CEE0001D33354B049332F0AFFC08B1FEE7FEE78B
:10CEF00002234FF0007204A8CDE90633D823CDE910
:10CF0000042301230B9332F09FFC00B1FEE7D8F815
:10CF10008C3023F08073C8F88C30D8F88C3043F014
:10CF20008073C8F88C30D8F8083003F00C03042B59
:10CF300031D0082B12D0214B2149B4FBF7F201FB71
:10CF400002F21B498968C1F303110E4496F8F411EB
:10CF5000CB409A42C5F82C331FD0FEE7D8F80430F6
:10CF6000D8F8042013F4800FD8F8043002F03F0200
:10CF700018BF1449C3F3881308BF1049B1FBF2F27C
:10CF800002FB03F30A4A5268C2F301420132520023
:10CF9000B3FBF2F3D0E70B4BCEE724B0BDE8F08152
:10CFA00000210320FEF7E6FAFFF7F4F9003C024007
:10CFB00000380240A8AC0408C0FF03000024F400BD
:10CFC00040420F0000127A000548D0F8A03223B189
:10CFD000DB6A13B100F5287018470248704700BF9C
:10CFE00080170120ACAE040810B5154CD4F89C3F56
:10CFF0001B883BB9002384F8AB3F84F89832C4F80F
:10D00000943210BDD4F8A02F002AF3DDD4F8A41F69
:10D01000012A488805D00123A4F8A80F84F8AA3F64
:10D02000E8E78A880132121A9A42F4D10022D4F831
:10D03000A03204F528701B69C4F8CC229847D9E7C0
:10D04000801701200748D0F89C3213B190F8AA3F0E
:10D050000BB100207047D0F8A03200F528705B6853
:10D06000184700BF80170120164A30B4164D92F8B9
:10D0700098324560EC1892F8AB3F046092F8980241
:10D08000834216D892F89802834206D300231A46A8
:10D09000184630BCC1E90032704792F898021A1E57
:10D0A000C0F180030CBF0120022030BCC1E9003276
:10D0B000704792F89842002201201B1B30BCC1E946
:10D0C00000327047801701200C1F00200F4B93F88F
:10D0D000982293F8AB0F93F89822904293F89822F5
:10D0E0000FD8904204D3D3F89432002018447047EC
