:020000040800F2
:10000000F0FF00107D8D060875080608A1C90108DB
:100010001D8E06081D8E06081D8E060800000000B5
:100020000000000000000000000000007908060841
:100030007D0806080000000081080608E9B90108EB
:100040001D8E06081D8E06081D8E06081D8E0608CC
:100050001D8E06081D8E06082DB4000835B4000854
:100060003DB4000845B400084DB4000801B10008D3
:1000700015B1000829B100083DB1000851B10008D0
:1000800065B1000879B100081D8E06081D8E0608AE
:100090001D8E06081D8E06081D8E060855B4000824
:1000A000EDCD00084DCD0008FDCD00083DCD000888
:1000B00075CD000885CD000895CD00087DA8000805
:1000C000A9C3000885A80008ADC300081D8E060856
:1000D0001D8E060819B301081DB4010821B50108D9
:1000E0005DB400081D8E0608753306080DCE0008A5
:1000F000C5CD00081DCE0008B5CD00088DB10008A3
:100100001D8E06081D8E0608A5CD00081D8E06084A
:1001100025B6010829B701081D8E06081D8E0608A0
:10012000A1B10008B5B10008C9B10008DDB10008EF
:10013000F1B100081D8E06081D8E06081D8E0608EA
:100140001D8E06081D8E06081D8E060885080608E9
:1001500005B2000819B200082DB200082DB8010838
:100160008DA80008B1C300081D8E06081D8E060864
:100170001D8E06081D8E06081D8E06081D8E06089B
:080180001D8E06081D8E060805
:10800000074BD0F8E4105B68D0F8F0205B1A9A4276
:10801000B8BFC0F8F030012380F81C310020704751
:10802000001000E0B54B00EB8002F0B503EBC2049A
:1080300053F832205268B2F814C01CF0010F4FEA16
:10804000800166D15FFA8CFE1EF0020F3CD0BFF3B8
:108050005F8F257F012DEEB200F0C380148BBFF33C
:108060005F8F0C1803EBC404257F022D00F0DA802B
:108070000C1803EBC404257F032D06D1A47F24B183
:1080800093F87940002C40F0DC809488A4B244F44A
:108090008064948093F9784001EB000C03EBCC0CE6
:1080A0009CF81CC00CF1010CA4450CD1002483F8F1
:1080B000794093F87A40002C40F0AD80084403EBFF
:1080C000C00000234376F0BD1EF0040F93F97850F2
:1080D00055D11EF0400E00F0BD80168A676AF6B2D8
:1080E0007E55EFB27D1C6DB294F81CC083F87850B9
:1080F000EE1CB4452C4600F01A810E1803EBC606A0
:10810000367FB542C8D102377FB283F878703C46DB
:10811000C2E7B2F800C02CF4006C4FEA0C4C4FEAF6
:108120001C4CA2F800C0B2F800C01FFA8CFC4CF442
:10813000806CA2F800C0A57F002683F87860002D2F
:1081400041D093F87950002D3AD0012483F879403A
:108150000C1803EBC404247F022C04D11488A4B2AD
:1081600044F4006414800C1803EBC404A47E44F0AF
:1081700001041482014403EBC1031B7FF0BDA77F00
:10818000012683F87A6093F87960002F7CD0002E66
:108190007DD10C1803EBC404647F002C00F0A48094
:1081A0006C1C65B2148883F87850A4B244F400744F
:1081B0001480B2F800C01CF4807FFAD12C466BE723
:1081C000E47EFF2CC1D00C1803EBC404A57E05F09F
:1081D000FE051582E27EFF2ACCD0FF2283F87820AC
:1081E000C8E7A47F002C3FF439AF93F87940002C06
:1081F0003FF434AF148824F480642404240C1480E5
:10820000BFF35F8F148B148883F87A60A4B244F4B0
:108210000074148039E7948824F440742404240CF6
:1082200094804BE7A47F002C3FF422AF93F8794071
:10823000002C3FF41DAF148824F480642404240C23
:108240001480948824F480642404240C948093F98A
:10825000784021E71FFA8CF63706AFD56E1C6DD03B
:10826000266A765DF6B21682267F01356DB2AE4281
:1082700083F878502C467FF40FAF958825F48065FD
:108280002D042D0C958007E7002E82D088E794F806
:108290001CC0D4F824E0EEB2771CBCF1020F7FB210
:1082A0002ED9B2F800C02CF4806C4FEA0C4C4FEA87
:1082B0001C4CA2F800C0B2F810C05FFA8CFC0EF89B
:1082C00005C0023675B2666A148883F87850A4B285
:1082D00044F400741480148AE4B2F4559488A4B26F
:1082E00044F48064948064E71488A4B244F48074F5
:1082F0001480012483F879405BE700BF381A00201E
:10830000B2F800C01FFA8CFC4CF4007CA2F800C04C
:10831000B2F810C05FFA8CFC0EF805C0033675B2D7
:10832000666A148A83F87850E4B2F45541E7968877
:1083300026F480663604360C9680DEE6E57E83F809
:1083400078E0EDB21582A57F1DB9247F002C7FF463
:1083500011AF948824F480642404240C948009E7E9
:108360001B4B016803F57D7C02E02C3363452CD068
:108370001A688A42F9D170B593F804E042799645BB
:108380000BD02C33634505D01A688A42F4D02C33C5
:108390006345F9D14FF0FF3070BD9E468468DEF82A
:1083A0000C50A5424FF0000208D00132032A0EF112
:1083B0000C0EE6D0DEF80C50A542F6D1DEF81050D7
:1083C000C668B542F1D150B270BD4FF0FF30704772
:1083D000FCA80608002A4FEA014C30B503460ABF44
:1083E000E6468E468C4600F1C005002419689A685E
:1083F00041EA0C0142EA0E029A60C3E900140C3310
:10840000AB42F3D1D0F8C030C0F8C44043EA0E0309
:10841000C0F8C030C0F8C84030BD00BF83691969DA
:10842000B3F80CC00A6830B49C6822F001022468DA
:108430000A60A28992B222EA0C02A281027D00683F
:108440001F2A06D94568203A082494402C4245D07A
:10845000FEE70568082494402C42F9D1202404FA50
:1084600002F28260264A1278002A35D01A7E012A4A
:1084700039D0D3F8F4200132C3F8F420EFF311819E
:10848000502282F3128858685C6C026822EA040267
:108490009C6C2243C9B2026081F31188D3E90C407D
:1084A0001A6999681D6C096814605061D3E90E401F
:1084B000546090600024B3F8A800D5604C62C86294
:1084C00010680124204310601C7683F8F1408A89EB
:1084D0009B8913439BB28B8130BC7047202404FAE4
:1084E00002F2C260BEE7002283F8F120D3F8F80060
:1084F0000A68013022F00102C3F8F8000A60EBE7D5
:108500000400001010B40C4C6368002B11DD002037
:1085100004F1080C0146DCF8A03003F1C0025960F8
:108520000C339342FBD16368013083420CF5807CAD
:10853000F1DC5DF8044B704704000010F0B5484CC6
:1085400004EB401292F8243403B9F0BD454B4FF0D0
:108550008C0C0CFB003C93F8DC6493F8DD549CF825
:108560007E7082F80A74AE424FF000024FEA401E5D
:108570008CF87E200ED005EB450203EBC20292F888
:10858000E0C40CF1FF37012F4FEA450259D9BCF185
:10859000030F51D004EB0E00A0F80814EFF3118282
:1085A000902383F3128890F80A34B0F8081443EA51
:1085B00041030021D2B29BB280F80A1482F31188E1
:1085C0002178D0F820441A0982EA13225A40C9B10E
:1085D000D0F80C14D4F8A040D2431B019BB202F097
:1085E0000F0201208840134304F1C0015A0013F424
:1085F000004F93B202D16268024362600C34A14220
:10860000F4D1F0BDD0F80C14D4F8A0401B01103107
:108610009BB202F00F0201208840134304F1C00115
:108620005A0013F4004F93B202D1626802436260B1
:108630000C34A142F4D1F0BD6F1C07F00307B74220
:10864000A8D02A4403EBC203184490F8ED14002983
:10865000A0D004EB0E03012283F80A249AE700BF9E
:1086600004000010381A0020704700BF024B03EBD3
:10867000401393F825047047040000104368B0F8D5
:10868000502010B41A83EFF31182502383F3128821
:108690004168446C0B6823EA0403C46C2343D2B2E0
:1086A0000B6082F31188D0E9074182680369126880
:1086B0001C605961D0E909415C60C46A9960B0F8F6
:1086C0006010DC600023D1625DF8044B03767047D4
:1086D00010B4037D02681F2B09D95468203B202168
:1086E00001FA03F31C4215D15DF8044B704714687E
:1086F000202101FA03F31C42F6D00D494068002402
:1087000081F8404501685DF8044B21F001010160EA
:108710009360704706494068002481F8404501682D
:108720005DF8044B21F001010160D360704700BF88
:10873000381A0020704700BF0B4890F83C1589B1EB
:1087400001EB4101002310B4490000F244501C46E3
:1087500050F82320063302B114608B42F8D15DF843
:10876000044B7047704700BF040000100B4890F89E
:108770003C1589B101EB4101002310B4490000F21E
:1087800044501C4650F82320063302B114608B423B
:10879000F8D15DF8044B7047704700BF040000102B
:1087A00001207047034B00EB400003EBC00393F83C
:1087B00055057047040000101F4890F83C35002B09
:1087C00039D000222DE9F04300F244531B4E1C4DDA
:1087D0004FF0500E4FF02C0C144607E053F8181BC6
:1087E0000C6090F83C150132914222DD197C002981
:1087F000F4D05F68B90AA1F5801105EB010952298F
:108800004FF0FE0898BF99F8F483EFF311898EF3C7
:108810001288796A0CFB08680131C8F86C15B98AAE
:1088200089B241F001015FFA89F8B98288F31188B1
:10883000D4E7BDE8F083704704000010381A002028
:10884000FCA8060800EE100AB8EE400A704700BF08
:10885000BCEEC00A10EE103A98B270470C4B0D49AE
:10886000DB68DB43C3F30223C3F104030122DBB261
:1088700002FA03F301EB000C1B0103F0F0038CF888
:108880000033430900F01F00824041F82320704765
:1088900000ED00E000E100E010B4037D02681F2B52
:1088A00009D95468203B202101FA03F31C4215D159
:1088B0005DF8044B70471468202101FA03F31C4251
:1088C000F6D00D494068002481F8AC4701685DF896
:1088D000044B21F001010160936070470649406834
:1088E000002481F8AC4701685DF8044B21F00101D8
:1088F0000160D360704700BF381A0020122301487E
:108900000B80704788010020042301480B807047CA
:108910009C0100201C48D0F8E837D0F8EC2710B5AF
:108920009B184FF01A040C8001D1184810BD174A4B
:10893000D0F8EA0702F1100411464FF0000E4FEA9A
:10894000137CB3F1204F34BF0CF1300C0CF1370C19
:1089500081F802C081F803E002318C424FEA031330
:10896000EDD102F108040021030FB0F1204F34BF14
:10897000303337339374D174023294424FEA00108B
:10898000F2D1024810BD00BF00F0FF1FA00100207F
:1089900082B01D4B1D49002201920193019B0433BB
:1089A0000193019B1A688B6803F00C03042B02D01F
:1089B000082B05D0164A174BC3F8B02702B07047F2
:1089C00048684B68400203F03F0314D44A681049DA
:1089D000B1FBF3F3C2F3881203FB02F20B4B5B68AB
:1089E000C3F3014301335B00B2FBF3F2094BC3F85D
:1089F000B02702B070474968B2FBF3F2C1F38813A5
:108A000003FB02F2EAE700BF5028004000380240B2
:108A10000024F400381A0020012343770020704717
:108A200008B503468269006BD96A02449A6101B1B4
:108A30008847002008BD00BF436A1B681B6A5B684B
:108A40005B78024613F0010008BF5077704700BF03
:108A5000F0B5224C224A234B95B0054604F13C0068
:108A6000CDE90002049304F140000023CDE90503A1
:108A7000CDE90E331C4A09920B9304F13402109392
:108A8000139311936B6A2F7F0A92186801230222B5
:108A90008DF80C3007938DF820308DF834308DF838
:108AA00048303B1D02920E460C935EF05FFD97B17D
:108AB000330E84F835303634320C330A227063704A
:108AC000A670686A694611F047FC6B6A18685EF028
:108AD0004DFD15B0F0BD3534EEE700BF8801002034
:108AE000EC210020398A0008198A000810B50446D4
:108AF00094B050220649684661F0BEFC606A69463F
:108B000011F02AFC636A18685EF030FD14B010BDE5
:108B100044AD0608C2628161704700BF2DE9F04193
:108B20000446406A00681E460F4690465EF01EFDF1
:108B3000237FA069002B3DD0274D030E85F84530DB
:108B4000052205F146039870EA67020C000A587086
:108B50001A703B68C5F888300020D8F80030C5F896
:108B60009030012E2363C5F8A00028D0022E1FD11B
:108B7000D8F80420C5F89800796885F89400C5F8FD
:108B80009C1013441549C5F8A4200120236385F8DF
:108B9000A800C5F8AC10124B627F606AA3F1140103
:108BA000002A08BF194611F0D7FBE36A7BB1206B9E
:108BB000BDE8F0810B4B0422A3F14505C3E7074B49
:108BC00085F89460C5E92630C5F8A400E3E7636A38
:108BD00018685EF0CBFCEAE788010020218A0008D3
:108BE000E8010020CD010020704700BF00B583B030
:108BF00081610192049A0093C26201236A4601A92D
:108C0000FFF78CFF03B05DF804FB00BF0430704732
:108C10000430704710B4094CD4F8B8074FF0340C46
:108C20000CFB00F004EB000C04F2BC742044DCF8F4
:108C3000BC47A469A4465DF8044B6047381A00207D
:108C4000064BD3F8B827342101FB02F203F2BC70C3
:108C500013441044D3F8BC37DB691847381A002096
:108C6000043070470D4B93F82828D3F82418024499
:108C7000D2B283F8282893F8282801441206C3F8B2
:108C8000241805D593F8282882F0800283F8282834
:108C9000034B012283F8C420704700BF381A00201C
:108CA000880100202DE9F047154FD7F82C58ED0A20
:108CB00020D00026B14607F664087419D7F830387A
:108CC0001048D3F828A0C7F85C9804EBD47464105B
:108CD00010234246E102D0470F280BDD0A4B03F177
:108CE000100153F8042B013207D18B42F9D12546EC
:108CF000B542E2DCE802BDE8F087661CF8E700BF99
:108D0000381A0020682200209C2200201B4BD3F838
:108D10007418D3F878288A1A322A16D8D3F88C28EF
:108D20008A4200D37047D3F8802812B31068928823
:108D300010B444693231224218BF42835DF8044BBB
:108D400008BF0283C3F88C18704793F87C28D3F8C7
:108D5000801802F0010219B10868898822B90183DC
:108D60000022C3F88C28704700224183C3F88C2866
:108D700070473231C3F88C18704700BF381A002092
:108D8000084A92F87C38D2F8802803F001031AB11F
:108D90009188126813B91183002070475183002015
:108DA000704700BF381A00204FF40070034B10606A
:108DB000D3F898380B600020704700BF381A0020A5
:108DC0000020704701207047012070470020704745
:108DD00010B41C6994420CD394460A4661448C42F8
:108DE000996938BFA4EB0C0261445DF8044B61F053
:108DF00043BB5DF8044B704730B4184B00209C7B9C
:108E000014B11D688D4206D001300B2803F1100308
:108E1000F5D130BC7047B2B1114B03EB40218A420F
:108E200018D0104B93F8E42712B9012283F8E427F5
:108E30000D4B01225A7000F5B17003EB00130122B3
:108E40009A7130BC7047084B00F5B17003EB00130A
:108E50009A71DEE7022CE4D1183BECE7B058002011
:108E6000B0420020985200209842002030B41D4C9F
:108E7000002384F8D03604F5C36004E001330B2BE3
:108E800000F1100015D005688D42F7D190F80EC0A2
:108E9000BCF1030FF2D1C2B1134901EB432082426E
:108EA00009D1A1F1180203F5B17302EB03120123FA
:108EB000937130BC704794F8E42712B9012284F80A
:108EC000E4270A4A01215170EDE70849D4F8CC267D
:108ED00003F5B17301EB0313013204219971C4F856
:108EE000CC26E6E798520020B042002098420020AD
:108EF000A8B183681BB10E4B07229A7070470C4AC9
:108F00001178D36003294FF0040014BF4FF480712F
:108F10008021C2E901111361137590707047044AF2
:108F200002F580510123537081F8E437704700BF88
:108F300098420020F8B50C4B1D685A691540054051
:108F40005D617DB1094F0126B5FA85F4C4F11F04B6
:108F500007EB840306FA04F4D3F8C80803689847BB
:108F6000A543F1D1F8BD00BF003C0140381A0020F4
:108F70002DE9F843038AB0F80C801FFA88F818EA44
:108F8000030829D005460E464FF00047B8FA88F38B
:108F900027FA03F2D24391B21B3B298208EA020866
:108FA000042B16D8DFE803F0352C231A0300B36A2C
:108FB000002B37D003F1FF3900231FFA89F9B36280
:108FC000746A34B123682046494698476468002C87
:108FD000F8D1B8F1000FD9D1BDE8F8837068696B9A
:108FE000036889B29847B8F1000FCFD1F4E7B068B1
:108FF000A96B036889B29847B8F1000FC6D1EBE7B7
:10900000F068E96B036889B29847B8F1000FBDD1E9
:10901000E2E73069296C036889B29847B8F1000F1C
:10902000B4D1D9E7EB6A1FFA83F9C9E72DE9F0411A
:109030000546406A94B0144600681F460E465EF02E
:1090400095FA0B94254C0C9704F1D0030093244B14
:1090500001930223002202930123CDE90922CDE9E5
:109060000E22CDE910228DF80C308DF834308DF8B9
:10907000483006922B7F8DF820201392194A0492D3
:1090800004F1C80205921A1D07921BB3330E84F82F
:10909000C930CA34330CDFF850802370330A637050
:1090A000A670D8F80C096C6A11F06CFB6B7FA0807D
:1090B00093B16946204611F04FF96C6A20685EF062
:1090C00055FAD8F8100911F05DFBA080384614B0AD
:1090D000BDE8F081C934DDE705A9EBE78801002090
:1090E00040230020398A0008381A002038B5274D5F
:1090F00095F8DC2495F8DD349A4241D1244A92F85F
:109100000406F0B1234B92F80846D5F8142900EB79
:10911000400003EBC000B4B140F20D3C00E01A681F
:1091200099689C894C600C6844F001040C60A2F8BA
:1091300048C09189183389B241F48071834291818A
:10914000EDD138BD1A68118821F080010904183367
:10915000090C118033F8141CD162118889B241F0D6
:10916000800111805462B2F80CC033F8041C41EA4B
:109170000C0189B28342918123F8044CE2D138BDBD
:109180005EF016FC0028B9D138BD00BF381A0020A7
:10919000040000104C230020F8B51D4B93F8DC248C
:1091A00093F8DD349A422ED11A4F7D68002D11DDDF
:1091B0003846002410F8086B16B1037E012B1CD032
:1091C00002691368013443F00103AC4200F580707A
:1091D0001360F1D112F052FCD7F80C46002C0BDDD5
:1091E0000D4A02EBC404116893888889083203434E
:1091F0009BB294428B81F6D1F8BD002380F8F03009
:10920000FFF73CFADCE75EF0D3FB0028CCD1F8BDD9
:10921000381A002004000010140600102DE9F04F49
:10922000037D02681F2B83B0044609D95068A3F15F
:1092300020052021A940014207D103B0BDE8F08FED
:109240001068202199400142F7D04949D4F818808C
:10925000484F4868484D8C2101FB0871C5F830061D
:1092600095F808C6D1F884000668BCF1000F18D143
:10927000D1F8FC00B1F888C0016821F0010101605B
:10928000B18989B221EA0C01B1812978B9B91F2BC2
:1092900061D9A3F1200120238B40D36003B0BDE846
:1092A000F08F0069016821F001010160B18921F4AA
:1092B00080710904090CB18129780029E7D04FF0A9
:1092C0008C0909FB08F907EB0903DFF8B0B0D3F804
:1092D000FC201046CDE9002357F022F8019B012223
:1092E00083F8D020D5F8383609F1180ADA44002B73
:1092F00038D033889BB243F08003338009F174097E
:109300004FF0FF330BEB0901F362304657F098F949
:109310008C2303FB0877514600230098C7F8A03040
:1093200057F094F8D7F8FC3016225A601A6842F0C9
:1093300001021A60D7F88420B7F888301268918942
:109340000B439BB293810A49237D49682268C5F883
:1093500034161F2B9DD8202101FA03F3936003B02C
:10936000BDE8F08F12F08AFBC5F83806C1E700BFF0
:10937000001000E0381A002004000010B41A002089
:109380002DE9F84312F07AFB204F214E7C68054608
:109390004FF00008002C2DDD00231A4607EB0321B7
:1093A000013391F8F9109C4242EA0102F6D142EAF7
:1093B00008095FFA89F990467368C3F30803B3B9E3
:1093C000EFF311839BB912F0ABFB401BB0F5FA6FC2
:1093D00002DCB8F1000FDDD1B9F1000F04D00D4B64
:1093E00093F8D429542A09D04846BDE8F88312F0EE
:1093F00019FBEAE7C1464FF00008DDE7B3F8DC29C6
:109400000132A3F8DC294846BDE8F88304000010C7
:1094100000ED00E0381A0020AD4B1B780BB901209D
:1094200070472DE9F04FDFF8BCB2AA49DBF8743879
:10943000A94AA1FB03135B09A2FB0312D208A449AA
:1094400087B002EB8202A3EB4203D1F83C260492E0
:1094500001F5C864DAB2059204EB8307002201F536
:109460001263019301F5816A9046049B984580F24E
:109470000C81DAF81820DAF80490D2F8E830D2F843
:10948000EC60029312F0FAFA029B03904FEA890C07
:109490009BF8D4999BF8E8090CF1085C06F180610F
:1094A0000CEB431C3939B9F1540F0CEB81110CEB67
:1094B000801301D1ABF8DE09994240F27D811A6830
:1094C000002A00F071811A6C002A00F08381D3F821
:1094D0008020002A00F08081D3F8C02003F580733B
:1094E000002AE9D1A3EB0C0C99424FEAAC1240F2EE
:1094F0006381B61A452E28BF452603EB8611002648
:109500003046B6461D4616460DE01A6C002A40F05D
:10951000EB80D3F88020002A40F01681D3F8C020D9
:1095200003F580732AB9994206D91A68002AECD04B
:109530004033994200F2DC8032467646112E40F2EA
:109540003F81DEF1150100F13B81644B1D46D3F8EC
:10955000D4309A4238BF2B46039D38BFC3F8D4207D
:10956000DBF8EC39EA1A002A18DB03F5F42303F5DB
:1095700090739D4284BF2B460533CBF8EC39574B93
:10958000564AD3F8D430052B86BF053BDBB2002307
:109590008BF8E8394FF0FF33C2F8D43031B100FA1C
:1095A00001F1C6F114060120B04008434C4EC0F34F
:1095B000C43306EB8303D3F8981400F01F0306EBC3
:1095C0008303D3F8982442EA0132C0F3441106EB36
:1095D0008101C0F3842306EB8303D1F89814D3F8F8
:1095E000983442EA011141EA032181EA112383EA16
:1095F000131303F00F02364BD3F828390F2A03F167
:10960000010340F0BE80B1F5803F80F0BA80B9F12F
:10961000540F4FEA111140D02D4AB1F5606FC2F8D6
:10962000283945D0019B998194F858300598834298
:109630000CD0BA6823689B1A23603A6B63689B1A44
:1096400063600023BB603B6384F8580023680133E8
:109650002360BB680133BB604FF6FF73994205D1AD
:109660006368013363603B6B01333B63019B08F12B
:1096700001081433B8F1080F04F15C0407F15C072A
:1096800001930AF1200A7FF4F0AE114A0123012070
:1096900082F8263A07B0BDE8F08FBBF8D82901322E
:1096A000ABF8D8290A4AB1F5606FC2F82839B9D1A8
:1096B0009BF8DD3403EB43030BEBC303434493F804
:1096C000ED340D2BAED1019A80239377ACE700BF28
:1096D000040000101F85EB51CDCCCCCC88010020BC
:1096E000FCA80608381A0020803399427FF624AF80
:1096F000A3EB050C3C4A4FEAAC1C0CF1010C82FBBD
:109700000C52A2EBEC72012AB8BF012290404FF03C
:10971000010C9644013A0CFA02F210439C46DCF824
:1097200000209AB1DCF84020002A57D0DCF88020D5
:10973000002A56D0DCF8C0200CF5807C42B161458F
:10974000EDD81D466346EEE6C033F2E60CF1400C60
:109750006145F6D9ACEB03029211234B013283FB36
:109760000253A3EBE273012BB8BF012398409E4440
:109770000122013B02FA03F3184363461D46634688
:10978000D1E6B9F1540F04D1BBF8D8290132ABF8B6
:10979000D829164AC2F82839D2F824390133C2F838
:1097A00024394FF6FF713FE74033A3EB0C0C99428D
:1097B0004FEAAC123FF69DAE10B101388BF8E809C4
:1097C000B9F1540F7FF452AFBBF8DA390133ABF87B
:1097D000DA394BE7803385E6C03383E60CF1800C41
:1097E000B6E70CF1C00CB3E7565555550400001010
:1097F00010B5044660F08EF981B22046BDE81040F5
:10980000FEF79CBE38B50B4D00EB400005F244530B
:1098100003EBC00393ED027AD3ED037AE7EE007A0F
:10982000C4002544B0EE670A60F074F9D5F84435F9
:10983000186038BD040000100A4608B5054920B973
:10984000054856F0ABFF034808BD044856F0A6FF94
:10985000004808BD28240020DC3607080437070824
:1098600010B5044C04480A46214656F097FF20469E
:1098700010BD00BF282400202C37070810B5044C69
:1098800004480A46214656F089FF204610BD00BF15
:10989000282400204037070810B5044C04480A4625
:1098A000214656F07BFF204610BD00BF2824002033
:1098B0004C37070838B590F82830012B044606D0FD
:1098C000407F08B9012038BD0023637738BD406A66
:1098D00003681A7B92B9637F002BF3D00A4D0B49C2
:1098E000022305F52F6210F0DBFD95F8F13AD8431D
:1098F00003F0010300F001006377E7E71B6A002B28
:10990000E9D0002038BD00BF381A002060020020D6
:1099100038B5044694F82830012B07D0637F0BB18B
:1099200000236377012038BD1B6A23B1606A036896
:109930001A7B002AF8D1637F002BF3D0074D08492A
:10994000022305F52F6210F0ABFD95F8F13A03F014
:109950000102DB076277E5D5DCE700BF381A00209B
:1099600060020020F0B511F0010583B00AD190F833
:109970002860012E044607D0C368B3F1807F01D967
:109980000123037703B0F0BD0A4B476AD3F80C09F3
:1099900010F0F8FEE368B880B3F1807FF2D9B72108
:1099A0008DF80410267733462A46384601A910F070
:1099B00077FDE7E7381A002008B590F82830012B2A
:1099C00018BF012000D008BD406A5DF0D3FDC04340
:1099D00000F0010008BD00BF38B50C4D044694F8F6
:1099E0002830012B03D000232362012038BD606A98
:1099F0005DF0C0FDC04310F00100F4D1D5F874381B
:109A0000226A9B1A002BEADB38BD00BF381A0020FF
:109A100038B51C4D90F828100446FF22406A5EF0CD
:109A200087FCD5F8743803F5FA73236294F828306C
:109A3000012B04D00022012B22620FD038BD606AB6
:109A40005DF098FDC30719D5D5F87438226A9B1AC2
:109A5000002BEBDB94F82830012BEFD1606A002259
:109A6000A0215EF03FFC94F82830012BE6D1606A1B
:109A70001822BDE83840B0215EF034BC94F828309C
:109A8000D8E700BF381A0020CB0700D57047BFE7E2
:109A90002DE9F043614D93B004460F46164694F805
:109AA0002810606A01292BD00023236206225EF071
:109AB0003FFC0123637795F8F23A002B3ED1D7F8AB
:109AC0000090D5F8F48A376894F82830012B25D017
:109AD0000022012B22626CD0D5F87438E26A02337E
:109AE00023623068D5F8F43A0121034485F8F21A6C
:109AF000C5F8F43A0AB19047306813B0BDE8F08376
:109B00005DF038FDC1077ED5D5F87438206A1B1A80
:109B1000002BC4DB94F82810606AC7E7606A5DF028
:109B200029FDC20776D5D5F87438226A9B1A002B16
:109B3000CADB94F82830012BCED13AE0D5F8F43ABC
:109B40008DF80630C3F30223D7F800808DF8053076
:109B5000376884238DF8043094F82830012B18D00E
:109B60000022012B2262B7D18DF828308DF83C30CD
:109B7000002303938DF81430069308930B930E93F0
:109B8000109301AB0997CDF81C80676A029302A974
:109B90002CE0606A5DF0EEFCC30738D5D5F8743868
:109BA000226A9B1A002BD7DB94F82830012B93D123
:109BB000DAE701AA09978DF806800292C8F3022815
:109BC00000228DF828308DF83C30676ACDF81C9063
:109BD00002238DF8058003928DF8142006920892D6
:109BE00002A90B920E9210928DF804300323049375
:109BF000384600220023CDE90C2310F0ADFB386875
:109C00005DF0B4FC68E794F82810606A4CE794F8BB
:109C10002830A5E794F828305AE700BF381A00200A
:109C200033B910B51C46C36A20469847204610BD7C
:109C30002EE700BF70B51A4D04460E4694F8281062
:109C4000606A01290FD00023236206225EF070FBB8
:109C500094F8283001229342627712D0D5F87438F4
:109C60000F33236270BD5DF085FCC30713D5D5F8B3
:109C70007438226A9B1A002BE0DB94F82810606A83
:109C8000E3E7606AF20AD8215EF008FBD5F8743881
:109C90000F33236270BD94F82810606AD3E700BFC9
:109CA000381A00208388002B59D02DE9F0464FF058
:109CB000000A2B4F8FB0044655464FF0060994F822
:109CC0002860606A012E12D0012E25628DF80F9057
:109CD0001ED001236377D7F87438A2880AF1010AED
:109CE0000F3352452362EAD80FB0BDE8F0865DF02D
:109CF00041FCC3072FD5D7F87438226A9B1A002B72
:109D0000DDDB94F82860606A8DF80F90012EE0D1B9
:109D10000DF10F0304A9CDE904350190CDE90855F3
:109D2000CDE90A5506968DF81C608DF830600D95CA
:109D300010F012FB019800685DF018FC94F82830D0
:109D40006677012BC7D14FEA4A42606AD20AD8210E
:109D50005EF0A4FABFE794F82860606AB4E7704741
:109D6000381A002070B51E4D95F8F23A23B1D5F897
:109D7000F43AC3F30A0303B170BDD5F8F86A194B7E
:109D8000F60A0446C3F8DC6094F82830012B0FD0A3
:109D900000222262012B19D0D5F87438D5F8F42AA4
:109DA000C5F8F82A02330021236285F8F21A70BD43
:109DB000606A5DF0DFFBC3070ED5D5F87438216A01
:109DC0005B1A002BE0DB94F82830E3E7606A324648
:109DD00010215EF063FADFE794F82830D8E700BF7F
:109DE000381A00208801002070B52C4DC26295F809
:109DF000F23A23B1D5F8F43A8B4205D170BDC5F8DB
:109E0000F41AC5F8F81A70BD044694F82810606A70
:109E1000012928D00023236206225EF089FA01235B
:109E2000D5F8F86A637794F82830012B0BD000221C
:109E3000012B226225D0D5F8743800220233236228
:109E400085F8F22A70BD606A5DF094FBC3071ED5E9
:109E5000D5F87438226A9B1A002BE4DB94F828307A
:109E6000012BE8D10DE05DF085FBC20712D5D5F8D6
:109E70007438226A9B1A002BC7DB94F82810606A9A
:109E8000CAE7606AF20A10215EF008FAD3E794F894
:109E90002830CCE794F82810606ABBE7381A002015
:109EA00010B582B004460192049A0093FFF79CFF1C
:109EB0006A4601A92046FFF7EBFD2046FFF752FF57
:109EC00002B010BD70B5194D95F8F23A03B970BDE6
:109ED000D5F8F86A164BF60A0446C3F8DC6094F825
:109EE0002830012B0BD000222262012B15D0D5F88F
:109EF000743800220233236285F8F22A70BD606A4A
:109F00005DF038FBC3070ED5D5F87438216A5B1AAB
:109F1000002BE4DB94F82830E7E7606A3246102132
:109F20005EF0BCF9E3E794F82830DCE7381A00204B
:109F3000880100202DE9F047DFF888A190F828C0BB
:109F40001F46DAF8DC30B3EBD12F92B004460E4650
:109F5000904637D15A4DC6F30A06C6F50069B94591
:109F600034BF1FFA89F91FFA87F9BCF1010F4FD0EE
:109F7000D5F8743802332362BCF1010F05D00023F9
:109F80002362484612B0BDE8F087606A5DF0F2FADD
:109F9000C3077CD5D5F87438226A9B1A002B0DDADA
:109FA00094F828C0E8E7606A5DF0E4FAC1075BD581
:109FB000D5F87408236AC01A002806DB002012B006
:109FC000BDE8F0873E4D4FEAD12994F828C0BCF196
:109FD000010FE8D04FF0FF33CAF8DC30D5F8743801
:109FE00002332362BCF1010F04D00023CAF8DC90D5
:109FF0002362B0E7606A5DF0BDFAC2075CD5D5F8B0
:10A000007438226A9B1A002BD8DA94F828C0E9E742
:10A010000023CDE906338DF806608DF80730360A47
:10A0200003938DF814300B930E93109303238DF844
:10A0300005608DF80430666A8DF828C001AB029384
:10A040000423002202A90493304600238DF83CC06B
:10A05000CDE90C23CDE9088710F07EF930685DF07A
:10A0600085FA94F828C083E794F828C00023236277
:10A07000BCF1010F4FF0FF33CAF8DC30AED1606A9B
:10A080004A4613215EF00AF994F828C0A6E794F82E
:10A0900028300022012B22627FF473AF606A5DF0EA
:10A0A00069FAC0F30113013B022B3FF66AAF204669
:10A0B000FFF7AEFC484665E794F828C095E700BF77
:10A0C000381A0020880100202DE9F843DDF82080AF
:10A0D0000F4615460021202204461E4660F004FA71
:10A0E000B8F1000F0CD0D8F80030E3811B0C2382AC
:10A0F000D8F80430B8F80A20E3821B0C628223836C
:10A1000038465EF06BF9EB0619D4431EB8B107EB85
:10A11000000C01E0013B12D31CF801EDBEF12E0F43
:10A12000F8D1C01A421E032AA8BF0322082B03F14C
:10A130000109A8BF08239046B9441A4606E008283A
:10A140000246B946A8BF08224FF000084FF020335E
:10A15000394623606360204660F08EF904F1080000
:10A16000154B238142464946837060F085F9611E94
:10A17000E21D11F801CFACF16103192B9CBFACF1CA
:10A18000200C81F800C09142F3D104F10A0011F8CB
:10A19000013FA3F16102192A9CBF203B0B70814251
:10A1A000F5D118232373330CA382E572099B6683D0
:10A1B000E361BDE8F88300BF202020002DE9F04FC7
:10A1C000DFF874A4DAF87408CAF8780885B0002BB0
:10A1D00062D013440C46174601F5FF7B994620E0F8
:10A1E000002F68D0DAF8A438BB4200F0CC80DAF84F
:10A1F000A038BB4200F00081DAF8A838DAF8AC18D1
:10A20000BB424DD8B94200F27C81791A20465BF0FE
:10A210007BF804F5007201374F4514460BF5007BBF
:10A220003AD0DAF8B038BB42DAD8DAF8C058FB1ABC
:10A23000296BDA0802328A4203F0070602D3AB6BBD
:10A240009A420BD92946104602925BF02DF8029AE9
:10A250000546002800F07981CAF8C0082B79002B48
:10A2600040F02781D5F82880B8F1000F00F0648114
:10A270002B6BD21AEB6806EBC20203EB422220469C
:10A280002B464FF400710137C04704F500724F456B
:10A2900014460BF5007BC4D1002005B0BDE8F08F5B
:10A2A000B942B2D94FF400720021204660F01CF987
:10A2B00004F50072AFE74FF400723946204660F0B3
:10A2C00013F9802384F8BE310C2384F8C231DAF804
:10A2D000A018CD4ADAF89838C4F8C6119142C4F8EB
:10A2E000CA3100F31581C94AC94D82FB010285FBC1
:10A2F00001050A44C817C0EB6212C0EB2530C54DFA
:10A3000084F8C10185FB0265C2EB82168010891BAF
:10A31000013120F03F0015440843D117C1EBE5118E
:10A320000A4484F8BF21B84A84F8C001013B934233
:10A3300000F3FA80B54AB64882FB031280FB031093
:10A340001A44D917C1EB6212C1EB2031B14884F82D
:10A35000C51180FB0250C2EB821589105B1B0133D3
:10A3600021F03F0110441943D317C3EBE0131A4403
:10A3700084F8C41184F8C3214AF65523ABF80030A1
:10A3800004F5007247E74FF0FF3384F8EC3184F8AE
:10A39000ED3184F8EE3184F8EF315223237063708D
:10A3A0006123A37084F8E7314123E37084F8E63138
:10A3B0007223002584F8E43184F8E531DAF8B838FE
:10A3C000C4F8E8314FF4F0722946201D60F08CF893
:10A3D000552384F8FE316FF05503C4F8F051C4F8EA
:10A3E000F451C4F8F85184F8FC5184F8FD5184F814
:10A3F000FF3104F500720EE74FF400720021204691
:10A4000060F072F8844B854D03CB45F6EB03238057
:10A41000022290232274A3702273A27384F82C204A
:10A42000F8230822C4F803006273C4F807106375A8
:10A43000DAF8A018DAF898385B1A2362DAF8A81864
:10A44000DAF8AC385B1A63620023E372E373637774
:10A45000A377E37784F82D3084F82E3084F82F30FA
:10A4600084F831306E4BA3616E4BC4F842303E230A
:10A470002377012384F83030802384F8403084F837
:10A48000462003CD684BC4F84700C4F84B1003CBFB
:10A490002B88A4F84F304AF65526AB78C4F8520002
:10A4A000C4F8561084F8513004F50072ABF800601F
:10A4B000B1E64FF400720021204660F015F8002E3E
:10A4C0004CD12B6C04F12008002B00F085802B6B05
:10A4D00056491122CDE900662046FFF7F5FD2B6CA9
:10A4E0001A6C002A00F087801B6B5149CDE9006689
:10A4F00040461122FFF7E8FD04F140084FF4E073F5
:10A5000075E0F91A20465AF0FFFE04F5007282E663
:10A51000FF2284F8C1214FF6FF72A4F8BF213A4A06
:10A52000013B93427FF706AFFF2384F8C5314FF616
:10A53000FF73A4F8C3311FE74FF400724146204671
:10A540005FF0D2FF04F5007265E63A4B04F5007245
:10A55000C4E900330834A242FAD15CE6D5E91025FB
:10A560003301002A45D0023B002D3FF4A1AE013B50
:10A57000AD6CF9D1A0464FF40073002D3FF498AEB6
:10A58000CDE9027B08EB0306A34608E00024CDE9F1
:10A5900000C4FFF799FDAD6CBDB1B04515D02C7965
:10A5A00029682B6B404605F11C0C112208F120088C
:10A5B000002CEBD16A792C6942F02102CDE900C46C
:10A5C000FFF782FDAD6C002DE7D15C46029FDDF800
:10A5D0000CB004F500721EE6CDE900663346DAF8E9
:10A5E0009C1808222046FFF76FFD4FF4F0736D6C46
:10A5F000C3E7013BB8E7CDE900660D493346404665
:10A600001122FFF761FD77E7FF03FB00832008823B
:10A610009755454181808080643707087037070867
:10A620003F00FF0029940E0D7C3707085C370708B0
:10A6300060370708DEADBEEF381A002048B18288C7
:10A640000449B2FA82F208684FF00043D340034352
:10A650000B607047003C014090F8DB30052B03D8BD
:10A6600090F81E31032B01D00020704790F8233161
:10A6700003F0FB03022B14BF07200020704700BF2C
:10A6800010B42A492A4A91F804367BB3D2F8144907
:10A69000A04239D0012B29D0D2F82C49844239D09C
:10A6A000022B23D0D2F84449A04235D0032B1DD031
:10A6B000D2F85C49A04231D0042B17D0D2F87449AB
:10A6C000A0422DD0052B11D0D2F88C49A04229D020
:10A6D000062B0BD0D2F8A449A04225D0072B05D0D9
:10A6E000D2F8BC49844208BF07230ED003F1010C05
:10A6F00081F804C603EB430102EBC1025DF8044B91
:10A70000C2F81409184670470023DBB218465DF8FA
:10A71000044B70470123F8E70223F6E70323F4E72D
:10A720000423F2E70523F0E70623EEE70400001018
:10A73000381A002038B5414C8C2303FB004393F8B2
:10A740008B3003B938BD94F8DCC494F8DD349C45F3
:10A750000ED003EB430204EBC20292F8E0E40EF1E8
:10A76000FF35012D4FEA430246D9BEF1030F3ED01B
:10A770008C2202FB0042A2F87C10EFF3118190239F
:10A7800083F31288B2F87C5092F87E3043EA450396
:10A790000025C9B29BB282F87E5081F31188284906
:10A7A0001A090D7882EA13225A4005B1D2431B01DF
:10A7B0009BB202F00F021A4391F80836D1F8285ADA
:10A7C0004BBB8C2303FB00440121D4F80401A847B0
:10A7D000D4F80011B4F888508A8AD4F8FC302A439F
:10A7E0008A8258601A6842F001021A6038BD5D1C06
:10A7F00005F003056545BBD01A4404EBC2020244D0
:10A8000092F8ED140029B3D08C2303FB00430122FE
:10A8100083F87E20ACE78C2303FB0044D4F884301B
:10A82000D4F800115B79086903F0FC031844042193
:10A83000A847D4F800318000988138BD381A00202C
:10A840000400001043680B4A23F0407323F4807324
:10A8500043F48073436083681A4042F002028260CE
:10A86000C36A0139C9B223F4700343EA0153C362D6
:10A87000704700BFFDF7FFC0704700BF0020FDF725
:10A88000D1BB00BF0120FDF7CDBB00BF0220FDF70B
:10A89000C9BB00BF10B1036882881A83704700BF2C
:10A8A00010B1036882885A83704700BF30B10368D3
:10A8B00082881B691A4214BF01200020704700BF24
:10A8C00010B404698269E46841681460002340247C
:10A8D000C2E90234446993630C31C2E90433C2E92A
:10A8E0000633C2E90833C2E90A33C2E90C335160C6
:10A8F00084B1C269C2E90233C2E90433C2E9063352
:10A90000C2E90833C2E90A33C2E90C33E068936351
:10A91000C2E900015DF8044B704700BFD0E90013A5
:10A9200000221A60037D1F2B07D9203B202202FA48
:10A9300003F343F01803CB607047202202FA03F3BD
:10A9400043F018038B607047F8B50468D4E904231A
:10A950005568117D1768002B40D01F295E689861EB
:10A960002CD820228A4042F01802BA601A7D196859
:10A970001F2A2DD9203A2023934043F01803CB609F
:10A9800000232B6033603368A16943F01003336008
:10A99000284655F05BFDE169304655F057FD2B68C0
:10A9A000626843F001032B60336843F001033360B6
:10A9B00093889BB243F003039380F8BD2039202293
:10A9C0008A4042F01802FA601A7D19681F2AD1D80D
:10A9D0002023934043F018038B60D1E71F29906137
:10A9E00019D820238B4043F01803BB6000232B6051
:10A9F0002B68A16943F010032B60284655F026FD13
:10AA00002B68626843F001032B6093889BB243F08C
:10AA100002039380F8BD203920238B4043F01803B4
:10AA2000FB60E3E72DE9F0477F4E07464FF0010A50
:10AA30003C6897F888806368B8881A8884F824A0EE
:10AA400022F040021204120C1A802289824221D084
:10AA50001A88764922F0380212048B424FEA1242D9
:10AA600000F0BF8001F580618B4200F0BA800146A2
:10AA7000B1F5807FA8BF4FF480710229B8BF0221D1
:10AA800091FAA1F1B1FA81F1013942EAC10292B21F
:10AA90001A802081397BA27A8A420CD01A8822F04F
:10AAA00003021204120C1A801A8892B2002900F0D4
:10AAB00095801A80A1721A8894F80C9092B242F094
:10AAC00040021A80226A9168002900F0A4804FF0A9
:10AAD000000C1432E64652F8100C8E4400EA0601CF
:10AAE00020B1B1F1805F25D0616919B352F8141C0F
:10AAF000143201EA060011B1B0F1805F1AD052F8A9
:10AB00000C1C0CF1010C0029E5D1B9F1000F11D09A
:10AB1000B8F1000F0ED0BCF1010F6FD8BEF1070FD6
:10AB20006CD80CEB8C0C4FEA8C01226A0A44127B25
:10AB3000002A63D0226A92684FF00008002A52D09F
:10AB4000B8F1000F02D098F80C2022B1BA6812B107
:10AB5000116892884A83226A1568226A5168226ABB
:10AB60009268501E9AB12DB32A4612F801EB154691
:10AB70001A899207FCD5A3F80CE01A89D207FCD5F4
:10AB80009A8992B209B101F8012B0138EBD2236AFC
:10AB90001B7BE3B9236A1B697BB1236AD7F8940056
:10ABA0001B69984701280DD0022806D10023236293
:10ABB000BDE8F0874FF0FF0EDAE7D4F82080236A73
:10ABC00014332362236A9B686BB16368B8E7BB6880
:10ABD000002BDFD01A689B881383DBE742F0030267
:10ABE00067E7410844E7236A1B68DBB1236AD3E9BE
:10ABF000007222620022C3E9002219E738680021AE
:10AC00005DF0B8FBBB6813B11A689B885383384664
:10AC1000BDE8F04798E6B9F1000F8BD0B8F1000F0E
:10AC200083D187E72362C3E70000FFFF00380040BD
:10AC300038B52C4AD0F8E0305268D0F8D810044625
:10AC400073B1501A83420BDC94F8D030C4F8D8208A
:10AC5000012B10D0D4F8D4300133C4F8D43038BD2F
:10AC6000D4F8E430C4F8D8200B44C4F8DC3094F8AD
:10AC7000D030012BEED16168201D04F1E805EFF31F
:10AC8000118C102383F3128863681B6A0BB3D4F80A
:10AC9000F0302A461BB1D3691432002BFBD10B6A6A
:10ACA0006BB1996839B9934209D0196829B15B68C9
:10ACB00099680029F7D01433F3E7C3E900055FFA78
:10ACC0008CFC8CF31188D4F8D4300133C4F8D43020
:10ACD00038BD0D625FFA8CFC8CF31188FFF7A2FE81
:10ACE000B8E700BF001000E02DE9F041826992F85A
:10ACF000DC30012B8AB005464CD0023B012B54D8E6
:10AD000092F84C31D2F89C202E4C63F07F031370E4
:10AD10008769D7F8A030D7F8108003F1010E0FCC67
:10AD2000EC46ACE80F00D7F89C30CDE9003E0FCCE4
:10AD3000ACE80F0094E8030007F110068CE803006C
:10AD4000EFF31180102383F312883B691B6A002BF9
:10AD50002FD0029B6A461BB1D3691432002BFBD162
:10AD6000D8F8203073B1996839B99A420AD0196875
:10AD700029B15B6899680029F7D01433F3E71E60A6
:10AD8000C3F804D0C0B280F31188AA6911690B6AB4
:10AD9000002BFCD1D2F8A0305A8852BAEA819A88A6
:10ADA00052BA2A82DB885BBA6B8201200AB0BDE806
:10ADB000F081C8F820D0C0B280F311883046FFF788
:10ADC00031FEE2E714AE06082DE9F04190F8DC30E0
:10ADD000D0F8A050012B8AB0044673D041D9023B71
:10ADE000012B6BD890F84D31D0F89C205E4E63F06B
:10ADF0007F031370D0F8A030D0F8108003F1010E5B
:10AE000000F110070FCEEC46ACE80F00D4F89C30F0
:10AE1000CDE9003E0FCEACE80F0096E803008CE8C9
:10AE20000300EFF31180102383F3128823691B6A58
:10AE3000002B00F08F80029B6A461BB1D36914324D
:10AE4000002BFBD1D8F820302BB3996839B9934245
:10AE500021D01968E1B15B6899680029F7D01433F3
:10AE6000F3E7D0F89C304FF0FF321A605A609A60D6
:10AE7000DA60D0F8E0300522B3F57A7FC0F8F02030
:10AE80003BD8032380F8DC3001200AB0BDE8F08114
:10AE90001F60C3F804D0C0B280F311882269136A1E
:10AEA000002BFCD16B885BBAA4F8D030AB885BBABE
:10AEB000A4F8D230EB885BBAA4F8D43001200AB0F1
:10AEC000BDE8F08190F84C2190F84D319B1A5B1051
:10AED0000133DBB205EB430235F813305BBAA0F85F
:10AEE000D03053885BBAA0F8D23093885BBAA0F810
:10AEF000D43001200AB0BDE8F08103691A7B2AB37F
:10AF00005B691BB390F8983003B390F84C31D0F8DC
:10AF10009C20C4F8A40063F07F03137090F84C11D8
:10AF200090F84D31D0F8A0201048C4F804015B1A05
:10AF300007330121C4F8FC30D4F89C3084F80011A8
:10AF40000A44C4E93D3284F8DC10B7E7022384F8F0
:10AF5000DC30B3E7C8F820D0C0B280F3118838469F
:10AF6000FFF760FD9AE700BF14AE060801800008F5
:10AF700008B51D200FF0C8FE08B183794BB11E2023
:10AF80000FF0C2FE08B1837903B108BD5523C38019
:10AF900008BD5523C380F2E7D3B2012B24D870B586
:10AFA00002EB4202114C4FEA820E23460EF10805D5
:10AFB000002204E00132152A03F11C0312D093F899
:10AFC00000C08445F6D193F801C08C45F2D15E599A
:10AFD000002EEFD0C2EBC2020EF1040303EB82039A
:10AFE000E01870BD002070BD002070473CAE060820
:10AFF00010B40C4C002304F6FC2C01E0152B0CD0F3
:10B0000003EB430201331CF802108142F6D11444D1
:10B0100094F9FE0A5DF8044B70474FF0FF305DF87D
:10B02000044B7047381A0020D3B2022B22D870B5D7
:10B0300002EB4202104C4FEA820E23460EF10C0541
:10B04000002204E00132172A03F12C0310D01E68FD
:10B05000B042F7D193F804C08C45F3D15E59002E6D
:10B06000F0D02C210EF1080301FB0233E01870BD73
:10B07000002070BD00207047FCA80608002839D0C9
:10B0800030B51D4D90F804C0002305F6FC2401E006
:10B09000152B2DD003EB43020133A15C6145F7D1A1
:10B0A0001544046895F9FE3A90F805E0DAB2022AF0
:10B0B0001ED803EB430311484FEA830C0CF10C0537
:10B0C0000346002204E00132172A03F12C030FD0BB
:10B0D00019688C42F7D119797145F4D15959002971
:10B0E000F1D02C210CF1080301FB0233184430BDD0
:10B0F000002030BD704700BF381A0020FCA80608A9
:10B100000348D0F8F0300BB1E0301847704700BF6B
:10B11000880100200348D0F8143113B100F5827083
:10B1200018477047880100200348D0F8383113B120
:10B1300000F5947018477047880100200348D0F844
:10B140005C3113B100F5A6701847704788010020E4
:10B150000348D0F8803113B100F5B8701847704734
:10B16000880100200348D0F8A43113B100F5CA705B
:10B1700018477047880100200348D0F8C83113B140
:10B1800000F5DC7018477047880100200348D0F8AC
:10B19000EC3113B100F5EE701847704788010020BC
:10B1A0000348D0F8103213B100F50070184770470B
:10B1B000880100200348D0F8343213B100F509703B
:10B1C00018477047880100200348D0F8583213B15F
:10B1D00000F5127018477047880100200348D0F826
:10B1E0007C3213B100F51B701847704788010020AE
:10B1F0000348D0F8A03213B100F524701847704707
:10B20000880100200348D0F8C43213B100F52D7036
:10B2100018477047880100200348D0F8E83213B17E
:10B2200000F5367018477047880100200348D0F8B1
:10B230000C3313B100F53F701847704788010020A8
:10B24000094B0A4A013800EBC00003EB80030848B1
:10B25000D3F8E030116B834214BF4FF480034FF4F6
:10B2600000130B431363704788010020003802402D
:10B2700000600240F0B401383B4C3C4E3C4D00EBCA
:10B28000C00C04EB8C0CDCF8E070AF4214BF4FF440
:10B2900080054FF40015376B3D433563354DCCF8D1
:10B2A000F830DCF8E430CCF8F010AB424FEAC001E3
:10B2B0003FD005F58065AB423BD0A5F57A75AB4232
:10B2C00046D005F58065AB4242D0A5F57A75AB4214
:10B2D00040D005F58065AB423CD0A5F57A75AB4210
:10B2E00034D005F58065AB4230D0A5F57A75AB4218
:10B2F00032D005F58065AB422ED0A5F57A75AB420C
:10B300002CD005F58065AB4228D0A5F57A75AB4207
:10B3100026D005F58065AB4222D0A5F57A75AB4203
:10B3200020D0154D06F532563836B34218BF0025E9
:10B3300000E0124D0B1804EB8304C2F3871194F85C
:10B34000F500C4F80051F0BC5AF02CB80C4DF1E7F0
:10B350000C4DEFE70C4DEDE70C4DEBE70C4DE9E73D
:10B360000C4DE7E7044DE5E7880100200038024076
:10B370000060024010600240008000282080001021
:10B38000008000180088001000802010208000201D
:10B3900000880020008020200C4A0D49034693427B
:10B3A000D1F8B00710D0A2F5806293420CD002F51C
:10B3B0008042934208D002F58062934204D002F5A5
:10B3C0008062934218BF4008704700BF00040140EC
:10B3D000381A0020800AA0F58010522808D8054BA2
:10B3E000034493F8F4330D2B02D8034AD056704728
:10B3F00000207047FCA806085C38070809494B6C18
:10B4000010B5094C43F480434B644022002104F6FC
:10B41000C8005FF069F84FF0FF33C4F83C3BC4F854
:10B420003F3B10BD00380240381A00200120FDF7D4
:10B4300081BD00BF0220FDF77DBD00BF0420FDF7E8
:10B4400079BD00BF0820FDF775BD00BF1020FDF7D6
:10B4500071BD00BF4FF47870FDF76CBD4FF47C40B8
:10B46000FDF768BD30B50C4683B00546D8B103681A
:10B4700003F13F4303F57E039B0A0C4A134493F800
:10B480008C075AF079F8C4F34112C4F30013CDE9E4
:10B490000032C4F38103A988286804F003025BF03A
:10B4A00065FB03B030BD4FF0FF33E6E7FCA80608AC
:10B4B00000B1D7E7704700BF2DE9F0410269167867
:10B4C000012E84B004460D4616D10B79013B137151
:10B4D0004B79002B08BF682300F1100703754FF06C
:10B4E000000833460DF10502752138468DF80580B8
:10B4F0000EF016FE78B9226902231370EE7836B189
:10B5000004F11007A97838460FF066F928BB00202F
:10B5100004B0BDE8F08120695CF054F83346414640
:10B520000DF1060238460EF0FBFD9DF8063003F0E3
:10B530007E038DF8063008B1682B41D09DF80530A8
:10B5400003F07E03682B8DF805303CD0702B04BFD0
:10B55000042384F8D8300120DAE730460FF0D4FB1A
:10B56000A0612B7801330646DBB210B1C3712223F0
:10B57000837130460921FFF79BFF3046FFF78AF9B8
:10B580002F4AD2F87438632BFBD92E482E4E0FF079
:10B59000F9F82E4BA08202E056F8043F53B138462A
:10B5A000984703460028F7D0206984F8D8305CF02B
:10B5B00009F8D0E7E8780FF0A7FB0FF005FCA6E745
:10B5C00084F8D860C7E706230222194684F8D820F9
:10B5D000384602AA0EF0A4FD9DF80D309DF80B2010
:10B5E0009DF8091090B19B00520002F0020203F096
:10B5F0000403134301F00102134307D0032B18D8AF
:10B60000012B12D1002384F8D930A4E701230DF1D6
:10B6100007020C2138460EF083FD9DF8073050B12B
:10B6200013F00F0307D0042BECD0012384F8D9309A
:10B6300091E7072BF9D0032010F060FE8BE700BFE5
:10B64000381A002040420F0090B0060821C00508BB
:10B6500038B50A4BD3F8443B03440546987D0FF0B8
:10B6600053FB044648B12E2301358371C571012176
:10B67000FFF71EFF2368A2885A8338BD381A0020BE
:10B680002DE9F84F90F8213144F23B32A0F84C21DB
:10B690000BB9BDE8F88F1D09013D052D044603F0E7
:10B6A0000F0377D8424F07EB4502B2F8B40740FAD0
:10B6B00003F2D2076ED5012202FA03F3013B3D44A7
:10B6C00018405EF073FFDFF8FC9095F8C0A7394D85
:10B6D000824409F6483B0BEBCA0026238288C380CC
:10B6E000B2FA82F2C2F11F06BB19296893F8C88723
:10B6F000314B44F80C3F4FF00047D74009EB86022E
:10B7000021EA0701C2F8C848296000216F61FFF7EC
:10B71000A9FE5BF83A3006F0FC0101F1804101F529
:10B720009C3103F13F4303F57E0306F0030688686E
:10B73000B600C3F387234FF00F0CB3400CFA06F6A4
:10B7400020EA06008860886803438B602B68FC430E
:10B7500023402B606B6823406B60184BD3F8001CB0
:10B760003943C3F8001CA9682140A960E9680C406E
:10B77000EC60D3F8081C09EB08023943C3F8081C35
:10B7800092F83C3BF02B09D80A4A13683B431360FC
:10B79000BDE8F88F084BE360BDE8F88F0849F02357
:10B7A00011F8080082F83C3B032159F0FBFDEBE760
:10B7B000FCA80608003C014031AC00080030014004
:10B7C0006C380708381A002070B50F4CD4F83C6666
:10B7D000002E16DD04F58164002504E00135B54234
:10B7E00004F120040DD0237F002BF7D0E06800285F
:10B7F000F4D0217D0135FFF735FEB54204F1200478
:10B80000F1D1012070BD00BF04000010F8B5037D28
:10B81000856902681F2B044648D95068203B2021C7
:10B820009940084234D0D16010219940D1605168CC
:10B83000D940CE077CD4EFF31183502282F31288D3
:10B840002A6C1168C90754D4516889B279B9D5E90D
:10B85000096086424AD0AF690744D76080B26CD98C
:10B86000301A80B250600021AE6285F86410116811
:10B8700041F00101DBB2116083F3118895F8643067
:10B88000002B3DD1237D22681F2B194614D9203B64
:10B89000506808219940084200D0D16050680421C6
:10B8A00001FA03F3184200D0D360F8BD16682020D7
:10B8B000984006420DD11946106808238B40184263
:10B8C00000D09360106804238B401842EDD0936041
:10B8D000F8BD10219940906091601168D940C80767
:10B8E000A9D5012101FA03F39360A4E7012285F8A9
:10B8F0006420DBB283F3118895F86430002BC1D04B
:10B9000095F87C30002BBDD195F871000FF0FCF953
:10B910002A6E938923F008031B0401211B0C9381D9
:10B9200085F87C100028ADD02021FFF79BFDA9E70A
:10B93000012101FA03F3D3607DE70E462969091A54
:10B9400089B251608FE700BFF0B5054683B0A0B360
:10B9500007681D4B144607F13F4202F57E0203EBD8
:10B9600092230E4693F88C0759F006FEA988B1FA87
:10B9700081F3C3F11F03C3F3CC0207EB820203F090
:10B980000703156A4FF00F0C9B009C400CFA03F361
:10B9900025EA03031362136A1C431462C6F30013FF
:10B9A000C6F34112CDE900323846C6F3810306F0F2
:10B9B00003025BF0DBF803B0F0BD034B93F88B0799
:10B9C00059F0DAFD2B68FFDEFCA8060800B1BBE7E2
:10B9D000704700BF2DE9F047684E06EB0013D3F81F
:10B9E000484E002C76D093F8507E05464FEA00185A
:10B9F000384659F0C1FD07F01F027F090123032FCC
:10BA000003FA02F372D0042F6BD0022F64D006EB3E
:10BA10000803013593F84C0E0FF076F9EDB282462B
:10BA200010B11223C571837106EB080393F84D0E14
:10BA30000FF06AF9814610B11323C571837106EBCB
:10BA4000080393F84E0E0FF05FF9074610B1142368
:10BA5000C571837106EB0803504693F84F5E4A2187
:10BA60002A46FFF7B3FF2A4648462A21FFF7AEFFD2
:10BA70002A460A213846FFF7A9FF414B9C423AD09B
:10BA8000404B9C4242D0404B9C424AD03F4B9C4250
:10BA900052D03F4B9C425AD03E4B9C4262D0A3882E
:10BAA00023F003031B041B0CA380238803F44153DE
:10BAB00043F4457343F003032380A38B23F4006313
:10BAC0001B041B0C0722A383228223889BB243F012
:10BAD00040032380BDE8F0872F4A516A0B4353622D
:10BAE00095E72D4A11690B43136190E72A4A116AC1
:10BAF0000B4313628BE703F584335A6A42F4805296
:10BB00005A625A6A22F480525A62C8E703F5003337
:10BB10001A6A42F480421A621A6A22F480421A6255
:10BB2000BDE703F5FE331A6A42F400421A621A6A4C
:10BB300022F400421A62B2E703F582335A6A42F4F1
:10BB400000525A625A6A22F400525A62A7E703F579
:10BB500068435A6A42F480125A625A6A22F4801286
:10BB60005A629CE703F564435A6A42F400125A622F
:10BB70005A6A22F400125A6291E700BF381A002074
:10BB80000030014000380040003C004000340140DB
:10BB9000005001400054014000380240431C00F0B6
:10BBA00038812DE9F04F00EB8003C64F87B057F87E
:10BBB000339082000192054607EBC302B9F1000FF2
:10BBC00003D0946824B1A37913B107B0BDE8F08F16
:10BBD000AB002B4407EBC303D3F80CA0BAF1000F62
:10BBE00003D09AF80630002BEFD1AB002B44DB00DA
:10BBF0001833F8180022691CD9F80480FA50C9B229
:10BC0000C0E90122C260002C00F082811523E1719D
:10BC1000A37199F81800BAF1000F00F0678116239C
:10BC20008AF806308AF8071059F0A6FCB8F80430F4
:10BC300023F440731B041B0CA8F80430002C00F004
:10BC40004F812268A188DAF800301183BAF8042005
:10BC50001A8311212046FFF705FC11215046FFF7FA
:10BC600001FC09264FF0330B2CB9C9E0BBF1010BE5
:10BC700008D00FF077FF2268A188136919424FF0AE
:10BC80000A00F3D0518305200FF06CFF2368A288CF
:10BC90001A8305200FF066FF013EE3D1002C00F06F
:10BCA000D8802368A2885A8305200FF05BFFBAF181
:10BCB000000F00F0F080DAF80030BAF804205A8360
:10BCC00005200FF04FFF2368A2881A8305200FF08C
:10BCD00049FF019BDAF80010BAF804002B4407EB87
:10BCE000C3039A7C0883002A40F0948012211A7CB6
:10BCF0002046FFF729FE1221019B2B4407EBC303CB
:10BD00005A7C5046FFF720FE6F4B984500F011819A
:10BD10006E4B984500F018816D4B984500F01F81DF
:10BD2000019B2B4407EBC3034FF47A729C8AB8F84B
:10BD3000043023F440731B041B0CA8F80430B8F83B
:10BD400000309BB243F00103A8F80030B8F804506B
:10BD500002A802FB04F425F03F0554F097FA04987A
:10BD60005C4B2D04A3FB00232D0C45EA9345A8F85A
:10BD70000450B8F8002022F001021204120CA8F8B6
:10BD80000020554A990C94420B464ADC6200B0FBF5
:10BD9000F2F292B20133042A38BF0422A8F820300C
:10BDA000A8F81C20B8F800309BB243F00103A8F8B3
:10BDB0000030B8F8003023F4816323F002031B0441
:10BDC0001B0C4FF4804243F48063A8F80030A8F8BD
:10BDD0000820B8F8003023F080031B041B0CA8F8DF
:10BDE000003099F81A00002159F0DCFA99F819008E
:10BDF000002107B0BDE8F04F59F0D4BA0FF0B2FE01
:10BE0000BBF1010B4FF00A00F8D105200FF0AAFE9C
:10BE10003FE7704732211A7C2046FFF795FD32211B
:10BE20006AE704EB4404B0FBF4F082B2C0F30B0009
:10BE300008B942F001024FF4967301FB03F327495E
:10BE4000A1FB03139B09013342F40042A8F8203000
:10BE5000A6E705200FF086FEBAF1000F00F08D80F6
:10BE6000DAF80030BAF804205A8305200FF07AFE81
:10BE700005200FF077FE019BDAF800102B4407EB4A
:10BE8000C3039A7C002A5A7CBAF804300B8314BF8F
:10BE90003221122135E705200FF064FE2368A288C5
:10BEA0001A8305200FF05EFE019B2B4407EBC303B2
:10BEB0009A7C002A5ED01A7C32212046FFF744FD8E
:10BEC00022E700BF381A002000540040005800400C
:10BED000005C004083DE1B43A0860100D34D62104E
:10BEE000DAF80030BAF804201A83B6E659F044FBB9
:10BEF000B8F80430A28823F440731B041B0CA8F884
:10BF00000430236811211A832046FFF7ABFAA8E614
:10BF100099F81800BAF1000F7FF481AE59F02CFBAC
:10BF2000B8F8043023F440731B041B0CA8F8043049
:10BF300097E603F5F2331A6A42F400121A621A6A9B
:10BF400022F400121A62EBE603F5F0331A6A42F4A7
:10BF500080021A621A6A22F480021A62E0E603F58D
:10BF6000EE331A6A42F400021A621A6A22F40002DC
:10BF70001A62D5E61A7C12219FE705200FF0F2FD28
:10BF800005200FF0EFFDBFE62DE9F84307460FF05F
:10BF900049FDDFF84C8007EB8709044608EBC9052B
:10BFA00042F20F7604E00FF03DFD001BB0420ADCC8
:10BFB0006B7E002BF7D108EBC90898F8180080F0C9
:10BFC0000100BDE8F883B8F8783E013338469BB2EB
:10BFD000A8F8783EFFF7E2FD0020BDE8F88300BF37
:10BFE000381A002010B582B004468DF807300DF1E4
:10BFF000070359F055FA08B902B010BD2046FFF703
:10C00000C3FF02B010BD00BFB0F1FF3F65D02DE906
:10C01000F04F022883B0044613DC314E984600EB03
:10C02000800306EBC305DB00D5F804A00093BAF14A
:10C03000000F06D08946697E934601F0FF02019207
:10C0400019B1002003B0BDE8F08F0FF0EBFC009BAE
:10C05000019A20334FEA4901C9B20746F018A97680
:10C060004FF0010C0C9985F81BB06A7785F81EC05B
:10C07000F150416085F81C8085F819C02A76BAF81D
:10C08000043099051DD4BAF80030DA0512D442F212
:10C090000F7504E00FF0C6FCC31BAB4213DCBAF80B
:10C0A00000309B05F6D4BAF800309BB243F480739D
:10C0B000AAF80030BAF804309BB243F44073AAF8EF
:10C0C00004300120BEE7B6F8783E01339BB220462B
:10C0D000A6F8783EFFF762FDB3E70020704700BF87
:10C0E000381A0020F0B585692B6995F84C2119782C
:10C0F000012997B0044646D0022902D0002017B08B
:10C10000F0BD196A0029F9D162F07F028DF80F2085
:10C110000DF10F0206920122CDE90712CDE90A11B5
:10C120008DF824108DF838208DF84C200F91129145
:10C130001491062204A9CDE90C1200200021CDE9BA
:10C14000100105F11000EFF31186102282F312881E
:10C150002A69126A002A3FD0089A06AF002A43D003
:10C160003A46D16914320029FBD11B6A63B399683E
:10C1700039B99A4228D0196821B35B6899680029B7
:10C18000F7D01433F3E793F90460297D04AB0093EF
:10C1900030460623FFF738FF0028AFD03046FFF7C0
:10C1A000F3FE0028AAD0BDF81010BDF81220BDF88B
:10C1B000143049BA52BA5BBA0120E181228263820B
:10C1C00017B0F0BDC3E90007F6B286F311882A69FB
:10C1D000136A002BFCD1E6E706AAF6B21A6286F3D0
:10C1E0001188FEF71FFCF2E73A46BEE770B5036917
:10C1F00090F84D211978012996B0044645D00229BE
:10C2000002D0002016B070BD196A0029F9D162F081
:10C210007F029FED397B8DF80F200DF10F02069202
:10C220000122CDE90712CDE90A118DF824108DF80D
:10C2300038208DF84C200F9112911491062204A9F8
:10C24000CDE90C128DED107B1030EFF3118510222B
:10C2500082F312882269126A002A42D0089A06AE36
:10C26000002A46D03246D16914320029FBD11B6A1C
:10C270007BB3996839B99A422BD0196839B35B6896
:10C2800099680029F7D01433F3E793F90450017D3E
:10C2900004AB009328460623FFF7B6FE0028B0D073
:10C2A0002846FFF771FE0028ABD0BDF81010BDF88E
:10C2B0001220BDF8143049BA52BA5BBA0120A4F872
:10C2C000D010A4F8D220A4F8D43016B070BDC3E9C1
:10C2D0000006EDB285F311882269136A002BFCD1A8
:10C2E000E3E706AA1A62EDB285F31188FEF79AFB1E
:10C2F000F2E73246BBE700BF00000000000000008C
:10C30000E0B500EB8003274E06EBC30256F833304E
:10C310005D68AB8A84B09BB20393039B13F4706F88
:10C320001CBF01231376039B13F4E06F4FEA8007D1
:10C330000CD1AB8A074423F4706306EBC7061B04D9
:10C340001B0C0022AB82727604B0E0BD2B8BAB8855
:10C3500023F480631B041B0CAB80039B9A05E8D479
:10C360002B889B05E5D42B88D9050FD52B88DA05BA
:10C37000FCD42B889BB243F400732B802B889B0545
:10C38000FCD40190FFF70AFC0198D2E72B889BB2FE
:10C3900043F400732B80AB8823F440731B041B0C05
:10C3A000AB80C6E7381A00200020A9E70120A7E7E4
:10C3B0000220A5E770B590F871301C09013C052CEE
:10C3C0000FD81A4E06EB44020546B2F8B40703F044
:10C3D0000F0340FA03F2D20703D595F87C20012A17
:10C3E00001D0012070BD9A40013A104026445EF011
:10C3F000DDF896F8C0370E4A034402EBC30452F846
:10C400003320A38810691840ECD0EB6E002285F829
:10C410007C2093F8212002212046FFF795FA2A6E0E
:10C4200093899BB243F008039381DAE7FCA80608DE
:10C4300080250020094BD3F87C2ED3F8801E40F2D3
:10C440002A40002350604B620B889BB243F00103EB
:10C450000B80136843F0010313607047381A002003
:10C460001D4B1E48196C1E4A10B441F08051012426
:10C47000196404625321FF24CA205462506251623D
:10C480005B6FDB0085B017D41648042300210291AE
:10C490000290029A1A440292029A04331C2B1160F1
:10C4A000F5D103910390039B0393039B0E4A1A60FB
:10C4B00005B05DF8044B70470A4B002201920193CE
:10C4C000019B0193019A084B12689A42DCD105B096
:10C4D0005DF8044B704700BF0038024000000E4278
:10C4E00000280040502800403166654230B5154CA8
:10C4F000154D85B00139002389B2A042ADF80C304A
:10C50000ADF806308DF80E300291D5F8B0370FD067
:10C510000E4988420CD001F58041884208D001F5CF
:10C520008061884204D001F58061884218BF5B08B1
:10C53000B3FBF2F301A9013BADF8043054F028F845
:10C5400005B030BD00040140381A00200000014051
:10C550002DE9F043046ED0F80890A38923F400532A
:10C560001B0406461B0CA38147793579C7F380006D
:10C5700005F001083A024FEA880315F002054FEA78
:10C58000003002F4806218BF43F0080302431A43EC
:10C59000238A39039BB223F4405301F40051194319
:10C5A0002182A38923F4B05323F00C031B041B0C3A
:10C5B0001343A381A38A23F440731B041B0C91B083
:10C5C000A38201A853F062FE814B9C4205D003F583
:10C5D00080639C4201D0039B00E0049BA2897D49BB
:10C5E000A089120403EB83034CBF4FEA49094FEAC9
:10C5F000890903EB8303B3FBF9F3A1FB03C25209DF
:10C600004FF0640C00040CFB12334FEA021200F1ED
:10C6100090801B013233A1FB0313C3F343131A436E
:10C6200092B2FB07228100F190803807A38A7AD565
:10C630009BB243F00803A382A3899BB243F4005347
:10C64000A381B8F1000F30D0F76B002F00F0978076
:10C650000023CDE90833CDE90C33CDE90E33049343
:10C660000693736C0193F36D0293F36805937369FA
:10C6700003934FF480714FF48033CDE90A133846A9
:10C680004FF48063079353F04BFE01A9384653F0F3
:10C69000DDFE3B6843F001033B60A38A9BB243F09D
:10C6A0004003A3827B689BB27365002D33D0376C47
:10C6B000002F70D0B36C0193B36D0293336905936F
:10C6C000402304934FF48033002538460B934FF4F6
:10C6D00080630793CDE90855CDE90C55CDE90E559A
:10C6E000039506950A9553F01BFE01A9384653F0B1
:10C6F000ADFE7B6943F080037B613B6843F016032A
:10C700003B607D60A38A9BB243F08003A382E36811
:10C7100043F04003E360A3899BB243F40053A38139
:10C7200011B0BDE8F08323F008031B041B0CA382A7
:10C7300082E7DB003233A1FB0313C3F342131A4336
:10C7400092B2FB0722817FF570AF214B9C4229D02A
:10C75000A3F54C439C4223D003F580639C4223D134
:10C7600002221D4BD3F8443B1344987D0EF0CCFAC3
:10C7700000283FF45AAF036882881A8355E74FF6C2
:10C78000DF732380E36843F02003E360E36843F052
:10C790001003E36089E7E36843F08003E360B6E7F2
:10C7A0000122DEE70022DCE703F580639C4201D131
:10C7B0000322D6E703F580639C4206D003F5444389
:10C7C0009C427FF432AF0522CBE70422C9E700BFC9
:10C7D000001001401F85EB51381A00202DE9F84F59
:10C7E000494C04EB8004D4F82C4A002C7BD0E56E35
:10C7F000002D74D01F46454BA16023609146D5E9BA
:10C800000A32C4E905236B8EE3602B8E23616B68CB
:10C8100023663F4BA366064620460EF0D7FB94F8EE
:10C8200071000EF071FA804695F8200094F870B00F
:10C83000A246002850D102233A0784F87C3036D42F
:10C8400019F0020F10D0B8F1000F0DD00B2388F8AB
:10C850000630731C88F807303B06404645D495F8EF
:10C8600021202221FFF770F819F0010F04D1E36BAA
:10C870009BB15046BDE8F88F58460EF045FA0028A7
:10C88000F5D00C220136C671827195F82120222143
:10C89000FFF75AF8E36B002BEBD195F8241095F8CD
:10C8A0002200890958F07EFD5046BDE8F88F013618
:10C8B000F6B2B8F1000FDAD00B2317F0500F88F85A
:10C8C000076088F8063095F82120404614BF022101
:10C8D0001221FFF739F8CAE758F04EFEABE7AA4637
:10C8E0005046BDE8F88FA246C3E7226E938923F035
:10C8F00008031B0401211B0C938184F87C10202168
:10C90000FEF7B0FDB0E700BF04000010D4B0060889
:10C91000B5C30008BFF34F8F0549064BCA6802F440
:10C92000E0621343CB60BFF34F8F00BFFDE700BF52
:10C9300000ED00E00400FA0508B572B6FFF7EAFF63
:10C9400000B583B00D49002200920091009B0C338A
:10C950000093009B1B68012B02D003B05DF804FB21
:10C9600001920191019B06490C330193019B1A60CE
:10C970000B6883F308884B689847FEE7502800400F
:10C980000000FF1F38B5FFF76BFDFFF7D9FF01204F
:10C9900053F0EEFD6D4A936823F0030393609368B0
:10C9A00013F00C0FFBD113686849A0B943F00103E1
:10C9B000136041F2883302E0013B00F0C5800A6851
:10C9C0009507F9D5624C00220823C4F8842EC4F8D8
:10C9D000883E02251EE043F48033136041F2883321
:10C9E00002E0013B00F0B0800A689403F9D5584C8E
:10C9F000584B594DB0FBF5F5B0FBF3F0B5EB400FDC
:10CA000018BF28464FF48003C4F8843EC4F8880E4B
:10CA1000B5FBF0F50220C4F88C5E53F0A9FD0328A5
:10CA20000DD84E4B03EBC0039988DA88C4F8941EE6
:10CA30005B88C4F8982EB3FBF5F3C4F8903E434BE3
:10CA400047491A6C42F080521A640A6842F4404224
:10CA50000A609A689A609A6842F400429A609A68FA
:10CA600042F4A0529A60D4F8841ED4F8882E0A4367
:10CA7000D4F8901E42EA8112D4F8981E42EA01626C
:10CA8000D4F8941E4908013942EA01425A601A68F2
:10CA900042F080721A601A689201FCD5314A40F265
:10CAA00005711160996821F003019960996841F05E
:10CAB0000201A2F580629960936803F00C03082BD1
:10CAC000FAD12949D823B3FBF5F39B0143F0005376
:10CAD0000120C2F884308866FBF75AFF234D1B4BB8
:10CAE000234AEA60234A596FAA605A6B224922F00E
:10CAF00080025A635A6F42F080725A671A6B42F48E
:10CB0000CE021A635A6B5A639A6B9A631A6C0A4381
:10CB10001A64596C194A0A435A640EF037FF184ACE
:10CB2000D4F8B037A2FB03239B09013BB3F1807F0C
:10CB300009D24FF0E022F02053610021072385F84D
:10CB400023009161136138BD014CC7E700380240F2
:10CB5000381A002080841E0040420F0004B10608ED
:10CB600000700040003C02400000474200ED00E041
:10CB70000005FA0500000020FFC9FE36335F0700FC
:10CB8000D34D621030B504682A482B4D85B0013969
:10CB9000002389B28442ADF80C30ADF806308DF830
:10CBA0000E300291D5F8B0370FD024498C420CD00A
:10CBB00001F580418C4208D001F580618C4204D09F
:10CBC00001F580618C4218BF5B08B3FBF2F301A949
:10CBD000013B2046ADF8043053F0DAFC22881848B7
:10CBE00092B242F00102002300F62801228051F89F
:10CBF0003320944208D001330E2BF8D1002005B029
:10CC0000BDE83040FBF72ABE00EBC30090F82D488A
:10CC10002046FBF723FE1B2C05D02E2C08BF2C2012
:10CC2000EDD005B030BD192005B0BDE83040FBF7B0
:10CC300015BE00BF00040140381A0020000001406A
:10CC4000FCA8060870B50468A30AA3F58013522B4C
:10CC500050D8364D2B4493F8F4C3BCF10D0F49D88E
:10CC60004379022023FA00F50CEB8C03A8400CEB6F
:10CC700043031FFA80FE2B44002949D0A5892C4884
:10CC8000ADB200EB830645EA0E05C6F84815C6F8B6
:10CC90005825A581EFF31186502383F312882C22A7
:10CCA00002FB0C03D3F8441561B3C3F86815214B9C
:10CCB00004310CEB8C02204D0CEB4202920005EB90
:10CCC000020E1032134453F8042F0AB10A60111DEA
:10CCD0007345F8D10022F3B20A6083F311882C2344
:10CCE00003FB0C00D0F868352BB1A3899BB243F04D
:10CCF0000103A38170BDA38923F001031B041B0C56
:10CD0000A38170BD0B4B02FB0C3202F12401D0E772
:10CD1000A08980B220EA0E00A081054800EB8305BF
:10CD2000C5F84815C5F85825B4E700BFFCA80608A3
:10CD3000381A00207C1F00209C1F00200149024857
:10CD4000FCF716B97C1F00200000014010B5064C0E
:10CD5000064804F24451FCF70BF904F5DA61044883
:10CD6000BDE81040FCF704B9381A0020000001406B
:10CD70000044014002494FF08040FCF7F9B800BF81
:10CD8000A81F002001490248FCF7F2B8D41F002078
:10CD90000004004001490248FCF7EAB800200020E6
:10CDA0000008004001490248FCF7E2B82C200020AE
:10CDB000000C004001490248FCF7DAB8B02000201E
:10CDC0000004014010B5064C064804F5CF61FCF79D
:10CDD000CFF804F254710448BDE81040FCF7C8B81D
:10CDE000381A002000040140001C0040014902489C
:10CDF000FCF7BEB8DC200020004001400149024899
:10CE0000FCF7B6B83421002000480140014902482F
:10CE1000FCF7AEB86021002000180040014902482C
:10CE2000FCF7A6B8B8210020002000402DE9F04111
:10CE30001348144D4FF41A7200215DF055FB4FF06A
:10CE40000008A5F69807A5F1700440F2222655F8CF
:10CE50002810002354F8332091420BD001330E2BBD
:10CE6000F8D1002008F1070858F086FBB045EED154
:10CE7000BDE8F08107EBC30393F82C08F2E700BF8D
:10CE80007C1F002094B1060810B50C2935D8DFE8C6
:10CE900001F091343434633434340734343435009D
:10CEA000038C5488B2F80CE023F480731B041B0C31
:10CEB0000384038CB0F804C0818B21F073014EEA27
:10CEC000040E0904148823F40073090C1B04214385
:10CED000764C1B0C43EA0E23A0421FFA8CFC9BB23B
:10CEE00000F0948004F58064A04200F08F80926886
:10CEF000A0F804C08183C263038410BD038C5488EE
:10CF0000B2F80CE023F480531B041B0C0384038C45
:10CF1000B0F804C0818B21F4E6414EEA040E090406
:10CF2000148823F40053090C41EA04211B045F4CCC
:10CF30001B0C43EA0E33A0421FFA8CFC9BB289B251
:10CF40007ED004F58064A0427AD09268A0F804C034
:10CF500081830264038410BD038C5488B2F80CE012
:10CF600023F010031B041B0C0384038CB0F804C0D3
:10CF7000018B21F4E6414EEA040E0904148823F0E3
:10CF80002003090C41EA04211B04484C1B0C43EA12
:10CF90000E13A0421FFA8CFC9BB289B26CD004F530
:10CFA0008064A04268D09268A0F804C001838263C4
:10CFB000038410BD038C5488B2F80CE023F0010305
:10CFC0001B041B0C0384038CB0F804C0018B21F0FC
:10CFD00073014EEA040E0904148823F00203090CBD
:10CFE0001B042143314C1B0C43EA0E03A0421FFAE1
:10CFF0008CFC9BB22CD004F58064A04228D09268AF
:10D00000A0F804C001834263038410BDD489B2F840
:10D0100010E023F4006343EA0423548A2CF4405CB8
:10D020004EEA040E4CEA0E1C94884FF6FF3E03EACB
:10D030000E0E4EEA042E1FFA8CFC1FFA8EF356E7F2
:10D04000148A2CF4804C4CEA841C1FFA8CFC7CE77C
:10D05000D489B2F810E023F008032343548A2CF457
:10D06000407C4EEA040E948823F004034CEA0E0C34
:10D070001FFA8CFC2343C2E7D489B2F810E023F0F6
:10D08000800343EA0413548A2CF4406C4EEA040EE5
:10D090004CEA8E0C94884FF6BF7E03EA0E0E4EEAE1
:10D0A000041E1FFA8CFC1FFA8EF37CE7000001407F
:10D0B0002DE9F04FB14BDFF8DC8293F8AEEEB04CC7
:10D0C000B04D95B00EF1FF37FBB200930023CDE9D0
:10D0D000013EC246DFF8C0B2DBF80070BB0AA3F520
:10D0E0008013522B00F20A81234493F8F4330D2B62
:10D0F00000F2048115F90390029B012B00F00981D5
:10D10000029B022B02D1B9F1080F6DD100263146E6
:10D1100048460FF0E7FA0FF071FB037813B1542B78
:10D1200040F073810436B6B2102EF0D1019B00217D
:10D1300013B342460BE0234493F8F4330D2B0DD880
:10D14000EB564B450DD002F58072524512D09068D7
:10D1500003689B0AA3F58013522BECD900234B459F
:10D16000F1D143799BF8050098423DD002F58072D9
:10D170005245ECD1002937D15846FBF7F1F8C3B23C
:10D18000022B9BF805E000F2148300F1010C7C4AAD
:10D190000CEB4C0C4FEA8C0C02F57D7003E02C324A
:10D1A000904200F0068313689F42F8D113797345CB
:10D1B000F5D152F80C30002BF1D0734800214268B1
:10D1C0009A4200F0A2800131102900F12400F6D12A
:10D1D0004FF0FF336D4A03EBC30302EB830393F875
:10D1E000FC30002B00F02481694B0BF11C0B5B45DC
:10D1F0007FF472AF019B0133042B01930AF5807A0F
:10D200007FF468AFDFF894B1DBF83C3605934FF05C
:10D21000000A0BF244530BF581690193CDF800A08D
:10D22000009B059A934266DA544BD9F80C7093F838
:10D23000C42E99F810300393002F5CD03B68DBF8C4
:10D240000400049303F13F4505F57E05BB88029376
:10D2500000284FEA952564DD002302E00133834274
:10D260005CD01C0258F80410A942F7D14444039B37
:10D2700089F81030029B009DC9F80C70B3FA83FC4A
:10D28000CCF11F064FF003020135C9F80460C9F85C
:10D290001840BA71FD717300E16C606C01220327C4
:10D2A0009F4002FA03F319439BF80030E1643843CE
:10D2B00002FA06F66064276DD4F8A000B1B2002B24
:10D2C00000F0A9803E432665049E029B3383FBF752
:10D2D00081F82046FBF7D2F940F20112A9F81C2090
:10D2E000019A009501235374082D02F1180309F1E6
:10D2F0002009019394D115B0BDE8F08F009B012B5C
:10D300007FF672AF4FF0000900E74B1CDBB2013B28
:10D3100060E7B9F1010F3FF4F9AE65E7042B00F0C7
:10D320008A800BEB002301020691196907910029FD
:10D3300000F035826C1C0892E4B24FF054029D60FC
:10D3400083F8042183F80541079B01305E79CBF80F
:10D35000040018461D680996FBF702F8C3B2022BB9
:10D3600000F2278200F1010C0CEB4C0C044B089AE4
:10D370004FEA8C0C0021B64618E000BF381A002096
:10D38000FCA806085C380708680200208801002015
:10D3900018BB06080C0000101CBA06080400001098
:10D3A0000131172903F12C0300F003821E68B542F6
:10D3B000F6D11E797645F3D153F80C60002EEFD0EC
:10D3C0002C2300EB400001FB03F38749DFF864A244
:10D3D00003EB80030B4450461969069B0C915B4498
:10D3E000C3E9066100214368B34234D001311029FA
:10D3F00000F12400F7D17D4B93F8D820FAB95422DC
:10D4000083F8D82083F8D94019E0019B0121002B33
:10D410007FF48FAEE8E6CCF12F0C02FA0CF23A431F
:10D420002265049A029E56831A46FAF7D3FF50E704
:10D43000CAF808B0DEE66E4A032382F8C53E6D499D
:10D440006D4A6E4BCBF8681ACBF8602ACBF8703A6D
:10D4500015B0BDE8F08F4B1CDBB26449013B03EB18
:10D46000C30301EB830393F8FC100B910029E6D171
:10D47000069883F8FD40C11101EB2021604C01EBBF
:10D48000011104EB8104069908948C205D4C09126B
:10D4900000FB01F104EB410C0699089CCDF828C073
:10D4A0005944C1F8A840542483F8FC403323C1F800
:10D4B000F400C1F8AC3004984D4BC8605248C1F834
:10D4C000F0C0D3F8B017069B854208EB03040FD0D9
:10D4D0004E4B9D420CD003F580439D4208D003F58E
:10D4E00080639D4204D003F580639D4218BF4908C4
:10D4F000062A00F05181072A4548464A464B18BF84
:10D500001346464A18BF02460698B1FBF2F2B1FB39
:10D51000F3F3013A0BEB000192B2013BA1F8B030FA
:10D52000A1F8682000F154010023A4F85C302846DB
:10D5300048F80130A265414453F02AF80023ADF8C1
:10D5400040302B8809999BB243F080032B802B88B5
:10D5500023F001031B041B0C2B80314B0F934FF066
:10D56000020E4FF48073CDE912E328460A230FAA76
:10D570001193FFF789FC079B1879002840F0F6808B
:10D580002B889BB243F001032B800023DAF80420A0
:10D59000964203F1010300F0E580102B0AF1240A02
:10D5A000F4D14FF0FF33114A1E491F4803EBC30368
:10D5B00002EB83031D4AD3F8E0308B4214BF4FF4D3
:10D5C00080034FF40013116B0B431363099A0C2A69
:10D5D0009BBF174B03EB42030022B3F82421069BA9
:10D5E0005B449A8200232EE0FCA8060888010020F4
:10D5F000381A002045840108418401084D8401083F
:10D6000000290020302C00200004014000000140CF
:10D61000D0DD0600449508001055220040771B001D
:10D620006000010000600240140600100038024053
:10D63000F4B90608680200208D4200F0B58001337D
:10D64000042B00F0B38050F833100029F4D1DBF83C
:10D650000C160131CBF80C160BEBC301DB00C1F843
:10D66000105603440B9899880A439A8052492346DE
:10D670009022FDF7FFFD3368069A049843F01003EB
:10D680003360089BE3660C9B636602F1640104232C
:10D690004FF40032C4E9232340233322C4E91C326F
:10D6A00000F1180200254FF4806AA2664FF4805002
:10D6B0004FF48042C4E9200241443046C4E9255574
:10D6C000A567C4F88850C4F89C50C4F87CA052F0F8
:10D6D000BDFE3068E0617069206270680C9B60621A
:10D6E000B068A062F068C4F8AC300423C4F8D83045
:10D6F0000A9BE062C4F8B4300498069AC4F8C4A047
:10D700004FF44033C4F8D4308C23C4F8BC3000F15B
:10D71000100302F1AC01C4F8B0304FF480424FF472
:10D720000063C4F8C830C4E937554144C4F8CC207C
:10D73000C4F8B850C4F8C050C4F8D050C4F8E4508D
:10D74000304652F083FE3368236373696363736802
:10D75000A363B368E363F3682364336843F010039F
:10D76000336084E5DBB20B93013B1CE70DF0CCFA90
:10D770000D9038B1079B0221DA79FEF7E5F80D9B91
:10D780005422DA80B5F844306FEA43436FEA5343DA
:10D790009BB2A5F84430F3E6084B094AB4E6094ABF
:10D7A000022382F8C53E4AE6DB005AE700239B8845
:10D7B000FFDE00235B68FFDE1D840008882A11005D
:10D7C000A0BB0D00381A00200C2911D8DFE801F0A9
:10D7D0002310101019101010111010100700838B57
:10D7E00023F400631B041B0C43EA02239BB28383D4
:10D7F0007047838B23F008031B041B0C1A4382839E
:10D800007047038B23F400631B041B0C43EA0223C1
:10D810009BB203837047038B23F008031B041B0C8C
:10D820001A430283704700BF2DE9F04F994D2B78C2
:10D8300089B01BB9012009B0BDE8F08FDFF8649210
:10D84000D9F874480EF01AF995F8B43A0393002BFE
:10D8500000F01482904BA3FB0423904A5B09A2FBC7
:10D860000312D20802EB8202A3EB4203D5F838265A
:10D87000821A049205F5C86BDAB207920BEB8303A8
:10D8800009F1DC0405F51262029200279846019422
:10D8900032E0304652F044FD8C2303FB0793002511
:10D8A00083F8D0509AF805A0204651462A46FFF743
:10D8B0008BFF019C2246FFF7E7FA51460822FFF74B
:10D8C00083FF402344F83C3CA4F14801304652F029
:10D8D000BDFD04F18C030193029B14330293336862
:10D8E00043F010033360039B01379F420BF15C0B45
:10D8F00008F15C0800F0D880049A002A05DB019B3F
:10D9000053F8083C934200F3A5818C23019A03FB52
:10D91000079352F858AC93F8D030166ADAF8004002
:10D92000002BB6D07568A389ADB2114632F8542CDD
:10D93000C5F116059BB223EA0203072DA381A8D9DE
:10D94000544AD2F828390133C2F828398A6A0021AA
