:020000040800F2
:1000000000000120591F0508F51F050815BD01084E
:1000100069BB0108F51F0508F51F05080000000071
:10002000000000000000000000000000F51F0508AF
:10003000F51F050800000000F51F0508ADA901081F
:10004000F51F0508F51F0508F51F0508F51F05082C
:10005000F51F0508F51F050805A800080DA80008EC
:1000600015A800081DA8000825A80008F5A5000887
:1000700009A600081DA6000831A6000845A600082C
:1000800059A600086DA60008F51F0508F51F05080C
:10009000F51F0508F51F0508F51F05082DA8000820
:1000A000B9E00008B5DF0008C9E00008A5DF0008D6
:1000B000DDDF0008EDDF0008FDDF00081DA10008FE
:1000C00011A1000851A1000845A10008F51F05086D
:1000D000F51F050805A9010811A901081DA90108B6
:1000E00035A80008F51F0508F51F0508D9E0000828
:1000F00091E00008F51F050881E0000881A60008CE
:10010000F51F050811D200080DE00008F51F0508CD
:1001100029A9010835A901081DE00008299704084C
:1001200095A60008A9A60008BDA60008D1A600084B
:10013000E5A600080000000000000000000000002C
:10014000000000000000000000000000718C0408A6
:10015000F9A600080DA7000821A7000841A9010879
:1001600085A1000879A10008F51F0508F51F0508FD
:10017000F51F0508F51F050800000000000000003D
:10018000F51F0508F51F0508F51F0508F51F0508EB
:10019000F51F0508F51F050800000000F51F0508FC
:1001A000000000000000000000000000F51F05082E
:1001B000F51F0508F51F05080000000000000000FD
:1001C000000000000000000000000000000000002F
:1001D000000000000000000000000000F51F0508FE
:0801E000941C05000100000061
:1001E800FF21010005000000FC290120F831012051
:1001F80000000000A9FC0008F431012005300100CE
:10020800080000001C2D012004320120000000001D
:10021800E86E060800320120130201000400000005
:100228006C2A01201032012000000000F06E060840
:100238000C3201201F020B0016000000042A0120C6
:100248001832012000000000B5FC0008143201201B
:100258001402010005000000F429012034320120B5
:1002680000000000F46E060830320120062001006C
:1002780028000000D42401204032012000000000A2
:10028800DDFB00083C320120160215003F0000008B
:10029800B42201206C32012000000000EDFC0008AF
:1002A8006832012021020100F00000001C5C0120DE
:1002B800486101200000000029AC030844610120C6
:1002C8002C000400100000000C5C01203C6201209E
:1002D800000000005D1E03083862012025201E0072
:1002E8002C010000605A012050620120000000002B
:1002F800000000004C6201202B00120024000000C6
:10030800CC59012080630120000000006D1E030805
:100318007C630120012001000C0000002859012005
:10032800A863012000000000FC6E0608A4630120F9
:10033800163001000800000040590120B863012070
:1003480000000000086F0608B463012027000100C0
:100358000400000034590120C4630120000000009B
:10036800106F0608C06301200C60040078000000CC
:1003780064520120CC630120000000007151020882
:10038800C8630120031101000A000000D0570120B2
:10039800486401200000000025030408446401208B
:1003A800F7010100060000004857012058640120A9
:1003B80000000000146F060854640120292014006E
:1003C80078000000B8560120646401200000000095
:1003D80000000000606401202320010010000000DC
:1003E800A8560120E064012000000000811F0308D6
:1003F800DC6401202830010016000000745601203A
:10040800F464012000000000712E0308F06401204C
:100418000B3001001A000000585601201065012019
:10042800000000001A6F06080C6501200E70040019
:1004380080020000DC52012030650120000000002D
:1004480091B802082C6501200D1001007000000011
:10045800E0550120B46701200000000021DC0108FC
:10046800B0670120220201001C010000DC570120B6
:1004780028680120000000008D2D01082468012053
:100488001840010038000000A855012048690120E3
:1004980000000000D5120108446901201B02010078
:1004A8001000000094690120846901200000000008
:1004B80095FC00088069012028020400040000005F
:1004C800AC690120A8690120000000008DFC00082B
:1004D800A46901202702040004000000B869012073
:1004E800B46901200000000085FC0008B069012003
:1004F8001102010008000000C8690120C06901203C
:100508000000000079FC0008BC69012012120100FB
:1005180004000000D8690120D4690120000000000F
:1005280071FC0008D06901201C0202001C000000B8
:100538008C560120E06901200000000059120108D2
:10054800DC690120010201000A0000000C6A012098
:10055800006A012000000000B9FB0008FC690120C6
:10056800001201000A000000286A01201C6A01200C
:1005780000000000ADFB0008186A01201A02010003
:100588003C000000746A0120386A01200000000065
:1005980065120108346A0120FE0101001400000000
:1005A80034570120B46A01200000000055FB000800
:1005B800B06A01201D02020006000000545D0120FF
:1005C800CC6A01200000000000000000C86A012079
:1005D8002E020100040000007E5D0120D86A01207F
:1005E8000000000055760108D46A0120FD010100D1
:1005F800210000005C5D0120E06A0120000000008D
:100608002B760108DC6A0120040008008000000045
:100618008C5B0120086B0120000000000000000036
:10062800046B0120FA01010004000000A85D01200C
:100638008C6B012000000000C9FB0008886B0120BA
:100648000C02010004000000AC5D0120946B012045
:1006580000000000D1FB0008906B01200812040084
:1006680014000000945D01209C6B01200000000034
:100678006DFB0008986B01200A900100240000001F
:100688005C550120B46B012000000000951F030891
:10069800B06B0120031201003D0000000C5D012039
:1006A800DC6B012000000000346F0608D86B0120C5
:1006B800FD170100A0000000A4600120206C0120AB
:1006C80000000000999F03081C6C01201310010012
:1006D8000400000050560120C46C012000000000F6
:1006E800746F0608C06C0120F83101000800000092
:1006F80080550120CC6C012000000000786F0608AE
:10070800C86C01200612040018000000B05D01202A
:10071800D86C012000000000E1110108D46C012010
:100728000202010003000000BC6D0120F46C0120EE
:100738000000000000000000F06C0120F62101001C
:100748000C00000050570120FC6C01200000000044
:10075800806F0608F86C01201A0001000E000000E6
:10076800845D01200C6D0120000000008C6F0608DC
:10077800086D01201410010005000000A05501209B
:10078800206D0120000000007DB802081C6D0120CA
:10079800F5C10100740000005C5701202C6D012098
:1007A8000000000019B20308286D01201230010072
:1007B8001000000088550120A46D012000000000F1
:1007C8009A6F0608A06D01200E02010002000000C9
:1007D80060520120B86D012000000000AA6F0608D1
:1007E800B46D0120F901010004000000CCAF012024
:1007F800C8AF012000000000E9750108C4AF01205E
:100808002F20010022000000D4AF012098AF012062
:1008180000000000AC6F0608D0AF012026300100B0
:10082800080000009CB90120ACB9012000000000BC
:1008380055FF0308A8B90120205201000C00000050
:1008480090B90120B8B9012000000000D06F060857
:10085800B4B901202A1201000800000088B901205B
:10086800C8B9012000000000DC6F0608C4B90120E7
:10087800190001000500000080B90120D4B9012049
:1008880000000000E46F0608D0B901200210010042
:100898000C00000070B90120E0B901200000000040
:1008A800EC6F0608DCB901201F500100240000008D
:1008B80048B40120F0B9012000000000F86F0608D4
:1008C800ECB901203840010006000000E8B0012022
:1008D80048BA0120000000001C70060844BA012034
:1008E8001B3001001000000034B9012054BA012067
:1008F80000000000F998030850BA01201010010008
:100908000200000010B7012068BA012000000000B2
:100918002270060864BA01200502010004000000E4
:100928001CBC012040C20120000000002470060801
:100938003CC201202C0201000400000054BC01202C
:1009480068C20120000000002870060864C2012067
:100958002D0201000100000020BC012070C201200E
:1009680000000000000000006CC20120010101002D
:100978000400000094BB012078C2012000000000A0
:100988000000000074C20120000101000400000002
:1009980084BA012080C20120000000002C700608E3
:1009A8007CC20120020101000300000090BB01206D
:1009B80088C20120000000006151020884C20120A1
:1009C8002902010040000000BCBB012090C20120A8
:1009D80000000000307006088CC20120233201009C
:1009E80014000000A4C30120E0C40120000000009E
:1009F80070700608DCC40120090201000100000033
:100A08004CFF0120BCFF0120000000008470060894
:040A1800B8FF012002
:10800000084A0346D0F8E4005268D3F8F010121A78
:1080100000209142B8BFC3F8F020012283F81C2150
:10802000704700BF001000E01B4B016803F57D7C2A
:1080300002E02C3363452BD01A688A42F9D170B51F
:1080400093F804E0427996450BD02C33634505D074
:108050001A688A42F4D02C336345F9D14FF0FF30CF
:1080600070BD9E4684680022DEF80C50A54208D000
:1080700001320EF10C0E032AE7D0DEF80C50A542B7
:10808000F6D1DEF81050C668B542F1D150B270BDDD
:108090004FF0FF30704700BF703A05084368426DEB
:1080A00030B49A61EFF31182502383F31288416850
:1080B000D2B2856C0B68046D23EA050323430B6081
:1080C00082F31188436981681A68096822F0010205
:1080D000D0E908541A60826A1D605C615A60D0E978
:1080E0000B429C60DA600023B0F86C2030BCCA629E
:1080F00003777047002A4FEA014C034630B50ABFA8
:10810000E6468E468C4600F1C005002419680C3303
:1081100053F8042C43F8084C41EA0C0142EA0E02E1
:10812000AB4243F80C1C43F8042CEFD1D0F8C0301C
:1081300043EA0E03C0E93144C0F8C03030BD00BF8F
:1081400083695969B3F810C00A6830B49C6822F09A
:10815000010224680A60E26822EA0C02E260027D01
:1081600000681F2A06D9203A0824456894402C420A
:1081700042D0FEE70824056894402C42F9D120241F
:1081800004FA02F28260254A1278002A32D01A7F5D
:10819000012A36D0D3F800210132C3F80021EFF3D1
:1081A0001181502282F312885868C9B29D6C02680E
:1081B000DC6C22EA05022243026081F311885A69CD
:1081C0009968D3E90D40096814605061D3E90F4004
:1081D000546090605C6CB3F8B400D4600124C86251
:1081E0001068204310601A8A1C7783F8FD40CB6822
:1081F0001343CB6030BC7047202404FA02F2C26003
:10820000C1E70022D3F8040183F8FD2001300A6899
:10821000C3F8040122F001020A60EBE7E00100204C
:1082200010B40C4C6368002B11DD002004F1080C25
:108230000146DCF8AC3003F1C00259600C339342C4
:10824000FBD1013063680CF5867C8342F1DC5DF87C
:10825000044B7047E0010020704700BF024B03EB66
:10826000401393F855047047E0010020704700BFA9
:108270000B4890F86C1589B101EB4101002300F225
:108280007450490010B41C4650F82320063302B144
:1082900014608B42F8D15DF8044B7047704700BF03
:1082A000E00100200B4890F86C1589B101EB410109
:1082B000002300F27450490010B41C4650F82320EB
:1082C000063302B114608B42F8D15DF8044B70475D
:1082D000704700BFE00100200120704700EB400024
:1082E000024B03EBC00393F885057047E0010020C3
:1082F000204890F86C35002B3AD0002200F27453DD
:108300004FF02C0C2DE9F0434FF0500E1A4E1B4D40
:10831000144607E053F8181B01320C6090F86C15F6
:10832000914223DD197C0029F4D05F684FF0FE08EC
:10833000B90AA1F580115229294498BF91F8F48314
:10834000EFF311818EF31288D7F824900CFB0868A4
:10835000C9B209F10109C8F82890D7F8148048F08B
:108360000108C7F8148081F31188D3E7BDE8F083D2
:10837000704700BFE0010020A8180120703A0508EE
:1083800000EE100AB8EE400A704700BFBCEEC00A0B
:1083900010EE103A98B270470346012200205A7737
:1083A000704700BF826908B50346006BD96A024472
:1083B0009A6101B18847002008BD00BF436A0246A8
:1083C0001B681B6A5B685B7813F0010008BF50777D
:1083D000704700BFC2628161704700BF704700BF35
:1083E000043070470430704710B4094C4FF0340C1F
:1083F000D4F894020CFB00F004F5267C044460449D
:10840000D4F89842A469A4465DF8044B604700BFC5
:10841000A8180120064B3421D3F8942203F52670C6
:1084200001FB02F213441044D3F89832DB69184779
:10843000A8180120043070470C4B93F80423D3F89C
:10844000001302440144D2B2C3F8001383F804239A
:1084500093F80423120605D593F8042382F08002D2
:1084600083F80423024B01221A707047A8180120D8
:10847000000001202DE9F84F164FD7F80853ED0AF8
:1084800023D00026DFF850A007F54379B0467419D1
:10849000D7F80C134FF01003524648BF0134D1F8FF
:1084A00028B04846C7F838836410E102D8470F283F
:1084B0000BDD094B03F1100153F8042B013207D1F6
:1084C0008B42F9D12546B542E1DCE802BDE8F88FE0
:1084D000661CF8E7A818012000000020194BD3F80B
:1084E0004013D3F844238A1A322A15D8D3F85823D4
:1084F0008A4200D37047D3F84823F2B11068323172
:10850000928810B44469C3F8581322425DF8044BB2
:1085100018BF120482617047D3F8481349B193F829
:108520005423888802F001020968120100FA02F25D
:108530008A610022C3F8582370473231C3F85813B8
:10854000704700BFA8180120074BD3F848234AB151
:1085500093F85433918803F0010312681B0101FA68
:1085600003F3936100207047A8180120044B4FF4D7
:10857000007C0020D3F86833A2F800C00B6070477D
:10858000A818012000207047012070470120704783
:10859000002070470020704700207047134BD0F830
:1085A000D8105B68D0F8E02010B50446581A824213
:1085B00000DC22B9D4F8E4200A44C4F8DC2094F8A2
:1085C000D020C4F8D830012A05D0D4F8D4300133F3
:1085D000C4F8D43010BD04F1E801201D11F0D6FA22
:1085E000D4F8D4300133C4F8D43010BD001000E00A
:1085F00030B590F828308BB00446012B08D0407F6E
:1086000010B901200BB030BD002363770BB030BD33
:10861000456A2B681A7B22BB637F002BF1D013497C
:108620000220002301220290081D8DF80C208DF8F5
:1086300020200993CDE9001069462846CDE904338E
:10864000CDE9063311F0A2FA2A68136A002BFCD197
:10865000074B5B7DD84303F0010300F00100637713
:10866000D4E71B6A002BD7D00020CBE710000020F6
:108670000000002030B504468BB094F82830012B60
:1086800008D0637F0BB10023637701200BB030BDAE
:108690001B6A23B1656A2B681A7B002AF8D1637FB5
:1086A000002BF2D010490220002301220290081D65
:1086B0008DF80C208DF820200993CDE90010694633
:1086C0002846CDE90433CDE9063311F05FFA2A6874
:1086D000136A002BFCD1054B5B7D03F00102DB0725
:1086E0006277D2D5C9E700BF10000020000000204B
:1086F000CB070DD430B590F828308DB0C468012B6D
:1087000007D0B4F1807F01D9012303770DB030BDCC
:108710007047194B456AD3E9E613B1EB930F4FEA63
:1087200093024FF0020306D252085B0091429BB2C3
:1087300001D2FF2BF8D9B4F1807FAB80E6D90122BA
:10874000002301A9B7240277284604928DF814204B
:108750008DF828208DF804400B93CDE9021302A96F
:10876000CDE90633CDE9083311F010FA2A68136A0F
:10877000002BFCD1CAE700BFA8180120214A002322
:1087800030B5044695B0101D1F4D06930190022090
:108790000B931093139311930290207F00920495F2
:1087A000CDE90E3301238DF80C3007938DF820307E
:1087B0008DF834308DF8483002F10803083A0593FB
:1087C000031D0A920C93114B0993636A1A68136A8A
:1087D000002BFCD1A0B10E480A0E00F11A0342761C
:1087E0000A0A9970080C69465A701870606A11F08C
:1087F000CDF9636A1A68136A002BFCD115B030BD3D
:10880000044BEDE720000020BD8300089983000899
:10881000000000201900002010B594B0044650223A
:10882000074968464AF0A2FD6946606A11F0AEF950
:10883000636A1A68136A002BFCD114B010BD00BF24
:10884000B83E0508F8B50546406A0068046A002C81
:10885000FCD12C7FA869002C36D0234E040E0527AE
:1088600086F82D402E36B0704FEA104C000A1F4C8F
:1088700086F800C0012B70704FF000000E6867632F
:1088800026641668A6642E63A06520D0022B1AD138
:108890005368012220651E444968E365144B84F83F
:1088A0004C0061652E6384F860206366114B6A7F1B
:1088B000A3F11401686A002A08BF194611F066F98D
:1088C000EB6A5BB1286BF8BD04270B4ECBE7084A77
:1088D00084F84C306065E0652265E7E76B6A1A68EA
:1088E000136A002BFCD1EDE70000002000000120FE
:1088F000A5830008180001202D00002000B583B0DA
:108900008161019201A9049A00930123C2626A461F
:10891000FFF798FF03B05DF804FB00BF70B51D467C
:10892000436A94B006461B681C6A002CFCD1314B8C
:108930000B9203F13C0230480694009203F140028E
:10894000049003F134000192022205900292012268
:108950008DF820408DF80C208DF834208DF84820BB
:10896000327F0C95101D1394CDE90944CDE90E44D6
:10897000CDE910440790002A3AD00A0E363303F8A6
:10898000012C0A0C99701D4C090A1A705970706AF2
:10899000D4E9E632B3EB920F4FEA92014FF00202B4
:1089A00006D2490852008B4292B201D2FF2AF8D96E
:1089B000737F8280D3B1694611F0E8F8706A03686A
:1089C0001A6A002AFCD10222D4E9E734B4EB930FEF
:1089D0004FEA930106D2490852008C4292B201D26A
:1089E000FF2AF8D98280284614B070BD05A9E3E7B4
:1089F0003533C6E700000020BD830008A818012019
:108A000010B5044682B0806906236A4690F84C117E
:108A1000103011F07BFA58B1BDF80010BDF80220FB
:108A2000BDF8043049BA52BA5BBAE181228263824E
:108A300002B010BD10B582B0044690F84D11062367
:108A40006A46103011F062FA70B1BDF80010BDF83E
:108A50000220BDF8043049BA52BA5BBAA4F8D0106B
:108A6000A4F8D220A4F8D43002B010BD8269F0B5C9
:108A700092F8DC308BB00546012B27D0023B012B4E
:108A80002FD892F84C31EC46D2F89C2063F07F034B
:108A9000154C13708669D6F8A0305F1C0FCCACE87B
:108AA0000F00D6F89C30CDE900370FCCACE80F00B2
:108AB00094E803008CE80300694606F1100011F009
:108AC00065F8AA6911690B6A002BFCD1D2F8A030B5
:108AD0005A8852BAEA819A8852BA2A82DB885BBAEB
:108AE0006B8201200BB0F0BD083F0508F0B590F88F
:108AF000DC308BB00446D0F8A060012B4BD034D9C9
:108B0000023B012B2ED890F84D31EC46D0F89C203A
:108B100063F07F03434D1370D0F8A0305F1C0FCD7E
:108B2000ACE80F00D4F89C30CDE900370FCDACE8AD
:108B30000F0095E803008CE80300694604F110007B
:108B400011F024F82269136A002BFCD173885BBAF8
:108B5000A4F8D030B3885BBAA4F8D230F3885BBAFB
:108B6000A4F8D43001200BB0F0BDD0F89C304FF009
:108B7000FF3205211A605A609A60DA60D0F8E0305E
:108B8000C0F8F010B3F57A7F1FD8032380F8DC30EB
:108B900001200BB0F0BD90F84C2190F84D319B1A9C
:108BA0005B100133DBB236F8132006EB430653BAF1
:108BB000A0F8D03073885BBAA0F8D230B3885BBA23
:108BC000A0F8D43001200BB0F0BD03691A7B2AB3A2
:108BD0005B691BB390F8983003B390F84C310122D5
:108BE000D0F89C0063F07F03C4F8A4400E490370E2
:108BF00094F84D3194F84C0184F800211B1A84F844
:108C0000DC20D4F8A0200733C4F804110132D4F8D2
:108C10009C10C4E93E23C4F8F410A3E7022384F8AF
:108C2000DC309FE7083F050801800008F8B50C4BD1
:108C30001D685A69154005405D617DB1094F0126E7
:108C4000B5FA85F4C4F11F0407EB840306FA04F4B3
:108C5000D3F8A40303689847A543F1D1F8BD00BF3A
:108C6000003C0140A818012002692DE9F843C368BF
:108C700012EA030828D005460E464FF00047B8FA1E
:108C800088F327FA03F21B3BD24308EA02082A6161
:108C9000042B16D8DFE803F03B30251A0300B36A33
:108CA000002B3FD003F1FF3900231FFA89F9B3628B
:108CB000746A34B123682046494698476468002C9A
:108CC000F8D1B8F1000FDAD1BDE8F8837068002858
:108CD000F7D0696B036889B29847B8F1000FCED11D
:108CE000F2E7B0680028ECD0A96B036889B2984716
:108CF000B8F1000FC3D1E7E7F0680028E1D0E96BD5
:108D0000036889B29847B8F1000FB8D1DCE7306941
:108D10000028D6D0296C036889B29847B8F1000FB3
:108D2000ADD1D1E7EB6A1FFA83F9C1E72DE9F04134
:108D3000304F07EB401898F854340BB9BDE8F08178
:108D400000EB80030E460021044607EB4313450168
:108D500093F8362683F8361688F83A244AF074FEDB
:108D6000B8BB25483D4400EB4410A5F838644AF0F0
:108D70004FFE3B78D5F85024A3B1D5F83C1401241C
:108D8000D2F8AC308C4003F1C001420010F4004F27
:108D900090B202D15A6822435A600C339942F4D1FE
:108DA000BDE8F081D5F83C140124D2F8AC3001F1D3
:108DB000100203F1C0019440420010F4004F90B241
:108DC00002D15A6822435A600C338B42F4D1BDE879
:108DD000F0810A4B93F85C2402EB420203EBC203DE
:108DE000234493F80964002EBBD0012388F83A3459
:108DF000B7E700BFE001002018060020A8180120F6
:108E00002DE9F04F364D83B02B781BB9012003B00C
:108E1000BDE8F08FDFF8CC8005F63836D5F834ABF6
:108E200005F5876BD8F8403305F6186700244FF630
:108E3000FF79019312E0B0F5606F43D0B881B0EBD9
:108E40000901019A304618BF012110F0D5FC013408
:108E50005C360BF1200B1437082C2CD054452ADA41
:108E6000DBF81800DBF80420D0E93D014AF0B4FD3E
:108E70004FF6FE7398F8E523984214D0542A04D193
:108E8000B8F8E8230132A8F8E823D5F8202E4845A1
:108E900002F10102C5F8202ECDD1D5F81C2E0132E9
:108EA000C5F81C2ECBE7542AD1D1B8F8EA230132F9
:108EB000A8F8EA23CBE70123012085F81E3F03B081
:108EC000BDE8F08F98F85C2402EB420208EBC20286
:108ED000224492F809240D2AB0D18022BA77AEE755
:108EE000E0010020A81801202DE9F0472F4F11F0D4
:108EF000C3FEDFF8C09080467E6800202C4C002E18
:108F000048DD00234FF486711D4601FB03720133D7
:108F100092F805219E4245EA0205F6D128435FFA00
:108F200080FAD9F80430C3F3080383BBEFF311834D
:108F30006BBB4FF0E02CD4F84033DCF81810D4F8B9
:108F400040239342F7D1D4F860249142F3D8D4F867
:108F500064C44FF47A7202FB0CF0401AB0FBFCF0D0
:108F600002FB0300A0EB0803B3F5FA6FCCBF0020AF
:108F700005F001000028C2D1BAF1000F04D00C4B5B
:108F800093F8E523542A08D05046BDE8F08711F045
:108F900033FDE7E782460025C3E7B3F8EC235046EC
:108FA0000132A3F8EC23BDE8F08700BFE001002008
:108FB000A818012000ED00E010B5044649F06EFD50
:108FC0000146204689B2BDE81040AFE638B50B4DEA
:108FD00000EB400005F27453C40003EBC0032544CA
:108FE00093ED027AD3ED037AE7EE007AB0EE670AEA
:108FF00049F054FDD5F87435186038BDE001002003
:10900000F8B54AF02DFD78B31A4F7D68002D11DDBB
:109010003846002410F8086B16B1037F012B1DD0D1
:109020004269013400F586701368AC4243F00103D5
:109030001360F1D111F020FED7F8204F002C0CDD89
:109040000D4B03EBC4041968083333F8042CC868CB
:10905000A34242EA0002CA60F5D1F8BD002380F8BD
:10906000FC30FFF71BF8DBE748F06AFA0028CBD1A9
:10907000F8BD00BFE001002004110020836910B595
:109080001A4C04EB8303D3F88C043CF0DBFFB4F8F8
:10909000AC340C2B0ED8DFE803F0220D0D0D1B0DA8
:1090A0000D0D070D0D0D1400D4F86C24D36823F4B6
:1090B0000063D3600122002384F8A92484F8AE342D
:1090C00010BDD4F86C24D36823F48053D360F1E747
:1090D000D4F86C24D36823F48063D360EAE7D4F82F
:1090E0006C24D36823F40073D360E3E7A81801204D
:1090F00080699C303CF0A6BFF8B5830AA3F58013C5
:10910000522B52D804465748034493F8F4030D28D1
:109110004BD8554D860105EB8013D3F8B074A742A8
:1091200043D00139C3F8B04489B2C3F8BC14D5F8B0
:109130009C13B1FBF2F100220139C3F8C024C3F83B
:10914000B824C3F8C42493F8ED24C3F8B41402F08F
:10915000FF015AB345490223AF1901EB80112046A4
:1091600087F8ED3404313FF08DFA0123B4F1804FDC
:1091700087F8ED343E4BA4EB0303B3FA83F34FEAD5
:10918000531316D0ABB93B4A944257D002F58062D4
:10919000944253D0384902F57C42944218BF8C4225
:1091A0002FD002F5705294422BD0F8BD83F8EC1406
:1091B000D0E7AA1992F8EC140129F6D0022182F81E
:1091C000ED142E49A06801400020A160012182F821
:1091D000ED14AA19022182F8ED146268A16803B99E
:1091E00008B122F470022E4422F0700221F08001B6
:1091F000012000236260A16086F8ED0486F8EC345B
:10920000F8BDAA1992F8EC140129CED0022182F8F7
:10921000ED141A49A06801401948A1600121201AE3
:1092200082F8ED140021B0FA80F082F8EC14124AB2
:1092300040099442CDD00028CBD1F8BDAB1993F8AA
:10924000EC24012AB1D002210C4A83F8ED14A06865
:109250000240A260012283F8ED2483F8ED146268D5
:10926000A168C0E7703A0508A8180120581D012020
:109270000000014000040040000C00408800FEFF98
:109280000004014008B590F82830012B01D00120DE
:1092900008BD406A45F0DEFBC04300F0010008BD98
:1092A00038B50C4D044694F82830012B03D0002328
:1092B0000120236238BD606A45F0CCFBC04310F04A
:1092C0000100F4D1D5F84033226A9B1A002BEADB67
:1092D00038BD00BFA818012038B51C4D044690F8D1
:1092E0002810FF22406A48F049FDD5F8403303F5C5
:1092F000FA73236294F82830012B04D00022012B4A
:1093000022620FD038BD606A45F0A4FBC30719D5AF
:10931000D5F84033226A9B1A002BEBDB94F82830F7
:10932000012BEFD10022A021606A48F0FFFC94F8E5
:109330002830012BE6D1606A1822B021BDE8384000
:1093400048F0F4BC94F82830D8E700BFA8180120F2
:10935000CB0700D57047BFE72DE9F043694D93B0C7
:1093600004460F46164694F82810606A01292BD04F
:1093700000232362062248F001FD0123637795F85C
:109380007038002B40D1D7F80090D5F87488376832
:1093900094F82830012B26D00022012B22627BD0AA
:1093A000D5F840330122023385F87028E26A23623F
:1093B000D5F8743830680344C5F874380AB190475A
:1093C000306813B0BDE8F08345F044FBC10740F1BD
:1093D0008E80D5F84033206A1B1A002BC3DB94F82B
:1093E0002810606AC6E7606A45F034FBC20740F1A6
:1093F0008580D5F84033226A9B1A002BC8DB94F88D
:109400002830012BCCD147E0D5F87438D7F800804C
:109410008DF80630C3F3022337688DF805308423B6
:109420008DF8043094F82830012B25D00022012B30
:109430002262B5D18DF8283000228DF83C3000230F
:10944000099702A903938DF81430069308930B93A0
:109450000E93109301AB676A029303233846CDF84D
:109460001C8004930023CDE90C2310F08FFB3A6895
:10947000136A002BFCD193E7606A45F0EBFAC3074F
:1094800039D5D5F84033226A9B1A002BCADB94F8F1
:109490002830012B84D1CDE78DF8283001AA8DF832
:1094A0003C300023099702A903938DF814300693EA
:1094B00008930B930E9310930223676A8DF8043080
:1094C00003238DF80680C8F3022802920022049339
:1094D00000233846CDF81C908DF80580CDE90C238B
:1094E00010F054FB3A68136A002BFCD158E794F84B
:1094F0002810606A3CE794F8283097E794F8283001
:109500004AE700BFA818012033B910B51C46C36A4A
:1095100020469847204610BD1EE700BF70B51A4D83
:1095200004460E4694F82810606A01290FD00023E3
:109530002362062248F022FC012294F82830627748
:10954000934212D0D5F840330F33236270BD45F0FB
:1095500081FAC30713D5D5F84033226A9B1A002B32
:10956000E0DB94F82810606AE3E7F20AD821606A29
:1095700048F0B8FBD5F840330F33236270BD94F840
:109580002810606AD3E700BFA81801208388002B49
:109590005BD02DE9F0434FF000098FB004462B4E0D
:1095A0004FF006080DF10F054F4694F82830606A19
:1095B000012B12D0012B27628DF80F801ED00123C2
:1095C0006377D6F8403309F10109A2880F334A4581
:1095D0002362EAD80FB0BDE8F08345F03BFAC30739
:1095E0002FD5D6F84033226A9B1A002BDDDB94F886
:1095F0002830606A012B8DF80F80E0D104A901901A
:1096000006938DF81C308DF830300D97CDE9045756
:10961000CDE90877CDE90A7710F0B8FA0198026829
:10962000136A002BFCD1012294F828309342627710
:10963000C7D14FEA4942D821606AD20A48F052FBAA
:10964000BFE794F82830606AB4E77047A818012093
:1096500070B51E4D95F8703823B1D5F87438C3F342
:109660000A0303B170BDD5F878680446184BF60AB2
:10967000C3F8806094F82830012B0FD000222262BA
:10968000012B19D0D5F840330021D5F874280233C6
:1096900085F87018C5F87828236270BD606A45F0B7
:1096A000D9F9C3070ED5D5F84033216A5B1A002BD0
:1096B000E0DB94F82830E3E732461021606A48F096
:1096C00011FBDFE794F82830D8E700BFA818012085
:1096D0000000012070B52C4DC26295F8703823B19E
:1096E000D5F874388B4205D170BDC5F87418C5F82B
:1096F000781870BD044694F82810606A012928D0B3
:1097000000232362062248F039FB0123D5F878684C
:10971000637794F82830012B0BD00022012B2262B2
:1097200025D0D5F840330022023385F87028236213
:1097300070BD606A45F08EF9C3071ED5D5F8403379
:10974000226A9B1A002BE4DB94F82830012BE8D125
:109750000DE045F07FF9C20712D5D5F84033226AF3
:109760009B1A002BC7DB94F82810606ACAE7F20A3C
:109770001021606A48F0B6FAD3E794F82830CCE7B5
:1097800094F82810606ABBE7A818012010B582B0D1
:1097900004460192049A0093FFF79CFF6A4601A9D0
:1097A0002046FFF7D9FD2046FFF752FF02B010BD5B
:1097B00070B5194D95F8703803B970BDD5F8786853
:1097C0000446164BF60AC3F8806094F82830012B43
:1097D0000BD000222262012B15D0D5F84033002295
:1097E000023385F87028236270BD606A45F032F953
:1097F000C3070ED5D5F84033216A5B1A002BE4DB92
:1098000094F82830E7E732461021606A48F06AFA97
:10981000E3E794F82830DCE7A818012000000120D5
:109820002DE9F047DFF888A11F4692B00446DAF828
:1098300080300E46904690F828C0B3EBD12F37D138
:109840005A4DC6F30A06C6F50069B94534BF1FFA7A
:1098500089F91FFA87F9BCF1010F4FD0D5F84033D1
:1098600002332362BCF1010F05D000232362484676
:1098700012B0BDE8F087606A45F0ECF8C3077DD50B
:10988000D5F84033226A9B1A002B0DDA94F828C0D1
:10989000E8E7606A45F0DEF8C1075CD5D5F840031B
:1098A000236AC01A002806DB002012B0BDE8F0874A
:1098B0004FEAD1293D4D94F828C0BCF1010FE8D002
:1098C0004FF0FF33CAF88030D5F8403302332362BB
:1098D000BCF1010F04D00023CAF880902362B0E7E6
:1098E000606A45F0B7F8C2075DD5D5F84033226A03
:1098F0009B1A002BD8DA94F828C0E9E700238DF8EA
:109900000660360A00228DF8073002A903938DF80D
:1099100014300B930E9310938DF80560666A8DF8E2
:1099200028C030468DF83CC0CDE9063303238DF8BE
:10993000043001AB0293042304930023CDE908878C
:10994000CDE90C2310F022F93268136A002BFCD108
:1099500094F828C082E7002394F828C02362BCF161
:10996000010F4FF0FF33CAF88030ADD14A461321C2
:10997000606A48F0B7F994F828C0A5E794F8283051
:109980000022012B22627FF472AF606A45F062F818
:10999000C0F30113013B022B3FF669AF2046FFF7EE
:1099A0009BFC484664E794F828C094E7A818012077
:1099B000000001202DE9F843DDF820800F4616460F
:1099C0000021202204461D4649F0C6FDB8F1000FD3
:1099D0000CD0D8F80030B8F80A20E3811B0C2382A1
:1099E000D8F804306282E3821B0C2383384648F0A7
:1099F00041FAF30619D4431EB8B107EB000C01E09D
:109A0000013B12D31CF801EDBEF12E0FF8D1C01AA4
:109A100003F10109421EB944032AA8BF0322082BFF
:109A2000A8BF082390461A4606E008280246B94611
:109A30004FF00008A8BF08224FF0203339462046D7
:109A40002360636049F092FC164B04F10800424623
:109A500049462381837049F089FC611EE21D11F89B
:109A600001CFACF16103ACF1200C192B98BF81F848
:109A700000C09142F3D104F10A0011F8013FA3F1B3
:109A80006102203B192A98BF0B708142F5D118233F
:109A900065832D0CE6722373099BA582E361BDE803
:109AA000F88300BF202020002DE9F04FD24F85B071
:109AB000D7F84003C7F84403002B60D013440C468A
:109AC000154601F5FF7B99461EE0002D66D0D7F8BC
:109AD0007433AB4200F0CB80D7F87033AB4200F068
:109AE000FF80D7E9DE31AB424DD88D42C0F07C819A
:109AF000691A204643F02EFF04F500720135144622
:109B00000BF5007B4D453AD0D7F88023AA42DCD82C
:109B1000AA1AD7F89063D308316B02F00708023312
:109B20008B4202D3B26B93420BD931461846039352
:109B300043F0E0FE039B0646002800F09281C7F840
:109B400090033279002A40F02681D6F828A0BAF195
:109B5000000F00F07D81326B013520464FF400711B
:109B60009B1AF2680BF5007B08EBC308334602EB47
:109B70004822D04704F500724D451446C4D1002058
:109B800005B0BDE8F08F8D42B2D24FF400720021D3
:109B9000204649F0E1FC04F50072AFE74FF4007293
:109BA0002946204649F0D8FC8023944A84F8BE31E7
:109BB0000C2384F8C231D7F87013D7F86833914278
:109BC000C4F8C611C4F8CA3100F32E818C4A013B97
:109BD0008C4E82FB0102C81786FB01C60A44C0EB0B
:109BE0006212C0EB2630884E86FB02C6C2EB821C96
:109BF00084F8C1018010A1EB0C01164420F03F0055
:109C000001310843D117C1EBE61184F8C0010A44C1
:109C100084F8BF21794A934200F31281784A794847
:109C200082FB0312D91780FB03601A44C1EB621256
:109C3000C1EB2031744880FB0260C2EB821684F8CD
:109C4000C51189109B1B104421F03F0101331943BA
:109C5000D317C3EBE01384F8C4111A4484F8C3216A
:109C60004AF6552304F50072ABF8003046E74FF092
:109C7000FF3300264FF4F072201D84F8EC3131469A
:109C800084F8ED3184F8EE3184F8EF3152232370FB
:109C900063706123A37084F8E7314123E37084F893
:109CA000E631722384F8E43184F8E531D7F888335B
:109CB000C4F8E83149F050FC552304F50072C4F8AB
:109CC000F06184F8FE316FF05503C4F8F461C4F814
:109CD000F86184F8FC6184F8FD6184F8FF310DE7D8
:109CE0004FF4007200212046484E49F035FC484BA5
:109CF00002224AF6552C03CB45F6EB03227422735D
:109D000023809023A273A370F82384F82C200822C8
:109D1000C4F803006273C4F807106375D7F87013B2
:109D2000D7F868335B1A2362D7E9DE135B1A6362E4
:109D30000023E372E3736377A377E37784F82D302E
:109D400084F82E3084F82F3084F83130314BA36101
:109D50003E232377012384F83030802384F8403079
:109D60002D4BC4F842302D4B84F8462004F5007288
:109D700003CBC4F84B101988C4F84700A4F84F105F
:109D80009B7803CE84F85130C4F85200C4F85610C2
:109D9000ABF800C0B2E64FF400720021204649F053
:109DA000DBFB336CB8F1000F64D104F1200A002B07
:109DB00000F0A280336B112219492046CDE90088BA
:109DC000FFF7F8FD336C1A6C002A00F0A2801B6BC1
:109DD000504611221349CDE90088FFF7EBFD04F14D
:109DE000400A4FF4E07892E0E91A204643F0B2FDD1
:109DF00004F5007282E600BFA8180120FF03FB00F3
:109E000083200882975545418180808030B40508C1
:109E100018B405083F00FF0029940E0D24B405086E
:109E200010B4050814B40508FF22013B84F8C121D1
:109E30004FF6FF72A4F8BF213A4A93427FF7EEAE85
:109E4000FF2384F8C5314FF6FF73A4F8C33107E749
:109E50004FF400725146204649F07EFB04F5007233
:109E60004CE6314B04F50072C4E900330834A242D9
:109E7000FAD143E6002B766C14BF02230123C3EB17
:109E80000813002E3FF487AE013BB66C002B01DDBA
:109E9000002EF9D1A2464FF40078002E3FF47BAE9D
:109EA0000AEB080303959A460BE00025A8F1200869
:109EB000CDE900E5FFF77EFDB66CCEB1B8F11F0F1E
:109EC00016D9357906F11C0E11223168336BAAEBD5
:109ED0000800002DE9D17279A8F12008356942F017
:109EE0002102CDE900E5FFF765FDB66C002EE5D156
:109EF000039D04F5007201E6CDE9008843464FF466
:109F0000F0780822D7F86C132046FFF753FD766CE3
:109F1000C3E75046434611220449CDE90088FFF7C4
:109F200049FD5CE7FF03FB00DEADBEEF14B405089E
:109F300038B5044644F23B3390F82101A4F84C3183
:109F400000B938BD10F050FB2146054688B12622E5
:109F50000B4BC28041F80C3F46F0A0FBAA88094990
:109F60004FF00043B2FA82F20868D34003430B601B
:109F700038BD034B41F80C3FBDE8384046F08EBB7E
:109F80009D850008003C014048B182884FF00043A5
:109F90000349B2FA82F20868D34003430B6070476A
:109FA000003C014090F8DB30052B03D890F81E31BF
:109FB000032B01D00020704790F8233103F0FB03FE
:109FC000022B14BF07200020704700BF10B490F888
:109FD000443000F10801484A012BC2F87C186DD0CA
:109FE0008368464CD968A34221F46001D960D968DE
:109FF00041F46001D960996B21F440119963996B28
:10A0000041F480119963996B21F4F8419963996B3C
:10A0100041F488419963996821F4702199609968A5
:10A020009960996821F4401199609968996059681C
:10A0300021F480615960596821F48051596059694F
:10A040006FF30B0159615969596148D0D9682B4C9C
:10A0500021F0E061A342D960D96841F0E061D960A4
:10A06000996B21F440119963996B41F480119963C4
:10A07000996B21F478219963996B41F410219963CC
:10A08000996821F47021996099689960996821F420
:10A090004011996099689960596821F4806159600C
:10A0A000596821F48051596099696FF30B019961E6
:10A0B000996999611AD0002380F844301048114BF7
:10A0C000848DC18D408D091BC2F88448C2F8800878
:10A0D0005DF8044B93FBF1F3C2F888387047D4F86D
:10A0E000041341F40001C4F80413AFE706494B68B8
:10A0F00043F400034B60DEE7A81801200020014074
:10A10000007AF01F8038010000230140704700BF33
:10A1100001483CF06BB800BF48210120084810B44A
:10A12000D0F8A038D0F8D44899691A682CB12346E1
:10A1300000F50A605DF8044B18475DF8044B704762
:10A14000A818012001483CF051B800BFA821012007
:10A15000084810B4D0F80039D0F8344999691A6821
:10A160002CB1234600F510605DF8044B18475DF8EC
:10A17000044B7047A818012001483CF037B800BFD5
:10A1800008220120084810B4D0F86039D0F894496A
:10A1900099691A682CB1234600F516605DF8044BE6
:10A1A00018475DF8044B7047A818012030B40469C3
:10A1B000002341684025E46882690C315462446997
:10A1C0009560536093631160C2E90333C2E90533BC
:10A1D000C2E90733C2E90A33C2E90C3384B1C26968
:10A1E000E068936350621160C2E90133C2E903334E
:10A1F000C2E90533C2E90733C2E90A33C2E90C33C5
:10A2000030BC7047114A037A0168D35C10B4CC5853
:10A21000CA1824F00104CC501368DB07FCD4037D7A
:10A220001F2B09D9203B20225DF8044B02FA03F3CF
:10A2300043F01803CB60704720225DF8044B02FA0C
:10A2400003F343F018038B60704700BFCCB40508DC
:10A25000F0B50668356A00295DD12B68AC68B7692E
:10A26000002B60D09C46344B0CEA0303B3F1005F33
:10A270005DD00CF01F0104F11F032CF01F021944E4
:10A2800021F01F01BFF34F8F00290BDD114402F1B4
:10A290002003DFF8A8E08B42CEF868221A4603F1CB
:10A2A0002003F8D1BFF34F8FBFF36F8F02684FF4D5
:10A2B00080637B615369C7F804C03C6253B36B6829
:10A2C000F569002B35D01E461B4B3340B3F1005FC0
:10A2D0001BD006F01F0104F11F0326F01F021944D2
:10A2E00021F01F01BFF34F8F00290ADD114402F155
:10A2F000200312488B42C0F870221A4603F1200353
:10A30000F8D1BFF34F8FBFF36F8F4FF480636E6050
:10A310006B612C62F0BDEC69002CFBD06B691435CD
:10A32000B769002B9ED1DFF81CC03246C1E7324628
:10A33000BDE7034EEBE700BF0000FFFF00ED00E0CC
:10A3400048000020440000202DE9F0410468D4E9D1
:10A3500004351A7DD3E90061002D4DD01F2AA86174
:10A3600038D820202F6800FA02F242F01802B260BA
:10A370002A7D1F2A39D9203A202000FA02F242F021
:10A380001802FA606A6800200860106030461168A0
:10A3900041F01001116093F80880A269414645F030
:10A3A00039FE2D7AE2693846294645F033FE274BBF
:10A3B000626813F80800595D335843F001033350C5
:10A3C0007B5843F001037B50536843F00303536011
:10A3D000BDE8F081203A20202F6800FA02F242F016
:10A3E0001802F2602A7D1F2AC5D8202000FA02F246
:10A3F00042F01802BA60C5E71F2A98611ED82020D3
:10A4000000FA02F242F01802B260002230460A60FE
:10A410000A6842F010020A601D7AA269294645F0D6
:10A42000F9FD0A4B6268595D735843F0010373509C
:10A43000536843F002035360BDE8F081203A2020C6
:10A4400000FA02F242F01802F260DEE7CCB405082E
:10A4500010B1036882889A61704700BF18B1838881
:10A4600002681B049361704708B51D2010F0BCF80A
:10A4700008B183794BB11E2010F0B6F808B183798A
:10A4800003B108BD5523C38008BD5523C380F2E73F
:10A49000D3B2012B23D802EB420270B54FEA820EF1
:10A4A000104C002223460EF1080503E001321C3354
:10A4B000182A12D093F800C08445F7D193F801C050
:10A4C0008C45F3D15E59002EF0D0C2EBC2020EF1E2
:10A4D000040303EB8203E01870BD002070BD002070
:10A4E000704700BFB03F050810B40C4C002304F6C1
:10A4F0000C2C01E0152B0CD003EB430201331CF8AC
:10A5000002108142F6D1144494F90E0A5DF8044B0E
:10A5100070474FF0FF305DF8044B7047A8180120DA
:10A52000D3B2022B21D802EB420270B54FEA820E61
:10A530000F4C002223460EF10C0503E001322C33B0
:10A54000172A10D01E68B042F8D193F804C08C4589
:10A55000F4D15E59002EF1D02C210EF1080301FB3D
:10A560000233E01870BD002070BD0020704700BFAE
:10A57000703A0508002838D0002330B51B4D90F8FC
:10A5800004C005F60C2401E0152B2CD003EB43028C
:10A590000133A15C6145F7D11544046890F805E0EA
:10A5A00095F90E3ADAB2022A1DD803EB430310489C
:10A5B00000224FEA830C03460CF10C0503E0013244
:10A5C0002C33172A0FD019688C42F8D119797145AC
:10A5D000F5D159590029F2D02C210CF1080301FBC7
:10A5E0000233184430BD002030BD7047A818012048
:10A5F000703A05080348D0F894300BB184301847FE
:10A60000704700BF000001200348D0F8B8300BB1FC
:10A61000A8301847704700BF000001200348D0F859
:10A62000DC300BB1CC301847704700BF0000012070
:10A630000348D0F800310BB1F0301847704700BF25
:10A64000000001200348D0F8243113B100F58A70CE
:10A6500018477047000001200348D0F8483113B173
:10A6600000F59C7018477047000001200348D0F89F
:10A670006C3113B100F5AE7018477047000001202F
:10A680000348D0F8903113B100F5C07018477047F7
:10A69000000001200348D0F8B43113B100F5D270A6
:10A6A00018477047000001200348D0F8D83113B193
:10A6B00000F5E47018477047000001200348D0F807
:10A6C000FC3113B100F5F670184770470000012007
:10A6D0000348D0F8203213B100F5047018477047D2
:10A6E000000001200348D0F8443213B100F50D708A
:10A6F00018477047000001200348D0F8683213B1B2
:10A7000000F5167018477047000001200348D0F884
:10A710008C3213B100F51F701847704700000120FC
:10A720000348D0F8B03213B100F5287018477047CD
:10A730000000012001380E4B0E4A00EBC000116BE7
:10A7400003EB800310B4D3F8843083B00A4CA342E7
:10A7500014BF4FF480034FF4001319431163126BBD
:10A7600013400193019B03B05DF8044B704700BF99
:10A770000000012000380240006002400138F8B5B6
:10A7800000EBC000124C1D46124B04EB8004174630
:10A790000E46D4F88400984214BF9620952043F0CA
:10A7A00089FD94F99900B909C4F89460C4F89C50E3
:10A7B00043F0C0FC94F99930002B07DB03F01F0035
:10A7C00001225B090449824041F82320F8BD00BF03
:10A7D000000001200060024000E100E0800AA0F5D6
:10A7E0008010522808D8054B034493F8F4330D2BFE
:10A7F00002D8034AD056704700207047703A0508C7
:10A80000BCB405080120FEF711BA00BF0220FEF714
:10A810000DBA00BF0420FEF709BA00BF0820FEF7FA
:10A8200005BA00BF1020FEF701BA00BF4FF47870E0
:10A83000FEF7FCB94FF47C40FEF7F8B930B103687D
:10A8400082881B691A4214BF01200020704700BF94
:10A850002DE9F04F0E4683B004461546002800F05F
:10A86000C7800268644B13449B0A644AC6F34119CB
:10A87000134493F8E00743F01DFDC6F38103B4F8D9
:10A8800004E006F00301246801939EFAAEF0B0FAEA
:10A8900080F001F1FF383EFA00F367D00122032770
:10A8A000009603E001303EFA00F35ED002FA00F3B6
:10A8B00013EA0E03F6D0D4F800C093FAA3FBBBFA58
:10A8C0008BFB93FAA3FABAFA8AFA4FEA4B0BB8F168
:10A8D000010F4FEA4A0A07FA0BFB01FA0AFA2CEABF
:10A8E0000B0C4CEA0A0CC4F800C04ED9D4F80CC0CA
:10A8F00093FAA3FBBBFA8BFB93FAA3FABAFA8AFA90
:10A900004FEA4B0B02294FEA4A0A07FA0BFB09FAF6
:10A910000AFA2CEA0B0C4CEA0A0CC4F80CC0C1D1A0
:10A9200093FAA3FABAFA8AFA4FEA132CBAF1070F8C
:10A9300045DCD4F820C093FAA3FABAFA8AFA93FA5B
:10A94000A3F34FF00F0BB3FA83F34FEA8A0A0130F7
:10A950009B000BFA0AFA05FA03F32CEA0A0C4CEAFC
:10A96000030323623EFA00F3A0D1009EB8F1010F69
:10A9700008D86268C6F3001322EA0E020EFB03F346
:10A980001343636003B0BDE8F08FD4F808C093FAB6
:10A99000A3FBBBFA8BFB93FAA3FABAFA8AFA4FEA43
:10A9A0004B0B019E4FEA4A0A07FA0BFB06FA0AFA1A
:10A9B0002CEA0B0C4CEA0A0CC4F808C096E7D4F851
:10A9C00024A09CFAACFBBBFA8BFB9CFAACF34FF0D7
:10A9D0000F0CB3FA83F34FEA8B0B9B000CFA0BFCC2
:10A9E00005FA03F32AEA0C0A4AEA0303636259E709
:10A9F0004FF0FF3339E700BF0000FEBF703A050893
:10AA000000B125E7704700BF2DE9F84F6D4EC0EB50
:10AA1000001306EBC303D3F84C4A002C00F08A80E5
:10AA200093F8BC8A05460701404643F043FC0122E7
:10AA30004FEA581308F01F08013B02FA08F2032BF3
:10AA400008D8DFE803F0ADB302B95F490B6A23EA27
:10AA500002030B627B1B05F1010B06EBC3035FFADC
:10AA60008BFB93F8500A0FF0BFFD804618B11223FC
:10AA700080F807B083717B1B06EBC30393F8510A80
:10AA80000FF0B2FD824618B1132380F807B083712E
:10AA90007B1B06EBC30393F8520A0FF0A5FD81461A
:10AAA00018B1142380F807B083717F1B50462E2104
:10AAB00006EBC70696F8542AFFF7A2FF96F8552A28
:10AAC00048460E21FFF79CFF96F8532A2E21404658
:10AAD000FFF796FF23683D4A23F04003944223602A
:10AAE0002AD03B4B9C4231D103F500331A6A42F421
:10AAF00080421A621A6A22F480421A62636843F43E
:10AB00008053636023685B060CD4206840F21732E0
:10AB10003049314B01400A4322606268134043F4DC
:10AB2000E0636360E36923F40063E361236843F057
:10AB300040032360BDE8F88F234B5A6A42F48052E9
:10AB40005A625A6A22F480525A62D7E7234B9C42D7
:10AB50001BD0234B9C420DD0224B9C42CED103F5FF
:10AB600068435A6A42F480125A625A6A22F4801286
:10AB70005A62C3E703F582335A6A42F400525A62BA
:10AB80005A6A22F400525A62B8E703F5FE331A6A91
:10AB900042F400421A621A6A22F400421A62ADE7D5
:10ABA00009494B6923EA02034B6153E706494B6AA3
:10ABB00023EA02034B624DE703490B6923EA0203D0
:10ABC0000B6147E7A818012000380240003001401F
:10ABD000003800404000FFFFFBF0FFFF003C00405A
:10ABE000003401400050014008B1002230E67047B7
:10ABF00002692DE9F041167884B004460D46012E15
:10AC000016D10B7900F110074FF00008013B8DF8C9
:10AC1000058013710DF105024B797521002B08BFDA
:10AC200068230375334638460FF070F978B9226906
:10AC300002231370EE7836B104F11007A978384674
:10AC40000EF046FE30BB002004B0BDE8F081206964
:10AC500046F014FB334641460DF1060238460FF02C
:10AC600055F99DF8063003F07E03682B8DF8063009
:10AC700001D1002841D19DF8053003F07E03682BF7
:10AC80008DF805303CD0702B02D1042384F8D830E5
:10AC90000120D9E730460FF0A7FCA0612B780646CB
:10ACA0000133DBB210B1C3712223837130460D2111
:10ACB000FFF79AFF3046FFF7CBFB334AD2F8403319
:10ACC000632BFBD931480EF0EFFD314E314BA082A2
:10ACD00002E056F8043F53B138469847034600282F
:10ACE000F7D0206984F8D83046F0C8FAD0E7E87881
:10ACF0000FF07AFC0FF0D6FCA5E784F8D860C7E720
:10AD00000623022102AA384684F8D81019460FF00B
:10AD1000FDF89DF80D309DF80B209B00520003F0CC
:10AD2000040302F0020213439DF8092002F001021D
:10AD300013430ED068B1032B05D8012B05D1002396
:10AD400084F8D930A4E7072B19D1012384F8D9302E
:10AD50009EE701230DF107020C2138460FF0D6F8CB
:10AD600080F001039DF80720DBB202F00F0233B937
:10AD7000B2FA82F35B0912B1042AE6D1E6E70320B6
:10AD800010F06EFC84E700BFA818012040420F00BD
:10AD900058420508C92F04082DE9F74F6023DA4C03
:10ADA000054603FB0043D3F88C78D3F89468D3F8B6
:10ADB0009888002F00F09D811EB1B379002B40F0E0
:10ADC0009881B8F1000F04D098F80630002B40F0BD
:10ADD00090816B1CDBB216B11522F371B271B8F120
:10ADE000000F04D0162288F8073088F80620387C37
:10ADF0004FF0090943F05EFA3046FFF729FB404661
:10AE00001121FFF725FB3046FFF7EEFE11214046EA
:10AE1000FFF7EAFE4FF0330A05E0BAF1010A07D066
:10AE20000A200FF057FF3046FFF708FD0028F4D046
:10AE30003046FFF713FB05200FF04CFF3046FFF7BD
:10AE400007FB05200FF046FFB9F10109E2D13046BA
:10AE50004FF0600BFFF702FB05200FF03BFF404671
:10AE6000FFF7FCFA0BFB05FB05200FF033FF304624
:10AE7000FFF7EEFA04EB0B0A05200FF02BFF40461C
:10AE8000FFF7E6FA9AF89C3830460422002B0BF1C3
:10AE900014060CBF1E213E210191FFF7B1FD404673
:10AEA000DFF88882042201994644FFF7A9FD4C226D
:10AEB0004946304648F050FBDAF88C389FED937ADB
:10AEC000B0EE084A5B68F7EE003A9FED915ACC4627
:10AED000CAF8A0388F4B9A68BAF89E38C2F382221B
:10AEE00003EE103A8C4B134493F80428D4F89C33A7
:10AEF000D34007EE903AF8EE677AC7EE275A9FEDF7
:10AF0000877AF8EEC37AC7EE274ADFED857AB0EE8E
:10AF1000007AE5EE877AA5EE875A25EE844A37EE69
:10AF2000856A34EEE72A13EE103A0CF1010EB3F500
:10AF3000C87F40F2145307EE90EADBBF19464FF486
:10AF4000967278226423C8BF3223F8EEE76AD4BF32
:10AF50004FF4167B4FF4827B1344A2F1320266EE6B
:10AF6000A56AC8BF4FF4FA7107EE903A5944B8EE9B
:10AF7000E77AC7EE267A07EE102AB8EEC77A37EEE0
:10AF8000447A77EEE37AFCEEE77A17EE903AC7EE72
:10AF9000267AFCEEE77A17EE900A07EE90BAF8EE02
:10AFA000E72A07EE901AF8EEE77A62EEA42A82EE1C
:10AFB000A77A77EE452A32EE477AC2EEA67A77EE86
:10AFC000E37AFCEEE77A17EE901AC7EE267A77EE70
:10AFD000E37AFCEEE77A17EE902A02F1020B0BEB14
:10AFE000010AB0EE467A07EE90AAF8EE677AA6EE6E
:10AFF000A77AF4EEC74AF1EE10FA7DDC43EA000BC3
:10B000005FFA8BFBBBF10F0F78D841EA020B1FFAF6
:10B010008BFBBBF1FF0F71D81B05000403F07F63AE
:10B0200092B200F47F0003433E4843EA0C7300EA07
:10B0300001210B4343EA0209602330465D430123AB
:10B040002C442835C4F8A498A8444FF00009C4F84B
:10B05000AC38C4F8A898C4F8B098C4F8B498C8E953
:10B06000029945F0A9F994F8E138202BD9B21AD108
:10B0700094F8E038012B16D0242384F8E138D4F872
:10B08000A0381A6822F001021A601A6822F480526D
:10B090001A601A681A601A6842F001021A6084F88D
:10B0A000E11884F8E098002197F9120043F042F883
:10B0B00097F91220BB7C002A08DB5909012203F012
:10B0C0001F0302FA03F3184A42F82130002197F9CE
:10B0D000110043F02FF897F911207B7C002A08DB40
:10B0E0005909012203F01F0302FA03F30E4A42F842
:10B0F000213003B0BDE8F08F013170E7BEF10F0FD2
:10B100009AD0F4460FE700BFA8180120286B6E4EB6
:10B110000000164300380240703A050800247449C4
:10B120000000704200FFFF0000E100E03421012038
:10B1300070B50E4CD4F8346B002E15DD04F5876421
:10B14000002503E001352034B5420DD0237F002BCC
:10B15000F8D0E06800220028F4D00135217DFFF707
:10B1600077FB2034B542F1D1012070BDE001002011
:10B170002DE9F04F002393B0A64E0293A64BA6F6FE
:10B18000081ADFF89C9293F83EECA44D0EF1FF37BD
:10B19000CDF80CE0FBB20193DFF898B2DBF8007059
:10B1A000BB0AA3F58013522B00F2D780534493F8C7
:10B1B000F4330D2B00F2D18015F90380039B012B92
:10B1C00000F01D81039B022B02D1B8F1080F3AD188
:10B1D00000242146404610F095FA10F01BFB90F831
:10B1E00000C0BCF1000F18BFBCF1540F14BF4FF0EA
:10B1F000010C4FF0000C40F0F8800434A4B2102C85
:10B20000E7D1029B002B00F0B380854A0CE0534449
:10B2100093F8F4330D2B0ED8EB5643450ED002F5C0
:10B2200086724A4500F0A08091680B689B0AA3F5DE
:10B230008013522BEBD900234345F0D14B799BF877
:10B2400005109942EBD10BF11C0BB345A6D1029B23
:10B2500009F586790133042B02939DD1DFF8D8A13B
:10B260000023AAF5876B01930AF59E730293DBF81E
:10B27000343B019A93426DDD674BDAF80C7093F81A
:10B28000542C9AF810300393002F63D03B68DBF8FE
:10B2900004506448B988002D184404914FEA902066
:10B2A00040F3CE805E4E002405E0013406F586763C
:10B2B000AC4200F0C38031688142F6D1584A4FF465
:10B2C0008671DDF810C001FB0424039A019E8AF800
:10B2D0001020049A0136CAF80C70B2FA82FE0322DA
:10B2E000CAF81840CEF11F056800CAF80450BA71B8
:10B2F000FE7102FA00F7A16C0122D4F854803943A0
:10B3000002FA00F002FA05F59BF80070A164216DC5
:10B310000143D4F8AC002165A9B2002F00F0F980F8
:10B3200045EA08056565C3F818C0FCF7E3FE20464A
:10B330000AF1200AFCF7B2FE40F201120123082EA6
:10B340002AF8042C029A019602F1180202F8073C2E
:10B3500002928CD113B0BDE8F08F019B012B7FF6D8
:10B3600072AF4FF0000833E7BCF1000F7FF46BAF12
:10B370005846FCF759FE9BF805E0C3B2022B00F2D9
:10B380008B8300F1010C284A0CEB4C0C02F57D700C
:10B390004FEA8C0C03E02C32904200F07D8313685E
:10B3A0009F42F8D113797345F5D152F80C30002B38
:10B3B000F1D01E48002142689A4212D00131243057
:10B3C0001029F8D14FF0FF3303EBC303184A02EB07
:10B3D000830393F8A030002B7FF435AFC9F808B091
:10B3E00035E74B1CDBB2013BEEE7029B002B7FF401
:10B3F0000CAF0BF11C0BB3457FF4D0AE27E7B8F1CF
:10B40000010F3FF4E5AE0BF11C0BB3457FF4C6AE64
:10B410001DE700BF78430508A8180120BCB4050843
:10B42000E80100200000FEBF703A050884000120FA
:10B43000000001207C42050818060020042C76D06C
:10B440004FF4867101FB05B10C690694002C00F0E5
:10B45000058388600130CDE90723C4B2069B5420E0
:10B4600081F8114181F81001691C18461E685B794A
:10B47000CBF804100593FCF7D7FDC1B28146022931
:10B4800000F20A8300F1010E4FF0000CA7480EEB0A
:10B490004E0E079ADDF814804FEA8E0E089B06E0E8
:10B4A0000CF1010C2C30BCF1170F00F0F582016893
:10B4B0008E42F5D101794145F2D150F80E100029A4
:10B4C000EED088462C2109EB4909984801FB0CF184
:10B4D00001EB8901DFF894920144CC4608694FF4EE
:10B4E000867101FB05B1C1E907800020DCF804107A
:10B4F00041452DD001300CF1240C1028F6D18C4B95
:10B5000093F87C20BAB9542283F87D4083F87C20DC
:10B5100011E0CEF12F0E02FA0EF242EA0802626545
:10B520004FEA0C429A613A46FCF7E4FDFFE603233A
:10B53000804A82F8553C804B80488149814AC3F853
:10B540004804C3F84014C3F8502413B0BDE8F08F8A
:10B55000411C7748C9B2013901EBC10100EB810EF2
:10B560009EF8A01008910029E5D14FF48671764825
:10B570004FF08C0C8EF8A14001FB05F1734C062AAC
:10B5800007914FEAA10100FB01F107985844C360FD
:10B5900004F54C73C0F800C10CFB01FC01EB410148
:10B5A00003EB4C0301EB0111C0F8FC304FF05403E6
:10B5B00004EB810407998EF8A0304FF03303C0F8F4
:10B5C000B440C0F8B830624B03EB0104594BD3F8D8
:10B5D0009C1300F03182072A5E4B5F485F4A18BF18
:10B5E0001A465F4B18BF03463046B1FBF3F3B1FB7D
:10B5F000F2F2013B511E4FF486729BB202FB05B280
:10B60000A2F8BC10A2F874302366079B03F158011E
:10B610004F4B19440023A4F858306366E36544F0A7
:10B62000B1FB3368059A43F0800333600C2A0ED8CF
:10B63000DFE812F0AC010D000D000D008B010D00D4
:10B640000D000D00CB010D000D000D0068014FF441
:10B6500086736022304603FB05B30A924FF4807272
:10B66000596933681092012223F0010309910B926A
:10B670000A22336000230C930F9311930223CDE928
:10B680000D230AAA44F036FA09990023B1F5807F08
:10B6900000F0F68100F2D381102900F0FA8100F267
:10B6A000E281012900F0F381042915BF4FF4006203
:10B6B00008223C23002306F11801C8580243CA504F
:10B6C000069B1879002840F0A681336843F00103F7
:10B6D00033600023D9F804200133904500F09781AE
:10B6E000102B09F12409F5D14FF0FF33104A03EB79
:10B6F000C30302EB8303D3F884001A4B984214BFB0
:10B700009620952042F0D6FD059B0C2B00F27C8103
:10B71000064A02EB4303B3F808C94FF48673124993
:10B7200003FB05B3A3F818C0002328E0703A05080E
:10B7300000000120A8180120D81200200576010879
:10B74000017601080D7601086B4CA407381700201C
:10B75000E801002044950800D0DD060010552200C5
:10B7600040771B000060024004110020840001208B
:10B77000964200F080810133042B00F0908151F853
:10B780003320002AF4D1DBF8202F0132CBF8202F10
:10B790000BEBC302DB00C2F8246F19440898234660
:10B7A00090228E884CEA060C0026A1F804C0BD4900
:10B7B000FEF7E4FF4FF4867340214FF4403003FB63
:10B7C00005B8B94A4FF4804CD8F81C502B6843F0A8
:10B7D00010032B602B6843F014032B60C4F8A8609F
:10B7E000C4E91F66C4E92866D8F82030A16704219F
:10B7F000C4F89430C4F89C10E9B208934FF4806305
:10B800001039C4F89800C4F8843025F0FF00A2FB7A
:10B810000121D8F8B820079BC4F890204FF480523B
:10B82000D8F80C900909C4F8882009F1180209F128
:10B830001009226703F170029C4B1A44D8F8B43007
:10B84000C4F88CC06367CDE9050144F0E3FBD5F88B
:10B8500000E0079BC4F820E0D5F814E003F1B8023B
:10B86000924BC4F824E0D5F804E01A44089BC4F8CD
:10B8700028E0D5F808E0C4F82CE0D5F80CE0C4F8CE
:10B88000DC300423C4F8C860C4F8E4304FF48063AB
:10B89000C4F8F060C4F8CC304FF40033C4F830E0A2
:10B8A000C4F8E030C4E93066C4E93A664FF4006693
:10B8B000D8F80031C4F8B890C4F8D0604FF480468E
:10B8C000C4F8D830D8F8FC30C4F8D460C4F8BC3020
:10B8D000DDE9050144F09EFB2B68B7F804C0636303
:10B8E0006B69A3636B68E363AB682364EB686364B1
:10B8F0002B6843F010032B602B6843F014032B607C
:10B900003B68E2E433684FF486724FF480514FF0A5
:10B91000020E23F0010302FB05B2304651610AAA70
:10B92000336000230C930F93119360230A934FF419
:10B930008073109301230B930A23CDE90D3E44F04D
:10B94000D9F84FF400620423B5E64FF48672102153
:10B950003368022002FB05B223F00103516160222B
:10B96000336000230A924FF480720C9310920122EC
:10B970000F930B920A221193CDE90D200AAA3046AB
:10B9800044F0B8F800234FF4006294E64FF4867256
:10B9900033680121304602FB05B223F001030B910D
:10B9A00051616022336000230A924FF480720C933D
:10B9B0000F931193022310920A22CDE90D230AAAB4
:10B9C00044F098F80023082275E633684FF4867235
:10B9D0004FF48071022023F0010302FB05B21091A5
:10B9E00051616022336000230C930F931193012364
:10B9F000CDE90A230A230AAACDE90D30304644F0E6
:10BA000079F80822042356E64FF0000C85E6DBB2F5
:10BA10000893013B6AE60EF0E7FD099038B1069BFA
:10BA20000221DA79FEF714FF5422099BDA80736C45
:10BA300043F40043736448E61D4A1E4BD4E5B1F558
:10BA4000805F20D0B1F5803F17D0B1F5806F15BF72
:10BA50004FF4006208223C2304232CE60223164AFA
:10BA600082F8553C67E5402915BF4FF40062082273
:10BA70003C2300231FE6DB008FE608223C231AE666
:10BA80000822042317E64FF40062042313E6082279
:10BA900011E64FF400620EE600235B68FFDE002330
:10BAA0009B88FFDE41810008ABAAAAAAE80100201A
:10BAB000882A1100A0BB0D00A818012070B590F8CD
:10BAC000B2311C09013C052C0FD81A4E054603F073
:10BAD0000F0306EB4402B2F8240940FA03F2D2073E
:10BAE00003D595F8BD21012A01D0012070BD9A40EF
:10BAF0002644013A104047F0DDFD96F830390E4AF1
:10BB0000034402EBC30452F83320A38810691840A1
:10BB1000ECD0002395F8B3210221204685F8BD31F1
:10BB2000FEF796FED5F82021136843F00803136052
:10BB3000DBE700BF703A05080025012008B90020A6
:10BB400070472DE9F04F00228DB02F2104460FF0F1
:10BB5000B7FE064600B390F80590984FD0F800A0C5
:10BB6000A7F8AC94FEF706FDB0B1D0E901530193FC
:10BB700095B1DFF880820022414640464368013299
:10BB800024309D420CD0102AF8D18D4B93F87C20A4
:10BB900012B92F22A3F87C2000200DB0BDE8F08F51
:10BBA000D2B2874B013A02EBC20203EB8200920051
:10BBB00090F8A0B0BBF1000FEED111442F22C7F8CE
:10BBC0006CA48A83D7F89C137E4A914280F0D78078
:10BBD0005A46090A7C48C7F870240022A0FB0110CD
:10BBE0007A49C7F87C24C7F8742402090009A1FB2C
:10BBF0000212C7F878045208A7F85A2F5200A7F883
:10BC0000582F97F8A92402F0FF01002A00F0C38002
:10BC1000022250466E4987F8A9243CF033FD0122E8
:10BC2000204687F8A9240EF0DFFCC7F85C0F28B186
:10BC30002F21C1804E21F279FEF70AFE019B0022DE
:10BC4000C7F8605FB9F10C0FC7F8643F614BC7F8E4
:10BC50006C2FC7F87C2FC7F8842FC7F88C2FC7F834
:10BC6000902F196B41F400111963196B01F4001145
:10BC700003910399196B41F4800119631B6B03F461
:10BC800080030493049B4FF04003C7F8683F4FF4D0
:10BC90008063C7F8703F4FF48053C7F8743F4FF488
:10BCA0008043C7F8783F4FF40033C7F8803F4FF028
:10BCB0000303C7F8883F71D8474B03EB4903B3F838
:10BCC0003849A246083445494346002207EB840020
:10BCD000C0F86C14A1F6F421C7F8981F5968013216
:10BCE00024338D425DD0102AF8D14FF0FF3202EBA1
:10BCF000C202334B03EB8203D3F88400384B9842E3
:10BD000014BF9620952042F0D5FA0023D8F80420DD
:10BD1000013308F12408954246D0102BF6D107EBE9
:10BD200084075846534660222E49FEF727FDD7F870
:10BD30006C043AF0ADF800287FF42EAFB47960219E
:10BD40000A904A46630005910B9005A903F002038F
:10BD5000069009900793E300234803F00803089333
:10BD600041F0D8FF00287FF417AFA30749461E48CB
:10BD70001DD53CF06FFDB0FA80F040090DE71B4A7D
:10BD80001B480A44A0FB0202920D013A92B2501CD9
:10BD9000B1FBF0F11DE787F8A81439E79246144685
:10BDA00090E7D2B2013AA2E75FFA83FBB7E73CF033
:10BDB00039FCB0FA80F04009EFE600BFA818012076
:10BDC00000000120006CDC02598B4F01ABAAAAAA2B
:10BDD000181D012000380240703A0508082801208B
:10BDE000006002407D900008141D012000366E01A5
:10BDF000819F5E1684000120014B53F8200070479C
:10BE000050280040014B43F8201070475028004054
:10BE1000204B2148196C214A41F0805130B41964FB
:10BE200082B0196CFF2401F08051019101990168E1
:10BE300041F480710160CA20196C41F48061196479
:10BE4000196C01F4806100915321009D546250628D
:10BE500051625B6FDB0013D4114B00221149C3F810
:10BE60005428C3F85828C3F85C28C3F86028C3F8DE
:10BE70006428C3F86828C3F8501802B030BC704773
:10BE8000A2F50062074BD2F850289A42E4D102B0E2
:10BE900030BC70470038024000700040002800406D
:10BEA00000200040316665422DE9F04706460868EB
:10BEB00088B00C46850ABDF84080A5F580159DF830
:10BEC00044A0522D55D819462D4B2B4493F8F453CA
:10BED0000D2D4ED82B4FFDF70FF994F8059007EB79
:10BEE0008517A379BAF1000F01D083F001035A003E
:10BEF0004FF48071DB00384602F00202CDF8088072
:10BF000003F0080303924A460493602301934FF41D
:10BF10000073CDE90613002301A9059341F0FAFE51
:10BF2000A379384649469F0726D43CF07BFB164B45
:10BF3000A801022203EB8515D5F8B01485F8ED248D
:10BF4000124A8D682A40062A06D0B2F5803F03D0F7
:10BF50000A6842F001020A600344012283F8ED24DA
:10BF60002168637901F1340271600021D0183060DA
:10BF7000D15008B0BDE8F0873CF06CFCD7E700BFBB
:10BF8000703A0508581D0120A8180120070001007B
:10BF90002DE9F84FD0F894700446524B00F1640636
:10BFA000FDB227F0FF09826800F1180A103D4846EB
:10BFB000D2F80080A3FB05352D09294644F072F81C
:10BFC000626D0023B2F5807F84F858307ED00DD8A2
:10BFD000102A00F083805CD8012A45D0042A16BFBD
:10BFE0006FF400616FF008013C230EE0B2F5805F52
:10BFF00070D0B2F5803F3AD0B2F5806F15BF6FF4C4
:10C0000000616FF008013C230423324608F1180652
:10C01000404656F803C001EA0C01F150D4F854B080
:10C02000594643F067FDBBF5807F2DD023D8BBF187
:10C03000100F3ED036D8BBF1010F02D0BBF1040F78
:10C0400033D14FF0080C336852462946484643EA3C
:10C050000C0333604023236243F0DCFF3B6843F072
:10C0600010033B60BDE8F88F6FF00801CDE76FF07B
:10C0700008013C23C9E7BBF5805F22D0BBF5803FB8
:10C080001AD0BBF5806F10D108F11C064FF0080CD8
:10C09000D9E7402A15BF6FF400616FF008013C2317
:10C0A0000023B2E7BBF1400FCBD03C364FF4006C1D
:10C0B000C9E74FF4006CC6E708F154064FF0080CCE
:10C0C000C1E708F11C064FF4006CBCE76FF00801F3
:10C0D00004239AE76FF40061042396E76FF400618C
:10C0E00093E700BFABAAAAAA2DE9F04FDFF840B250
:10C0F00087B09BF800301BB9012007B0BDE8F08F76
:10C10000854BD3F8403304930EF0B6FD834A92F882
:10C11000243C002B00F0F8800BF23464D2F81C347D
:10C120000BF6383A0BF61868C31A26460027059412
:10C130000193019A002A03DBF36D934200F3CA8056
:10C1400007EB87030BEB431393F88C3603F0FF0EDA
:10C15000002B00F08680D6F89410B36870481A68F7
:10C16000CBB221F0FF01103BA0FB03036D481B097C
:10C17000C35C0B44B1895C68D368A4B223EA0103B1
:10C18000C4F11604D360072C6BD9DBF8203E0022E3
:10C190000121013315468946CBF8203ED6F89C3064
:10C1A000CDE902E718689C4615E0142D1EDC17F156
:10C1B000080E48BF07F1170E4FEA2E1705EB2E1594
:10C1C00007F1FF3E013102FA07F709FA0EFE8C4231
:10C1D0004EEA07020AD307468C425CF8040FA0EB34
:10C1E0000707E2D8C5F115071525E9E7152DDDE9A3
:10C1F00002E766D14C4CC2F38421C2F3441004EB35
:10C20000810104EB8000D1F85419D0F854090902D7
:10C2100041EA001102F01F00C2F3C43204EB8000B7
:10C2200004EB8202D0F85409D2F85429014341EAC0
:10C23000023282EA122181EA111101F00F010F2965
:10C240003FD1C2F30F124FF6FF718A4239D0B2F5D7
:10C25000606F43D0A8F80C207146049A50460DF048
:10C26000CBFA30460137FFF793FE2C4BA0360AF18C
:10C270005C0A93F8243C08F11408BB423FF759AF1D
:10C2800001222649059C8BF81E2F0022C1F81C2490
:10C29000002B3FF431AF03EB830304EB4313A2689D
:10C2A000A03414F8901C126854F84C0C11F0020FD2
:10C2B000116A14BF41EA800101439C421162EED130
:10C2C0001AE7DBF81C2E0132CBF81C2EB7B14FF069
:10C2D000000EC1E7002007B0BDE8F08F0E4991F8CD
:10C2E0005C3403EB430301EBC3033B4493F8093491
:10C2F0000D2BAFD1802388F81E30ADE719465822A8
:10C300000A4847F033F8E2E7012204498BF81E2F70
:10C31000C1F81C34F0E600BFA8180120D812002094
:10C32000ABAAAAAACCB40508703A0508A41000204C
:10C33000E00100204A1C4FF4003310B418BF4FF046
:10C34000450C484C08BF4FF0800C00E00BB3626B0B
:10C35000013B12EA0C0FF9D0002925DD626B54076E
:10C360001ED4032920D03F4B5A6BD20720D4022978
:10C370001CD01A69D2B282421ED101295B691DD03C
:10C38000062913D113F4604F44D1374AC2F8C03F95
:10C390000CE0002904DD636B5B0701D40329E2D1C3
:10C3A00003205DF8044B7047002BF9D00020F8E71C
:10C3B00001205DF8044B70471020F2E72B4A1A4029
:10C3C000002AF3D0002B31DB5C002DD4980031D44F
:10C3D000D9002DD41A0131D45C012DD4D80137D421
:10C3E00019021DD45A02E7D49C022DD4D80229D4B4
:10C3F000190317D45A0323D49C0331D4D8032DD462
:10C40000190429D45A0425D49C041FD41807CDD567
:10C410001A20C6E7990405D45A04CDD41B04C5D507
:10C420000F20BEE71320BCE70920BAE71C20B8E7BD
:10C430000B20B6E70A20B4E70D20B2E70C20B0E7E6
:10C440001420AEE71220ACE71120AAE71920A8E7D4
:10C450000E20A6E71820A4E71720A2E71620A0E7E1
:10C4600015209EE7002C0140A818012008E0FFFDE0
:10C47000F8B5164DD5F8EC3FA3B1D5F8F41F044636
:10C48000012915D0124B40F2FF500021DA6A22F048
:10C490000802DA629863C5F8EC1F236823F00103F1
:10C4A0002360F8BD0A4AD36B43F48073D363F8BDAD
:10C4B000074E40F2FF5700230C20B763B36040F2F1
:10C4C0004C43F360FFF736FFB763DBE7A8180120A2
:10C4D000002C01402F4B1A68910102D59A6D52072A
:10C4E0004BD42C4B1A68500202D5DA6E11063CD49C
:10C4F000284B1A68D20102D59A6D90072DD4254B8E
:10C500001A68510102D59A6D120717D4214B1A6887
:10C51000120112D59A6DD0060FD59A6D510334D4FD
:10C520009A6DD20503D49A6D22F010029A65194BC8
:10C530004FF0006218489A609AE770479A6D50036E
:10C5400007D49A6DD10503D49A6D22F008029A653A
:10C55000104B4FF080629A60D8E79A6D4FF080716F
:10C5600022F002029A659960C9E7DA6E4FF4800101
:10C5700022F08002DA669960BAE79A6D4FF0007196
:10C5800022F004029A659960ABE74FF000629A606E
:10C59000704700BF0064024058640240384B5A683C
:10C5A000110303D5D3F8A02052075BD4344B5A684B
:10C5B000D00303D5D3F8B420110649D4304B5A68C0
:10C5C000520303D5D3F8A020900737D42C4B5A68D8
:10C5D000D10203D5D3F8A02012071CD4284B5A68E7
:10C5E000920217D5D3F8A020D00613D5D3F8A020F7
:10C5F000510341D4D3F8A020D20505D4D3F8A0200C
:10C6000022F01002C3F8A0201D4B4FF400121D4869
:10C61000DA602DE77047D3F8A02050030AD4D3F88E
:10C62000A020D10505D4D3F8A02022F00802C3F839
:10C63000A020134B4FF48012DA60CFE7D3F8A0208C
:10C640004FF4802122F00202C3F8A020D960BDE798
:10C65000D3F8B4204FF4803122F08002C3F8B42024
:10C66000D960ABE7D3F8A0204FF4002122F00402F8
:10C67000C3F8A020D96099E74FF40012DA60704740
:10C6800000640240A06402402DE9F041564E82B0A1
:10C6900096F8F83F022B00F29380544D6B6913F02B
:10C6A000007303D00E2002B0BDE8F081009340F289
:10C6B000FF574FF48A634FF00808AF630446C5F88C
:10C6C000088001211020EB60FFF734FEAF630028E3
:10C6D000E9D1AF630121D6F8C03F3720AB6040F20B
:10C6E0007743EB60FFF726FEAF630028DBD1404ABB
:10C6F00040F2734301216A62C5F82880EA6A42F079
:10C700003302EA62AF63A8603320EB60FFF712FEEA
:10C71000AF630028C7D1694640F22A4201E09B027C
:10C7200054D46B6B13426B6BF9D01F0753D46B6BF4
:10C73000980752D46B6B990651D46B6B9B0250D403
:10C74000B4F5006F009B18BF4FF480321BBA08BFCE
:10C750004FF480221A4237D0D6F8C02F40F27743E8
:10C76000224D40F2FF5601213720AE63AA60EB60F4
:10C77000FFF7E0FDAE63002895D1A4F5006340F219
:10C780004642AE630121B3FA83F306205B095B00E6
:10C79000AB60EA60FFF7CEFDAE63002883D16B6823
:10C7A00003F400639C423FF47EAF124A6B6813406F
:10C7B00023436B606B6803F40063A342F6D172E716
:10C7C000282002B0BDE8F08126206CE7D5F8803043
:10C7D00041F8043BA5E7042065E7022063E7062053
:10C7E00061E722205FE700BFA8180120002C01406C
:10C7F00000E1F5050081FFFF70B5174D40F2FF56CF
:10C80000164C40F24D43D5F8C02F0121A6630D20F0
:10C81000A260E360FFF78EFDA66320B96369C3F3EE
:10C820004323042B02D04FF0FF3070BD05F5805537
:10C83000286D0028F9D0026895F84D30808812697B
:10C8400010402BB9003818BF0120013840B270BD2C
:10C85000B0FA80F04009F8E7A8180120002C014048
:10C8600070B51B4D10460A462C6D3CB12668A18858
:10C8700095F84D503469214025B329BB002141F082
:10C88000DDF908BB134DD5F8EC3F002BFBD1124C62
:10C8900040F2FF56D5F8C02F40F24D43A663012168
:10C8A000A2600D20E360FFF745FDA6630028F1D1EB
:10C8B0006369C3F34323042BECD1D5F84033C5F8A7
:10C8C000443370BD0029D9D14FF0FF3070BD00BF97
:10C8D000A8280120A8180120002C014070B51B4D8C
:10C8E00010460A462C6D3CB12668A18895F84D503B
:10C8F0003469214025B329BB002141F03BF908BB35
:10C90000134DD5F8F03F002BFBD1124C40F2FF56EF
:10C91000D5F8C02F40F24D43A6630121A2600D203F
:10C92000E360FFF707FDA6630028F1D16369C3F355
:10C930004323042BECD1D5F84033C5F8443370BD04
:10C940000029D9D14FF0FF3070BD00BFA8280120C9
:10C95000A8180120002C0140A549A64BD1F8C40F0E
:10C96000D1F8C82FF0B5840FC2F3803591F8F86F75
:10C97000C2F3072C03F8084CC0F38364012E03F8BC
:10C98000074CC0F3016403F8064CC0F3074403F8F6
:10C99000054CC0F30724C0B203F8044C4FEA1264FC
:10C9A00003F8030C4FEA0410C2F3035423F8020CFB
:10C9B00033F8020C80B240EA0400C2F3034423F8C7
:10C9C000020CC2F3C0301C705870C2F340309D702E
:10C9D000D870C2F30030D1F8CC4F18714FF000007E
:10C9E000587140F2C080022E00F09D802A204FEA4C
:10C9F0004C0C5D74C4F3C016D1F8D02F0CF07E0C33
:10CA000004F07F0483F812C04FF0010C9D7C354385
:10CA1000C2F381569D74DC74D40F1C75C2F341744B
:10CA20005C75C2F382649C75940D04F00C04DC7593
:10CA3000DD7DD1F8D44F3543C2F34056DD75C4F3E4
:10CA400007451E7600262D025E76C2F300469E76CE
:10CA5000C2F3C036DE76C2F380361E77C2F34036AC
:10CA60005E77C2F300369E77C2F38126DE77C2F38B
:10CA70000126C2F3460283F8206083F82120220EAB
:10CA800083F822C083F82420DD84C4F30725DA8CE0
:10CA9000240692B22A43DA849C62D1F8D84F9A6A6B
:10CAA000250E42EA05429A62220A9D6A02F47F42FA
:10CAB0002A43C4F30725E4B29A629E6AD1F8DC2FB8
:10CAC0003543D1F8E01F9D62150E83F82C40140CFD
:10CAD00083F82D5024061C6314021D6B224604F4B7
:10CAE0007F042C4392B21C631C6B2243C1F303549A
:10CAF0001A631A6B42EA11621A6393F834202243D4
:10CB000083F834200A0A02F47062DA86C1F307223D
:10CB1000DC8EA4B21443C1F34602DC8683F83820CD
:10CB200083F839C0F0BD1204C4F3072C250E02F4BB
:10CB30007C129A609A6842EA05229A60C4F307421E
:10CB40009D682A434FF400759A609A689D6401328B
:10CB500040F10005AD0245EA925592025D64C4F3CE
:10CB600080351A6443E74FEA8C2C012692000CF4BE
:10CB70004065C4F3072C02F47F729D609D682A43D0
:10CB8000C4F3C0359A609A6842EA94729A60C4F31A
:10CB9000C2621A73C4F302625A73C4F342529A73A4
:10CBA000C4F38242DA73E20B02F006021A741A7CB2
:10CBB0002A431A749D681A7C1F78023206FA02F220
:10CBC000BE40D717A2FB062E9E6406FB07EE05FBB0
:10CBD0000EEE0135A2FB0525AE44520AC4F38035A2
:10CBE00042EACE521A644FEA5E225A64FFE600BF60
:10CBF000A8180120A02901200E4838B5036D0D4664
:10CC000014463BB1196890F84D209B8809690B4088
:10CC100052B15BB9FFF7A0FE074A4FF40073002042
:10CC2000126C2A60238038BD002BF3D14FF0FF3007
:10CC300038BD00BFA8280120A02901202DE9F84F08
:10CC4000DFF82CC200227D4F054663463C6D5968D3
:10CC5000013224338C4200F0AF80102AF7D1002437
:10CC6000774B9D4205D048339D4202D00020BDE85D
:10CC7000F88F661EDFF8FC8106EBC6034FEAC60993
:10CC800008EB83029B0092F8A020002AEED19C447E
:10CC90004FF0170BACF81CB0002CE7D0DFF8B4A1B4
:10CCA0000120DAF8243043F40063CAF824300EF08F
:10CCB000FDF9DAF82430012023F40063CAF82430A7
:10CCC0000EF0F4F9DAF8443043F40063CAF8443063
:10CCD000DAF8303043F48003CAF83030DAF8303014
:10CCE00043F00C03CAF83030DFF88CA197F85630C7
:10CCF000AAF89EBD002B61D10AF698500C220E2195
:10CD0000AAF8BEBDAAF8EEBDFDF7A2FD0C220E21C9
:10CD10004C484E44FDF79CFD0C220E214A48FDF77D
:10CD200097FD4A4B08EB8606DB683D65C3F302239B
:10CD3000C3F107011A1D042928BF0421062A88BF50
:10CD4000DA1E4FF0FF3398BF00228B40DB4303F025
:10CD5000010393403E4A1B01DBB282F831334FF4AA
:10CD60000033D6F8841053603A4A136B43F48003BF
:10CD700013630022384B2A60AB6003F59B3303F545
:10CD8000EC739D423DD0354B4FF47410344AD8605B
:10CD90000720C3F8A020334AC3F8B400914245D01D
:10CDA000962041F087FA002301222F492046FDF703
:10CDB000E5FC0120BDE8F88FD4B251E70AF698509F
:10CDC0000C220E21AAF8A6BDAAF8AEBDAAF8B6BDDF
:10CDD000AAF8BEBDAAF8EEBDFDF73AFD0AF55A6005
:10CDE0000C220E21FDF734FD0AF6A8500C220E216C
:10CDF000FDF72EFD0AF55B600C220E21FDF728FDE4
:10CE000084E74FF07460164A583B986007209A6593
:10CE1000144AD86691420DD0962041F04BFA002377
:10CE2000012212492046FDF7A9FCC2E7952041F0F6
:10CE300041FAB8E7952041F03DFAF0E7A02901203A
:10CE400058640240602601209026012000ED00E099
:10CE500000E100E000380240802C01400064024004
:10CE60006054A308006002409DC50008D5C40008B6
:10CE70008400012000000120A81801200E4A012191
:10CE80000D20D2F8C02F38B50C4C40F2FF5540F2BF
:10CE90004D43A563A260E360FFF74CFAA56340B978
:10CEA0006069C0F34320A0F10400B0FA80F04009AB
:10CEB00038BD002038BD00BFA8180120002C01405B
:10CEC0002DE9F0439D4D83B095F8596036B19C4BE8
:10CED00093F8C432184603B0BDE8F083994B0122A1
:10CEE000994C022085F859205A6C42F400625A6429
:10CEF0005B6C03F400630193019A944B62681340E6
:10CF0000032243F076036360636823F480736360F5
:10CF100022600EF0CBF8636840F2FF5243F4807356
:10CF200063604FF40033A2634FF48062A660E26056
:10CF300001E0002B60D0626B013B1006F9D5002B9D
:10CF40005AD040F2FF564FF4D5724FF4896307214F
:10CF5000A6630820A663A260E360FFF7EBF9A6636F
:10CF6000002842D04FF00009774C40F2FF560023D2
:10CF70000121A6633720A36040F27743E360FFF707
:10CF8000D9F9A663034648BBDFF8C881074649EADA
:10CF90000808814610E0A6630137C4F80880E26003
:10CFA000FFF7C8F94FF6FE720346A663B0B963698E
:10CFB000002B2ADB974228D840F27743A663012151
:10CFC000C4F808903720E360FFF7B4F9034640F255
:10CFD000694203212920A663002BDCD0584A82F83D
:10CFE000C432184603B0BDE8F083594B01224FF01C
:10CFF000804983F8F82FB7E7534A40F2FF510323E3
:10D0000091634F4A82F8C432EBE74FF6FF729742C2
:10D0100000F0928059006DD54D4C02274A4B84F8A0
:10D02000F87F1B689A076FD0474E40F2FF580023E5
:10D030000221C6F83880B36040F2C2430846F3606C
:10D04000FFF778F9C6F8388003460028C6D173691F
:10D05000062FC4F8D43FB369C4F8D83FF369C4F8C5
:10D06000DC3F336AC4F8E03F50D0022F4ED9D4F8E9
:10D07000C03F40F2FF57344E02210920B763B3602E
:10D0800040F2C943F360FFF755F9B7630346002840
:10D09000A4D17369C4F8C43FB369C4F8C83FF36945
:10D0A000C4F8CC3F336AC4F8D03FFFF755FC0346C1
:10D0B000002893D1D4F8C02F40F24743224C40F2CD
