:020000040800F2
:1000000000000120894C0508254D0508FDBE0108AA
:1000100055BD0108254D0508254D050800000000C7
:10002000000000000000000000000000254D050851
:10003000254D050800000000254D050869AB0108A5
:10004000254D0508254D0508254D0508254D0508B4
:10005000254D0508254D0508ADA50008B5A50008E6
:10006000BDA50008C5A50008CDA50008A1A30008EE
:10007000B5A30008C9A30008DDA30008F1A3000888
:1000800005A4000819A40008254D0508254D0508FC
:10009000254D0508254D0508254D0508D5A5000861
:1000A000F5DD0008F1DC000805DE0008E1DC0008F1
:1000B00019DD000829DD000839DD0008D19E00089F
:1000C000C59E0008059F0008F99E0008254D0508FB
:1000D000254D0508CDAA0108D9AA0108E5AA0108FD
:1000E000DDA50008254D0508254D050815DE00088D
:1000F000CDDD0008254D0508BDDD00082DA4000854
:10010000254D050835CF000849DD0008254D0508B7
:10011000F1AA0108FDAA010859DD000899B90408EF
:1001200041A4000855A4000869A400087DA40008A3
:1001300091A4000800000000000000000000000082
:10014000000000000000000000000000CDAD040829
:10015000A5A40008B9A40008CDA4000809AB0108B3
:10016000399F00082D9F0008254D0508254D0508DD
:10017000254D0508254D0508000000000000000081
:10018000254D0508254D0508254D0508254D050873
:10019000254D0508254D050800000000254D0508E2
:1001A000000000000000000000000000254D0508D0
:1001B000254D0508254D0508000000000000000041
:1001C000000000000000000000000000000000002F
:1001D000000000000000000000000000254D0508A0
:10800000084A0346D0F8E4005268D3F8F010121A78
:1080100000209142B8BFC3F8F020012283F81C2150
:10802000704700BF001000E01B4B016803F57D7C2A
:1080300002E02C3363452BD01A688A42F9D170B51F
:1080400093F804E0427996450BD02C33634505D074
:108050001A688A42F4D02C336345F9D14FF0FF30CF
:1080600070BD9E4684680022DEF80C50A54208D000
:1080700001320EF10C0E032AE7D0DEF80C50A542B7
:10808000F6D1DEF81050C668B542F1D150B270BDDD
:108090004FF0FF30704700BF586A05084368426DD3
:1080A00030B49A61EFF31182502383F31288416850
:1080B000D2B2856C0B68046D23EA050323430B6081
:1080C00082F31188436981681A68096822F0010205
:1080D000D0E908541A60826A1D605C615A60D0E978
:1080E0000B429C60DA600023B0F86C2030BCCA629E
:1080F00003777047002A4FEA014C034630B50ABFA8
:10810000E6468E468C4600F1C005002419680C3303
:1081100053F8042C43F8084C41EA0C0142EA0E02E1
:10812000AB4243F80C1C43F8042CEFD1D0F8C0301C
:1081300043EA0E03C0E93144C0F8C03030BD00BF8F
:1081400083695969B3F810C00A6830B49C6822F09A
:10815000010224680A60E26822EA0C02E260027D01
:1081600000681F2A08D9203A0824D0F804C0944097
:1081700014EA0C0F44D0FEE70824D0F800C0944065
:1081800014EA0C0FF7D1202404FA02F28260254A87
:108190001278002A32D01A7F012A36D0D3F8002173
:1081A0000132C3F80021EFF31181502282F31288CB
:1081B0005868C9B29D6C0268DC6C22EA0502224351
:1081C000026081F311885A699968D3E90D40096802
:1081D00014605061D3E90F40546090605C6CB3F858
:1081E000B400D4600124C8621068204310601A8A69
:1081F0001C7783F8FD40CB681343CB6030BC7047DD
:10820000202404FA02F2C260C1E70022D3F804017C
:1082100083F8FD2001300A68C3F8040122F001024E
:108220000A60EBE7F801002010B40C4C6368002BE7
:1082300011DD002004F1080C0146DCF8AC3003F13C
:10824000C00259600C339342FBD1013063680CF5D6
:10825000867C8342F1DC5DF8044B7047F801002016
:10826000704700BF024B03EB401393F8550470476F
:10827000F8010020704700BF0B4890F86C1589B1D9
:1082800001EB4101002300F27450490010B41C4678
:1082900050F82320063302B114608B42F8D15DF808
:1082A000044B7047704700BFF80100200B4890F85E
:1082B0006C1589B101EB4101002300F274504900B3
:1082C00010B41C4650F82320063302B114608B42D0
:1082D000F8D15DF8044B7047704700BFF8010020EB
:1082E0000120704700EB4000024B03EBC00393F802
:1082F00085057047F8010020204890F86C35002B68
:108300003AD0002200F274534FF02C0C2DE9F043C8
:108310004FF0500E1A4E1B4D144607E053F8181B31
:1083200001320C6090F86C15914223DD197C002914
:10833000F4D05F68B90AA1F58011522929448CBF95
:108340004FF0FE0991F8F493EFF311818EF3128848
:10835000D7F824800CFB0969C9B208F10108C9F8F3
:108360002880D7F8148048F00108C7F8148081F3FA
:108370001188D3E7BDE8F083704700BFF801002003
:10838000001A0120586A050800EE100AB8EE400AEB
:10839000704700BFBCEEC00A10EE103A98B27047AA
:1083A0000346012200205A77704700BF826908B552
:1083B0000346006BD96A02449A6101B188470020E4
:1083C00008BD00BF436A02461B681B6A5B685B7896
:1083D00013F0010008BF5077704700BFC26281618F
:1083E000704700BF704700BF04307047C2628161B0
:1083F000704700BF436A02461B681B6A5B689B7834
:1084000013F0010008BF5077704700BF03460122F8
:1084100000205A77704700BF826908B50346006B99
:10842000D96A02449A6101B18847002008BD00BFA3
:10843000704700BF0430704710B4094C4FF0340C43
:10844000D4F894020CFB00F004F5267C044460444C
:10845000D4F89842A469A4465DF8044B604700BF75
:10846000001A0120064B3421D3F8942203F526701C
:1084700001FB02F213441044D3F89832DB69184729
:10848000001A0120043070470C4B93F80423D3F8F2
:10849000001302440144D2B2C3F8001383F804234A
:1084A00093F80423120605D593F8042382F0800282
:1084B00083F80423024B01221A707047001A01202E
:1084C000000001202DE9F843144FD7F80853ED0AB6
:1084D0001FD00026B0467419D7F80C134FF01003C4
:1084E0000F4A48BF0134D1F828900E486410C7F8ED
:1084F0003883E102C8470F280BDD094B03F1100157
:1085000053F8042B013207D19942F9D12546AE42E6
:10851000E1DBE802BDE8F883661CF8E7001A0120F9
:10852000000000200C1D0120194BD3F84013D3F894
:1085300044238A1A322A15D8D3F858238A4200D302
:108540007047D3F84823F2B110683231928810B4E2
:108550004469C3F8581322425DF8044B18BF120453
:1085600082617047D3F8481349B193F8542388883F
:1085700002F001020968120100FA02F28A61002287
:10858000C3F8582370473231C3F85813704700BFFF
:10859000001A0120074BD3F848234AB193F854330B
:1085A000918803F0010312681B0101FA03F3936140
:1085B00000207047001A0120044B4FF4007C00207B
:1085C000D3F86833A2F800C00B607047001A01208E
:1085D000002070470120704701207047002070473D
:1085E0000020704700207047134BD0F8D8105B680C
:1085F000D0F8E02010B50446581A824200DC22B9B7
:10860000D4F8E4200A44C4F8DC2094F8D020C4F85C
:10861000D830012A05D0D4F8D4300133C4F8D4308E
:1086200010BD04F1E801201D11F040FAD4F8D43057
:108630000133C4F8D43010BD001000E030B590F81C
:1086400028308BB00446012B08D0407F10B90120A0
:108650000BB030BD002363770BB030BD456A2B688B
:108660001A7B22BB637F002BF1D013490220002329
:1086700001220290081D8DF80C208DF8202009930E
:10868000CDE9001069462846CDE90433CDE906332B
:1086900011F00CFA2A68136A002BFCD1074B5B7DA2
:1086A000D84303F0010300F001006377D4E71B6AAD
:1086B000002BD7D00020CBE71000002000000020C6
:1086C00030B504468BB094F82830012B08D0637F76
:1086D0000BB10023637701200BB030BD1B6A23B1BF
:1086E000656A2B681A7B002AF8D1637F002BF2D0D1
:1086F00010490220002301220290081D8DF80C2051
:108700008DF820200993CDE9001069462846CDE96F
:108710000433CDE9063311F0C9F92A68136A002B36
:10872000FCD1054B5B7D03F00102DB076277D2D5FC
:10873000C9E700BF1000002000000020CB070DD4C7
:1087400030B590F828308DB0C468012B07D0B4F153
:10875000807F01D9012303770DB030BD7047194BDD
:10876000456AD3E9E613B1EB930F4FEA93024FF05A
:10877000020306D252085B0091429BB201D2FF2B4A
:10878000F8D9B4F1807FAB80E6D90122002301A99A
:10879000B7240277284604928DF814208DF82820FB
:1087A0008DF804400B93CDE9021302A9CDE90633FD
:1087B000CDE9083311F07AF92A68136A002BFCD14D
:1087C000CAE700BF001A0120214A002330B5044641
:1087D00095B0101D1F4D0693019002200B9310932E
:1087E000139311930290207F00920495CDE90E33EC
:1087F00001238DF80C3007938DF820308DF834303C
:108800008DF8483002F10803083A0593031D0A92D7
:108810000C93114B0993636A1A68136A002BFCD1FD
:10882000A0B10E480A0E00F11A0342760A0A9970A6
:10883000080C69465A701870606A11F037F9636A5B
:108840001A68136A002BFCD115B030BD044BEDE75C
:1088500020000020C5830008A1830008000000203C
:108860001900002010B594B004465022074968460C
:108870004DF056FD6946606A11F018F9636A1A688E
:10888000136A002BFCD114B010BD00BFA06E050808
:10889000F8B50546406A0068046A002CFCD12C7FBC
:1088A000A869002C32D0264E040E052786F82D40EC
:1088B0002E36B0704FEA104C000A224C86F800C0E9
:1088C000012B70704FF000000E6867632664166815
:1088D000A6642E63A0651CD0022B16D1536801221A
:1088E00020651E444968E365174B84F84C006165B8
:1088F0002E6363666B7F686A84F860209BB11349BE
:1089000011F0D4F8EB6AA3B1286BF8BD0427104E20
:10891000CFE70D4A84F84C306B7F6065E0652265D7
:10892000686A002BEBD10B4911F0C0F8EB6A002B01
:10893000EAD16B6A1A68136A002BFCD1E4E700BF26
:108940000000002000000120AD8300080400012089
:108950002D0000201800012000B583B08161019234
:1089600001A9049A00930123C2626A46FFF790FFAF
:1089700003B05DF804FB00BF70B51D46436A94B0B8
:1089800006461B681C6A002CFCD1314B0B9203F18C
:108990003C0230480694009203F14002049003F137
:1089A0003400019202220590029201228DF82040AB
:1089B0008DF80C208DF834208DF84820327F0C95EE
:1089C000101D1394CDE90944CDE90E44CDE91044BE
:1089D0000790002A3AD00A0E363303F8012C0A0C0D
:1089E00099701D4C090A1A705970706AD4E9E63200
:1089F000B3EB920F4FEA92014FF0020206D2490800
:108A000052008B4292B201D2FF2AF8D9737F828042
:108A1000D3B1694611F04AF8706A03681A6A002AED
:108A2000FCD10222D4E9E734B4EB930F4FEA93016F
:108A300006D2490852008C4292B201D2FF2AF8D9DC
:108A40008280284614B070BD05A9E3E73533C6E738
:108A500000000020C5830008001A01202DE9F8431A
:108A60000546406A8C460468236A002BFCD13B4FC4
:108A700097F8A433002B3CD0D7F8A863DFF8F4E0D4
:108A8000C6F3022336498EF846608EF84530DCF88E
:108A90000030DFF8E4C0D2F80090CCF81C3100239D
:108AA000CCF82491CCF82C318B68002B54D00B4699
:108AB000DC691433002CFBD1D2F80080294C4644E9
:108AC00018605C600123C7F8A86387F8A433C6F375
:108AD0000A03DBB1244BCCF82C316B7F03B9143182
:108AE000C5F8308010F0E2FFEB6A6BB3286BBDE88D
:108AF000F883AE69DFF87CE0C6F302231B49C7F8B0
:108B0000AC638EF84A608EF84930C0E7D7F8AC33D2
:108B10004FEAD328DB0CCCF844818EF84E30234644
:108B20008EF84F80B9F1000F03D0DC691433002CAC
:108B3000FBD1D2F800800E4A18605A600023C7F8B3
:108B4000AC6387F8A433C8E76B6A1A68136A002B12
:108B5000FCD1286BBDE8F8830B46ADE7001A012075
:108B60007C0001201C01012019840008CC00012098
:108B700048010120000000200000012033B910B599
:108B80001C46C36A20469847204610BD66E700BFD2
:108B900010B582B00C46019201A9049A8461C262A8
:108BA0006A460093FFF75AFF02B010BD8269F0B524
:108BB00092F8DC308BB00546012B27D0023B012B0D
:108BC0002FD892F84C31EC46D2F89C2063F07F030A
:108BD000154C13708669D6F8A0305F1C0FCCACE83A
:108BE0000F00D6F89C30CDE900370FCCACE80F0071
:108BF00094E803008CE80300694606F1100010F0C9
:108C000055FFAA6911690B6A002BFCD1D2F8A0307C
:108C10005A8852BAEA819A8852BA2A82DB885BBAA9
:108C20006B8201200BB0F0BDF06E0508F0B590F836
:108C3000DC308BB00446D0F8A060012B4BD034D987
:108C4000023B012B2ED890F84D31EC46D0F89C20F9
:108C500063F07F03434D1370D0F8A0305F1C0FCD3D
:108C6000ACE80F00D4F89C30CDE900370FCDACE86C
:108C70000F0095E803008CE80300694604F110003A
:108C800010F014FF2269136A002BFCD173885BBAC1
:108C9000A4F8D030B3885BBAA4F8D230F3885BBABA
:108CA000A4F8D43001200BB0F0BDD0F89C304FF0C8
:108CB000FF3205211A605A609A60DA60D0F8E0301D
:108CC000C0F8F010B3F57A7F1FD8032380F8DC30AA
:108CD00001200BB0F0BD90F84C2190F84D319B1A5B
:108CE0005B100133DBB236F8132006EB430653BAB0
:108CF000A0F8D03073885BBAA0F8D230B3885BBAE2
:108D0000A0F8D43001200BB0F0BD03691A7B2AB360
:108D10005B691BB390F8983003B390F84C31012293
:108D2000D0F89C0063F07F03C4F8A4400E490370A0
:108D300094F84D3194F84C0184F800211B1A84F802
:108D4000DC20D4F8A0200733C4F804110132D4F891
:108D50009C10C4E93E23C4F8F410A3E7022384F86E
:108D6000DC309FE7F06E050801800008F8B50C4B79
:108D70001D685A69154005405D617DB1094F0126A6
:108D8000B5FA85F4C4F11F0407EB840306FA04F472
:108D9000D3F8B00303689847A543F1D1F8BD00BFED
:108DA000003C0140001A012002692DE9F843C36824
:108DB00012EA030831D005460E464FF00047B8FAD4
:108DC00088F327FA03F21B3BD24308EA02082A6120
:108DD000042B1FD801A252F823F000BF618E0008B7
:108DE0004B8E0008358E00081F8E0008F18D00089C
:108DF000B36A002B3FD003F1FF3900231FFA89F932
:108E0000B362746A34B1236820464946984764685F
:108E1000002CF8D1B8F1000FD1D1BDE8F88370680B
:108E20000028F7D0696B036889B29847B8F1000F42
:108E3000C5D1F2E7B0680028ECD0A96B036889B20D
:108E40009847B8F1000FBAD1E7E7F0680028E1D001
:108E5000E96B036889B29847B8F1000FAFD1DCE73E
:108E600030690028D6D0296C036889B29847B8F1D8
:108E7000000FA4D1D1E7EB6A1FFA83F9C1E700BF65
:108E80002DE9F0412E4F07EB401696F854340BB9FC
:108E9000BDE8F08100EB80030D460021044607EB9E
:108EA00043134FEA401893F8362683F8361686F8AF
:108EB0003A244DF0C1FD90BB224807EB0804404422
:108EC000A4F838544DF0C4FDD4F850343978D4F8AF
:108ED0003C24D3F8AC3081B1012403F1C0019440AB
:108EE000420010F4004F90B202D15A6822435A60F7
:108EF0000C339942F4D1BDE8F0811032012403F122
:108F0000C0019440420010F4004F90B202D15A6860
:108F100022435A600C338B42F4D1BDE8F0810A4BF6
:108F200093F8682402EB420203EBC203234493F854
:108F30001554002DC0D0012386F83A34BCE700BF99
:108F4000F801002030060020001A01202DE9F04F22
:108F5000364D83B02B781BB9012003B0BDE8F08FEC
:108F6000DFF8CC8005F63836D5F834AB05F5876BDD
:108F7000D8F8403305F6186700244FF6FF790193BF
:108F800012E0B0F5606F43D0B881B0EB0901019AEF
:108F9000304618BF012110F0BDFB01345C360BF1E7
:108FA000200B1437082C2CD054452ADADBF8180093
:108FB000DBF80420D0E93D014DF03AFD4FF6FE7399
:108FC00098F8F123984214D0542A04D1B8F8F42325
:108FD0000132A8F8F423D5F8202E484502F1010209
:108FE000C5F8202ECDD1D5F81C2E0132C5F81C2E87
:108FF000CBE7542AD1D1B8F8F6230132A8F8F623EA
:10900000CBE70123012085F81C3F03B0BDE8F08FBA
:1090100098F8682402EB420208EBC202224492F85C
:1090200015240D2AB0D18022BA77AEE7F8010020CE
:10903000001A01202DE9F0472F4F11F0F1FEDFF863
:10904000C09080467E6800202C4C002E48DD002316
:109050004FF486711D4601FB0372013392F805211E
:10906000B34245EA0205F6D128435FFA80FAD9F8FF
:109070000430C3F3080383BBEFF311836BBB4FF0E2
:10908000E02CD4F84033DCF81810D4F84023934295
:10909000F7D1D4F86C249142F3D8D4F870C44FF4CB
:1090A0007A7202FB0CF0401AB0FBFCF002FB0300EA
:1090B000A0EB0803B3F5FA6FCCBF002005F0010068
:1090C0000028C2D1BAF1000F04D00C4B93F8F12361
:1090D000542A08D05046BDE8F08711F06BFDE7E751
:1090E00082460025C3E7B3F8F82350460132A3F8BF
:1090F000F823BDE8F08700BFF8010020001A012026
:1091000000ED00E010B504464CF09AFB0146204605
:1091100089B2BDE81040B3E638B50B4D00EB400016
:1091200005F27453C40003EBC003254493ED027AA7
:10913000D3ED037AE7EE007AB0EE670A4CF080FBDD
:10914000D5F87435186038BDF8010020F8B54DF039
:109150005BFC78B31A4F7D68002D11DD3846002482
:1091600010F8086B16B1037F012B1DD04269013442
:1091700000F586701368AC4243F001031360F1D12F
:1091800011F04EFED7F8204F002C0CDD0D4B03EBF9
:10919000C4041968083333F8042CC868A34242EAAF
:1091A0000002CA60F5D1F8BD002380F8FC30FEF75C
:1091B00075FFDBE74AF096FB0028CBD1F8BD00BF76
:1091C000F80100201C110020836910B5244C04EB29
:1091D0008303D3F898043FF08DF8B4F8B8340C2B1F
:1091E00022D801A252F823F05392000829920008D5
:1091F0002992000829920008459200082992000847
:1092000029920008299200081D920008299200085E
:10921000299200082992000837920008D4F878248F
:10922000D36823F40063D3600122002384F8B524BB
:1092300084F8BA3410BDD4F87824D36823F480536A
:10924000D360F1E7D4F87824D36823F48063D36043
:10925000EAE7D4F87824D36823F40073D360E3E713
:10926000001A012080699C303FF044B8F8B5830AA9
:10927000A3F58013522B53D804465848034493F85F
:10928000F4330D2B4CD8564E9D0106EB8313D3F8C7
:10929000BC04A04244D00139C3F8BC4489B2C3F82D
:1092A000C814D6F89C13B1FBF2F2013AC3F8C024FB
:1092B0000022C3F8CC24C3F8C424C3F8D02493F804
:1092C000F92402F0FF01002A00F0858045490223BD
:1092D00077192046294487F8F9343FF03DFC0123F3
:1092E000B4F1804F87F8F9343F4BA4EB0303B3FA92
:1092F00083F34FEA53135DD0002B5BD13B4A94427A
:109300000FD002F5806294420BD0394902F57C42BD
:10931000944218BF8C4225D002F57052944221D05D
:10932000F8BD731993F8F824012AF9D00221314AC3
:1093300083F8F914A0680240A260012283F8F9249E
:1093400083F8F9146268A168354422F0700221F0B4
:109350008001012000236260A16085F8F90485F88E
:10936000F834F8BD721992F8F8140129D8D0022106
:1093700082F8F9141F49A06801401F48A16001212B
:10938000201A82F8F9140021B0FA80F082F8F8145B
:10939000174A4009944201D00028C1D07219022115
:1093A00082F8F9146268A1680BB90028CCD022F4C5
:1093B0007002C9E7721992F8F8140129B0D002219D
:1093C00082F8F9140B49A06801400020A160012136
:1093D00082F8F914E2E783F8F81477E7586A050889
:1093E000001A0120C01E01200000014000040040BE
:1093F000000C00408800FEFF0004014010B590F80A
:1094000028300446012B03D000230120637710BDD0
:10941000406A03681A7B42B947F058FC00F0010328
:10942000C243637702F00100F1E71B6A002BF3D01F
:10943000002010BD38B5114D044694F82830012B9A
:1094400005D00023637700230120236238BD606AC2
:1094500003681A7B72B947F039FC00F001036377A7
:10946000C307F0D5D5F84033226A9B1A002BE4DB02
:10947000002038BD1B6A002BEDD0F3E7001A012055
:1094800010B5FF22044690F82810406A4AF054FEB6
:109490000E4B2046D3F8403303F5FA732362FFF7EF
:1094A000C9FF94F82830012B00D010BD0022A02164
:1094B000606A4AF019FE94F82830012BF5D1606AF1
:1094C0001822B021BDE810404AF00EBE001A01205B
:1094D000CB0700D5704710B50446FFF7D1FF94F8CD
:1094E0002830012B00D010BD0A4B0B49D3F89C3318
:1094F000606AB1EB930F4FEA93024FF0020306D27A
:1095000052085B008A429BB201D9FF2BF8D98380B5
:1095100010BD00BF001A012000E1F50538B5044672
:109520000D46FFF787FF062294F82810606A4AF07C
:1095300003FE012294F828306277934205D0064B4F
:10954000D3F840330F33236238BDEA0AD821606A6A
:109550004AF0A6FDF3E700BF001A01208388002B24
:1095600047D02DE9F0474FF000098CB00446214F59
:1095700006260DF107084D460AE001236377D7F868
:10958000403309F10109A2880F334A4523622DD9DE
:109590002046FFF74FFF94F82830D4F824A0012B81
:1095A0008DF80760E9D102A9504604938DF8143074
:1095B0008DF828300B95CDE90285CDE90655CDE92A
:1095C000085510F073FADAF80020136A002BFCD16A
:1095D000012294F8283093426277D0D14FEA494271
:1095E000D821606AD20A4AF05BFDC8E70CB0BDE83A
:1095F000F0877047001A012070B5104D95F8A4331C
:1096000003B970BDD5F8AC6304460D4BF60AC3F838
:109610004461FFF70FFF94F82830012B07D0D5F8ED
:1096200040330022023385F8A423236270BD324602
:109630001021606A4AF034FDF1E700BF001A0120F2
:10964000000001202DE9F047434F1E4692B00C4622
:10965000D7F8443105469046B3EBD12F21D1DFF83E
:10966000FC90C4F30A0495F82830C4F50060B042B9
:1096700034BF87B2B7B2012B3CD0D9F8403328466B
:1096800002332B62FFF7D6FE38B195F82830012B54
:1096900023D0384612B0BDE8F087002012B0BDE8F4
:1096A000F0874FEAD12AFFF7C5FE0028F5D04FF02A
:1096B000FF33C7F8443195F82830012B45D0DFF847
:1096C0009C902846D9F8403302332B62FFF7B2FE54
:1096D0000028E2D0C7F844A1C3E7686A47F0F6FA69
:1096E000C0F30113013B022BD3D82846FFF7C8FE75
:1096F0003846CFE78DF8283000228DF83C30032320
:109700008DF80640240A8DF8043001AB8DF8054031
:1097100002A9029304236C6A8DF807200392204665
:109720008DF814200B920E92109204930023CDE931
:1097300006220022CDE90886CDE90C2310F0B6F907
:109740002268136A002BFCD197E752461321686AFE
:109750004AF0A6FCB3E700BF00000120001A012078
:109760002DE9F843DDF820800F461646002120221F
:1097700004461D464CF0C9FEB8F1000F0CD0D8F8D5
:109780000030B8F80A20E3811B0C2382D8F804309B
:109790006282E3821B0C238338464AF047FDF306BE
:1097A00019D4431EB8B107EB000C01E0013B12D302
:1097B0001CF801EDBEF12E0FF8D1C01A03F101091A
:1097C000421EB944032AA8BF0322082BA8BF0823BE
:1097D00090461A4606E008280246B9464FF00008AF
:1097E000A8BF08224FF0203339462046236063602B
:1097F0004CF096FD164B04F1080042464946238181
:1098000083704CF08DFD611EE21D11F801CFACF1AB
:109810006103ACF1200C192B98BF81F800C0914274
:10982000F3D104F10A0011F8013FA3F16102203BDA
:10983000192A98BF0B708142F5D1182365832D0C2E
:10984000E6722373099BA582E361BDE8F88300BF3C
:10985000202020002DE9F04FD74F85B0D7F84003E6
:10986000C7F84403002B00F0CD8001F5007B1344C2
:10987000884614465E46029320E0002C5BD0D7F861
:109880007433A34200F0C280D7F87033A34200F0D3
:10989000F980D7E9DE31A34244D8A14200F2CB815E
:1098A000611A404645F0A4FD0134029BD84606F5F6
:1098B00000769C4200F0A6800BF5007BD7F8802351
:1098C000A242DAD8A21AD7F89053D30802F00709B7
:1098D0002A6B0233934202D3AA6B93420BD92946D7
:1098E0001846039345F054FD039B0546002800F0FD
:1098F000C281C7F890032A79002A40F02C81D5F85C
:1099000028A0BAF1000F00F0AF812A6B40464FF457
:1099100000719B1AEA6809EBC3092B4602EB492246
:10992000D047C1E7A142BBD940464FF400720021A5
:109930004CF0EBFDB8E74FF40072214640464CF086
:10994000E4FD80239D4A88F8BE310C2388F8C2319B
:10995000D7F87013D7F868339142C8F8C611C8F821
:10996000CA3100F36D81964A013B964D82FB01029C
:10997000C81785FB01C50A44C0EB6212C0EB253055
:10998000914D85FB02C5C2EB821C88F8C101801095
:10999000A1EB0C01154420F03F0001310843D11721
:1099A000C1EBE51188F8C0010A4488F8BF21834A59
:1099B000934200F35181824A824882FB0312D917F5
:1099C00080FB03501A44C1EB6212C1EB20317E4888
:1099D00080FB0250C2EB821588F8C51189105B1B11
:1099E000104421F03F0101331943D317C3EBE013B7
:1099F00088F8C4111A4488F8C3214AF65523A8F8F8
:109A0000FE3151E7002005B0BDE8F08F4FF0FF3385
:109A100000254FF4F07208F1040088F8EC31294673
:109A200088F8ED3188F8EE3188F8EF31522388F864
:109A3000003088F80130612388F8023088F8E73177
:109A4000412388F8033088F8E631722388F8E4313E
:109A500088F8E531D7F88833C8F8E8314CF055FD7F
:109A60005523C8F8F05188F8FE316FF05503C8F857
:109A7000F451C8F8F85188F8FC5188F8FD5188F87D
:109A8000FF3111E74FF40072002140464CF03DFDDC
:109A90004E4B022203CB45F6EB0388F8102088F8E2
:109AA0000C20A8F80030902388F80E2088F80230A7
:109AB000F82388F82C200822C8F8030088F80D2025
:109AC000C8F8071088F81530D7F87013D7F868333E
:109AD0005B1AC8F82030D7E9DE135B1A4AF6552125
:109AE000C8F82430002388F80B3088F80F3088F845
:109AF0001D3088F81E3088F81F3088F82D3088F81F
:109B00002E3088F82F3088F83130314BC8F81830B3
:109B10003E2388F81C30012388F83030802388F8F1
:109B200040302C4BC8F842302B4B88F84620A8F820
:109B3000FE112A4A03CBC8F84B101988C8F8470011
:109B40009B78A8F84F1088F8513003CAC8F8520023
:109B5000C8F85610A8E64FF40072002140464CF0B9
:109B6000D4FC2B6CB9F1000F40F08D8008F1200A75
:109B7000002B00F09B802B6B112219494046CDE948
:109B80000099FFF7EDFD2B6C1A6C002A00F09A800B
:109B90001B6B504611221349CDE90099FFF7E0FDF8
:109BA00008F1400A4FF4E0786D6C002D3FF47CAE74
:109BB000C244039424E000BF001A0120FF03FB000D
:109BC00083200882975545418180808048E50508BB
:109BD0003F00FF0029940E0D54E5050860E50508D7
:109BE00040E5050844E505080024A8F12008CDE972
:109BF00000E4FFF7B5FDAD6CDDB1B8F11F0F18D96A
:109C000095F8049005F11C0E112229682B6BAAEB24
:109C10000800B9F1000FE7D16A79A8F120082C6992
:109C200042F02102CDE900E4FFF79AFDAD6C002D72
:109C3000E3D1039C38E6E11A404645F0D9FB33E610
:109C4000FF22013B88F8C1214FF6FF72A8F8BF211F
:109C5000214A93427FF7AFAEFF2388F8C5314FF614
:109C6000FF73A8F8C331C8E6514640464FF400726E
:109C70004CF04BFC18E6194BC8E9003308F1080812
:109C80004645F9D110E6002B6D6C14BF0223012369
:109C9000C3EB0913002D3FF407AE013BAD6C01D0BF
:109CA000002DFAD1C2464FF400787EE740464B467D
:109CB00008224FF4F078CDE90099D7F86C13FFF73C
:109CC0004FFD71E750464B4611220549CDE90099F9
:109CD000FFF746FD64E700BFFF03FB00DEADBEEF0C
:109CE00044E5050838B5044644F23B3390F82101B9
:109CF000A4F84C3100B938BD10F04CFD21460546A2
:109D000088B126220B4BC28041F80C3F48F0CAFEB6
:109D1000AA8809494FF00043B2FA82F20868D3409A
:109D200003430B6038BD034B41F80C3FBDE838409E
:109D300048F0B8BEE9850008003C014048B182887F
:109D40004FF000430349B2FA82F20868D34003435C
:109D50000B607047003C014090F8DB30052B03D8C6
:109D600090F81E31032B01D00020704790F823316A
:109D700003F0FB03022B14BF07200020704700BF35
:109D800010B490F8443000F10801484A012BC2F8A1
:109D90007C186DD08368464CD968A34221F46001D9
:109DA000D960D96841F46001D960996B21F4401100
:109DB0009963996B41F480119963996B21F4F8418F
:109DC0009963996B41F488419963996821F47021F2
:109DD000996099689960996821F44011996099682F
:109DE0009960596821F480615960596821F4805163
:109DF000596059696FF30B0159615969596148D02C
:109E0000D9682B4C21F0E061A342D960D96841F0B8
:109E1000E061D960996B21F440119963996B41F429
:109E200080119963996B21F478219963996B41F4BE
:109E300010219963996821F470219960996899605B
:109E4000996821F44011996099689960596821F4E2
:109E500080615960596821F48051596099696FF3A4
:109E60000B019961996999611AD0002380F84430F7
:109E70001048114B848DC18D408D091BC2F8844858
:109E8000C2F880085DF8044B93FBF1F3C2F8883800
:109E90007047D4F8041341F40001C4F80413AFE789
:109EA00006494B6843F400034B60DEE7001A0120CB
:109EB00000200140007AF01F80380100002301409B
:109EC000704700BF01483EF0E9BA00BFA022012060
:109ED000084810B4D0F8A038D0F8D44899691A6866
:109EE0002CB1234600F50A605DF8044B18475DF875
:109EF000044B7047001A012001483EF0CFBA00BF62
:109F000000230120084810B4D0F80039D0F83449B3
:109F100099691A682CB1234600F510605DF8044B6E
:109F200018475DF8044B7047001A012001483EF0C5
:109F3000B5BA00BF60230120084810B4D0F86039DA
:109F4000D0F8944999691A682CB1234600F5166037
:109F50005DF8044B18475DF8044B7047001A012068
:109F600030B40469002341684025E46882690C31FB
:109F7000546244699560536093631160C2E903338E
:109F8000C2E90533C2E90733C2E90A33C2E90C3337
:109F900084B1C269E068936350621160C2E9013321
:109FA000C2E90333C2E90533C2E90733C2E90A3320
:109FB000C2E90C3330BC7047114A037A0168D35CA4
:109FC00010B4CC58CA1824F00104CC501368DB0735
:109FD000FCD4037D1F2B09D9203B20225DF8044BC4
:109FE00002FA03F343F01803CB60704720225DF8B8
:109FF000044B02FA03F343F018038B60704700BF71
:10A00000FCE50508F0B50668356A00295DD12B68C6
:10A01000AC68B769002B60D09C46344B0CEA030354
:10A02000B3F1005F5DD00CF01F0104F11F032CF0B1
:10A030001F02194421F01F01BFF34F8F00290BDDD0
:10A04000114402F12003DFF8A8E08B42CEF8682229
:10A050001A4603F12003F8D1BFF34F8FBFF36F8F80
:10A0600002684FF480637B615369C7F804C03C62A7
:10A0700053B36B68F569002B35D01E461B4B33403C
:10A08000B3F1005F1BD006F01F0104F11F0326F09F
:10A090001F02194421F01F01BFF34F8F00290ADD71
:10A0A000114402F1200312488B42C0F870221A4674
:10A0B00003F12003F8D1BFF34F8FBFF36F8F4FF43D
:10A0C00080636E606B612C62F0BDEC69002CFBD08C
:10A0D0006B691435B769002B9ED1DFF81CC032467E
:10A0E000C1E73246BDE7034EEBE700BF0000FFFFCC
:10A0F00000ED00E054000020500000202DE9F04168
:10A100000468D4E904351A7DD3E90061002D4DD0EF
:10A110001F2AA86138D820202F6800FA02F242F0E6
:10A120001802B2602A7D1F2A39D9203A202000FA6D
:10A1300002F242F01802FA606A68002008601060BB
:10A140003046116841F01001116093F80880A2694F
:10A15000414648F05BF92D7AE2693846294648F0D5
:10A1600055F9274B626813F80800595D335843F0DE
:10A17000010333507B5843F001037B50536843F095
:10A1800003035360BDE8F081203A20202F6800FAD5
:10A1900002F242F01802F2602A7D1F2AC5D8202060
:10A1A00000FA02F242F01802BA60C5E71F2A98616D
:10A1B0001ED8202000FA02F242F01802B2600022FB
:10A1C00030460A600A6842F010020A601D7AA269ED
:10A1D000294648F01BF90A4B6268595D735843F0F1
:10A1E00001037350536843F002035360BDE8F081EC
:10A1F000203A202000FA02F242F01802F260DEE774
:10A20000FCE5050810B1036882889A61704700BFB9
:10A2100018B1838802681B049361704708B51D203C
:10A2200010F0B8FA08B183794BB11E2010F0B2FAE1
:10A2300008B1837903B108BD5523C38008BD5523F8
:10A24000C380F2E7D3B2012B22D8524270B502F09C
:10A250000C0E104C002223460EF1080503E00132DB
:10A260001C33182A12D093F800C08445F7D193F814
:10A2700001C08C45F3D15E59002EF0D0C2EBC20272
:10A280000EF1040303EB8203E01870BD002070BDE3
:10A2900000207047986F050810B40C4C002304F69A
:10A2A0000C2C01E0152B0CD003EB430201331CF8FE
:10A2B00002108142F6D1144494F90E0A5DF8044B61
:10A2C00070474FF0FF305DF8044B7047001A0120D3
:10A2D000D3B2022B21D802EB420270B54FEA820EB4
:10A2E0000F4C002223460EF10C0503E001322C3303
:10A2F000172A10D01E68B042F8D193F804C08C45DC
:10A30000F4D15E59002EF1D02C210EF1080301FB8F
:10A310000233E01870BD002070BD0020704700BF00
:10A32000586A050830B51C4D0023047905F60C2C3D
:10A3300001E0152B2DD003EB430201331CF8021072
:10A34000A142F6D11544046890F805C095F90E3A7B
:10A35000DAB2022A1DD803EB4303104D0022980005
:10A360002B4600F10C0E03E001322C33172A10D0DB
:10A3700019688C42F8D119796145F5D153F80E105E
:10A380000029F1D02C2100F1080301FB0233E81869
:10A3900030BD002030BD00BF001A0120586A0508FA
:10A3A0000348D0F8AC3113B100F5CE7018477047B0
:10A3B000000001200348D0F8D03113B100F5E0705F
:10A3C00018477047000001200348D0F8F43113B15A
:10A3D00000F5F27018477047000001200348D0F8DC
:10A3E000183213B100F502701847704700000120C1
:10A3F0000348D0F83C3213B100F50B701847704792
:10A40000000001200348D0F8603213B100F5147049
:10A4100018477047000001200348D0F8843213B178
:10A4200000F51D7018477047000001200348D0F860
:10A43000A83213B100F526701847704700000120BC
:10A440000348D0F8CC3213B100F52F70184770478D
:10A45000000001200348D0F8F03213B100F5387045
:10A4600018477047000001200348D0F8143313B197
:10A4700000F5417018477047000001200348D0F8EC
:10A48000383313B100F54A701847704700000120B7
:10A490000348D0F85C3313B100F553701847704788
:10A4A000000001200348D0F8803313B100F55C7040
:10A4B00018477047000001200348D0F8A43313B1B7
:10A4C00000F5657018477047000001200348D0F878
:10A4D000C83313B100F56E701847704700000120B3
:10A4E00000EBC0000C4B0D4A03EB8003116BD3F85B
:10A4F000783110B40A4C83B0A34214BF4FF48003E8
:10A500004FF4001319431163126B13400193019B25
:10A5100003B05DF8044B7047000001200038024092
:10A52000006002400138F8B500EBC000124C1D4637
:10A53000124B04EB800417460E46D4F89C01984257
:10A5400014BF9620952045F0E3FF94F9B101B909B5
:10A55000C4F8AC61C4F8B45145F01AFF94F9B131B4
:10A56000002B07DB03F01F0001225B090449824036
:10A5700041F82320F8BD00BF000001200060024028
:10A5800000E100E0800AA0F58010522808D8054BB1
:10A59000034493F8F4330D2B02D8034AD056704786
:10A5A00000207047586A0508ECE505080120FEF711
:10A5B000DDBB00BF0220FEF7D9BB00BF0420FEF7C1
:10A5C000D5BB00BF0820FEF7D1BB00BF1020FEF7AF
:10A5D000CDBB00BF4FF47870FEF7C8BB4FF47C4092
:10A5E000FEF7C4BB30B1036880881B69184000388F
:10A5F00018BF0120704700BF2DE9F04F0E4683B011
:10A6000004461546002800F0C7800268644B1344D6
:10A610009B0A644AC6F34119134493F8E00745F0D6
:10A6200077FFC6F38103B4F804E006F00301246861
:10A6300001939EFAAEF0B0FA80F001F1FF383EFAD5
:10A6400000F367D001220327009603E001303EFAB1
:10A6500000F35ED002FA00F313EA0E03F6D0D4F84A
:10A6600000C093FAA3FBBBFA8BFB93FAA3FABAFAE6
:10A670008AFA4FEA4B0BB8F1010F4FEA4A0A07FA80
:10A680000BFB01FA0AFA2CEA0B0C4CEA0A0CC4F890
:10A6900000C04ED9D4F80CC093FAA3FBBBFA8BFBD5
:10A6A00093FAA3FABAFA8AFA4FEA4B0B02294FEA55
:10A6B0004A0A07FA0BFB09FA0AFA2CEA0B0C4CEAD5
:10A6C0000A0CC4F80CC0C1D193FAA3FABAFA8AFAF8
:10A6D0004FEA132CBAF1070F45DCD4F820C093FAE7
:10A6E000A3FABAFA8AFA93FAA3F34FF00F0BB3FA6C
:10A6F00083F34FEA8A0A01309B000BFA0AFA05FA43
:10A7000003F32CEA0A0C4CEA030323623EFA00F33B
:10A71000A0D1009EB8F1010F08D86268C6F30013FB
:10A7200022EA0E020EFB03F31343636003B0BDE89D
:10A73000F08FD4F808C093FAA3FBBBFA8BFB93FA13
:10A74000A3FABAFA8AFA4FEA4B0B019E4FEA4A0A79
:10A7500007FA0BFB06FA0AFA2CEA0B0C4CEA0A0C75
:10A76000C4F808C096E7D4F824A09CFAACFBBBFA66
:10A770008BFB9CFAACF34FF00F0CB3FA83F34FEA68
:10A780008B0B9B000CFA0BFC05FA03F32AEA0C0A6C
:10A790004AEA0303636259E74FF0FF3339E700BF2A
:10A7A0000000FEBF586A050800B125E770472DE993
:10A7B000F84FBD4C6023054603FB0043D3F88C786B
:10A7C000002F00F05E81D3F89488B8F1000F04D018
:10A7D00098F80630002B40F05481602303FB0543BA
:10A7E000D3F898681EB1B379002B40F04A816B1CF6
:10A7F000DBB2B8F1000F04D0152288F8073088F8D2
:10A80000062016B11622F371B2714FF06009387C40
:10A8100045F07EFE314609FB05F9404648F07EFFD3
:10A82000404604EB090A0422DFF8A0829AF89C381B
:10A83000002B0CBF4FF01E0B4FF03E0B5946FFF79D
:10A84000B3FF304609F11406042259464644FFF787
:10A85000ABFF4C22002130464BF057FEDAF88C3823
:10A860009FED927AB0EE084A5B68F7EE003ADFEDB2
:10A87000905A0020CAF8A0388E4BBAF89EA89A6861
:10A880008D4BC2F382229FED8D5A134493F8E82733
:10A89000D4F89C33D34007EE903AF8EE677A87EE0F
:10A8A000276A07EE90AA9FED867AF8EEE77AC7EE60
:10A8B000274AF0EE007AE6EE275AA6EE275A26EE51
:10A8C000044A74EEE52ABAF5C87F40F3DE804FF4FF
:10A8D000FA714FF482793223782200F1010E134489
:10A8E000323A494407EE90EAF8EEE76A07EE903A0A
:10A8F000B8EEE77A66EE866AC7EE267A77EEE37AF6
:10A90000FCEEE77A17EE903A07EE902AF8EEE77A37
:10A9100077EEC47A87EEA67AFCEEC77A17EE90CA75
:10A9200007EE909AB8EEE73A07EE901AF8EEE77A5B
:10A9300023EE243A83EE277A37EE453A32EEC77A91
:10A94000C3EE267A35EE853A77EEE37AFCEEE77AC7
:10A9500017EE901AC7EE267A77EEE37AFCEEE77AE6
:10A9600017EE902A02F1020909EB010BB0EE437ACF
:10A9700007EE90BAF8EE677AA6EEA77AF4EEC74A29
:10A98000F1EE10FA00F3898043EA0C095FFA89F9C5
:10A99000B9F10F0F00F2838041EA02091FFA89F929
:10A9A000B9F1FF0F7BD81B054FEA0C4C03F07F6316
:10A9B00092B20CF47F0C43EA0C0343EA0073414863
:10A9C00000EA01210B43134360224FF00009304697
:10A9D00055432C442835C4F8A438A8440123C4F8AE
:10A9E000A898C4F8B098C4F8AC38C4F8B498C8E9CA
:10A9F000029947F0E5FE94F8E138202BD9B21AD13C
:10AA000094F8E038012B16D0242384F8E138D4F8E8
:10AA1000A0381A6822F001021A601A6822F48052E3
:10AA20001A601A681A601A6842F001021A6084F803
:10AA3000E11884F8E098002197F9120045F0A8FC8D
:10AA400097F91220BB7C002A08DB5909012203F088
:10AA50001F0302FA03F31C4A42F82130002197F940
:10AA6000110045F095FC97F911207B7C002A08DB4A
:10AA70005909012203F01F0302FA03F3124A42F8B4
:10AA80002130BDE8F88F70461DE740F214514FF4B5
:10AA9000167964234FF496721FE7013164E7BEF123
:10AAA0000F0FF0D100238FE7001A0120286B6E4EA4
:10AAB0000000704200380240586A05080000164342
:10AAC0000024744900FFFF0000E100E08C22012017
:10AAD0002DE9F84F714EC0EB001306EBC303D3F81A
:10AAE0004C4A002C00F09A8093F8BC8A0546070176
:10AAF000404645F00DFD01224FEA581308F01F08AB
:10AB0000013B02FA08F2032B0FD801A151F823F000
:10AB100083AC00088FAC000821AB000877AC0008BC
:10AB20005F490B6A23EA02030B627B1B05F1010BF1
:10AB300006EBC3035FFA8BFB93F8500A0FF02AFE73
:10AB4000804618B1122380F807B083717B1B06EB97
:10AB5000C30393F8510A0FF01DFE824618B1132368
:10AB600080F807B083717B1B06EBC30393F8520A8E
:10AB70000FF010FE814618B1142380F807B08371DE
:10AB80007F1B50462E2106EBC70696F8542AFFF786
:10AB90000BFE96F8552A48460E21FFF705FE96F85B
:10ABA000532A2E214046FFF7FFFD23683D4A23F03C
:10ABB00040039442236033D03B4B9C423AD03B4B02
:10ABC0009C424DD03A4B9C423FD03A4B9C4209D1DB
:10ABD00003F568435A6A42F480125A625A6A22F4B0
:10ABE00080125A62636843F48053636023685B0693
:10ABF0000CD4206840F217322F49304B01400A43F1
:10AC000022606268134043F4E0636360E36923F405
:10AC10000063E361236843F040032360BDE8F88FDD
:10AC20001F4B5A6A42F480525A625A6A22F4805286
:10AC30005A62D7E703F500331A6A42F480421A6277
:10AC40001A6A22F480421A62CCE703F582335A6A08
:10AC500042F400525A625A6A22F400525A62C1E720
:10AC600003F5FE331A6A42F400421A621A6A22F4A9
:10AC700000421A62B6E70A490B6923EA02030B6134
:10AC800053E707494B6923EA02034B614DE7044947
:10AC90004B6A23EA02034B6247E700BF001A012018
:10ACA000003802400030014000380040003C0040C5
:10ACB00000340140005001404000FFFFFBF0FFFF67
:10ACC00008B1002298E4704702692DE9F041167836
:10ACD00084B004460D46012E17D10B7900F1100700
:10ACE0004FF00008013B8DF8058013710DF105024E
:10ACF0004B797521002B08BF68230375334638460E
:10AD00000FF04AF900283ED1226902231370EE7831
:10AD10001EB9002004B0BDE8F08104F11007A97845
:10AD200038460EF063FD0028F3D030460FF032FDB8
:10AD3000A0612B7806460133DBB210B1C371222328
:10AD4000837130460D21FFF7BBFF3046FFF75AFAFB
:10AD5000434AD2F84033632BFBD942480EF032FD10
:10AD6000414E424BA08202E056F8043F63B338469E
:10AD7000984703460028F7D0206984F8D83048F077
:10AD80009DFD0120C6E7206948F098FD3346414605
:10AD90000DF1060238460FF0FFF89DF8063003F07B
:10ADA0007E03682B8DF8063000D198B99DF80530E8
:10ADB00003F07E03682B8DF805300ED0702BE0D1A8
:10ADC000042384F8D830DCE7E8780FF0E3FC0FF0D8
:10ADD0003FFD9EE784F8D860D3E70623022102AA4C
:10ADE000384684F8D81019460FF0D6F89DF80D3083
:10ADF0009DF80B209B00520003F0040302F00202B6
:10AE000013439DF8092002F0010213430ED068B1EC
:10AE1000032B05D8012B05D1002384F8D930B0E7E6
:10AE2000072B19D1012384F8D930AAE701230DF1AA
:10AE300007020C2138460FF0AFF880F001039DF8AF
:10AE40000720DBB202F00F0233B9B2FA82F35B09DA
:10AE500012B1042AE6D1E6E7032010F0FBFC90E7EC
:10AE6000001A012040420F0048720508F5620408EC
:10AE700070B50E4CD4F8346B002E15DD04F58764E4
:10AE8000002503E001352034B5420DD0237F002B8F
:10AE9000F8D0E06800220028F4D00135217DFFF7CA
:10AEA000ABFB2034B542F1D1012070BDF801002088
:10AEB0002DE9F04F002393B0A74F0193A74BA7F6BE
:10AEC0000C1BA74D93F83E3CA64EAA4603F1FF3952
:10AED00003935FFA89F30293A34DA946D9F8005072
:10AEE000AB0AA3F58013522B00F2D7805B4493F892
:10AEF000F4330D2B00F2D18016F90380039B012B54
:10AF000000F01581039B022B02D1B8F1080F3AD152
:10AF100000242146404610F0EFFC10F077FD90F839
:10AF200000C0BCF1000F18BFBCF1540F14BF4FF0AC
:10AF3000010C4FF0000C40F004810434A4B2102C3A
:10AF4000E7D1019B002B00F0B380854A0CE05B4405
:10AF500093F8F4330D2B0ED8F35643450ED002F57B
:10AF60008672524500F0A08091680B689B0AA3F599
:10AF70008013522BEBD900234345F0D14B7999F83C
:10AF800005109942EBD109F11C094F45A6D1019B4F
:10AF90000AF5867A0133042B01939DD1DFF8DCA1F9
:10AFA0000023AAF5876B01930AF59E730293DBF8E1
:10AFB000343B019A93426DDDDAF80C70002F69D0B2
:10AFC0009AF810303A68DBF8045068480493002D72
:10AFD000BB88104403934FEA902040F3D380604B2A
:10AFE000002405E0013403F58673AC4200F0C8800C
:10AFF00019688142F6D15A4B4FF48671039E01FBCA
:10B000000434049B4FF0030E019D8AF81030039B1B
:10B010000135CAF80C70B3FA83FCCAF81840CCF1B9
:10B020001F035800CAF8043087F806E0FD710EFAD5
:10B0300000FEA16C0127D4F8548041EA0E0107FA02
:10B0400000F007FA03F39BF800E0A164216D0143CF
:10B05000D4F8AC00216599B2BEF1000F00F0FC807D
:10B0600043EA0803636596613A46FDF743F82046D4
:10B070000AF1200AFDF712F840F201120123082D0F
:10B080002AF8042C029A019502F1180202F8073CF2
:10B0900002928CD113B0BDE8F08F029B012B7FF69A
:10B0A00072AF4FF0000833E7BCF1000F7FF46BAFD5
:10B0B0004846FCF7B9FF99F805E0C3B2022B00F24D
:10B0C0007A8300F1010C2A4A4FFA8CFC02F57D705C
:10B0D0000CEB4C0C4FEA8C0C03E02C32904200F04D
:10B0E0006A8313689D42F8D113797345F5D152F8FC
:10B0F0000C30002BF1D01F48002142689A4212D038
:10B10000013124301029F8D14FF0FF3303EBC30392
:10B11000194A02EB830393F8B831002B7FF433AF65
:10B12000CAF8089033E74B1CDBB2013BEEE7B8F1FD
:10B13000010F3FF4EDAE09F11C094F457FF4CEAE8F
:10B1400025E7019B002B7FF400AF09F11C094F4557
:10B150007FF4C4AE1BE700BF64730508001A01202A
:10B1600000020020ECE50508687205080000FEBF3B
:10B17000586A05089C0101200000012030060020CB
:10B18000042C76D04FF4867303FB05B3196906913E
:10B19000002900F0F8829860013054210792C4B26F
:10B1A000B54A83F8101183F811416B1C92F8552CA5
:10B1B000CBF80430069B089218461E685B7905930D
:10B1C000FCF732FFC3B2022B00F2F58200F1010E50
:10B1D000AA494FF0000CDDF814904FFA8EFE079A42
:10B1E0000EEB4E0E4FEA8E0E06E00CF1010C2C31E8
:10B1F000BCF1170F00F0DF820B689E42F5D10B798E
:10B200004B45F2D151F80E30002BEED098462C234E
:10B2100000EB4000994903FB0CF3DFF8949203EB39
:10B22000800348460B4419694FF4867303FB05B34A
:10B23000C3E907810021436843452BD00131243005
:10B240001029F8D18E4B93F89421B2B9542283F887
:10B25000954183F8942110E0CCF12F0C360407FAC5
:10B260000CF343EA0803636596617246FCF742FFFC
:10B27000FDE60323804A82F8543C824B824883498E
:10B28000834AC3F84804C3F84014C3F8502413B0E9
:10B29000BDE8F08F4B1C7A49DBB2013B03EBC303E3
:10B2A00001EB830393F8B81109910029E5D14FF41C
:10B2B000867178484FF08C0C83F8B94101FB05F199
:10B2C000754C0791891004F54C7E00FB01F107983D
:10B2D0005844C0F800C10CFB01FC01EB4101C26005
:10B2E0000EEB4C0201EB0111C0F8FC20542204EBE0
:10B2F0008104079983F8B8213323C0F8B440C0F81B
:10B30000B830664B5C185C4BD3F89C23089B062B2B
:10B3100000F02A82072B00F024826149614B3046FD
:10B32000B2FBF3F3B2FBF1F2013B4FF48671013A49
:10B330009BB201FB05B1A1F8BC20A1F874302366D3
:10B340000023A4F858306366E365079B03F15801B6
:10B35000524B194446F00CFF3368059A43F08003C2
:10B3600033600C2A1CD801A353F822F0B7B60008AA
:10B37000A1B30008A1B30008A1B3000875B6000886
:10B38000A1B30008A1B30008A1B30008F5B60008F6
:10B39000A1B30008A1B30008A1B300082FB60008AC
:10B3A0004FF486736022304603FB05B30A924FF4D4
:10B3B0008072596933681092012223F001030891C9
:10B3C0000B920A22336000230C930F9311930223F4
:10B3D000CDE90D230AAA46F083FD08990023B1F5B3
:10B3E000807F00F0CD8100F2C281102900F0DC8165
:10B3F00000F2CE81012902D0042940F0CC8108223C
:10B4000006F11801C8580243CA50069B1879002853
:10B4100040F09681336843F0010333600023D9F88C
:10B4200004200133904500F08781102B09F1240995
:10B43000F5D14FF0FF33124A03EBC30302EB830352
:10B44000D3F89C01184B984214BF9620952045F0E4
:10B450005FF8059B0C2B00F26C81084A02EB43035A
:10B46000B3F80CC94FF48673104903FB05B3A3F876
:10B4700018C0002325E000BF001A0120586A050803
:10B4800000000120F01200204573010841730108FB
:10B490004D7301086B4CA4075017002000020020D8
:10B4A00044950800D0DD0600006002401C11002019
:10B4B0009C010120964200F072810133042B00F0C0
:10B4C0007D8151F83320002AF4D1DBF8202F01329E
:10B4D000CBF8202F0BEBC302DB00C2F8246F19441A
:10B4E0000998234690228E884CEA060C0026A1F883
:10B4F00004C0B449FFF716F84FF48673B2484FF40E
:10B50000403203FB05B8D8F81C50D8F80C902B68D3
:10B51000E9B243F0100310392B602B68A0FB010146
:10B52000402043F0140309092B60C4F8A860C4E963
:10B530001F66C4E92866D8F82030C4F898204FF474
:10B540008062C4F8943008930423A067C4F89C3048
:10B55000C4F884209D4BD8E92D02C4F8902009F14D
:10B56000180260674FF4804022674FF4805209F15F
:10B570001009C4E92220079A25F0FF0070321A440E
:10B58000CDE9050146F042FFD5F800E0079AC4F87E
:10B5900020E0D5F814E0B8328C4BC4F824E0D5F89C
:10B5A00004E01A44089BC4F828E0D5F808E0C4F881
:10B5B0002CE0D5F80CE0C4F8DC300423C4F830E00B
:10B5C000C4F8E4304FF48063C4F8C860C4F8CC30E9
:10B5D0004FF40033C4F8F060C4F8E030C4E93066DA
:10B5E000C4E93A66D8E93F63DDE90501C4E92E966E
:10B5F0004FF48046C4E935634FF40063C4F8D0309B
:10B6000046F004FF2B683A6863636B69BE88A363E6
:10B610006B68E363AB682364EB6863642B6843F097
:10B6200010032B602B6843F014032B60E9E43368AC
:10B630004FF486724FF480514FF0020E23F0010355
:10B6400002FB05B2304651610AAA336000230C9315
:10B650000F93119360230A934FF480731093012387
:10B660000B930A23CDE90D3E46F03AFC4FF40062FD
:10B670000423C5E64FF4867210213368022002FBD2
:10B6800005B223F0010351616022336000230A9266
:10B690004FF480720C93109201220F930B920A22A6
:10B6A0001193CDE90D200AAA304646F019FC00237B
:10B6B0004FF40062A4E64FF48672336801213046ED
:10B6C00002FB05B223F001030B915161602233604C
:10B6D00000230A924FF480720C930F93119302236C
:10B6E00010920A22CDE90D230AAA46F0F9FB0023A5
:10B6F000082285E633684FF486724FF48071022089
:10B7000023F0010302FB05B2109151616022336006
:10B7100000230C930F9311930123CDE90A230A23ED
:10B720000AAACDE90D30304646F0DAFB08220423A0
:10B7300066E64FF0000C95E6DBB20993013B7AE632
:10B740000FF028F8089038B1069B0221DA79FEF74D
:10B7500053FF5422089BDA80736C43F400437364F4
:10B7600058E61B491B4BDAE51B491C4BD7E5B1F5E5
:10B77000805F1CD0B1F5803F13D0B1F5806F0AD146
:10B78000082204233CE60223154A82F8543C74E55F
:10B7900040293FF434AE4FF400623C2330E6DB0036
:10B7A0009DE608223C232BE64FF4006228E64FF486
:10B7B0000062042324E600235B68FFDE00239B88ED
:10B7C000FFDE00BF41810008ABAAAAAA0002002048
:10B7D0001055220040771B00882A1100A0BB0D00E5
:10B7E000001A012070B590F8B2311C09013C052CFB
:10B7F0000FD81A4E054603F00F0306EB4402B2F8C9
:10B80000280940FA03F2D20703D595F8BD21012A91
:10B8100001D0012070BD9A402644013A10404AF000
:10B8200021FF96F834390E4A034402EBC30452F860
:10B830003320A38810691840ECD0002395F8B32179
:10B840000221204685F8BD31FEF7D6FED5F820212D
:10B85000136843F008031360DBE700BF586A05086C
:10B860005826012008B9002070472DE9F04F00222A
:10B870008DB02F21044610F01FF9074600B390F851
:10B880000580994ED0F80090A6F8B884FEF74AFDDE
:10B89000B0B14568A5B1DFF888B200225946DC4650
:10B8A000DCF8043001320CF1240C9D420CD0102A3B
:10B8B000F6D18E4B93F8942112B92F22A3F894213C
:10B8C00000200DB0BDE8F08FD2B2DFF820A2013A1F
:10B8D00002EBC2020AEB820C92009CF8B831009392
:10B8E000002BEDD111442F2283688A83804AD6F839
:10B8F0009C1301939142C6F8789480F0D680009A08
:10B90000090A7C48C6F87C240022A0FB01107A4971
:10B91000C6F88824C6F8802402090009A1FB021297
:10B92000C6F884045208A6F85A2F5200A6F8582FD9
:10B9300096F8B52402F0FF01002A00F0CB80022225
:10B9400048466E4986F8B5243DF006F901222046A6
:10B9500086F8B5240EF01EFFC6F85C0F28B12F2123
:10B96000C1804E21FA79FEF747FE654A0021019B0E
:10B97000B8F10C0FC6F86C1FC6F8643FC6F87C1F00
:10B98000C6F8841FC6F88C1FC6F8901F106BC6F847
:10B99000605F40F400101063106B00F4001003901F
:10B9A0000398106B40F480001063126B02F4800265
:10B9B0000492049A4FF04002C6F8682F4FF4806258
:10B9C000C6F8702F4FF48052C6F8742F4FF480429F
:10B9D000C6F8782F4FF40032C6F8802F4FF00302DC
:10B9E000C6F8882F6DD8474A02EB4802B2F83C49A6
:10B9F000A146083444485946002206EB840CCCF892
:10BA00007804A0F6E820C6F8980F4868013224317F
:10BA100085425CD0102AF8D14FF0FF3202EBC2020F
:10BA20000AEB820A394ADAF89C01904214BF962048
:10BA3000952044F06DFD0022DBF8041001320BF17B
:10BA4000240B8D4240D0102AF6D106EB84060098D4
:10BA50004B4660222E49FEF765FDD6F878043CF08F
:10BA60006FFB00287FF42CAFBC7960210A9042461E
:10BA7000630005910B9005A903F00203069009905D
:10BA80000793E300234803F00803089344F09AF96E
:10BA900000287FF415AFA30741461E481DD53DF091
:10BAA000CBF8B0FA80F040090BE71B4A1B480A4468
:10BAB000A0FB0202920D013A92B2501CB1FBF0F1D0
:10BAC0001EE789460C4694E7D3B20093BDE7D2B295
:10BAD000013AA3E786F8B41431E73DF00DF8B0FA67
:10BAE00080F04009EDE600BF001A012000000120AF
:10BAF000006CDC02598B4F01ABAAAAAA7C1E012064
:10BB000000380240586A05086029012000600240A0
:10BB1000C9910008781E012000366E01819F5E16D3
:10BB20009C010120014B53F8200070475028004031
:10BB3000014B43F82010704750280040204B21480B
:10BB4000196C214A41F0805130B482B01964196CEB
:10BB5000FF2401F0805101910199016841F4807145
:10BB60000160CA20196C41F480611964196C01F4F8
:10BB7000806100915321009D5462506251625B6F5D
:10BB8000DB0013D4114B00221149C3F85428C3F829
:10BB90005828C3F85C28C3F86028C3F86428C3F8A1
:10BBA0006828C3F8501802B030BC7047074A084BE9
:10BBB000D2F850289A42E5D102B030BC704700BF9D
:10BBC0000038024000700040002800400020004083
:10BBD000316665422DE9F04F0646086889B00C468B
:10BBE000850ABDF848A0A5F580159DF84CB0522DEA
:10BBF00054D819462E4B2B4493F8F4530D2D4DD8A1
:10BC00002C4FFDF733FB94F8058007EB851794F86C
:10BC10000690AD01BBF1000F43D14B465A004FF4E3
:10BC20008071DB00384602F00202CDF808A003F074
:10BC30000803039242460493602301934FF4007378
:10BC4000CDE90613002301A9059344F0BBF819F0D0
:10BC5000020F4146384627D03CF0EEFF164B02213A
:10BC60005A1982F8F914D2F8BC14144A88680240B0
:10BC7000062A06D0B2F5803F03D00A6842F00102DE
:10BC80000A602B44012283F8F9242168637901F1C9
:10BC9000340271600021D0183060D15009B0BDE885
:10BCA000F08F89F00103B9E73CF026FFD6E700BF2B
:10BCB000586A0508BC1E0120001A01200700010077
:10BCC0002DE9F84FD0F8947004464A4B00F1640611
:10BCD000FDB227F0FF09826800F1180A103D4846BE
:10BCE000D2F80080A3FB05352D09294646F0D6FB86
:10BCF000626D0023B2F5807F84F8583057D037D872
:10BD0000102A68D064D8012A01D0042A39D16FF0F2
:10BD10000801324608F11806404656F803C001EA09
:10BD20000C01F150D4F854B0594646F0D9F8BBF59F
:10BD3000807F37D029D8BBF1100F4FD044D8BBF14A
:10BD4000010F02D0BBF1040F28D14FF0080C33686B
:10BD500052462946484643EA0C0333604023236297
:10BD600046F054FB3B6843F010033B60BDE8F88F9E
:10BD7000B2F5805F3AD0B2F5803F21D0B2F5806F46
:10BD800015D06FF400613C23C3E7BBF5805F28D07A
:10BD9000BBF5803F0FD0BBF5806F03D03C364FF42E
:10BDA000006CD4E708F11C064FF0080CCFE76FF0E9
:10BDB00008010423ADE708F154064FF0080CC6E76C
:10BDC0006FF008013C23A4E7BBF1400FBDD0E5E7CD
:10BDD000402A9CD0D5E76FF400619AE74FF4006CDD
:10BDE000B5E708F11C064FF4006CB0E76FF4006192
:10BDF00004238EE7ABAAAAAA2DE9F04FDFF840B2E0
:10BE000087B09BF800301BB9012007B0BDE8F08F68
:10BE1000854BD3F8403304930FF002F8834A92F82D
:10BE2000243C002B00F0F8800BF23464D2F81C3470
:10BE30000BF6383A0BF61868C31A26460027059405
:10BE40000193019A002A03DBF36D934200F3CA8049
:10BE500007EB87030BEB431393F88C3603F0FF0ECD
:10BE6000002B00F08680D6F89410B36870481A68EA
:10BE7000CBB221F0FF01103BA0FB03036D481B096F
:10BE8000C35C0B44B1895C68D368A4B223EA0103A4
:10BE9000C4F11604D360072C6BD9DBF8203E0022D6
:10BEA0000121013315468946CBF8203ED6F89C3057
:10BEB00018689C46CDE902E315E0142D1EDC13F151
:10BEC000080E48BF03F1170E4FEA2E1305EB2E158F
:10BED00003F1FF3E013102FA03F309FA0EFE8C4230
:10BEE0004EEA03020AD303468C425CF8040FA0EB2F
:10BEF0000303E2D8C5F115031525E9E7152DDDE9A2
:10BF000002E366D14C4CC2F38421C2F3441004EB2B
:10BF1000810104EB8000D1F85819D0F858090902C2
:10BF200041EA001102F01F00C2F3C43204EB8000AA
:10BF300004EB8202D0F85809D2F85829014341EAAB
:10BF4000023282EA122181EA111101F00F010F2958
:10BF50003FD1C2F30F124FF6FF718A4239D0B2F5CA
:10BF6000606F43D0A8F80C207146049A50460DF03B
:10BF7000D1FB30460137FFF7A3FE2C4BA0360AF168
:10BF80005C0A93F8243C08F11408BB423FF759AF10
:10BF900001222649059C8BF81C2F0022C1F81C2485
:10BFA000002B3FF431AF03EB830304EB4313A26890
:10BFB000A03414F8901C126854F84C0C11F0020FC5
:10BFC000116A14BF41EA80010143A3421162EED11C
:10BFD0001AE7DBF81C2E0132CBF81C2EB7B14FF05C
:10BFE000000EC1E7002007B0BDE8F08F0E4991F8C0
:10BFF000683403EB430301EBC3033B4493F815346C
:10C000000D2BAFD1802388F81E30ADE7194658229A
:10C010000A484AF085F9E2E7012204498BF81C2F0F
:10C02000C1F81C34F0E600BF001A0120F012002015
:10C03000ABAAAAAAFCE50508586A0508BC100020AE
:10C04000F80100204A1C4FF4003310B418BF4FF021
:10C05000450C4A4C08BF4FF0800C00E023B3626BE4
:10C06000013B12EA0C0FF9D0002917DD626B54076F
:10C0700016D4032912D0414B5A6BD2071CD4022983
:10C0800008D01A69D2B282421AD101295B6920D044
:10C09000062917D000205DF8044B7047002BF9D11A
:10C0A00003205DF8044B70470029F9DD636B5B07E3
:10C0B000F6D40329DFD1F3E701205DF8044B704784
:10C0C0001020EEE713F4604F2FD12D4AC2F8C03F85
:10C0D000E0E72C4A1A40002ADCD0002B31DB5C0060
:10C0E0002DD4980031D4D9002DD41A0131D45C015B
:10C0F0002DD4D80137D419021DD45A02E0D49C02A1
:10C100002DD4D80229D4190317D45A0323D49C035D
:10C1100031D4D8032DD4190429D45A0425D49C042D
:10C120001FD41807B6D51A20BBE7990405D45A04C2
:10C13000C6D41B04AED50F20B3E71320B1E7092006
:10C14000AFE71C20ADE70B20ABE70A20A9E70D20E5
:10C15000A7E70C20A5E71420A3E71220A1E71120F0
:10C160009FE719209DE70E209BE7182099E71720ED
:10C1700097E7162095E7152093E700BF002C0140B4
:10C18000001A012008E0FFFDF8B5164DD5F8EC3F88
:10C19000A3B1D5F8F41F0446012915D0124B40F283
:10C1A000FF500021DA6A22F00802DA629863C5F8CB
:10C1B000EC1F236823F001032360F8BD0A4AD36B08
:10C1C00043F48073D363F8BD074E40F2FF5700235A
:10C1D0000C20B763B36040F24C43F360FFF732FFCB
:10C1E000B763DBE7001A0120002C01402F4B1A68CF
:10C1F000910102D59A6D52074BD42C4B1A6850020C
:10C2000002D5DA6E11063CD4284B1A68D20102D549
:10C210009A6D90072DD4254B1A68510102D59A6D5D
:10C22000120717D4214B1A68120112D59A6DD00645
:10C230000FD59A6D510334D49A6DD20503D49A6DFB
:10C2400022F010029A65194B4FF0006218489A606C
:10C250009AE770479A6D500307D49A6DD10503D4BD
:10C260009A6D22F008029A65104B4FF080629A6036
:10C27000D8E79A6D4FF0807122F002029A659960BA
:10C28000C9E7DA6E4FF4800122F08002DA66996025
:10C29000BAE79A6D4FF0007122F004029A65996036
:10C2A000ABE74FF000629A60704700BF0064024045
:10C2B00058640240384B5A68110303D5D3F8A020C4
:10C2C00052075BD4344B5A68D00303D5D3F8B4205B
:10C2D000110649D4304B5A68520303D5D3F8A02035
:10C2E000900737D42C4B5A68D10203D5D3F8A0203D
:10C2F00012071CD4284B5A68920217D5D3F8A020F5
:10C30000D00613D5D3F8A020510341D4D3F8A020F0
:10C31000D20505D4D3F8A02022F01002C3F8A02043
:10C320001D4B4FF400121D48DA602DE77047D3F81B
:10C33000A02050030AD4D3F8A020D10505D4D3F807
:10C34000A02022F00802C3F8A020134B4FF4801263
:10C35000DA60CFE7D3F8A0204FF4802122F0020268
:10C36000C3F8A020D960BDE7D3F8B4204FF48031E2
:10C3700022F08002C3F8B420D960ABE7D3F8A02044
:10C380004FF4002122F00402C3F8A020D96099E7FD
:10C390004FF40012DA60704700640240A06402406B
:10C3A0002DE9F041544E82B096F8F83F022B00F28E
:10C3B0008F80524D6B6913F0007303D00E2002B0D2
:10C3C000BDE8F081009340F2FF574FF48A634FF0CD
:10C3D0000808AF630446C5F8088001211020EB600F
:10C3E000FFF730FEAF630028E9D1AF630121D6F833
:10C3F000C03F3720AB6040F27743EB60FFF722FE8F
:10C40000AF630028DBD13E4A40F2734301216A62E8
:10C41000C5F82880EA6A42F03302EA62AF63A86096
:10C420003320EB60FFF70EFEAF630028C7D16946EB
:10C4300040F22A4201E09B0250D46B6B13426B6BBB
:10C44000F9D01F074FD46B6B98074ED46B6B9906CE
:10C450004DD46B6B9B024CD4B4F5006F009B18BF9E
:10C460004FF480321BBA08BF4FF480221A4233D0F7
:10C47000D6F8C02F40F27743204D40F2FF560121FD
:10C480003720AE63AA60EB60FFF7DCFDAE630028E7
:10C4900095D1C4F3C02340F24642AE6301215B0054
:10C4A0000620AB60EA60FFF7CDFDAE63002886D1C1
:10C4B0006B6803F400639C4281D0124A6B6813409E
:10C4C00023436B606B6803F40063A342F6D176E705
:10C4D000282002B0BDE8F081262070E7D5F8803032
:10C4E00041F8043BA9E7042069E7022067E706203A
:10C4F00065E7222063E700BF001A0120002C0140FD
:10C5000000E1F5050081FFFF70B5154D40F2FF56C3
:10C51000144C40F24D43D5F8C02F0121A6630D20E5
:10C52000A260E360FFF78EFDA66320B96369C3F3E1
:10C530004323042B02D04FF0FF3070BD05F580552A
:10C54000286D0028F9D002688388126995F84D009B
:10C550001340002B18BF80F00100013840B270BDBD
:10C56000001A0120002C014070B51B4D10460A46F0
:10C570002C6D54B12668A188346995F84D5021403E
:10C58000003918BF01218D4223D0002143F0AAFBBE
:10C59000F8B9124DD5F8EC3F002BFBD1104C40F20E
:10C5A000FF56D5F8C02F40F24D43A6630121A2608B
:10C5B0000D20E360FFF746FDA6630028F1D1636913
:10C5C000C3F34323042BECD1D5F84033C5F84433EF
:10C5D00070BD4FF0FF3070BD002A0120001A01200D
:10C5E000002C014070B51B4D10460A462C6D54B10D
:10C5F0002668A188346995F84D502140003918BF4C
:10C6000001218D4223D0002143F010FBF8B9124DD7
:10C61000D5F8F03F002BFBD1104C40F2FF56D5F877
:10C62000C02F40F24D43A6630121A2600D20E360BC
:10C63000FFF708FDA6630028F1D16369C3F3432324
:10C64000042BECD1D5F84033C5F8443370BD4FF01E
:10C65000FF3070BD002A0120001A0120002C01408B
:10C66000A549A64BD1F8C40FD1F8C82FF0B5840F57
:10C67000C2F3803591F8F86FC2F3072C03F8084C29
:10C68000C0F38364012E03F8074CC0F3016403F880
:10C69000064CC0F3074403F8054CC0F30724C0B2AE
:10C6A00003F8044C4FEA126403F8030C4FEA041039
:10C6B000C2F3035423F8020C33F8020C80B240EAB0
:10C6C0000400C2F3034423F8020CC2F3C0301C7010
:10C6D0005870C2F340309D70D870C2F30030D1F86A
:10C6E000CC4F18714FF00000587140F2C080022EFC
:10C6F00000F09D802A204FEA4C0C5D74C4F3C016F4
:10C70000D1F8D02F0CF07E0C04F07F0483F812C017
:10C710004FF0010C9D7C3543C2F381569D74DC744F
:10C72000D40F1C75C2F341745C75C2F382649C75AE
:10C73000940D04F00C04DC75DD7DD1F8D44F354345
:10C74000C2F34056DD75C4F307451E7600262D0260
:10C750005E76C2F300469E76C2F3C036DE76C2F342
:10C7600080361E77C2F340365E77C2F300369E777E
:10C77000C2F38126DE77C2F30126C2F3460283F8B4
:10C78000206083F82120220E83F822C083F8242021
:10C79000DD84C4F30725DA8C240692B22A43DA84B6
:10C7A0009C62D1F8D84F9A6A250E42EA05429A62F5
:10C7B000220A9D6A02F47F422A43C4F30725E4B2A9
:10C7C0009A629E6AD1F8DC2F3543D1F8E01F9D6252
:10C7D000150E83F82C40140C83F82D5024061C638E
:10C7E00014021D6B224604F47F042C4392B21C6396
:10C7F0001C6B2243C1F303541A631A6B42EA1162A1
:10C800001A6393F83420224383F834200A0A02F48E
:10C810007062DA86C1F30722DC8EA4B21443C1F33E
:10C820004602DC8683F8382083F839C0F0BD120454
:10C83000C4F3072C250E02F47C129A609A6842EA2F
:10C8400005229A60C4F307429D682A434FF400759D
:10C850009A609A689D64013240F10005AD0245EA94
:10C86000925592025D64C4F380351A6443E74FEA3F
:10C870008C2C012692000CF44065C4F3072C02F4C2
:10C880007F729D609D682A43C4F3C0359A609A68A0
:10C8900042EA94729A60C4F3C2621A73C4F30262E9
:10C8A0005A73C4F342529A73C4F38242DA73E20BAE
:10C8B00002F006021A741A7C2A431A749D681A7CC4
:10C8C0001F78023206FA02F2BE40D717A2FB062EEC
:10C8D0009E6406FB07EE05FB0EEE0135A2FB052567
:10C8E000AE44520AC4F3803542EACE521A644FEA8B
:10C8F0005E225A64FFE600BF001A0120F82A0120D8
:10C900000E4838B5036D0D46144653B119689B881F
:10C91000096990F84D200B40003B18BF01239A4253
:10C9200009D0FFF79DFE064A4FF400730020126CF9
:10C930002A60238038BD4FF0FF3038BD002A012027
:10C94000F82A01202DE9F84F784F0022784E05464D
:10C950003C6D33465968013224338C4200F0A38089
:10C96000102AF7D10024734B9D4205D048339D42D5
:10C9700002D00020BDE8F88F04F1FF38DFF8E8911D
:10C9800008EBC8034FEAC80A09EB83029B0092F840
:10C99000B821002AEDD11E444FF0170BA6F81CB0A9
:10C9A000002CE6D0644E0120736A43F40063736286
:10C9B0000EF074FC736A012023F4006373620EF0BE
:10C9C0006DFC736C43F400637364336B43F4800356
:10C9D0003363336B43F00C033363584E97F8563090
:10C9E000A6F89EBD002B60D106F698500C220E21B1
:10C9F000A6F8BEBDA6F8EEBDFDF7FEFD0C220E2189
:10CA00004F48D044FDF7F8FD0C220E214D48FDF7AC
:10CA1000F3FD4D4B09EB8808DB683D65C3F302234A
:10CA2000C3F107011A1D042928BF0421062A88BF63
:10CA3000DA1E4FF0FF3398BF00228B40DB4303F038
:10CA400001039340414A1B01DBB282F831334FF4BA
:10CA50000033D8F89C115360374A136B43F48003BA
:10CA6000136300223A4B2A60AB6003F59B3303F556
:10CA7000EC739D423CD0374B4FF47410364AD8606B
:10CA80000720C3F8A020354AC3F8B400914244D02F
:10CA9000962043F03DFD0023012231492046FDF759
:10CAA00041FD012066E7D4B25DE706F698500C22FE
:10CAB0000E21A6F8A6BDA6F8AEBDA6F8B6BDA6F88E
:10CAC000BEBDA6F8EEBDFDF797FD06F55A600C2237
:10CAD0000E21FDF791FD06F6A8500C220E21FDF760
:10CAE0008BFD06F55B600C220E21FDF785FD85E7C9
:10CAF0004FF07460184A43F8500C07201A60174A28
:10CB0000586191420DD0962043F002FD002301228E
:10CB100014492046FDF706FDC3E7952043F0F8FCD5
:10CB2000B9E7952043F0F4FCF0E700BFF82A0120B4
:10CB30009C0101205864024000380240001A012084
:10CB4000B8270120E827012000ED00E000E100E027
:10CB5000802C0140006402406054A3080060024041
:10CB6000B5C20008EDC10008000001200E4A0121F5
:10CB70000D20D2F8C02F38B50C4C40F2FF5540F2D2
:10CB80004D43A563A260E360FFF75CFAA56340B97B
:10CB90006069C0F34320A0F10400B0FA80F04009BE
:10CBA00038BD002038BD00BF001A0120002C014014
:10CBB0002DE9F043AA4D83B095F8596036B1A94BE1
:10CBC00093F8DC33184603B0BDE8F083A64B01228E
:10CBD000A64C022085F859205A6C42F400625A642F
:10CBE0005B6C03F400630193019AA14B62681340EC
:10CBF000032243F076036360636823F48073636009
:10CC000022600EF04BFB636840F2FF5243F48073E6
:10CC100063604FF40033A2634FF48062A660E26069
:10CC200001E0002B64D0626B013B1206F9D5002BAA
:10CC30005ED040F2FF564FF4D5724FF4896307215E
:10CC4000A6630820A663A260E360FFF7FBF9A66372
:10CC5000002846D04FF00008844C40F2FF590023D2
:10CC60000121C4F838903720A36040F27743E36095
:10CC7000FFF7E8F9C4F83890034658BB7D4F0646E5
:10CC800048EA0707804611E0C4F838900136A760EB
:10CC9000E260FFF7D7F94FF6FF720346C4F8389009
:10CCA000C0B96369002B29DB964227D040F2774355
:10CCB000C4F838900121C4F808803720E360FFF7FA
:10CCC000C1F9034640F2694203212920C4F8389093
:10CCD000002BD9D0634A184682F8DC3303B0BDE894
:10CCE000F083654B01224FF0804883F8F82FB3E7BB
:10CCF0005E4B40F2FF529A630323EBE74FF6FF725D
:10CD0000964200F0AB805F0077D55B4C0220574B1A
:10CD100084F8F80F1B689E077DD00126534940F226
:10CD2000FF538B6300238B6040F2C243CB604FF410
:10CD3000003300E023B14A6B013B12F0450FF9D0FC
:10CD40004A4A536B590700F18580536BDB0778D44F
:10CD500040F2FF53062893635369C4F8D43F9369A4
:10CD6000C4F8D83FD369C4F8DC3F136AC4F8E03F85
:10CD700053D0002E51D1D4F8C03F40F2FF573B4E64
:10CD800002210920B763B36040F2C943F360FFF7A3
:10CD900059F9B763034600289CD17369C4F8C43FAE
:10CDA000B369C4F8C83FF369C4F8CC3F336AC4F828
:10CDB000D03FFFF755FC002841D1D4F8C02F40F2F6
:10CDC00047432A4C40F2FF5601210720A663A26088
:10CDD000E360FFF737F9A663254A034661680A4016
:10CDE000626000287FF476AF95F8563073B34FF445
:10CDF0000060FFF7D5FA03466CE71C4B1B689807E9
:10CE000009D01D4C94F8F80F0428D2D002288CBF0A
:10CE10000026012682E726235CE7144E40F2FF57E6
:10CE200000230621B7630320B36040F24343F3605D
:10CE3000FFF708F9B763034600289CD04AE72A2386
:10CE400048E740F2FF510123916343E7FFF7A8FA57
:10CE500003463FE740F2FF5393634DE71B2339E757
:10CE6000F82A01200000012000380240002C014077
:10CE70000081FFFF00001080001A012038B5294D05
:10CE800095F85D000DF086FC28B11F210022C180BD
:10CE90002021FDF7B1FB244CD4F848234AB194F883
:10CEA0005433918803F0010312681B0101FA03F364
:10CEB000936195F95730DAB2012A19D8C3F1000C01
:10CEC0001A4B0CF00C0C03F528710CF1080C02E065
:10CED0001C338B420CD01A78032AF9D15A78002AD5
:10CEE000F6D153F80C000028F2D0FFF72BFD08B95B
:10CEF000012038BD0E4A136D53B119689B8809692A
:10CF000092F84D200B40003B18BF01239A42EFD00E
:10CF1000FFF74EFE0028EBD1D4F84033C4F8443379
:10CF200038BD00BFF82A0120001A0120986F0508BB
:10CF3000002A012070B52F4C636BD9051DD54FF425
:10CF4000807240F2FF562C4BA263A663E26B2B4D1E
:10CF50001340E363D5F8F43F9A0721D4012200235C
:10CF6000C5F8E42FC5F8E83F224B40F2FF51224AB2
:10CF70009963D96B0A40DA6370BD636B980704D577
:10CF80001E4B0222C3F8E82FEEE7636B190723D488
:10CF9000636B9A0625D5194B0622C3F8E82FE3E701
:10CFA000174B1A6D136823F0010313600022E36A24
:10CFB00023F00803E362C5F8F02FD5F8F43FDB0750
:10CFC000CCD540F24C43A6630121A2600C20E36063
:10CFD000FFF738F8A663C1E7084B0422C3F8E82F2F
:10CFE000C2E7636BDB06BFD5044B0522C3F8E82F0D
:10CFF000BAE700BF002C0140C53EFFFF001A012028
:10D00000F82A01202DE9F0472422D0F82051816828
:10D010000023C0F8942104462A6800F5907622F097
:10D0200001022A602B606B60AB60C0F89C3180F815
:10D030009031C0F89431C0F824114079C4F8983187
:10D040008202C4F83831C4F8403102F480522379A6
:10D05000C4F82821020313F0010702F40052C4F8B7
:10D060002C214FEA002202F48062C4F8302103F040
:10D07000020240F0C780002A40F0EF80C4F834710B
:10D08000B34B03F1200153F8042F944200F0FA80CF
:10D090008B42F8D10007D4F8943140F10781002B7E
:10D0A00000F0388124233046C4F894312B6823F0F3
:10D0B00001032B603BF0E4FD012817D0D4F8443184
:10D0C000002B40F031816B6823F490436B60AB68B8
:10D0D00023F02203AB60AB6843F00803AB6030463B
:10D0E0002B6843F001032B6045F00AFB002F5CD056
:10D0F000D4F8FC70002F00F0F380D4F8043104F170
:10D100003C08C4E90F7300234046C4E91133C4E965
:10D110001433C4E91833C4E91A334FF48033E36598
:10D120004FF48063E3644FF48073A36545F07AFFA6
:10D1300040463BF005F8D4F898A1C4F88C81BAF1C8
:10D14000200F66672ED1E368626999B252B3B1FAD3
:10D1500081F94FEA591929B394F89001012821D097
:10D160000B46A4F878112221C4F89C914046C4F8DB
:10D170007421C4F898117749C4F88C90A167764956
:10D18000E1677649C4F8881005F124013BF072F894
:10D19000002800F0CD80102384F89091C4F89C31D1
:10D1A000C4F894A17B68C4F8143123799A0767D531
:10D1B000D4F80051002D59D0D4F80821002304F1EF
:10D1C0009C07C4F8A8303846C4F8B030C4E92752E8
:10D1D0004022C4F8A4204FF48062C4F8AC204FF47D
:10D1E0008032C4E92D33C4E93033C4E93233C4F8A2
:10D1F000BC2045F017FF38463AF0A2FF002800F0A7
:10D200008280FEE70423C4F8343100F00103B2B198
:10D210000C22C4F83421002B3FF432AFD4F844314F
:10D220004FF4803243F00203C4F84C2143F0010371
:10D23000C4F844314FF40033C4F8483120E7002BE0
:10D240003FF41EAFD4F8443143F00203C4F8443134
:10D250004FF48033C4F84C3112E70823C4F834315A
:10D26000C3077FF50DAFD4F84431DFE7D4F8A03120
:10D270001A6842F080021A601A6842F040021A608E
:10D28000BDE8F08794F8BC31002B3FF403AFD4F82D
:10D290004431000743F00803C4F844314FF400431D
:10D2A000C4F85431D4F894313FF5F9AE002B34D0A2
:10D2B00024233046C4F894312B6823F001032B60FB
:10D2C0003BF0DEFC01283FF411AFD4F844313BBB06
:10D2D0006B6823F490436B60AB6823F02A03FDE690
:10D2E000D4F8A0311A6842F480721A609A6842F049
:10D2F00001029A601A6842F020021A601A6842F02D
:10D3000010021A6051E7C4F88871C4F8D4606860EC
:10D31000BDE8F08784F89031C4E684F89031C7E71F
:10D3200030463BF021FED3E730463BF01DFECAE617
:10D3300084F890012B6843F480732B60AB6843F052
:10D340000103AB60AB6843F04003AB602AE700BF6A
:10D35000181F00205547040885470408894704081A
:10D360002DE9F041EFF31185502383F31288D0F8B3
:10D3700000311B6813F0010304D0EDB285F311886E
:10D38000BDE8F081D0F894210446D0F898110A4302
:10D3900002F02102212AF0D0D0E90912914250D0A6
:10D3A00090B23ED8194623691B1A9BB2D4F89461F7
:10D3B000A1620021202E84F8A411DED1A169891870
:10D3C000DBD0B3FA83F77F09002BD6D094F89021F5
:10D3D000012AD2D00122D4F88801A4F8723184F84D
:10D3E00090212122C4F89C71D4F82081C4F86C11DA
:10D3F000A4F87031C4F89421B0B1144A0765C2632F
:10D40000134A0264134AC26408F128023AF032FF58
:10D4100050B1102384F89071C4F89C31C4F8946121
:10D42000ABE7081A83B2C1E700234022C8F82020E6
:10D4300084F89031D8F8083043F08003C8F80830F9
:10D440009BE7012380F8A43197E700BF2D4704082C
:10D45000514704088947040870B5D0F820410546B3
:10D46000E369990614D5606AEB6AC0B2002B6ED0EE
:10D47000296B9847D5F82041236823F480732360F3
:10D48000A36823F00103A360A36943F00803A36129
:10D49000E369DA0701D501232362E3699B0701D51C
:10D4A00002232362E3695E0701D504232362E36953
:10D4B000180701D508232362E369590610D54023D4
:10D4C000236295F8BD6166B3D5F80031B3B1284643
:10D4D000FFF746FF95F8A431D5F82041002B42D143
:10D4E000D5F8003153B1E369DB0606D56B6B13B198
:10D4F0009847D5F820411023236270BDE3691A06CE
:10D50000F1D5D5E90923934243D0A969CA5C013317
:10D51000D2B2A2622A69B3FBF2F102FB1133AB6211
:10D52000E1E795F8B2010DF035F9236823F008031F
:10D530002360012385F8BD310028C5D03246202163
:10D54000FDF75AF8D5F80031002BC0D1D6E7EB69CA
:10D550006A69D054EB69EA680133B3FBF2F102FB6C
:10D560001133EB6186E795F8BD61002EB8D195F8CF
:10D57000B2010DF00FF9236823F0080323600123A3
:10D5800085F8BD310028ABD032462021FDF734F8B4
:10D59000A6E7236823F080032360A4E72DE9F04F7A
:10D5A000C14C83B004EB8004D4F82C8CB8F1000F8C
:10D5B00077D0D8F8AC411E461746BC4A636805468A
:10D5C000C8F80810C8F8A031636BB949C8F814301E
:10D5D000236BDFF8F0B2C8F81830638FC8F80C304E
:10D5E000238FC8F8A811C8F8103002F6D813C8F86D
:10D5F000003020780BEB400393F9649043000193D3
:10D600005FFA89F3012B50D9D8F800E1BEF1000F81
:10D6100013D0A84B00225968013224338E4500F004
:10D620000281102AF7D1A44B93F894212AB9013032
:10D630000B2283F8950183F89421D8F8FC90B9F176
:10D64000000F40F092806368C8F8203194F82800F9
:10D65000002840F0A88098F8B2010DF09BF8022154
:10D660003207034698F8B0A188F8BD1140F19E80BA
:10D67000002800F09F8016F0110F40F0038116F093
:10D68000400F14BF4A213A210B2201351846DD71A3
:10D690009A7198F8B321FCF7AFFFB9F1000F00F0D1
:10D6A0001381404603B0BDE8F08FC9F1000A02F5CE
:10D6B000A8614FF0000E0AF00C0A8C460AF1080A25
:10D6C00006E00EF1010E0CF11C0CBEF1180F19D082
:10D6D0009CF80030042BF4D19CF801308342F0D147
:10D6E0005CF80A30002BECD0C8F80031CEEBCE034A
:10D6F00009EB490C9B0003EB8C031344D3F84C3526
:10D70000C8F80831019B9B449BF9653001333FF415
:10D710007BAF0023A64604E001331C31182B00F038
:10D72000EA8091F800C0BCF1050FF5D191F801C075
:10D730008445F1D151F80A40002CEDD0C3EBC3036E
:10D74000A44609EB490974469B00D8F800E1C8F8E3
:10D75000FCC003EB89031A44D2F84C35C8F80431F5
:10D76000BEF1000F7FF455AFE146524A00235168E5
:10D7700001332432894534D0102BF8D14E4A6368E6
:10D7800092F8941100297FF45FAF2178013182F87B
:10D7900095110C2182F89411C8F8203194F82800D2
:10D7A00000283FF458AF42F0B3FE54E7BA0701D562
:10D7B00000286DD150460CF0EDFF00283FF46DAF0E
:10D7C000FA077FF56AAF0C2201350221C57182711B
:10D7D00098F8B121FCF710FFB9F1000F7FF461AFA9
:10D7E00072E0DBB2344A013B03EBC30302EB830379
:10D7F00093F8B821002A7FF426AF2278D3F89C0151
:10D80000013283F8B9212D4A904214BF9620952009
:10D810000C2283F8B82142F07BFE636803F12402F6
:10D82000C8F81C2110E75FFA82F9234B09F1FF3297
:10D8300002EBC20203EB820393F8B821002A7FF4C3
:10D84000FCAE0130D3F89C2183F8B9011B48824219
:10D8500014BF962095200B2283F8B82142F058FE81
:10D860004346484694F82B201549FCF75BFE636855
:10D87000D8F8FC902833C8F81831B9F1000F3FF4FC
:10D88000E2AE72E716F0410F14BF4A212A21FBE6EF
:10D890000B223606827105F10102C2712DD498F86F
:10D8A000B321FCF7A9FE85E7F0120020586A0508AD
:10D8B000E5B700089C010120000001200060024043
:10D8C00065920008F82A012094F82C1094F92A0097
:10D8D000890942F05DFD94F92A2094F82A30002A43
:10D8E000FFF6DFAE03F01F0001225B09064982400C
:10D8F00041F82320D5E6744686E60123404688F8A1
