:020000040800F2
:1010000000200020913E0008095900080D590008F1
:1010100000000000000000000000000000000000D0
:10102000000000000000000000000000115900084E
:1010300000000000000000001559000819590008C0
:10104000E13E0008E13E0008E13E0008E13E000804
:10105000E13E0008E13E0008E13E0008ED5A0008CC
:10106000E13E0008A15A00081D5900084559000832
:10107000055A0008C95A0008E13E0008E13E000890
:101080007D5A0008215A0008000000003D5A00085F
:10109000595A0008515A0008E13E0008E13E000894
:1010A000E13E0008E13E0008E13E0008555A000814
:1010B000E13E000800000000E13E000800000000E2
:1010C000002243088B4274D303098B425FD3030A87
:1010D0008B4244D3030B8B4228D3030C8B420DD39A
:1010E000FF22090212BA030C8B4202D31212090228
:1010F00065D0030B8B4219D300E0090AC30B8B4266
:1011000001D3CB03C01A5241830B8B4201D38B0313
:10111000C01A5241430B8B4201D34B03C01A5241B8
:10112000030B8B4201D30B03C01A5241C30A8B42FB
:1011300001D3CB02C01A5241830A8B4201D38B02E6
:10114000C01A5241430A8B4201D34B02C01A52418A
:10115000030A8B4201D30B02C01A5241CDD2C309FC
:101160008B4201D3CB01C01A524183098B4201D378
:101170008B01C01A524143098B4201D34B01C01A63
:10118000524103098B4201D30B01C01A5241C308DB
:101190008B4201D3CB00C01A524183088B4201D34A
:1011A0008B00C01A524143088B4201D34B00C01A36
:1011B0005241411A00D20146524110467047FFE7A2
:1011C00001B5002000F0F0F802BDC0460029F7D0BC
:1011D00076E7704703460B437FD4002243088B42D7
:1011E00074D303098B425FD3030A8B4244D3030BAE
:1011F0008B4228D3030C8B420DD3FF22090212BA73
:10120000030C8B4202D31212090265D0030B8B42EE
:1012100019D300E0090AC30B8B4201D3CB03C01AD8
:101220005241830B8B4201D38B03C01A5241430BB3
:101230008B4201D34B03C01A5241030B8B4201D3A3
:101240000B03C01A5241C30A8B4201D3CB02C01A0E
:101250005241830A8B4201D38B02C01A5241430A86
:101260008B4201D34B02C01A5241030A8B4201D375
:101270000B02C01A5241CDD2C3098B4201D3CB011C
:10128000C01A524183098B4201D38B01C01A5241CB
:1012900043098B4201D34B01C01A524103098B42CF
:1012A00001D30B01C01A5241C3088B4201D3CB00BA
:1012B000C01A524183088B4201D38B00C01A52419D
:1012C00043088B4201D34B00C01A5241411A00D24D
:1012D00001465241104670475DE0CA0F00D04942B6
:1012E000031000D34042534000229C4603098B4226
:1012F0002DD3030A8B4212D3FC22890112BA030AAE
:101300008B420CD3890192118B4208D3890192112F
:101310008B4204D389013AD0921100E08909C309B4
:101320008B4201D3CB01C01A524183098B4201D3B6
:101330008B01C01A524143098B4201D34B01C01AA1
:10134000524103098B4201D30B01C01A5241C30819
:101350008B4201D3CB00C01A524183088B4201D388
:101360008B00C01A5241D9D243088B4201D34B00A3
:10137000C01A5241411A00D20146634652415B10E5
:10138000104601D34042002B00D5494270476346C6
:101390005B1000D3404201B5002000F005F802BD0B
:1013A0000029F8D016E770477047C0468446080009
:1013B0006146FFE71FB504F03BFE002801D4002181
:1013C000C8421FBD10B504F0C3FD4042013010BD3E
:1013D00010B504F02DFE002801DB002010BD012017
:1013E00010BDC04610B504F023FE002801DD00202A
:1013F00010BD012010BDC04610B504F0D1FD00287D
:1014000001DC002010BD012010BDC04610B504F065
:10141000C7FD002801DA002010BD012010BDC04624
:101420001C2101231B04984201D3000C10391B0A14
:10143000984201D3000A08391B09984201D30009D8
:10144000043902A2105C40187047C046040302022F
:101450000101010100000000000000000448054BEC
:1014600010B5834203D0044B002B00D0984710BD29
:101470009804002098040020000000000648074956
:10148000091A8B10C90FC91810B5491003D0044BA5
:10149000002B00D0984710BD98040020980400202D
:1014A0000000000010B5074C2378002B09D1FFF78E
:1014B000D5FF054B002B02D0044800E000BF0123FC
:1014C000237010BD1E0900200000000020690008E4
:1014D000054B10B5002B03D00449054800E000BFC0
:1014E000FFF7CCFF10BDC04600000000200900201F
:1014F00020690008F0B54546DE4657464E46C24ACA
:10150000E0B51168D36FC14C5B1AC1499BB2098821
:101510005D0987B02380658099425CD2BD49098806
:10152000994258D9BC4B1600190004930023803609
:101530000B80211D5368106808321B1A9BB29D4214
:101540009B415B4208C1B242F4D1636826690193B2
:10155000A36802969C46E36966469946E36A656914
:101560009A46236A03959B46019BA7695D405B46AB
:10157000616AA26A7E404D405640B600ED00354398
:10158000029EE0685E40B0464346266B5E402E43B6
:101590004D46534645405D406D003543666BEDB2A8
:1015A000F300A66BB6001E43236C1E43E36B5B0087
:1015B0001E439A4BF6B205931B78002B12D0984B22
:1015C000984643461B78002B11D1AE4215D05022CD
:1015D000A35A0133A35207B0F0BCBB46B246A9469A
:1015E000A046F0BD8E4B98461B78002B53D00F239E
:1015F000984643469E1BF6B2E7E700254626049B25
:101600001D80A55B0135A553256B012D01D1854EAC
:1016100035706546019B6D029B022B4355460002C7
:101620002B43034302988900C001034303985200EF
:1016300080010343780103434846000103435846B1
:10164000C000034319430A432F2A1BDC531E2E2BD1
:101650005DD80021744B754DD2B219802A70744B3D
:101660001B78002BB7D1059B1B78002BB3D04B23E5
:10167000E15C91425CD0E254042A63D949230122FF
:10168000E254A8E74823E35C002B38D1674D2A7861
:10169000002AA0D0E3E703F0CDF900281CD04422B3
:1016A000A35C0133DBB2A354642B15D9012342465A
:1016B00013706368E0680193A368A7699C46236977
:1016C000616A02936369A26A0393E3699946236A94
:1016D0009B46E36A9A468AE76368E0680193A368D9
:1016E000A7699C462369616A02936369A26A0393AE
:1016F000E3699946236A9B46E36A9A4661E74A4B47
:101700001A800022494B1A704923E25463E7002AE9
:10171000BCD14A23E35C012B01D14733E2540021C1
:101720000022414B1980414B1A704923E25452E781
:10173000042A07D94921635C0133DBB26354052BCA
:1017400000D848E749230021E154152A06D8394B2F
:1017500092009B589F460122374B1A70374B2A78CC
:101760001A7000232B7036E7354A364B527C1A70BC
:10177000F4E7334A334B517C0122521A1A70EDE7D9
:101780004C230022E254304A0233E252E6E74C2373
:101790000122E254E02202331201E252043BE35CF4
:1017A000012BDBD14822A354D8E700F075FA244A74
:1017B000214B527C01321A70D0E70122204B9A74DF
:1017C000CCE700221E4B9A74C8E701221C4B5A74C6
:1017D00000221C4B1A70C1E70022194B5A74194B96
:1017E00001321A70BAE70522134B1A70B6E70422C9
:1017F000114B1A70B2E703220F4B1A70AEE70222A8
:101800000D4B1A70AAE7C046140800209804002067
:1018100000080020800400200E060020DC050020C7
:101820002906002008060020C805002040060020E8
:10183000C705002038690008DD0500200C070020DE
:1018400028070020EB000020FF0E00004E222C494C
:10185000F0B58B5A002B3AD0002418008C521C0A89
:101860001A0962405A4003010F2004000500944306
:101870002343244A1C13145D1D40555DE4038B650E
:101880002C431D121B1105401840135C555D40226E
:10189000AD022C4301255B011C431B4B1B4F1E78E3
:1018A000CC65731C9B00FA50B6003B1D9959B819C2
:1018B0002D3A2B0093402340D34089095940890198
:1018C00081600430013AF4D20023BB51F0BD104BCB
:1018D0001B78002B0BD003000F2204001441012CB5
:1018E00007D0013A082AF8D100224A65B7E709482B
:1018F000F1E7083A10415302184383B24A65AEE754
:10190000980400209069000811080020FC040020C1
:10191000C7050020FFFF000070B5049C904211DA5B
:10192000814211DAA34205D10EE090420EDC09D0CB
:101930009C4207D0150026008A18E4185210641043
:101940009142F2D1200070BD1800FCE72300511C29
:1019500034002A00E2E7C046401AC317C0185840B6
:101960007047C046044980B24A6A92B24B6A9B1AD9
:101970009BB28342FAD370470048014010B5441E21
:1019800000280BD0FA20064980004A6A92B24B6ABE
:101990009B1A9BB28342FAD3013CF6D210BDC046DB
:1019A0000048014070B584688A1A54430300016AF4
:1019B0000260006924188C4200DD0C0049428C4210
:1019C00000DA0C009969DD685868511A4D4350439C
:1019D000596A401900191C615D619A61884200DDF5
:1019E00008004942884200DA0800D86104F01CFF70
:1019F00070BDC04670B59A4C9A4DC022200029682F
:101A000082B002F07DFFE37D032B01D90223E37551
:101A1000207E0300083B282B34D8103B182B00D81D
:101A2000F0E00C330B2B00D805E18F4B1022009314
:101A300007218E4BFFF770FF8D4B80B2A880D862D4
:101A4000607E0300323B642B25D996232B81413BDA
:101A50006B812822A37E022053431433EB8102F0D2
:101A60002DF86378002B20D1EE89FA2396215B00B4
:101A7000009330007F4ADB184900FFF74DFF2884B0
:101A800002B070BD7C4B7A4AEB80D362607E03006B
:101A9000323B642BD9D8237D002B67D1430040080B
:101AA00068810A302B81A881D3E7A07F0B2866D8F4
:101AB00002F004F82023E35C704A7833FF335B00C4
:101AC0002B8221239446E35C6D4A63445B006B8266
:101AD00022239446E35C6B4A6344AB822323E35C9A
:101AE000AB752423E35C013B59424B411370252322
:101AF000E35C0021FA332B832723E1542831635C14
:101B0000053B142B01D9052363542921635C013B58
:101B1000092B01D90A2363542A23E15C481E0828B3
:101B200056D90A21E1542B21635C463B462B01D94F
:101B3000FF2363542C23E35C013B622B01D8012378
:101B400053702D21635C013B092B01D9052363549C
:101B50002E23E35C092B16D8022B69D075D8002BF5
:101B600012D001239370484A137012E00321288198
:101B7000FFF7A6FAC0B268810A30A88169E705209C
:101B800001F09CFF96E700239370D37001223E4B37
:101B90001A709623EE895B009E4201D20023AB7639
:101BA000E17E2020FFF716FB642104003000FFF7E0
:101BB00087FA210080B2FFF70DFB0C21A8833000CB
:101BC000FFF77EFA210080B2FFF704FBE8834CE7C1
:101BD0004B015B1A9B005B1A22215B003D3BDBB291
:101BE0006B54298959182981698959186981A98CE7
:101BF0005918A984E98C5918E9841D49486C034394
:101C00004B6490E7214B3022009318211A4BFFF7C9
:101C100083FEA880207E03000C3B0B2B0BD9030016
:101C2000083B032B00D800E7A888114BD86207E7D0
:101C30000123D370ADE7104B182200930C21144BF5
:101C4000FFF76AFEA880207EE9E7042BA1D10121DD
:101C50000020104B917019700B4B187099E7C0461B
:101C600028070020C0000020B50B00006D17000001
:101C7000002C0140B80B0000CF0700006B030000F0
:101C80005E05000090050020E0040020E70300004E
:101C90009E0F0000E2040020282210B5044B0548E6
:101CA0009A5CC02142701A6802F0A2FD10BDC046C5
:101CB000C000002028070020F8B50D4C0D492379FD
:101CC000E5885E00A0688A5B28186327801A0022D6
:101CD0000133DBB29F425241524213408D53A06008
:101CE00064212371FFF7ECF980B2A081F8BDC046F2
:101CF000900500204406002010B502F015FD2923B0
:101D00000C4AD35C002B06D0002806D10A4A937BEC
:101D10000133937310BD0028F8D12A200649125CC4
:101D2000CB7B0133DBB2CB739A42F3D200238B73AC
:101D3000F0E7C046C0000020900500202B232C2196
:101D400070B5224DEB5C6A5C012B32D0531EDBB2C6
:101D5000002B1ED06B5401231D4C13402922AB5481
:101D600072B6637C002B1FD062B602F00BFD194BDC
:101D700062699A4202D92D230122EA540023A373F7
:101D800023762C33EB5C013B5B00E4182B6BA383C5
:101D900070BD062329220E4C6B54053B2374AB54B3
:101DA00072B6637C002BDFD12C33E85C03F03CFB84
:101DB000DAE70132D2B2062A03D9054C6B542374F8
:101DC000CCE7034C6A541340C8E7C046C00000206B
:101DD00090050020C4090000012170B52F251B4A81
:101DE000D3688B43D360FFF7A9FF1949194C0A6BDD
:101DF000194853009B18228D9B189A080A63405D6E
:101E0000002813D134228A5C58094243DB0892B27D
:101E10009B1AE3852D23CB5CA285002B13D0236B6B
:101E20000E4A934201D80133236370BD2A20205CFF
:101E3000DB084243920992B29B1AE3852D23CB5CC7
:101E4000A285002BEBD102F093FCE8E700200040D4
:101E5000C000002090050020280700200F27000068
:101E6000F0B5C646274B00B598465B697D2B18D95F
:101E70008023DB055B6A7C2B0AD842469623928E30
:101E80009B009A4204D24246126B643B9A421AD398
:101E90003622434641469B5C0133DBB28B54642BB4
:101EA0002AD83523184D0024EB5C29263527002B32
:101EB00004D10BE0EB5D0134A34207DD02F034FCFA
:101EC000AB5D8342F6D180BCB846F0BD72B602F07D
:101ED00041FC80234146DB055A6A0A850022C98DF0
:101EE0005A620A4B01315A62D96201211A61DA68D9
:101EF0000A43DA6062B6E6E702F02CFC00234246B1
:101F00001363E0E790050020C0000020002000409F
:101F1000F0B54746CE4680B5C34DC44CAB7C278F49
:101F200083B0002B00D1B0E0A278002A00D1DDE020
:101F3000BF4E8322238FD200934200D388E11A0040
:101F4000303A92B2FA2189008A420ED22B22687C62
:101F5000B15C2A3A121A914200D1E2E236215A00CB
:101F6000715C313A92B2521A62872F2B00D98EE0FF
:101F70000023002263873E33E2543F273723E25D8C
:101F8000F35C9A4200D989E0EF7C002F00D193E006
:101F9000608F1D2800D90FE140230022E252282340
:101FA000EB5C9900C9188900884200DB0FE13D23F2
:101FB000E35C002B64D14C33E35C002B60D0402306
:101FC000EA7CE05A93009B181B012E33834200DB0E
:101FD00034E13727E35D002B00D1E4E27389002A66
:101FE00000D1D8E1FA22D20000928921914A283307
:101FF000FFF792FC80B25023E0522A3BEB5C002BAF
:1020000000D0B9E16374EA7C4033E75A93009B182F
:102010001B012E33BB4200DB10E11E235022697FDF
:10202000A05A0B41216B8B420AD93389834201D9D3
:102030001800A352F38C834202D250221800A352FC
:102040006A23F35A834201D25022A3526378002BB1
:1020500006D06C23F25E5023E15A914200DDFFE18D
:10206000E56D0021281CFFF7C7F9002808D02F2FA5
:1020700006D95026281C03F045FDA35BC018A053C9
:1020800003B0C0BCB946B046F0BD694E67873F2774
:102090003723E25DF35C9A4200D875E7AB7D002BF5
:1020A00000D171E703F07CF902F054FB40230022D9
:1020B000E2522633E3557AE74223E35C002B77D0E4
:1020C0004323E35C002B00D0D1E0A76C381C03F065
:1020D00019FD40235849E052381CFFF78DF90028BC
:1020E00000D13EE14023534AE25260E7FA218900E1
:1020F000884626214E4E695CB37D38005B009844CB
:1021000000296CD0474519DD2B23687C9C46F35C85
:10211000834200D1EDE1637C002B44D13C230022BB
:10212000E254FA22434B4146009338002F23D20059
:10213000FFF7F2FBB37D6087208F5B00FA229200ED
:10214000D21A82421FDD2B239946F35C6F7C98469E
:102150000123D91B884500D1A3E1637C002B00D06B
:10216000C7E03C230021E1540D3B0093314BFFF7C6
:10217000D3FBFA22B37D6087208F5B009200D21AD6
:10218000904200DAB5E0FA22920094466344984205
:1021900009DC00236387637C002B04D00023012229
:1021A00063743C23E254A378002B00D16FE7C0E6B0
:1021B0004023628FE252FAE61E2800D1EFE6282380
:1021C000EB5C9A00D2189200110082426BDC194A33
:1021D000A0230092FFF7A0FB4023E052E7E647452B
:1021E0006BDD2B226B7CB25C9A4200D13AE1FA2281
:1021F000104BD200009341462F23FFF78DFBFA22AC
:10220000B37D6087208F5B009200D21A824259DC36
:10221000FA229200944663448342C4DB00230022E6
:1022200063873E33E254BEE7280700209005002074
:10223000C0000020FF07000000E0FF444D23E35CE6
:10224000002B61D0052B5CD8C04A9B00D3589F4619
:102250002B216A7C715C914200D183E1BC495A0018
:102260008C463621715C6244521A62877DE6F26BBD
:10227000B36B2F21608F0092B64AFFF74DFB010030
:10228000B548FEF7A7FFE97E4908FEF7A3FF442300
:10229000E052638F2E2B00D917E74023E75200232B
:1022A0003764A36483E6A0231E210093713BFFF7EC
:1022B00033FB4023E052608F71E6FA229200D21A7B
:1022C000BA42ABDD2B23697CF75C2A3B5B1A9F4249
:1022D00000D1F3E02F23002100939E4BFFF71CFB5E
:1022E000FA22B37D6087208F5B009200D21A904261
:1022F0008EDAA378002B00D1C9E6238F1FE601F008
:102300002BFD4D230022E25437232A7DE35C002A73
:102310004AD150216252002B63D12D324F39B15432
:1023200023632B7F002B5AD1637C002B00D18DE1DE
:102330002623EB5C002B00D1A2E6FA20218F80003F
:10234000FFF70AFBFA2352229B00C3189BB2A35249
:10235000B288013A934200DA7BE103F075F9617CBF
:102360007AE07E49381CFFF733F8002800D11EE6DA
:1023700040233022E2521AE64023EA7CE75A9300D7
:102380009B181B012E33BB4200DB57E7637C002BFD
:1023900000D075E641E6FA22D20000922F216D4A64
:1023A000FFF7BAFA80B226E6002B2BD101272D22A7
:1023B0002363B754E3732B7F002B21D0E87C0028E4
:1023C00021D1674A292394465222EB5C63445B0087
:1023D000A35202F033FF67740121E87C14E003F09C
:1023E00033F92623EB5C617C002B35D00029A4D186
:1023F0004023E75A1033E05A2E2F00D820E60CE68F
:1024000002F0CEFFE87C617C2C233C22F35CB427F5
:10241000013B53436822B25A7F009B189AB21BB209
:10242000BC46BB4200DBDAE0153FFF3FE35313003D
:1024300077331BB2634500DADEE013000237F13B6D
:10244000E353793A13B25822A352012801D13D2314
:10245000E05450230022E252002900D010E6C7E7E2
:10246000E252FDE5308C326B904200D3CFE0A28E79
:10247000C72A00D9CBE00122D31A2B220027B3545C
:102480002D232A3AF254276302F064F93E23E754DD
:10249000FA239B009C46B17D208F49006144884609
:1024A000A5E6002163743B33E35C6187002B00D118
:1024B0001FE74B46F7540023637452E6308C336BAE
:1024C000984200D3ACE0A38EC72B00D9A8E001222C
:1024D0002D230027F254023BF154276302F03AF90E
:1024E0003E23FA22E754B37D92005B00208FD21A7C
:1024F000F0E66287012262743B32A25C002A00D1BE
:1025000051E60122D31A6246B3540023637405E6F0
:1025100001F0B0FBF5E601F083FCF2E601F04EFCC1
:10252000EFE6328C336B9A424DD2A38EC72B4AD83A
:102530002D2301220027F254023BF054276302F0BE
:1025400009F93E23E754238F08E5C046A069000837
:10255000FFF7FFFFFF0700000087930300004042E2
:10256000DE030000318C336B994232D2A38EC72B2D
:102570002FD801239B1A2B220027B3542D232A3A4C
:10258000F254276302F0E6F83E233948E7548446C4
:10259000238F36201A00305C59006144303A091A02
:1025A00092B26187CEE402F0FBFE2D23F35C002B98
:1025B00046D037230122E25432891733E2520E3BD0
:1025C000EA7CE05A0AE53D23E35C002BB0D1238787
:1025D000CEE43D23E35C002BCBD12387C8E4170076
:1025E0005423693FFF3FBFB2E7521300F13B9BB258
:1025F00063451ED23A001BB25627E353130013372C
:10260000EF331BB2FF37BB4200DA1CE719E73D226C
:10261000A25C002A00D02EE7FA2080002087E6E5A1
:102620003D23E35C002B00D051E7FA208000208797
:1026300050E6104B9C4656236244E2523A0000E7B3
:10264000E35D002B09D002F093F8B2E702F0A8FE98
:10265000C7E602F0F3FD617CFEE6FFF76FFB064B79
:10266000064A33638023DB055A620123E355EAE718
:10267000FFF7FFFFA7FDFFFF1027000088130000F2
:1026800070B560250A4C635D012B0BD0022B02D084
:10269000FFF73EFC70BD606E80B2FFF7D7F80023F5
:1026A0006355F7E7FEF726FF00236355F0E7C046C2
:1026B00090050020F8B5CE4647462B22542380B51E
:1026C0004A4D4B4CAA5CE35A002A1FD101336932B0
:1026D0001BB2FF32934200DB78E01A0054216352B0
:1026E0005623E35A153101331BB2FF318B4200DB15
:1026F00000235621B42063520231635A4000013353
:102700001BB2834200DB0023635217E0013B1AB285
:102710001B0400D567E05423E2520233E35A013B25
:102720001AB21B045CD45623E2525822A35A013B2E
:102730001BB2A352002B4CDB5423E25E2D4F520000
:10274000D35F6E22FA219146AA5AA8889B18584353
:10275000C900FEF73FFD2D23274E9846F35C0A2162
:102760005843FEF737FD80B202F0A4FC5623E35E27
:10277000FA215B00DB5F4A46AA5AA8889B18584397
:10278000C900FEF727FD4346F35C0A215843FEF7D4
:1027900021FD80B202F094FC5823E35EFA215B0035
:1027A000DB5F4A46AA5AA8889B185843C900FEF71F
:1027B00011FD4346F35C0A215843FEF70BFD80B23E
:1027C00002F084FCC0BCB946B046F8BD002300222C
:1027D00084E76823FF33A352143BFF3BE25EADE77F
:1027E0006822FF329FE76822FF3294E7C000002092
:1027F0009005002098010020280700208021002358
:10280000C90570B54A6A224C224D22854B62286B5D
:10281000120443001B18120C9B189A082A635A09C9
:10282000520092B2DB089B1AA2854A6A9BB2206BC7
:10283000E3859A4201D2042815D8174AD362FFF7DC
:102840007DFA00232620A373E373236B134901331E
:1028500023634A7F095C0A430CD1FA232A6BDB000D
:102860009A420ED370BD4A6A9A42E6D24A6A9A42A6
:10287000F9D3E2E7132BF5D9FA232A6BDB009A424E
:10288000F0D82D230022EA5401F072FFEAE7C04697
:1028900090050020C00000200020004028070020F4
:1028A000F8B550236822CE4647466E25BF4C80B50A
:1028B000E35A615DA386A35A0133A3520232A35A9D
:1028C0000133A3520232A35A0133A352203AA35C2C
:1028D0000B4304D16F21605C002800D08EE0B44F20
:1028E000FB7F002B0CD076217020B24A635A105C1B
:1028F000013382009BB212186352920093425DDC56
:102900003D23E35C002B39D1AA4B98462D23424648
:10291000D35C002B04D03723E35C002B00D02CE1E8
:1029200043466C25DE88635B142B2FD8A24B994657
:1029300048234A46D35C002B46D1A58E4C23E35C4A
:10294000002B04D03723E35C002B00D007E1637C2D
:10295000002B4BD05223E05A98497043FEF73AFCC3
:1029600043469B880133C01880B27C23E0522E3B43
:10297000E552934BDE6258639863D8637E22A35A74
:102980000133A352C0BCB946B046F8BD002363531F
:102990006378002B6ED03723E35C002B00D040E13E
:1029A0007B7F002BC2D14223E35C002BBED03723B8
:1029B000E35C002BBAD0804B994687E07823012254
:1029C000E254002363529BE74E23226BE35A952A7D
:1029D00000D8A8E0952B00D8A5E0FA226169520042
:1029E000914200D819E1042104229EE0FA2130002E
:1029F000C9006843FEF7EEFB80B2B6E7608F00289F
:102A000000D0FAE07026A35B6E4F01339BB2A35354
:102A1000BB4200D863E77223E35A1E2B00D830E193
:102A20000123A3542378002B00D12EE17423B92174
:102A3000E65A49003000FEF743FBB92360555B00BE
:102A400000259E420ED3604B6E2798465F4E01F0E4
:102A50004BF96420FEF792FF43463360E35D013596
:102A6000AB42F4DCE378524F002B00D038E726224B
:102A7000BB5435E77B7F002B95D03723E35C002BDD
:102A800000D153E74C4B99469A8B48464346203039
:102A9000196BFEF787FF4E4903F012FB011CE06D36
:102AA00003F048F80021051CFEF7B0FC002800D117
:102AB00000254849281CFEF795FC002800D1454D0B
:102AC0004223E35CE565002B00D131E74423404617
:102AD000E25A616E4030FEF765FF3D4903F0F0FABF
:102AE000011CA06C03F026F80021051CFEF78EFCEB
:102AF000002800D100253849281CFEF773FC002867
:102B000000D1354D236BA564632B00D910E74A46ED
:102B100048234146D35C0022A58E0A65002B00D1D4
:102B20000CE74E23E35A0121012249204D462A5445
:102B3000A58EE81A884251DDD21895B24246FA2392
:102B4000126BA5865B009A425AD901224946AB3BDB
:102B5000FF3BCA544146FA7D163BCA54EEE6402379
:102B6000E35A2F2B00D8F2E6FA213000C90068435F
:102B7000FEF730FB013080B2F7E601F0EBFDFFF726
:102B8000BBF8237E002B00D0CAE641462933CB5C3C
:102B9000A27B002B6FD07123CB5C934200D3BFE6A6
:102BA00001232376FFF72AFEBAE6C04690050020EF
:102BB00028070020C00000204001002030F8FFFF5F
:102BC000002C0140204E0000AAAA00000030004066
:102BD00017B7D1380000164300E0FF44FF7D581BB3
:102BE000884212DD9B1A9DB200224A234946CA54EC
:102BF0004246163BA586D754A0E67022A3526EE645
:102C00004A2300224946CA5498E63423424649469C
:102C1000D75400221633CA5490E6E53A1021FF3A01
:102C200083E72C23C822FB5C40465A437A23743046
:102C3000E15EFEF7B7FE164903F042FA03F0D4FD59
:102C4000434642465B5B1B1A1BB253535289934265
:102C500002DA13B242465353B34202DD6C234246BA
:102C6000D6527B7F002B00D00CE74233E35C002B75
:102C700000D0A0E65AE67223CB5C934200D34FE625
:102C80008EE7044F6054A0532AE601F02DF8E9E6E0
:102C900017B7D13828070020F0B5DE464E46574614
:102CA0004546E0B587B001F0D5FEFE231B01D84AAA
:102CB0001968D84E914205D1D74A5968914201D13D
:102CC00000F021FC02F070F902F016FAFEF792FE15
:102CD000D24B9846DB78022B01D100F067FC02232F
:102CE0004246D370CE4BCF4893800023CE49CA5C76
:102CF000C25401330B2BFAD1FEF7CEFF43465B7C67
:102D0000013B5A1E93412B22B354B388F3804346B0
:102D10001B7D002B01D14246D37426234246D35C4F
:102D2000002B11D0FA239B00B3840123B376538286
:102D3000002393829375738932337381B38932335D
:102D4000B38133893233338100F052FF7223002282
:102D5000B64CE25201F06CFFB54BB64A1A6001F076
:102D6000D9FD4323E35C002B02D042230122E2542D
:102D7000B14AB24D13681B051B0D13602B6013681D
:102D800080221B0C52016B6093429B41E622134050
:102D90002B7201F055FEAA4B0493AA4B0593AA4B44
:102DA00003930423226B93429B41012293430433F8
:102DB0007132B354013AB3549E4B9D4A1360E28B77
:102DC000A38B9B18228C9B18628C9B18A28C9B183F
:102DD000E28C9B185B100233636643465B7D002BDD
:102DE00000D072E27E23994AE35A934209D94C22D9
:102DF0009246A25C002A00D065E395498B4200D937
:102E00008EE36822934BA25A9A4221D97A23E35E39
:102E10001800994603F008FD8F4903F051F9E9685D
:102E200002F088FE0499E8600B78022B00D1FEE2E4
:102E3000032B00D1EBE2012B07D180232A7C9B00DE
:102E40001343059A138002230B7068230022E25279
:102E5000236BFA2299469200638F914500D8E8E1EE
:102E60003F220021A154C72B00D85BE24146C97C18
:102E70006A7C002900D07CE2002A00D07BE2372364
:102E80000A22F2540321606EFEF7A4F9237C0100AC
:102E90006061002B26D06869FEF75EFD63695A0801
:102EA00090421CD9FA22D200934218D20022226307
:102EB0002A7E01322A764246927C002A00D09FE088
:102EC0004032A25A2F2A00D89AE037220021A1547A
:102ED0002D220121B15432894D3152086252002213
:102EE0006B6122746B7E002B00D1BFE0336B462BED
:102EF00000D8BBE0C221594B89005A58C4201202A5
:102F0000120A5A50802180001A58C9051202120A6A
:102F10000A43C3211A50FF2089005A588243BF3800
:102F200002435A5078239946E35C002B00D0B8E066
:102F30002B7F0133DBB22B77C82B00D9CAE00022EC
:102F400091463D234946E35C3632A154002B00D024
:102F500034E1616E4248FEF73DF93723E35C0A2114
:102F6000584380B26883FEF7ABF8B37E80B26885C1
:102F7000002B00D01AE2FA20C0006A234246F05229
:102F800099463F3BD15C287C814200D200E2236B12
:102F9000632B00D9A3E1FA23326B5B009A4200D87D
:102FA0009DE10C22C03BFF3BF2542F234246D35CF1
:102FB000002B00D0AAE18023DB055A6A294B9A42F4
:102FC00000D8EEE637239A46E35C9946012B00D001
:102FD000E7E63F22A35C0133A35401F0BBFB2D23A2
:102FE0004A46F2541333E35A2F2B04D80023524697
:102FF000A3541D4B336300232363FFF7FFFBD0E68D
:10300000FA22316B9200914200D861E75DE7C04639
:10301000DAE32559C0000020D963B84E2807002004
:10302000115800002E070020F169000890050020CB
:1030300000300040AAAA00000058014010060020FD
:10304000E4040020E60400204001002010270000D6
:10305000409C0000204E0000610B363B00E100E088
:10306000C0270900C8AF000088130000C2208021DB
:10307000D64B80001A58C9051202120A0A43C4210D
:103080001A50FF2089005A581202120A5A50043965
:103090005A5882435A5078239946E35C002B00D15A
:1030A00046E7E86802F02EFD7A2274216F8BA25A5F
:1030B00083B2615A287C009702F0EAFB02F0C4FB5D
:1030C00000234A46A3542B7F0133DBB22B77C82B56
:1030D00000D834E701F02EFABD4ABE499368E88B68
:1030E0000B4004210B439360BB4B1B889946BB4BA1
:1030F000190058439A46FDF7E3FF4B46C31A980060
:10310000C018B74B000119884B46C91AFEF762F880
:103110007423994653461E3080B228842874688CE4
:10312000B0495843FEF756F84C239B465A46039B3A
:1031300064219B5A5843FEF74DF84B46E25AD300A0
:103140009B1AC0184B46C010E052FEF7B5FD53461F
:10315000CD21686289005843FEF73CF803B2DB4397
:10316000DB1718407A232278E0523D3B9A46E35C15
:10317000002A19D04A46A15A063AA05C328B424333
:10318000914200DB62E198489A058446D21AD20047
:10319000D218298D5201D21A0131920089B26244AB
:1031A0002985914200DDEEE100222A770022914636
:1031B00049463632A154002B00D1CAE640239A4634
:1031C000E35A302B54D94C22A25C002A50D0313B18
:1031D000572B00D93DE12C239A46EB5C002B00D005
:1031E000BFE1FFF767FA4346DB7E804819009A4645
:1031F000FDF7F0FF4023E35A814651467C489B4649
:10320000FDF7E8FF4B467822302100905846FEF744
:1032100083FB50239946039FF8520004000CFEF7ED
:10322000A1FB4B469620F95A8000FDF7D3FF688337
:10323000B7E5002B00D085E03F22A3544B46642B1A
:1032400000D9CBE16A7C002A00D18EE03F23002226
:10325000E2540321606EFDF7BDFF237C0100606135
:10326000002B00D13EE64B460A2B00D83AE612E688
:10327000012399464A462B33EA5443461B7F002BD1
:1032800000D17EE042462923B188D05C0B0040008B
:10329000133BC0187C239B464B1C9A46F38880B294
:1032A000A0865843FDF796FF5346181A5B46E05236
:1032B00001F0C4FF5B46E25A4E4B5A639A63DA63ED
:1032C0004B46637400236B836BE5B288306B530805
:1032D00000926021C822FEF71FFBF08082E50C23DC
:1032E000FA226069520000936421093BFEF714FB47
:1032F0003523326BF054312A00D956E60222F254BB
:103300002F234246D35C002B00D154E61723FA2228
:10331000A08E64210093D2000A3BFEF7FDFA2A2317
:10332000E05448E63F220021A1544146C97C6A7C12
:10333000002961D09F2B10D9002A87D137230A2278
:10334000F25486E74A46642A00D98CE54146C97C96
:103350006A7C002953D09F2B0BD83F21002060545A
:10336000002A00D072E7952BE8D837236422F25464
:103370006FE7002AE2D0C8225200934200D368E7E8
:1033800064E71C4A53639363D36302F009F899E737
:10339000039A2333D35A01270A005B080A320A39F9
:1033A0000097FEF7B9FA4B46F052F0E54E27BC46BF
:1033B000B38C039F99466346FB5AF28BB18B009303
:1033C0004B46FEF7A9FA80B2D7E5C04600E100E01F
:1033D00000240140E8FFFF7FB8F7FF1FE40C000066
:1033E000C2F7FF1FFF0F0000204E0000581B000017
:1033F0002A030000002C0140002AB4D042E5002A34
:10340000B1D0C8225200934200D322E71EE77423B2
:103410001921E05AFDF754FEFF2303408020C0002D
:103420001843059B049A1880012313700DE54B4641
:103430003221D8B2FDF744FEC023059AC0B2DB00AA
:10344000034313800323049A1370FEE400222A85A9
:10345000AAE62C230122EA54FFF72CF95346E35A3B
:10346000C82B05D954234A46E252039A043BD3524F
:103470005023039FF85AFEF775FA5423E35E002B9E
:1034800000D08EE43D223721A3543C3A62540A39DD
:1034900072548021544AC905326362616A614A628A
:1034A0001422637452332263FA5C263BF25443467F
:1034B0005B7F002B02D04E23B289E252FEF73EFC26
:1034C00001F00AFE6DE401F06BFF00255346E55460
:1034D0000C3BE5522F33E5540333E552434B5D6318
:1034E0009D63DD6301F000FE802229005200404808
:1034F00003F0EAF9BFF34F8F3E4B3F4ADA60BFF368
:103500004F8FC046FDE71B7B2B2B5FD0352B61D047
:103510001F2B01D0FFF7D6FB384B3360FFF7D2FBF0
:10352000914601F03DFF4A465346E2544023E252A1
:103530002F33E2540333E2522C4B5A639A63DA631B
:1035400001F0D2FD802200215200294803F0BCF98D
:10355000BFF34F8F274B284ADA60BFF34F8FC04627
:10356000FDE70121264AD3688B43D36001F0F2F8CE
:103570004A461E4B5A639A63DA6302F0A9F853462F
:103580004A46EA542DE6002399464A464033E25221
:1035900001F006FF01F0DEF84A463723E2543B33E0
:1035A000E2525B46E2545346E35CFDE543461B7939
:1035B000112B01D0FFF793FB43465A782823F35C85
:1035C0009A4201D3FFF79AFBFFF789FB0D4B33605B
:1035D000FFF778FB0C4B3360FFF774FB6B7C002B21
:1035E00000D033E6C1E6C04628230000002C01408D
:1035F0001408002000ED00E00400FA05007C00083B
:103600000020004000F8010800F80008F0B5644C04
:1036100083B023686068C01A624B0100C218624B15
:103620009A4242D80023614E614D33802B78002BA3
:103630004ED06B78002B17D1AB78002B00D196E0E1
:10364000A8885C4F01333988AB70FEF785F93B8859
:10365000322800D86CE000222A70AB806B78002BF7
:1036600013D061682368C91A534AAB79914209D8CB
:10367000524801330488DBB2E200121B5218D20810
:10368000AB7102804B2B00D974E000234C494D4AAA
:10369000A868338012680B88C41A944211DC1C1A83
:1036A000A24213DA9B1A9BB20DE00022464B1A800D
:1036B0003F4B98684249434A0B881268C41A9442A7
:1036C000EDDD9B189BB20B8003B0F0BD83B2FAE72F
:1036D0003E4B9B7C002B10D03D4B1A8890421BD850
:1036E000364B1988FA239B0000930023FEF714F948
:1036F0000300AB6000233380DCE72E4B1A882F4B8E
:103700001988344B00932F23FEF706F90300302865
:10371000EFDC00230020ECE7264B511C1C88FA2329
:10372000DB00009322002C4BFEF7F6F80300E0E7E5
:1037300021686268521AD900CB1AD318DB08AA781C
:103740009BB23B80322A00D887E72449193B8C463C
:103750009BB23B806344D90FCB1821211B4A5B10DD
:10376000535401236B7000F0F7FA3B8875E780B281
:10377000A88066E7114A00241388144919339BB2C4
:103780001380174A2C7094466344DA0FD318202212
:103790005B108B54FEF780FAAC7100F00FFB74E7FE
:1037A00014080020DFFCFFFF760500000E06002055
:1037B000E8070020D2000020E1040000D000002033
:1037C000C8050020780400200206002028070020F9
:1037D000D4000020FF070000E90300002AF9FFFFE2
:1037E00012FDFFFF164A9388591E022912D8154B65
:1037F000D9683B290DD8002013491874087001219D
:10380000124B0E301970124B187020239371114B0C
:1038100019707047043B042BFBD80A49CB68632B13
:10382000F7D8012309480B7403700748084903704F
:103830000720087020219171064A1370E9E7C046FD
:1038400078040020E8070020900400209205002062
:1038500011080020FF050020F0B52D4EC6463200AD
:103860000027002000252B4B2B4C984600B59C8050
:1038700008CA7C361168994206D0CB1AA34201D2FD
:1038800001259CB20127C01804320B009642F1D1E9
:10389000002F27D04009002D01D043469C801F4BAC
:1038A0001F4CD8602378012B2ED01E4E3378012B6D
:1038B0001AD02278134312D1FFF794FF43469B8816
:1038C000194AC93B9BB2934209D82F21174B0122B9
:1038D0001970022341468B71154B32701A7080BCEF
:1038E000B846F0BD0020D6E7424692880E49C93A54
:1038F00092B28A42F3D82F210C4A1170022241461B
:103900008A710B4A1370EAE7FFF76CFFCDE7C046F8
:103910001408002078040020204E0000E807002052
:103920009205002093050020564D000090040020D1
:10393000FF05002070B5534C2378002B03D0524B69
:103940001B78002B06D1514B1B78002B4FD0012B3D
:103950000AD070BD4E4B1B78002B35D000F0DAFF3B
:1039600002224C4B1A70F4E7474B1B78002B31D1E5
:10397000494D2B78012B72D0484B1B78012B64D01A
:103980002378002BE5D12B78002B38D04449454BC8
:103990004A7C072A34D81888052831D9424C4D6909
:1039A000E06F246801324019D2B2001B4A744861AA
:1039B000082A25D1C208C00992B280B23B4C151822
:1039C000121A25810A831BE000F0ECFF0122314B23
:1039D0001A70BEE72E4B1B78002B0DD0344B188885
:1039E000FDF734FFFDF786FD00F094FFB1E7FFF728
:1039F00033FF00F08FFFACE700F0D4FFA9E7294BBD
:103A00002C4C2088002807D1254A1278002A2BD177
:103A10001A8801321A809CE700221A80264B002562
:103A2000984200D895E71E4E718BFDF795FF32281E
:103A300020D8337F0133DBB23377322B02D973784E
:103A4000002B13D02388738383E700F0F3FF174B19
:103A5000002811D003229A7100F05CFF90E7FDF777
:103A600049FD00F057FF87E7188072E700F0D8F9AA
:103A7000012333703577E5E702229A71FFF7C6FD1F
:103A8000EAE7C046DC05002029060020FF050020EB
:103A900010080020F005002092050020930500206A
:103AA000E807002002060020140800207804002007
:103AB000F4050020CA050020DC050000034A031CB1
:103AC0000B2800D90B235B001370704705080020FA
:103AD000F0B5DE4657464E464546E0B5032083B076
:103AE00001F0A2FC7C239B460025364B364C9A46BF
:103AF000364B374F9946374BA34401934B465246BA
:103B00003B60002326781380FF2E25D06378002B9E
:103B100025D1E801401B304A40003018536380B281
:103B20009363D363FDF72AFF002502345C45E5D19A
:103B300001F036FC00232949274A09889362D162A3
:103B400052461380224B214A1A6003B0F0BCBB4698
:103B5000B246A946A046F0BD0135EDB2E5E75901F0
:103B6000C91AC900C91AFA231B019C461C486144A2
:103B7000FDF730FB184B010098460A23424693623A
:103B800000901848FDF726FB4346D862019B164972
:103B90001B785843FDF71EFB434600995863986312
:103BA000D863EB0111485D1BFDF714FB6D00AD19E7
:103BB00064216843FDF70EFB0004000CFDF7DEFEF8
:103BC000B2E7C0460E0600205C070020AAAA00004B
:103BD0000030004005080020002C0140C4000020F7
:103BE000C0D8A700003E4900CF070000A086010012
:103BF00010B572B63422194B9B5CFF2B07D0FFF730
:103C000067FF174B1A88174BDA6262B610BD154C66
:103C1000154B0320E362154B1B786363A363E363D7
:103C200001F002FC3723C820A362FDF7A7FE0520A0
:103C300001F0FAFB2823C820A362FDF79FFE0620AF
:103C400001F0F2FB1923C820A362FDF797FE01F0F3
:103C5000A7FB0023064AA3621380D2E728070020AF
:103C6000C4000020002C0140CF0700000508002000
:103C70000E06002070B5154B154CE36272B63C235E
:103C8000144D154E01202E60A362144B1B78636304
:103C9000A363E36301F0C8FB4B20FDF76FFE5023E5
:103CA0004B20A362FDF76AFE5A234B20A3622E60CD
:103CB000FDF764FE01F074FB0023094AA362138040
:103CC000084B1B88E36262B670BDC046CF07000098
:103CD000002C014000300040AAAA00000508002086
:103CE0000E060020C400002010B572B6134C144B11
:103CF000144AE362144B03201A605023A362134B4F
:103D00001B786363A363E36301F08EFB6420FDF71C
:103D100035FE46236420A362FDF730FE282364208D
:103D2000A362FDF72BFE01F03BFB0023084AA362D0
:103D30001380084B1B88E36262B610BD002C014063
:103D4000CF070000AAAA00000030004005080020AC
:103D50000E060020C400002010B5114B114C0220AB
:103D6000E3623223A362104B1B786363A363E363B4
:103D700001F05AFB9620FDF701FE0C4A0C4B9620F1
:103D80001A601E23A362FDF7F9FD01F009FB002371
:103D9000084AA3621380084B1B88E36210BDC0462B
:103DA000CF070000002C014005080020AAAA00004F
:103DB000003000400E060020C400002010B5114B5A
:103DC000114C0220E3622823A362104B1B7863632B
:103DD000A363E36301F028FB9620FDF7CFFD0C4AB7
:103DE0000C4B96201A605023A362FDF7C7FD01F02B
:103DF000D7FA0023084AA3621380084B1B88E362AA
:103E000010BDC046CF070000002C0140050800206F
:103E1000AAAA0000003000400E060020C4000020C6
:103E2000F8B5144E144BF36272B67724134B144D4D
:103E30001B78144F7363B363F363142120002F6066
:103E4000FDF7C8F9C0B201F0EFFA63100A330A2097
:103E5000B362023CFDF792FD631CEED101F0A0FAC3
:103E60000023094AB3621380084B1B88F36262B6D1
:103E7000F8BDC046002C0140CF0700000508002017
:103E800000300040AAAA00000E060020C400002056
:103E90000D4885460D480E490E4A002302E0D458CD
:103EA000C4500433C4188C42F9D30B4A0B4C002382
:103EB00001E013600432A242FBD301F021FE02F0C4
:103EC0000BFDFEF7E9FEFEE700200020C000002009
:103ED00098040020086A000898040020380900208F
:103EE000FEE700008268030010B50120D20710D45D
:103EF0008C684A68D8682243CC6809682243054C1C
:103F0000204002430020DA601A69920092080A43B6
:103F10001A6110BDC73FFFFF8368020010B5012082
:103F2000DB070ED44C680B68D06823438C682343AE
:103F3000CC68096923430B430249014000200B432D
:103F4000D36010BD3CC2FEFFF0B5DE4657464E467C
:103F50004546E0B54B6883B00C680193013B9C4635
:103F60000023002C09D156E04D46C2682A403A434E
:103F7000C26022000133DA404DD0012225009A4070
:103F800015401442F5D0026890462A006A43570053
:103F9000BA4692445746FF435646B9464746B7434A
:103FA000B846019F5743BA464746564637430E69BF
:103FB0000760370066465743B846012ED4D8866856
:103FC0004F46B3468E685643B2465E463E40B346C1
:103FD00056465F463E438660C668B2464E465746E2
:103FE0003E40B14646464F463E43C660019E022EC5
:103FF000BFD14E69B046FF2D1ED85243056A160147
:10400000B61AB5434646564332002A43026222009E
:104010000133DA40B1D16346012B05D8CA68436841
:104020006243A34313434360002003B0F0BCBB468C
:10403000B246A946A046F0BD2D0A6D436D43426AC3
:104040002E01761BB243914642466A434D462A43AF
:1040500042628EE70C23164A70B5516805000B408A
:10406000082B11D0134B12482B60426812491206DC
:10407000120F8A5C1149D3406B6042685205520F9F
:104080008A5CD340AB6070BD0D4B0F249C465068DA
:10409000D16AC003C01718402140604401315668FE
:1040A000FDF70EF8B30C234002334343DBE7C04671
:1040B0000010024000127A00D8690008E869000880
:1040C00000093D000C230D4A70B551680B40082BC8
:1040D00001D00B4870BD0B4B0F249C465068D16A31
:1040E000C003C01718402140604401315568FCF7F7
:1040F000E7FFAD0C2C4002346043EBE700100240B8
:1041000000127A0000093D00030010B50020002BCA
:1041100017D1134C0333226B1340022B15D0032B02
:1041200018D0012B0ED0FFF7CDFF62680D491206A3
:10413000120F8A5C6368D0405B050B4A5B0FD35C4F
:10414000D84010BDFFF7BEFFFBE7206A8007C00F15
:10415000C003F6E72068054B8007C0171840F0E75A
:1041600000100240D8690008E869000800127A00CF
:104170001C4A30B503688D680C88904221D080229B
:10418000D205904222D0184A90421FD0174A90423E
:1041900020D0174A904205D0164A904202D0164AC3
:1041A00090421BD1154A1340CA6813430360C5628D
:1041B00084620B7C03630122436913434361002043
:1041C00030BD702293434A681343EBE77022934358
:1041D0004A681343094A1340CA6813430360C5621F
:1041E0008462E8E7002C0140000400400020004009
:1041F000004001400044014000480140FFFCFFFF37
:10420000802370B55B00994200D173E03FD801294B
:1042100000D1AAE010296BD1036A6F4C8B43036273
:10422000066A456883692340146824021C432023DE
:104230009E4313691B0133438B43516809011943A2
:10424000664B984208D0664B984205D0654B984221
:1042500002D0654B984213D18023994353699B0147
:104260000B4340218B439168890119435F4B1D40EB
:1042700093699B002B435E4D2B40D569ED001D4398
:10428000D3684560846183630162002031E080234C
:104290005B0199422CD1036A564E4F4D3340036265
:1042A000046A4168C3692B4015682D021D43524BB7
:1042B0001C4013691B0323435468334024032343E6
:1042C000464CA04208D0464CA04205D0454CA042E6
:1042D00002D0454CA04204D1484C0C409169890160
:1042E0002143D2684160C56102640362002000E09E
:1042F000012070BD036A424E334003627323046A97
:104300004568C1699943136819433E4B1C401369C2
:104310001B0223435468334024021C432F4B984212
:1043200008D02F4B984205D02E4B984202D02E4BEE
:10433000984213D12E4B1C4053699B0223432B4CB4
:1043400023409468A4021C432A4B1D4093691B011F
:104350002B43294D2B40D5696D011D43D368456022
:10436000C161C36304620020C3E77326036A8B4301
:104370000362036A44688569B543166835430226BB
:10438000B343166933438B4351680B431349884247
:1043900008D01349884205D01249884202D01249F8
:1043A000884212D108218B435169890019430423A3
:1043B000994393689B000B43114921409469214321
:1043C000104C2140D46964000C43D268446085617C
:1043D0004263036200208CE7FF8CFFFF002C01404A
:1043E000004001400044014000480140FFFBFFFF46
:1043F000FFF7FFFFFFEFFFFFFFDFFFFFFFBFFFFF45
:10440000FFFEFFFFFFFDFFFF8A680B7B13430B4A94
:1044100013404A6813430A4A13400A681343094A7F
:104420001340CA891343084A13400A691343074AD1
:1044300013404A691343436400207047FFFBFFFFAA
:10444000FFF7FFFFFFEFFFFFFFDFFFFFFF3FFFFF74
:1044500070B5036804000D0084B0DB071DD44B6801
:10446000C96802680B4329690B43A9690B432049BA
:104470000A401343036043681E4A1340AA6813436B
:10448000436083681C4A13406A69134383601B4B73
:10449000984205D01A4B984218D0012004B070BD44
:1044A0000020FFF731FE0028F7D029680029F4D05A
:1044B0008022AD694B08120295420DD01818FCF706
:1044C000FFFD03041B0C0020E360E7E701AE3000B2
:1044D000FFF7C0FD0398E6E74000C018FCF7F0FDC9
:1044E000084B03400007400F1843E0600020D5E769
:1044F000F369FFFFFFCFFFFFFFFCFFFF0038014024
:1045000000440040F0FF0000FA2110B58900FCF7DC
:10451000D7FD0022034B013858609A6005321A60BB
:1045200010BDC04610E000E0014B18607047C04667
:1045300094040020054A064B91881980054B118888
:1045400019805288044B1A807047C0460808002022
:104550002E0600203206002096050020074A084952
:10456000084B91600321D36053681B0C1B040B4361
:104570005360136802390B43136070470800024010
:1045800040240140080800200023114A82B0019312
:104590009168104B194018330B4393609368002BBC
:1045A000FCDB01230193019B002B05D0019B013B08
:1045B0000193019B002BF9D1054A064993680B40F2
:1045C00001210B43936013681942FCD002B070477D
:1045D00000240140E8FFFF7F70B592B01022002157
:1045E00003A802F071F91422002107A802F06CF967
:1045F000102200210EA802F067F98021414B8900AA
:104600009A6990200A439A619A69C0050A408021FC
:104610000292029A5A6989020A435A615B694022EE
:104620000B400193019B03230CA90C920D93FFF700
:104630008BFC90200025082203230CA9C0050C92B6
:104640000D931095FFF780FC2F4B30491A684020DE
:104650000A401A601A682E4908260A4020211A606A
:104660001A682C4C0A431A601A68603182431A6037
:104670001A680A431A601968274A114080225200BA
:104680000A431A601968254A11408022D2000A4361
:104690001A60A36A22493343A362A36A0343A36255
:1046A0008023A26A5B021343A3620A681D4B2000A9
:1046B0001A4080231B0413430B60802303A91B06AD
:1046C0000393049505950695FFF70CFC012307A9B4
:1046D00020000A930795089509950B95FFF71CFC98
:1046E00004220721E3689343E36063698B43013944
:1046F0000B4363616368934363606368B3436360C0
:1047000012B070BD0010024008000240EFBFFFFF72
:10471000FFCFFFFF00240140FFFCFFFFFFF3FFFF7F
:1047200008270140FFFF3FFE074A084B94468022BE
:104730001868074BD2011B686344DB009A400E33B4
:104740001040D840C0B27047E4FFFEBF1C000140DB
:1047500084040020044B05491A680A401A6080222C
:1047600092035A617047C04600040140FFFFDFFF1B
:104770008023034A9B0311680B4313607047C046B4
:1047800000040140164B1B78012B10D0042B0ED0D7
:10479000022B1AD15522134B1A60134B1B78002B96
:1047A0000CD1124AD36080239B0393600CE06522F6
:1047B0000C4B1A600C4B1B78002BF2D000220B4BD9
:1047C0009A6080229203DA607047052BE2D0032BB7
:1047D00003D14522034B1A60ECE7062BF9D0E9E739
:1047E000EC0000201C000140E90000200004014012
:1047F000F0B54746CE4680B585B016006A46CB0F69
:104800005B185B1098465B000733DB08DB00D31AAC
:1048100000AF9D460C0081464246002168466D4629
:1048200002F052F8012C0BDD484600234178027853
:1048300009025C000A4301332A5302309845F5DC33
:10484000434601212C4A7B60D3681942FCD113698D
:104850001B0604D5294B196851605B685360B3058A
:1048600017D10221244A13690B431361566113695E
:104870003E310B4313613F39D3681942FCD12023E9
:10488000D1680B4200D0D36002211B4A13698B43CD
:1048900013610023BB60FB60FA687B689A421FD2F9
:1048A0000120202214490B6903430B61FC68BB689B
:1048B0006400645B9B191C80CB681842FCD1CB68F8
:1048C0001A4200D0CA600B6983430B61BB68023394
:1048D000BB60FB680133FB60FC687B689C42E2D3F1
:1048E0008021BD46044A13690B43136105B0C0BC67
:1048F000B946B046F0BDC046002002408804002002
:10490000002A06DD5218401A0B78435401319142B7
:10491000FAD1704700208022174B52021870174BB3
:10492000D9680A43DA60DA6815490A40DA60412238
:104930000121144B9A61373A1A62134A12789A622B
:10494000124ADA625A690A435A615862104A114897
:10495000D060114890601148007850601048106095
:104960008022D86892000243DA601A6A0A431A6207
:104970001A680A431A6070471008002000100240AD
:10498000FFFFFEFF0040014090040020FFFF0000F9
:104990005800024014080020344001407E040020EA
:1049A0008B0900000122802119481A4B10B50270B2
:1049B000DC6849022143D960D968174C2140D9608D
:1049C0006021164B164C99615D39196215490978B9
:1049D00099623D21D9625969114359611249CC60EC
:1049E000124C8C6040781730486011480860802174
:1049F000D86889000143D960196A1143196280217E
:104A0000586C09020143596419680A431A6010BDC1
:104A10001008002000100240FFFFFEFF0040014090
:104A2000FC040020F80700205800024034400140F8
:104A30009B09000090230420DB051B691840704788
:104A400090223021D205D3688B4320390B43D360A9
:104A50007047C04600B51B4B1B4883B01B4A9A18D1
:104A600002CB11608342F9D10123194A916919439C
:104A700091610321926913400193019B154B1A68C0
:104A80008A431A601A680A43FA211A60124B890095
:104A90001868FCF715FB802301385B04984200D3AB
:104AA000FEE7C0210D4A090650600D48036A1B024B
:104AB0001B0A0B430362002393600733136062B643
:104AC00003B000BD00100008C010000800F0FF1780
:104AD00000100240000001409404002010E000E0BB
:104AE00000ED00E00121324B10B51A680A431A604C
:104AF000304A1B6813680B43136001311368194275
:104B0000FCD0F82113688B4378390B431360536B47
:104B10007F390B435363274A0131536B1942FCD051
:104B2000F821536B8B4378390B435363536A7F39B6
:104B30000B4353621F4A0131536A1942FCD051683A
:104B40001D4B1940A0239B030B430F215360D36AD5
:104B50008B43D362802311685B040B438021136075
:104B6000144A890413680B42FCD0F0215368114C9D
:104B70008B435360536811490B40032153605368C2
:104B80008B4301390B4353600C2263681340082B9D
:104B9000FBD10B48FFF7B8FC0948FFF7C5FC04221E
:104BA000636B93436363236B013A9343236310BDA9
:104BB0000020024000100240FFFFC2FFFFF8FFFF8D
:104BC000006CDC0200B589B01022002104A801F0BD
:104BD0007BFE8021144B89025A6990200A435A6156
:104BE0005B6902220B400193019B032302A9C005CC
:104BF00002920393FFF7A8F9202203239020029248
:104C00000393002302A9C0050693FFF79DF9C32172
:104C1000FF20064B89005A5882435A508022520185
:104C20001A6009B000BDC0460010024000E100E07B
:104C3000064B074A1A60074A1A6002225A60FA2293
:104C400012019A60044A1A607047C0460030004062
:104C5000CCCC000055550000AAAA0000F0B5DE46F5
:104C600057464E464546E0B59DB01422002103A8A4
:104C700001F02AFE2022002114A801F025FE1822AE
:104C8000002108A801F020FE182200210EA801F042
:104C90001BFE8022734E1201B369734D1343B3613F
:104CA000B36903A913400293029B704B28009046FE
:104CB0000593FFF75DFA80222B68914613432B6022
:104CC000AB686B4A6B4F13400822AB603B68002413
:104CD00013433B6060239346012114AA28001493D8
:104CE00015941694179418941A9419941B94FFF71A
:104CF00087FA04223B689246934342463B603B68F6
:104D0000102113433B6014AA280015941694FFF752
:104D100077FA59463B68584A280013403B60574F82
:104D20003B680B433B6080235B009B4614AB1A003F
:104D3000594615941694FFF763FA51463B682800CC
:104D40008B4341463B603B680B4380213B6014AB87
:104D50001A00490115941694FFF752FA3B68464A27
:104D60002C21134070223B606B68280093434A4615
:104D70006B60AB6802279343AB600022002308926C
:104D800009936A462D23521813706B468022DC85E6
:104D90000023920108A90C920D930A94FFF734FBAB
:104DA0008022736992021343736173690225134071
:104DB00080220193019B7369D2021343736173696B
:104DC0000026134000930EA92D48009B12961397BE
:104DD0000E950F9510941194FFF7B6F801230EA9C4
:104DE00027480E93129613970F9510941194FFF77E
:104DF000ABF890204B460EA9C0050E931296139760
:104E00000F9510941194FFF79FF880239020DB00FA
:104E10000EA9C0050E93129613970F951094119436
:104E2000FFF792F8802390209B000EA9C0050E93F7
:104E3000129613970F9510941194FFF785F8902010
:104E40005B460EA9C005129613970E930F9510940A
:104E50001194FFF779F81DB0F0BCBB46B246A946E5
:104E6000A046F0BD00100240002C0140CF0700001A
:104E7000F8BFFFFF182C0140FFFBFFFF1C2C014077
:104E8000000400488021104B4900DA6982B00A43CF
:104E9000DA61DB690D4A0B400193019B1723936292
:104EA000FA23C4200A491B01D36280000B581B025D
:104EB0001B0A0B5080231B030B60802113680B43DC
:104EC000136002B07047C04600100240002000404E
:104ED00000E100E00123114A82B051691943516198
:104EE000C2215269890013400193019B0C4B0D4A6A
:104EF000585810408022D20302435A50802280200A
:104F0000D2001A605A58C0051202120A02435A50BF
:104F1000802212011A6002B07047C04600100240A1
:104F200000E100E0FFFF00FF10B588B0082200217B
:104F300005A801F0C9FC8021184B49029A6990200C
:104F40000A439A619A6900240A4080210192019AD9
:104F50005A6989020A435A615B6904220B40009333
:104F6000009B022302920393032302A9C00504932A
:104F70000794FEF7E9FFC2208021094A80001358F8
:104F8000C9051B021B0A0B43135080231B0113602E
:104F90003F22044B9C62DA6208B010BD0010024050
:104FA00000E100E000400140F0B5C646012500B533
:104FB00088B0FFF797FD80221026374C5205A36971
:104FC00080272B43A361A369FF022B400293029B1E
:104FD000E3691343E361E3691340304A0193019BA2
:104FE0001368334313608022636992021343636141
:104FF0006369904613400693069B636980223B4396
:105000006361636912023B400793079B9023DB05B2
:105010009A62FFF75FFFFFF721FEE36917222B4338
:10502000E361E3691D400595059B80231C4DDB056D
:105030009A62DD62FFF7C6FDFFF724FFC420E36933
:1050400080003343E361E369164A1E400496049BE3
:10505000154B19581140C02212020A431A504246F9
:1050600032211A602F22114B9A62D962A3694E3104
:105070003B43A361A3693B400393039B0C4B9A62A0
:10508000DD621A688A431A60FFF74EFF00F028FBC2
:1050900008B080BCB846F0BD0010024000200240BD
:1050A000FFFF0000FF00FFFF00E100E000100040F4
:1050B00000480140014B58637047C046002C014036
:1050C000014B98637047C046002C0140014BD863E8
:1050D0007047C046002C01400121024A53690B432E
:1050E00053617047002C01400022024B9A625A62C1
:1050F0007047C0460040014010B501241021454BC7
:1051000082B01A6A22431A621A6A0A431A62802219
:10511000196A52000A4304211A621A6A0A431A627F
:105120001A6A3C310A431A628022196AD2000A4381
:105130001A628022196A52010A431A6264221A64AE
:105140001A6822431A608022596C12020A435A6478
:105150005A6922435A61304B1A6A22431A621A680A
:1051600022431A602D4B1A6822431A605A6922435F
:105170005A61DA682243DA60DA68A243DA60284BBF
:105180001A6822431A605A6922435A618023DB0558
:105190001A6822431A605A6922435A61214B1A68DD
:1051A00022431A605A6922435A61DA682243DA605C
:1051B000FFF712FAFFF7D2F9FFF7E6F900231A4AD0
:1051C00001931368194923431360194B1868FBF7BF
:1051D00077FF43001B185B000193019B002B05D058
:1051E000019B013B0193019B002BF9D1C120802140
:1051F000104A8000135809061B021B0A0B43135068
:105200008023136080230C4A1B0211680B43136038
:1052100002B010BD002C01400040014000200040C1
:1052200000480140001000401C000140400D0300F8
:105230009404002000E100E0000401409023DB051D
:105240001968194A0C201140802252030A431A603F
:105250008022D2009A621968144A11408022D20238
:105260000A431A60802292009A621968104A11401B
:10527000802252020A431A6080220E4952009A622A
:105280000A688243043802430A600A680538824388
:10529000013802430A601968074A1140802212024D
:1052A0000A431A607047C046FFFFCFFFFFFFF3FFBE
:1052B000FFFFFCFF00040048FF3FFFFF0E4B0F4ABB
:1052C0001B7D002B10D1032113688B4302390B4344
:1052D000136091629021C9050A68094B1A40802326
:1052E0001B0313430B607047032113688B43013981
:1052F0000B431360EEE7C046280700200004004877
:10530000FFFFF3FF114B1B7D002B14D19023DB0516
:1053100019680F4A11408022D2010A431A60802284
:105320009A629021C9050A680A4B1A4080239B02A1
:1053300013430B6070479021C9050A68044B1A405B
:1053400080231B0213430B60EBE7C04628070020B5
:10535000FF3FFFFFFFFFFCFF0E4B0F4A1B7D002BA3
:1053600011D10C2113688B4308390B4313600223BE
:1053700093629021C9050A68084B1A4080239B0359
:1053800013430B6070470C2113688B4304390B43A4
:105390001360EEE72807002000040048FFFFCFFF5E
:1053A0000C211C4A13688B4308390B4313600223FA
:1053B00093629023DB051868174908408021490350
:1053C0000143196080210320C9009962116881435B
:1053D00002380143116090621968104A114080221E
:1053E000D2020A431A60802292009A6219680C4A1B
:1053F00011408022D2010A431A6080229A62196801
:10540000084A1140802252020A431A608022520048
:105410009A62704700040048FFFFCFFFFFFFF3FFD1
:10542000FF3FFFFFFFFFFCFF10B506282CD8804B85
:1054300080001B589F4603217E4A13688B43023924
:105440000B43136090239162DB0519687A4A11407F
:105450008022D2020A431A60802292009A6219685E
:10546000764A11408022D2010A431A6080229A6152
:105470001968734A1140802252020A431A6080223E
:1054800052009A62FFF768FF10BD9023DB05196890
:105490006A4A032011408022D2010A431A60802206
:1054A0009A621968664A1140802252020A431A60C1
:1054B0008022604952009A620A688243023802439D
:1054C0000A60886119685C4A11408022D2020A434E
:1054D0001A60802292009A62FFF73EFFD4E70C2107
:1054E000544A13688B4308390B43136002239362B9
:1054F0009023DB0518685349084080214903014384
:10550000196080210320C900996211688143023823
:105510000143116090611968474A11408022D2020C
:105520000A431A60802292009A62FFF7EBFEABE713
:105530000321404A13688B4302390B4313609023C5
:105540009162DB0518683C4908408021C90201438B
:10555000196080210C208900996211688143083804
:1055600001431160022191611968364A114080227D
:1055700052030A431A608022D2009A62FFF7C2FEE9
:1055800082E79023DB0519682C4A0C201140802209
:10559000D2010A431A6080229A621968284A11408F
:1055A000802252020A431A608022224952009A62E3
:1055B0000A688243083802430A6002228A61196835
:1055C000204A1140802252030A431A608022D200EE
:1055D0009A62FFF773FE57E70C21164A13688B4354
:1055E00008390B431360022393629023DB0519688B
:1055F000144A1140802252030A431A608022D200CA
:105600009A6219680D4A11408022D2010A431A6039
:1056100080229A6119680A4A1140802252020A4384
:105620001A60802252009A62FFF748FE2CE7C046BB
:10563000BC69000800040048FFFFF3FFFF3FFFFFC5
:10564000FFFFFCFFFFFFCFFF0C211C4A13688B43B9
:1056500008390B431360022393619023DB0518681C
:105660001749084080214903014319608021032024
:10567000C900996211688143023801431160906149
:105680001968104A11408022D2020A431A6080220F
:1056900092009A6219680C4A11408022D2010A4392
:1056A0001A6080229A611968084A114080225202C9
:1056B0000A431A60802252009A6270470004004830
:1056C000FFFFCFFFFFFFF3FFFF3FFFFFFFFFFCFFE9
:1056D00010B5FFF741FEFFF7F1FDFFF713FE10BD18
:1056E00030B5002591B01C22002108A801F0ECF88B
:1056F0008021464B05959A69C9010A439A619A69C6
:10570000434C0A4080210192019A5A69C9020A4316
:105710005A615B6940220B400093009B0223029276
:105720000393032301220493002302A9394806921C
:105730000793FEF709FC2368374AC620134010225E
:10574000134323602368354AC0211340202223607D
:1057500023688000934323602368203293432360AF
:10576000236840321343236023682D4A09061340FF
:10577000236023682B4A13402B4A236013581B02D3
:105780001B0A0B43135080231B051360E1235B02AC
:1057900008220893002309950A950B950E95234D31
:1057A00008A928000C920D93FEF752FEAB68204A20
:1057B00020491340AB606B681F4A13402A226B607C
:1057C000AB689343AB602B68293A13432B60236883
:1057D0001A4A0B40102B14D0194BA260E3600C4BFB
:1057E00018495A680978120C12040A4302215A60B7
:1057F0001A680A431A601A6806310A431A6011B01F
:1058000030BD0F4BE260A360E9E7C04600100240E4
:105810001C00024000040048EFBFFFFFFFCFFFFF66
:10582000FFFCFFFFFFF3FFFF00E100E00038014055
:10583000FFFBFFFF10400000FFB7FFFF140900202F
:1058400028380140910400200C2008210D4B10B590
:105850001A680D4C82430A430C491A604A6824783E
:10586000120C1204224380244A609A6822439A60F0
:105870000A687F3C22430A6004211A6882430A4373
:105880001A6010BD00380140910400201C00024045
:1058900070B51C006B461E8A0B0A1B02C9B20904B4
:1058A0001843130A1B060843210A164D1843090220
:1058B000D3B2E4B22404320A0B43120623432E72FD
:1058C0002E00134328600022280007246B6009364D
:1058D00003785A40082305E0013B5200DBB2D2B204
:1058E000002B09D051B20029F6DA4900013B614092
:1058F000DBB2CAB2002BF5D101308642E8D16A7220
:1059000070BDC046140900207047C046FEE7C0467F
:105910007047C0467047C0467047C046074B1A687C
:10592000920602D41A68120606D5102201215A6086
:10593000034A13688B4313607047C046000002405F
:105940001C00024010B5264B1B78002B03D0254BC2
:105950001B78002B1CD18022234BD20219681142E4
:105960000BD022490978002907D00A242048016A6F
:10597000A143083C214301625A601B4B1A68920301
:105980001FD41A68120302D5802252025A6010BD39
:105990008023154A5B0251680B4353600022154B6C
:1059A0001A60154B1B78002B16D0FEF7B3FF0222AE
:1059B000124B1A708023124A1B0211690B431361A8
:1059C000E5E78022012152025A600A4A13688B439C
:1059D0001360FDF7AFFFEDE7FEF7E4FF0122E7E715
:1059E000DC0500202906002000000240930500206D
:1059F000004001405800024010080020F00500203F
:105A0000000401408022054B9203596910B51142F0
:105A100000D110BD5A61FCF723FAFAE700040140F7
:105A2000054A10B51369DB0704D502235B421361F5
:105A3000FCF736FF10BDC04600100040022210B532
:105A4000024B52421A61FCF7C7F910BD002000401A
:105A50007047C0467047C046074A13699B0702D586
:105A600003235B421361044A1369DB0702D5022357
:105A70005B4213617047C04600400140074A13690A
:105A80009B0702D503235B421361044A1369DB07BA
:105A900002D502235B4213617047C04600040040F8
:105AA000084A10B513689B0706D40822054B1968ED
:105AB0000A4200D05A6010BD01235360FEF73AFD40
:105AC000F3E7C04600000240074A13699B0702D56E
:105AD00003235B421361044A1369DB0702D50223E7
:105AE0005B4213617047C046002C0140802210B514
:105AF000024B12025A61FCF7C3FD10BD00040140C5
:105B00007047C0469E2110B5C905041CFBF77EFCFA
:105B1000002803D1201C00F067FE10BD9E21201C30
:105B2000C90500F01FFC00F05FFE80231B069C46A9
:105B30006044F2E74A02F8B5530ACE4699464B0054
:105B4000C90F4746884646004502360E1B0E80B5F3
:105B5000C40F6F0A9209AD09F11A44454BD00029D0
:105B600038DD002B00D174E0FF2E00D1BEE0802391
:105B7000DB041A431B2900DCFDE0013D6B0100D46E
:105B8000AFE001256D42AD01AF093800FBF748FCDD
:105B90003B0005388340864200DCD3E0B94D311A22
:105BA0001D405A0700D19EE00F221340042B00D164
:105BB00099E004356B0100D495E0481CFE2951D1D1
:105BC000FF200023C0051843E4072043C0BCB946AA
:105BD000B046F8BD002949D0991B002E72D1002D86
:105BE00000D133E14C1E012900D159E1FF2900D138
:105BF0004CE121006CE0002900DC81E0002B55D154
:105C0000002A70D04B1E012900D12BE1FF296DD055
:105C10001B2B50DC190020235B1A10009A40C8404F
:105C2000531E9A410243AD188023DB041D4200D16C
:105C3000ADE0711CFE2EC3D001206A082840924DB1
:105C4000154005436A0700D08BE01D42B5D1EF082F
:105C500034E0002A47D04B1E012966D0FF2945D0E9
:105C6000190087E7C0B2AB015B0AABE7FE239C4695
:105C7000701C03006046184200D092E0002E00D055
:105C8000E7E0002D00D119E1002A17D08023AF1AD8
:105C9000DB041F4200D142E14446551B00D187E09E
:105CA00001201D42DFD10021EF0807E0FF2E1DD0AB
:105CB0001B2900DC94E031000535EF087B025B0A0C
:105CC000C8B27FE7FF2B00D1E0E08020C00405438D
:105CD0001B2900DC88E0551E44461E00690100D5E2
:105CE0004FE731000435EF08FF29E7D1002F00D13D
:105CF00066E78023DB033B435B02FF205B0A61E72F
:105D0000002958D0991B002E00D089E0002D00D129
:105D10009DE04E1E012900D1A4E0FF2900D1B6E08C
:105D20001B2E00DDB8E0310081E0AA1A530100D437
:105D3000AFE09701BF093800FBF772FB3B00053865
:105D4000834001261D00811B20200131CD40411AD6
:105D50008B40591E8B411D432AD000216B0700D177
:105D6000F0E00F232B40042B00D022E76B0100D57D
:105D700023E7EF08A2E720235B1A10009A40C840EF
:105D8000531E9A410243AD1A6B0100D5FBE66B0727
:105D900000D1D5E00F2331002B40042B00D008E7C1
:105DA000A1E7AF1A7B014ED4002F00D0EDE600240E
:105DB0000020002306E7FE23711C0B4221D1002E98
:105DC00000D081E0002D00D19FE0002A00D1B2E098
:105DD000AB185A0100D4B0E09B0101205B0AF1E648
:105DE0008023DB041A4316E720242800C840611AE8
:105DF0008D4029004C1EA141014344461E00551A06
:105E0000C2E7FF2900D1DBE6AF187F087B0705D08A
:105E10000F233D1D3B40042B00D064E7FF084DE7F6
:105E2000FF2B34D01B2937DC8020C0040543280019
:105E30002026C840711A8D4029004D1EA9410143FA
:105E40001E008D18F0E64446571B9EE6444615009A
:105E500049E7002D46D1002A66D180230024FF2087
:105E6000DB03AFE6AA18530113D5074F52081740BA
:105E7000530744D00F231340042B40D002213D1D73
:105E800031E7C046FFFFFFFBFFFFFF7D44464F4663
:105E90002CE70121D70811E705321900D7080DE7D3
:105EA000571B7B0137D5BF01BF093800FBF7B8FA94
:105EB0003B00053883404446013643E7002A00D1C1
:105EC00075E744464F46F9E6002DE0D08023DB031A
:105ED000002A17D09F4200D20BE7994500D308E76C
:105EE0004F4606E78023DB03002A0BD09F4200D2F7
:105EF000FFE6994500D3FCE644464F46F9E6022109
:105F0000FF08DBE6FF203B435CE6002A00D14FE7B9
:105F10000021D708D2E644460121FF08CEE6002F33
:105F200000D07BE7002443E780234A46DB03444656
:105F3000FF20134346E60021C0E60021DF08BDE64E
:105F40003100D0E601206A0100D58BE62A00DFE7A8
:105F500070B542004E024C0045026D0A120EC30F8E
:105F6000760A240EC90FFF2A10D0FF2C0CD0012076
:105F7000A2420AD1B54208D18B420FD0002A04D1E7
:105F80002800431E984100E0012070BD0120FF2C35
:105F9000FBD13543F9D14B401800F6E70020F4E778
:105FA00030B5420044024D02C30F4800640A120E8D
:105FB0006D0A000EC90FFF2A18D0FF280AD0002A48
:105FC0001ED100280AD1002D29D0002C2DD1480047
:105FD000013830BD002D25D1002A01D1002CF6D08A
:105FE0008B4219D001205B421843F2E7002C19D1F3
:105FF000FF28F7D1002D15D100208B42F2D1E8E720
:106000000028EFD08B42EDD18242EBDC04DBAC42C6
:10601000E8D80020AC42DCD258000138D9E7002C87
:10602000D7D0DFE702204042D3E78B42DAD1EEE758
:1060300030B5420044024D02C30F4800640A120EFC
:106040006D0A000EC90FFF2A17D0FF280AD0002AB8
:106050001BD100280AD1002D1DD0002C2DD14800C5
:10606000013811E0002D0ED1002A01D1002CF6D00C
:106070008B420CD15800013806E0002C03D1FF28D8
:1060800005D1002D15D0022030BD002806D10120F9
:106090005B421843F8E7002CF6D0F8E78B42F6D1C4
:1060A0008242F4DCE6DBAC42F1D80020AC42EBD219
:1060B000E0E700208B42EAD1E6E78B42E7D1F2E746
:1060C000F0B54F464646D6464502C0B546000F1CC1
:1060D0006D0A360EC40F002E00D1CDE0FF2E72D017
:1060E0008023ED00DB041D43002399469A467F3E42
:1060F0007B025B0A98467B001B0EFF0F002B72D0C1
:10610000FF2B00D1A9E07F3BF6184B460A2B00DDA0
:1061100085E043468022DB00D2041A434B4690467A
:106120007C400022022B0FDD494601238B40A62133
:10613000C9000B4200D072E0902189000B4200D0D0
:10614000DAE08821194267D1280C42462D042D0C33
:106150004346290012041B0C120C51435D43424379
:106160005843AD180B0C5B199A4203D98022520296
:106170009446604409041A04090C52189501691EDA
:106180008D411B0C920E1B1815439B011D431B01D7
:1061900000D5CFE030007F30002800DCB1E06B0795
:1061A0000BD00F2332002B40042B06D004352B01DB
:1061B00003D5803210006A4B1D40FE2864DCAB0121
:1061C0005B0AC0B21FE0002D00D08FE00823994683
:1061D000063B9A467B025B0A98467B00FF261B0E15
:1061E000FF0F002B8CD14346002B5CD14A46013374
:1061F0001A43914613000A2A11DC01227C40022B2B
:1062000092DC00200023C0051843E4072043E0BCD3
:10621000BA46B146A846F0BD3C00454692465346B4
:10622000022B31D0032B11D0012BEAD0300080306B
:10623000721C002866DD6B07B9D00F232B40042B9E
:10624000B4D1B4E70F2A7AD03C0045468023DB0363
:106250002B435B02FF205B0AD5E74346FF36002B4A
:1062600034D14A46023313430A2BD8DC7C40002A3F
:106270000AD09946022257E7002D08D104239946F7
:10628000033B00269A4633E7FF200023BBE72800A4
:10629000FBF7C6F87626431F9D40002376429946B9
:1062A0009A46361A24E74046FBF7BAF84B46361AA8
:1062B000763E0A2BB3DC43460538834098464B466E
:1062C00000227C40022B00DD2EE73DE703234A46F7
:1062D0001A4313000A2AB5DC01229A4088211300D0
:1062E0007C400322194200D12EE795E70C23994602
:1062F000093BFF269A46FBE680230024FF20DB03B0
:1063000081E7320001231B1A1B2B00DD79E79E3247
:1063100029009540D9406A1E95410D436B0704D072
:106320000F232B40042B00D004356B0113D5012023
:10633000002368E701236A081D40154376E78023A0
:10634000DB031D4282D042461A4200D07EE73C0069
:10635000FF20134357E7AB0100205B0A53E7C04619
:10636000FFFFFFF7F8B54746CE464B02460080B523
:10637000C40F4702580A844648007A0A360EBF09FD
:10638000000ECD0F9B09FF286DD001214D40311A21
:10639000AC423AD0002900DC9CE1002800D19EE00C
:1063A000FF2E00D188E08022D20413431B2900DC99
:1063B000F6E0013F7A0100D479E001277F42BF0176
:1063C000BB0998464046FBF72BF843460538834007
:1063D000864200DCCCE0B44F311A1F405A0768D027
:1063E0000F221340042B64D004377B0161D5481C75
:1063F000FE2900D081E0FF200023C0051843E407F8
:106400002043C0BCB946B046F8BD002900DC79E1A4
:10641000002876D1002B4CD0481E012900D147E13D
:10642000FF2949D01B2871DC01001A002020CA4036
:10643000411A8B40591E8B411343FF188023DB0404
:106440001F4200D1B8E0711CFE2ED4D00122974823
:106450003A407F08074017437A0700D096E01F4272
:10646000C5D1FA0855E03100FF398946002B2CD1FF
:1064700001214D40AC4200D1B4E0494600294CD046
:10648000002E00D0F9E0FF21002F00D108E14A1EC4
:10649000012900D156E1FF2900D142E11B2A00DC8D
:1064A00024E15F1E2C0006007A0100D585E731004B
:1064B0000437FA08FF292CD1002A9CD08023DB0363
:1064C00013435B02FF205B0A97E7AC4200D1A7E0D1
:1064D000002922D0002ED6D062462C00EEE7002BF9
:1064E000E7D0481E012936D0FF29E5D001005DE73D
:1064F00001203B007A0100D457E1C0B2BB015B0A26
:106500007BE7FF2ED8D01B2900DC9FE03100053748
:10651000FA0853025B0AC8B26FE7FE20711C0842FA
:1065200054D1002E00D0B1E0002F00D102E1002BA9
:1065300000D1F9E08021FA1AC9040A4200D13BE1F6
:106540000124DF1B2C40002F49D001200F42D5D160
:106550000021FA08DDE7FF1A7B0100D4DEE0BD016F
:10656000AD092800FAF75CFF2B00053883400126AF
:106570002022811B0131521A1F009340CF405A1E26
:1065800093411F432BD000217B07B1D00F233B4009
:10659000042B00D028E77B0100D528E7FA08B8E7EC
:1065A0001A002020CA40411A8B40591E8B411343C8
:1065B000FF1A7B0100D502E77B0700D10DE10F2315
:1065C00031003B40042B00D00EE772E7FA1A9046E8
:1065D000520156D44346002B00D0F3E6002400209D
:1065E00000230AE7494600291CD0002E00D002E70C
:1065F000FF21002F55D04A1E012959D0FF2900D173
:1066000090E01B2A00DD91E011003A002025CA40ED
:10661000691A8F40791E8F4117430600FF180DE756
:10662000002926D1FE20711C084213D1002E00D073
:1066300096E0002F00D1B4E0002B75D0FB185A0172
:1066400000D4B2E09B015B0AFD38D6E68022D2047A
:106650001343EAE6FF2900D1CDE6FA1852085307A2
:1066600005D00F23171D1340042B00D021E7D208BB
:106670004FE7002EBCD0624620E72C00FF2000230D
:10668000BBE60124DB1B98462C409BE6002F75D10E
:10669000002B00D096E080230024FF20DB03ACE633
:1066A0002C001F0005E7C046FFFFFFFBFFFFFF7D3B
:1066B000FB185A0100D48DE04A4A5B081A4059077A
:1066C00000D18CE00F210B400D39042BCFD00221DB
:1066D000171DEEE6002900D11FE7821B1100002ED6
:1066E00000D1D1E68021C9040F43D7E63900202428
:1066F000D140A21A97407A1E97410F432C00060002
:10670000DF1B56E700298DD0811B002E00D170E7DA
:106710001B290BDC8022D204174376E70121FA08FB
:10672000F7E62C006246C7E60021F2E605330100D9
:10673000DA08EEE6002B00D150E701240021624682
:106740002C40E6E6DA1B530132D592019409200071
:10675000FAF766FE2300053883402C00012607E780
:10676000002FDFD0002B17D08023DB039A4200D20A
:10677000A4E69C4500D3A1E662469FE6002B0BD021
:106780008023DB039A4200D298E69C4500D395E62D
:10679000012462462C4091E68023DB03FF20134353
:1067A0002BE60020002B00D127E60021DA08B0E616
:1067B0002C000121D208ACE6002A00D10EE700210E
:1067C000D208A6E6802362460124DB03FF201343A0
:1067D0002C4012E60121DA089BE6310069E602212D
:1067E000D20896E6FFFFFF7D41024200C30F490A2F
:1067F0000020120E7E2A03DD9D2A02DD094A981828
:106800007047802000040143952A07DC9620821AF5
:10681000D1404842002BF3D10800F1E7963A91406D
:10682000F7E7C046FFFFFF7F70B5002812D0C317FF
:10683000C5185D40C40F2800FAF7F2FD9E231B1A0D
:10684000962B0FDC082838D0083885406D026D0A79
:10685000D8B202E0002400200025C0052843E40748
:10686000204370BD992B14DC421F95402A00154926
:10687000114055071CD00F252A40042A18D0043196
:10688000CA08490115D59F235202181A550AC0B2E9
:10689000E3E7020029001B3291404A1E9141052284
:1068A000121AD5402A000A43064911405507E2D181
:1068B000CA085202550AD8B2CFE76D026D0A8E306F
:1068C000CBE7C046FFFFFFFB03008218934200D1D5
:1068D000704719700133F9E770B500260C4C0D4D67
:1068E000641BA410A64209D1002600F019F80A4C36
:1068F0000A4D641BA410A64205D170BDB300EB582D
:1069000098470136EEE7B300EB5898470136F2E7B7
:10691000006A0008006A0008046A0008006A0008AB
:10692000F8B5C046F8BC08BC9E467047F8B5C046EE
:08693000F8BC08BC9E4670474C
:106938005C17000856170008FE170008F61700082D
:10694800EE170008E61700085C170008D8170008BB
:10695800CA170008C2170008BA1700085C17000811
:10696800AA1700088E170008801700085C1700088F
:106978005C1700085C1700085C1700085C17000823
:106988007217000868170008191B12131D1516172F
:106998001A090A0B1E0D0E0F02230008FE2200081A
:1069A8001C2500081625000810250008FE220008EE
:1069B80064000000885400088A540008DE54000867
:1069C8003055000882550008D8550008365400088C
:1069D8000000000000000000010203040607080987
:1069E800000000000102030458526F746F723430C3
:0869F8002046302000000000E1
:046A0000D1140008A5
:046A0400A5140008CD
:106A0800007C0008CF07CF0778002D002D00D007A5
:106A18004C046C07DC0564004A01010014004600C0
:106A2800DC052D009001C8000201020101010000EF
:106A3800D43000000105010AE80300001027000017
:106A4800000000000A0000000000000064000000D0
:106A5800000000000000000000000000000000002E
:106A68001027000050C30000B400D007D0072D0045
:106A78001E0202000000000090010000000000005B
:106A8800E803000000000000000000000000000013
:106A980000000000204E0000A086010064190000DC
:106AA80000000000010000000000000032000000AB
:106AB80000000000000000000000000000000000CE
:106AC8001027000050C30000010201006E00D0072B
