:020000040800F2
:10100000003C00205D450008A5450008D1510008BE
:10101000D5510008D9510008DD510008000000003A
:10102000000000000000000000000000E151000886
:10103000E551000800000000E9510008ED510008EA
:10104000A5450008A5450008A5450008A5450008D8
:10105000A5450008A5450008A5450008555300080A
:1010600000000000F1510008195200085552000814
:10107000C9520008A5450008A54500080000000069
:1010800031530008A545000800000000F95200088F
:101090001953000809530008A5450008A545000894
:1010A000A5450008A5450008A54500082D530008E2
:1010B000A54500080000000000000000000000003E
:0C10C000A545000800000000A545000840
:1010CC004FF0FF0C1CEAD0521EBF1CEAD15392EA1F
:1010DC000C0F93EA0C0F6FD01A4480EA010C4002FB
:1010EC0018BF5FEA41211ED04FF0006343EA501055
:1010FC0043EA5111A0FB01310CF00040B1F5000F97
:10110C003EBF490041EAD3715B0040EA010062F145
:10111C007F02FD2A1DD8B3F1004F40EBC25008BF2F
:10112C0020F00100704790F0000F0CF0004C08BF4D
:10113C0049024CEA502040EA51207F3AC2BFD2F11A
:10114C00FF0340EAC250704740F400004FF0000328
:10115C00013A5DDC12F1190FDCBF00F00040704762
:10116C00C2F10002410021FA02F1C2F1200200FAA0
:10117C0002FC5FEA310040F1000053EA4C0308BF67
:10118C0020EADC70704792F0000F00F0004C02BFB8
:10119C00400010F4000F013AF9D040EA0C0093F033
:1011AC00000F01F0004C02BF490011F4000F013B8D
:1011BC00F9D041EA0C018FE70CEAD15392EA0C0FFB
:1011CC0018BF93EA0C0F0AD030F0004C18BF31F066
:1011DC00004CD8D180EA010000F00040704790F03C
:1011EC00000F17BF90F0004F084691F0000F91F0E0
:1011FC00004F14D092EA0C0F01D142020FD193EAA6
:10120C000C0F03D14B0218BF084608D180EA01002D
:10121C0000F0004040F0FE4040F40000704740F009
:10122C00FE4040F44000704780F0004002E000BFF8
:10123C0081F0004142001FBF5FEA410392EA030FB5
:10124C007FEA226C7FEA236C6AD04FEA1262D2EBFF
:10125C001363C1BFD218414048404140B8BF5B4204
:10126C00192B88BF704710F0004F40F4000020F09D
:10127C007F4018BF404211F0004F41F4000121F0B3
:10128C007F4118BF494292EA030F3FD0A2F10102FD
:10129C0041FA03FC10EB0C00C3F1200301FA03F13B
:1012AC0000F0004302D5494260EB4000B0F5000F5E
:1012BC0013D3B0F1807F06D340084FEA310102F11D
:1012CC000102FE2A51D2B1F1004F40EBC25008BFCF
:1012DC0020F0010040EA03007047490040EB000099
:1012EC00013A28BFB0F5000FEDD2B0FA80FCACF19A
:1012FC00080CB2EB0C0200FA0CF0AABF00EBC250C7
:10130C0052421843BCBFD0401843704792F0000FB4
:10131C0081F4000106BF80F400000132013BB5E707
:10132C004FEA41037FEA226C18BF7FEA236C21D07D
:10133C0092EA030F04D092F0000F08BF08467047E2
:10134C0090EA010F1CBF0020704712F07F4F04D1B0
:10135C00400028BF40F00040704712F100723CBFC3
:10136C0000F50000704700F0004343F0FE4040F4ED
:10137C00000070477FEA226216BF08467FEA2363AB
:10138C000146420206BF5FEA412390EA010F40F496
:10139C00800070474FF0000304E000BF10F00043E2
:1013AC0048BF40425FEA000C08BF704743F09643C9
:1013BC0001464FF000001CE050EA010208BF7047E4
:1013CC004FF000030AE000BF50EA010208BF70476B
:1013DC0011F0004302D5404261EB41015FEA010C80
:1013EC0002BF84460146002043F0B64308BFA3F178
:1013FC008053A3F50003BCFA8CF2083AA3EBC2535A
:10140C0010DB01FA02FC634400FA02FCC2F1200278
:10141C00BCF1004F20FA02F243EB020008BF20F0AF
:10142C000100704702F1200201FA02FCC2F1200215
:10143C0050EA4C0021FA02F243EB020008BF20EA0A
:10144C00DC7070474FF0FF3C06E000BF4FF0010C22
:10145C0002E000BF4FF0010C4DF804CD4FEA400202
:10146C004FEA41037FEA226C18BF7FEA236C11D04C
:10147C0001B052EA530C18BF90EA010F58BFB2EBFF
:10148C00030088BFC81738BF6FEAE17018BF40F07F
:10149C00010070477FEA226C02D15FEA402C05D133
:1014AC007FEA236CE4D15FEA412CE1D05DF8040BB8
:1014BC00704700BF844608466146FFE70FB5FFF74B
:1014CC00C9FF002848BF10F1000F0FBD4DF808ED03
:1014DC00FFF7F4FF0CBF012000205DF808FB00BFF4
:1014EC004DF808EDFFF7EAFF34BF012000205DF84E
:1014FC0008FB00BF4DF808EDFFF7E0FF94BF01209B
:10150C0000205DF808FB00BF4DF808EDFFF7D2FF97
:10151C0094BF012000205DF808FB00BF4DF808EDDA
:10152C00FFF7C8FF34BF012000205DF808FB00BFA7
:10153C004FEA4002B2F1FE4F0FD34FF09E03B3EBD4
:10154C0012620DD94FEA002343F0004310F0004F14
:10155C0023FA02F018BF404270474FF0000070476A
:10156C0012F1610F01D1420205D110F0004008BF09
:10157C006FF0004070474FF00000704742000ED2F1
:10158C00B2F1FE4F0BD34FF09E03B3EB126209D4B2
:10159C004FEA002343F0004323FA02F070474FF068
:1015AC000000704712F1610F01D1420202D14FF0DD
:1015BC00FF3070474FF00000704700BF53B94AB975
:1015CC00002908BF00281CBF4FF0FF314FF0FF303F
:1015DC0000F00CB8ADF1080C6DE904CE04F0E6FD9A
:1015EC00DDF804E0DDE9022304B07047704700BF6A
:1015FC000348044B834202D0034B03B11847704796
:10160C00B4030020B4030020000000000548064B82
:10161C001B1AD90F01EBA301491002D0034B03B1E4
:10162C0018477047B4030020B403002000000000EA
:10163C0010B5064C237843B9FFF7DAFF044B13B10E
:10164C000448AFF300800123237010BDB4030020C5
:10165C00000000000865000808B5054B1BB10549E2
:10166C000548AFF30080BDE80840FFF7CFBF00BFCF
:10167C0000000000B8030020086500089A4A9B4946
:10168C00D36F9B4809882DE9F04F14681B1B9BB244
:10169C0083B0038097485C09994204805FD29649D5
:1016AC00098899425BD9954895490023038002F13A
:1016BC008005536852F8080B1B1A9BB29C422CBF36
:1016CC0000230123AA4241F8043FF2D18D4C6568F6
:1016DC006169626BD4F800E02069D4F824B00195FC
:1016EC0085EA0108256B236AE768D4F81CA00093EF
:1016FC00960046EAC50688EA0B088EEA00055D40AE
:10170C004FEA880848EAC508E56BE36AD4F808C0D4
:10171C00A269D4F828902E4387EA0A055D40A36B92
:10172C0048EA050546EA43068CEA0208764B88EA45
:10173C00090845EA480593F80080F6B2EDB2B8F115
:10174C00000F0FD0DFF8C48198F80080B8F1000FBB
:10175C000FD1AE4211D06E4A13880133138003B0FF
:10176C00BDE8F08FDFF8A48198F80030002B00F072
:10177C00EF80C6F10F06F6B2EBE7604BE66A654DFB
:10178C0000241C80019B2C885B0243EA8E2343EAD5
:10179C00090343EA0C2343EAC71343EA801343EAE1
:1017AC00411343EA0213009A0134012E43EACA039F
:1017BC002C8043EA820308BF574C43EA4B0308BF13
:1017CC0026702F2B2DDC5A1E2E2A00F2F280534A43
:1017DC00534C0021DBB211802370524A1278002A3C
:1017EC00BDD1494A1278002AB9D04F4A1178994292
:1017FC0000F0F480042B137000F2EC804B490022B3
:10180C00013B0A70142B19D8DFE803F0156A6662E5
:10181C005E1857504C481840322A181818181823BC
:10182C001E00434A1278002A40F0BB803C4C2378BF
:10183C00002B94D0D1E73F4B01221A703E4A2178FD
:10184C001170002323708AE73C4A3D4B527C1A707E
:10185C00F4E73A4B3A4A5B7CC3F101031370EDE7B2
:10186C003849394B002040F6FF6208701A80E5E7D2
:10187C00364B34491B78344A0120087083424FF4AC
:10188C0060611180DAD12A4A1370D7E700F07CFB33
:10189C002A4B284A5B7C01331370CFE7274B01227C
:1018AC009A74CBE7254B00229A74C7E72349244B43
:1018BC000120002248741A70C0E72049204B0020F8
:1018CC00012248741A70B9E71A4B05221A70B5E751
:1018DC00184B04221A70B1E7164B03221A70ADE7AD
:1018EC00144B02221A70A9E720070020EE060020F4
:1018FC00DA030020D0030020A0030020C404002041
:10190C008004002084040020DE040020C705002091
:10191C00D6030020D8030020C9050020D8040020DD
:10192C00DF040020F2040020710400207204002067
:10193C0080040020F1050020C60500202C060020A4
:10194C000A000020D4030020D203002081040020D0
:10195C0003F046FEB8B1274A13780133DBB2642B8F
:10196C00137010D9012388F80030D4E900E30193F7
:10197C00236A0093D4E902C7D4E90401D4E9062A06
:10198C00D4E909B9F5E6D4E900E30193236A00939D
:10199C00D4E902C7D4E90401D4E9062AD4E909B987
:1019AC00D2E6154C154816492380002202700A70A5
:1019BC00D5E6002B7FF43AAF124A0F4812780F4944
:1019CC00012A04BF104A13700D4A002303800B70C8
:1019DC001370C4E60A4B01221A70C0E6042B0849A6
:1019EC007FF60DAF0A780132D2B2052A0A707FF663
:1019FC00B6AE04E770040020D8040020DF040020F9
:101A0C00720400208104002080040020304A1388D6
:101A1C0030B5002B42D00021184611801A0A82EAF8
:101A2C0013125340DB4303F00F0343EA0013294A1C
:101A3C00294C2A4D94F800E003F00F011813545C64
:101A4C002749105C0B60C3F30321C3F30313515CF0
:101A5C00D25C244B44EAC03444EA812444EA421464
:101A6C000EF101001C60802345F820302B1D05EB86
:101A7C00800053F82E1013224FF0010C0CFA02F3D5
:101A8C002340D34083EAD111013AC901531C40F8D9
:101A9C00041FF3D1002345F82E3030BD124B1B78B8
:101AAC0063B103460F2240FA02F1012909D0013A31
:101ABC00082AF8D100220D490A60AFE74FF6FF70F3
:101ACC00EFE7083A104140EA422083B2F3E700BF47
:101ADC00D203002020650008AC030020DC030020AA
:101AEC007404002078040020F20400207C04002000
:101AFC0070B5049C904216DA814216DAA34205D1E5
:101B0C0013E0904213DC0ED09C420CD001EB020C83
:101B1C0004EB030EB1EB6C0F164625464FEA6C0234
:101B2C004FEA6E04EDD1204670BD184670BD511CB5
:101B3C00234632462C46DDE7401A0028B8BF404207
:101B4C00704700BF04494A6A80B292B24B6A9B1A32
:101B5C009BB28342FAD370470048014000F1FF3C2E
:101B6C0058B106494A6A92B24B6A9B1A9BB2B3F5BA
:101B7C007A7FF9D3BCF1010CF4D2704700480140D4
:101B8C00026803FB03F303EB430C22EA0C0203FB96
:101B9C0001F10A430260704710B403FB03F30468BD
:101BAC0003FB01F103FB02F203EB430324EA0304FE
:101BBC000C430460C16810BC21EA03031343C360E7
:101BCC00704700BFBFF34F8F0549064BCA6802F43C
:101BDC00E0621343CB60BFF34F8F00BFFDE700BF44
:101BEC0000ED00E00400FA0584468A1A0069DCF86E
:101BFC00081008B5DCF82030DCF804E0CCF8002044
:101C0C0001FB02009842A8BF18465B429842B8BF3D
:101C1C001846DCF81830DCF80C10CCF81820D31A65
:101C2C0001FB03F3CCE90403DCF824100EFB0233B4
:101C3C0018448842A8BF084649428842B8BF0846A3
:101C4C00CCF81C00FFF7AAFB08BD00BFF0B5B14BE8
:101C5C00B14C1968204683B0C02203F00DFCE37D23
:101C6C00207E032B84BF0223E375A0F10803282BED
:101C7C001FD8A0F11803182B40F20F81A0F10C0310
:101C8C000B2BA64D40F2368141F64C53009310229B
:101C9C0043F698230721FFF72BFFA14B80B2288036
:101CAC00D862627EA2F13203642B0DD955219622A3
:101CBC0012E09B4A9B4941F288330B80D362627ECF
:101CCC00A2F13203642BF1D89749A1FB02314908E8
:101CDC00964B01F10A001880A37E954D954E964FB8
:101CEC00298003EB8303DB00143302203B8032801A
:101CFC0002F056FA63787BB938884FF4FA73009384
:101D0C0040F6B8324FF47A734FF49671FFF7F0FE49
:101D1C008A4B188003B0F0BDA07F0B2888BF05202C
:101D2C0002F03EFA94F82030854A94F82410DFF83B
:101D3C0014C2854803F277135B00138094F82130AA
:101D4C00824A03F26B335B00138094F82230804A92
:101D5C0003F25E53138094F8283094F82520053B49
:101D6C00142B84BF052384F82830A1F1010194F8C9
:101D7C002930B1FA81F1013B4909092B8CF800108B
:101D8C00744988BF0A2302F1FA0288BF84F829300B
:101D9C000A8094F82A3094F823200270002284F8E8
:101DAC0027205A1E082A4DD8C3EB4312C3EB8203DB
:101DBC005B001A3BDBB2C82B40F2A980C823184643
:101DCC001A46DFF894E1DFF894C1BEF80010114414
:101DDC00AEF80010BCF800101144ACF8001094F8E8
:101DEC0019C05F490B700CEB0203338002EB5C03F0
:101DFC004B492B8094F82B304A6C463B462B88BFC2
:101E0C00FF2342EA00024A6488BF84F82B3094F81E
:101E1C002C30013B622B02D8524B01221A7094F8E1
:101E2C002D30013B092B84BF052384F82D3094F809
:101E3C002E30092B0DD8042B13D8DFE803F00A55EC
:101E4C00511248000A2384F82A30822318461A4675
:101E5C00B7E745484549464A002303700B700123F8
:101E6C0013703888B0F5967F02D2424B00221A705C
:101E7C00414A2D4B414DE47EA2FB0012A3FB001303
:101E8C0052092021B1FBF4F1B2FBF1F22A803C4A59
:101E9C00DB08B3FBF1F313802FE740F6C413009378
:101EAC00302241F288331821FFF722FE1B4D0346E6
:101EBC00207E2B80A0F10C030B2B1BD9A0F1080367
:101ECC00032B7FF6E1AE164B2888D862E9E62D4944
:101EDC00274A01230B7000211170234A1370C0E7AD
:101EEC00224B01221A70BCE71F49214A01230B70B7
:101EFC001370B6E741F288330093182242F2107344
:101F0C000C21FFF7F5FD03462B80207ED6E71A4601
:101F1C00184656E71C0300202C060020EE02002079
:101F2C00002C0140F0020020ABAAAAAAF202002069
:101F3C00F4020020FC020020160300200203002003
:101F4C000E03002021060020080300200C030020B3
:101F5C000A03002006030020E6020020F6020020FF
:101F6C001403002014060020D5040020D404002003
:101F7C0080040020000300201F85EB51EA020020A2
:101F8C00E802002081040020044B054A05481B7818
:101F9C0012684370C02103F015BA00BF1A03002069
:101FAC001C0300202C06002030B50F4A0F4C1049A2
:101FBC001378104D2068B1F800C035F813E025F8FF
:101FCC0013C00133DBB20C496044A0EB0E00642B50
:101FDC00206028BF0023094C1370A1FB0010C0F334
:101FEC004F10208030BD00BFC0050020BC05002074
:101FFC00CC050020F40400201F85EB51C205002005
:10200C0008B503F0B3F90C4B1B782BB130B90B4A64
:10201C0013780133137008BD0028F8D1084A094918
:10202C00137809780133DBB299421370F3D2034B66
:10203C0000221A7008BD00BFE0020020CC04002072
:10204C00E00400200700002010B5214B214C1B7828
:10205C002278012B2BD0531E13F0FF0321D02370B9
:10206C0002F001031C4A137072B61C4B1B7833B37D
:10207C0062B603F097F91A4A126840F6C4139A42F2
:10208C0002D9184B01221A702378174A1748146882
:10209C001749013B002220F81340164B0A701A70A6
:1020AC0010BD154A0123062121701370DAE70132A5
:1020BC00D2B2062A07D9104A23701370D2E72078BF
:1020CC0003F0AEFDD4E7227002F00103CAE700BFB3
:1020DC000A00002004000020E0020020C8050020B7
:1020EC00E0050020E302002000000020E4050020B1
:1020FC00CC040020CD040020F00500201B4AD3683E
:10210C0023F0010310B5D360FFF79EFF184A19495D
:10211C0013680888184903EB4303034491F82F0014
:10212C0099081160B8B9154A1278590912FB01F2D5
:10213C0092B21349134C144809782280C2EBD30392
:10214C00038079B1114A136842F20F718B429CBF24
:10215C000133136010BD0E4A127801FB02F2C2F378
:10216C008F12E6E703F016F9ECE700BF00440140DC
:10217C0000000020CA0400202C06002018030020B8
:10218C00E3020020F0040020C6040020D00400204C
:10219C0022060020234B1B687D2B70B514D9224BD3
:1021AC005B6A7C2B09D8214B1B88B3F5167F04D2B4
:1021BC001F4B1B68B3F5FA7F16D31E4A13780133F5
:1021CC00DBB2642B137026D81B4D2B786BB11B4ED6
:1021DC00002402E02B78A34207DD03F0C7F8337824
:1021EC00834204F10104F5D170BD72B603F0C6F858
:1021FC000D4913484C6A04801248134B00224A6262
:10220C0001885A620131D9621A61DA6842F001021E
:10221C00DA6062B670BD03F0B1F8054B00221A60AB
:10222C0070BD00BFE005002000100040C804002075
:10223C00D0040020E8040020E1020020E00200208D
:10224C00CA040020C6040020004401402DE9F04FD0
:10225C00A44CA54DA27C2B8883B052B3DFF88C82A2
:10226C0098F80020002A00F0CD80A14F2B88B3F500
:10227C00836F80F08081A3F1300292B2B2F57A7F45
:10228C000FD29C48667C0178C6F10102914200F0A5
:10229C00778399495A000978313A92B2521A974980
:1022AC000A802F2B08D8954A00231380944A137068
:1022BC0002E0924A8E4F1380924E934B32781B78E9
:1022CC009A4203D9A37D002B40F0D980E67C002EE6
:1022DC007AD08A4E30881D2800F2BC808B4B0022AD
:1022EC001A8094F8283003EB8303B0EB830F4FEA8A
:1022FC00830180F2BB803B78002B62D1844B1B782E
:10230C00002B5ED0DFF80482E27CB8F8000050238A
:10231C002E2112FB0313834280F21881DFF8F49113
:10232C0099F80030002B00F067837B4B1B88002A48
:10233C0000F0F7814FF4FA620092283340F2FF72FA
:10234C008921FFF7D5FB80B2744E94F8263030808B
:10235C00002B40F0D681DFF8C8A1E27CB8F800B0C1
:10236C008AF8003050212E2312FB01335B4580F29A
:10237C00F280617F6B4B1E220A41196833888A42B6
:10238C0000F23F82684A12889A42684B38BF32800A
:10239C001B7833B1664B3288B3F900309A42C8BF10
:1023AC003380644B1C6800212046FFF7B7F840B11E
:1023BC00BBF12F0F05D92046FFF7E0F833881844FE
:1023CC00308003B0BDE8F08F5B4B1B78002B3CD00A
:1023DC005A4B1B78002B40F0DE80594BDFF82C81D8
:1023EC001E683046FFF7CAF85649A8F80000304678
:1023FC00FFF794F8002800F03A8140F2FF73A8F838
:10240C00003078E7DFF8409194F8267099F8006076
:10241C007600184606F57A71002F3AD08B4240F3BD
:10242C005681DFF8D0E0607C9EF80070874200F0A7
:10243C0029813B4A1278002A00F050832C4F98F8DF
:10244C000030002B3FF438AF10E72C4A2F4B12888A
:10245C001A8050E71E283FF444AF94F8282002EB72
:10246C00820292008242114600F3BC8040F2FF725D
:10247C00A0230092FFF73CFB244B18803BE703F0B2
:10248C0091FB02F07BFF214B00221A8066233370F4
:10249C0031E78B4240F34F81DFF858A0637C9AF808
:1024AC0000209A4200F00782114F144E40F2FF7345
:1024BC0000934FF4FA622F23FFF71AFB99F80030C0
:1024CC0030805B002888C3F57A72824200F33C812D
:1024DC0003F57A738342B2DB094A0023338013700D
:1024EC00ADE700BF2C060020D8040020D504002046
:1024FC00E90400200A000020FA020020C405002094
:10250C0002060020F3040020FB020020DA04002065
:10251C00DE040020F2040020F4020020F20500206A
:10252C00C8050020D0040020EC0200201406002076
:10253C0004030020100600201C060020EC060020DE
:10254C001806002000E0FF4408030020DFF8CCA2AE
:10255C00DFF8CC92B34EDFF8D0B29BF80030002BF2
:10256C0050D0013B042B4AD8DFE813F04700070298
:10257C00040201024700AD48627C0178914200F0F0
:10258C001682AB4AAB4910786FF4006C5A00624467
:10259C00121A0A8085E6A84AA84B1268DFF89482C2
:1025AC001B6800922F2140F2FF72B8F80000FFF771
:1025BC009FFAB8F80010DFF888C2E27EA14B93FBBB
:1025CC00F0F32E294FEA520293FBF2F3ACF80030F1
:1025DC003FF603AF9C4B1E809C4B1E609C4B002215
:1025EC001A6088E6A02300931E212F23FFF780FAA0
:1025FC00954B02461A80308873E601F00FFF0023DA
:10260C008BF80030227D99F80030002A40F0B5801C
:10261C003280002B40F0E3808E498F4A0B60237F81
:10262C0001211170002B40F0D8809AF80030002B5B
:10263C0000F06A8294F82630002B3FF4C2AE298851
:10264C004FF47A70FFF778FA844A8549128800F5BE
:10265C007A739BB2013A93420B80C0F2588203F01A
:10266C0007FC9AF8001000297FF4ABAEC1E07D495D
:10267C003046FEF735FF00283FF43DAE3023A8F876
:10268C00003038E6DFF8E0C16A4E64489CF800A0E0
:10269C0032804FF0010B80F800B0BAF1000F3FF41C
:1026AC00CDAEC7F1010702708EF80070184640F2EB
:1026BC00FF73009300238CF800304FF4FA622F2341
:1026CC00FFF716FA308099F8006028887600C6F576
:1026DC007A72824240F33981544B677C1E78C7F181
:1026EC0001018E4200F009814C4B1B78002B00F04D
:1026FC00F9815E4F98F80030002B3FF4DDAD2B884C
:10270C00B9E5E37CB8F800B050212E2213FB01236D
:10271C005B4580F21282414B1B78002B7FF451AE4B
:10272C0027E64FF4FA6200922F2140F2FF72FFF776
:10273C00DFF980B208E6C6F57A729A4240F3B880A7
:10274C00DFF8E8A03B4E494F637C9AF800C0C3F118
:10275C0001018C4500F081812F230093002140F270
:10276C00FF73FFF7C5F999F8003030805B002888BB
:10277C00C3F57A729042BDDBAAE6002B00F086808E
:10278C009AF80010E07C3A4B3A4A1B781288013BCD
:10279C00C3EB031302EB83031AB2B2F5B47F9BB203
:1027AC0080F24481344D2A8003F1770212B2B2F5E3
:1027BC00B47FC0F24881314AA3F1F1051580793B11
:1027CC001AB22F4B01281A804FF0000308BF387043
:1027DC00338000297FF4F5AD0BE003F049FB94F84E
:1027EC0026309AF80010002B3FF43DAF00297FF4FF
:1027FC0026AFB8F800B03388BBF12E0F7FF6C2AD10
:10280C00B7E5204A12889A4284BF328013461E4A8A
:10281C0012889A423CBF32801346B3E5C8050020AB
:10282C00F2040020F2050020F10500200A0000202F
:10283C00FA020020C40500209C030020980300200D
:10284C001E06002000879303DA040020700300208A
:10285C0018060020D0040020E3020020EE02002025
:10286C002A0600200000404220060020E904002037
:10287C000400002010030020EE040020EC040020D3
:10288C00EA040020FC020020F6020020AC49AD4A0C
:10289C000B60AD490B70237F01251570002B00F0E8
:1028AC001A81E07C002800F021819AF800106AE778
:1028BC00A64EA74F10E6A74AA54F1088A64A126845
:1028CC00904280F0EA80A54A1288C72A00F2E5807F
:1028DC009B4AC3F101038AF800300026994B16601D
:1028EC0001221A7002F04AFD99F800109C4B2888BE
:1028FC001E70490001F57A71D7E5DFF868C2934E76
:10290C0099499CF800A04FF0000E4FF0010BA6F86F
:10291C0000E081F800B0BAF1000F3FF4EAAE1F708E
:10292C0081F800E000212F238CF80010009340F276
:10293C00FF73FFF7DDF8308099F800602888760087
:10294C00C6F57A739842FFF6D4AE06F57A76B042A5
:10295C003FF774AD7D4B00221A80834B1978002908
:10296C003FF46CAD1A707F4B01221A7066E501F0D2
:10297C00E7FC44E601F0B2FD41E601F07FFD3EE6E6
:10298C00744B1A88744B1B689A4246D2734B1B8843
:10299C00C72B42D86A4B067000261E60694B012279
:1029AC001A7002F0EBFC6E4B1E702B8871E4694BB5
:1029BC001988694B1B68994234D2684B1B88C72B0A
:1029CC0030D85F4B00261E60C2F101025D4B0270D5
:1029DC0001221A7002F0D2FC614B64491E702B88E4
:1029EC0008786FF4006659003144091A5748A3F16E
:1029FC00300292B2018041E403F0D4F8514B1B78C1
:102A0C00002B62D05A4BB8F800001A88594B1A8028
:102A1C000123E27C89F8003087E43B78002BB9D1A4
:102A2C002B8040E43B78002BFAD0CAE7524AA3F53E
:102A3C00B475ADB21580A3F1F10292B2B2F5B47FC8
:102A4C003AD212B22B464D4D2A8003F1EF0212B24C
:102A5C00B2F5B47FFFF6B5AEB1E63E4908883E4903
:102A6C000968884221D23D490988C7291DD8344AB2
:102A7C008AF80030334B4FF0000AC2F800A0012254
:102A8C001A7002F07BFC99F80020354B288883F8EB
:102A9C0000A05200C2F57A725EE63A78002A7FF402
:102AAC0017AF4FF47A702880FFE439780029DED113
:102ABC004FF47A7028804FE66FF4167203EB020C19
:102ACC002E4A2B46A2F800C079E699F8003033B3B1
:102ADC0002F060FC96E703F065F851E61B4EDFF858
:102AEC0084C0E3E5194EDFF87CC01BE794F829306D
:102AFC00234A03F2DE335B00138002F0B7FFE07C65
:102B0C008AF8005029463EE603F04CF867E602F0DE
:102B1C00ADFF9AF8001000297FF453AC69E6FFF77B
:102B2C0093FA0D4A174B42F21071116041F2883240
:102B3C005A62012389F80030CAE7DFF82CA00AE5B5
:102B4C00D0040020E3020020E0040020C405002093
:102B5C00E90400200203002000000020C80400202B
:102B6C000206002020060020C8050020FA020020E2
:102B7C00FC020020F4050020EE040020EC040020F0
:102B8C002A0600200010004010B50C4C2378012BB5
:102B9C000CD0022B03D0BDE81040FFF757BB084BFD
:102BAC001888FEF733FF0023237010BDFEF766FD77
:102BBC0000232370BDE81040FFF748BB240600201B
:102BCC00D80500202DE9F84F504B514A197813883D
:102BDC0000297AD101331BB2B3F5B47FDFF834B1DD
:102BEC004D4EA8BF0B4613801946BBF800303288F7
:102BFC0001331BB20132B3F5B47F12B2A8BF00236C
:102C0C00B2F5B47FABF80030AABF0023328033801A
:102C1C00DFF808A1DFF808913AF91130DFF80481E8
:102C2C00B9F80020404D414F414C1344B8F80020F6
:102C3C0002FB03F385FB0312DB17C3EBE21397F8DC
:102C4C002D2002FB03F3D81784FB0323C0EBA30056
:102C5C0080B202F06DFEBBF900303AF91300B9F8FE
:102C6C0000301844B8F8003003FB00F085FB00126C
:102C7C0097F82D30C017C0EBE21003FB00F084FB7B
:102C8C000023C017C0EBA30080B202F057FEB6F9C8
:102C9C000030B8F800203AF91300B9F800301844A5
:102CAC0002FB00F097F82D3085FB0025C017C0EB18
:102CBC00E51003FB00F084FB0034C017C0EBA4004C
:102CCC0080B2BDE8F84F02F03FBEDFF848B0124EBC
:102CDC00BBF80010013B013940F2671009B21BB27E
:102CEC0033EA230428BF044631EA210328BF0346F4
:102CFC00ABF8003033881480013B1BB2002B3380BF
:102D0C00BABFB2F90010308021B281E70A0000206E
:102D1C00EE040020EC040020EA0400201000002047
:102D2C0008000020EE020020D34D62102C0600207B
:102D3C0067666666244925484A6A38B5244C028081
:102D4C0000234B622368234803EB430313FA82F2FC
:102D5C00530995085B009BB225600380C3EBD2033B
:102D6C004A6A1D481D4D9BB29A420380286801D2C5
:102D7C00042815D8FFF768F9194A1A49002313706B
:102D8C00194A13702B684A7F91F8261001330A43B5
:102D9C002B600CD1226840F213539A420DD938BDE6
:102DAC004A6A9A42E6D24A6A9A42F9D3E2E7132B6C
:102DBC00F5D92368B3F5FA6FF1D80C4B00221A70D1
:102DCC00BDE8384002F0E6BA00100040CA0400200A
:102DDC0000000020F0040020C6040020D0040020D5
:102DEC00CC0400202C060020E0040020E30200208C
:102DFC0080488149814A2DE9F8430388804F814EF0
:102E0C00814C824D24882C80013303800B88013344
:102E1C000B803B88117801333B8033780B4304D112
:102E2C007B480178002940F0A480DFF8E88198F80D
:102E3C001F305BB1784B79491B7803EB83020B880D
:102E4C0001339BB2B3EB820F0B8057DC744B1B78B6
:102E5C00002B34D1734B1B7823B1734B1B78002B95
:102E6C0040F08881714B1C883B88142B2DD8704BFB
:102E7C001B78002B48D12A886E49337823B16A4BD2
:102E8C001B78002B40F068816B4B1B78002B68D0B3
:102E9C006A4B6B481B8804FB03F380FB0350DB1766
:102EAC00A3EBE01367480088013003449BB20A800F
:102EBC006548664A0380C2E90D33D462D363644A21
:102ECC00138801331380BDE8F883624B1B78002212
:102EDC003A80002B00F0E080534B1B78002B40F025
:102EEC007C8198F81D30002BC1D15B4B1B78002BDB
:102EFC00BDD04D4B1B78002BB9D0FBE0574B0122BA
:102F0C001A7000230B80A1E7554B4A491A680B88AD
:102F1C00952A40F21E81952B40F21B81514A126872
:102F2C00B2F5FA7F94BF102704273846DFF838C172
:102F3C002A888CF80000A2EB030CBC4540F33A81C4
:102F4C0018444A4B1B6882B2B3F5FA7F2A8040F2D0
:102F5C002D81474898F81750464B05700120187082
:102F6C008BE7374804FB02F3A0FB0303C3F3CF1337
:102F7C009DE741490988002940F02C813F4C23886A
:102F8C0001339BB244F6206C634523807FF64DAF32
:102F9C003B4B1B881E2B40F251813A4B1B78012076
:102FAC003070002B00F04F81374B384C1888430899
:102FBC00A4FB0343DB09B0F5B97F137010D3344C79
:102FCC0088464AF6AA2901F0F3F96420FEF7C6FDFB
:102FDC000A4AC4F80090137808F101084345F2DC62
:102FEC002C4BDFF830801B78002B7FF420AF88F857
:102FFC0026301CE7000600202806002003060020CF
:10300C0026060020DE040020F2050020C804002063
:10301C00D60400202C0600201903002006060020F0
:10302C00E9040020E3020020F2040020F00200205A
:10303C0001030020F4050020C80500202A0600200A
:10304C00D34D6210EE020020E2040020002C01405F
:10305C00C4040020140600201C060020C905002012
:10306C00D0040020E0050020F90200200000002020
:10307C0018030020F8020020C40500200C060020D4
:10308C00DC0400202106002004060020B9D31FB167
:10309C0000300040D404002098F81D30002B3FF481
:1030AC0024AF6A4B1B78002B3FF4E1AE684B6948A8
:1030BC001A88694BDFF8A4911968FEF795FD6849E9
:1030CC00FDF7FEFF0146D9F80000FEF7B3F800212A
:1030DC000746FEF719FA00B9002762493846FEF791
:1030EC0009FA00B95F4F604BC9F800701B78002BD0
:1030FC003FF4BDAE5D4B5E481A885E4BDFF87891AD
:10310C001968FEF771FD5649FDF7DAFF0146D9F84B
:10311C000000FEF78FF800210746FEF7F5F900B91D
:10312C00002756493846FEF7E5F900B9534F544B82
:10313C00C9F800701B68632B3FF699AE514B4C4A93
:10314C001B78002111612A884F49002B3FF495AE62
:10315C000B8801273846E9E64C4B1B882F2B7FF652
:10316C0093AE4B4804FB02F3A0FB0303DB090133D2
:10317C009BB29CE602F002F9FEF742FF454B1A782F
:10318C00002A7FF46FAE444A444912780978002A29
:10319C004ED0434A12788A42BFF464AE01221A70B0
:1031AC00FFF7C8FD5EE63F4B83F800E03E4B002086
:1031BC00187062E6A3EB020CBC4598F817E0F2DD40
:1031CC001B1A38489AB2384B80F800E000202A804D
:1031DC00187052E6354A138027E698F82C20344BA9
:1031EC003448B3F90010344F02EB820202EB820236
:1031FC00D200FEF7F9FC1A49FDF762FFFEF798F9C9
:10320C002E4B1A883B881B1A1BB293423B80BCBFC7
:10321C0013B23B80A34200DD3C8098F81D30002B9C
:10322C007FF444AF104B1B78002B7FF463AF1EE68A
:10323C00234A12788A42BFF415AEAFE7DFF88480D8
:10324C0001702180F3E501F0B3F8C9E6F204002027
:10325C001203002020030020000000201006002094
:10326C0017B7D138000016431C0600201E0600209C
:10327C0070030020D80500201806002000E0FF4451
:10328C00D004002001030020F4050020DA04002003
:10329C00D34D6210CD040020E0020020CC040020AD
:1032AC000600002018030020F80200200C06002065
:1032BC00F60500204803002004030020F40200203F
:1032CC00050000202C0600202DE9F04FDFF8CC8201
:1032DC0085B002F093F902F0CDFA02F04BFBFEF749
:1032EC00B5FC98F80330022B00F08D84AC4BAD4A42
:1032FC0041F202005821A8F8030088F8051003F1E8
:10330C000B0013F8011F02F8011F9842F9D1FEF7C8
:10331C003BFE98F81130A44AA449013B18BF012385
:10332C001370A34A98F8143012880A800BB988F8E5
:10333C00133098F82630BBB19E4B4FF47A721A803A
:10334C009D4A01231370002288F816209B4AC8F866
:10335C001230138832331380994A13883233138016
:10336C00984A13883233138000F0A8FF964A002342
:10337C00138002F0A9F9954B4AF6AA221A6002F0C2
:10338C00A9F8934B1B7813B1924B01221A7002F0DF
:10339C002DF9DFF84492914CDFF844A28B4B4AF69E
:1033AC00AA221A60628823881344A2881344E288F4
:1033BC00134422891344628913445B100233C9F805
:1033CC00003098F81530002B40F01C82854B1B8880
:1033DC0042F21072934209D9834A1578002D40F0BD
:1033EC00BC8349F64042934200F2D6837F4E32882A
:1033FC0044F620639A4221D97D4B7E4FB3F900509D
:10340C002846FDF7CBFF7C49FDF75AFE3968FDF7DE
:10341C0011FF7A4A38601378022B00F04F83032B8C
:10342C0000F03E83012B07D1754B76491B7843F492
:10343C0000730B800223137000233380724D734B87
:10344C002A681B88B2F57A7F40F29481704900207B
:10345C000870C72B40F265826E4998F81300097802
:10346C00002840F0DC82002940F0DB82D9F80030E3
:10347C0069496A4F6A4A6B4E81FB0301A1EBE37108
:10348C003B7831600A2010705BB3DFF89CB1DBF83D
:10349C000000FEF751FB3368B0EB530F1DD9B3F5A9
:1034AC00FA6F1AD2614998F812000A7801320A7040
:1034BC0000222A60002840F002815D4A12882F2ADF
:1034CC0040F2FD805B4A002111703E4A5A48128836
:1034DC005A495208028001220A70CBF800300023AE
:1034EC003B70574B1B78002B00F0F080DAF8003063
:1034FC00322B40F2EB80534B534F1022002183F8B8
:10350C000B1383F8152383F80C233B78002B40F026
:10351C00EB804E4F3B780133DBB2C82B3B7000F293
:10352C00A281DFF82CB19BF800304A4A00271770B3
:10353C00002B40F0EE803F4FD9F800103B78464A04
:10354C00464892FBF1F213FB02F39BB2A0FB032063
:10355C004349194A0B801278424BC0081880002A44
:10356C0040F079824FF4FA63254A98F82B101078C2
:10357C00DFF8F4B08142ABF80030C0F05F822B680A
:10358C00632B00F24C81DAF80030B3F5FA7F40F28D
:10359C004681364B0C221A706AE000BF2C060020C4
:1035AC0030650008310600200A000020F0020020DF
:1035BC00EE020020E602002000030020F4020020AE
:1035CC00F2020020FC020020DC040020003000404D
:1035DC00EC0600201C060020D8050020E405002085
:1035EC0000000020C4040020DE040020000600209F
:1035FC00F6050020FC050020610B363BD4030020AF
:10360C00D4050020D2030020D0040020C4050020E3
:10361C00F30400200A06002056555555F0050020ED
:10362C00FB020020E0050020DC0500200B0600203A
:10363C00DA040020F2040020F4050020E30200204C
:10364C00C705002000E100E0C9050020CA050020E4
:10365C00E9040020E8040020C0270900CDCCCCCC24
:10366C00E4040020E6040020EC020020E10200202B
:10367C0098F82F30002B40F0E980B34B5A6A4AF689
:10368C00C8739A427FF68AAE3E78012E7FF486AEDE
:10369C00AE4A13780133137001F070FEAC4B1E7000
:1036AC00AC4B1B882F2B05D800233B7041F2883381
:1036BC00CAF8003000232B60FFF73CFB6EE6A64AED
:1036CC001268B2F57A7F7FF600AFFBE6A34BA44FEE
:1036DC000022102183F80B1383F8152383F80C2395
:1036EC003B78002B3FF415AF9E4B1868FDF746FF57
:1036FC009D4A9E491288009283B29D4A9D48128829
:10370C000988007802F00AFC02F0FAFB00233B70F7
:10371C00FFE6904B1B88302B4AD9974A1278002A27
:10372C0046D0313B572B00F2D981944D2B78002B8E
:10373C0040F04982FFF746FA98F81B30904D40F262
:10374C002A32B2FBF3F20092824A41F658311088C9
:10375C00B1FBF3F378223021FEF7CAF9288080B24E
:10376C00FEF7F0F9804A29884FF41673B3FBF1F396
:10377C00138013E6002B40F03B8174480370814B9F
:10378C001B78002B00F0478100230370D9F8003020
:10379C007D497E4F7E4E81FB0301A1EBE3713B78AB
:1037AC003160002B3FF49DAE0A2A7FF69AAE6CE690
:1037BC00724A98F81C3001251570002B00F03781E7
:1037CC00744B98F829101B88734EA3F1130202EB6B
:1037DC0041027249098892B202FB01F1B1FBF3F18B
:1037EC002B445B1A6E4933800A8002F03FF96D4B13
:1037FC003288DA63C3E90D226B4B1D705A4B0022E1
:10380C001A80CBE5634BDAF800001B880093C822C2
:10381C005B086021FEF76CF9604B1880D6E50C2331
:10382C00306800934FF4FA7203236421FEF760F9B9
:10383C00DAF800205D4B312A98BF0222187098BF2D
:10384C001A7098F82F30002B3FF417AF544B188890
:10385C00172300934FF4FA620D236421FEF748F905
:10386C00534B187009E701F0FBFB0121514800F0A4
:10387C00B9FF514B188801F08DFC504B1A88504BF6
:10388C0040F6E44B0BFB02F2A3FB0213D21A03EB40
:10389C0052034C4A1288DB0A02FB03F34A4AA2FB8E
:1038AC000331324A494B18801388C3EBC30303EB33
:1038BC005113DB1013802F4B1870FEF775FB444A25
:1038CC00DFF810C10BFB00F3A2FB03134249DFF836
:1038DC000CB1CCF8000043F30F232548097823EAF8
:1038EC00E37303809BF80030C1B1204A3C48118837
:1038FC003C4A0088127800FB02F2914280F2EA8086
:10390C0039480288013292B24FF67C41028044F66B
:10391C00206013FB01018A4200F3648100223A709B
:10392C0003E60A48174998F81360097800270770CE
:10393C00002E00F09D809F2B66D900297FF424AFC8
:10394C002A4B0A21197021E700100040F3040020D3
:10395C00E3020020DA0400200000002000E100E077
:10396C00C9050020FC050020E4040020040600200A
:10397C00F6050020D4050020DE04002023060020DC
:10398C000C0000200A06002056555555F005002065
:10399C00E0050020EE020020E2040020F0020020EE
:1039AC00C8040020002C0140C8050020E1020020C2
:1039BC002206002000240140D0050020CE05002066
:1039CC0001011000FE0200201F85EB51D2050020E2
:1039DC00FF04EC4FF805002021060020E90400202C
:1039EC00060300200306002008060020FB0200202E
:1039FC00642A3FF62EAD8B4998F8130009780028FD
:103A0C0047D09F2B0BD888480026067000297FF4DE
:103A1C00BBAE952B94D8854B64211970B6E6002962
:103A2C008ED0B3F5C87FBFF4B1AE7F48ACE6804A08
:103A3C00C2E90D33D36302F0B5F8DFE67D4B1B888A
:103A4C00012200925B0801F10A020A39FEF750F8D4
:103A5C00ABF8000093E5774B774A1B8800937749C6
:103A6C00774B12881B880988FEF742F883B27BE5F6
:103A7C000029CED0D9F80030724A734F734E82FBB6
:103A8C000321A1EBE3713B783160002B7FF4FDAC9B
:103A9C0027E50029BDD0B3F5C87FBFF477AEC4E7E6
:103AAC006B4B6C491B88A1FB0313C3F3C7036A4917
:103ABC0043F480630B8001231370BDE46549EBB2C2
:103ACC00A1FB03131B09644943F4C0630B8003235C
:103ADC001370B1E4614A002111801FE7604B012291
:103AEC001A70FFF76FF85F4B1B88C82B4ED85E4AD5
:103AFC005E4B10880393FEF725F8039BB3F900C0C7
:103B0C00BCF1000F7FF44AAC59485A4A5A4B5B49F6
:103B1C005B4F8BF800C042F2283EC0F800E0012059
:103B2C001070C7F800E0C6F800E00870C3F824E095
:103B3C00544B1A78544B83F800C0544B1A7098F8B5
:103B4C001D3014222A601BB1514B1A88514B1A801C
:103B5C00FEF77AFA01F0FEFE20E402F023F84E4A5A
:103B6C004E49334B00240C7014703E494C4A0C8067
:103B7C001480C3E90D44DC6301F0F4FE49484FF4B2
:103B8C008072214602F08EFCFEF71CF8374B364A49
:103B9C001F8050211180ACE702F004F83E4A244B00
:103BAC0015703E4A3E4915702E4A0D801580C3E9AA
:103BBC000D55DD6301F0D6FE4FF48072294639486D
:103BCC0002F070FCE0E7384AD36823F00103D360BD
:103BDC0001F0D4FB164BC3E90D77DF6302F086F9D5
:103BEC002F70A7E51F4A0023138001F0DBFF01F0C3
:103BFC00C5FB2B4A00231380284A13701F4A1370ED
:103C0C009BF800308AE698F80430102B7FF46EABEA
:103C1C00264B98F801201B789A42BFF47AABFFF739
:103C2C0065BB00BF0A060020F3040020FB02002045
:103C3C00002C0140E4020020E8020020EA020020EF
:103C4C00E602002056555555F0050020E0050020F1
:103C5C00040600201F85EB51D2030020080600202B
:103C6C0023060020DA0400200C000020EE040020C3
:103C7C00DC050020E302002000100040F2040020CC
:103C8C0000000020E2020020C805002004000020F3
:103C9C00F2020020F4050020D6040020DE040020EF
:103CAC00DC04002020070020004401401A030020FF
:103CBC002DE9F0476B4CD4E90020801A6FF4487260
:103CCC0040F2765382189A4282B042D8664D674EC3
:103CDC0000232B803378002B58D0654F3B7801465E
:103CEC0003BBDFF890A19AF80030002B00F09F8006
:103CFC00DFF88491B9F80000DFF880810133B8F85F
:103D0C0000108AF80030FDF717FF3228B8F80030A1
:103D1C006CD900223270A9F800303B78A3B1D4E9F9
:103D2C000031C91A564C40F2E1429142237809D82D
:103D3C0054480288C2EBC20201330A44DBB2D208F7
:103D4C00237002804B2B78D84F4A002310682B80AD
:103D5C0004E04D494D4B086800221A804C494D4AED
:103D6C000B881268A0EB030C944505DD13449BB241
:103D7C000B8002B0BDE8F0871C1AA242BABF9B1A96
:103D8C009BB283B20B8002B0BDE8F087424A947CB0
:103D9C008CB1424A1488A0421CD83A4A1188224657
:103DAC004FF47A740094FDF7A3FE0446364A0023C0
:103DBC0014602B80D2E7334B304A1988128840F2BA
:103DCC00FF7300932F23FDF793FE3028CCBF0446DE
:103DDC002046EBE7294A4FF4FA6312880093611CE2
:103DEC0040F2E933FDF784FE0446DFE7D4E9001224
:103DFC00C3EBC3039AF80000521A1A44C2F3CF0360
:103E0C003228A8F8003086D9193B9BB2A8F80030AC
:103E1C00A3F2D663204A03EBD3735B1082F82130F4
:103E2C0001233B7000F0FAFAB8F8003073E7DFF8C2
:103E3C00489080B2A9F800005EE7124A1388193343
:103E4C009BB21380A3F2EE23134A03EBD3735B10E4
:103E5C00002782F820303770FEF796F8277000F0B4
:103E6C000DFB71E720070020C4040020060700208A
:103E7C000407002005070020020700200C03002087
:103E8C00000700200E03002008070020DC0400209F
:103E9C00D8040020A80300202C0600200A030020D0
:103EAC001C4B1B885A1E022A30B415D81A4B1B689F
:103EBC003B2B0FD8194A1A491A4C1B480025157070
:103ECC001A4A0E250D7020211170194A01232370F6
:103EDC000370137030BC7047043B042BFAD80E4BA4
:103EEC001B68632BF6D80F4A0D480F4D0B4C0F492E
:103EFC004FF0030C82F800C00D4A4FF0070C012361
:103F0C0080F800C020202B7023700870137030BC18
:103F1C00704700BFA4030020F8060020AD0300206A
:103F2C00AC030020FC060020D5040020A2030020D6
:103F3C00D6040020F8B5294B294F1968002544F602
:103F4C00206E1A46A7F800E003F17804AC462E4622
:103F5C0052F8043F8B42A3EB0100194606D0704582
:103F6C003CBF1FFA80FE0126844401259442EFD108
:103F7C000DB14FEA5C150EB1A7F800E0194C1A4AC6
:103F8C0023781560012B25D0184D2B78012B16D0DA
:103F9C002278134312D1FFF783FF3B88C93B44F6C9
:103FAC0056529BB2934209D8012311481149124A27
:103FBC002B7077240470022008701370F8BD3A88B7
:103FCC00C93A44F6565192B28A42F7D80848094980
:103FDC00094AEEE7FFF764FFD6E700BF2007002091
:103FEC00A4030020D5040020F8060020D4040020EF
:103FFC00AD030020A2030020D6040020F8B5544CD9
:10400C00237813B1534B1B7833B9534B1B78002BCC
:10401C0051D0012B0AD0F8BD504B1B78002B37D058
:10402C0001F058FA4E4B02221A70F8BD494B1B781E
:10403C00002B33D14B4D2B78012B73D04A4B1B7873
:10404C00012B66D02378002BE5D12B78002B3CD0AC
:10405C004649474B0A78072A38D81888052835D995
:10406C00444C45480132D2B205680A70E16F2468AD
:10407C002944091B082A016028D1C1F3CF02C1F3DE
:10408C00CF1154183D48521A3D4904800A801DE056
:10409C0001F05CFA324B01221A70F8BD2F4B1B78E1
:1040AC007BB1384B1888FDF7B1FCFDF7E7FABDE89A
:1040BC00F84001F00FBAFFF73DFFBDE8F84001F002
:1040CC0009BABDE8F84001F041BA294B2E4C2088C2
:1040DC0030B92E4A127852BB1A8801321A80F8BDB8
:1040EC0040F2DC52002590421D8094D9284E318834
:1040FC00FDF722FD322821D8264D2B780133DBB277
:10410C00322B2B7002D9244B1F78D7B123883380E4
:10411C00F8BD01F065FA214B58B103221A7001F079
:10412C00D9F98FE7FDF7AAFA01F0D4F986E71880E0
:10413C00F8BD02221A70FFF7BBFDF0E7154B1D709E
:10414C00E4E700F0CBF9114B2F7001221A70DDE778
:10415C00DE040020C7050020D60400201C07002028
:10416C0024060020D5040020D4040020F4060020EE
:10417C00DC04002020070020F0060020A003002013
:10418C00EE060020D8050020C405002006070020FC
:10419C00FE0600200707002004070020A2030020D1
:1041AC000B28034B28BF0B2040001870704700BF32
:1041BC000C0700202DE9F84F354C364D364E0320B8
:1041CC0001F02EFD04F17C0800231DE094F83590DD
:1041DC00DFF8C8C0324FC3EBC310F7224FF47A6B31
:1041EC000EEB40000A2180B219FB02B2B9F1000FAC
:1041FC0028D1CCE90D99CCF83C90FDF7AFFC0234FA
:10420C00A0454FF000030ED094F834E000224AF69B
:10421C00AA21BEF1FF0F31602A80D7D102340133BD
:10422C00A045DBB2F0D101F0BDFC1E481B4A008852
:10423C00194900239362D0624AF6AA222B800A60A5
:10424C00BDE8F88FB7FBF2F21748184FB0FBF2F04D
:10425C0080B2CCF82810CCF82C003978144FB7FB6E
:10426C00F2F200FB01F1FE2013FB00E0114B02FB0C
:10427C0000F0114AA3FB01131B0BA2FB0020CCE99D
:10428C000D33CCF83C30C0F34F10FDF767FCB6E7AC
:10429C002C060020C404002000300040002C0140FB
:1042AC00C0D8A700EE020020001BB7000C070020AE
:1042BC00A08601005917B7D11F85EB5110B572B606
:1042CC001A4B1B6893F83030FF2B07D0FFF772FFA7
:1042DC00174A184B1288DA6262B610BD154C164B91
:1042EC0041F28832E2621B78E363C4E90D330320A8
:1042FC0001F096FC3723A362C820FDF72FFC0520A4
:10430C0001F08EFC2823A362C820FDF727FC0620B1
:10431C0001F086FC1923A362C820FDF71FFC01F0F5
:10432C0041FC064A0023A3621380D1E71C03002042
:10433C00EE020020002C01400C070020C4040020D9
:10434C0070B5164C41F28833E36272B6144D154BBE
:10435C003C224AF6AA262E60A2621B78E363C4E9CB
:10436C000D33012001F05CFC4B20FDF7F7FB5023D3
:10437C00A3624B20FDF7F2FB5A23A3624B202E6065
:10438C00FDF7ECFB01F00EFC074A084912880023EC
:10439C00A3620B80E26262B670BD00BF002C0140CC
:1043AC00003000400C070020EE020020C404002066
:1043BC0010B572B6144C154A154B4AF6AA2141F2A7
:1043CC008830E06211605022A2621B78E363C4E97A
:1043DC000D33032001F024FC6420FDF7BFFB4623C2
:1043EC00A3626420FDF7BAFB2823A3626420FDF7C7
:1043FC00B5FB01F0D7FB074A074912880023A362DB
:10440C000B80E26262B610BD002C0140003000400F
:10441C000C070020EE020020C404002010B5124C42
:10442C00124B41F288313222E162A2621B78E363C3
:10443C00C4E90D33022001F0F3FB9620FDF78EFB4F
:10444C000B4A4AF6AA211E2311609620A362FDF79F
:10445C0085FB01F0A7FB074A074912880023A362DA
:10446C000B80E26210BD00BF002C01400C07002045
:10447C0000300040EE020020C404002010B5124CA5
:10448C00124B41F288312822E162A2621B78E3636D
:10449C00C4E90D33022001F0C3FB9620FDF75EFB4F
:1044AC000B4A4AF6AA21502311609620A362FDF70D
:1044BC0055FB01F077FB074A074912880023A362DA
:1044CC000B80E26210BD00BF002C01400C070020E5
:1044DC0000300040EE020020C40400202DE9F04121
:1044EC00154E41F28833F36272B6144B144D1B789F
:1044FC00DFF85080F363C6E90D3377244AF6AA2718
:10450C00A8FB043000092F6001F08AFB0A2063101D
:10451C000344B362023CFDF721FB631CF0D101F0B4
:10452C0041FB094A094912880023B3620B80F262ED
:10453C0062B6BDE8F08100BF002C01400C070020E2
:10454C0000300040CDCCCCCCEE020020C4040020C6
:10455C00002103E00B4B5B58435004310A480B4BD2
:10456C0042189A42F6D30A4A02E0002342F8043B6E
:10457C00084B9A42F9D301F087FD01F09BFFFEF73F
:10458C00A3FE70478065000800000020B4030020E3
:10459C00B40300202C080020FEE70000836861F3C0
:1045AC0000038360704700BF4FF080730360704757
:1045BC0043680A7862F30823436083684A7862F39D
:1045CC004103836083688A7862F3CB238360CB7862
:1045DC00C26A013B63F31752C2627047836861F38E
:1045EC0008238360704700BF836843F0080383602F
:1045FC00704700BF8068C0F3C0007047836843F009
:10460C0004038360704700BF8068C0F3800070476C
:10461C0010B4112917D8DFE811F0120079007E00D0
:10462C00830088008D00920097009C00A100A600DA
:10463C00AB00B000B500BA00BF00C4007400046940
:10464C0063F302040461013A0F2A0DD8DFE802F08B
:10465C0013181D22272C31363B40454A4F54080E67
:10466C00C36A61F38E23C36210BC7047C36A61F3E3
:10467C00D333C362F8E7436B61F304034363F3E79B
:10468C00436B61F349134363EEE7436B61F38E2392
:10469C004363E9E7436B61F3D3334363E4E7436B71
:1046AC0061F318534363DFE7436B61F35D6343636B
:1046BC00DAE7036B61F304030363D5E7036B61F380
:1046CC0049130363D0E7036B61F38E230363CBE7DA
:1046DC00036B61F3D3330363C6E7036B61F31853C6
:1046EC000363C1E7036B61F35D630363BCE7C36AF8
:1046FC0061F30403C362B7E7C36A61F34913C3628E
:10470C00B2E7C46863F35754C4609CE7046963F36D
:10471C00C504046197E7046963F38814046192E7A4
:10472C00046963F34B2404618DE7046963F30E346D
:10473C00046188E7046963F3D134046183E7046995
:10474C0063F3944404617EE7046963F35754046192
:10475C0079E7046963F31A64046174E7046963F329
:10476C00DD6404616FE7C46863F30204C4606AE744
:10477C00C46863F3C504C46065E7C46863F3881454
:10478C00C46060E7C46863F34B24C4605BE7C4682F
:10479C0063F30E34C46056E7C46863F3D134C46069
:1047AC0051E7C46863F39444C4604CE701F0070319
:1047BC00072981688CBF41F0007121F00071816084
:1047CC00816863F353418160836862F3145383609F
:1047DC00704700BF024B9A6860F3D7529A607047DB
:1047EC0000240140836861F396538360704700BFD7
:1047FC0020B9034BDA6961F30002DA61704700BF3C
:10480C000000014010B412490B6843F001030B6027
:10481C000B689B07FCD54B680D4A23F003034B60D8
:10482C00536813F00C0FC3F38101F9D1136823F013
:10483C00867323F48033136041F610744FF48010A8
:10484C004FF41F035160D462106310BC9360704727
:10485C0000100240030C03F1804303F5043300F015
:10486C001F001A680123834093430CBF01200020D2
:10487C00704700BF030C03F1804303F50433012997
:10488C0000F01F0019684FF0010202FA00F20CBF91
:10489C000A4321EA02021A60704700BF030C03F1BD
:1048AC00804303F50433012900F01F0019684FF011
:1048BC00010202FA00F20CBF0A4321EA02021A605A
:1048CC00704700BF042809D8DFE800F0090F151B5A
:1048DC0003000F4B5A6A61F300025A6270470C4B8B
:1048EC001A6861F300021A607047094B1A6861F389
:1048FC0010421A607047064B1A6861F318621A600E
:10490C007047034B1A6A61F300021A62704700BFCA
:10491C0000100240024B5A6860F307125A6070474D
:10492C0000100240024B5A6860F30A225A6070472A
:10493C0000100240024B5A6860F3CD225A60704757
:10494C0000100240054B5A6860F38F325A605A6867
:10495C00C0F3800060F31C725A6070470010024074
:10496C00134B5A68A0B960F310425A604FF0000C18
:10497C000F4B5A6861F395425A605A68C1F30110A3
:10498C0060F35E725A60DA6A6CF31A62DA6270472C
:10499C0042F480325A6001285A6803D042F4003243
:1049AC005A60E3E722F400324FF0020C5A60DFE762
:1049BC0000100240024B5A6860F301025A607047C3
:1049CC0000100240024B5868C0F38100704700BFD2
:1049DC000010024038B53A494B6813F00C0F0446EE
:1049EC00C3F3810243D0022A26D0364B344A2360CB
:1049FC0051683548C1F30311415C3448CB406360C6
:104A0C005168C1F30221415C314823FA01F1E160A4
:104A1C005168C1F3C221415CCB40A360516852681C
:104A2C00C1F30071C2F3813242EA810229498A5CE6
:104A3C00B3FBF2F3236138BD4D68CB6A002BC5F391
:104A4C0000451CDB4B684A6812F0C04FC3F383432C
:104A5C00C2F341712AD10F2B28D002331DB1184A51
:104A6C005268900328D51C4A02FB03F3BEE74B6D3A
:104A7C009B05BAD50B6B9D01B7D5184BB6E7CA6A27
:104A8C00CB6AC2F3031CCA6AC3F3082302F0070201
:104A9C0015B1496889030DD50F48A3FB00010CFA29
:104AAC0002F20023FCF78AFD03469FE7013303EB78
:104ABC000113D3E70348F0E7024A02FB03F395E73F
:104ACC000010024000127A0050650008486500088A
:104ADC00486500084065000800093D00006CDC02D8
:104AEC00044A536D01280CBF43F0300323F030030C
:104AFC0053657047001002400168002221F001014B
:104B0C00C3B210B4083B0160026042608260C260B4
:104B1C00A2F13332064CA2FB03231B0961689B00F4
:104B2C000F2202FA03F30B43636010BC704700BF03
:104B3C0000000240036861F300030360704700BF8C
:104B4C00034B1B681840003818BF0120704700BF8A
:104B5C00000002400023C0E90033C0E902330382A5
:104B6C00704700BF03684BF6EF72134010B403603C
:104B7C0002680B891343036003684A7C62F30D33AC
:104B8C0003600368CA7B62F38B23036003688A7B30
:104B9C0062F30923036003684A7B62F3C713036063
:104BAC0003680A7B62F3861303600A7C036862F372
:104BBC0045130360D1E900234C8944608260C360D3
:104BCC0010BC7047014BD860704700BF00200240FA
:104BDC00024B0349034A59605A6070470020024057
:104BEC0023016745AB89EFCD024A136943F080037B
:104BFC0013617047002002401B4A136943F0020303
:104C0C0013615061136943F040031361D368D907F2
:104C1C0009D4D3685B0720D50120134A136923F00C
:104C2C000203136170474FF08043D168C80703F14A
:104C3C00FF330CD4D16849070DD4D068C0F30010F1
:104C4C00C0F10300C0B2002B08BF0420E5E7002B25
:104C5C00EBD10420E1E70120F5E7D068C0F30010A8
:104C6C00C0F10300C0B2D8E700200240194A136912
:104C7C0043F0010313610160D368D90709D4D368E9
:104C8C005B0720D50120134A136923F0010313613C
:104C9C0070474FF48013D168C80703F1FF330CD46D
:104CAC00D16849070DD4D068C0F30010C0F10300DF
:104CBC00C0B2002B08BF0420E5E7002BEBD1042089
:104CCC00E1E70120F5E7D068C0F30010C0F1030064
:104CDC00C0B2D8E7002002400A88002A3FD02DE954
:104CEC00F041002303254FF0010E4FEA430CD4078B
:104CFC0005FA0CF60EFA03F72ED5046824EA06041E
:104D0C0004608C79D0F8008004FA0CF444EA0804AE
:104D1C000460446824EA070444600C7947689C40AA
:104D2C003C434460846824EA06048460CC79876838
:104D3C0004FA0CF43C438460C46824EA0604C4609E
:104D4C004C79C66804FA0CF43443520803F101039D
:104D5C00C460CAD1BDE8F08152080133C5E7704781
:104D6C0001F0070C4FEA8C0C0F2303FA0CF3C90863
:104D7C0002FA0CF26FEA030306D0416A0B4043625D
:104D8C00436A134343627047016A0B400362036A30
:104D9C0013430362704700BF1F4BDB68C3F302234E
:104DAC00C3F1070CBCF1040F28BF4FF0040C00B585
:104DBC00E64603F1040CBCF1060F22D9A3F1030C57
:104DCC004FF0FF3303FA0CF322EA03024FF0FF33E8
:104DDC0003FA0EF321EA030303FA0CF313431B014A
:104DEC000028DBB210DB0D4A111881F800330123C7
:104DFC00410900F01F0003FA00F042F821005DF8B1
:104E0C0004FB00229446E1E7054A00F00F0002443F
:104E1C0013765DF804FB00BF00ED00E000E100E05C
:104E2C00FCEC00E008B52E4B98421CD02D4B984260
:104E3C0023D02D4B98422AD02C4B984209D02C4B86
:104E4C0098422ED02B4B984235D02B4B98423CD0CD
:104E5C0008BD2A480121FFF721FDBDE8084027487D
:104E6C000021FFF71BBD26480121FFF717FDBDE808
:104E7C00084023480021FFF711BD22480121FFF70C
:104E8C000DFDBDE808401F480021FFF707BD1E4877
:104E9C000121FFF703FDBDE808401B480021FFF787
:104EAC00FDBC1A480121FFF7F9FCBDE80840174882
:104EBC000021FFF7F3BC16480121FFF7EFFCBDE81A
:104ECC00084013480021FFF7E9BC12480121FFF705
:104EDC00E5FCBDE808400F480021FFF7DFBC00BF30
:104EEC00002C014000040040001000400020004055
:104EFC0000400140004401400048014008001000FF
:104F0C000B000C00010010000400100010000C003D
:104F1C0011000C0012000C00036861F3C71303604E
:104F2C00704700BF062909D8DFE801F013080E0806
:104F3C0009080400C36962F3CB23C3617047C369DA
:104F4C0062F3C303C3617047836962F3CB2383614C
:104F5C007047836962F3C30383617047062909D8DC
:104F6C00DFE801F0090E13181D220400036A62F336
:104F7C000C3303627047036A62F3000303627047E9
:104F8C00036A62F3820303627047036A62F30413D9
:104F9C0003627047036A62F3861303627047036A05
:104FAC0062F3082303627047036A62F38A23036285
:104FBC00704700BFF0B587B0044601A816461D46E1
:104FCC000F46FFF707FD039BDDF810C0134A944210
:104FDC0008BF9C46124B0CEB8C0C4FEA4C0CBCFBE8
:104FEC00F7F1A3FB013C4FEADC0C0CEB8C03A1EBBF
:104FFC0043010429A36888BF0CF1010C1FFA8CFC37
:10500C006CF30F03A360E36866F30C33E36023696E
:10501C0065F30D33236107B0F0BD00BF00380140CC
:10502C00CDCCCCCCC36861F34D33C360704700BFAB
:10503C00C36861F3C303C360704700BFC36861F307
:10504C008203C360704700BF436961F3C7134361B8
:10505C00704700BF436961F3C3034361704700BFEE
:10506C00064B0748B3F804C00649074AA0F800C02D
:10507C0018885B8808801380704700BF10070020D9
:10508C00D0050020CE050020CC05002010B5402313
:10509C0086B0002203214FF09040FCF771FD0823ED
:1050AC00002203214FF09040FCF76AFD01214FF4E0
:1050BC00A010FFF7DFFB3048304CFFF71DFD01A8B7
:1050CC00FFF748FD2E482F4A0492CDE901044FF416
:1050DC00403300F55B4001A90393BC3040F201233F
:1050EC00ADF81430FFF73EFD23480121FFF722FDF8
:1050FC0001212548FFF7BEFB0720FFF723FC68467C
:10510C00FFF752FA214B224800936946FFF750FAF9
:10511C00032319461E480122FFF77AFA1C48032381
:10512C0002220621FFF774FA03231A4610211848AD
:10513C00FFF76EFA0120FFF74DFB012214480721FF
:10514C00FFF734FB12480121FFF748FA1048012100
:10515C00FFF724FA0E48FFF747FA0D48FFF74AFA13
:10516C000028FAD10A48FFF749FA0948FFF74CFA28
:10517C000028FAD106B010BD08000240100700202C
:10518C004C24014000010101090018000101000339
:10519C000024014048F2E80300FB03F3002BB8BFE6
:1051AC0003F6FF73064A43F23810A0EB233082FB60
:1051BC000023C017A0EBE3000F3000B2704700BF14
:1051CC00310CC330FEE700BFFEE700BFFEE700BFB7
:1051DC00FEE700BF704700BF704700BF704700BFBD
:1051EC00704700BF10B50220FFF7AAFC012800D0C1
:1051FC0010BD054C6060FFF733FF0820FFF7A0FCE3
:10520C00012808BF606010BD0000024008B52020D6
:10521C00FFF796FC012806D10A4B10225A60DA6976
:10522C0022F00102DA618020FFF78AFC012800D00D
:10523C0008BD044B10225A60DA6922F00102DA61CF
:10524C0008BD00BF0000024010B5194B1C788CB98A
:10525C004FF40030FFF774FC01281AD04FF40020F3
:10526C00FFF76EFC012800D010BD124B4FF48032BA
:10527C005A6010BD0F4B4FF480325A609A6D22F079
:10528C0001029A65FEF7BAFE0B4B4FF400421A610D
:10529C0010BD084B4FF480325A609A6D64F30002D3
:1052AC009A65FEF7ABFE044B4FF400421A61D5E74A
:1052BC00D50400200000024000040140084B5A694C
:1052CC00920209D50749084A4FF4001058614B6AFD
:1052DC001268B3EB520F00D87047FCF75BBF00BFEE
:1052EC00000401400010004000000020024B4FF66B
:1052FC00FE721A61FDF77CBD00200040024B0022BB
:10530C001A61FCF7FBBE00BF00440140034B4FF693
:10531C00FE714FF6FD7219611A6170470040014031
:10532C00704700BF074B1A69910744BF4FF6FD72D7
:10533C001A61044B1A69D20744BF4FF6FE721A6108
:10534C00704700BF00040040064A07491368013348
:10535C0013604B691B0400D470474FF400434B613E
:10536C00FDF712BC1807002000040140024BD8695D
:10537C00C0F38070704700BF00000140044B1A68F6
:10538C004FF4001122F400121A605961704700BFEB
:10539C0000040140024A136843F400131360704781
:1053AC0000040140054B06491A78B2FA82F35B09F6
:1053BC005B0552058B60CA60704700BFE00200209D
:1053CC00000401402DE9F0430029B4BFCE1C0E4669
:1053DC0026F00303073383B023F00703B61000AFA6
:1053EC00ADEB030D884681461446002132466846D3
:1053FC0001F058F8B8F1030F6D4618DD4846ADF1D1
:10540C0004010022837890F8038090F800E090F873
:10541C0001C01B0443EA086343EA0E03013243EA6A
:10542C000C23964241F8043F00F10400EADC3E6094
:10543C00FFF7CEFBC4F30903CBB100230CE0786873
:10544C007B6804EB800055F82310FFF70FFC03205A
:10545C00FFF7B8FB7B6801337B607A683B689A4244
:10546C00EDD3FFF7C1FB0C37BD46BDE8F0832046FA
:10547C00FFF7C2FBE1E700BF002A29DD531E052B15
:10548C0030B501F101041AD9031B022B17D922F0F4
:10549C00030E01EB0E050B46441AD3F800C044F87A
:1054AC0003C00433AB42F8D17245734606D0704446
:1054BC005C5C00F8014B01339A42F9DC30BD431EB1
:1054CC001A44241AE15C03F8011F9342FAD130BD4F
:1054DC00704700BF38B5164D164CAB6DAB6520460A
:1054EC00FFF7A0FC144B41210B22A16122621A7818
:1054FC00A2624FF6FF73E3626369104943F0010344
:10550C00636100220E4B0A7062620E492B660E4BD1
:10551C0069661B78EB65E36843F40073E36023680A
:10552C0043F0010340F68B122360AA6538BD00BF1F
:10553C000000024000400140AD0300201C07002089
:10554C003440014020070020A203002038B51D4D37
:10555C001D4CAB6D43F01003AB652046FFF762FCAE
:10556C0060210323194AA16123621278184BA262AD
:10557C004C210122E1621A7063691649164A43F004
:10558C0001036361154B29666A661B781733EB655B
:10559C00AB6D43F00203AB65AB6D43F00803AB6539
:1055AC00AB6D43F00103AB65E36843F40073E36058
:1055BC00636C43F400436364236843F0010323608A
:1055CC0038BD00BF0000024000400140FC06002036
:1055DC001C07002034400140DC030020AC030020F9
:1055EC004FF09043186900F0040070470423012227
:1055FC0002214FF09040FCF7CFBA00BF62B6704763
:10560C001C4B40F2531210B51A60FFF7FBF8012146
:10561C000020FFF757F90120FFF71CF90128044679
:10562C00F9D11D210020FFF79BF921460220FFF73D
:10563C0049F91920FFF70EF901280446F9D1002089
:10564C00FFF768F90020FFF775F90020FFF76AF9FA
:10565C002046FFF745FA0220FFF7ACF9FFF7B2F945
:10566C000228FBD10020FFF73BFABDE8104000F008
:10567C003BBD00BF0020024008B511480121FFF7D7
:10568C00F9F801214FF4C010FFF7F4F802230022BF
:10569C0003214FF09040FCF773FA202300220321E2
:1056AC004FF09040FCF76CFA064B002083F80C038B
:1056BC004FF480521A600121BDE80840FFF798B8FA
:1056CC001100140000E100E0084B10B44CF6CC4281
:1056DC0045F255541C6003201A604FF47A614AF667
:1056EC00AA22586010BC99601A60704700300040C4
:1056FC0038B53F483F4C0121FFF7BCF80025682323
:10570C0040F6B83146F66802E1622046A5622946A9
:10571C00A261E3610122FFF705FC20460122022170
:10572C00FFF700FC012220460421FFF7FBFB20467B
:10573C000121FFF7F1FB636C2F48502262F3070342
:10574C0063640121FFF796F82C480121FFF792F8CA
:10575C0002232A4619462A48FCF712FA2A462848F8
:10576C0001230221FCF70CFA80232A4602214FF078
:10577C009040FCF705FA224802220121FFF7F0FACB
:10578C0029461F480222FFF7EBFA022207214FF0AD
:10579C009040FFF7E5FA2A464FF4806302214FF060
:1057AC009040FCF7EDF92A464FF4007302214FF0BC
:1057BC009040FCF7E5F94FF480732A4602214FF034
:1057CC009040FCF7DDF902220A214FF09040FFF7E0
:1057DC00C7FA022209214FF09040FFF7C1FABDE849
:1057EC003840022208214FF09040FFF7B9BA00BFB1
:1057FC000B001800002C01401100140012001400C2
:10580C000004004808B516480121FFF733F8154885
:10581C000121FFF72FF80423002202214FF09040C2
:10582C00FCF7AEF901214FF4A010FFF723F80E4955
:10583C000E4B40F68A101022886583F80B234FF428
:10584C00006119600A4B4FF6FF71D9629A621A68AF
:10585C0042F080021A601A6842F001021A6008BD18
:10586C0011001400100018000000024000E100E0DC
:10587C0000400140F8B5FFF7C3FE244C01214FF462
:10588C00A010FEF7F7FF102384F80B334FF40063DE
:10589C002360FFF72DFF1E480121FEF7EBFF1D4B88
:1058AC001D484FF6FF773B25DF6201219D62FEF715
:1058BC00E1FF1A4B32227726DA629E62302384F89B
:1058CC0013334FF400232360FFF7D6FE1448012155
:1058DC00FEF7D0FF134B1448DF629E621A6842F049
:1058EC0080021A600121FEF7C5FF104B4FF4FA71CC
:1058FC000022D9629D6284F815234FF400132360B3
:10590C00FFF780FFBDE8F84000F048BB00E100E085
:10591C0004001C000010004008001C000020004087
:10592C00120018000048014011001800004401400A
:10593C00014B5863704700BF002C0140014B98632A
:10594C00704700BF002C0140014BD863704700BF6B
:10595C00002C0140024A536943F001035361704724
:10596C00002C0140024B0022DA625A62704700BFE1
:10597C000040014038B5374C374D204601220021FC
:10598C00FFF7ECFA204601220221FFF7E7FA204646
:10599C0001220421FFF7E2FA012211462046FFF70B
:1059AC00DDFA204601220321FFF7D8FA2046012216
:1059BC000521FFF7D3FA2368284A294943F001034C
:1059CC002360636C43F400436364636943F0010335
:1059DC0063611068234B40F001001060506940F087
:1059EC0001005061D06820F00100D0602A6842F0BC
:1059FC0001022A600A6842F001020A604A6942F018
:105A0C0001024A611A6842F001021A605A6942F0B6
:105A1C0001025A61DA6842F00102DA6004F5A0541E
:105A2C00FFF734FB012200212046FFF797FA236889
:105A3C000D4A202143F00103236082F807138023D1
:105A4C00136002F1C04202F50C52136843F4004398
:105A5C00136038BD002C0140004801400044014057
:105A6C00001000400020004000E100E010B54FF4B1
:105A7C0080634FF09044002201214FF09040FCF7DE
:105A8C007FF84FF48063A36220464FF4007300222A
:105A9C000121FCF775F84FF40072A26220464FF416
:105AAC00807300220121FCF76BF802234FF4807203
:105ABC00A262194608480022FCF762F80648012346
:105ACC0000220221FCF75CF820468023BDE8104040
:105ADC0000220221FCF754B8000400480E4B1A7D3A
:105AEC0010B58AB9012319460C48FCF749F80B4A42
:105AFC0001239362BDE810404FF400730022022191
:105B0C004FF09040FCF73CB80448012300220221DE
:105B1C00FCF736F8EEE700BF2C0600200004004826
:105B2C000F4B1A7D10B5802392B901214FF0904094
:105B3C00FCF726F84FF0904380229A62BDE81040A3
:105B4C004FF48073002202214FF09040FCF718B8FC
:105B5C00002202214FF09040FCF712F8EEE700BF54
:105B6C002C0600200D4B1A7D10B5022382B90C486F
:105B7C000121FCF705F80A4A02239362BDE81040A4
:105B8C004FF48063002202214FF09040FBF7F8BFE6
:105B9C00034800221946FBF7F3FFEFE72C06002021
:105BAC000004004870B51D481C4E02230022012140
:105BBC00FBF7E6FF02224FF090454FF48063B26290
:105BCC00012100224FF09040FBF7DAFF01234FF444
:105BDC00806201241946AA6230460022FBF7D0FFEE
:105BEC004FF40073002221462846B462FBF7C8FF2D
:105BFC004FF400728023AA62214600222846FBF74C
:105C0C00BFFF80224FF48073AA62214600222846EF
:105C1C00FBF7B6FF4FF48073AB6270BD0004004815
:105C2C00013870B5052834D8DFE810F062008F0019
:105C3C00BC00EA000600340088480223002201213F
:105C4C00FBF79EFF854902224FF090448A624FF485
:105C5C008063002201214FF09040FBF791FF4FF43D
:105C6C008063A3620022802301212046FBF788FF7A
:105C7C0080224FF48073A261012100222046FBF7A1
:105C8C007FFF4FF48073A362FFF728FF744B754AB4
:105C9C00DA6170BD0123194670480022FBF770FFD2
:105CAC006E4A01244FF090454FF4007394622146E4
:105CBC0000224FF09040FBF763FF4FF40073AB6290
:105CCC000022802321462846FBF75AFF80224FF4FE
:105CDC008073AA61214600222846FBF751FF4FF43E
:105CEC008073AB62FFF73EFF5D4B5F4ADA6170BDBC
:105CFC004FF090448023002201214FF09040FBF79D
:105D0C003FFF8023A36200224FF4807301212046C1
:105D1C00FBF736FF01234FF4807219464F48A262FD
:105D2C000022FBF72DFF4D4A012191614FF40073C6
:105D3C0000222046FBF724FF4FF40073A362FFF709
:105D4C0011FF474B494ADA6170BD444C434802236A
:105D5C0000220121FBF714FF02224FF090454FF473
:105D6C008063A262012100224FF09040FBF708FFF4
:105D7C0001234FF480621946AA6220460022FBF7E9
:105D8C00FFFE012100224FF40073A1612846FBF7AE
:105D9C00F7FE4FF40073AB62FFF7C2FE304B314A93
:105DAC00DA6170BD2D4D2D480123012419460022C6
:105DBC00FBF7E6FE4FF090464FF4007300222146AD
:105DCC004FF09040AC62FBF7DBFE4FF40073B36214
:105DDC000022022321462846FBF7D2FE02224FF472
:105DEC008063AA61214600223046FBF7C9FE4FF4BE
:105DFC008063B362FFF794FE194B1B4ADA6170BDE6
:105E0C004FF090448023002201214FF09040FBF78B
:105E1C00B7FE8023A36200224FF480730121204639
:105E2C00FBF7AEFE4FF480730C48A36200220223F2
:105E3C000121FBF7A5FE094902228A614FF4806318
:105E4C00002201212046FBF79BFE4FF48063A362E6
:105E5C00FFF744FE024B054ADA6170BD00040048AE
:105E6C0000000140D1000040C1000040E1000040B2
:105E7C0070B51D481C4E022300220121FBF780FE49
:105E8C0002224FF090454FF48063B2610121002251
:105E9C004FF09040FBF774FE01234FF48062012415
:105EAC001946AA6230460022FBF76AFE4FF40073D3
:105EBC00002221462846B461FBF762FE4FF40072C3
:105ECC008023AA62214600222846FBF759FE802235
:105EDC004FF48073AA61214600222846FBF750FE3E
:105EEC004FF48073AB6270BD0004004808B5FFF737
:105EFC0039FEFFF7F3FDBDE80840FFF711BE00BF08
:105F0C00044A054B12781A62DA6942F00102DA612E
:105F1C00704700BFAE0300200000024010B51C46C5
:105F2C00002360F307034FEA112E00206EF30F23BA
:105F3C0062F3070061F31743120ABDF808C062F35D
:105F4C001F63220A62F30F2064F317404FEA1C22EE
:105F5C00114C62F31F60C4E9003084F808C00022C1
:105F6C00601E04F1080C10F8011F08234A4051B2BE
:105F7C000029B8BF49004FEA4202B8BF81F00701BF
:105F8C0003F1FF33ACBFD2B2CAB213F0FF03EED1B0
:105F9C008445E8D1627210BD2008002010B530484D
:105FAC0088B00121FEF766FC2E480121FEF762FC49
:105FBC0001214FF4A010FEF75DFC2B4B2B48402227
:105FCC0001A9CDE90123FEF787FE0022062127480F
:105FDC00FEF7C6FE2648FEF78FFD03A8FEF7BAFDB6
:105FEC00244A254B1478ADF8164010210024234A7E
:105FFC00ADF81410049303A94FF480731C4803925A
:10600C000693ADF81C40FEF7ADFD1D4A1D48D16945
:10601C0041F00201D161D16941F008012346D161FF
:10602C0022464FF4E131FEF7C5FF16480121FEF779
:10603C00FFFF14480121FFF701F812480121FFF777
:10604C0009F810480121FEF7FFFF0E480121FEF769
:10605C00E9FF224603210A20FEF79EFE08B010BD80
:10606C000E00180012001400000102010004004888
:10607C001C000240AE030020200800200438014020
:10608C00000002400038014030B414490B6843F062
:10609C0001030B600B689B07FCD54B680F4A23F080
:1060AC0003034B60536813F00C0FC3F38101F9D158
:1060BC0013680B480B4C23F0867323F48033136066
:1060CC0041F610754FF480135160D56213634FF491
:1060DC001F039360846030BC704700BF0010024007
:1060EC0000ED00E00010000810B5FEF76BFC40B3AB
:1060FC0002280AD02748284B28495B68284AC3F352
:10610C000313CB5CD840106010BD234B5968DA6A7E
:10611C00002AC1F300411DDB58685B6813F0C04FC7
:10612C00C0F38340C3F341722AD10F2828D0023028
:10613C0019B1194B5B689A0328D51A4B03FB00F075
:10614C00D9E7154B5A6D9005D4D51B6B9901D1D558
:10615C001548D0E7DC6AD86ADA6AC4F30314C0F3D2
:10616C00082002F0070211B15B689B030CD50D49A6
:10617C0004FA02F20023A0FB0101FBF71FFABAE7B5
:10618C00013000EB0210D3E70249F1E7014B03FBAE
:10619C0000F0B0E700127A000010024060650008C1
:1061AC00B003002000093D00006CDC022DE9F04733
:1061BC00089D0F4604468C46002B48D18A42164651
:1061CC0061D9B2FA82F34BB1C3F1200201FA03FC9C
:1061DC0020FA02F29E4042EA0C0C9C404FEA164E0A
:1061EC00B7B2BCFBFEF1220C0EFB11CC42EA0C4206
:1061FC0001FB07F0904209D9B21801F1FF3C80F085
:10620C00EE80904240F2EB8002393244121AA4B272
:10621C00B2FBFEF00EFB102244EA024400FB07F72F
:10622C00A74209D9341900F1FF3280F0DA80A74275
:10623C0040F2D7803444023840EA0140E41B00218C
:10624C001DB1DC400023C5E90043BDE8F0878B425B
:10625C0006D90DB1C5E9000100210846BDE8F0875B
:10626C00B3FA83F1002948D1BB4202D3824200F237
:10627C000781841A67EB030201209446002DE4D0B9
:10628C00C5E9004CE1E7002A00F09280B2FA82F3F3
:10629C00002B40F0A8808A1A4FEA164E1FFA86FC93
:1062AC000121200CB2FBFEF70EFB172240EA024242
:1062BC000CFB07F0904207D9B21807F1FF3802D255
:1062CC00904200F2E2804746121AA4B2B2FBFEF0F2
:1062DC000EFB102244EA02440CFB00FCA44507D937
:1062EC00341900F1FF3202D2A44500F2CB801046E3
:1062FC00A4EB0C0440EA0740A2E7C1F120068B4056
:10630C0022FA06FC4CEA030C07FA01F420FA06F315
:10631C00F7404FEA1C49234300FA01F81FFA8CFEA0
:10632C00B7FBF9F01C0C09FB107744EA074400FB9F
:10633C000EF7A74202FA01F20AD91CEB040400F191
:10634C00FF3A80F09B80A74240F298800238644468
:10635C00E41B9FB2B4FBF9F309FB134447EA044472
:10636C0003FB0EFEA64509D91CEB040403F1FF3711
:10637C0080F08280A6457FD9023B644443EA00400A
:10638C00A4EB0E04A0FB02E7BC427346B94663D3F0
:10639C0060D05DB1B8EB030264EB090404FA06F6B5
:1063AC0022FA01F31E43CC40C5E9006400214CE7FE
:1063BC006208480842EAC1710B0C43EA00438AB2F6
:1063CC0042EA0342B3FBF6F1E407B4463746B6465D
:1063DC001F23B0FBF6F0D21B41EA004161E7614696
:1063EC0014E7104628E7C3F1200120FA01F29E4081
:1063FC0027FA01F19F403A434FEA164E1FFA86FCEA
:10640C00B1FBFEF70EFB1710110C41EA004107FB24
:10641C000CF8884504FA03F43AD9711807F1FF30E7
:10642C0001D288451FD8A1EB0801B1FBFEF808FB8F
:10643C000CF70EFB181192B242EA0142BA422FD26B
:10644C00B21808F1FF31C6D2BA42C4D2A8F1020187
:10645C003244C0E7F0459CD2BEEB020367EB0C075D
:10646C000138B94695E7A6EB08084144B81EB1FBC4
:10647C00FEF808FB0CF7DCE73B467FE7504667E786
:10648C000846FBE63444023832E7023F32441BE74D
:10649C00A1EB08013846B1FBFEF808FB0CF7C8E786
:1064AC00414698E702440346934200D1704703F8F3
:1064BC00011BF9E770B50D4B0D4D5B1B9C100026B5
:1064CC00A64209D100F01AF80A4D0B4B5B1B9C102D
:1064DC000026A64205D170BD55F8043B98470136FD
:1064EC00EEE755F8043B98470136F2E7786500086B
:1064FC0078650008786500087C650008F8B500BF71
:10650C00F8BC08BC9E467047F8B500BFF8BC08BC88
:04651C009E467047E0
:10652000191B12131D1516171A090A0B1E0D0E0F33
:1065300058526F746F7234352046342000000000CA
:1065400002040608020C0810000000000102030407
:106550000000000000000000010203040607080913
:106560000000000000000000010203040607080903
:0865700048FCFF7F0100000060
:04657800651600089C
:04657C003D160008C0
:10658000D430000001030305500001006400000046
:10659000B400B700BA00BD00C100C400C700CA0003
:1065A000CD00D000D300D600D900DC00E000E3002D
:1065B000E600E900EC00EF00F200F500F700FA0059
:1065C000FD0000010301060109010B010E0111018B
:1065D0001301160119011B011E01200123012501D0
:1065E00028012A012C012F01310133013501380125
:1065F0003A013C013E01400142014401460147018C
:1066000049014B014D014E0150015101530154010B
:106610005601570158015A015B015C015D015E01A1
:106620005F01600161016201630163016401650151
:10663000650166016601670167016701680168011C
:106640006801680168016801680168016801670103
:106650006701670166016601650165016401630107
:1066600063016201610160015F015E015D015C0126
:106670005B015A0158015701560154015301510160
:1066800050014E014D014B014901470146014401B2
:10669000420140013E013C013A013801350133011C
:1066A00031012F012C012A0128012501230120019C
:1066B0001E011B0119011601130111010E010B012D
:1066C0000901060103010001FD00FA00F700F500D1
:1066D000F200EF00EC00E900E600E300E000DC007F
:1066E000D900D600D300D000CD00CA00C700C40036
:1066F000C100BD00BA00B700B400B100AE00AB00ED
:10670000A700A400A1009E009B00980095009200A5
:106710008F008C008800850082007F007C0079005B
:106720007600730071006E006B0068006500620007
:106730005F005D005A005700550052004F004D00A9
:106740004A0048004500430040003E003C0039003C
:1067500037003500330030002E002C002A002800BE
:1067600026002400220021001F001D001B001A002B
:1067700018001700150014001200110010000E0080
:106780000D000C000B000A000900080007000600BD
:1067900005000500040003000300020002000100E0
:1067A00001000100000000000000000000000000E7
:1067B00000000000000001000100010002000200D2
:1067C00003000300040005000500060007000800A0
:1067D00009000A000B000C000D000E001000110053
:1067E000120014001500170018001A001B001D00ED
:1067F0001F00210022002400260028002A002C006F
:106800002E00300033003500370039003C003E00D8
:1068100040004300450048004A004D004F00520030
:10682000550057005A005D005F0062006500680077
:106830006B006E0071007300760079007C007F00B1
:106840008200850088008C008F00920095009800DF
:106850009B009E00A100A400A700AB00AE00B10009
:1068600001050501D007900146001400D0078813E8
:10687000881350005000C8000102010A78006E0021
:106880000101DC05D0074A016400DC056C074C04FB
:10689000B40064195000D007011E0200007C0008FB
:1068A00000000000010000000000000032000000B5
:1068B00000000000000000000000000000000000D8
:1068C0001027000050C300000000000090010000ED
:1068D00000000000E80300000000000000000000CD
:1068E0000000000000000000204E0000A086010013
:1068F000000000000A00000000000000640000002A
:106900000000000000000000000000000000000087
:106910001027000050C30000E8030000102700000B
:1069200050C32000204E0000FA00000007110A00AA
:0469300000127A00D7
:107BE00058524F544F5234355F4634323100000002
:107BF0000000000000000000000000000000000085
:040000050800455D4D
:00000001FF
