:020000040800F2
:101000000020002069450008E95F0008ED5F000846
:1010100000000000000000000000000000000000D0
:10102000000000000000000000000000F15F000868
:101030000000000000000000F55F0008F95F0008F4
:10104000B9450008B9450008B9450008B945000888
:10105000B9450008B9450008B9450008CD61000848
:10106000B945000881610008FD5F0008256000089F
:10107000E5600008A9610008B9450008B945000805
:101080005D61000801610008000000001D610008AA
:101090003961000831610008B9450008B945000808
:1010A000B9450008B9450008B94500083561000890
:1010B000B945000800000000B94500080000000024
:1010D000002243088B4274D303098B425FD3030A77
:1010E0008B4244D3030B8B4228D3030C8B420DD38A
:1010F000FF22090212BA030C8B4202D31212090218
:1011000065D0030B8B4219D300E0090AC30B8B4255
:1011100001D3CB03C01A5241830B8B4201D38B0303
:10112000C01A5241430B8B4201D34B03C01A5241A8
:10113000030B8B4201D30B03C01A5241C30A8B42EB
:1011400001D3CB02C01A5241830A8B4201D38B02D6
:10115000C01A5241430A8B4201D34B02C01A52417A
:10116000030A8B4201D30B02C01A5241CDD2C309EC
:101170008B4201D3CB01C01A524183098B4201D368
:101180008B01C01A524143098B4201D34B01C01A53
:10119000524103098B4201D30B01C01A5241C308CB
:1011A0008B4201D3CB00C01A524183088B4201D33A
:1011B0008B00C01A524143088B4201D34B00C01A26
:1011C0005241411A00D20146524110467047FFE792
:1011D00001B5002000F0F0F802BDC0460029F7D0AC
:1011E00076E7704703460B437FD4002243088B42C7
:1011F00074D303098B425FD3030A8B4244D3030B9E
:101200008B4228D3030C8B420DD3FF22090212BA62
:10121000030C8B4202D31212090265D0030B8B42DE
:1012200019D300E0090AC30B8B4201D3CB03C01AC8
:101230005241830B8B4201D38B03C01A5241430BA3
:101240008B4201D34B03C01A5241030B8B4201D393
:101250000B03C01A5241C30A8B4201D3CB02C01AFE
:101260005241830A8B4201D38B02C01A5241430A76
:101270008B4201D34B02C01A5241030A8B4201D365
:101280000B02C01A5241CDD2C3098B4201D3CB010C
:10129000C01A524183098B4201D38B01C01A5241BB
:1012A00043098B4201D34B01C01A524103098B42BF
:1012B00001D30B01C01A5241C3088B4201D3CB00AA
:1012C000C01A524183088B4201D38B00C01A52418D
:1012D00043088B4201D34B00C01A5241411A00D23D
:1012E00001465241104670475DE0CA0F00D04942A6
:1012F000031000D34042534000229C4603098B4216
:101300002DD3030A8B4212D3FC22890112BA030A9D
:101310008B420CD3890192118B4208D3890192111F
:101320008B4204D389013AD0921100E08909C309A4
:101330008B4201D3CB01C01A524183098B4201D3A6
:101340008B01C01A524143098B4201D34B01C01A91
:10135000524103098B4201D30B01C01A5241C30809
:101360008B4201D3CB00C01A524183088B4201D378
:101370008B00C01A5241D9D243088B4201D34B0093
:10138000C01A5241411A00D20146634652415B10D5
:10139000104601D34042002B00D5494270476346B6
:1013A0005B1000D3404201B5002000F005F802BDFB
:1013B0000029F8D016E770477047C04684460800F9
:1013C0006146FFE71FB505F0A3F9002801D400210D
:1013D000C8421FBD10B505F02BF94042013010BDC9
:1013E00010B505F095F9002801DB002010BD0120A3
:1013F00010BDC04610B505F08BF9002801DD0020B6
:1014000010BD012010BDC04610B505F039F9002807
:1014100001DC002010BD012010BDC04610B505F054
:101420002FF9002801DA002010BD012010BDC046B0
:101430001C2101231B04984201D3000C10391B0A04
:10144000984201D3000A08391B09984201D30009C8
:10145000043902A2105C40187047C046040302021F
:101460000101010100000000000000000448054BDC
:1014700010B5834203D0044B002B00D0984710BD19
:101480008004002080040020000000000648074976
:10149000091A8B10C90FC91810B5491003D0044B95
:1014A000002B00D0984710BD80040020800400204D
:1014B0000000000010B5074C2378002B09D1FFF77E
:1014C000D5FF054B002B02D0044800E000BF0123EC
:1014D000237010BD80040020000000000070000890
:1014E000054B10B5002B03D00449054800E000BFB0
:1014F000FFF7CCFF10BDC0460000000084040020B0
:1015000000700008F0B54546DE4657464E46C34AD1
:10151000E0B51168D36F87B05B1AC1499BB20B80ED
:10152000C0495D090D80C049098899425CD2BF4914
:101530000988994258D9BE4BBE4C19000493002328
:1015400016000B80210080365368106808321B1A81
:101550009BB29D429B415B4208C1B242F4D1A56A55
:101560002368AA46E568226A0195E5699346A8467C
:101570001D00216962684D4091462F005D466F4015
:101580004D466669626A75405540AD00FF002F43C5
:10159000A068454684460296019EA0697540E66AA9
:1015A00003906E4065463E43574645407D406D0082
:1015B0003543676B266BBF00F6003743E66BEDB231
:1015C0003E43A76B7F003E439B4FF6B205973F78A3
:1015D000002F10D0994F3F78002F10D1AE4212D07B
:1015E000974A13880133138007B0F0BCBB46B2465C
:1015F000A946A046F0BD914F3878002860D00F274B
:10160000BE1BF6B2EAE700258E4E0498E46A058018
:10161000358801353580012C01D18B4D2C70484621
:10162000440250469B022343034360460402019850
:101630002343C001890103430B430299520049012E
:101640000B43039909010B434146C9000B4359461B
:1016500089000B431A432F2A20DC531E2E2B6CD8F3
:1016600000217A4B7A4CD2B219802270794B1B78C8
:10167000002BB9D1059B1B78002BB5D0764B197880
:1016800091426FD01A70042A68D8744900230B70F5
:10169000152A0FD8724B92009B589F46714B1B78AE
:1016A000002B42D16A4C2278002A9DD0DEE701222D
:1016B0006D4B1A706D4B22781A700023237093E7DC
:1016C00003F028FD00281CD0694A13780133DBB2EF
:1016D0001370642B15D901236268A06A9146A26831
:1016E0003B709446E26882460192626923680292E6
:1016F000A26921690392E2699046226A9346626A6E
:101700007DE76268A06A9146A26882469446E268D4
:1017100023680192626921690292A2690392E269D7
:101720009046226A9346626A55E7484B1A80002227
:10173000474B1A70494B1A7056E7002AB2D14D4BED
:101740001B78012B01D1474B1A70002100223F4B1F
:1017500019803F4B1A70414B1A7045E701223F4BED
:101760001A7041E73D49042A90D90B780133DBB266
:101770000B70052B00D837E788E73F4A3F4B527C78
:101780001A7097E73C4A3D4B517C0122521A1A705D
:1017900090E70422344B1A708CE70322324B1A7004
:1017A00088E70222304B1A7084E70022344B1A700B
:1017B000344B354A1A807DE70122314B1A70E02202
:1017C000304B12011A802B4B1B78012B00D071E794
:1017D000244A13706EE700F0CBFA274A224B527C62
:1017E00001321A7066E70122234B9A7462E70022E5
:1017F000214B9A745EE701221F4B5A7400221F4B43
:101800001A7057E700221C4B5A741C4B01321A7095
:1018100050E70522144B1A704CE7C046EC07002035
:10182000A60400209C040020C207002060040020C1
:101830009005002050050020AA05002093060020F6
:10184000A2040020A404002095060020A405002086
:10185000AB050020BE0500203D0500203E05002010
:10186000187000084C050020BD06002092060020DC
:101870003C0500204D05002000070020CA00002084
:10188000A00400209E040020FF0E00002D4AF0B5A9
:101890001388002B3CD0002118001180190A1A0966
:1018A0004A400F215A40030108009043264A03434F
:1018B0001360264A1813145C08001840105CE403F7
:1018C000044318121B1108401940535C105C40225D
:1018D0000125800204435B011C431D4B1D4F1C600E
:1018E0001D4B1E78731C9B00FA50B6003B1D995986
:1018F000B8192D3A2B0093402340D3408909594011
:10190000890181600430013AF4D20023BB51F0BD5B
:10191000124B1B78002B0CD003000F220100114149
:10192000012908D0013A082AF8D100220C490A609E
:10193000B4E70C48F0E7083A10415302184383B269
:10194000F4E7C0469E0400204005002070700008A7
:1019500044050020A8040020EA070020BE0500205E
:1019600048050020FFFF000070B5049C904211DA8A
:10197000814211DAA34205D10EE090420EDC09D07B
:101980009C4207D0150026008A18E41852106410F3
:101990009142F2D1200070BD1800FCE72300511CD9
:1019A00034002A00E2E7C046401AC317C018584066
:1019B0007047C046044980B24A6A92B24B6A9B1A89
:1019C0009BB28342FAD370470048014010B5441ED1
:1019D00000280BD0FA20064980004A6A92B24B6A6E
:1019E0009B1A9BB28342FAD3013CF6D210BDC0468B
:1019F0000048014070B584688A1A54430300016AA4
:101A00000260006924188C4200DD0C0049428C42BF
:101A100000DA0C009969DD685868511A4D4350434B
:101A2000596A401900191C615D619A61884200DDA4
:101A300008004942884200DA0800D86105F064FADB
:101A400070BDC046F0B5A74BA74C1968C022200056
:101A500083B003F0C3FAE37D032B01D90223E375BE
:101A6000207E0300083B282B1BD8103B182B00D8E6
:101A700000E10C339D4D0B2B00D816E19C4B10223E
:101A8000009307219B4BFFF76FFF9B4B80B2288091
:101A9000D862657E2B00323B642B0CD955209625ED
:101AA00012E0964B964A1A80934BDA62657E2B00C1
:101AB000323B642BF2D803212800FFF709FBC0B2A8
:101AC0000200904B0A321A8028228F4E8F4F3080AE
:101AD0003D80A37E8E4D5343022014332B8002F0B1
:101AE00057FB6378002B0ED12D88FA2396215B00DB
:101AF00000932800874ADB184900FFF735FF864B23
:101B0000188003B0F0BDA07F0B287BD802F040FB0B
:101B10002023E35C814A7833FF335B0013808049E4
:101B200021238C46E35C7F4A63445B0013807E493B
:101B300022228C46A25C7D4B62441A8023227C4B7D
:101B4000A25C1A702423E35C7A4A013B59424B4160
:101B500013702522A25C784BFA321A8027230022C8
:101B6000E2542832A35C053B142B01D90523A3546E
:101B70002922A35C013B092B01D90A23A3542A2360
:101B8000E25C511E08296BD90A225F205F21E254D2
:101B900035336A4A1370627E531852088A183280AD
:101BA000674A3B801388CB181380664A1388CB188A
:101BB0001380514A536C034353642B22A35C463B6E
:101BC000462B01D9FF23A3542C23E35C013B622B5A
:101BD00002D801225C4B1A702D22A35C013B092B19
:101BE00001D90523A3542E23E35C092B0ED8022B25
:101BF00057D064D8002B6DD00122544B1A70544B2F
:101C00001A700BE0052002F0C3FA81E700224F4B67
:101C10001A70504B1A704E4B01321A7096232D8851
:101C20005B009D4202D200224B4B1A70E17E2020C5
:101C3000FFF7D8FA642104002800FFF749FA2100D1
:101C400080B2FFF7CFFA454E0C2130802800FFF715
:101C50003FFA210080B2FFF7C5FA414E308044E7D9
:101C600053019B1A9B009B1A5B003D3BDBB21900A2
:101C700018008EE73B4B302200931821204BFFF7D2
:101C800073FE1A4D2880207E03000C3B0B2B0CD9D1
:101C90000300083B032B00D8F0E62888164BD862D7
:101CA000F7E601222B4B1A70B8E7154B1822009368
:101CB0000C212D4BFFF758FE2880207EE8E7042BEF
:101CC000ACD101220021294B1A70214B19701F4BF6
:101CD0001A70A3E71D4A13701E4A137001221C4B91
:101CE0001A709BE7DC03002000070020AE030020F1
:101CF000B50B00006D170000002C0140B003002060
:101D0000CF070000B2030020B4030020BC03002072
:101D1000D6030020B80B0000C2030020CE03002031
:101D20006B030000CC0300205E050000CA03002006
:101D3000C8030020F5060020C6030020D4030020BD
:101D4000A6030020B6030020E8060020A10500201D
:101D50004C050020A0050020C0030020AA0300209D
:101D6000A8030020E70300009E0F00004D0500209F
:101D700010B5054B05481B78C0214370044B1A6809
:101D800003F0A2F810BDC046DA03002000070020CF
:101D9000DC030020F8B5CE46474680B5124C134D03
:101DA0002378134A134917885E0028688A5B38181D
:101DB000821A904689466322002000210133DBB25B
:101DC0009A4241414A4213404A469753424640464E
:101DD0002A6023706421FFF77BF9074B80B21880DB
:101DE000C0BCB946B046F8BD8C060020880600206D
:101DF00098060020C00500208E06002010B502F0D5
:101E0000FFFF0D4B1B78002B06D0002806D10B4A94
:101E100013780133137010BD0028F8D1084A1378E5
:101E20000133DBB21370074A12789A42F3D20022D0
:101E3000024B1A70EFE7C046A0030020980500206F
:101E4000AC050020C700002010B5244B244C1B78A3
:101E50002278012B36D0531EDBB2002B21D0237009
:101E6000012313401F4A137072B61F4B1B78002BBF
:101E700024D062B602F0F2FF1C4B1D4A1B6893424D
:101E800002D901221B4B1A7000221B4B1B491A70EE
:101E90001B4B09681A7023781A4A013B5B00995260
:101EA00010BD062301222370174B1A7001230D4A1F
:101EB000137072B60C4B1B78002BDAD1207803F02C
:101EC00023FED6E70132D2B2062A03D90E4A237086
:101ED0001370C7E722701340C4E7C046CA00002051
:101EE000C4000020A003002094060020AC060020BF
:101EF000C4090000A303002098050020C0000020B2
:101F000099050020B0060020BC06002001211A4AD5
:101F100010B5D3688B43D360FFF796FF2F20174986
:101F20000A6853009B18164A12889B189A080A6080
:101F30001449095C002916D1134A590912784A43F9
:101F400092B21249DB080A8011499B1A0B80114B8F
:101F50001B78002B0DD0104A104913688B4201D812
:101F60000133136010BD0E4909784A43920992B2B9
:101F7000E7E702F069FFEEE700200040C000002024
:101F80009605002000070020D8030020BC05002093
:101F900092050020A30300209C0500200F270000CD
:101FA000F6060020244B70B51B687D2B16D98023C4
:101FB000DB055B6A7C2B0AD89622204B92001B889B
:101FC000934204D21E4B643A1B68934216D31D4AB7
:101FD00013780133DBB21370642B27D81A4D2B789A
:101FE000002B0CD00024194E03E02B780134A342BF
:101FF00005DD02F005FF33788342F6D170BD72B67D
:1020000002F014FF8023DB05596A114A1180002277
:1020100010495A620988104B01315A62D962012174
:102020001A61DA680A43DA6062B6E7E702F0FEFE98
:102030000022034B1A60E1E7AC0600209405002063
:102040009C050020B4050020A1030020A00300206F
:10205000960500209205002000200040F0B54E4675
:102060004546DE465746E0B5C04CC14DA37C2E88A0
:1020700083B0002B00D1C3E0BE4B1F789846002FE1
:1020800000D1F0E0BC4F83222B88D200934200D3D2
:102090005CE11A00303A92B2FA2189008A420FD2EA
:1020A0000122B649607C0E78121A964200D19DE357
:1020B000B3485A000078313AB24992B2121A0A80F3
:1020C0002F2B00D99FE00022AE4BAF4E1A80AF4BB2
:1020D0001A70AF4B32781B789A4200D99AE0E67CAE
:1020E000002E00D1A4E0A74E30881D2800D9DBE0E7
:1020F0000022A84B1A802823E35C9900C9188900A4
:10210000884200DBDCE03B78002B72D1A24B1B78CD
:10211000002B6ED0E27C9F4E93009B181B013088F1
:102120002E33834200DBFEE09C4B99461B78002B4C
:1021300000D198E39A4B1B88002A00D118E2FA22BA
:10214000D20000928921974A2833FFF70DFC80B214
:10215000954B188098462623E35C002B00D0F7E1CE
:10216000924A1370338892469B46E27C93009B18F8
:102170001B012E335B4500DBDBE01E224346617F03
:102180001B880A418A4909688A420DD9894A1288FE
:102190009A4202D943461A801300874A12889A420B
:1021A00002D243461A801300844A12889A4201D20E
:1021B00043461A80824B1B78002B07D0814B0022AC
:1021C0009B5E424612889A4200DD41E27E4B00212E
:1021D0001C68201CFFF718F900280AD05B462F2B3B
:1021E00007D9201C03F0FEFF43461B88C018434656
:1021F000188003B0F0BCBB46B246A946A046F0BD6D
:10220000604B5D4F1E80604E614B32781B789A4266
:1022100000D864E7A37D002B00D160E703F030FC19
:1022200002F004FE00225B4B1A80662333706AE7DB
:10223000664B1B78002B32D0654B1B78002B00D0EF
:10224000D4E0644B534E1B68181C984603F0CAFF39
:10225000614930804046FFF7D7F8002800D12BE1D4
:10226000504B33804FE7FA225C4B920099461B7823
:1022700030005B0099182622A25C002A28D08E42EA
:1022800000DC48E13D4B607C1A78824200D11DE1C0
:10229000464B1B78002B00D1A0E2374F3DE0394A76
:1022A0003C4B12881A802EE71E2800D123E72823F2
:1022B000E35C9A00D21892001100824200DDB8E07F
:1022C000384AA0230092FFF74FFB324B18801AE7E1
:1022D0008E4200DC55E1294E637C32789A4200D16F
:1022E0004EE2254FFA222F4BD20000932F23FFF707
:1022F0003BFB244BFA2218809A464B461B782888D1
:102300005B009200D21A824200DD44E1FA22920080
:1023100094466344834200DBBDE143461B78002BB7
:1023200000D170E7AFE6214B9A461C4B99461E4BF5
:1023300098462B4B9B461B78002B00D188E0052B41
:1023400000D982E0274A9B00D3589F460B4A617C04
:102350001078884200D160E223485A008446084839
:10236000084900786244121A0A80A9E60007002092
:10237000A4050020A1050020B5050020CA0000200A
:10238000BA03002090060020BF050020CE060020E2
:10239000BB030020A6050020AA050020BE050020E2
:1023A000B4030020FF070000BE06002094060020B2
:1023B0009C050020BC030020B6030020AC030020D5
:1023C000E8060020C4030020E4060020F0060020F8
:1023D000C0070020EC06002000E0FF44C8030020F6
:1023E000BD06002080700008FFF7FFFFCA4ACB4BF4
:1023F00010889146CA4A1B6812682F210092C94A68
:10240000FFF7B2FA0100C848FEF7ECFEE17E49088A
:10241000FEF7E8FEC54B18804B461B882E2B00D9D3
:102420000FE70022C24B1E80C24B1E60C24B1A60D7
:1024300069E6A0231E210093713BFFF795FABC4B80
:102440001880308857E601F0F3FF00235A461370D6
:102450004B46227D1B78002A00D0B6E041460A8018
:10246000002B00D0E2E00121B44A1170B44A13609D
:10247000237F002B00D0D7E053461B78002B00D1E0
:1024800066E22623E35C002B00D1B2E6FA2029881D
:102490008000FFF789FAFA239B00AA4AC3189BB26F
:1024A0001380A94A1288013A934200DA53E203F0FA
:1024B0003BFC53461978B3E04046A449FEF790FF31
:1024C000002800D11FE6302333801CE692480780A5
:1024D00082469F48834601205F4638709D480778B2
:1024E000002F00D1D9E60127BC466746BA1A1A70F8
:1024F00000235A4613700023FA220370894B3000E0
:102500000093D2002F23FFF72FFA534618804B4633
:102510001B7828885B00FA229200D21A824200DCE3
:10252000E4E08D49677C0B789C4601239A46DE1BCC
:10253000B44500D1B6E0864B1B78002B00D151E1A9
:10254000864F43461B78002B00D15CE62B88A0E524
:102550003388E27C9B4693009B181B012E335B451E
:1025600000DB0AE27A4B1B78002B00D041E604E640
:10257000FA22D20000922F216A4AFFF7F5F980B2C1
:10258000E6E5FA229200D21AB24200DC80E0624B09
:10259000714E9A46714F3378617C9C4601235B1AD9
:1025A0009C4500D195E12F23002100935D4BFFF75F
:1025B000DBF9534618804B46FA221B7828885B00CB
:1025C0009200D21A9042BCDBA0E6002B43D0E07C04
:1025D000534619783C22B425614B6D001B78A946FF
:1025E000013B53435F4A12889B189AB21BB2AB421D
:1025F00000DB54E15C4D2B80130077331BB24B455D
:1026000000DA5BE11500594BF13D1D80793A13B2B8
:10261000574A1380012800D13870002342461380A6
:10262000002900D0E5E50AE003F07EFB5346197867
:102630002623E35C002BF3D0002900D026E7338863
:102640009B4643465A461B882E2A00D8ACE594E5A3
:1026500042461380BAE50125384A1570384A13609E
:10266000444A1370237F002B00D16EE1E07C0028E8
:10267000AED1414929238C46E35C324A63445B0076
:10268000138003F04BF953461D700121E07CA1E754
:10269000214B324F9A460023524613800022374B7B
:1026A0001A703AE600261C4B1E809B465346284E65
:1026B0003370284BB4461E78002E00D140E76646A2
:1026C0000F7000213170002119702F230093154BDA
:1026D000FFF74AF95B4618804B46FA221B78288898
:1026E0005B009200D21A904200DA29E7FA229200A7
:1026F00094466344984200DDCFE50022064B1A80E1
:10270000134B1A78002A00D1C7E500221A70012263
:10271000104B124F1A7000E690060020580400205B
:102720005C040020FF07000000879303F2060020EE
:10273000A605002030040020EC060020A3030020A2
:102740009C050020FE060020AE0300200000404251
:1027500094060020F4060020CA000020B5050020E1
:10276000C4000020D0030020BA050020B8050020D6
:10277000B6050020AC050020DE030000CE060020D8
:102780007F4A804F1088804A1268904200D3BFE091
:102790007E4A1288C72A00D9BAE00122D31A002241
:1027A000924633707A4B1A607A4B01321A7002F0FB
:1027B0003DFB5246784B28881A704B461978FA230D
:1027C0009B009C46490061448CE501F0BFFD3CE65E
:1027D00001F060FE39E601F08FFE36E66F4B70487F
:1027E0009A4688E66D4B9B466D4B6CE7644B1A88A6
:1027F000654B1B689A424CD2644B1B88C72B48D848
:1028000000260122624B08701E60624B1A7002F0B3
:102810000DFB614B1E702B884AE4594B18885A4BAC
:102820001B6898422FD2594B1B88C72B2BD80123EA
:1028300000265B1A13700122554B1E60554B1A700F
:1028400002F0F4FA544B55481E70564E2B88B4468D
:102850001A00554E590036786144303A891B92B2BD
:102860000180FFF719FC03F00BF94A4B1B78002B92
:1028700064D001234A4613704C4A4D4B128830886D
:102880001A80E27C56E43B78002BD0D12B80FFF7F6
:102890001AFC3B78002BB3D12B80FFF714FC1300FC
:1028A000693BFF3B9BB29C466546424B1D80130033
:1028B000F13B9BB24B453AD262461BB23E4D2B8058
:1028C0001300B425EF331BB26D00AB4200DA9FE674
:1028D0009CE62B4B18882C4B1B68984220D22B4B24
:1028E0001B88C72B1CD800229346294B31701A60D5
:1028F000284B01321A7002F099FA5A46264B288862
:102900001A704B46FA221B7892005B00D21A4AE6F4
:102910003A78002A00D040E7FA2080002880E1E4DD
:102920003B78002BDFD1FA20800028803BE6234D46
:10293000214BA9464A441A80624667E64B461B78FB
:10294000002B0DD002F080FA93E703F099F83EE6F1
:1029500003F096F86AE602F0E1FF534619785FE665
:10296000FFF772FA084B164A1A608023154ADB05F6
:102970005A6201234A461370E4E7134B9A46D8E49F
:10298000C2030020B5050020C000002094050020EF
:102990009C050020A3030020CE0600209006002006
:1029A000F4060020FFF7FFFFBA030020BC0300205D
:1029B000C0060020BA050020B8050020A7FDFFFFD3
:1029C00010270000881300009406002010B50A4C60
:1029D0002378012B0BD0022B02D0FFF73FFB10BD59
:1029E000064B1888FEF752FF00232370F7E7FEF727
:1029F00089FD00232370F0E7F8060020A4060020DC
:102A0000F0B5D6464F464646C0B54B4A4B491278BC
:102A10000B88002A1FD1013369321BB2FF32934267
:102A200000DB7BE01A000B80B421454B49009A463D
:102A30001B8801331BB28B4200DB002351460B8005
:102A4000B421404E4900338801331BB28B4200DB76
:102A50000023338017E0013B1AB21B0400D567E066
:102A6000374B0A809A461B88013B1AB21B045CD480
:102A70005346344E1A803388013B1BB23380002BFF
:102A80004FDB0023CA5EFA212F4D5200535F2F4ABD
:102A90002D2791461288C9009B182D4A1088904610
:102AA0005843FEF79FFB2B4C0A21E35D5843FEF78A
:102AB00099FB80B202F06EFE534600229B5EFA2123
:102AC0005B005B5F4A461288C9009B18424610882B
:102AD0005843FEF787FBE35D0A215843FEF782FB6C
:102AE00080B202F05DFE0022B35EFA215B005B5F04
:102AF0004A461288C9009B18424610885843FEF780
:102B000071FBE35D0A215843FEF76CFB80B202F0D3
:102B10004DFEE0BCBA46B146A846F0BD00230022F7
:102B200081E76823FF333380ABE76822FF329FE7FA
:102B30006822FF3294E7C046CA000020BA05002090
:102B4000B8050020B6050020D0000020C8000020F5
:102B5000AE030020000700208021C9054A6A254BEA
:102B600070B51A800023244C4B6220681204430085
:102B70001B18120C9B189A0822605A091F48520011
:102B800092B2DB0802809B1A1D4A9BB21D4D138036
:102B90004A6A28689A4201D2042816D81A4AD3628F
:102BA000FFF752F900222620184B19491A70194BC9
:102BB0001A702B6801332B604A7F095C0A430BD1E2
:102BC000154B22689A420ED970BD4A6A9A42E5D2E4
:102BD0004A6A9A42F9D3E1E7132BF5D9FA2322681E
:102BE000DB009A42F0D800220C4B1A7002F02CF94C
:102BF000EAE7C04696050020C0000020BC05002082
:102C0000920500209C05002000200040980500202F
:102C100000070020AC05002013050000A3030020DE
:102C2000F0B546464F46D646BA4BC0B5BA4A1B88A1
:102C3000BA4FBB4C3B801388BA4E01331380BA4A5B
:102C40001388013313802388327801332380B74BF4
:102C500098461B78134304D1B54A1178002900D057
:102C60008CE0B44B99464B46DB7F002B0BD0B2492E
:102C7000B24A0B881078013382009BB212180B8085
:102C80009200934258DCAE4B1B78002B33D1AD4BF6
:102C90001B78002B04D0AC4B1B78002B00D0A3E199
:102CA000AA4B1D882388142B2ED8A94B1B78002BE8
:102CB00048D13C88A74E43461B78002B04D0A24B3A
:102CC0001B78002B00D016E1A34B1B78002B4DD0B6
:102CD000A24BA34918886843FEF784FAA14B1B88CE
:102CE0000133C01880B2A04B348018809F4BDD6246
:102CF00058639863D8639E4A138801331380E0BCFD
:102D0000BA46B146A846F0BD00232380994B1B78F4
:102D1000002B77D08C4B1B78002B00D09BE14B46CF
:102D20005B7F002BC1D1944B1B78002BBDD0864B11
:102D30001B78002BB9D091E00122904B1A70002330
:102D40000B80A0E78E4A834E12683388952A00D8FC
:102D5000B5E0952B00D8B2E0FA218A4A4900126802
:102D60008A4200D873E104210422AAE0FA21280053
:102D7000C9006043FEF736FA80B2B4E78249098899
:102D8000002900D060E18148814D038801339BB266
:102D90000380AB4200D864E77E4B1B881E2B00D813
:102DA00088E10123424613707B4B1B78002B00D136
:102DB00085E1B921794B49001D882800FEF788F983
:102DC000B9230022307091465B009D420FD3744BB3
:102DD000744D9A4601F0F4FA6420FEF7F7FD53466D
:102DE0002B6001239C463378E1444B45F2DC6E4B6B
:102DF0001B78002B00D034E74E4A914626224946E4
:102E00008B5430E74B465B7F002B8CD04E4B1B78AE
:102E1000002B00D149E7654B65481A88654B196856
:102E2000FEF7E8FD644903F0BBFC644E011C30680A
:102E300003F0F0F90021041CFEF7F0FA002800D19D
:102E400000245F49201CFEF7D5FA002800D15C4C15
:102E5000494B34601B78002B00D126E7594B5A4E62
:102E60001A885A4B30001968FEF7C4FD584B524976
:102E70009A4603F095FC5346011C186803F0CAF902
:102E80000021041CFEF7CAFA002800D10024514991
:102E9000201CFEF7AFFA002800D14E4C53461C60B0
:102EA000374B1B68632B00D9FFE60022284B3261A9
:102EB0001B783C88274E002B00D1FCE6338801218B
:102EC000012245483C880270E01A884200DCABE0F1
:102ED000D21894B2FA22374B3C801B6852009342BE
:102EE00000D89DE03D4BF43AFF3A1A704A463C4BFD
:102EF000D27D1A70DFE63B4B1B882F2B00D8E3E610
:102F0000FA212800C9006043FEF76CF9013080B255
:102F1000E9E6C046BE060020CC060020940500204D
:102F2000FA060020CF060020FC060020AA0500209B
:102F3000A205002000070020D2060020D9030020AF
:102F4000B5050020A3030020BE050020B00300202B
:102F5000C1030020C006002094060020FE060020C9
:102F600030F8FFFFAE030020AE050020002C01402A
:102F700090050020E8060020F006002095060020BD
:102F80009C050020AC06002090060020D8060020FA
:102F9000204E0000A8050020F5060020D0060020E5
:102FA000AAAA000000300040A0050020D2030020A3
:102FB000E0030020C000002017B7D138E40600204D
:102FC00000001643F206002030040020A406002072
:102FD000EC06002000E0FF44B9030020B803002005
:102FE000D8030020A605002001F020FFFEF706FF11
:102FF000344B1A78002A00D052E6334A1178334A0B
:103000001278002A50D0324A12788A4200D347E61A
:1030100001221A70FFF7A0FD42E662462D4B1A709E
:1030200000222D4B1A7046E64846C07D8446181B88
:103030008842F2DD9B1A00229CB2274B3C801A701A
:103040006246244B1A7036E6244A138009E6E539B5
:103050001022FF3935E74A462C23D35CC8225A4355
:103060001F4B20480021595EFEF7C4FC1E4903F0A7
:1030700097FB03F029FF1D4C1D4A238812881B1A59
:103080001BB22380934201DA13B22380AB4200DDEE
:1030900025804B465B7F002B00D0BCE6154B1B7890
:1030A000002B00D0DAE600E6134A12788A4200D3F9
:1030B000F6E5ADE7114B117099460180D3E501F0BB
:1030C0007FF994E69905002098050020A0030020D0
:1030D000C6000020D8030020B8030020D806002036
:1030E000C20600200804002017B7D138C40300200E
:1030F000B4030020F0060020C500002000070020D7
:10310000F0B5DE46454657464E46E0B5BDB002F046
:1031100011F802F0B9FA02F05FFBFEF793FCE24D02
:10312000EB78022B01D100F068FD0223EB70DF4B3E
:10313000DF48AB800023DF49CA5CC25401330B2B4C
:10314000FAD1FEF715FE6B7CDB4A013B591E8B4121
:103150001370DA4BDA4A18931B88179213802B7D71
:10316000002B00D1EB742623EB5C002B01D000F088
:10317000DFFCD44B3093D44B1C93D44B3B93D44BB8
:10318000389301F09FF8D34B1A0034930023138037
:1031900002F0BEF8D04BD14A1A6001F029FFD04BA3
:1031A0001B78002B02D00122CE4B1A70CE4ACF4999
:1031B00013681B051B0D13600B601368CC4A1B0CB6
:1031C00013608022520193429B41E6221340C94A78
:1031D000137001F0A5FFC84BC84F9846C84BC94EA5
:1031E0000B93C94BC94C1193C94B1493C94B03930F
:1031F000C94B0A93C94B9B46C94B1593C94B1E93A8
:10320000C94B0893C94B1393C94B0F93C94B0493F4
:10321000C94B0D93C94B9A46C94B0993C94B1D9392
:10322000C94B2093C94B3793C94B1293C94B329367
:10323000C94B3693C94B1093C94B0593C94B0793A0
:10324000C94B0693C94B0C93C94B2193C94B22938D
:10325000C94B2393C94B2493C94B2593C94B269340
:10326000C94B2A93C94B2B93C94B2C93C94B0E9333
:10327000C94B1A93C94B2D93C94B2E93C94B279316
:10328000C94B1693C94B1B93C94B1F93C94B2F9323
:10329000C94B1993C94B3193C94B3593C94B02970D
:1032A0002893C94B3993C94B3A93C94B29938A4BFD
:1032B0008A4A1A60628823889B18A2889B18E28831
:1032C0009B1822899B1862899B185B10023333601C
:1032D0006B7D002B00D0F7E20B9BBE4A1B8893420C
:1032E0000AD9119A1278002A01D000F001FCBA49DB
:1032F0008B4201D900F03BFC039AB84B12889A42EA
:1033000025D90A9B00229B5E1800994603F0FCFD1C
:10331000B34903F045FA5B46196802F07BFF5B4650
:10332000159918600B78022B00D18DE3032B00D187
:103330007AE3012B08D1089B1A7880239B00134362
:103340001E9A138002230B700023039A1380029BA2
:10335000FA221B68920099460F9B1B88914500D862
:1033600065E2002204990A70C72B00D8DEE20D9AAC
:10337000E97C1278002900D01AE3002A00D019E372
:103380000A231D9A137003213068FDF72BFF534663
:103390001860099B01001B78002B2CD0209B18681B
:1033A000FEF702FB53461B685A0890421ED9FA22C8
:1033B000D20093421AD2002202990A6037990A7801
:1033C00001320A70AA7C002A00D04AE1149A1288BD
:1033D0002F2A00D845E1002212990A700122329961
:1033E0000A70389A3699128852080A800022099980
:1033F0000A70209A1360109B1B78002B00D138E1D3
:1034000043461B68462B00D833E1C2218020754B10
:1034100089005A58C0051202120A5A5008315A58E7
:103420001202120A0243FF205A5004395A588243AA
:10343000BF3802435A50059B1B78002B00D031E166
:10344000069A13780133DBB21370C82B00D946E11A
:103450000022914649460C9B0E9A1B781170002B56
:1034600000D0AFE131686048FDF7BCFE129B0A2135
:103470001B785843079B80B21880FDF729FE1A9BE2
:1034800080B218801C9B1B78002B00D09FE2FA2092
:10349000169BC00018802B23E95C089B187881429A
:1034A00000D2A9E2A2E0C0460007002010580000A8
:1034B0000607002099700008CA000020AE03002013
:1034C000B0030020A6030020C0030020B2030020A8
:1034D000BC030020A805002000300040AAAA00007C
:1034E000C0070020F006002000580140E006002040
:1034F000DC0600209E060020C00000209C05002065
:1035000090050020A4060020AA050020B006002097
:10351000A6050020CC060020C2060020C806002018
:10352000A00400209E040020A2060020D006002057
:1035300090060020BF050020D6060020AC06002023
:10354000BC060020BB030020A8060020D7060020F0
:10355000BE050020A3030020C00600209306002023
:1035600095060020B005002096060020B505002035
:103570009C060020A00600209A060020BE03002022
:10358000C4060020F5060020CF060020C603002058
:10359000D4060020B4050020B2050020A8030020B6
:1035A000AA030020A4030020AC030020A1030020F4
:1035B00094050020F6060020F7060020CC0000202D
:1035C000BA05002094060020C4000020A2030020B9
:1035D000AE05002010270000409C0000204E000097
:1035E000610B363B00E100E0C0270900029B1B682D
:1035F000632B00D975E14246FA2312685B009A42B8
:1036000000D86EE11B9AE93BFF3B13702F23EB5C64
:10361000002B00D07DE18023DB055A6AD74B9A420C
:1036200000D844E6129B1B789946012B00D03EE659
:10363000049A13780133137001F0F8FB4A46329B69
:103640001A70149B1B882F2B05D80023129A137015
:103650004246CB4B13600023029A1360FFF77CFABB
:1036600025E64146FA2209689200914200D8B5E663
:10367000B1E6C2218020C34B89005A58C00512020E
:10368000120A0243FF205A5008315A581202120AF5
:103690005A5004395A5882435A50059B1B78002BC4
:1036A00000D1CDE65B46186802F09CFD079F83B20F
:1036B0000A9A139908983F88128809880078009719
:1036C00002F056FC02F030FC0023059A1370069AB3
:1036D00013780133DBB21370C82B00D8B8E601F0C1
:1036E00095FAA94AA94993680B4004210B439360BA
:1036F000A74B1A88219B17001888A64B190058431E
:103700009946FDF7E5FCC31B9800C018A24B0001C9
:103710001988C91BFDF766FD229B1E3080B21880F8
:10372000089B9E491870239B18884B465843FDF709
:1037300059FD249B64211B885843FDF753FD139FBB
:103740003A88D3009B1AC018C0103880FEF722FBBD
:10375000259BCD2118604B4689005843FDF742FD5B
:1037600003B2DB43DB171840269A0A9B12781880B5
:103770000C9B1B78002A1AD02A9A398810782B9A29
:1037800012884243914200DB6DE185482C9A8446C1
:103790001188013189B211809A05D21AD200D2184B
:1037A0005201D21A92006244914200DD12E20022DC
:1037B00006990A700022914649460E9A1170002B14
:1037C00000D14FE6149B1B88302B52D9119A1278E6
:1037D000002A4ED0313B572B00D948E1199B1B786A
:1037E000002B00D0E4E1FFF70BF9EB7E6D481900E8
:1037F0009946FDF7F7FC149A494633906A481788B2
:10380000FDF7F0FC339B7822302100903800FEF762
:10381000ABF8319F38800004000CFEF7CBF89620FF
:1038200039888000FDF7DEFC079B18803FE5002B00
:1038300000D08CE0049A13704B46642B00D9EAE167
:103840000D9B1A78002A00D194E00023049A13708B
:1038500003213068FDF7C6FC53461860099B010040
:103860001B78002B00D1C6E54B460A2B00D8C2E5D9
:1038700094E5012399464A46199B1A702B7F002B29
:1038800000D19DE0189B19882923E85C0B004000BB
:10389000133BC0181F9B80B21880179B4F1C1B88BE
:1038A0005843FDF79FFC381A299F388002F036F8FC
:1038B0003A883E4B5A639A63DA634A46289B1A70E9
:1038C0000023079A1380F2E44146189B08681A887F
:1038D000602153080092C822FEF746F8179B188013
:1038E000FAE45346FA2218680C235200009364212C
:1038F000093BFEF739F843461B9A1B681070312BC1
:1039000000D983E6022313702F23EB5C002B00D138
:1039100081E61F9BFA221888172364210093D200A6
:103920000A3BFEF721F82F9B187074E600220499D9
:103930000A70E97C0D9A1278002972D09F2B11D958
:10394000002A00D081E70A231D9A137080E74A46B7
:10395000642A00D908E50D9AE97C1278002958D02C
:103960009F2B25D8002104980170002A00D06CE715
:10397000952BE8D864231D9A137069E7C8AF00003F
:103980008813000000E100E000240140E8FFFF7F11
:10399000B8F7FF1FE40C0000C2F7FF1FFF0F000085
:1039A000204E0000581B00002A030000002C01409C
:1039B000002AC8D0C8225200934200D348E744E707
:1039C000984A53639363D36302F05AF878E7279FCA
:1039D000309B2D9A2E993F881B8809881288009762
:1039E000FDF7C2FF169B80B218802B23E95C089B71
:1039F0001878814200D3F9E50A000127279B0A3293
:103A00001B880A395B080097FDF7AEFF169B1880EC
:103A1000ECE5002AACD0C8225200934200D317E74D
:103A200013E7002AA4D0AEE4139B19211888FDF7F0
:103A30004FFBFF2303408020C00018431E9B159AB4
:103A40001880012313707FE44B463221D8B2FDF772
:103A50003FFBC0231E9AC0B2DB0003431380032345
:103A6000159A137070E400222C990A809FE60123B6
:103A7000199A1370FEF7C4FF149B1B88C82B05D935
:103A80004A46359B1A805023319A1380319B1888FF
:103A9000FDF790FF359B00229B5E002B01D0FFF7C6
:103AA00006FC0C9A1299137001220A7032990A705E
:103AB00041465D4A0A6051460A6020990A608021A9
:103AC000C9054A62142202990A60289A13703A9B27
:103AD000399A1B7813706B7F002B03D03B9B369A6F
:103AE0001B881380FEF7B0F901F066FEFFF7DFFBDD
:103AF000002401F0C5FF119B1C70149B1C804B4BD4
:103B00001C70349B1C80474B5C639C63DC6301F03E
:103B10005BFE802221005200454803F045FABFF3C6
:103B20004F8F444B444ADA60BFF34F8FC046FDE7E6
:103B3000424B1A003093FA239B001380404B1A002B
:103B40001C93012313706B8200233E4AAB82AB753A
:103B50001388323313803C4A13883B9232331380EC
:103B60003A4A1388389232331380FFF70AFB9146A2
:103B700001F086FF4A46119B1A70149B1A802B4B4A
:103B80001A70349B1A80274B5A639A63DA6301F0E8
:103B90001BFE802200215200254803F005FABFF3E6
:103BA0004F8F244B244ADA60BFF34F8FC046FDE7A6
:103BB0000121274AD3688B43D36001F037F94A4685
:103BC000184B5A639A63DA6302F0F2F84A46199B7B
:103BD0001A7008E6002399464A46149B1A8001F0A1
:103BE0004FFF01F023F94A46129B1A70349B1A804A
:103BF000119B1A700C9B1B78D9E52B79102B01D0E7
:103C0000FFF793FA134B6A781B789A4201D3FFF7B8
:103C10009AFAFFF78AFA0D9B1B78002B00D014E666
:103C2000A8E6C046002C014028230000A205002081
:103C3000EC07002000ED00E00400FA05A6030020D8
:103C4000C0030020B4030020B2030020BC03002006
:103C500000200040DA030020F0B5D6464F46464625
:103C60006F4CC0B52368606882B0C01A6D4B01000C
:103C7000C2186D4B9A424DD800236C4D6C4E2B8070
:103C80003378002B5DD06B4F3B78002B1FD16A4BF4
:103C900098461B78002B00D1A7E0684A914610880F
:103CA000424601331370664B9A461988FDF77CFE35
:103CB00053461B88322800D874E0002232704A46EE
:103CC00013803B78002B14D061682368C91A5D4CBF
:103CD0005D4A2378914209D85C4801330788DBB2FA
:103CE000FA00D21B5218D208237002804B2B00D945
:103CF00080E000235649574A2B80574B12681868BA
:103D00000B88C41A944211DC1C1AA24217DA9B1ABF
:103D10009BB20DE00022514B1A804F4B18684C4962
:103D20004C4A0B881268C41A9442EDDD9B189BB272
:103D30000B8002B0E0BCBA46B146A846F0BD83B2E3
:103D4000F6E7474B9B7C002B11D0464B1A889042DC
:103D50001CD83E4B1988FA239B0000930023FDF7E3
:103D600003FE02003C4B1A6000232B80D7E7344B44
:103D70001A88364B19883C4B00932F23FDF7F4FD2E
:103D800002003028EEDC00220020EBE72C4B511C17
:103D90001C88FA23DB0022000093344BFDF7E4FD7E
:103DA0000200DFE721686268521AD900CB1AD318E3
:103DB0005246DB089BB2138042461278322A00D862
:103DC0007DE72B4952468C46193B9BB213806344D6
:103DD000D90FCB182121224A5B10535401233B7089
:103DE00000F026FB53461B8869E7144A80B29146CF
:103DF000108055E71F49154A8C4613880027193350
:103E00009BB213806344D90FCB182021144A5B1056
:103E100053543770FDF7ACFF277000F03BFB68E7A9
:103E2000EC070020DFFCFFFF760500009005002076
:103E3000DA070020D8070020D9070020D607002085
:103E4000CC030020D4070020E1040000CE030020B2
:103E5000A405002068040020DC070020A80500203D
:103E600000070020CA030020FF070000E90300004C
:103E70002AF9FFFF12FDFFFF184B1B885A1E022A6A
:103E800014D8174B1B683B2B0FD800220E21154B63
:103E90001A70154B1A70154B01321A70144B1970A9
:103EA000144B12311970144B1A707047043B042BD9
:103EB000FBD80B4B1B68632BF7D8012307210B4A58
:103EC0001370084A1370084A1370094A1170094A9E
:103ED00019311170084A1370E7E7C04664040020E6
:103EE000CC07002078040020D0070020A105002086
:103EF000EA07002062040020A2050020F0B52D4E44
:103F0000C64632000027002000252B4B2B4C98463C
:103F100000B51C8008CA7C361168994206D0CB1ABD
:103F2000A34201D201259CB20127C01804320B0024
:103F30009642F1D1002F27D04009002D01D04346F1
:103F40001C801F4B1F4C18602378012B2ED01E4E57
:103F50003378012B1AD02278134312D1FFF78CFF4C
:103F600043461B88194AC93B9BB2934209D82F216B
:103F70000122174B32701970164B2D391970164BE0
:103F80001A7080BCB846F0BD0020D6E742461288C1
:103F90000E49C93A92B28A42F3D82F210C4A1170C5
:103FA0000C4A2D3911700C4A1370EAE7FFF764FFD1
:103FB000CDE7C046EC07002064040020204E00003E
:103FC000CC070020A1050020A0050020564D0000D0
:103FD0007804002062040020A2050020F8B5574CA8
:103FE0002378002B03D0564B1B78002B06D1554B62
:103FF0001B78002B51D0012B0AD0F8BD524B1B78F7
:10400000002B37D000F0F4FF0222504B1A70F4E777
:104010004B4B1B78002B33D14D4D2B78012B76D099
:104020004C4B1B78012B68D02378002BE5D12B78E3
:10403000002B3AD04849494B0A78072A36D81888C5
:10404000052833D9464C47480132D2B205680A7078
:10405000E16F24684919091B0160082A26D1CA08A2
:10406000C909414892B289B2541804803F48521A93
:1040700002801BE001F004F80122344B1A70BCE707
:10408000314B1B78002B0DD0394B1888FDF7FEFB08
:10409000FDF738FA00F0ACFFAFE7FFF72FFF00F0B5
:1040A000A7FFAAE700F0ECFFA7E72C4B314C2088D4
:1040B000002807D1304A1278002A2DD11A880132FF
:1040C0001A809AE700221A802C4B0025984200D8CB
:1040D00093E72B4E3188FDF767FC322823D8294F10
:1040E0003B780133DBB23B70322B03D9264B1B7874
:1040F000002B1BD0238833807FE701F00BF8234B84
:1041000000280BD003221A7000F072FF8CE7FDF735
:10411000F9F900F06DFF83E718806EE702221A704C
:10412000FFF79AFDF0E7174B1D70E3E700F0E4F9A5
:104130000122114B3D701A70DCE7C046AA05002031
:1041400093060020A2050020EB070020F8060020BF
:10415000A1050020A0050020C8070020A805002018
:10416000EC070020C407002060040020C2070020E4
:10417000A406002090060020DA070020DC050000DD
:10418000D2070020DB070020D807002062040020AF
:10419000034A031C0B2800D90B235B0013707047E4
:1041A000E0070020F0B5DE4657464E464546E0B5EE
:1041B000032083B001F0A8FC7C239B460025364BEE
:1041C000364C9A46364B374F9946374BA3440193AA
:1041D0004B4652463B60002326781380FF2E25D0A5
:1041E0006378002B25D1E801401B304A400030188D
:1041F000536380B29363D363FDF7E8FB0025023479
:104200005C45E5D101F03CFC00232949274A098897
:104210009362D16252461380224B214A1A6003B046
:10422000F0BCBB46B246A946A046F0BD0135EDB292
:10423000E5E75901C91AC900C91AFA231B019C46AE
:104240001C486144FCF7CEFF184B010098460A2336
:104250004246936200901848FCF7C4FF4346D86278
:10426000019B16491B785843FCF7BCFF4346009955
:1042700058639863D863EB0111485D1BFCF7B2FFEC
:104280006D00AD1964216843FCF7ACFF0004000C1D
:10429000FDF79CFBB2E7C0469005002034070020E4
:1042A000AAAA000000300040E0070020002C0140D6
:1042B000AE030020C0D8A700003E4900CF07000091
:1042C000A086010010B572B61A4B1A683023D35C71
:1042D000FF2B07D0FFF766FF174B1A88174BDA62E0
:1042E00062B610BD154C164B0320E362154B1B78CC
:1042F0006363A363E36301F007FC3723C820A36271
:10430000FDF764FB052001F0FFFB2823C820A36212
:10431000FDF75CFB062001F0F7FB1923C820A36220
:10432000FDF754FB01F0ACFB0023074AA3621380A6
:10433000D2E7C046DC030020AE030020002C014081
:10434000CF070000E00700209005002070B5154B56
:10435000154CE36272B63C23144D154E01202E60BD
:10436000A362144B1B786363A363E36301F0CCFB8C
:104370004B20FDF72BFB50234B20A362FDF726FBC0
:104380005A234B20A3622E60FDF720FB01F078FB3F
:104390000023094AA3621380084B1B88E36262B6BC
:1043A00070BDC046CF070000002C01400030004027
:1043B000AAAA0000E007002090050020AE0300201C
:1043C00010B572B6134C144B144AE362144B03201D
:1043D0001A605023A362134B1B786363A363E363E8
:1043E00001F092FB6420FDF7F1FA46236420A362FA
:1043F000FDF7ECFA28236420A362FDF7E7FA01F049
:104400003FFB0023084AA3621380084B1B88E3622A
:1044100062B610BD002C0140CF070000AAAA000020
:1044200000300040E007002090050020AE0300208F
:1044300010B5114B114C0220E3623223A362104BE2
:104440001B786363A363E36301F05EFB9620FDF7D3
:10445000BDFA0C4A0C4B96201A601E23A362FDF78E
:10446000B5FA01F00DFB0023084AA3621380084B44
:104470001B88E36210BDC046CF070000002C01403E
:10448000E0070020AAAA00000030004090050020AC
:10449000AE03002010B5114B114C0220E36228231B
:1044A000A362104B1B786363A363E36301F02CFBEF
:1044B0009620FDF78BFA0C4A0C4B96201A6050237D
:1044C000A362FDF783FA01F0DBFA0023084AA36236
:1044D0001380084B1B88E36210BDC046CF07000065
:1044E000002C0140E0070020AAAA00000030004094
:1044F00090050020AE030020F8B5144E144BF36273
:1045000072B67724134B144D1B78144F7363B36347
:10451000F363142120002F60FCF764FEC0B201F0A9
:10452000F3FA63100A330A20B362023CFDF74EFA35
:10453000631CEED101F0A4FA0023094AB362138090
:10454000084B1B88F36262B6F8BDC046002C0140E0
:10455000CF070000E007002000300040AAAA0000BA
:1045600090050020AE0300200D4885460D480E49F9
:104570000E4A002302E0D458C4500433C4188C42BD
:10458000F9D30B4A0B4C002301E013600432A24222
:10459000FBD301F025FE02F00FFDFEF7B1FDFEE7B3
:1045A00000200020C000002080040020E4700008EB
:1045B00080040020F8080020FEE700008268030065
:1045C00010B50120D20710D48C684A68D8682243FD
:1045D000CC6809682243054C204002430020DA6081
:1045E0001A69920092080A431A6110BDC73FFFFF83
:1045F0008368020010B50120DB070ED44C680B68FD
:10460000D06823438C682343CC68096923430B4358
:104610000249014000200B43D36010BD3CC2FEFFA5
:10462000F0B5DE4657464E464546E0B54B6883B08A
:104630000C680193013B9C460023002C09D156E0F5
:104640004D46C2682A403A43C26022000133DA4034
:104650004DD0012225009A4015401442F5D0026841
:1046600090462A006A435700BA4692445746FF4391
:104670005646B9464746B743B846019F5743BA46E0
:104680004746564637430E6907603700664657432C
:10469000B846012ED4D886684F46B3468E68564336
:1046A000B2465E463E40B34656465F463E4386604F
:1046B000C668B2464E4657463E40B14646464F460D
:1046C0003E43C660019E022EBFD14E69B046FF2D0B
:1046D0001ED85243056A1601B61AB54346465643DC
:1046E00032002A43026222000133DA40B1D163462C
:1046F000012B05D8CA6843686243A3431343436050
:10470000002003B0F0BCBB46B246A946A046F0BDAF
:104710002D0A6D436D43426A2E01761BB2439146CA
:1047200042466A434D462A4342628EE70C23164AAC
:1047300070B5516805000B40082B11D0134B12487F
:104740002B60426812491206120F8A5C1149D3404D
:104750006B6042685205520F8A5CD340AB6070BDFB
:104760000D4B0F249C465068D16AC003C0171840F7
:104770002140604401315668FCF7AAFCB30C234089
:1047800002334343DBE7C0460010024000127A00C8
:10479000CC700008C470000800093D000C230D4ACD
:1047A00070B551680B40082B01D00B4870BD0B4B06
:1047B0000F249C465068D16AC003C017184021409E
:1047C000604401315568FCF783FCAD0C2C40023489
:1047D0006043EBE70010024000127A0000093D0040
:1047E000030010B50020002B17D1134C0333226BAC
:1047F0001340022B15D0032B18D0012B0ED0FFF73E
:10480000CDFF62680D491206120F8A5C6368D040C2
:104810005B050B4A5B0FD35CD84010BDFFF7BEFFB2
:10482000FBE7206A8007C00FC003F6E72068054B4E
:104830008007C0171840F0E700100240CC70000855
:10484000C470000800127A001C4A30B503688D68F5
:104850000C88904221D08022D205904222D0184A62
:1048600090421FD0174A904220D0174A904205D05C
:10487000164A904202D0164A90421BD1154A134064
:10488000CA6813430360C56284620B7C0363012220
:10489000436913434361002030BD702293434A684B
:1048A0001343EBE7702293434A681343094A1340CA
:1048B000CA6813430360C5628462E8E7002C0140C4
:1048C000000400400020004000400140004401403E
:1048D00000480140FFFCFFFF802370B55B00994258
:1048E00000D173E03FD8012900D1AAE010296BD193
:1048F000036A6F4C8B430362066A456883692340F1
:10490000146824021C4320239E4313691B01334374
:104910008B43516809011943664B984208D0664B96
:10492000984205D0654B984202D0654B984213D10E
:104930008023994353699B010B4340218B4391682A
:10494000890119435F4B1D4093699B002B435E4DCA
:104950002B40D569ED001D43D368456084618363B6
:104960000162002031E080235B0199422CD1036A6F
:10497000564E4F4D33400362046A4168C3692B4071
:1049800015682D021D43524B1C4013691B03234322
:104990005468334024032343464CA04208D0464C7D
:1049A000A04205D0454CA04202D0454CA04204D1C3
:1049B000484C0C40916989012143D2684160C5612E
:1049C00002640362002000E0012070BD036A424ED1
:1049D000334003627323046A4568C16999431368CD
:1049E00019433E4B1C4013691B0223435468334058
:1049F00024021C432F4B984208D02F4B984205D0DD
:104A00002E4B984202D02E4B984213D12E4B1C4075
:104A100053699B0223432B4C23409468A4021C43FC
:104A20002A4B1D4093691B012B43294D2B40D5690F
:104A30006D011D43D3684560C161C36304620020FA
:104A4000C3E77326036A8B430362036A446885697C
:104A5000B543166835430226B343166933438B4387
:104A600051680B431349884208D01349884205D046
:104A70001249884202D01249884212D108218B4340
:104A80005169890019430423994393689B000B43A0
:104A90001149214094692143104C2140D46964009C
:104AA0000C43D268446085614263036200208CE756
:104AB000FF8CFFFF002C01400040014000440140FA
:104AC00000480140FFFBFFFFFFF7FFFFFFEFFFFF85
:104AD000FFDFFFFFFFBFFFFFFFFEFFFFFFFDFFFF49
:104AE0008A680B7B13430B4A13404A6813430A4AF4
:104AF00013400A681343094A1340CA891343084AFA
:104B000013400A691343074A13404A691343436435
:104B100000207047FFFBFFFFFFF7FFFFFFEFFFFFE6
:104B2000FFDFFFFFFF3FFFFF70B5036804000D00CC
:104B300084B0DB071DD44B68C96802680B43296940
:104B40000B43A9690B4320490A40134303604368A0
:104B50001E4A1340AA681343436083681C4A1340EB
:104B60006A69134383601B4B984205D01A4B9842E5
:104B700018D0012004B070BD0020FFF731FE0028DE
:104B8000F7D029680029F4D08022AD694B081202C1
:104B900095420DD01818FCF79BFA03041B0C00205B
:104BA000E360E7E701AE3000FFF7C0FD0398E6E7FA
:104BB0004000C018FCF78CFA084B03400007400F78
:104BC0001843E0600020D5E7F369FFFFFFCFFFFF48
:104BD000FFFCFFFF0038014000440040F0FF0000F0
:104BE000FA2110B58900FCF773FA0022034B013853
:104BF00058609A6005321A6010BDC04610E000E0AF
:104C0000014B18607047C0467C040020054A064BE3
:104C100091881980054B118819805288044B1A809D
:104C20007047C046E40700209C0600209A0600203A
:104C300098060020074A0849084B91600321D36079
:104C400053681B0C1B040B435360136802390B435E
:104C5000136070470800024040240140E407002030
:104C60000023114A82B001939168104B1940183308
:104C70000B4393609368002BFCDB01230193019BA2
:104C8000002B05D0019B013B0193019B002BF9D127
:104C9000054A064993680B4001210B439360136852
:104CA0001942FCD002B0704700240140E8FFFF7FAA
:104CB00070B592B01022002103A802F075F91422F9
:104CC000002107A802F070F9102200210EA802F0BE
:104CD0006BF98021414B89009A6990200A439A61BF
:104CE0009A69C0050A4080210292029A5A69890293
:104CF0000A435A615B6940220B400193019B0323E5
:104D00000CA90C920D93FFF78BFC90200025082234
:104D100003230CA9C0050C920D931095FFF780FC9E
:104D20002F4B30491A6840200A401A601A682E49F1
:104D300008260A4020211A601A682C4C0A431A607F
:104D40001A68603182431A601A680A431A60196847
:104D5000274A1140802252000A431A601968254AE6
:104D600011408022D2000A431A60A36A22493343C9
:104D7000A362A36A0343A3628023A26A5B02134374
:104D8000A3620A681D4B20001A4080231B041343B2
:104D90000B60802303A91B060393049505950695D4
:104DA000FFF70CFC012307A920000A93079508953B
:104DB00009950B95FFF71CFC04220721E368934338
:104DC000E36063698B4301390B4363616368934319
:104DD00063606368B343636012B070BD001002404B
:104DE00008000240EFBFFFFFFFCFFFFF002401409C
:104DF000FFFCFFFFFFF3FFFF08270140FFFF3FFE1F
:104E0000074A084B944680221868074BD2011B685A
:104E10006344DB009A400E331040D840C0B2704764
:104E2000E4FFFEBF1C0001406C040020044B054958
:104E30001A680A401A60802292035A617047C0467D
:104E400000040140FFFFDFFF8023034A9B0311683A
:104E50000B4313607047C04600040140164B1B789B
:104E6000012B10D0042B0ED0022B1AD15122134B40
:104E70001A60134B1B78002B0CD1124AD36080238D
:104E80009B0393600CE061220C4B1A600C4B1B7867
:104E9000002BF2D000220B4B9A6080229203DA6042
:104EA0007047052BE2D0032B03D14122034B1A603C
:104EB000ECE7062BF9D0E9E7C40000201C00014014
:104EC000A003002000040140F0B54746CE4680B55F
:104ED00085B016006A46CB0F5B185B1098465B00E6
:104EE0000733DB08DB00D31A00AF9D460C00814678
:104EF0004246002168466D4602F056F8012C0BDD53
:104F0000484600234178027809025C000A430133D5
:104F10002A5302309845F5DC434601212C4A7B6038
:104F2000D3681942FCD113691B0605D5294B1B68B0
:104F30005360294B1B685360B30517D10221244AE3
:104F400013690B431361566113693E310B431361BF
:104F50003F39D3681942FCD12023D1680B4200D0DD
:104F6000D36002211A4A13698B4313610023BB608B
:104F7000FB60FA687B689A421FD201202022144904
:104F80000B6903430B61FC68BB686400645B9B199D
:104F90001C80CB681842FCD1CB681A4200D0CA6092
:104FA0000B6983430B61BB680233BB60FB68013351
:104FB000FB60FC687B689C42E2D38021BD46044ACA
:104FC00013690B43136105B0C0BCB946B046F0BDD0
:104FD000002002407404002070040020002A06DD36
:104FE0005218401A0B78435401319142FAD170475C
:104FF00000208022174B52021870174BD9680A43C1
:10500000DA60DA6815490A40DA6041220121144B5E
:105010009A61373A1A62134A12789A62124ADA622D
:105020005A690A435A615862104A1148D0601148BF
:105030009060114800785060104810608022D86855
:1050400092000243DA601A6A0A431A621A680A4333
:105050001A607047EB07002000100240FFFFFEFFC0
:105060000040014078040020FFFF0000580002408B
:10507000EC07002034400140620400208B0900004E
:1050800001228021194B49021A70194BD86801433B
:10509000D960D96817480140D9606021164B17487C
:1050A00099615D3919621649097899623D21D96281
:1050B0005969114359611349C860134888601348FE
:1050C000007817304860124808608021D86889004D
:1050D0000143D960196A114319628021586C090291
:1050E0000143596419680A431A607047EB070020AE
:1050F00000100240FFFFFEFF00400140A804002016
:10510000D00700205800024034400140EA07002048
:105110009B09000090230420DB051B6918407047A1
:1051200090223021D205D3688B4320390B43D360C2
:105130007047C04600B51B4B1B4883B01B4A9A18EA
:1051400002CB11608342F9D10123194A91691943B5
:1051500091610321926913400193019B154B1A68D9
:105160008A431A601A680A43FA211A60124B8900AE
:105170001868FBF7ADFF802301385B04984200D329
:10518000FEE7C0210D4A090650600D48036A1B0264
:105190001B0A0B430362002393600733136062B65C
:1051A00003B000BD00100008C010000800F0FF1799
:1051B00000100240000001407C04002010E000E0EC
:1051C00000ED00E00121324B10B51A680A431A6065
:1051D000304A1B6813680B4313600131136819428E
:1051E000FCD0F82113688B4378390B431360536B61
:1051F0007F390B435363274A0131536B1942FCD06B
:10520000F821536B8B4378390B435363536A7F39CF
:105210000B4353621F4A0131536A1942FCD0516853
:105220001D4B1940A0239B030B430F215360D36AEE
:105230008B43D362802311685B040B43802113608E
:10524000144A890413680B42FCD0F0215368114CB6
:105250008B435360536811490B40032153605368DB
:105260008B4301390B4353600C2263681340082BB6
:10527000FBD10B48FFF7B4FC0948FFF7C1FC04223F
:10528000636B93436363236B013A9343236310BDC2
:105290000020024000100240FFFFC2FFFFF8FFFFA6
:1052A000006CDC0200B589B01022002104A801F0D6
:1052B0007BFE8021144B89025A6990200A435A616F
:1052C0005B6902220B400193019B032302A9C005E5
:1052D00002920393FFF7A4F9202203239020029265
:1052E0000393002302A9C0050693FFF799F9C32190
:1052F000FF20064B89005A5882435A50802252019F
:105300001A6009B000BDC0460010024000E100E094
:10531000064B074A1A60074A1A6002225A60FA22AC
:1053200012019A60044A1A607047C046003000407B
:10533000CCCC000055550000AAAA0000F0B5DE460E
:1053400057464E464546E0B59DB01422002103A8BD
:1053500001F02AFE2022002114A801F025FE1822C7
:10536000002108A801F020FE182200210EA801F05B
:105370001BFE8022734E1201B369734D1343B36158
:10538000B36903A913400293029B704B2800904617
:105390000593FFF759FA80222B68914613432B603F
:1053A000AB686B4A6B4F13400822AB603B6800242C
:1053B00013433B6060239346012114AA28001493F1
:1053C00015941694179418941A9419941B94FFF733
:1053D00083FA04223B689246934342463B603B6813
:1053E000102113433B6014AA280015941694FFF76C
:1053F00073FA59463B68584A280013403B60574FA0
:105400003B680B433B6080235B009B4614AB1A0058
:10541000594615941694FFF75FFA51463B682800E9
:105420008B4341463B603B680B4380213B6014ABA0
:105430001A00490115941694FFF74EFA3B68464A44
:105440002C21134070223B606B68280093434A462E
:105450006B60AB6802279343AB6000220023089285
:1054600009936A462D23521813706B468022DC85FF
:105470000023920108A90C920D930A94FFF730FBC8
:10548000802273699202134373617369022513408A
:1054900080220193019B7369D20213437361736984
:1054A0000026134000930EA92D48009B12961397D7
:1054B0000E950F9510941194FFF7B2F801230EA9E1
:1054C00027480E93129613970F9510941194FFF797
:1054D000A7F890204B460EA9C0050E93129613977D
:1054E0000F9510941194FFF79BF880239020DB0018
:1054F0000EA9C0050E93129613970F951094119450
:10550000FFF78EF8802390209B000EA9C0050E9314
:10551000129613970F9510941194FFF781F890202D
:105520005B460EA9C005129613970E930F95109423
:105530001194FFF775F81DB0F0BCBB46B246A94602
:10554000A046F0BD00100240002C0140CF07000033
:10555000F8BFFFFF182C0140FFFBFFFF1C2C014090
:10556000000400488021104B4900DA6982B00A43E8
:10557000DA61DB690D4A0B400193019B17239362AB
:10558000FA23C4200A491B01D36280000B581B0276
:105590001B0A0B5080231B030B60802113680B43F5
:1055A000136002B07047C046001002400020004067
:1055B00000E100E00123114A82B0516919435161B1
:1055C000C2215269890013400193019B0C4B0D4A83
:1055D000585810408022D20302435A508022802023
:1055E000D2001A605A58C0051202120A02435A50D9
:1055F000802212011A6002B07047C04600100240BB
:1056000000E100E0FFFF00FF10B588B00822002194
:1056100005A801F0C9FC8021184B49029A69902025
:105620000A439A619A6900240A4080210192019AF2
:105630005A6989020A435A615B6904220B4000934C
:10564000009B022302920393032302A9C005049343
:105650000794FEF7E5FFC2208021094A8000135815
:10566000C9051B021B0A0B43135080231B01136047
:105670003F22044B9C62DA6208B010BD0010024069
:1056800000E100E000400140F0B5C646012500B54C
:1056900088B0FFF797FD80221026374C5205A3698A
:1056A00080272B43A361A369FF022B400293029B37
:1056B000E3691343E361E3691340304A0193019BBB
:1056C000136833431360802263699202134363615A
:1056D0006369904613400693069B636980223B43AF
:1056E0006361636912023B400793079B9023DB05CC
:1056F0009A62FFF75FFFFFF721FEE36917222B4352
:10570000E361E3691D400595059B80231C4DDB0586
:105710009A62DD62FFF7C6FDFFF724FFC420E3694C
:1057200080003343E361E369164A1E400496049BFC
:10573000154B19581140C02212020A431A50424612
:1057400032211A602F22114B9A62D962A3694E311D
:105750003B43A361A3693B400393039B0C4B9A62B9
:10576000DD621A688A431A60FFF74EFF00F028FBDB
:1057700008B080BCB846F0BD0010024000200240D6
:10578000FFFF0000FF00FFFF00E100E0001000400D
:1057900000480140014B58637047C046002C01404F
:1057A000014B98637047C046002C0140014BD86301
:1057B0007047C046002C01400121024A53690B4347
:1057C00053617047002C01400022024B9A625A62DA
:1057D0007047C0460040014010B501241021454BE0
:1057E00082B01A6A22431A621A6A0A431A62802233
:1057F000196A52000A4304211A621A6A0A431A6299
:105800001A6A3C310A431A628022196AD2000A439A
:105810001A628022196A52010A431A6264221A64C7
:105820001A6822431A608022596C12020A435A6491
:105830005A6922435A61304B1A6A22431A621A6823
:1058400022431A602D4B1A6822431A605A69224378
:105850005A61DA682243DA60DA68A243DA60284BD8
:105860001A6822431A605A6922435A618023DB0571
:105870001A6822431A605A6922435A61214B1A68F6
:1058800022431A605A6922435A61DA682243DA6075
:10589000FFF70EFAFFF7CEF9FFF7E2F900231A4AF5
:1058A00001931368194923431360194B1868FBF7D8
:1058B0000FFC43001B185B000193019B002B05D0DC
:1058C000019B013B0193019B002BF9D1C120802159
:1058D000104A8000135809061B021B0A0B43135081
:1058E0008023136080230C4A1B0211680B43136052
:1058F00002B010BD002C01400040014000200040DB
:1059000000480140001000401C000140400D030011
:105910007C04002000E100E0000401409023DB054E
:105920001968194A0C201140802252030A431A6058
:105930008022D2009A621968144A11408022D20251
:105940000A431A60802292009A621968104A114034
:10595000802252020A431A6080220E4952009A6243
:105960000A688243043802430A600A6805388243A1
:10597000013802430A601968074A11408022120266
:105980000A431A607047C046FFFFCFFFFFFFF3FFD7
:10599000FFFFFCFF00040048FF3FFFFF0E4B0F4AD4
:1059A0001B7D002B10D1032113688B4302390B435D
:1059B000136091629021C9050A68094B1A4080233F
:1059C0001B0313430B607047032113688B4301399A
:1059D0000B431360EEE7C0460007002000040048B8
:1059E000FFFFF3FF114B1B7D002B14D19023DB0530
:1059F00019680F4A11408022D2010A431A6080229E
:105A00009A629021C9050A680A4B1A4080239B02BA
:105A100013430B6070479021C9050A68044B1A4074
:105A200080231B0213430B60EBE7C04600070020F6
:105A3000FF3FFFFFFFFFFCFF0E4B0F4A1B7D002BBC
:105A400011D10C2113688B4308390B4313600223D7
:105A500093629021C9050A68084B1A4080239B0372
:105A600013430B6070470C2113688B4304390B43BD
:105A70001360EEE70007002000040048FFFFCFFF9F
:105A80000C211C4A13688B4308390B431360022313
:105A900093629023DB051868174908408021490369
:105AA0000143196080210320C90099621168814374
:105AB00002380143116090621968104A1140802237
:105AC000D2020A431A60802292009A6219680C4A34
:105AD00011408022D2010A431A6080229A6219681A
:105AE000084A1140802252020A431A608022520062
:105AF0009A62704700040048FFFFCFFFFFFFF3FFEB
:105B0000FF3FFFFFFFFFFCFF10B506282CD8804B9E
:105B100080001B589F4603217E4A13688B4302393D
:105B20000B43136090239162DB0519687A4A114098
:105B30008022D2020A431A60802292009A62196877
:105B4000764A11408022D2010A431A6080229A616B
:105B50001968734A1140802252020A431A60802257
:105B600052009A62FFF768FF10BD9023DB051968A9
:105B70006A4A032011408022D2010A431A6080221F
:105B80009A621968664A1140802252020A431A60DA
:105B90008022604952009A620A68824302380243B6
:105BA0000A60886119685C4A11408022D2020A4367
:105BB0001A60802292009A62FFF73EFFD4E70C2120
:105BC000544A13688B4308390B43136002239362D2
:105BD0009023DB051868534908408021490301439D
:105BE000196080210320C90099621168814302383D
:105BF0000143116090611968474A11408022D20226
:105C00000A431A60802292009A62FFF7EBFEABE72C
:105C10000321404A13688B4302390B4313609023DE
:105C20009162DB0518683C4908408021C9020143A4
:105C3000196080210C20890099621168814308381D
:105C400001431160022191611968364A1140802296
:105C500052030A431A608022D2009A62FFF7C2FE02
:105C600082E79023DB0519682C4A0C201140802222
:105C7000D2010A431A6080229A621968284A1140A8
:105C8000802252020A431A608022224952009A62FC
:105C90000A688243083802430A6002228A6119684E
:105CA000204A1140802252030A431A608022D20007
:105CB0009A62FFF773FE57E70C21164A13688B436D
:105CC00008390B431360022393629023DB051968A4
:105CD000144A1140802252030A431A608022D200E3
:105CE0009A6219680D4A11408022D2010A431A6053
:105CF00080229A6119680A4A1140802252020A439E
:105D00001A60802252009A62FFF748FE2CE7C046D4
:105D1000A870000800040048FFFFF3FFFF3FFFFFEB
:105D2000FFFFFCFFFFFFCFFF0C211C4A13688B43D2
:105D300008390B431360022393619023DB05186835
:105D4000174908408021490301431960802103203D
:105D5000C900996211688143023801431160906162
:105D60001968104A11408022D2020A431A60802228
:105D700092009A6219680C4A11408022D2010A43AB
:105D80001A6080229A611968084A114080225202E2
:105D90000A431A60802252009A6270470004004849
:105DA000FFFFCFFFFFFFF3FFFF3FFFFFFFFFFCFF02
:105DB00010B5FFF741FEFFF7F1FDFFF713FE10BD31
:105DC00030B5002591B01C22002108A801F0ECF8A4
:105DD0008021464B05959A69C9010A439A619A69DF
:105DE000434C0A4080210192019A5A69C9020A4330
:105DF0005A615B6940220B400093009B0223029290
:105E00000393032301220493002302A93948069235
:105E10000793FEF705FC2368374AC620134010227B
:105E2000134323602368354AC02113402022236096
:105E300023688000934323602368203293432360C8
:105E4000236840321343236023682D4A0906134018
:105E5000236023682B4A13402B4A236013581B02EC
:105E60001B0A0B43135080231B051360E1235B02C5
:105E700008220893002309950A950B950E95234D4A
:105E800008A928000C920D93FEF74EFEAB68204A3D
:105E900020491340AB606B681F4A13402A226B6095
:105EA000AB689343AB602B68293A13432B6023689C
:105EB0001A4A0B40102B14D0194BA260E3600C4B14
:105EC00018495A680978120C12040A4302215A60D0
:105ED0001A680A431A601A6806310A431A6011B038
:105EE00030BD0F4BE260A360E9E7C04600100240FE
:105EF0001C00024000040048EFBFFFFFFFCFFFFF80
:105F0000FFFCFFFFFFF3FFFF00E100E0003801406E
:105F1000FFFBFFFF10400000FFB7FFFFEC08002071
:105F200028380140790400200C2008210D4B10B5C1
:105F30001A680D4C82430A430C491A604A68247857
:105F4000120C1204224380244A609A6822439A6009
:105F50000A687F3C22430A6004211A6882430A438C
:105F60001A6010BD00380140790400201C00024076
:105F700070B51C006B461E8A0B0A1B02C9B20904CD
:105F80001843130A1B060843210A164D1843090239
:105F9000D3B2E4B22404320A0B43120623432E7216
:105FA0002E00134328600022280007246B60093666
:105FB00003785A40082305E0013B5200DBB2D2B21D
:105FC000002B09D051B20029F6DA4900013B6140AB
:105FD000DBB2CAB2002BF5D101308642E8D16A7239
:105FE00070BDC046EC0800207047C046FEE7C046C2
:105FF0007047C0467047C0467047C046074B1A6896
:10600000920602D41A68120606D5102201215A609F
:10601000034A13688B4313607047C0460000024078
:106020001C00024010B5264B1B78002B03D0254BDB
:106030001B78002B1CD18022234BD20219681142FD
:106040000BD022490978002907D00A242048016A88
:10605000A143083C214301625A601B4B1A6892031A
:106060001FD41A68120302D5802252025A6010BD52
:106070008023154A5B0251680B4353600022154B85
:106080001A60154B1B78002B16D0FEF7B1FF0222C9
:10609000124B1A708023124A1B0211690B431361C1
:1060A000E5E78022012152025A600A4A13688B43B5
:1060B0001360FDF793FFEDE7FEF7E2FF0122E7E74C
:1060C000AA0500209306002000000240A005002041
:1060D0000040014058000240EB070020F806002075
:1060E000000401408022054B9203596910B511420A
:1060F00000D110BD5A61FBF755FFFAE700040140DB
:10610000054A10B51369DB0704D502235B4213610E
:10611000FCF786FD10BDC04600100040022210B5FD
:10612000024B52421A61FBF7F1FE10BD0020004005
:106130007047C0467047C046074A13699B0702D59F
:1061400003235B421361044A1369DB0702D5022370
:106150005B4213617047C04600400140074A136923
:106160009B0702D503235B421361044A1369DB07D3
:1061700002D502235B4213617047C0460004004011
:10618000084A10B513689B0706D40822054B196806
:106190000A4200D05A6010BD01235360FEF736FD5D
:1061A000F3E7C04600000240074A13699B0702D587
:1061B00003235B421361044A1369DB0702D5022300
:1061C0005B4213617047C046002C0140802210B52D
:1061D000024B12025A61FCF7F9FB10BD00040140AA
:1061E0007047C0469E2110B5C905041CFBF716F97F
:1061F000002803D1201C00F067FE10BD9E21201C4A
:10620000C90500F01FFC00F05FFE80231B069C46C2
:106210006044F2E74A02F8B5530ACE4699464B006D
:10622000C90F4746884646004502360E1B0E80B50C
:10623000C40F6F0A9209AD09F11A44454BD00029E9
:1062400038DD002B00D174E0FF2E00D1BEE08023AA
:10625000DB041A431B2900DCFDE0013D6B0100D487
:10626000AFE001256D42AD01AF093800FBF7E0F862
:106270003B0005388340864200DCD3E0B94D311A3B
:106280001D405A0700D19EE00F221340042B00D17D
:1062900099E004356B0100D495E0481CFE2951D1EA
:1062A000FF200023C0051843E4072043C0BCB946C3
:1062B000B046F8BD002949D0991B002E72D1002D9F
:1062C00000D133E14C1E012900D159E1FF2900D151
:1062D0004CE121006CE0002900DC81E0002B55D16D
:1062E000002A70D04B1E012900D12BE1FF296DD06F
:1062F0001B2B50DC190020235B1A10009A40C84069
:10630000531E9A410243AD188023DB041D4200D185
:10631000ADE0711CFE2EC3D001206A082840924DCA
:10632000154005436A0700D08BE01D42B5D1EF0848
:1063300034E0002A47D04B1E012966D0FF2945D002
:10634000190087E7C0B2AB015B0AABE7FE239C46AE
:10635000701C03006046184200D092E0002E00D06E
:10636000E7E0002D00D119E1002A17D08023AF1AF1
:10637000DB041F4200D142E14446551B00D187E0B7
:1063800001201D42DFD10021EF0807E0FF2E1DD0C4
:106390001B2900DC94E031000535EF087B025B0A25
:1063A000C8B27FE7FF2B00D1E0E08020C0040543A6
:1063B0001B2900DC88E0551E44461E00690100D5FB
:1063C0004FE731000435EF08FF29E7D1002F00D156
:1063D00066E78023DB033B435B02FF205B0A61E748
:1063E000002958D0991B002E00D089E0002D00D143
:1063F0009DE04E1E012900D1A4E0FF2900D1B6E0A6
:106400001B2E00DDB8E0310081E0AA1A530100D450
:10641000AFE09701BF093800FBF70AF83B000538E9
:10642000834001261D00811B20200131CD40411AEF
:106430008B40591E8B411D432AD000216B0700D190
:10644000F0E00F232B40042B00D022E76B0100D596
:1064500023E7EF08A2E720235B1A10009A40C84008
:10646000531E9A410243AD1A6B0100D5FBE66B0740
:1064700000D1D5E00F2331002B40042B00D008E7DA
:10648000A1E7AF1A7B014ED4002F00D0EDE6002427
:106490000020002306E7FE23711C0B4221D1002EB1
:1064A00000D081E0002D00D19FE0002A00D1B2E0B1
:1064B000AB185A0100D4B0E09B0101205B0AF1E661
:1064C0008023DB041A4316E720242800C840611A01
:1064D0008D4029004C1EA141014344461E00551A1F
:1064E000C2E7FF2900D1DBE6AF187F087B0705D0A4
:1064F0000F233D1D3B40042B00D064E7FF084DE710
:10650000FF2B34D01B2937DC8020C0040543280032
:106510002026C840711A8D4029004D1EA941014313
:106520001E008D18F0E64446571B9EE644461500B3
:1065300049E7002D46D1002A66D180230024FF20A0
:10654000DB03AFE6AA18530113D5074F52081740D3
:10655000530744D00F231340042B40D002213D1D8C
:1065600031E7C046FFFFFFFBFFFFFF7D44464F467C
:106570002CE70121D70811E705321900D7080DE7EC
:10658000571B7B0137D5BF01BF093800FAF750FF11
:106590003B00053883404446013643E7002A00D1DA
:1065A00075E744464F46F9E6002DE0D08023DB0333
:1065B000002A17D09F4200D20BE7994500D308E785
:1065C0004F4606E78023DB03002A0BD09F4200D210
:1065D000FFE6994500D3FCE644464F46F9E6022122
:1065E000FF08DBE6FF203B435CE6002A00D14FE7D3
:1065F0000021D708D2E644460121FF08CEE6002F4D
:1066000000D07BE7002443E780234A46DB0344466F
:10661000FF20134346E60021C0E60021DF08BDE667
:106620003100D0E601206A0100D58BE62A00DFE7C1
:1066300070B542004E024C0045026D0A120EC30FA7
:10664000760A240EC90FFF2A10D0FF2C0CD001208F
:10665000A2420AD1B54208D18B420FD0002A04D100
:106660002800431E984100E0012070BD0120FF2C4E
:10667000FBD13543F9D14B401800F6E70020F4E791
:1066800030B5420044024D02C30F4800640A120EA6
:106690006D0A000EC90FFF2A18D0FF280AD0002A61
:1066A0001ED100280AD1002D29D0002C2DD1480060
:1066B000013830BD002D25D1002A01D1002CF6D0A3
:1066C0008B4219D001205B421843F2E7002C19D10C
:1066D000FF28F7D1002D15D100208B42F2D1E8E739
:1066E0000028EFD08B42EDD18242EBDC04DBAC42E0
:1066F000E8D80020AC42DCD258000138D9E7002CA1
:10670000D7D0DFE702204042D3E78B42DAD1EEE771
:1067100030B5420044024D02C30F4800640A120E15
:106720006D0A000EC90FFF2A17D0FF280AD0002AD1
:106730001BD100280AD1002D1DD0002C2DD14800DE
:10674000013811E0002D0ED1002A01D1002CF6D025
:106750008B420CD15800013806E0002C03D1FF28F1
:1067600005D1002D15D0022030BD002806D1012012
:106770005B421843F8E7002CF6D0F8E78B42F6D1DD
:106780008242F4DCE6DBAC42F1D80020AC42EBD232
:10679000E0E700208B42EAD1E6E78B42E7D1F2E75F
:1067A000F0B54F464646D6464502C0B546000F1CDA
:1067B0006D0A360EC40F002E00D1CDE0FF2E72D030
:1067C0008023ED00DB041D43002399469A467F3E5B
:1067D0007B025B0A98467B001B0EFF0F002B72D0DA
:1067E000FF2B00D1A9E07F3BF6184B460A2B00DDBA
:1067F00085E043468022DB00D2041A434B46904694
:106800007C400022022B0FDD494601238B40A6214C
:10681000C9000B4200D072E0902189000B4200D0E9
:10682000DAE08821194267D1280C42462D042D0C4C
:106830004346290012041B0C120C51435D43424392
:106840005843AD180B0C5B199A4203D980225202AF
:106850009446604409041A04090C52189501691EF3
:106860008D411B0C920E1B1815439B011D431B01F0
:1068700000D5CFE030007F30002800DCB1E06B07AE
:106880000BD00F2332002B40042B06D004352B01F4
:1068900003D5803210006A4B1D40FE2864DCAB013A
:1068A0005B0AC0B21FE0002D00D08FE0082399469C
:1068B000063B9A467B025B0A98467B00FF261B0E2E
:1068C000FF0F002B8CD14346002B5CD14A4601338D
:1068D0001A43914613000A2A11DC01227C40022B44
:1068E00092DC00200023C0051843E4072043E0BCED
:1068F000BA46B146A846F0BD3C00454692465346CE
:10690000022B31D0032B11D0012BEAD03000803084
:10691000721C002866DD6B07B9D00F232B40042BB7
:10692000B4D1B4E70F2A7AD03C0045468023DB037C
:106930002B435B02FF205B0AD5E74346FF36002B63
:1069400034D14A46023313430A2BD8DC7C40002A58
:106950000AD09946022257E7002D08D10423994610
:10696000033B00269A4633E7FF200023BBE72800BD
:10697000FAF75EFD7626431F9D4000237642994636
:106980009A46361A24E74046FAF752FD4B46361A25
:10699000763E0A2BB3DC43460538834098464B4687
:1069A00000227C40022B00DD2EE73DE703234A4610
:1069B0001A4313000A2AB5DC01229A4088211300E9
:1069C0007C400322194200D12EE795E70C2399461B
:1069D000093BFF269A46FBE680230024FF20DB03C9
:1069E00081E7320001231B1A1B2B00DD79E79E3261
:1069F00029009540D9406A1E95410D436B0704D08C
:106A00000F232B40042B00D004356B0113D501203C
:106A1000002368E701236A081D40154376E78023B9
:106A2000DB031D4282D042461A4200D07EE73C0082
:106A3000FF20134357E7AB0100205B0A53E7C04632
:106A4000FFFFFFF7F8B54746CE464B02460080B53C
:106A5000C40F4702580A844648007A0A360EBF0916
:106A6000000ECD0F9B09FF286DD001214D40311A3A
:106A7000AC423AD0002900DC9CE1002800D19EE025
:106A8000FF2E00D188E08022D20413431B2900DCB2
:106A9000F6E0013F7A0100D479E001277F42BF018F
:106AA000BB0998464046FAF7C3FC43460538834085
:106AB000864200DCCCE0B44F311A1F405A0768D040
:106AC0000F221340042B64D004377B0161D5481C8E
:106AD000FE2900D081E0FF200023C0051843E40711
:106AE0002043C0BCB946B046F8BD002900DC79E1BE
