:020000040800F2
:10100000003C0020B53F0008FD3F0008214C0008CF
:10101000254C0008294C00082D4C00080000000059
:10102000000000000000000000000000314C00083B
:10103000354C000800000000394C00083D4C000809
:10104000FD3F0008FD3F0008FD3F0008FD3F000890
:10105000FD3F0008FD3F0008FD3F0008A54D0008CA
:1010600000000000414C0008694C0008A54C000835
:10107000194D0008FD3F0008FD3F0008000000007A
:10108000814D0008FD3F000800000000494D0008A8
:10109000694D0008594D0008FD3F0008FD3F00085C
:1010A000FD3F0008FD3F0008FD3F00087D4D0008A2
:1010B000FD3F0008000000000000000000000000EC
:0C10C000FD3F000800000000FD3F00089C
:1010CC004FF0FF0C1CEAD0521EBF1CEAD15392EA1F
:1010DC000C0F93EA0C0F6FD01A4480EA010C4002FB
:1010EC0018BF5FEA41211ED04FF0006343EA501055
:1010FC0043EA5111A0FB01310CF00040B1F5000F97
:10110C003EBF490041EAD3715B0040EA010062F145
:10111C007F02FD2A1DD8B3F1004F40EBC25008BF2F
:10112C0020F00100704790F0000F0CF0004C08BF4D
:10113C0049024CEA502040EA51207F3AC2BFD2F11A
:10114C00FF0340EAC250704740F400004FF0000328
:10115C00013A5DDC12F1190FDCBF00F00040704762
:10116C00C2F10002410021FA02F1C2F1200200FAA0
:10117C0002FC5FEA310040F1000053EA4C0308BF67
:10118C0020EADC70704792F0000F00F0004C02BFB8
:10119C00400010F4000F013AF9D040EA0C0093F033
:1011AC00000F01F0004C02BF490011F4000F013B8D
:1011BC00F9D041EA0C018FE70CEAD15392EA0C0FFB
:1011CC0018BF93EA0C0F0AD030F0004C18BF31F066
:1011DC00004CD8D180EA010000F00040704790F03C
:1011EC00000F17BF90F0004F084691F0000F91F0E0
:1011FC00004F14D092EA0C0F01D142020FD193EAA6
:10120C000C0F03D14B0218BF084608D180EA01002D
:10121C0000F0004040F0FE4040F40000704740F009
:10122C00FE4040F44000704780F0004002E000BFF8
:10123C0081F0004142001FBF5FEA410392EA030FB5
:10124C007FEA226C7FEA236C6AD04FEA1262D2EBFF
:10125C001363C1BFD218414048404140B8BF5B4204
:10126C00192B88BF704710F0004F40F4000020F09D
:10127C007F4018BF404211F0004F41F4000121F0B3
:10128C007F4118BF494292EA030F3FD0A2F10102FD
:10129C0041FA03FC10EB0C00C3F1200301FA03F13B
:1012AC0000F0004302D5494260EB4000B0F5000F5E
:1012BC0013D3B0F1807F06D340084FEA310102F11D
:1012CC000102FE2A51D2B1F1004F40EBC25008BFCF
:1012DC0020F0010040EA03007047490040EB000099
:1012EC00013A28BFB0F5000FEDD2B0FA80FCACF19A
:1012FC00080CB2EB0C0200FA0CF0AABF00EBC250C7
:10130C0052421843BCBFD0401843704792F0000FB4
:10131C0081F4000106BF80F400000132013BB5E707
:10132C004FEA41037FEA226C18BF7FEA236C21D07D
:10133C0092EA030F04D092F0000F08BF08467047E2
:10134C0090EA010F1CBF0020704712F07F4F04D1B0
:10135C00400028BF40F00040704712F100723CBFC3
:10136C0000F50000704700F0004343F0FE4040F4ED
:10137C00000070477FEA226216BF08467FEA2363AB
:10138C000146420206BF5FEA412390EA010F40F496
:10139C00800070474FF0000304E000BF10F00043E2
:1013AC0048BF40425FEA000C08BF704743F09643C9
:1013BC0001464FF000001CE050EA010208BF7047E4
:1013CC004FF000030AE000BF50EA010208BF70476B
:1013DC0011F0004302D5404261EB41015FEA010C80
:1013EC0002BF84460146002043F0B64308BFA3F178
:1013FC008053A3F50003BCFA8CF2083AA3EBC2535A
:10140C0010DB01FA02FC634400FA02FCC2F1200278
:10141C00BCF1004F20FA02F243EB020008BF20F0AF
:10142C000100704702F1200201FA02FCC2F1200215
:10143C0050EA4C0021FA02F243EB020008BF20EA0A
:10144C00DC7070474FF0FF3C06E000BF4FF0010C22
:10145C0002E000BF4FF0010C4DF804CD4FEA400202
:10146C004FEA41037FEA226C18BF7FEA236C11D04C
:10147C0001B052EA530C18BF90EA010F58BFB2EBFF
:10148C00030088BFC81738BF6FEAE17018BF40F07F
:10149C00010070477FEA226C02D15FEA402C05D133
:1014AC007FEA236CE4D15FEA412CE1D05DF8040BB8
:1014BC00704700BF844608466146FFE70FB5FFF74B
:1014CC00C9FF002848BF10F1000F0FBD4DF808ED03
:1014DC00FFF7F4FF0CBF012000205DF808FB00BFF4
:1014EC004DF808EDFFF7EAFF34BF012000205DF84E
:1014FC0008FB00BF4DF808EDFFF7E0FF94BF01209B
:10150C0000205DF808FB00BF4DF808EDFFF7D2FF97
:10151C0094BF012000205DF808FB00BF4DF808EDDA
:10152C00FFF7C8FF34BF012000205DF808FB00BFA7
:10153C004FEA4002B2F1FE4F0FD34FF09E03B3EBD4
:10154C0012620DD94FEA002343F0004310F0004F14
:10155C0023FA02F018BF404270474FF0000070476A
:10156C0012F1610F01D1420205D110F0004008BF09
:10157C006FF0004070474FF00000704742000ED2F1
:10158C00B2F1FE4F0BD34FF09E03B3EB126209D4B2
:10159C004FEA002343F0004323FA02F070474FF068
:1015AC000000704712F1610F01D1420202D14FF0DD
:1015BC00FF3070474FF00000704700BF53B94AB975
:1015CC00002908BF00281CBF4FF0FF314FF0FF303F
:1015DC0000F00CB8ADF1080C6DE904CE04F00CFB76
:1015EC00DDF804E0DDE9022304B07047704700BF6A
:1015FC000348044B834202D0034B03B11847704796
:10160C00D0030020D0030020000000000548064B4A
:10161C001B1AD90F01EBA301491002D0034B03B1E4
:10162C0018477047D0030020D003002000000000B2
:10163C0010B5064C237843B9FFF7DAFF044B13B10E
:10164C000448AFF300800123237010BD5A0800201A
:10165C0000000000545F000808B5054B1BB105499C
:10166C000548AFF30080BDE80840FFF7CFBF00BFCF
:10167C00000000005C080020545F0008AB4AAC4935
:10168C00D36F106809882DE9F04F1B1A9BB2A94C37
:10169C005D09994283B02380658062D2A64909888E
:1016AC0099425ED9A54900230B8002F180062146A0
:1016BC00536852F8080B1B1A9BB29D422CBF002397
:1016CC000123B24241F8043FF2D1A56BA368D4F8D0
:1016DC0018A0D4F804E06169A26AD4F824B0206997
:1016EC00D4F820800193AE00656BE768D4F82CC069
:1016FC0083EA0A0946EAC50689EA02098EEA010567
:10170C0085EA0B054FEA890949EAC509E369256CA5
:10171C000093236B2E4380EA08055D4049EA0505DA
:10172C00009BD4F83C9046EA490687EA0309844BAF
:10173C0089EA0C0945EA490593F80090F6B2EDB236
:10174C00B9F1000F10D0DFF8FC9199F80090B9F1C5
:10175C00000F0FD1AE4211D0B4F850300133A4F8C1
:10176C00503003B0BDE8F08FDFF8D89199F8003015
:10177C00002B4FD0C6F10F06F6B2EBE76F4BB4F867
:10178C00465000261E80019B5B0243EA8E2343EAEF
:10179C000C0343EA072343EAC013013543EA8113E0
:1017AC000099A4F8465043EA4A13256B43EA011307
:1017BC00012D43EAC80308BF634E43EA8B0343EA97
:1017CC00420308BF35702F2B1CDC5A1E2E2A53D80F
:1017DC005E4A5F4D0021DBB211802B705D4A12789E
:1017EC00002ABED1564A1278002ABAD094F84B205F
:1017FC009A4251D0042B84F84B3058D9012384F8E9
:10180C004930AEE794F8482072BB514D2B78002B31
:10181C00A7D0E3E703F00AFCC0B194F844300133DD
:10182C00DBB2642B84F8443010D9012389F80030E2
:10183C00D4E901E30193E3690093D4E90370D4E99B
:10184C00051AD4E9088BD4E90A2C93E7D4E901E30F
:10185C000193E3690093D4E90370D4E9051AD4E940
:10186C00088BD4E90A2C70E73848394903800022E8
:10187C000A7084F8492074E7002BC6D194F84A20EA
:10188C003249012A324A08BF84F8483000230B80C1
:10189C00137084F8493064E7042B08D994F8492074
:1018AC000132D2B2052A84F849207FF65AAF0022C1
:1018BC00013B84F84920142B0FD8DFE803F00B7F91
:1018CC007B77730E6C65615D0E5528200E0E0E0E27
:1018DC000E191400204B01221A70204A297811701D
:1018EC0000232B703DE71E4A1E4B527C1A70F4E706
:1018FC001B4B1C4A5B7CC3F101031370EDE7002208
:10190C0040F6FF6384F84C20A4F84E30E5E794F8D9
:10191C004A3001214FF460628B4284F84C10A4F8D9
:10192C004E20DAD184F84830D7E700BF50070020AA
:10193C0038070020D0030020C4030020CE0600206E
:10194C009C060020DD060020C8060020880600202A
:10195C00F4060020870600209D060020F5060020D6
:10196C00C80400202B00002000F0ACFA154B164ADE
:10197C005B7C01331370B0E7124B01229A74ACE715
:10198C00104B00229A74A8E70E49104B012000223C
:10199C0048741A70A1E70B490C4B002001224874C3
:1019AC001A709AE7084B05221A7096E7064B042228
:1019BC001A7092E7044B03221A708EE7024B022234
:1019CC001A708AE7C80400209D0600202B00002016
:1019DC0030B5304DB5F84E30002B42D000221846B1
:1019EC00A5F84E201A0A82EA13125340DB4303F087
:1019FC000F0343EA0013284AAB6503F00F001913D9
:101A0C00145C515C44EAC134C3F30321C3F30313E4
:101A1C00515CD25C214B1B7844EA812444EA421489
:101A2C005A1C05EB820180204FEA830E05EB8303E1
:101A3C000866EC651A48596E00EB82004FF0010CF9
:101A4C0013220CFA02F32340D34083EAD111013A5A
:101A5C00C901531C40F8041FF3D1754400232B66B5
:101A6C0030BD104B1B785BB103460F2240FA02F1DC
:101A7C00012908D0013A082AF8D100226A65B1E799
:101A8C004FF6FF70F0E7083A104140EA422083B26B
:101A9C00F4E700BFD00300206C5F0008C7030020F0
:101AAC00300400208706002070B5049C904216DAA2
:101ABC00814216DAA34205D113E0904213DC0ED01A
:101ACC009C420CD001EB020C04EB030EB1EB6C0F3F
:101ADC00164625464FEA6C024FEA6E04EDD12046BD
:101AEC0070BD184670BD511C234632462C46DDE7AE
:101AFC00401A0028B8BF4042704700BF04494A6AE8
:101B0C0080B292B24B6A9B1A9BB28342FAD3704753
:101B1C000048014000F1FF3C58B106494A6A92B2B4
:101B2C004B6A9B1A9BB2B3F57A7FF9D3BCF1010CCB
:101B3C00F4D2704700480140026803FB03F303EB47
:101B4C00430C22EA0C0203FB01F10A4302607047CA
:101B5C0010B403FB03F3046803FB01F103FB02F273
:101B6C0003EB430324EA03040C430460C16810BC78
:101B7C0021EA03031343C360704700BFBFF34F8FC9
:101B8C000549064BCA6802F4E0621343CB60BFF30D
:101B9C004F8F00BFFDE700BF00ED00E00400FA0529
:101BAC0084468A1A0069DCF8081008B5DCF8203085
:101BBC00DCF804E0CCF8002001FB02009842A8BF3E
:101BCC0018465B429842B8BF1846DCF81830DCF86F
:101BDC000C10CCF81820D31A01FB03F3CCE9040346
:101BEC00DCF824100EFB023318448842A8BF0846C8
:101BFC0049428842B8BF0846CCF81C00FFF7CEFB20
:101C0C0008BD00BF30B5A84CA84D2046296883B04C
:101C1C00C02203F059F9E37D207E032B84BF0223FD
:101C2C00E375A0F10803282B39D8A0F11803182B61
:101C3C0040F2FC80A0F10C030B2B40F2278141F603
:101C4C0049530093102243F695230721FFF72CFFED
:101C5C00974B80B2A880D862637EA3F13202642ACB
:101C6C0027D9962255232A816B81A37E03EB83030C
:101C7C00DB0014330220EB8101F0BEFF637823BB41
:101C8C00E8894FF4FA73009340F6B8324FF47A7344
:101C9C004FF49671FFF708FFE88403B030BD844A17
:101CAC0041F28733EB80D362637EA3F13202642A64
:101CBC00D7D8227D002A40F08D805A0802F10A0103
:101CCC005B002B816A81A981CFE7A07F0B2888BF9D
:101CDC00052001F091FF94F8213094F8202094F81D
:101CEC00221094F82300A87503F26B335B006B820F
:101CFC0094F82430A3F10103B3FA83F35B0984F85D
:101D0C00C03094F82830053B142B84BF052384F88D
:101D1C00283094F8293002F27712013B092B4FEA54
:101D2C00420288BF0A232A8294F8252088BF84F8AF
:101D3C00293094F82A30FA3201F25E512A835A1E65
:101D4C00A982082A4FF0000184F8271025D90A230C
:101D5C0084F82A3094F82B30463B462B84BFFF2363
:101D6C0084F82B3094F82C30013B622B9CBF012360
:101D7C0084F8C13094F82D30013B092B84BF052326
:101D8C0084F82D3094F82E30092B2DD8042B33D811
:101D9C00DFE803F02A6978326F00C3EB4312C3EB20
:101DAC0082035B001A3BDBB2C82B58D81A46184684
:101DBC00AB762B893E4913442B816B8913446B8181
:101DCC00AB8B1344AB83EB8B1A444B6CEA8303430E
:101DDC004B64BFE7374A2B81A2FB03235B0803F15B
:101DEC000A026B81AA8140E7334A0023012184F85F
:101DFC00C23084F8C3301170E889304AE47EB0F503
:101E0C00967F3CBF002385F820302A4BA2FB0012A2
:101E1C00A3FB001352092021DB08B1FBF4F1B2FB48
:101E2C00F1F2B3FBF1F36A84AB842AE740F6C313F7
:101E3C000093302241F287331821FFF735FE034619
:101E4C00207EAB80A0F10C030B2B1FD9A0F1080353
:101E5C00032B7FF6F4AE164BA888D862FCE6C82399
:101E6C0018461A46A4E7144A012384F8C2301370AA
:101E7C00C2E71349104A01230B700021117084F83A
:101E8C00C230B9E7012384F8C330B5E741F2873398
:101E9C000093182242F20E730C21FFF705FE034645
:101EAC00AB80207ED2E700BFC804002000000020D9
:101EBC00002C0140ABAAAAAA180400201F85EB51E4
:101ECC001A040020044B054893F828C01A6880F8BF
:101EDC0001C0C02102F09EBF00000020C8040020F9
:101EEC0000B5104A104892F8C430B2F8C6E0D2F8E7
:101EFC00C81002EB430C0133DBB2642B28BF002368
:101F0C0082F8C430BCF8CC30ACF8CCE07144CB1ABD
:101F1C00A0FB0310C0F34F10C2F8C830A2F8940114
:101F2C005DF804FBC80400201F85EB5108B502F0D6
:101F3C0045FF0E4B93F829203AB140B90C4A92F860
:101F4C009631013382F8963108BD0028F6D1084A43
:101F5C0093F82A1092F897310133DBB2994282F848
:101F6C009731F1D2002382F8963108BD0000002091
:101F7C00C804002038B5274C94F82B3094F82C204A
:101F8C00012B39D0531E13F0FF03234D22D084F8BC
:101F9C002C3002F0010384F8293072B695F899318F
:101FAC002BB362B602F026FFD5F89C21216B40F6CC
:101FBC00C4139A4284BF012384F82D3094F82C303A
:101FCC00002205EB430385F8962185F8A021A3F8A0
:101FDC00A21138BD0123062284F82C2085F89831F3
:101FEC0084F8293072B695F89931002BD9D194F830
:101FFC002C0003F03BFBD4E70132D2B2064D062A8B
:10200C0099BF84F82C2002F0010384F82C3085F859
:10201C009831C0E700000020C80400201B4AD36898
:10202C0023F0010310B5D360FFF7A4FF1849194C36
:10203C000B6BB4F8B02103EB4303134494F82F203B
:10204C0098080863C2B991F83420580912FB00F2C1
:10205C0092B291F82D10A4F8B421C2EBD303A4F8DA
:10206C00B63181B1D4F8B83142F20F7293429CBFB1
:10207C000133C4F8B83110BD94F8B22100FB02F260
:10208C00C2F38F12E5E702F0ADFEEBE7004401402E
:10209C0000000020C804002070B5254ED6F89C31F5
:1020AC007D2B15D9234B5B6A7C2B09D8B6F8BC3138
:1020BC00B3F5167F04D2D6F8B831B3F5FA7F19D33D
:1020CC0096F8BE310133DBB2642B86F8BE3128D8CA
:1020DC00194D95F83530002423B90CE095F83530BE
:1020EC00A34208DD02F06AFE95F82930834204F120
:1020FC000104F3D170BD72B602F068FEB6F8B611E9
:10210C000C480E4B446A002201314262A6F8B041E1
:10211C005A62D9621A61DA6842F00102DA6062B678
:10212C0070BD02F053FE0023C6F8B83170BD00BF7D
:10213C00C8040020001000400000002000440140B2
:10214C0070B5C44CA27CB4F8C03182B0002A00F047
:10215C000E8194F8C220C04D002A61D1AE7D94F856
:10216C00260076009C4606F57A71002800F04B811B
:10217C008B421BDD667C95F82B00B04200F0A982E7
:10218C0094F89921002A46D10022184640F2FF7398
:10219C0084F8C42100934FF4FA622F23FFF784FCD8
:1021AC00AE7DB4F8C0C1A4F8C2017600C6F57A724F
:1021BC00624521DD637C95F82B00C3F10101884257
:1021CC0000F0D58294F89931002B40F0B0810021B9
:1021DC002F23604684F8C411009340F2FF73FFF77D
:1021EC0063FCAE7DB4F8C0C1A4F8C2017600C6F59C
:1021FC007A739C45C0F29B8106F57A76B4450ADC6D
:10220C0094F899210023A4F8C23122B1012284F858
:10221C00993184F8C42194F8C230002B00F0AA80C4
:10222C00B4F8C031B3F5836F80F02881A3F130028C
:10223C0092B2B2F57A7F0FD2627C95F82B00C2F184
:10224C000101884200F0D5825A0095F83610313AD7
:10225C0092B2521AA4F8C2212F2B00F28B800023C9
:10226C0094F8C721A4F8C23184F8C63195F83730F8
:10227C009A4200F28680E67C002E00F09180B4F841
:10228C00C2011D2800F2AB800023A4F8C83194F8D9
:10229C00283003EB8303B0EB830F4FEA830180F20A
:1022AC00A98094F8C531002B5FD194F8D431002B60
:1022BC005BD0E27CB4F8C80150232E2112FB03132F
:1022CC00834280F2CD8094F8BF31002B00F0A882BD
:1022DC006B89002A00F087814FF4FA620092283350
:1022EC0040F2FF728921FFF7DFFB80B294F82630B1
:1022FC00A4F8D801002B40F06681E27CB4F8C861E8
:10230C0084F8993150212E2312FB0133B34280F211
:10231C00A780637FD4F8B8111E221A418A42B4F800
:10232C00D83100F2AD81B5F86A209A4294F8C130E8
:10233C0038BFA4F8D8213BB1B5F96C30B4F8D8212A
:10234C009A42C8BFA4F8D831D4F8E45100212846E9
:10235C00FFF7E4F848B12F2E07D92846FFF70EF9FE
:10236C00B4F8D8311844A4F8D80102B070BD3A4D75
:10237C00A4F8C23194F8C72195F837309A427FF609
:10238C007AAFA37D002B3FF476AF03F031F902F066
:10239C001DFD00226623A4F8C82184F8C73180E70C
:1023AC0094F8CA31B3B194F8CB31002B76D1D4F870
:1023BC00D0613046FFF7E2F82849A4F8C80130464E
:1023CC00FFF7ACF8002800F0F38040F2FF73A4F89C
:1023DC00C83166E7B4F8C231A4F8C83161E71E28E9
:1023EC003FF455AF94F8282002EB8202920082420F
:1023FC00114672DC40F2FF720092A023FFF754FBEF
:10240C00A4F8C8014DE78B4273DD637C95F82B2053
:10241C009A4200F08D8140F2FF73009360462F23A7
:10242C004FF4FA62FFF740FBAB7DB4F8C0C1A4F8DF
:10243C00C2015B00C3F57A7262455EDC03F57A7308
:10244C006345FFF6E8AE0023A4F8C23184F8C63128
:10245C00E1E600BFC80400200000002000E0FF44BB
:10246C0094F8D531002B6FD0013B042B69D8DFE8F1
:10247C0013F06600940191018E016600627C95F860
:10248C002B10914200F0908195F836105A006FF4A1
:10249C0000663244521AA4F8C221DDE6D5E90E32A8
:1024AC000092B4F8C20140F2FF722F21FFF7FCFA40
:1024BC00E27EBB4B93FBF0F3520893FBF2F3B4F8C0
:1024CC00C221A4F8CC312E2A3FF671AF0023A4F818
:1024DC00C8612E64C4F8D031E3E6A02300931E211A
:1024EC002F23FFF7E1FA0346A4F8C831B4F8C20170
:1024FC00CDE6C6F57A729A42A5DD637C95F82B0081
:10250C00C3F10101884200F0F6802F23009360464E
:10251C0040F2FF730021FFF7C7FAAB7DB4F8C0C1DE
:10252C00A4F8C2015B00C3F57A72944586DA94F87C
:10253C00C230002B3FF41EAFB4F8C03176E601F088
:10254C0099FC002384F8D531227D94F8BF31002A00
:10255C0053D1A4F8D821002B40F08280227FC4F8FC
:10256C00B831012185F82D10002A77D194F89931D2
:10257C00002B00F0AC8194F82630002B3FF4F5AE24
:10258C00B4F8C0114FF47A70FFF7B2FAAA8800F5CC
:10259C007A739BB2013A9342A4F8DA31C0F29A8171
:1025AC0003F08CF994F8991100297FF4DEAE5FE00A
:1025BC007C493046FEF794FF00283FF472AE30237E
:1025CC00A4F8C8316DE6E37CB4F8C86150212E2222
:1025DC0013FB0123B342BFF643AF94F89931002BA0
:1025EC007FF4C3AE95E64FF4FA6200922F2140F2CD
:1025FC00FF72FFF759FA80B278E6002B4DD0E07CE1
:10260C0094F8991195F82C30B5F86820013BC3EB80
:10261C00031302EB83031AB2B2F5B47F9BB280F2C0
:10262C001B81A4F8DC2103F1770212B2B2F5B47F5E
:10263C00C0F21F81A3F1F102A4F8DE21793B1AB29A
:10264C0001284FF00003A4F8E02108BF84F8C5016D
:10265C00A4F8D83100297FF488AE09E003F02EF9F4
:10266C0094F8263094F89911002B9DD0002987D12D
:10267C00B4F8C861B4F8D8312E2E7FF654AE48E6C3
:10268C002A899A4284BFA4F8D8211346EA8B9A422D
:10269C003CBFA4F8D821134645E6227FC4F8B831D4
:1026AC00012685F82D6084F89731002A00F00C8102
:1026BC00E07C0028A4D194F8293003F2DE335B00CF
:1026CC00A4F8DA3102F0F8FEE07C84F89961314626
:1026DC0098E794F8C461A4F8C2214FF0010C84F877
:1026EC0099C1002E3FF497ADACEB000084F8992112
:1026FC0085F82B0048E5E88C296B884280F0C38074
:10270C00B4F8BC11C72900F2BE800122002685F85E
:10271C002D20C4F8B86185F82B3002F057FBAA7D48
:10272C00B4F8C0C184F8C6615200C2F57A72ECE606
:10273C00E88C2A6B904280F0B080B4F8BC21C72A98
:10274C0000F2AB80C3F101030026012285F82B3087
:10275C00C4F8B86185F82D2002F038FBA97DB4F8D7
:10276C00C0C184F8C661490001F57A7153E694F84A
:10277C00C40100210126A4F8C21184F89961002833
:10278C003FF4D5AE85F82B3084F899111FE501F094
:10279C0003FBD6E601F0CEFBD3E601F09BFBD0E6C3
:1027AC000087930300004042E98C2B6B99424ED278
:1027BC00B4F8BC31C72B4AD8C2F101020123002660
:1027CC0085F82B2085F82D30C4F8B86102F0FEFA9C
:1027DC00B4F8C03184F8C6616FF40060590001444C
:1027EC0095F83600A3F13002091A92B2A4F8C2117E
:1027FC001FE5E98C2B6B994222D2B4F8BC31C72B64
:10280C001ED80123002685F82D30C4F8B86185F850
:10281C002B2002F0DBFAB4F8C03184F8C66113E562
:10282C0002F0E6FE95F82D30002B47D02B89E27C88
:10283C00B4F8C801A4F8D631012184F8BF1147E5DA
:10284C0094F8C531002BDCD1A4F8C03107E594F81D
:10285C00C531002BF8D0AFE7A3F1F102A3F5B476A4
:10286C0092B2B6B2B2F5B47FA4F8DC611FD212B248
:10287C003346A4F8DE2103F1EF0212B2B2F5B47FB5
:10288C00FFF6DEAEDAE694F8C51100297FF43DAF11
:10289C004FF47A7CA4F8C0C137E694F8C521002A1D
:1028AC007FF450AF4FF47A7CA4F8C0C1B3E56FF459
:1028BC0016721344A4F8DE313346BFE694F8BF31E8
:1028CC0083B102F08FFAB1E702F092FE97E602F0C4
:1028DC008FFEC5E602F0F0FD94F8991100297FF403
:1028EC0044ADC5E6FFF746FB054B42F2107141F2D1
:1028FC00883229635A62012384F8BF31E1E700BFB3
:10290C000010004010B50E4C94F8E831012B0DD09E
:10291C00022B03D0BDE81040FFF712BCB4F8EC0159
:10292C00FFF756F8002384F8E83110BDFEF7A6FE39
:10293C00002384F8E831BDE81040FFF701BC00BF6C
:10294C00C8040020F8B5504E504F96F82B20B7F81D
:10295C00DC31002A75D101331BB2B3F5B47FA8BFAB
:10296C001346B7F8DE21A7F8DC311946531C1BB20D
:10297C00B3F5B47FA8BF0023A7F8DE31B7F8E03178
:10298C0001331BB2B3F5B47FA8BF0023A7F8E03125
:10299C0006EB4103B6F84013B3F97030B2883C4DE6
:1029AC003C4C0B4402FB03F385FB0312DB17C3EB1C
:1029BC00E21397F82D2002FB03F3D81784FB0323B3
:1029CC00C0EBA30080B202F0D9FCB7F9DE3106EB04
:1029DC004303B3F97000B6F840331844B38803FBD3
:1029EC0000F085FB001297F82D30C017C0EBE210F9
:1029FC0003FB00F084FB0023C017C0EBA30080B2E4
:102A0C0002F0C2FCB7F9E03197F82D2006EB430336
:102A1C00B3F97000B6F840331844B38803FB00F0E8
:102A2C0085FB0035C017C0EBE51002FB00F084FB02
:102A3C000034C017C0EBA40080B2BDE8F84002F02F
:102A4C00A9BCB7F8DE11B7F8E021013B013940F21F
:102A5C00671009B21BB233EA230428BF0446013ABB
:102A6C0031EA210328BF0346A7F8DE3113B2002B4D
:102A7C00A7F8DC41A7F8E031BABFB7F9DC11A7F829
:102A8C00E00121B284E700BF00000020C804002050
:102A9C00D34D62106766666638B5254D25492B6B9C
:102AAC00486A254C03EB430313FA80F300224A6275
:102ABC009A082A635A09520092B2C2EBD303A4F8C3
:102ACC00B4214A6AA4F8B0019BB29A42D4F8B80176
:102ADC00A4F8B63101D2042815D8FFF74BFA00211F
:102AEC00D4F8B831627F84F8961184F8971194F871
:102AFC00261001330A43C4F8B8310BD12B6BB3F554
:102B0C00FA6F0DD338BD4A6A9A42E6D24A6A9A42A3
:102B1C00F9D3E2E7132BF5D92B6BB3F5FA6FF1D898
:102B2C00002385F82D30BDE8384002F05BB900BFBA
:102B3C000000002000100040C8040020F8B5BB4C79
:102B4C00B4F8F211B4F8F001B4F8F42194F8D431DB
:102B5C00B4F8D851A4F8BC510131A4F8F21194F88E
:102B6C00F611013001320B43A4F8F001A4F8F42162
:102B7C003ED194F8F721002A3AD0B4F8C251002D76
:102B8C0040F08A81B4F8F83101339BB244F62061ED
:102B9C008B42A4F8F8312BD9B4F8FA311E2B40F241
:102BAC00B08194F8C030012184F8D411002B00F0CE
:102BBC00AD81B4F8FC119E484B08A0FB0303DB0964
:102BCC00B1F5B97F84F8F6310DD39A4E4AF6AA279F
:102BDC0001F01AF96420FEF79DFF94F8F631376086
:102BEC000135AB42F4DC94F8C3300BB984F82630D1
:102BFC00E37F6BB1904AB4F8FE3192F84223013373
:102C0C009BB202EB8202B3EB820FA4F8FE3158DCCC
:102C1C0094F8C531002B36D1874E96F82D3023B160
:102C2C0094F8BF31002B40F01781B4F8F431F588DB
:102C3C00142B2ED896F89C33002B49D1B4F8BC2118
:102C4C0094F8D43123B194F8BF31002B40F0DF80DD
:102C5C0094F89931002B63D0B4F8DA317748B18805
:102C6C0005FB03F380FB0360DB170131A3EBE013DF
:102C7C000B449BB27249A4F80432CD62A4F8D6215D
:102C8C00C1E90D33CB63B4F806320133A4F8063234
:102C9C00F8BD94F8C1300022A4F8F421002B47D0E1
:102CAC0094F8BF31002B40F0FA80637F002BC1D128
:102CBC0094F8CA31002BBDD094F8BF31002BB9D099
:102CCC005FE00122002384F80022A4F8FE319FE784
:102CDC00D4F8B821B4F8D631952A7FD9952B7DD963
:102CEC00D4F89C21B2F5FA7FB4F8BC2194BF102023
:102CFC000420A2EB030C0146844586F89D1377DD76
:102D0C001944336B8AB2B3F5FA7FA4F8BC2140F2B4
:102D1C00BF80012386F89E33E37D86F834308FE73D
:102D2C00464905FB02F3A1FB0313C3F3CF13A1E741
:102D3C00637F002BBCD094F8BF31002B3FF47AAFEB
:102D4C00B6F87023316B3F48FEF72AFF3E49FEF779
:102D5C00B7F90146D4F8E401FEF76CFA00210746F6
:102D6C00FEF7D2FB00B9002738493846FEF7C2FB04
:102D7C0000B9364F94F8CA31C4F8E471002B3FF413
:102D8C0059AFB4F8CC21D4F8EC113148FEF708FF58
:102D9C002D49FEF795F90146D4F8D001FEF74AFA11
:102DAC0000210746FEF7B0FB00B900272949384639
:102DBC00FEF7A0FB00B9274FD4F8B831C4F8D07196
:102DCC00632B3FF637AF96F89C33B4F8BC21002147
:102DDC003165002B3FF434AFB4F8D631B4F8BC21D4
:102DEC000120A2EB030C0146844586F89D1387DC79
:102DFC00A3EB020C8445E77D48DD5B1A9AB20023F5
:102E0C0086F83470A4F8BC2186F89E3318E7B4F821
:102E1C00C8312F2B7FF61CAF084905FB02F3A1FB31
:102E2C000313DB0901339BB224E700BFC804002065
:102E3C00B9D31FB10030004000000020D34D621008
:102E4C00002C01407403002017B7D1380000164342
:102E5C004000002000E0FF4401F0B8FFFFF766F8E7
:102E6C0094F8A031002B7FF4E0AE96F8293094F85A
:102E7C009621002B3FD096F843339342BFF4D5AE46
:102E8C00012384F8A031FFF707FECEE686F83470F4
:102E9C00002386F89E33D3E6A4F8F831A8E694F81C
:102EAC002C20B4F902121B4802EB820202EB8202C4
:102EBC00D200FEF775FE1849FEF702F9FEF738FB53
:102ECC00B6F86C301B1A1BB21A46A6F86C30738914
:102EDC009A42BCBF1AB2A6F86C20AA4201DDA6F831
:102EEC006C50637F002B7FF42BAF94F8CA31002B0E
:102EFC007FF447AF9EE696F844339342BFF495AE09
:102F0C00BEE784F8F751A4F8F85171E600F07CFFA5
:102F1C0069E600BF4803002017B7D1382DE9F04F00
:102F2C0085B002F091F84FF47063CD4AD3F8E010FD
:102F3C00914205D1CB4AD3F8E410914200F0BC8306
:102F4C00C94DCA4C02F0BCF902F03AFAFEF75AFE2F
:102F5C00E378022B00F0F8835822C54B627141F2E2
:102F6C000211C44AA4F8031003F10B0013F8011F5B
:102F7C0002F8011F9842F9D1FEF7A4FF637C227D71
:102F8C00A988E980013B18BF012385F82B3002B9D1
:102F9C00E27494F8263093B16989AA892B8932316D
:102FAC0001204FF47A766981323232330021AE83BC
:102FBC0085F82000C4F81200A175AA812B8100F0BD
:102FCC00A9FE0023A4F8FA3102F0A4F8AA4B4AF6A1
:102FDC00AA221A6001F0A6FF94F8CB3113B1012399
:102FEC0084F8CA3102F028F8A34FDFF89092DFF88A
:102FFC0090A2DFF890824AF6AA26B4F8A601B4F89B
:10300C00A431B4F8A811B4F8AA2103440B44B4F8C1
:10301C00AC01B4F8AE111344D4F8B8210344042A1B
:10302C008CBF032206220B4485F8442385F84323E6
:10303C005B10627D3E600233C4F8EC31002A40F034
:10304C00D181B4F8063242F21072934209D994F845
:10305C00D411002940F0178349F64042934200F204
:10306C003783B4F8F02144F620639A4223D9B4F99B
:10307C0002B25846FEF792F98349FEF721F8D4F8CC
:10308C000812FEF7D7F899F80030C4F80802022BA2
:10309C0000F0AE82032B00F09182012B08D194F842
:1030AC000C327A4A43F400731380022389F80030FF
:1030BC000023A4F8F031D4F8B831B4F8C221B3F538
:1030CC007A7F40F24881002184F8C711C72A40F268
:1030DC001282E07C94F80D12002840F03382002913
:1030EC0040F03282D4F8EC3194F8982188FB03013B
:1030FC00A1EBE3710A23C4F89C1185F837305AB35D
:10310C00D4F81002FEF7F4FCD4F89C31B0EB530F5A
:10311C001DD9B3F5FA6F1AD294F81422013284F83F
:10312C001422A27C0021C4F8B811002A40F0B88007
:10313C00B4F8C8212F2A40F2B380002284F8BF21B2
:10314C002A895208A4F8D621012285F82D200022C4
:10315C0084F89821C4F8103294F81532002B00F042
:10316C00A5802B6B322B40F2A180494B1022002101
:10317C0083F80B1383F8152383F80C2394F800328F
:10318C00002B40F0A18094F818320133DBB2C82B2D
:10319C0084F8183200F2548194F8C5214FF0000BDA
:1031AC0084F8BEB1002A40F0A58094F8BF31394AAA
:1031BC00D4F8EC11384892FBF1F213FB02F39BB2FA
:1031CC00A0FB032095F82020A4F81632C008A4F820
:1031DC002602002A40F0D1814FF4FA6394F82B10A8
:1031EC0094F80C02A5F86A308142C0F0B981D4F889
:1031FC00B831632B00F200812B6BB3F5FA7F40F2F0
:10320C00FB800C2385F8353094F82F30002B40F0E0
:10321C000A81224A526A4AF6C8739A427FF6EDAE88
:10322C0094F8BFB1BBF1010F7FF4E7AE94F8C7314E
:10323C00013384F8C73101F0C9FDB4F8C83185F801
:10324C002DB02F2B05D8002384F8BF3141F28833E1
:10325C002B630023C4F8B831FFF71EFCCDE600BF8A
:10326C00DAE32559D963B84E00000020C8040020C9
:10327C00AC5F0008CD040020003000401C0400208E
:10328C001F85EB5156555555610B363B1E040020DE
:10329C0000E100E0C0270900CDCCCCCC00100040F0
:1032AC002A6BB2F57A7F7FF64BAF46E7CA4B00220A
:1032BC00102183F80B1383F8152383F80C2394F84F
:1032CC000032002B3FF45FAFD4F80802FEF756F93A
:1032DC00B4F81612B4F80222009183B2B4F8FC11BF
:1032EC0094F80C0202F040FB02F030FB002384F84F
:1032FC00003248E7B4F8C831302B4AD994F8D421BD
:10330C00002A46D0313B572B00F2838194F82832A7
:10331C00002B40F0F781FFF715FBE37EB4F8C801F2
:10332C0041F6583140F22A32B2FBF3F2B1FBF3F31F
:10333C00009230217822FEF7B7FBA5F8A40380B2E7
:10334C00FEF7DCFBB5F8A4234FF41673B3FBF2F3D2
:10335C00A4F8163251E6002A40F0DE8084F8C7212A
:10336C0094F80D22002A00F0E980002284F8C7218D
:10337C00D4F8EC2194F8980188FB02C1A1EBE2711E
:10338C00C4F89C1100283FF4E7AE0A2B7FF6E4AE9C
:10339C00B6E6237F4FF0010B84F828B2002B00F027
:1033AC00D880AB8894F82910A3F1130202EB4102E8
:1033BC00E98892B2A4F8BC2101FB02F2B2FBF3F251
:1033CC005B449B1AA4F8043202F076F8B4F8042299
:1033DC00824B84F899B1C3E90D22DA630023A4F877
:1033EC0016320AE6AB880093286B5B08C822602172
:1033FC00FEF75AFBE88024E60C230093D4F89C01DA
:10340C0003234FF4FA726421FEF74EFB2B6B85F805
:10341C003500312B9CBF022385F8353094F82F30C2
:10342C00002B3FF4F6AE17230093B4F8BC010D2328
:10343C004FF4FA626421FEF737FB84F8B201E8E638
:10344C0001F036FB0121664800F0F8FEB4F81A02D0
:10345C0001F0C8FBB4F81E22624BA4F81C0240F623
:10346C00E44B0BFB02F2A3FB0213D21A03EB520345
:10347C00B5F8A02384F80C02DB0A02FB03F3B4F8C2
:10348C00FC21AAFB0313C2EBC20202EB5312D210B3
:10349C00A4F8FC21FEF724FD534A94F8C010C4F89C
:1034AC0020020BFB00F3A2FB032343F30F2323EABD
:1034BC00E37394F8C521A4F80232C1B194F8F63143
:1034CC00288BB4F8FC1100FB03F3994280F29D8029
:1034DC00B4F824324FF67C41013344F620609BB2A1
:1034EC0012FB01018B42A4F8243200F31C8100234F
:1034FC0084F8183252E6E07C002184F8C71194F865
:10350C000D12002843D09F2A10D900297FF42DAF2B
:10351C000A2285F837202BE7642B3FF6D7ADE07CE9
:10352C0094F80D12002842D09F2A0BD8002084F862
:10353C00C70100297FF419AF952AE9D8642285F8D0
:10354C00372015E70029E3D0B2F5C87FBFF410AFE0
:10355C000BE7224AC2E90D33D36302F049F83DE789
:10356C00B5F8A233012200925B0801F10A020A3974
:10357C00FEF79AFAA5F86A0039E6B5F8A23300937B
:10358C00AB8BAA8C698CFEF78FFA83B226E60029E6
:10359C00D2D0D4F8EC3194F8982188FB0301A1EB3C
:1035AC00E371C4F89C11002A7FF4AAADD4E500297C
:1035BC00C2D0B2F5C87FBFF4DBAED6E6B4F8FC31AE
:1035CC000A4AAAFB0313C3F3C70343F480631380B3
:1035DC00012389F800306BE500E100E0002C01408C
:1035EC000024014001011000FF04EC4F1E040020D8
:1035FC005FFA8BF3AAFB03231B095D4A43F4C063F8
:10360C001380032389F8003052E50023A4F82432F8
:10361C006DE7012384F82832FFF794F9B4F8C83128
:10362C00C82B04D95023A4F8DCB1A5F8A433B5F801
:10363C00A403FEF763FAB4F9DC31002B7FF4DDACA4
:10364C004C4984F8C531012284F8993142F228336F
:10365C002B63C4F89C31C4F8103285F82D204B62D2
:10366C0084F8BF21637F95F8A62385F82C201422BB
:10367C00C4F8B82113B1AB89A4F8D631FEF77AFCA3
:10368C0001F08EFEB9E401F0B3FF3B4B0025C3E91A
:10369C000D55DD6384F8D451A4F8C85184F8F75162
:1036AC00A4F8FA5101F084FE34484FF48072294694
:1036BC0002F01EFCFEF762FA93F8EC30304D2B2B27
:1036CC004ED0352B50D01F2B04BF2E4B2B6038E423
:1036DC00039101F08DFF0399274BC3E90D11D963B9
:1036EC0084F8D411A4F8C81184F8F711A4F8FA11CD
:1036FC00039101F05DFE039920484FF4807202F0B3
:10370C00F7FBD7E7204AD36823F00103D36001F01D
:10371C005DFB194BC3E90DBBC3F83CB002F00CF9CF
:10372C0084F828B2F7E54FF0000BA4F8C8B101F00B
:10373C005FFF01F04BFB94F8C52184F8BFB1A4F8EE
:10374C00FAB184F8D4B1D2E62379112B7FF404AC0E
:10375C00627895F828309A42BFF410ACFFF7FCBBA6
:10376C000A4B2B60FFF7EDBB094B2B60FFF7E9BB56
:10377C001E04002000100040002C014050070020C7
:10378C0000000020007C00080044014000F8010803
:10379C0000F80008F0B55F4CD4E90020801A6FF4F3
:1037AC00487240F2765382189A4283B034D85A4DFC
:1037BC005A4E00232B803378002B48D07378014667
:1037CC00ABB9B378002B00F08D80B088544F013327
:1037DC003988B370FEF78CF932283B8865D9002202
:1037EC0032707278B3809AB1D4E90031C91A40F2C0
:1037FC00E1429142B37909D84A480288C2EBC2022D
:10380C0001330A44DBB2D208B37102804B2B6CD863
:10381C000023B0682B8004E04049434B88680022A9
:10382C001A804249424A0B881268A0EB030C94455B
:10383C0004DD13449BB20B8003B0F0BD1C1AA242F2
:10384C00BABF9B1A9BB283B20B8003B0F0BD394A4E
:10385C00947C7CB1384A128890421AD831494FF482
:10386C007A7409880094FEF71FF904460023B460AB
:10387C002B80D6E72A4B1A882A4B198840F2FF7303
:10388C0000932F23FEF710F93028CCBF04462046B6
:10389C00ECE7234B511C1A884FF4FA63009340F267
:1038AC00E933FEF701F90446E0E7D4E90012C3EB73
:1038BC00C303521A1A44C2F3CF03B2783B80322AA4
:1038CC008FD9193B9BB23B80A3F2D663194A03EB09
:1038DC00D3735B1082F821300123737000F0CAFAA5
:1038EC003B887EE780B2B08070E70E4A114913889E
:1038FC0019339BB21380A3F2EE2303EBD3735B104B
:10390C00002481F820303470FEF7DCFAB47100F03A
:10391C00E1FA7DE750070020CE06002020070020AA
:10392C001200002010000020C20600208806002093
:10393C00BC030020C8040020140000201A4A9388FD
:10394C00591E022930B413D8184BD9683B290DD80D
:10395C000121174D1748197400232B70164C174B67
:10396C0021700E25057020209071197030BC7047A5
:10397C00043B042BFAD80D4BD9686329F6D80D48B3
:10398C000D4D0B4C4FF0030C83F810C00B4B4FF04C
:10399C00070C012180F800C0202029702170907143
:1039AC00197030BC704700BFBC03002020070020FA
:1039BC00C6030020C70300208A050020BF06002094
:1039CC00F8B5284B284F1968002544F6206E1A4686
:1039DC00A7F804E003F17804AC462E4652F8043FF5
:1039EC008B42A3EB0100194606D070453CBF1FFA71
:1039FC0080FE0126844401259442EFD10DB14FEA9B
:103A0C005C150EB1A7F804E0184C194A2378D56060
:103A1C00012B23D0174D2B78012B15D02278134373
:103A2C0011D1FFF78BFFBB88C93B44F656529BB2B2
:103A3C00934208D801231049104A2B707720087044
:103A4C000221B9711370F8BDBA88C93A44F65651BF
:103A5C0092B28A42F7D80849084AEFE7FFF76EFF9F
:103A6C00D8E700BF50070020BC0300208A050020C7
:103A7C00200700208B050020C6030020BF06002075
:103A8C0070B5504C237813B14F4B1B7833B94F4B57
:103A9C001B78002B4FD0012B0AD070BD4C4B1B78E0
:103AAC00002B35D001F03EFA4A4B02221A7070BD41
:103ABC00454B1B78002B31D1474D2B78012B6FD008
:103ACC00464B1B78012B62D02378002BE5D12B7849
:103ADC00002B3AD04249434B4A7C072A36D81888E7
:103AEC00052833D9404C4D69E06F24680132D2B2BD
:103AFC002844001B082A4A74486127D1C0F3CF021E
:103B0C003A4CC0F3CF101518121A25810A831DE008
:103B1C0001F042FA2F4B01221A7070BD2C4B1B780E
:103B2C007BB1334B1888FDF753FFFDF7A7FDBDE8BC
:103B3C00704001F0F7B9FFF743FFBDE8704001F0AA
:103B4C00F1B9BDE8704001F027BA264B294C20880A
:103B5C0030B9234A127842BB1A8801321A8070BDE0
:103B6C0040F2DC52002690421E8096D91C4D698B87
:103B7C00FDF7BEFF32281ED82B7F0133DBB2322B70
:103B8C002B7701D96E7896B123886B8370BD01F0C9
:103B9C004DFA164B88B103229A7101F0C3F993E7E1
:103BAC00FDF76CFD01F0BEF98AE7188070BD00F0DE
:103BBC00C1F901232B702E77E6E702229A71FFF7E9
:103BCC00E9FDEAE79C060020DD060020BF06002088
:103BDC004C070020B00600208A0500208B05002031
:103BEC0020070020C206002050070020BC03002044
:103BFC00B40600208A0600200B28034B28BF0B209C
:103C0C0040001870704700BF3D0700202DE9F84FA9
:103C1C00354C364D364E032001F028FD04F17C085E
:103C2C0000231DE094F83590DFF8C8C0324FC3EB89
:103C3C00C310F7224FF47A6B0EEB40000A2180B2CE
:103C4C0019FB02B2B9F1000F28D1CCE90D99CCF8CF
:103C5C003C90FDF75FFF0234A0454FF000030ED0FF
:103C6C0094F834E000224AF6AA21BEF1FF0F31602D
:103C7C002A80D7D102340133A045DBB2F0D101F058
:103C8C00B7FC1E481B4A0088194900239362D06276
:103C9C004AF6AA222B800A60BDE8F88FB7FBF2F235
:103CAC001748184FB0FBF2F080B2CCF82810CCF8C3
:103CBC002C003978144FB7FBF2F200FB01F1FE2017
:103CCC0013FB00E0114B02FB00F0114A83FB0113C4
:103CDC00DB0AA2FB0020CCE90D33CCF83C30C0F35E
:103CEC004F10FDF717FFB6E7C8040020CE060020E2
:103CFC0000300040002C0140C0D8A7000400002078
:103D0C00001BB7003D070020A086010057EAE068C1
:103D1C001F85EB5110B572B61A4B93F83430FF2B4C
:103D2C0007D0FFF773FF184A184B1288DA6262B695
:103D3C0010BD164C164B41F28732E2621B78E363DE
:103D4C00C4E90D33032001F091FC3723A362C82092
:103D5C00FDF7E0FE052001F089FC2823A362C820B2
:103D6C00FDF7D8FE062001F081FC1923A362C820C0
:103D7C00FDF7D0FE01F03CFC064A0023A362138041
:103D8C00D1E700BFC804002004000020002C014033
:103D9C003D070020CE06002070B5164C41F287334B
:103DAC00E36272B6144D154B3C224AF6AA262E60DD
:103DBC00A2621B78E363C4E90D33012001F056FCC9
:103DCC004B20FDF7A7FE5023A3624B20FDF7A2FE6C
:103DDC005A23A3624B202E60FDF79CFE01F008FCD9
:103DEC00074A084912880023A3620B80E26262B67C
:103DFC0070BD00BF002C0140003000403D0700208A
:103E0C0004000020CE06002010B572B6144C154AE2
:103E1C00154B4AF6AA2141F28730E062116050221C
:103E2C00A2621B78E363C4E90D33032001F01EFC8E
:103E3C006420FDF76FFE4623A3626420FDF76AFE43
:103E4C002823A3626420FDF765FE01F0D1FB074A2D
:103E5C00074912880023A3620B80E26262B610BD90
:103E6C00002C0140003000403D07002004000020E1
:103E7C00CE06002010B5124C124B41F28731322283
:103E8C00E162A2621B78E363C4E90D33022001F006
:103E9C00EDFB9620FDF73EFE0B4A4AF6AA211E23A7
:103EAC0011609620A362FDF735FE01F0A1FB074AD5
:103EBC00074912880023A3620B80E26210BD00BF89
:103ECC00002C01403D070020003000400400002081
:103EDC00CE06002010B5124C124B41F2873128222D
:103EEC00E162A2621B78E363C4E90D33022001F0A6
:103EFC00BDFB9620FDF70EFE0B4A4AF6AA21502375
:103F0C0011609620A362FDF705FE01F071FB074AD4
:103F1C00074912880023A3620B80E26210BD00BF28
:103F2C00002C01403D070020003000400400002020
:103F3C00CE0600202DE9F041154E41F28733F36295
:103F4C0072B6144B144D1B78DFF85080F363C6E93E
:103F5C000D3377244AF6AA27A8FB043000092F60FA
:103F6C0001F084FB0A2063100344B362023CFDF7AA
:103F7C00D1FD631CF0D101F03BFB094A09491288C1
:103F8C000023B3620B80F26262B6BDE8F08100BF21
:103F9C00002C01403D07002000300040CDCCCCCCA3
:103FAC0004000020CE060020002103E00B4B5B58E0
:103FBC00435004310A480B4B42189A42F6D30A4A32
:103FCC0002E0002342F8043B084B9A42F9D301F07B
:103FDC0081FD01F095FFFEF7A1FF7047CC5F000853
:103FEC0000000020D0030020D00300207408002023
:103FFC00FEE70000836861F300038360704700BF35
:10400C004FF080730360704743680A7862F30823AB
:10401C00436083684A7862F34103836083688A78DB
:10402C0062F3CB238360CB78C26A013B63F31752F4
:10403C00C2627047836861F308238360704700BFD6
:10404C00836843F008038360704700BF8068C0F347
:10405C00C0007047836843F004038360704700BF5F
:10406C008068C0F38000704710B4112917D8DFE8BE
:10407C0011F0120079007E00830088008D00920000
:10408C0097009C00A100A600AB00B000B500BA00E0
:10409C00BF00C4007400046963F302040461013AB4
:1040AC000F2A0DD8DFE802F013181D22272C313609
:1040BC003B40454A4F54080EC36A61F38E23C362DA
:1040CC0010BC7047C36A61F3D333C362F8E7436B28
:1040DC0061F304034363F3E7436B61F349134363F5
:1040EC00EEE7436B61F38E234363E9E7436B61F3C4
:1040FC00D3334363E4E7436B61F318534363DFE764
:10410C00436B61F35D634363DAE7036B61F30403B1
:10411C000363D5E7036B61F349130363D0E7036BC8
:10412C0061F38E230363CBE7036B61F3D333036338
:10413C00C6E7036B61F318530363C1E7036B61F3C9
:10414C005D630363BCE7C36A61F30403C362B7E74F
:10415C00C36A61F34913C362B2E7C46863F357548B
:10416C00C4609CE7046963F3C504046197E70469C0
:10417C0063F38814046192E7046963F34B240461CC
:10418C008DE7046963F30E34046188E7046963F313
:10419C00D134046183E7046963F3944404617EE7DA
:1041AC00046963F35754046179E7046963F31A648F
:1041BC00046174E7046963F3DD6404616FE7C46848
:1041CC0063F30204C4606AE7C46863F3C504C460A3
:1041DC0065E7C46863F38814C46060E7C46863F37C
:1041EC004B24C4605BE7C46863F30E34C46056E7C9
:1041FC00C46863F3D134C46051E7C46863F3944476
:10420C00C4604CE701F00703072981688CBF41F0BB
:10421C00007121F000718160816863F3534181600A
:10422C00836862F314538360704700BF024B9A6833
:10423C0060F3D7529A60704700240140836861F3A1
:10424C0096538360704700BF20B9034BDA6961F362
:10425C000002DA61704700BF0000014010B412493F
:10426C000B6843F001030B600B689B07FCD54B6894
:10427C000D4A23F003034B60536813F00C0FC3F388
:10428C008101F9D1136823F0867323F48033136012
:10429C0041F610744FF480104FF41F035160D46238
:1042AC00106310BC9360704700100240030C03F1C4
:1042BC00804303F5043300F01F001A680123834088
:1042CC0093430CBF01200020704700BF030C03F187
:1042DC00804303F50433012900F01F0019684FF0E7
:1042EC00010202FA00F20CBF0A4321EA02021A6030
:1042FC00704700BF030C03F1804303F5043301291D
:10430C0000F01F0019684FF0010202FA00F20CBF16
:10431C000A4321EA02021A60704700BF042809D838
:10432C00DFE800F0090F151B03000F4B5A6A61F30D
:10433C0000025A6270470C4B1A6861F300021A6053
:10434C007047094B1A6861F310421A607047064BAC
:10435C001A6861F318621A607047034B1A6A61F3AA
:10436C0000021A62704700BF00100240024B5A68EC
:10437C0060F307125A60704700100240024B5A68F3
:10438C0060F30A225A60704700100240024B5A68D0
:10439C0060F3CD225A60704700100240054B5A68FA
:1043AC0060F38F325A605A68C0F3800060F31C725D
:1043BC005A60704700100240134B5A68A0B960F362
:1043CC0010425A604FF0000C0F4B5A6861F3954243
:1043DC005A605A68C1F3011060F35E725A60DA6A6F
:1043EC006CF31A62DA62704742F480325A60012828
:1043FC005A6803D042F400325A60E3E722F40032E8
:10440C004FF0020C5A60DFE700100240024B5A6872
:10441C0060F301025A60704700100240024B58686A
:10442C00C0F38100704700BF0010024038B53A4914
:10443C004B6813F00C0F0446C3F3810243D0022ADD
:10444C0026D0364B344923604868354A354DC0F385
:10445C000310105CC34063604868C0F30220104432
:10446C00007C23FA00F0E0604868C0F3C220285CAE
:10447C00C340A36048684968C0F30070C1F3813140
:10448C0041EA80010A44127EB3FBF2F3236138BD8A
:10449C004D68CB6A002BC5F300451CDB4B684A68A2
:1044AC0012F0C04FC3F38343C2F341712AD10F2BD7
:1044BC0028D002331DB1184A5268900328D51A4AE5
:1044CC0002FB03F3BEE74B6D9B05BAD50B6B9D014D
:1044DC00B7D5164BB6E7CA6ACB6AC2F3031CCA6AD5
:1044EC00C3F3082302F0070215B1496889030DD5FF
:1044FC000D48A3FB00010CFA02F20023FDF75EF855
:10450C0003469FE7013303EB0113D3E70348F0E7BE
:10451C00024A02FB03F395E70010024000127A00F6
:10452C007C5F00088C5F000800093D00006CDC0219
:10453C00044A536D01280CBF43F0300323F03003C1
:10454C0053657047001002400168002221F0010100
:10455C00C3B210B4083B0160026042608260C2606A
:10456C00A2F13332064CA2FB03231B0961689B00AA
:10457C000F2202FA03F30B43636010BC704700BFB9
:10458C0000000240036861F300030360704700BF42
:10459C00034B1B681840003818BF0120704700BF40
:1045AC00000002400023C0E90033C0E9023303825B
:1045BC00704700BF03684BF6EF72134010B40360F2
:1045CC0002680B891343036003684A7C62F30D3362
:1045DC0003600368CA7B62F38B23036003688A7BE6
:1045EC0062F30923036003684A7B62F3C713036019
:1045FC0003680A7B62F3861303600A7C036862F328
:10460C0045130360D1E900234C8944608260C36088
:10461C0010BC7047014BD860704700BF00200240AF
:10462C00024B0349034A59605A607047002002400C
:10463C0023016745AB89EFCD024A136943F0800330
:10464C0013617047002002401B4A136943F00203B8
:10465C0013615061136943F040031361D368D907A8
:10466C0009D4D3685B0720D50120134A136923F0C2
:10467C000203136170474FF08043D168C80703F100
:10468C00FF330CD4D16849070DD4D068C0F30010A7
:10469C00C0F10300C0B2002B08BF0420E5E7002BDB
:1046AC00EBD10420E1E70120F5E7D068C0F300105E
:1046BC00C0F10300C0B2D8E700200240194A1369C8
:1046CC0043F0010313610160D368D90709D4D3689F
:1046DC005B0720D50120134A136923F001031361F2
:1046EC0070474FF48013D168C80703F1FF330CD423
:1046FC00D16849070DD4D068C0F30010C0F1030095
:10470C00C0B2002B08BF0420E5E7002BEBD104203E
:10471C00E1E70120F5E7D068C0F30010C0F1030019
:10472C00C0B2D8E7002002400A88002A3FD02DE909
:10473C00F041002303254FF0010E4FEA430CD40740
:10474C0005FA0CF60EFA03F72ED5046824EA0604D3
:10475C0004608C79D0F8008004FA0CF444EA080464
:10476C000460446824EA070444600C7947689C4060
:10477C003C434460846824EA06048460CC798768EE
:10478C0004FA0CF43C438460C46824EA0604C46054
:10479C004C79C66804FA0CF43443520803F1010353
:1047AC00C460CAD1BDE8F08152080133C5E7704737
:1047BC0001F0070C4FEA8C0C0F2303FA0CF3C90819
:1047CC0002FA0CF26FEA030306D0416A0B40436213
:1047DC00436A134343627047016A0B400362036AE6
:1047EC0013430362704700BF1F4BDB68C3F3022304
:1047FC00C3F1070CBCF1040F28BF4FF0040C00B53B
:10480C00E64603F1040CBCF1060F22D9A3F1030C0C
:10481C004FF0FF3303FA0CF322EA03024FF0FF339D
:10482C0003FA0EF321EA030303FA0CF313431B01FF
:10483C000028DBB210DB0D4A111881F8003301237C
:10484C00410900F01F0003FA00F042F821005DF866
:10485C0004FB00229446E1E7054A00F00F000244F5
:10486C0013765DF804FB00BF00ED00E000E100E012
:10487C00FCEC00E008B52E4B98421CD02D4B984216
:10488C0023D02D4B98422AD02C4B984209D02C4B3C
:10489C0098422ED02B4B984235D02B4B98423CD083
:1048AC0008BD2A480121FFF725FDBDE8084027482F
:1048BC000021FFF71FBD26480121FFF71BFDBDE8B6
:1048CC00084023480021FFF715BD22480121FFF7BE
:1048DC0011FDBDE808401F480021FFF70BBD1E4825
:1048EC000121FFF707FDBDE808401B480021FFF739
:1048FC0001BD1A480121FFF7FDFCBDE8084017482F
:10490C000021FFF7F7BC16480121FFF7F3FCBDE8C7
:10491C00084013480021FFF7EDBC12480121FFF7B6
:10492C00E9FCBDE808400F480021FFF7E3BC00BFDD
:10493C00002C01400004004000100040002000400A
:10494C0000400140004401400048014008001000B4
:10495C000B000C00010010000400100010000C00F3
:10496C0011000C0012000C00036861F3C713036004
:10497C00704700BF062909D8DFE801F013080E08BC
:10498C0009080400C36962F3CB23C3617047C36990
:10499C0062F3C303C3617047836962F3CB23836102
:1049AC007047836962F3C30383617047062909D892
:1049BC00DFE801F0090E13181D220400036A62F3EC
:1049CC000C3303627047036A62F30003036270479F
:1049DC00036A62F3820303627047036A62F304138F
:1049EC0003627047036A62F3861303627047036ABB
:1049FC0062F3082303627047036A62F38A2303623B
:104A0C00704700BFF0B587B0044601A816461D4696
:104A1C000F46FFF70BFD039BDDF810C0134A9442C1
:104A2C0008BF9C46124B0CEB8C0C4FEA4C0CBCFB9D
:104A3C00F7F1A3FB013C4FEADC0C0CEB8C03A1EB74
:104A4C0043010429A36888BF0CF1010C1FFA8CFCEC
:104A5C006CF30F03A360E36866F30C33E360236924
:104A6C0065F30D33236107B0F0BD00BF0038014082
:104A7C00CDCCCCCCC36861F34D33C360704700BF61
:104A8C00C36861F3C303C360704700BFC36861F3BD
:104A9C008203C360704700BF436961F3C71343616E
:104AAC00704700BF436961F3C3034361704700BFA4
:104ABC00064B0748B3F804C00649074AA0F800C0E3
:104ACC0018885B8808801380704700BF400700205F
:104ADC00E2060020E60600208E05002010B54023DB
:104AEC0086B0002203214FF09040FDF725F80823F3
:104AFC00002203214FF09040FDF71EF801214FF4E6
:104B0C00A010FFF7E3FB3048304CFFF71DFD01A868
:104B1C00FFF748FD2E482F4A0492CDE901044FF4CB
:104B2C00403300F55B4001A90393BC3040F20123F4
:104B3C00ADF81430FFF73EFD23480121FFF722FDAD
:104B4C0001212548FFF7C2FB0720FFF727FC684629
:104B5C00FFF756FA214B224800936946FFF754FAA7
:104B6C00032319461E480122FFF77EFA1C48032333
:104B7C0002220621FFF778FA03231A46102118485F
:104B8C00FFF772FA0120FFF751FB012214480721AD
:104B9C00FFF738FB12480121FFF74CFA10480121AE
:104BAC00FFF728FA0E48FFF74BFA0D48FFF74EFABD
:104BBC000028FAD10A48FFF74DFA0948FFF750FAD6
:104BCC000028FAD106B010BD0800024040070020B2
:104BDC004C240140000101010900180001010003EF
:104BEC000024014048F2E80300FB03F3002BB8BF9C
:104BFC0003F6FF73064A43F23810A0EB233082FB16
:104C0C000023C017A0EBE3000F3000B2704700BFC9
:104C1C00310CC330FEE700BFFEE700BFFEE700BF6C
:104C2C00FEE700BF704700BF704700BF704700BF72
:104C3C00704700BF10B50220FFF7AAFC012800D076
:104C4C0010BD054C6060FFF733FF0820FFF7A0FC98
:104C5C00012808BF606010BD0000024008B520208C
:104C6C00FFF796FC012806D10A4B10225A60DA692C
:104C7C0022F00102DA618020FFF78AFC012800D0C3
:104C8C0008BD044B10225A60DA6922F00102DA6185
:104C9C0008BD00BF0000024010B5194B1C788CB940
:104CAC004FF40030FFF774FC01281AD04FF40020A9
:104CBC00FFF76EFC012800D010BD124B4FF4803270
:104CCC005A6010BD0F4B4FF480325A609A6D22F02F
:104CDC0001029A65FEF7D4FE0B4B4FF400421A61A9
:104CEC0010BD084B4FF480325A609A6D64F3000289
:104CFC009A65FEF7C5FE044B4FF400421A61D5E7E6
:104D0C008A0500200000024000040140084B5A694B
:104D1C00920209D50749084A4FF4001058614B6AB2
:104D2C001268B3EB520F00D87047FDF7B5B900BF4E
:104D3C00000401400010004030000020024B4FF6F0
:104D4C00FE721A61FDF7FABE00200040024B0022F1
:104D5C001A61FDF763B900BF00440140034B4FF6E5
:104D6C00FE714FF6FD7219611A61704700400140E7
:104D7C00704700BF074B1A69910744BF4FF6FD728D
:104D8C001A61044B1A69D20744BF4FF6FE721A61BE
:104D9C00704700BF00040040064A074913680133FE
:104DAC0013604B691B0400D470474FF400434B61F4
:104DBC00FDF7A8BD4807002000040140024BD8694C
:104DCC00C0F38070704700BF00000140044B1A68AC
:104DDC004FF4001122F400121A605961704700BFA1
:104DEC0000040140024A136843F400131360704737
:104DFC0000040140054B06491A78B2FA82F35B09AC
:104E0C005B0552058B60CA60704700BF290000200B
:104E1C00000401402DE9F0430029B4BFCE1C0E461E
:104E2C0026F00303073383B023F00703B61000AF5B
:104E3C00ADEB030D88468146144600213246684688
:104E4C0001F056F8B8F1030F6D4618DD4846ADF188
:104E5C0004010022837890F8038090F800E090F829
:104E6C0001C01B0443EA086343EA0E03013243EA20
:104E7C000C23964241F8043F00F10400EADC3E604A
:104E8C00FFF7CEFBC4F30903CBB100230CE0786829
:104E9C007B6804EB800055F82310FFF70FFC032010
:104EAC00FFF7B8FB7B6801337B607A683B689A42FA
:104EBC00EDD3FFF7C1FB0C37BD46BDE8F0832046B0
:104ECC00FFF7C2FBE1E700BF002A29DD531E052BCB
:104EDC0030B501F101041AD9031B022B17D922F0AA
:104EEC00030E01EB0E050B46441AD3F800C044F830
:104EFC0003C00433AB42F8D17245734606D07044FC
:104F0C005C5C00F8014B01339A42F9DC30BD431E66
:104F1C001A44241AE15C03F8011F9342FAD130BD04
:104F2C00704700BF38B5164D164CAB6DAB652046BF
:104F3C00FFF7A0FC144B41210B22A16122621A78CD
:104F4C00A2624FF6FF73E3626269104B002142F0DC
:104F5C000102626103F8041B0D4A61622A660D4A64
:104F6C006B661378EB65E36843F40073E3602368C6
:104F7C0043F0010340F68B122360AA6538BD00BFD5
:104F8C000000024000400140C60300204C070020F6
:104F9C0034400140C203002038B51D4D1D4CAB6D93
:104FAC0043F01003AB652046FFF764FC602103233C
:104FBC00194AA16123621278184BA2624C2101227A
:104FCC00E1621A7063691649164A43F00103636182
:104FDC00154B29666A665B781733EB65AB6D43F04E
:104FEC000203AB65AB6D43F00803AB65AB6D43F0EF
:104FFC000103AB65E36843F40073E360636C43F453
:10500C0000436364236843F00103236038BD00BF91
:10501C000000024000400140300700204C070020F7
:10502C003440014030040020C60300204FF0904370
:10503C00186900F0040070470423012202214FF08C
:10504C009040FCF785BD00BF62B670471C4B40F228
:10505C00531210B51A60FFF701F901210020FFF778
:10506C005DF90120FFF722F901280446F9D11D2131
:10507C000020FFF7A1F921460220FFF74FF9192074
:10508C00FFF714F901280446F9D10020FFF76EF957
:10509C000020FFF77BF90020FFF770F92046FFF79F
:1050AC0047FA0220FFF7B2F9FFF7B8F90228FBD153
:1050BC000020FFF73DFABDE8104000F03BBD00BFFB
:1050CC000020024008B511480121FFF7FFF801212B
:1050DC004FF4C010FFF7FAF80223002203214FF01F
:1050EC009040FCF729FD2023002203214FF0904033
:1050FC00FCF722FD064B002083F80C034FF4805282
:10510C001A600121BDE80840FFF79EB81100140099
:10511C0000E100E0084B10B44CF6CC4245F255547B
:10512C001C6003201A604FF47A614AF6AA22586078
:10513C0010BC99601A6070470030004038B53F4889
:10514C003F4C0121FFF7C2F80025682341F287315B
:10515C0046F66802E1622046A5622946A261E36137
:10516C000122FFF707FC204601220221FFF702FC77
:10517C00012220460421FFF7FDFB20460121FFF709
:10518C00F3FB636C2F48502262F307036364012125
:10519C00FFF79CF82C480121FFF798F802232A46C8
:1051AC0019462A48FCF7C8FC2A4628480123022144
:1051BC00FCF7C2FC80232A4602214FF09040FCF7FA
:1051CC00BBFC224802220121FFF7F2FA29461F48B4
:1051DC000222FFF7EDFA022207214FF09040FFF771
:1051EC00E7FA2A464FF4806302214FF09040FCF717
:1051FC00A3FC2A464FF4007302214FF09040FCF7B9
:10520C009BFC4FF480732A4602214FF09040FCF730
:10521C0093FC02220A214FF09040FFF7C9FA0222B8
:10522C0009214FF09040FFF7C3FABDE83840022245
:10523C0008214FF09040FFF7BBBA00BF0B001800DD
:10524C00002C01401100140012001400000400484E
:10525C0008B516480121FFF739F815480121FFF769
:10526C0035F80423002202214FF09040FCF764FC37
:10527C0001214FF4A010FFF729F80E490E4B40F610
:10528C008A101022886583F80B234FF40061196093
:10529C000A4B4FF6FF71D9629A621A6842F080028B
:1052AC001A601A6842F001021A6008BD110014005D
:1052BC00100018000000024000E100E00040014036
:1052CC00F8B5FFF7C3FE244C01214FF4A010FEF7F4
:1052DC00FDFF102384F80B334FF400632360FFF7BA
:1052EC002DFF1E480121FEF7F1FF1D4B1D484FF607
:1052FC00FF773B25DF6201219D62FEF7E7FF1A4B2A
:10530C0032227726DA629E62302384F813334FF40C
:10531C0000232360FFF7D6FE14480121FEF7D6FFC9
:10532C00134B1448DF629E621A6842F080021A60C6
:10533C000121FEF7CBFF104B4FF4FA710022D9621A
:10534C009D6284F815234FF400132360FFF780FF50
:10535C00BDE8F84000F048BB00E100E004001C0090
:10536C000010004008001C00002000401200180033
:10537C00004801401100180000440140014B5863E3
:10538C00704700BF002C0140014B9863704700BF71
:10539C00002C0140014BD863704700BF002C01402A
:1053AC00024A536943F0010353617047002C0140DA
:1053BC00024B0022DA625A62704700BF0040014083
:1053CC0038B5374C374D204601220021FFF7EEFA55
:1053DC00204601220221FFF7E9FA2046012204218E
:1053EC00FFF7E4FA012211462046FFF7DFFA2046C8
:1053FC0001220321FFF7DAFA204601220521FFF7EB
:10540C00D5FA2368284A294943F001032360636CC9
:10541C0043F400436364636943F001036361106800
:10542C00234B40F001001060506940F001005061C6
:10543C00D06820F00100D0602A6842F001022A6096
:10544C000A6842F001020A604A6942F001024A61AC
:10545C001A6842F001021A605A6942F001025A615C
:10546C00DA6842F00102DA6004F5A054FFF736FB6B
:10547C00012200212046FFF799FA23680D4A2021CA
:10548C0043F00103236082F807138023136002F1B9
:10549C00C04202F50C52136843F40043136038BD4C
:1054AC00002C014000480140004401400010004025
:1054BC000020004000E100E010B54FF480634FF095
:1054CC009044002201214FF09040FCF735FB4FF443
:1054DC008063A36220464FF4007300220121FCF785
:1054EC002BFB4FF40072A26220464FF48073002213
:1054FC000121FCF721FB02234FF48072A2621946B2
:10550C0008480022FCF718FB064801230022022160
:10551C00FCF712FB20468023BDE81040002202213C
:10552C00FCF70ABB000400480E4B1A7D10B58AB973
:10553C00012319460C48FCF7FFFA0B4A012393622E
:10554C00BDE810404FF40073002202214FF0904050
:10555C00FCF7F2BA0448012300220221FCF7ECFA12
:10556C00EEE700BFC8040020000400480F4B1A7D72
:10557C0010B5802392B901214FF09040FCF7DCFA72
:10558C004FF0904380229A62BDE810404FF4807334
:10559C00002202214FF09040FCF7CEBA00220221EB
:1055AC004FF09040FCF7C8FAEEE700BFC8040020AB
:1055BC000D4B1A7D10B5022382B90C480121FCF762
:1055CC00BBFA0A4A02239362BDE810404FF4806391
:1055DC00002202214FF09040FCF7AEBA03480022A3
:1055EC001946FCF7A9FAEFE7C804002000040048AC
:1055FC0070B51D481C4E022300220121FCF79CFAB9
:10560C0002224FF090454FF48063B26201210022D8
:10561C004FF09040FCF790FA01234FF48062012484
:10562C001946AA6230460022FCF786FA4FF4007342
:10563C00002221462846B462FCF77EFA4FF4007231
:10564C008023AA62214600222846FCF775FA8022A4
:10565C004FF48073AA62214600222846FCF76CFAAC
:10566C004FF48073AB6270BD00040048013870B514
:10567C00052834D8DFE810F062008F00BC00EA0087
:10568C00060034008848022300220121FCF754FA5A
:10569C00854902224FF090448A624FF480630022C5
:1056AC0001214FF09040FCF747FA4FF48063A3625E
:1056BC000022802301212046FCF73EFA80224FF481
:1056CC008073A261012100222046FCF735FA4FF4C9
:1056DC008073A362FFF728FF744B754ADA6170BDC3
:1056EC000123194670480022FCF726FA6E4A012461
:1056FC004FF090454FF400739462214600224FF016
:10570C009040FCF719FA4FF40073AB62002280232F
:10571C0021462846FCF710FA80224FF48073AA61C8
:10572C00214600222846FCF707FA4FF48073AB623F
:10573C00FFF73EFF5D4B5F4ADA6170BD4FF090445E
:10574C008023002201214FF09040FCF7F5F98023D3
:10575C00A36200224FF4807301212046FCF7ECF980
:10576C0001234FF4807219464F48A2620022FCF7C5
:10577C00E3F94D4A012191614FF400730022204658
:10578C00FCF7DAF94FF40073A362FFF711FF474BF4
:10579C00494ADA6170BD444C43480223002201217E
:1057AC00FCF7CAF902224FF090454FF48063A262D5
:1057BC00012100224FF09040FCF7BEF901234FF479
:1057CC0080621946AA6220460022FCF7B5F9012135
:1057DC0000224FF40073A1612846FCF7ADF94FF499
:1057EC000073AB62FFF7C2FE304B314ADA6170BD19
:1057FC002D4D2D480123012419460022FCF79CF95C
:10580C004FF090464FF40073002221464FF0904029
:10581C00AC62FCF791F94FF40073B36200220223DF
:10582C0021462846FCF788F902224FF48063AA61CE
:10583C00214600223046FCF77FF94FF48063B362B7
:10584C00FFF794FE194B1B4ADA6170BD4FF0904480
:10585C008023002201214FF09040FCF76DF980234A
:10586C00A36200224FF4807301212046FCF764F9F7
:10587C004FF480730C48A362002202230121FCF731
:10588C005BF9094902228A614FF4806300220121ED
:10589C002046FCF751F94FF48063A362FFF744FEF6
:1058AC00024B054ADA6170BD00040048000001405B
:1058BC00D5000040C5000040E500004070B51D4813
:1058CC001C4E022300220121FCF736F902224FF074
:1058DC0090454FF48063B261012100224FF090405B
:1058EC00FCF72AF901234FF4806201241946AA62BD
:1058FC0030460022FCF720F94FF4007300222146B9
:10590C002846B461FCF718F94FF400728023AA62A0
:10591C00214600222846FCF70FF980224FF48073B1
:10592C00AA61214600222846FCF706F94FF4807341
:10593C00AB6270BD0004004808B5FFF739FEFFF7F5
:10594C00F3FDBDE80840FFF711BE00BF044A054B4C
:10595C0012781A62DA6942F00102DA61704700BF0C
:10596C00C80300200000024010B51C46002360F361
:10597C0007034FEA112E00206EF30F2362F307008A
:10598C0061F31743120ABDF808C062F31F63220AC1
:10599C0062F30F2064F317404FEA1C22114C62F3A0
:1059AC001F60C4E9003084F808C00022601E04F1B6
:1059BC00080C10F8011F08234A4051B20029B8BF47
:1059CC0049004FEA4202B8BF81F0070103F1FF33EF
:1059DC00ACBFD2B2CAB213F0FF03EED18445E8D10A
:1059EC00627210BD5008002010B5304888B00121FB
:1059FC00FEF76CFC2E480121FEF768FC01214FF4E8
:105A0C00A010FEF763FC2B4B2B48402201A9CDE9DB
:105A1C000123FEF789FE002206212748FEF7C8FE67
:105A2C002648FEF791FD03A8FEF7BCFD244A254B42
:105A3C001478ADF8164010210024234AADF8141048
:105A4C00049303A94FF480731C4803920693ADF89A
:105A5C001C40FEF7AFFD1D4A1D48D16941F0020103
:105A6C00D161D16941F008012346D16122464FF43E
:105A7C00E131FEF7C7FF16480121FFF701F8144882
:105A8C000121FFF703F812480121FFF70BF810482A
:105A9C000121FFF701F80E480121FEF7EBFF22462A
:105AAC0003210A20FEF7A0FE08B010BD0E0018005E
:105ABC001200140000010201000400481C00024006
:105ACC00C8030020500800200438014000000240A8
:105ADC000038014030B414490B6843F001030B60EB
:105AEC000B689B07FCD54B680F4A23F003034B60F4
:105AFC00536813F00C0FC3F38101F9D113680B48F1
:105B0C000B4C23F0867323F48033136041F610752D
:105B1C004FF480135160D56213634FF41F039360ED
:105B2C00846030BC704700BF0010024000ED00E004
:105B3C000010000810B5FEF771FC40B302280AD023
:105B4C002748284B28495B68284AC3F30313CB5CCE
:105B5C00D840106010BD234B5968DA6A002AC1F393
:105B6C0000411DDB58685B6813F0C04FC0F38340E5
:105B7C00C3F341722AD10F2828D0023019B1194B26
:105B8C005B689A0328D51A4B03FB00F0D9E7154B39
:105B9C005A6D9005D4D51B6B9901D1D51548D0E71A
:105BAC00DC6AD86ADA6AC4F30314C0F3082002F082
:105BBC00070211B15B689B030CD50D4904FA02F284
:105BCC000023A0FB0101FBF7F9FCBAE7013000EB65
:105BDC000210D3E70249F1E7014B03FB00F0B0E7F9
:105BEC0000127A00001002409C5F0008CC030020D9
:105BFC0000093D00006CDC022DE9F047089D0F46C2
:105C0C0004468C46002B48D18A42164661D9B2FA1A
:105C1C0082F34BB1C3F1200201FA03FC20FA02F229
:105C2C009E4042EA0C0C9C404FEA164EB7B2BCFBAD
:105C3C00FEF1220C0EFB11CC42EA0C4201FB07F0E8
:105C4C00904209D9B21801F1FF3C80F0EE809042ED
:105C5C0040F2EB8002393244121AA4B2B2FBFEF0CD
:105C6C000EFB102244EA024400FB07F7A74209D9B5
:105C7C00341900F1FF3280F0DA80A74240F2D7806D
:105C8C003444023840EA0140E41B00211DB1DC40E1
:105C9C000023C5E90043BDE8F0878B4206D90DB15E
:105CAC00C5E9000100210846BDE8F087B3FA83F18D
:105CBC00002948D1BB4202D3824200F20781841AE8
:105CCC0067EB030201209446002DE4D0C5E9004C9B
:105CDC00E1E7002A00F09280B2FA82F3002B40F048
:105CEC00A8808A1A4FEA164E1FFA86FC0121200C56
:105CFC00B2FBFEF70EFB172240EA02420CFB07F048
:105D0C00904207D9B21807F1FF3802D2904200F244
:105D1C00E2804746121AA4B2B2FBFEF00EFB102230
:105D2C0044EA02440CFB00FCA44507D9341900F1E9
:105D3C00FF3202D2A44500F2CB801046A4EB0C0437
:105D4C0040EA0740A2E7C1F120068B4022FA06FC8C
:105D5C004CEA030C07FA01F420FA06F3F7404FEA79
:105D6C001C49234300FA01F81FFA8CFEB7FBF9F02B
:105D7C001C0C09FB107744EA074400FB0EF7A74202
:105D8C0002FA01F20AD91CEB040400F1FF3A80F08C
:105D9C009B80A74240F2988002386444E41B9FB277
:105DAC00B4FBF9F309FB134447EA044403FB0EFE6E
:105DBC00A64509D91CEB040403F1FF3780F082805F
:105DCC00A6457FD9023B644443EA0040A4EB0E0491
:105DDC00A0FB02E7BC427346B94663D360D05DB109
:105DEC00B8EB030264EB090404FA06F622FA01F399
:105DFC001E43CC40C5E9006400214CE7620848080A
:105E0C0042EAC1710B0C43EA00438AB242EA0342F4
:105E1C00B3FBF6F1E407B4463746B6461F23B0FB96
:105E2C00F6F0D21B41EA004161E7614614E71046E7
:105E3C0028E7C3F1200120FA01F29E4027FA01F174
:105E4C009F403A434FEA164E1FFA86FCB1FBFEF711
:105E5C000EFB1710110C41EA004107FB0CF88845AA
:105E6C0004FA03F43AD9711807F1FF3001D28845CE
:105E7C001FD8A1EB0801B1FBFEF808FB0CF70EFBD9
:105E8C00181192B242EA0142BA422FD2B21808F16A
:105E9C00FF31C6D2BA42C4D2A8F102013244C0E7E3
:105EAC00F0459CD2BEEB020367EB0C070138B946F8
:105EBC0095E7A6EB08084144B81EB1FBFEF808FBB9
:105ECC000CF7DCE73B467FE7504667E70846FBE606
:105EDC003444023832E7023F32441BE7A1EB08019D
:105EEC003846B1FBFEF808FB0CF7C8E7414698E7CB
:105EFC0002440346934200D1704703F8011BF9E7B3
:105F0C0070B50D4B0D4D5B1B9C100026A64209D1A4
:105F1C0000F01AF80A4D0B4B5B1B9C100026A64296
:105F2C0005D170BD55F8043B98470136EEE755F89E
:105F3C00043B98470136F2E7C45F0008C45F0008D1
:105F4C00C45F0008C85F0008F8B500BFF8BC08BC07
:105F5C009E467047F8B500BFF8BC08BC9E4670471B
:105F6C00191B12131D1516171A090A0B1E0D0E0FED
:105F7C0000000000000000000102030406070809ED
:105F8C00000000000102030402040608020C0810C1
:105F9C0000000000000000000102030406070809CD
:105FAC0058526F746F723435204634200000000054
:085FBC0048FCFF7F010000001A
:045FC4006516000856
:045FC8003D1600087A
:105FCC00007C000887138713780050005000D0071E
:105FDC004C046C07DC0564004A0150009001C800B9
:105FEC00010014004600DC0502010501010100005E
:105FFC00D43000000105010AE8030000102700005E
:10600C00000000000A000000000000006400000016
:10601C000000000000000000000000000000000074
:10602C001027000050C30000B400D007D0070000B8
:10603C00B400B700BA00BD00C100C400C700CA005C
:10604C00CD00D000D300D600D900DC00E000E30086
:10605C00E600E900EC00EF00F200F500F700FA00B2
:10606C00FD0000010301060109010B010E011101E4
:10607C001301160119011B011E0120012301250129
:10608C0028012A012C012F0131013301350138017E
:10609C003A013C013E0140014201440146014701E5
:1060AC0049014B014D014E01500151015301540165
:1060BC005601570158015A015B015C015D015E01FB
:1060CC005F016001610162016301630164016501AB
:1060DC006501660166016701670167016801680176
:1060EC00680168016801680168016801680167015D
:1060FC006701670166016601650165016401630161
:10610C0063016201610160015F015E015D015C017F
:10611C005B015A01580157015601540153015101B9
:10612C0050014E014D014B0149014701460144010B
:10613C00420140013E013C013A0138013501330175
:10614C0031012F012C012A012801250123012001F5
:10615C001E011B0119011601130111010E010B0186
:10616C000901060103010001FD00FA00F700F5002A
:10617C00F200EF00EC00E900E600E300E000DC00D8
:10618C00D900D600D300D000CD00CA00C700C4008F
:10619C00C100BD00BA00B700B400B100AE00AB0046
:1061AC00A700A400A1009E009B00980095009200FF
:1061BC008F008C008800850082007F007C007900B5
:1061CC007600730071006E006B0068006500620061
:1061DC005F005D005A005700550052004F004D0003
:1061EC004A0048004500430040003E003C00390096
:1061FC0037003500330030002E002C002A00280018
:10620C0026002400220021001F001D001B001A0084
:10621C0018001700150014001200110010000E00D9
:10622C000D000C000B000A00090008000700060016
:10623C000500050004000300030002000200010039
:10624C000100010000000000000000000000000040
:10625C00000000000000010001000100020002002B
:10626C0003000300040005000500060007000800F9
:10627C0009000A000B000C000D000E0010001100AC
:10628C00120014001500170018001A001B001D0046
:10629C001F00210022002400260028002A002C00C8
:1062AC002E00300033003500370039003C003E0032
:1062BC0040004300450048004A004D004F0052008A
:1062CC00550057005A005D005F00620065006800D1
:1062DC006B006E0071007300760079007C007F000B
:1062EC008200850088008C008F0092009500980039
:1062FC009B009E00A100A400A700AB00AE00B10063
:10630C0050001E030300000000000000900100007C
:10631C0000000000E8030000000000000000000086
:10632C000000000000000000204E0000A0860100CC
:10633C0064190000000000000100000000000000D3
:10634C00320000000000000000000000000000000F
:10635C00000000001027000050C3000001020100E3
:10636C006E00D00764000500E803061432007800C4
:10637C004B005A005A001E0002010000FA000000F7
:10638C00204E200050C311070A00000000127A00B2
:107BE00058524F544F5234355F4634323100000002
:107BF0000000000000000000000000000000000085
:0400000508003FB5FB
:00000001FF
