:020000040800F2
:1000000000000120D14827006D4927003955220002
:10001000B15422006D4927006D49270000000000FF
:100020000000000000000000000000006D492700F3
:100030006D492700000000006D4927002140220083
:100040006D4927006D4927006D4927006D4927003C
:100050006D4927006D492700F1282100F92821006A
:10006000012921000929210011292100E52621006B
:10007000F92621000D272100212721003527210005
:10008000492721005D2721006D4927006D49270080
:100090006D4927006D4927006D4927001929210066
:1000A000096321000562210019632100F561210027
:1000B0002D6221003D6221004D622100311E210090
:1000C000251E2100651E2100591E21006D492700B3
:1000D0006D492700213522006D362200B9372200F4
:1000E000212921006D4927006D492700296321003E
:1000F000E16221006D492700D162210071272100B2
:100100006D492700F95721005D6221006D492700E4
:1001100005392200513A22006D6221002D9A2600F5
:100120008527210099272100AD272100C127210023
:10013000D52721006D4927006D4927006D4927000B
:100140006D4927006D4927006D492700698E2600FB
:10015000E9272100FD272100112821009D3B2200D5
:10016000991E21008D1E21006D4927006D49270031
:100170006D4927006D4927006D49270000000000E8
:100180006D4927006D492700E93C2200353E2200D9
:100190006D4927006D4927006D4927006D492700EB
:1001A00000000000000000006D4927006D49270095
:1001B0006D4927006D4927006D492700CD1E21009C
:0801C000C11E21006D4927005A
:020000040801F1
:10000000084A0346D0F8E4005268D3F8F010121AF8
:1000100000209142B8BFC3F8F020012283F81C21D0
:10002000704700BF001000E01B4B016803F57D7CAA
:1000300002E02C3363452BD01A688A42F9D170B59F
:1000400093F804E0427996450BD02C33634505D0F4
:100050001A688A42F4D02C336345F9D14FF0FF304F
:1000600070BD9E4684680022DEF80C50A54208D080
:1000700001320EF10C0E032AE7D0DEF80C50A54237
:10008000F6D1DEF81050C668B542F1D150B270BD5D
:100090004FF0FF30704700BF186927004368426D7A
:1000A00030B49A61EFF31182502383F312884168D0
:1000B000D2B2856C0B68046D23EA050323430B6001
:1000C00082F31188436981681A68096822F0010285
:1000D000D0E908541A60826A1D605C615A60D0E9F8
:1000E0000B429C60DA600023B0F86C2030BCCA621E
:1000F00003777047002A4FEA014C034630B50ABF28
:10010000E6468E468C4600F1C005002419680C3383
:1001100053F8042C43F8084C41EA0C0142EA0E0261
:10012000AB4243F80C1C43F8042CEFD1D0F8C0309C
:1001300043EA0E03C0E93144C0F8C03030BD00BF0F
:1001400083695969B3F810C00A6830B49C6822F01A
:10015000010224680A60E26822EA0C02E260027D81
:1001600000681F2A08D9203A0824D0F804C0944017
:1001700014EA0C0F44D0FEE70824D0F800C09440E5
:1001800014EA0C0FF7D1202404FA02F28260254A07
:100190001278002A32D01A7F012A36D0D3F80021F3
:1001A0000132C3F80021EFF31181502282F312884B
:1001B0005868C9B29D6C0268DC6C22EA05022243D1
:1001C000026081F311885A699968D3E90D40096882
:1001D00014605061D3E90F40546090605C6CB3F8D8
:1001E000B400D4600124C8621068204310601A8AE9
:1001F0001C7783F8FD40CB681343CB6030BC70475D
:10020000202404FA02F2C260C1E70022D3F80401FC
:1002100083F8FD2001300A68C3F8040122F00102CE
:100220000A60EBE7F801002010B40C4C6368002B67
:1002300011DD002004F1080C0146DCF8AC3003F1BC
:10024000C00259600C339342FBD1013063680CF556
:10025000867C8342F1DC5DF8044B7047F801002096
:10026000704700BF024B03EB401393F855047047EF
:10027000F8010020704700BF0B4890F86C1589B159
:1002800001EB4101002300F27450490010B41C46F8
:1002900050F82320063302B114608B42F8D15DF888
:1002A000044B7047704700BFF80100200B4890F8DE
:1002B0006C1589B101EB4101002300F27450490033
:1002C00010B41C4650F82320063302B114608B4250
:1002D000F8D15DF8044B7047704700BFF80100206B
:1002E0000120704700EB4000024B03EBC00393F882
:1002F00085057047F8010020204890F86C35002BE8
:100300003AD0002200F274534FF02C0C2DE9F04348
:100310004FF0500E1A4E1B4D144607E053F8181BB1
:1003200001320C6090F86C15914223DD197C002994
:10033000F4D05F68B90AA1F58011522929448CBF15
:100340004FF0FE0991F8F493EFF311818EF31288C8
:10035000D7F824800CFB0969C9B208F10108C9F873
:100360002880D7F8148048F00108C7F8148081F37A
:100370001188D3E7BDE8F083704700BFF801002083
:10038000201C01201869270000EE100AB8EE400A70
:10039000704700BFBCEEC00A10EE103A98B270472A
:1003A0000346012200205A77704700BF826908B5D2
:1003B0000346006BD96A02449A6101B18847002064
:1003C00008BD00BF436A02461B681B6A5B685B7816
:1003D00013F0010008BF5077704700BFF0B500234D
:1003E00095B0204E044606930220109306F10802B1
:1003F00013931193009206F10C02277F1A4D01927C
:10040000626A04950D460290CDE90A63CDE90E3388
:1004100001238DF80C3007938DF820308DF834309F
:100420008DF8483006F110030593104B09933B1DDE
:1004300010680C9362F0F4FE8FB12A0EB31C727038
:100440002A0A9D70280C69465A701870606A11F06B
:10045000C1FD636A186862F0E3FE15B0F0BD731C5D
:10046000EEE700BF00000020C5032100A10321002A
:1004700010B594B0044650220649684665F0C4FEA3
:100480006946606A11F0A6FD636A186862F0C8FEEA
:1004900014B010BD606D2700C2628161704700BF5B
:1004A0002DE9F8431F46436A04468846186891467A
:1004B00062F0B6FE237FA069002B37D0274E030ED3
:1004C000163606F8013C0523254D012FB0702B632D
:1004D0004FEA10434FEA1020337070704FF0000065
:1004E000D8F80030EB63D9F800306B64236368659B
:1004F0001FD0022F18D1D9F80420E8641344D8F88B
:10050000041085F84800AA65012229652363154B6C
:10051000606A2B66637F85F85C20A3B1104911F0F7
:1005200059FDE36AABB1206BBDE8F88304230E4E9E
:10053000CAE70C4B2865EB64637FA86585F84870B3
:10054000606A002BEAD1094911F044FDE36A002BEF
:10055000E9D1636A186862F063FEE4E700000020F6
:1005600000000120AD03210015000020140001202F
:10057000704700BF00B583B08161019201A9049A60
:1005800000930123C2626A46FFF78AFF03B05DF859
:1005900004FB00BF04307047C2628161704700BF36
:1005A000436A02461B681B6A5B689B7813F0010074
:1005B00008BF5077704700BF0346012200205A77DA
:1005C000704700BF826908B50346006BD96A0244D0
:1005D0009A6101B18847002008BD00BF704700BF85
:1005E0000430704710B4094C4FF0340CD4F8940226
:1005F0000CFB00F004F5267C04446044D4F89842D7
:10060000A469A4465DF8044B604700BF201C01208C
:10061000064B3421D3F8942203F5267001FB02F235
:1006200013441044D3F89832DB691847201C01208A
:10063000043070470D4B93F80423D3F800130244A1
:100640000144D2B2C3F8001383F8042393F80423BF
:10065000120605D593F8042382F0800283F8042360
:10066000034B012283F87820704700BF201C012033
:10067000000001202DE9F843144FD7F80853ED0A84
:100680001FD00026B0467419D7F80C134FF0100392
:100690000F4A48BF0134D1F828900E486410C7F8BB
:1006A0003883E102C8470F280BDD094B03F1100125
:1006B00053F8042B013207D19942F9D12546AE42B5
:1006C000E1DBE802BDE8F883661CF8E7201C0120A6
:1006D0001C0000202C1F0120194BD3F84013D3F825
:1006E00044238A1A322A15D8D3F858238A4200D3D1
:1006F0007047D3F84823F2B110683231928810B4B1
:100700004469C3F8581322425DF8044B18BF120421
:1007100082617047D3F8481349B193F8542388880D
:1007200002F001020968120100FA02F28A61002255
:10073000C3F8582370473231C3F85813704700BFCD
:10074000201C0120074BD3F848234AB193F85433B7
:10075000918803F0010312681B0101FA03F393610E
:1007600000207047201C0120044B4FF4007C002027
:10077000D3F86833A2F800C00B607047201C01203A
:10078000002070470120704701207047002070470B
:1007900010B41C6994420CD394460A4661448C42BE
:1007A000996938BFA4EB0C0261445DF8044B65F015
:1007B0002BBD5DF8044B7047002070470020704748
:1007C000F8B50C4B1D685A69154005405D617DB157
:1007D000094F0126B5FA85F4C4F11F0407EB840321
:1007E00006FA04F4D3F8980303689847A543F1D1B7
:1007F000F8BD00BF003C0140201C012002692DE92A
:10080000F843C36812EA030828D005460E464FF0A5
:100810000047B8FA88F327FA03F21B3BD24308EAF1
:1008200002082A61042B16D8DFE803F03B30251AB2
:100830000300B36A002B3FD003F1FF3900231FFAF6
:1008400089F9B362746A34B12368204649469847EF
:100850006468002CF8D1B8F1000FDAD1BDE8F88354
:1008600070680028F7D0696B036889B29847B8F1BF
:10087000000FCED1F2E7B0680028ECD0A96B036876
:1008800089B29847B8F1000FC3D1E7E7F0680028B4
:10089000E1D0E96B036889B29847B8F1000FB8D18D
:1008A000DCE730690028D6D0296C036889B2984704
:1008B000B8F1000FADD1D1E7EB6A1FFA83F9C1E7B8
:1008C0002DE9F0411F46436A94B014460646186865
:1008D0000D4662F0A5FC0B940022264C069204F112
:1008E00034038DF820201392009304F138030C9701
:1008F00001930223CDE9092202930123CDE90E22BF
:10090000CDE910221C4A8DF80C308DF834308DF86A
:100910004830049204F12C02337F05921A1D07928D
:1009200023B32B0E2E3404F8013C2B0CA570DFF8FA
:100930004C802D0A23706570D8F8D80311F0ECFEB6
:10094000746A737FA0809BB16946204611F042FB18
:10095000746A206862F064FCD8F8DC0311F0DCFEF5
:1009600003463846A38014B0BDE8F0812D34DCE79F
:1009700005A9EAE700000020C5032100201C012092
:100980002DE9F04F4E4F83B03B781BB9012003B0E7
:10099000BDE8F08FDFF834B107F5C7654949002697
:1009A000DBF8404307F61819474A07F58768A1FBAB
:1009B0000414D7F834364FF6FF7A64090093A2FB8B
:1009C0000412D20802EB8202A4EB4204E3B205EB6C
:1009D000840401932FE0B0F5606F61D0A9F80C009A
:1009E00095F85820019B9A420CD0A1682A68521AA7
:1009F0002A606A68216B521A6A600022A260226330
:100A000085F858302A68504502F101022A60A26830
:100A100002F10102A26005D16A6801326A60226BAC
:100A20000132226301365C355C3409F11409082E69
:100A300008F120082DD0009B9E422ADAD8F8180031
:100A4000D8F80420D0E93D01EFF5DAFA4FF6FE734D
:100A50009BF8E123984214D0542A04D1BBF8E42334
:100A60000132ABF8E423D7F82029504502F1010206
:100A7000C7F82029AFD1D7F81C290132C7F81C29A3
:100A8000AEE7542ACED1BBF8E6230132ABF8E62319
:100A9000C8E70123012087F81C3A03B0BDE8F08FB6
:100AA0009BF8582402EB42020BEBC202324492F84C
:100AB00005240D2A92D1802289F81E2090E700BFDC
:100AC000F80100201F85EB51CDCCCCCC201C01209F
:100AD0002DE9F0412E4F07EB401696F854340BB930
:100AE000BDE8F08100EB80030D460021044607EBD2
:100AF00043134FEA401893F8222A83F8221A86F803
:100B00003A24F0F5EDF890BB224807EB0804404486
:100B1000A4F83854F0F596F8D4F850343978D4F86D
:100B20003C24D3F8AC3081B1012403F1C0019440DE
:100B3000420010F4004F90B202D15A6822435A602A
:100B40000C339942F4D1BDE8F0811032012403F155
:100B5000C0019440420010F4004F90B202D15A6894
:100B600022435A600C338B42F4D1BDE8F0810A4B2A
:100B700093F8582402EB420203EBC203234493F898
:100B80000554002DC0D0012386F83A34BCE700BFDD
:100B9000F801002030060020201C01202DE9F84338
:100BA00013F090FA344D4FF0000C0746DFF8D08078
:100BB000324E6968002953DD00234FF486701C46CD
:100BC00000FB0352013392F805218B4244EA0204F0
:100BD000F6D144EA0C0C5FFA8CF9D8F80430C3F370
:100BE0000803D3B9EFF31183BBB913F0BFFAC31BEA
:100BF000B3F5FA6FCCBF4FF0000C04F0010CBCF160
:100C0000000FD6D1B9F1000F04D01C4B93F8E123AB
:100C1000542A28D04846BDE8F883EFF31182102308
:100C200083F312884FF0E02399691869C00303D554
:100C30000121C6F85C149969D6F84003D2B2D6F8FF
:100C40005C3482F311884FF47A72D6F860C403449E
:100C500002FB0CF0401AB0FBFCF002FB0300C6E7FD
:100C6000E1460024B9E7B3F8E82348460132A3F887
:100C7000E823BDE8F88300BFF8010020201C012014
:100C800000ED00E010B5044664F04EFD014620463C
:100C900089B2BDE810401BE738B50B4D00EB4000B2
:100CA00005F27453C40003EBC003254493ED027AAC
:100CB000D3ED037AE7EE007AB0EE670A64F034FD14
:100CC000D5F87435186038BDF8010020F8B5EFF597
:100CD000E9FF78B31A4F7D68002D11DD38460024F6
:100CE00010F8086B16B1037F012B1DD04269013447
:100CF00000F586701368AC4243F001031360F1D134
:100D000013F0E0F9D7F8204F002C0CDD0D4B03EB6E
:100D1000C4041968083333F8042CC868A34242EAB3
:100D20000002CA60F5D1F8BD002380F8FC30FFF75F
:100D3000B5F9DBE762F0F8FA0028CBD1F8BD00BFC7
:100D4000F80100201C110020836910B51A4C04EB37
:100D50008303D3F8880457F0EFF8B4F8A8340C2BC9
:100D60000ED8DFE803F0220D0D0D1B0D0D0D070D44
:100D70000D0D1400D4F86824D36823F40063D36005
:100D80000122002384F8A52484F8AA3410BDD4F8E5
:100D90006824D36823F48053D360F1E7D4F868243F
:100DA000D36823F48063D360EAE7D4F86824D36877
:100DB00023F40073D360E3E7201C012080699C309A
:100DC00057F0BAB8836910B51A4C04EB8303D3F813
:100DD000CC0457F0B1F8B4F8EC340C2B0ED8DFE8A3
:100DE00003F0220D0D0D1B0D0D0D070D0D0D140043
:100DF000D4F8AC24D36823F40063D3600122002329
:100E000084F8E92484F8EE3410BDD4F8AC24D36817
:100E100023F48053D360F1E7D4F8AC24D36823F4EF
:100E20008063D360EAE7D4F8AC24D36823F400737A
:100E3000D360E3E7201C0120F8B5830AA3F58013F3
:100E4000522B53D804465848034493F8F4330D2BDF
:100E50004CD8564E9D0106EB8313D3F8F004A04204
:100E600044D00139C3F8F04489B2C3F8FC14D6F871
:100E7000B018B1FBF2F2013AC3F8F4240022C3F82F
:100E80000025C3F8F824C3F8042593F82D2502F0B3
:100E9000FF01002A00F0858045490223771920468A
:100EA000294487F82D3557F0EDFC0123B4F1804F2C
:100EB00087F82D353F4BA4EB0303B3FA83F34FEAD6
:100EC00053135DD0002B5BD13B4A94420FD002F507
:100ED000806294420BD0394902F57C42944218BF9B
:100EE0008C4225D002F57052944221D0F8BD73197E
:100EF00093F82C25012AF9D00221314A83F82D15C7
:100F0000A0680240A260012283F82D2583F82D15E8
:100F10006268A168354422F0700221F0800101204E
:100F200000236260A16085F82D0585F82C35F8BD99
:100F3000721992F82C150129D8D0022182F82D15AA
:100F40001F49A06801401F48A1600121201A82F8B2
:100F50002D150021B0FA80F082F82C15174A4009AF
:100F6000944201D00028C1D07219022182F82D15B7
:100F70006268A1680BB90028CCD022F47002C9E7DE
:100F8000721992F82C150129B0D0022182F82D1582
:100F90000B49A06801400020A160012182F82D15B5
:100FA000E2E783F82C1577E718692700201C012059
:100FB000142101200000014000040040000C00400A
:100FC0008800FEFF0004014038B590F82830044640
:100FD000012B06D0407F08B9012038BD002363777C
:100FE00038BD406A03681A7B9AB9637F002BF3D03F
:100FF0000A4D022305F13C0205F1400111F080F990
:1010000095F83D30D84303F0010300F00100637709
:10101000E6E71B6A002BE8D0002038BD0000002066
:1010200038B5044694F82830012B07D0637F0BB104
:1010300000236377012038BD1B6A23B1606A03680F
:101040001A7B002AF8D1637F002BF3D0074D0223CF
:1010500005F13C0205F1400111F052F995F83D30DF
:1010600003F00102DB076277E4D5DBE70000002034
:10107000F0B511F0010583B00AD190F8286004465C
:10108000012E07D0C368B3F1807F01D90123037714
:1010900003B0F0BD0A4B476AD3F8D80311F03CFB0C
:1010A000E368B880B3F1807FF2D9B7212A46384689
:1010B00033468DF8041001A9267711F021F9E7E7EE
:1010C000201C012010B590F828300446012B03D0D5
:1010D00000230120637710BD406A03681A7B42B980
:1010E0005FF0B4F900F00103C243637702F001003E
:1010F000F1E71B6A002BF3D0002010BD38B5114D6D
:10110000044694F82830012B05D000236377002390
:101110000120236238BD606A03681A7B72B95FF0F0
:1011200095F900F001036377C307F0D5D5F8403394
:10113000226A9B1A002BE4DB002038BD1B6A002BBF
:10114000EDD0F3E7201C012010B5FF22044690F8F3
:101150002810406A62F0A0FD0E4B2046D3F84033C1
:1011600003F5FA732362FFF7C9FF94F82830012BC7
:1011700000D010BD0022A021606A62F067FD94F8E3
:101180002830012BF5D1606A1822B021BDE810404B
:1011900062F05CBD201C0120CB0700D5704710B564
:1011A0000446FFF7D1FF94F82830012B00D010BD82
:1011B000646A024811F0B0FAA08010BD00E1F505A4
:1011C00038B504460D46FFF799FF062294F828101B
:1011D000606A62F061FD012294F8283062779342E0
:1011E00005D0064BD3F840330F33236238BDEA0AEB
:1011F000D821606A62F006FDF3E700BF201C0120E1
:101200008388002B47D02DE9F04F00258DB0044690
:10121000DFF8848006270DF107092E4608E0637782
:10122000D8F840330135A2880F33AA4223622FD960
:101230002046FFF763FF94F828A0D4F824B00123D8
:10124000BAF1010F8DF80770E9D102A95846CDF81F
:1012500010A08DF814A08DF828A00B96CDE9029669
:10126000CDE90666CDE9086610F0B4FEDBF80000B3
:1012700061F0D6FF94F828306A04D821012B84F855
:101280001DA04FEAD222CBD1606A62F0BBFCC7E757
:101290000DB0BDE8F08F7047201C012070B5104DD7
:1012A00095F8B43803B970BDD5F8B86804460D4B4D
:1012B000F60AC3F88060FFF721FF94F82830012B6D
:1012C00007D0D5F840330022023385F8B4282362D2
:1012D00070BD32461021606A62F094FCF1E700BFF5
:1012E000201C0120000001202DE9F047424F1E463E
:1012F00092B00C46D7F8803005469046B3EBD12F1C
:1013000021D1DFF8F890C4F30A0495F82830C4F529
:101310000060B04234BF87B2B7B2012B3CD0D9F8DD
:101320004033284602332B62FFF7E8FE38B195F8C8
:101330002830012B23D0384612B0BDE8F0870020BA
:1013400012B0BDE8F0874FEAD12AFFF7D7FE002898
:10135000F5D04FF0FF33C7F8803095F82830012BD7
:1013600044D0DFF898902846D9F8403302332B62F6
:10137000FFF7C4FE0028E2D0C7F880A0C3E7686A80
:101380005FF064F8C0F30113013B022BD3D8284669
:10139000FFF7DAFE3846CFE78DF8283000228DF8C7
:1013A0003C3003238DF80640240A8DF8043001AB4D
:1013B0008DF8054002A9029304236C6A8DF807207A
:1013C000039220468DF814200B920E9210920493F3
:1013D0000023CDE906220022CDE90886CDE90C23C1
:1013E00010F0F8FD206861F01BFF98E752461321CA
:1013F000686A62F007FCB4E700000120201C0120AD
:101400002DE9F04FD0F8249083B03C4F0446D9F832
:1014100000000E46904661F003FF97F8B438002BA9
:1014200039D0D7F8BC58DFF8E0B0C5F30223DFF8B5
:10143000DCA08BF846508BF8453033685146304E6F
:101440004846C6F8243106F59272D8F80030C6F83E
:101450002C310023C6F8343111F0AEFBD8F800204F
:101460000123154487F8B438C5F30A03C7F8BC58FC
:10147000FBB1244BC6F83431637F0BB90AF1140A6F
:1014800051464846226310F0A5FDE36A6BB3206B1A
:1014900003B0BDE8F08FA569DFF86CB0C5F3022397
:1014A000DFF86CA0C7F8B8588BF84A508BF8493071
:1014B000C3E7D7F8B8C806F5A67206F59271484694
:1014C0004FEADC2E01934FEADC4CC6F880E08BF843
:1014D0004FE08BF84EC011F06FFB019BD8F8002055
:1014E00087F8B438C7F8B858C6E7636A186861F077
:1014F00097FE206B03B0BDE8F08F00BF201C0120D9
:1015000000000120C505210000000020840001200A
:10151000D400012033B910B51C46C36A2046984751
:10152000204610BD6CE700BF10B582B00C4601929A
:1015300001A9049A8461C2626A460093FFF760FFC2
:1015400002B010BD2DE9F843DDF820800F461646A5
:101550000021202204461D4664F04BFFB8F1000F25
:101560000CD0D8F80030B8F80A20E3811B0C238295
:10157000D8F804306282E3821B0C2383384662F081
:1015800059FCF30619D4431EB8B107EB000C01E077
:10159000013B12D31CF801EDBEF12E0FF8D1C01A99
:1015A00003F10109421EB944032AA8BF0322082BF4
:1015B000A8BF082390461A4606E008280246B94606
:1015C0004FF00008A8BF08224FF0203339462046CC
:1015D0002360636064F018FE164B04F10800424675
:1015E00049462381837064F00FFE611EE21D11F8ED
:1015F00001CFACF16103ACF1200C192B98BF81F83D
:1016000000C09142F3D104F10A0011F8013FA3F1A7
:101610006102203B192A98BF0B708142F5D1182333
:1016200065832D0CE6722373099BA582E361BDE8F7
:10163000F88300BF202020002DE9F04FD74F85B060
:10164000D7F84003C7F84403002B00F0CD8001F524
:10165000007B1344884614465E46029320E0002C2B
:101660005BD0D7F87433A34200F0C280D7F8703350
:10167000A34200F0F980D7E9DE31A34244D8A14269
:1016800000F2CB81611A40465BF056FD0134029BAB
:10169000D84606F500769C4200F0A6800BF5007B4C
:1016A000D7F88023A242DAD8A21AD7F89053D308E9
:1016B00002F007092A6B0233934202D3AA6B9342CA
:1016C0000BD92946184603935BF006FD039B05469C
:1016D000002800F0C281C7F890032A79002A40F060
:1016E0002C81D5F828A0BAF1000F00F0AF812A6B49
:1016F00040464FF400719B1AEA6809EBC3092B4678
:1017000002EB4922D047C1E7A142BBD940464FF482
:101710000072002164F06DFEB8E74FF400722146BC
:10172000404664F066FE80239D4A88F8BE310C2353
:1017300088F8C231D7F87013D7F868339142C8F8E7
:10174000C611C8F8CA3100F36D81964A013B964D27
:1017500082FB0102C81785FB01C50A44C0EB621277
:10176000C0EB2530914D85FB02C5C2EB821C88F889
:10177000C1018010A1EB0C01154420F03F000131A4
:101780000843D117C1EBE51188F8C0010A4488F875
:10179000BF21834A934200F35181824A824882FBEF
:1017A0000312D91780FB03501A44C1EB6212C1EB3C
:1017B00020317E4880FB0250C2EB821588F8C511AB
:1017C00089105B1B104421F03F0101331943D317EB
:1017D000C3EBE01388F8C4111A4488F8C3214AF611
:1017E0005523A8F8FE3151E7002005B0BDE8F08F81
:1017F0004FF0FF3300254FF4F07208F1040088F831
:10180000EC31294688F8ED3188F8EE3188F8EF316F
:10181000522388F8003088F80130612388F80230BC
:1018200088F8E731412388F8033088F8E6317223DD
:1018300088F8E43188F8E531D7F88833C8F8E8311A
:1018400064F0D7FD5523C8F8F05188F8FE316FF0E9
:101850005503C8F8F451C8F8F85188F8FC5188F8D5
:10186000FD5188F8FF3111E74FF400720021404626
:1018700064F0BFFD4E4B022203CB45F6EB0388F824
:10188000102088F80C20A8F80030902388F80E204B
:1018900088F80230F82388F82C200822C8F80300C2
:1018A00088F80D20C8F8071088F81530D7F870139D
:1018B000D7F868335B1AC8F82030D7E9DE135B1A13
:1018C0004AF65521C8F82430002388F80B3088F8F0
:1018D0000F3088F81D3088F81E3088F81F3088F8DF
:1018E0002D3088F82E3088F82F3088F83130314B81
:1018F000C8F818303E2388F81C30012388F83030AF
:10190000802388F840302C4BC8F842302B4B88F8A5
:101910004620A8F8FE112A4A03CBC8F84B101988B4
:10192000C8F847009B78A8F84F1088F8513003CAD0
:10193000C8F85200C8F85610A8E64FF4007200210B
:10194000404664F056FD2B6CB9F1000F40F08D80DD
:1019500008F1200A002B00F09B802B6B1122194903
:101960004046CDE90099FFF7EDFD2B6C1A6C002A7B
:1019700000F09A801B6B504611221349CDE9009963
:10198000FFF7E0FD08F1400A4FF4E0786D6C002DA0
:101990003FF47CAEC244039424E000BF201C01202D
:1019A000FF03FB008320088297554541818080809A
:1019B000E8FA27003F00FF0029940E0DF4FA2700F3
:1019C00000FB2700E0FA2700E4FA27000024A8F132
:1019D0002008CDE900E4FFF7B5FDAD6CDDB1B8F14D
:1019E0001F0F18D995F8049005F11C0E11222968D3
:1019F0002B6BAAEB0800B9F1000FE7D16A79A8F1C7
:101A000020082C6942F02102CDE900E4FFF79AFD9D
:101A1000AD6C002DE3D1039C38E6E11A40465BF043
:101A20008BFB33E6FF22013B88F8C1214FF6FF72A2
:101A3000A8F8BF21214A93427FF7AFAEFF2388F871
:101A4000C5314FF6FF73A8F8C331C8E6514640468A
:101A50004FF4007264F0CDFC18E6194BC8E900336E
:101A600008F108084645F9D110E6002B6D6C14BF4B
:101A700002230123C3EB0913002D3FF407AE013B02
:101A8000AD6C01D0002DFAD1C2464FF400787EE74C
:101A900040464B4608224FF4F078CDE90099D7F83C
:101AA0006C13FFF74FFD71E750464B461122054975
:101AB000CDE90099FFF746FD64E700BFFF03FB0097
:101AC000DEADBEEFE4FA270044F23B3290F821315C
:101AD000A0F84C2103B970472DE9F04F1D0983B0E0
:101AE000044603F00F03013D052D4ED8364E06EB9C
:101AF0004502B2F8180540FA03F2D20745D501278E
:101B00003544DFF8DC804FF0004A07FA03F3013B6D
:101B1000184064F02DFD95F8243508F50C62262553
:101B200018442A49DFF8ACE0002302EBC009A9F809
:101B3000065052F8300044F80C1FB9F80410DEF8D3
:101B400000B0B1FA81F5224AC5F11F0C2AFA05F559
:101B5000664408EB8C0C2BEA050BCCF8984396F8FE
:101B60002C45CEF800B0A044CEF81450CDE9003397
:101B700060F036FE98F8C03BF02B0BD8154A13687E
:101B80002B43136003B0BDE8F08F104BE36003B04C
:101B9000BDE8F08F104BF02203211E5788F8C02BB0
:101BA00030461C5D5CF0E2F9B9F80450002EB5FA3D
:101BB00085F52AFA05F5E1DB04F01F02074B6409FD
:101BC000974043F82470D9E718692700BD2E2100FB
:101BD00000001110003C0140FCFB270000E100E088
:101BE000201C012048B182884FF000430349B2FA1B
:101BF00082F20868D34003430B607047003C014009
:101C000090F8DB30052B03D890F81E31032B01D060
:101C10000020704790F8233103F0FB03022B14BF20
:101C200007200020704700BF30B4294C294A94F89F
:101C30000C347BB3D2F8441F884236D0012B29D014
:101C4000D2F8FC1F814237D0022B23D002F58051FD
:101C5000D1F8B450A84231D0032B1BD0D1F86C512D
:101C6000A8422DD0042B15D0D1F82452A84229D057
:101C7000052B0FD0D1F8DC52A84225D0062B09D075
:101C8000D1F89453A84221D0072B03D0D1F84C149B
:101C900081420FD0591C84F80C14B82101FB032297
:101CA00030BCC2F8440F184670470023DBB230BC8A
:101CB000184670470723F9E70123F7E70223F5E702
:101CC0000323F3E70423F1E70523EFE70623EDE71A
:101CD000F0120020F801002010B490F8443000F118
:101CE00008014A4A012BC2F8C81B6DD08368484CD2
:101CF000D968A34221F46001D960D96841F4600138
:101D0000D960996B21F440119963996B41F480116A
:101D10009963996B21F4F8419963996B41F4884177
:101D20009963996821F4702199609968996099681C
:101D300021F44011996099689960596821F4806193
:101D40005960596821F48051596059696FF30B014A
:101D50005961596959614BD0D9682D4C21F0E06126
:101D6000A342D960D96841F0E061D960996B21F450
:101D700040119963996B41F480119963996B21F437
:101D800078219963996B41F410219963996821F442
:101D90007021996099689960996821F4401199605F
:101DA00099689960596821F480615960596821F4F3
:101DB0008051596099696FF30B0199619969996133
:101DC0001DD0002380F844301248134BB0F84C402B
:101DD000B0F84E10B0F84A00091BC2F8D04BC2F858
:101DE000CC0B5DF8044B93FBF1F3C2F8D43B704786
:101DF000D4F8041341F40001C4F80413ACE7074914
:101E00004B6843F400034B60DBE700BF201C01205C
:101E10000020014000F4F01F803801000023014041
:101E2000704700BF014856F05BB900BF0C28012085
:101E3000084810B4D0F8EC3BD0F8204C99691A68E7
:101E40002CB1234600F6EC305DF8044B18475DF8E2
:101E5000044B7047201C0120014856F041B900BFD7
:101E60006C280120084810B4D0F84C3CD0F8804CC5
:101E700099691A682CB1234600F64C405DF8044B72
:101E800018475DF8044B7047201C0120014856F0AC
:101E900027B900BFCC280120084810B4D0F8AC3CCA
:101EA000D0F8E04C99691A682CB1234600F6AC4092
:101EB0005DF8044B18475DF8044B7047201C012067
:101EC000014856F00DB900BF2C290120084810B474
:101ED000D0F80C3DD0F8404D99691A682CB12346D2
:101EE00000F60C505DF8044B18475DF8044B704742
:101EF000201C012030B583B08DF80730431C20D062
:101F000003281EDC00EB40000F4C430104EB4010A3
:101F1000D0F8EC5BADB190F82D0C20280BD1E01877
:101F200049000DF1070300F6EC305CF0FFF910B941
:101F3000012003B030BDB4F8583D01339BB2A4F882
:101F4000583D002003B030BD201C0120B0F1FF3F00
:101F500000F0C18003282DE9F043864683B055DCAC
:101F6000BA4D00EB40004FEA4E0705EB401CDCF891
:101F7000EC6B0CF6EC39002E48D0FF2A4FEA4101F9
:101F800048D09CF82D4C202C3AD1009348460A9B0F
:101F90005CF0D4FA002833D1012003B0BDE8F0830F
:101FA000D5F85C2DA2EB0C020A2A00F2A180A369ED
:101FB00013F02003F4D020231022E261E361A3692F
:101FC000980701D50023A362A369D90703D4A369A5
:101FD00043F00103A3616368BE449D49002205EB01
:101FE0004E1E0B4020216360DEF8303C8EF82C2C16
:101FF00043F00403CEF8303C8EF82D1C8EF82E2CC6
:10200000B5F8583D01339BB2A5F8583D002003B008
:10201000BDE8F0839CF82D2C202AF1D19CF82C2CC3
:10202000012AEDD001228CF82C2CD5F85CCD06E0ED
:10203000D5F85C2DA2EB0C02192A00F2F480B269EB
:1020400012F40042F4D107EB0E044FF022080A9874
:1020500005EB441484F82D8C4FF01008C4F8100CD4
:1020600084F82E8CC4F8302CA4F8163CB4F8163C36
:10207000C4F8202C9BB2FF2B2FD8B4F8163C754A1D
:102080009BB2A4F8143CDBB2746841EA03432240DB
:102090001343714A1A43726007EB0E0805EB4816AA
:1020A000B6F8163C9BB2002B00F0DE80D6F8EC4B65
:1020B00009E0A26912F0200269D1D5F85C3DA3EBDA
:1020C0000C030A2B7ED8A3695B0727D4A369DB0620
:1020D0003FF56DAFEDE70020704772685D4B134030
:1020E0005E4A0B431A43FF23A4F8143C7260D3E703
:1020F000BE44202105EB4E1EDEF8302C8EF82C3C21
:102100000A43CEF8302C8EF82D1C8EF82E3CB5F8F4
:10211000583D01339BB2A5F8583D77E7626AD6F87F
:10212000103C1A70B6F8163CB6F8142C013B013A74
:102130009BB292B2A6F8163CD6F8103CA6F8142C26
:102140000133C6F8103CB6F8163C9BB2002AA7D162
:10215000002BA5D0D6F8EC2B05E0D5F85C3DA3EB21
:102160000C030A2B4ED8946914F08004F5D0B6F80D
:10217000163C9BB2FF2B34D95468394B2340394C61
:102180000B431C43FF23A6F8143C546088E7A36963
:102190005A0703D5B6F8143C002BBFD120212C4898
:1021A00007EB0E03E161626805EB431302406260D6
:1021B0000022C3F8302C83F82C2C83F82D1C83F8D4
:1021C0002E2C1DE707EB0E03202005EB4313D3F85D
:1021D000301C83F82C2C0143C3F8301C83F82D0CE1
:1021E0000EE7B6F8163C9BB2A6F8143CDBB241EA07
:1021F0000344536818461A4B0340234343F00073CB
:1022000053604DE707EB0E03202105EB4313D3F892
:10221000302C83F82C4C0A43C3F8302C83F82D1C47
:1022200083F82E4CECE607EB0E032020002105EB93
:102230004313D3F8302C83F82C1C0243C3F8302C02
:1022400083F82D0C83F82E1CDAE600BF201C012039
:1022500000E800FE009800FC002400820024FF81BA
:10226000009C00FC0000FF01614648465CF00AF853
:10227000034600287FF4C4AED6F8EC2B2020074C90
:1022800005EB4818D06151682140516086F82D0C4B
:1022900088F82C3C86F82E3C7EE600BF00E800FE65
:1022A00030B40469002341684025E46882690C3138
:1022B000546244699560536093631160C2E90333CB
:1022C000C2E90533C2E90733C2E90A33C2E90C3374
:1022D00084B1C269E068936350621160C2E901335E
:1022E000C2E90333C2E90533C2E90733C2E90A335D
:1022F000C2E90C3330BC7047114A037A0168D35CE1
:1023000010B4CC58CA1824F00104CC501368DB0771
:10231000FCD4037D1F2B09D9203B20225DF8044B00
:1023200002FA03F343F01803CB60704720225DF8F4
:10233000044B02FA03F343F018038B60704700BFAD
:10234000F0FB2700F0B50668356A00295DD12B68DF
:10235000AC68B769002B60D09C46344B0CEA030391
:10236000B3F1005F5DD00CF01F0104F11F032CF0EE
:102370001F02194421F01F01BFF34F8F00290BDD0D
:10238000114402F12003DFF8A8E08B42CEF8682266
:102390001A4603F12003F8D1BFF34F8FBFF36F8FBD
:1023A00002684FF480637B615369C7F804C03C62E4
:1023B00053B36B68F569002B35D01E461B4B334079
:1023C000B3F1005F1BD006F01F0104F11F0326F0DC
:1023D0001F02194421F01F01BFF34F8F00290ADDAE
:1023E000114402F1200312488B42C0F870221A46B1
:1023F00003F12003F8D1BFF34F8FBFF36F8F4FF47A
:1024000080636E606B612C62F0BDEC69002CFBD0C8
:102410006B691435B769002B9ED1DFF81CC03246BA
:10242000C1E73246BDE7034EEBE700BF0000FFFF08
:1024300000ED00E054000020500000202DE9F041A4
:102440000468D4E904351A7DD3E90061002D4DD02C
:102450001F2AA86138D820202F6800FA02F242F023
:102460001802B2602A7D1F2A39D9203A202000FAAA
:1024700002F242F01802FA606A68002008601060F8
:102480003046116841F01001116093F80880A2698C
:1024900041465FF07DFF2D7AE269384629465FF0BC
:1024A00077FF274B626813F80800595D335843F0F3
:1024B000010333507B5843F001037B50536843F0D2
:1024C00003035360BDE8F081203A20202F6800FA12
:1024D00002F242F01802F2602A7D1F2AC5D820209D
:1024E00000FA02F242F01802BA60C5E71F2A9861AA
:1024F0001ED8202000FA02F242F01802B260002238
:1025000030460A600A6842F010020A601D7AA26929
:1025100029465FF03DFF0A4B6268595D735843F0EE
:1025200001037350536843F002035360BDE8F08128
:10253000203A202000FA02F242F01802F260DEE7B0
:10254000F0FB270010B1036882889A61704700BFD2
:1025500018B1838802681B049361704708B51D2079
:1025600010F032FC08B183794BB11E2010F02CFC26
:1025700008B1837903B108BD5523C38008BD552335
:10258000C380F2E7D3B2012B22D8524270B502F0D9
:102590000C0E104C002223460EF1080503E0013218
:1025A0001C33182A12D093F800C08445F7D193F851
:1025B00001C08C45F3D15E59002EF0D0C2EBC202AF
:1025C0000EF1040303EB8203E01870BD002070BD20
:1025D00000207047546E270010B40C4C002304F503
:1025E000566C01E0152B0CD003EB430201331CF8B1
:1025F00002108142F6D1144494F9620D5DF8044B47
:1026000070474FF0FF305DF8044B7047201C0120ED
:10261000D3B2022B21D802EB420270B54FEA820EF0
:102620000F4C002223460EF10C0503E001322C333F
:10263000172A10D01E68B042F8D193F804C08C4518
:10264000F4D15E59002EF1D02C210EF1080301FBCC
:102650000233E01870BD002070BD0020704700BF3D
:1026600018692700002838D0002330B51B4D90F89A
:1026700004C005F5566401E0152B2CD003EB430292
:102680000133A15C6145F7D11544046890F805E079
:1026900095F9623DDAB2022A1DD803EB43031048D4
:1026A00000224FEA830C03460CF10C0503E00132D3
:1026B0002C33172A0FD019688C42F8D1197971453B
:1026C000F5D159590029F2D02C210CF1080301FB56
:1026D0000233184430BD002030BD7047201C01205B
:1026E000186927000348D0F8AC3113B100F5CE705B
:1026F00018477047000001200348D0F8D03113B1CB
:1027000000F5E07018477047000001200348D0F83A
:10271000F43113B100F5F270184770470000012042
:102720000348D0F8183213B100F50270184770470B
:10273000000001200348D0F83C3213B100F50B70C3
:1027400018477047000001200348D0F8603213B1E9
:1027500000F5147018477047000001200348D0F8B6
:10276000843213B100F51D70184770470000012036
:102770000348D0F8A83213B100F526701847704707
:10278000000001200348D0F8CC3213B100F52F70BF
:1027900018477047000001200348D0F8F03213B109
:1027A00000F5387018477047000001200348D0F842
:1027B000143313B100F54170184770470000012031
:1027C0000348D0F8383313B100F54A701847704702
:1027D000000001200348D0F85C3313B100F55370BA
:1027E00018477047000001200348D0F8803313B128
:1027F00000F55C7018477047000001200348D0F8CE
:10280000A43313B100F5657018477047000001202C
:102810000348D0F8C83313B100F56E7018477047FD
:102820000000012000EBC0000C4B0D4A03EB8003BD
:10283000116BD3F8783110B40A4C83B0A34214BFA3
:102840004FF480034FF4001319431163126B1340CC
:102850000193019B03B05DF8044B70470000012019
:1028600000380240006002400138F8B500EBC000BB
:10287000124C1D46124B04EB800417460E46D4F84A
:102880009C01984214BF962095205CF0D7FA94F9E9
:10289000B101B909C4F8AC61C4F8B4515BF066FB8E
:1028A00094F9B131002B07DB03F01F0001225B0913
:1028B0000449824041F82320F8BD00BF00000120F8
:1028C0000060024000E100E0800AA0F5801052287C
:1028D00008D8054B034493F8F4330D2B02D8034A70
:1028E000D05670470020704718692700E0FB27008A
:1028F0000120FDF765BF00BF0220FDF761BF00BFEB
:102900000420FDF75DBF00BF0820FDF759BF00BFE1
:102910001020FDF755BF00BF4FF47870FDF750BF92
:102920004FF47C40FDF74CBF30B1036880881B69D1
:102930001840003818BF0120704700BF70B50C4622
:1029400086B005461646F0B10268104B13449B0A48
:102950000F4A134493F8DC075CF070FAAA8804F07D
:102960000303286800926946C4F381020193C4F30B
:102970000013C4F3411405960494CDE902235FF0DB
:1029800059FC06B070BD4FF0FF33E1E70000FEBF19
:102990001869270000B1D1E770472DE9F84FBD4C09
:1029A0006023054603FB0043D3F8D87B002F00F0DB
:1029B0005E81D3F8E08BB8F1000F04D098F80630B0
:1029C000002B40F05481602303FB0543D3F8E46BF4
:1029D0001EB1B379002B40F04A816B1CDBB2B8F119
:1029E000000F04D0152288F8073088F8062016B1A9
:1029F0001622F371B2714FF06009387C5CF01EFA58
:102A0000314609FB05F9404660F00EFC404604EBF8
:102A1000090A0422DFF8A0829AF8E83B002B0CBFD9
:102A20004FF01E0B4FF03E0B5946FFF7B3FF3046F9
:102A300009F11406042259464644FFF7ABFF4C2225
:102A40000021304663F0D5FCDAF8D83B9FED927A4E
:102A5000B0EE084A5B68F7EE003ADFED905A0020CE
:102A6000CAF8EC3B8E4BBAF8EAAB9A688D4BC2F3CE
:102A700082229FED8D5A134493F8E427D4F8B0389E
:102A8000D34007EE903AF8EE677A87EE276A07EEB2
:102A900090AA9FED867AF8EEE77AC7EE274AF0EE25
:102AA000007AE6EE275AA6EE275A26EE044A74EE7E
:102AB000E52ABAF5C87F40F3DE804FF4FA714FF48F
:102AC00082793223782200F1010E1344323A4944CC
:102AD00007EE90EAF8EEE76A07EE903AB8EEE77A8A
:102AE00066EE866AC7EE267A77EEE37AFCEEE77A40
:102AF00017EE903A07EE902AF8EEE77A77EEC47A6E
:102B000087EEA67AFCEEC77A17EE90CA07EE909A87
:102B1000B8EEE73A07EE901AF8EEE77A23EE243A99
:102B200083EE277A37EE453A32EEC77AC3EE267A3D
:102B300035EE853A77EEE37AFCEEE77A17EE901AF7
:102B4000C7EE267A77EEE37AFCEEE77A17EE902A64
:102B500002F1020909EB010BB0EE437A07EE90BADD
:102B6000F8EE677AA6EEA77AF4EEC74AF1EE10FA0D
:102B700000F3898043EA0C095FFA89F9B9F10F0F74
:102B800000F2838041EA02091FFA89F9B9F1FF0FC7
:102B90007BD81B054FEA0C4C03F07F6392B20CF418
:102BA0007F0C43EA0C0343EA0073414800EA012129
:102BB0000B43134360224FF00009304655432C4429
:102BC0002835C4F8F03BA8440123C4F8F49BC4F8AA
:102BD000FC9BC4F8F83BC4F8009CC8E902995FF07C
:102BE000B1FD94F82D3C202BD9B21AD194F82C3C8D
:102BF000012B16D0242384F82D3CD4F8EC3B1A6822
:102C000022F001021A601A6822F480521A601A68CF
:102C10001A601A6842F001021A6084F82D1C84F8C8
:102C20002C9C002197F912005BF0A0F997F9122073
:102C3000BB7C002A08DB5909012203F01F0302FABA
:102C400003F31C4A42F82130002197F911005BF090
:102C50008DF997F911207B7C002A08DB59090122A4
:102C600003F01F0302FA03F3124A42F82130BDE8D1
:102C7000F88F70461DE740F214514FF41679642323
:102C80004FF496721FE7013164E7BEF10F0FF0D1E8
:102C900000238FE7201C0120286B6E4E000070423D
:102CA00000380240186927000000164300247449C8
:102CB00000FFFF0000E100E0F82701202DE9F84FB8
:102CC000744EC0EB001306EBC303D3F8A04D002CE9
:102CD00000F0868093F8108E0546070140465CF0B0
:102CE000ADF801224FEA581308F01F08013B02FA21
:102CF00008F2032B08D8DFE803F0C1C702BB66491E
:102D00000B6A23EA02030B627B1B05F1010B06EB46
:102D1000C3035FFA8BFB93F8A40D10F055F88046BF
:102D200018B1122380F807B083717B1B06EBC30335
:102D300093F8A50D10F048F8824618B1132380F8D7
:102D400007B083717B1B06EBC30393F8A60D10F04D
:102D50003BF8814618B1142380F807B083717F1BBC
:102D600050462E2106EBC70696F8A82DFFF712FE57
:102D700096F8A92D48460E21FFF70CFE96F8A72DD0
:102D80002E214046FFF706FE2368444A23F0400305
:102D90009442236026D1404B5A6A42F480525A62D0
:102DA0005A6A22F480525A62636843F48053636023
:102DB00023685B060CD4206840F217323849394B3F
:102DC00001400A4322606268134043F4E063636099
:102DD000E36923F40063E361236843F04003236065
:102DE000BDE8F88F304B9C4237D0304B9C4229D005
:102DF0002F4B9C421BD02F4B9C420DD02E4B9C4204
:102E0000D2D103F564435A6A42F400125A625A6AF4
:102E100022F400125A62C7E703F568435A6A42F483
:102E200080125A625A6A22F480125A62BCE703F591
:102E300082335A6A42F400525A625A6A22F40052A9
:102E40005A62B1E703F5FE331A6A42F400421A628D
:102E50001A6A22F400421A62A6E703F500331A6ADE
:102E600042F480421A621A6A22F480421A629BE794
:102E700009490B6923EA02030B6145E706494B69DF
:102E800023EA02034B613FE703494B6A23EA02034B
:102E90004B6239E7201C012000380240003001401D
:102EA0004000FFFFFBF0FFFF00380040003C004007
:102EB00000340140005001400054014038B5284B17
:102EC0000446D0F8D8105A68D0F8E030501A83423F
:102ED00000DC23B9D4F8E4300B44C4F8DC3094F8B7
:102EE000D030C4F8D820012B05D0D4F8D430013329
:102EF000C4F8D43038BD201D04F1E8056168EFF353
:102F00001183102282F312885FFA83FC63681B6AC4
:102F1000FBB1D4F8F0302A461BB1D3691432002B30
:102F2000FBD10B6A6BB1996839B9934209D0196822
:102F300029B15B6899680029F7D01433F3E7C3E936
:102F400000058CF31188D4F8D4300133C4F8D430A0
:102F500038BD0D628CF31188EDF570FBC5E700BF3D
:102F6000001000E070B5856996B004462B6995F8AD
:102F70004C211978012906D0022901D1196AD9B149
:102F8000002016B070BD93F9040004AB297D0093B6
:102F90000623FEF7DBFF0028F2D0BDF81010012059
:102FA000BDF81220BDF8143049BA52BA5BBAE181BB
:102FB0002282638216B070BD62F07F0207918DF8A5
:102FC000241000208DF80F200DF10F020F910692B2
:102FD0000122129108928DF838208DF84C2006229B
:102FE0001491CDE90A1104A9CDE90C120021CDE913
:102FF000100105F11000EFF31182102181F3128806
:103000005FFA82FC2A69126AF2B1089A06AE12B31C
:103010003246D16914320029FBD11B6A6BB1996821
:1030200039B99A4209D0196829B15B6899680029B1
:10303000F7D01433F3E7C3E900068CF311882A694B
:10304000136A002BFCD1A8E706AA1A628CF3118838
:10305000EDF5F4FAF3E73246DFE700BF036930B578
:10306000197897B0044690F84D21012906D002291D
:1030700001D1196AF1B1002017B030BD04A993F94C
:10308000040006230091217DFEF760FF0028F2D0A6
:10309000BDF810100120BDF81220BDF8143049BA57
:1030A00052BA5BBAA4F8D010A4F8D220A4F8D43055
:1030B00017B030BD62F07F0207918DF824101030F8
:1030C0008DF80F200DF10F020F910692012212913F
:1030D000149108928DF838208DF84C2006229FED2F
:1030E0001E7BCDE90A1104A98DED107BCDE90C12F0
:1030F000EFF31182102181F3128821695FFA82FCBB
:103100000A6AF2B1089A06AD12B32A46D16914329E
:103110000029FBD11B6A6BB1996839B99A4209D071
:10312000196829B15B6899680029F7D01433F3E76F
:10313000C3E900058CF311882269136A002BFCD1C6
:10314000A6E706AA1A628CF31188EDF577FAF3E781
:103150002A46DFE7AFF30080000000000000000017
:1031600082692DE9F04192F8DC308AB00546012BE6
:103170004CD0023B012B54D892F84C31EC46D2F89B
:103180009C2063F07F032D4C13708769D7F8A03023
:1031900007F11006D7F8108003F1010E0FCCACE850
:1031A0000F00D7F89C30CDE9003E0FCCACE80F0003
:1031B00094E803008CE80300EFF31183102282F3FC
:1031C00012883A69D8B2136A002B2ED0029B6A4645
:1031D0001BB1D3691432002BFBD1D8F8203073B166
:1031E000996839B99A420AD0196829B15B68996817
:1031F0000029F7D01433F3E71E60C3F804D080F33E
:103200001188AA6911690B6A002BFCD1D2F8A03091
:103210005A8852BAEA819A8852BA2A82DB885BBA03
:103220006B8201200AB0BDE8F081C8F820D080F39D
:1032300011883046EDF502FAE3E700BF047127007C
:103240002DE9F04190F8DC308AB00446D0F8A05067
:10325000012B73D042D9023B012B6BD890F84D3132
:10326000EC46D0F89C2000F1100763F07F035B4E22
:103270001370D0F8A030D0F8108003F1010E0FCEFB
:10328000ACE80F00D4F89C30CDE9003E0FCEACE89E
:103290000F0096E803008CE80300EFF3118310227F
:1032A00082F31288D8B223691B6A002B00F08E804B
:1032B000029B6A461BB1D3691432002BFBD1D8F8AC
:1032C00020302BB3996839B9934221D01968E1B104
:1032D0005B6899680029F7D01433F3E7D0F89C3085
:1032E0004FF0FF3205211A605A609A60DA60D0F818
:1032F000E030C0F8F010B3F57A7F3AD8032380F8B5
:10330000DC3001200AB0BDE8F0811F60C3F804D0B2
:1033100080F311882269136A002BFCD16B885BBA99
:10332000A4F8D030AB885BBAA4F8D230EB885BBA93
:10333000A4F8D43001200AB0BDE8F08190F84C2107
:1033400090F84D319B1A5B100133DBB235F8132036
:1033500005EB430553BAA0F8D0306B885BBAA0F8F0
:10336000D230AB885BBAA0F8D43001200AB0BDE8F7
:10337000F08103691A7B2AB35B691BB390F898301C
:1033800003B390F84C310122D0F89C0063F07F0326
:10339000C4F8A4401249037094F84D3194F84C01DC
:1033A00084F800211B1A84F8DC20D4F8A02007330D
:1033B000C4F804110132D4F89C10C4E93E23C4F8C7
:1033C000F410B7E7022384F8DC30B3E7C8F820D064
:1033D00080F311883846EDF531F99BE70471270039
:1033E0000100210010B10022FFF7A8BA704700BF0A
:1033F00002692DE9F041167884B004460D46012E8D
:1034000017D10B7900F110074FF00008013B8DF840
:10341000058013710DF105024B797521002B08BF52
:1034200068230375334638460EF0C6FC00283ED1AB
:10343000226902231370EE781EB9002004B0BDE8A3
:10344000F08104F11007A97838460FF079F90028C7
:10345000F3D030460FF0B8FCA0612B78064601335C
:10346000DBB210B1C3712223837130460D21FFF707
:10347000B9FF3046FFF766F8434AD2F84033632B72
:10348000FBD942480FF048F9414E424BA08202E07E
:1034900056F8043F63B33846984703460028F7D0F0
:1034A000206984F8D8305FF02BFF0120C6E720693F
:1034B0005FF026FF334641460DF1060238460EF016
:1034C0007BFC9DF8063003F07E03682B8DF80630F8
:1034D00000D198B99DF8053003F07E03682B8DF874
:1034E00005300ED0702BE0D1042384F8D830DCE70F
:1034F000E8780FF069FC0FF0C5FC9EE784F8D8600F
:10350000D3E70623022102AA384684F8D8101946C8
:103510000EF052FC9DF80D309DF80B209B005200E0
:1035200003F0040302F0020213439DF8092002F0A5
:10353000010213430ED068B1032B05D8012B05D12E
:10354000002384F8D930B0E7072B19D1012384F880
:10355000D930AAE701230DF107020C2138460EF0FD
:103560002BFC80F001039DF80720DBB202F00F0274
:1035700033B9B2FA82F35B0912B1042AE6D1E6E765
:10358000032011F0CFFB90E7201C012040420F00E8
:103590002C7127002DDA250070B50E4CD4F8346656
:1035A000002E15DD04F58764002503E00135203485
:1035B000B5420DD0237F002BF8D0E0680022002810
:1035C000F4D00135217DFFF7B9F92034B542F1D1AE
:1035D000012070BDF80100202DE9F04F002393B0C9
:1035E000A74F0193A74BA7F6341BA74D93F8923F23
:1035F000A64EAA4603F1FF3903935FFA89F30293BB
:10360000A34DA946D9F80050AB0AA3F58013522B5D
:1036100000F2D7805B4493F8F4330D2B00F2D18095
:1036200016F90380039B012B00F01581039B022BED
:1036300002D1B8F1080F3AD100242146404611F0DA
:1036400009FD11F091FD90F800C0BCF1000F18BF0A
:10365000BCF1540F14BF4FF0010C4FF0000C40F0C0
:1036600004810434A4B2102CE7D1019B002B00F09C
:10367000B380854A0CE05B4493F8F4330D2B0ED8ED
:10368000F35643450ED002F58672524500F0A080F5
:1036900091680B689B0AA3F58013522BEBD900238A
:1036A0004345F0D14B7999F805109942EBD109F1D6
:1036B0001C094F45A6D1019B0AF5867A0133042BDC
:1036C00001939DD1DFF8DCA10023AAF5876B01935C
:1036D0000AF59E730293DBF83436019A93426DDD4E
:1036E000DAF80C70002F69D09AF810303A68DBF8DD
:1036F000045068480493002DBB88104403934FEA9C
:10370000902040F3D380604B002405E0013403F5A2
:103710008673AC4200F0C88019688142F6D15A4BDA
:103720004FF48671039E01FB0434049B4FF0030E9B
:10373000019D8AF81030039B0135CAF80C70B3FA6A
:1037400083FCCAF81840CCF11F035800CAF80430B3
:1037500087F806E0FD710EFA00FEA16C0127D4F88F
:10376000548041EA0E0107FA00F007FA03F39BF8D0
:1037700000E0A164216D0143D4F8AC00216599B249
:10378000BEF1000F00F0FC8043EA08036365966118
:103790003A46FCF7AFFC20460AF1200AFCF77EFC13
:1037A00040F201120123082D2AF8042C029A0195F7
:1037B00002F1180202F8073C02928CD113B0BDE866
:1037C000F08F029B012B7FF672AF4FF0000833E7BA
:1037D000BCF1000F7FF46BAF4846FCF725FC99F86D
:1037E00005E0C3B2022B00F26C8300F1010C2A4AFF
:1037F0004FFA8CFC02F57D700CEB4C0C4FEA8C0CF4
:1038000003E02C32904200F05C8313689D42F8D1B3
:1038100013797345F5D152F80C30002BF1D01F48C5
:10382000002142689A4212D0013124301029F8D187
:103830004FF0FF3303EBC303194A02EB830393F802
:10384000B831002B7FF433AFCAF8089033E74B1C34
:10385000DBB2013BEEE7B8F1010F3FF4EDAE09F149
:103860001C094F457FF4CEAE25E7019B002B7FF46A
:1038700000AF09F11C094F457FF4C4AE1BE700BF40
:103880004C722700201C012000020020E0FB2700D2
:10389000507127000000FEBF186927009C0101201D
:1038A0000000012030060020042C76D04FF48673EF
:1038B00003FB05B319690691002900F0EA829860BC
:1038C000013054210792C4B2AE4A83F8101183F834
:1038D00011416B1C92F8A92FCBF80430069B08927B
:1038E00018461E685B790593FCF79EFBC3B2022B5A
:1038F00000F2E78200F1010EA3494FF0000CDDF861
:1039000014904FFA8EFE079A0EEB4E0E4FEA8E0E73
:1039100006E00CF1010C2C31BCF1170F00F0D18244
:103920000B689E42F5D10B794B45F2D151F80E3020
:10393000002BEED098462C2300EB4000924903FB6D
:103940000CF3DFF8789203EB800348460B441969C7
:103950004FF4867303FB05B3C3E907810021436875
:1039600043452BD0013124301029F8D1874B93F8EF
:103970009421B2B9542283F8954183F8942110E040
:10398000CCF12F0C360407FA0CF343EA0803636505
:1039900096617246FCF7AEFBFDE60323794A82F896
:1039A000A83F7B4B7B487C497C4AC3F84804C3F85A
:1039B0004014C3F8502413B0BDE8F08F4B1C73497A
:1039C000DBB2013B03EBC30301EB830393F8B811B4
:1039D00009910029E5D14FF4867171484FF08C0CA4
:1039E00083F8B94101FB05F16E4C0791891004F58C
:1039F0004C7E00FB01F107985844C0F800C10CFB55
:103A000001FC01EB4101C2600EEB4C0201EB011124
:103A1000C0F8FC20542204EB8104079983F8B821F4
:103A20003323C0F8B440C0F8B8305F4B5C18554B36
:103A3000D3F8B028089B062B00F01C82072B00F05F
:103A400016825A495A4B3046B2FBF3F3B2FBF1F2FD
:103A5000013B4FF48671013A9BB201FB05B1A1F81D
:103A6000BC20A1F8743023660023A4F858306366A4
:103A7000E365079B03F158014B4B19445EF08CFA48
:103A80003368059A43F0800333600C2A0ED8DFE8D0
:103A900012F098010D000D000D0077010D000D00D2
:103AA0000D00B7010D000D000D0054014FF4867399
:103AB0006022304603FB05B30A924FF480725969C5
:103AC00033681092012223F0010308910B920A221D
:103AD000336000230C930F9311930223CDE90D2340
:103AE0000AAA5EF011F908990023B1F5807F00F071
:103AF000CD8100F2C281102900F0DC8100F2CE817C
:103B0000012902D0042940F0CC81082206F11801D5
:103B1000C8580243CA50069B1879002840F0968185
:103B2000336843F0010333600023D9F804200133E4
:103B3000904500F08781102B09F12409F5D14FF051
:103B4000FF33124A03EBC30302EB8303D3F89C0158
:103B5000184B984214BF962095205BF06FF9059B97
:103B60000C2B00F26C81084A02EB4303B3F834C912
:103B70004FF48673104903FB05B3A3F818C0002364
:103B800025E000BF201C012018692700000001204B
:103B9000F012002021F821001DF8210029F8210051
:103BA0006B4CA40750170020000200204495080029
:103BB000D0DD0600006002401C1100209C010120A5
:103BC000964200F072810133042B00F07D8151F8A0
:103BD0003320002AF4D1DBF8202F0132CBF8202F3C
:103BE0000BEBC302DB00C2F8246F1944099823468B
:103BF00090228E884CEA060C0026A1F804C0B44935
:103C0000FEF732FE4FF48673B2484FF4403203FBA6
:103C100005B8D8F81C50D8F80C902B68E9B243F0DE
:103C2000100310392B602B68A0FB0101402043F0EA
:103C3000140309092B60C4F8A860C4E91F66C4E92D
:103C40002866D8F82030C4F898204FF48062C4F871
:103C5000943008930423A067C4F89C30C4F88420EF
:103C60009D4BD8E92D02C4F8902009F11802606735
:103C70004FF4804022674FF4805209F11009C4E9E3
:103C80002220079A25F0FF0070321A44CDE9050181
:103C90005EF07EFBD5F800E0079AC4F820E0D5F886
:103CA00014E0B8328C4BC4F824E0D5F804E01A4490
:103CB000089BC4F828E0D5F808E0C4F82CE0D5F853
:103CC0000CE0C4F8DC300423C4F830E0C4F8E4307D
:103CD0004FF48063C4F8C860C4F8CC304FF40033AC
:103CE000C4F8F060C4F8E030C4E93066C4E93A666C
:103CF000D8E93F63DDE90501C4E92E964FF480461B
:103D0000C4E935634FF40063C4F8D0305EF040FB83
:103D10002B683A6863636B69BE88A3636B68E3636F
:103D2000AB682364EB6863642B6843F010032B607B
:103D30002B6843F014032B60F7E433684FF486726A
:103D40004FF480514FF0020E23F0010302FB05B245
:103D5000304651610AAA336000230C930F931193EC
:103D600060230A934FF48073109301230B930A236B
:103D7000CDE90D3E5DF0C8FF4FF400620423C5E6B7
:103D80004FF4867210213368022002FB05B223F043
:103D9000010351616022336000230A924FF4807264
:103DA0000C93109201220F930B920A221193CDE9EA
:103DB0000D200AAA30465DF0A7FF00234FF40062F1
:103DC000A4E64FF4867233680121304602FB05B247
:103DD00023F001030B9151616022336000230A92AA
:103DE0004FF480720C930F931193022310920A22C6
:103DF000CDE90D230AAA5DF087FF0023082285E69E
:103E000033684FF486724FF48071022023F001036F
:103E100002FB05B2109151616022336000230C93C4
:103E20000F9311930123CDE90A230A230AAACDE9AE
:103E30000D3030465DF068FF0822042366E64FF03F
:103E4000000C95E6DBB20993013B7AE60EF0BCFF6D
:103E5000089038B1069B0221DA79FEF76FFD5422F3
:103E6000089BDA80736C43F40043736458E61B4983
:103E70001B4BE8E51B491C4BE5E5B1F5805F1CD009
:103E8000B1F5803F13D0B1F5806F0AD10822042329
:103E90003CE60223154A82F8A83F82E540293FF418
:103EA00034AE4FF400623C2330E6DB009DE608228E
:103EB0003C232BE64FF4006228E64FF40062042313
:103EC00024E600235B68FFDE00239B88FFDE00BF43
:103ED00041012100ABAAAAAA00020020105522002D
:103EE00040771B00882A1100A0BB0D00201C012078
:103EF00070B590F8B2311C09013C052C0FD81A4E50
:103F0000054603F00F0306EB4402B2F8180540FA29
:103F100003F2D20703D595F8BD21012A01D0012073
:103F200070BD9A402644013A104062F021FB96F899
:103F300024350E4A034402EBC30452F83320A3880D
:103F400010691840ECD0002395F8B32102212046D7
:103F500085F8BD31FEF7F2FCD5F82021136843F057
:103F600008031360DBE700BF18692700E024012085
:103F700008B9002070472DE9F04F00228DB02F21A5
:103F8000044611F047F9074600B390F80580994EB2
:103F9000D0F80090A6F8A884FEF764FBB0B145689D
:103FA000A5B1DFF888B200225946DC46DCF80430BF
:103FB00001320CF1240C9D420CD0102AF6D18E4B0C
:103FC00093F8942112B92F22A3F8942100200DB068
:103FD000BDE8F08FD2B2DFF820A2013A02EBC202B4
:103FE0000AEB820C92009CF8B8310093002BEDD1C3
:103FF00011442F2283688A83804AD6F8B01801932F
:104000009142C6F8689480F0D680009A090A7C48EC
:10401000C6F86C240022A0FB01107A49C6F8782467
:10402000C6F8702402090009A1FB0212C6F8740444
:104030005208A6F8AC2F5200A6F8AA2F96F8A5248D
:1040400002F0FF01002A00F0CB80022248466E49B0
:1040500086F8A52454F016FC0122204686F8A524F3
:104060000EF0B2FEC6F8B00F28B12F21C1804E214C
:10407000FA79FEF763FC654A0021019BB8F10C0F49
:10408000C6F8C01FC6F8B83FC6F8D01FC6F8D81F7C
:10409000C6F8E01FC6F8E41F106BC6F8B45F40F422
:1040A00000101063106B00F4001003900398106B65
:1040B00040F480001063126B02F480020492049AB0
:1040C0004FF04002C6F8BC2F4FF48062C6F8C42FF0
:1040D0004FF48052C6F8C82F4FF48042C6F8CC2F58
:1040E0004FF40032C6F8D42F4FF00302C6F8DC2F8D
:1040F0006DD8474A02EB4802B2F85049A14608344D
:1041000044485946002206EB840CCCF86804A0F61B
:104110004C30C6F8EC0F48680132243185425CD03F
:10412000102AF8D14FF0FF3202EBC2020AEB820AEA
:10413000394ADAF89C01904214BF962095205AF033
:104140007DFE0022DBF8041001320BF1240B8D42BE
:1041500040D0102AF6D106EB840600984B46602228
:104160002E49FEF781FBD6F8680453F00BFE0028B9
:104170007FF42CAFBC7960210A9042466300059120
:104180000B9005A903F00203069009900793E30042
:10419000234803F00803089359F048FC00287FF4F3
:1041A00015AFA30741461E481DD554F04FFCB0FA89
:1041B00080F040090BE71B4A1B480A44A0FB02029F
:1041C000920D013A92B2501CB1FBF0F11EE7894604
:1041D0000C4694E7D3B20093BDE7D2B2013AA3E70D
:1041E00086F8A41431E754F01DFBB0FA80F04009C2
:1041F000EDE600BF201C012000000120006CDC0265
:10420000598B4F01ABAAAAAA8C200120003802408A
:1042100018692700D42B012000600240490D2100BD
:104220008820012000366E01819F5E169C010120CE
:10423000014B53F82000704750280040014B43F8D1
:1042400020107047502800401C4B1D48196C1D4A17
:1042500041F0805110B483B01964196CFF2401F04F
:10426000805101910199016841F480710160CA2077
:1042700053215462506251625B6FDB0014D4124BC5
:1042800000221249C3F85428C3F85828C3F85C2800
:10429000C3F86028C3F86428C3F86828C3F8501826
:1042A00003B05DF8044B7047074A084BD2F850281A
:1042B0009A42E4D103B05DF8044B704700380240E5
:1042C0000070004000280040002000403166654238
:1042D0002DE9F04F0646086889B00C46850ABDF8FE
:1042E00048A0A5F580159DF84CB0522D54D819461C
:1042F0002E4B2B4493F8F4530D2D4DD82C4FFCF737
:104300009BFD94F8058007EB851794F80690AD01A6
:10431000BBF1000F43D14B465A004FF48071DB00D4
:10432000384602F00202CDF808A003F00803039219
:1043300042460493602301934FF40073CDE90613C2
:10434000002301A9059359F071FB19F0020F4146B2
:10435000384627D054F07AFB164B02215A1982F8BE
:104360002D15D2F8F014144A88680240062A06D0A7
:10437000B2F5803F03D00A6842F001020A602B4484
:10438000012283F82D252168637901F134027160DF
:104390000021D0183060D15009B0BDE8F08F89F00D
:1043A0000103B9E754F03EFAD6E700BF18692700C9
:1043B00010210120201C0120070001002DE9F84FE9
:1043C000D0F8947004464A4B00F16406FDB227F021
:1043D000FF09826800F1180A103D4846D2F80080B3
:1043E000A3FB05352D0929465EF01AF8626D0023FE
:1043F000B2F5807F84F8583057D037D8102A68D06B
:1044000064D8012A01D0042A39D16FF0080132465C
:1044100008F11806404656F803C001EA0C01F150B5
:10442000D4F854B059465DF06FFCBBF5807F37D0AF
:1044300029D8BBF1100F4FD044D8BBF1010F02D0E7
:10444000BBF1040F28D14FF0080C336852462946BF
:10445000484643EA0C033360402323625DF098FF33
:104460003B6843F010033B60BDE8F88FB2F5805F16
:104470003AD0B2F5803F21D0B2F5806F15D06FF4FD
:1044800000613C23C3E7BBF5805F28D0BBF5803FCC
:104490000FD0BBF5806F03D03C364FF4006CD4E7EF
:1044A00008F11C064FF0080CCFE76FF00801042359
:1044B000ADE708F154064FF0080CC6E76FF00801AD
:1044C0003C23A4E7BBF1400FBDD0E5E7402A9CD0D8
:1044D000D5E76FF400619AE74FF4006CB5E708F197
:1044E0001C064FF4006CB0E76FF4006104238EE704
:1044F000ABAAAAAA2DE9F04FDFF84CB385B09BF820
:1045000000301BB9012005B0BDE8F08FC74BD3F8D0
:1045100040730FF0D7FDC64991F8243C002B00F002
:10452000B981C44B0BF5C7680BF6181A0BF5226559
:10453000A3FB0737C04B0026D1467F09A3FB072307
:10454000DB0803EB8303A7EB4307D1F81C34C31A42
:104550000093FBB208EB87070393009A002A03DB62
:10456000EB6D934200F37B8106EB86030BEB431369
:1045700093F8783A002B00F0B180D5F89410AB682E
:10458000AE481A68CBB221F0FF01103BA0FB030339
:10459000AB481B09C35C0B44A9895C68D368A4B20F
:1045A00023EA0103C4F11604D360072C40F296807D
:1045B000DBF8203900220121013394468A46CBF8EA
:1045C0002039D5F89C3018689E46CDE9013614E0B4
:1045D000BCF1140F1DDC13F1080648BF03F11706E8
:1045E00033110CEB261C5E1E013102FA03F30AFAAA
:1045F00006F68C4246EA03020BD303468C425EF871
:10460000040FA0EB0303E3D8CCF115034FF0150C16
:10461000E9E7BCF1150FDDE9013640F01781894C5F
:10462000C2F38421C2F3441004EB810104EB800047
:10463000D1F86C19D0F86C09090241EA001102F0B6
:104640001F00C2F3C43204EB800004EB8202D0F8F6
:104650006C09D2F86C29014341EA023282EA122144
:1046600081EA111101F00F010F2940F0EF80C2F330
:104670000F124FF6FF718A4200F0E880B2F5606FCA
:1046800000F0F180A9F80C2098F858300398834284
:1046900010D0B968D8F800305B1AC8F80030396B10
:1046A000D8F804305B1AC8F804300023BB603B63C1
:1046B00088F85800D8F800300133C8F80030BB68DB
:1046C0000133BB604FF6FF739A4207D1D8F804302C
:1046D0000133C8F804303B6B01333B632846013695
:1046E000FFF76CFE524BA03508F15C0893F8243CB0
:1046F0005C3709F11409B3423FF72FAF01210022C3
:104700008BF81C1A4A49C1F81C24002B3FF4FAAE5E
:10471000DBF8282A9BF8301A126811F0020FDBF838
:10472000740A116A0CBF014341EA8001012B116236
:104730003FF4E8AEDBF8C82A9BF8D01A126811F0F3
:10474000020FDBF8140B116A0CBF014341EA800130
:10475000022B11623FF4D6AEDBF8682B9BF8701B7E
:10476000126811F0020FDBF8B40B116A0CBF0143A1
:1047700041EA8001032B11623FF4C4AEDBF8082C40
:104780009BF8101C126811F0020FDBF8540C116A30
:104790000CBF014341EA8001042B11623FF4B2AE29
:1047A000DBF8A82C9BF8B01C126811F0020FDBF8A4
:1047B000F40C116A0CBF014341EA8001052B116220
:1047C0003FF4A0AEDBF8482D9BF8501D126811F0A5
:1047D000020FDBF8940D116A0CBF014341EA80011E
:1047E000062B11623FF48EAEDBF8E82D9BF8F01D2E
:1047F000126811F0020FDBF8340E116A0CBF01438E
:1048000041EA8001082B11627FF47CAEDBF8883E20
:104810009BF8902E1B68DBF8D41E12F0020F1A6A68
:1048200014BF42EA81020A431A626BE6201C01208F
:10483000F01200201F85EB51CDCCCCCCABAAAAAA9C
:10484000F0FB270018692700F8010020DBF81C297D
:104850000132CBF81C29BEB14FF6FF7214E70020DD
:1048600005B0BDE8F08F0F4991F8583403EB4303CE
:1048700001EBC303334493F805340D2B7FF402AFEF
:10488000802389F81E30FFE619465822064861F059
:10489000BBFCE1E7012205498BF81C2AC1F81C3456
:1048A00030E600BF201C0120BC0B0020F0120020CD
:1048B0004A1C4FF4003310B418BF4FF0450C4A4C5B
:1048C00008BF4FF0800C00E023B3626B013B12EA9B
:1048D0000C0FF9D0002917DD626B540716D4032999
:1048E00012D0414B5A6BD2071CD4022908D01A6946
:1048F000D2B282421AD101295B6920D0062917D091
:1049000000205DF8044B7047002BF9D103205DF8BF
:10491000044B70470029F9DD636B5B07F6D403296C
:10492000DFD1F3E701205DF8044B70471020EEE77C
:1049300013F4604F2FD12D4A42F8E43CE0E72C4AB3
:104940001A40002ADCD0002B31DB5C002DD498000B
:1049500031D4D9002DD41A0131D45C012DD4D80121
:1049600037D419021DD45A02E0D49C022DD4D802A7
:1049700029D4190317D45A0323D49C0331D4D80360
:104980002DD4190429D45A0425D49C041FD4180703
:10499000B6D51A20BBE7990405D45A04C6D41B0423
:1049A000AED50F20B3E71320B1E70920AFE71C20F5
:1049B000ADE70B20ABE70A20A9E70D20A7E70C2005
:1049C000A5E71420A3E71220A1E711209FE71920F3
:1049D0009DE70E209BE7182099E7172097E7162000
:1049E00095E7152093E700BF002C0140182D01200A
:1049F00008E0FFFDF8B5164D55F8B83CA3B155F8E1
:104A0000B01C0446012915D0124B40F2FF50002182
:104A1000DA6A22F00802DA62986345F8B81C236863
:104A200023F001032360F8BD0A4AD36B43F480737B
:104A3000D363F8BD074E40F2FF5700230C20B76345
:104A4000B36040F24C43F360FFF732FFB763DBE73C
:104A5000182D0120002C01402F4B1A68910102D51E
:104A60009A6D52074BD42C4B1A68500202D5DA6E5D
:104A700011063CD4284B1A68D20102D59A6D9007D2
:104A80002DD4254B1A68510102D59A6D120717D4FF
:104A9000214B1A68120112D59A6DD0060FD59A6D66
:104AA000510334D49A6DD20503D49A6D22F01002CA
:104AB0009A65194B4FF0006218489A609AE7704760
:104AC0009A6D500307D49A6DD10503D49A6D22F0E4
:104AD00008029A65104B4FF080629A60D8E79A6D91
:104AE0004FF0807122F002029A659960C9E7DA6E90
:104AF0004FF4800122F08002DA669960BAE79A6D7D
:104B00004FF0007122F004029A659960ABE74FF014
:104B100000629A60704700BF00640240586402401F
:104B2000384B5A68110303D5D3F8A02052075BD441
:104B3000344B5A68D00303D5D3F8B420110649D4B6
:104B4000304B5A68520303D5D3F8A020900737D4CE
:104B50002C4B5A68D10203D5D3F8A02012071CD4DD
:104B6000284B5A68920217D5D3F8A020D00613D547
:104B7000D3F8A020510341D4D3F8A020D20505D406
:104B8000D3F8A02022F01002C3F8A0201D4B4FF450
:104B900000121D48DA602DE77047D3F8A0205003BB
:104BA0000AD4D3F8A020D10505D4D3F8A02022F050
:104BB0000802C3F8A020134B4FF48012DA60CFE74D
:104BC000D3F8A0204FF4802122F00202C3F8A020E5
:104BD000D960BDE7D3F8B4204FF4803122F08002D1
:104BE000C3F8B420D960ABE7D3F8A0204FF400217C
:104BF00022F00402C3F8A020D96099E74FF4001214
:104C0000DA60704700640240A06402402DE9F04180
:104C1000544E82B016F8AC3C022B00F28F80524DFD
:104C20006B6913F0007303D00E2002B0BDE8F08171
:104C3000009340F2FF574FF48A634FF00808AF63C8
:104C40000446C5F8088001211020EB60FFF730FE14
:104C5000AF630028E9D1AF63012156F8E43C372067
:104C6000AB6040F27743EB60FFF722FEAF630028B2
:104C7000DBD13E4A40F2734301216A62C5F82880C5
:104C8000EA6A42F03302EA62AF63A8603320EB6065
:104C9000FFF70EFEAF630028C7D1694640F22A42F3
:104CA00001E09B0250D46B6B13426B6BF9D01F0772
:104CB0004FD46B6B98074ED46B6B99064DD46B6BCE
:104CC0009B024CD4B4F5006F009B18BF4FF48032A8
:104CD0001BBA08BF4FF480221A4233D056F8E42C96
:104CE00040F27743204D40F2FF5601213720AE635A
:104CF000AA60EB60FFF7DCFDAE63002895D1C4F33A
:104D0000C02340F24642AE6301215B000620AB6047
:104D1000EA60FFF7CDFDAE63002886D16B6803F42F
:104D200000639C4281D0124A6B68134023436B603E
:104D30006B6803F40063A342F6D176E7282002B043
:104D4000BDE8F081262070E7D5F8803041F8043BBB
:104D5000A9E7042069E7022067E7062065E722202B
:104D600063E700BF182D0120002C014000E1F5058C
:104D70000081FFFF70B5154D40F2FF56144C40F214
:104D80004D4355F8E42C0121A6630D20A260E36099
:104D9000FFF78EFDA66320B96369C3F34323042B99
:104DA00002D04FF0FF3070BD55F8540C0028FAD0F7
:104DB00002688388126915F8570C1340002B18BF3E
:104DC00080F00100013840B270BD00BF182D0120F5
:104DD000002C014070B51C4E10460A4656F8544C43
:104DE00054B12568A1882C69214016F8574C003928
:104DF00018BF01218C4223D0002158F0A7FDF8B93B
:104E000056F8B83C002BFBD1104C40F2FF5556F839
:104E1000E42C40F24D43A5630121A2600D20E36024
:104E2000FFF746FDA5630028F1D16369C3F343236F
:104E3000042BECD1064BD3F84023C3F8442370BDB8
:104E40004FF0FF3070BD00BF182D0120002C014035
:104E5000201C012070B51C4E10460A4656F8544CD2
:104E600054B12568A1882C69214016F8574C0039A7
:104E700018BF01218C4223D0002158F00BFDF8B956
:104E800056F8B43C002BFBD1104C40F2FF5556F8BD
:104E9000E42C40F24D43A5630121A2600D20E360A4
:104EA000FFF706FDA5630028F1D16369C3F343232F
:104EB000042BECD1064BD3F84023C3F8442370BD38
:104EC0004FF0FF3070BD00BF182D0120002C0140B5
:104ED000201C0120C04B53E9381270B58C0F13F819
:104EE000AC5C100EC2F3072C83F85040C1F383640E
:104EF0000001012D83F85140C1F3016483F8524051
:104F0000C1F3074483F85340C1F30724C9B283F8BF
:104F10005440C2F3035483F85510A3F85600C2F36B
:104F2000C030B3F8561089B241EA0401C2F3034419
:104F3000A3F85610C2F3403183F85840C2F38034CE
:104F400083F859004FF0000083F85A4083F85B1053
:104F5000C2F3003183F85C1053F8D81C83F85D006D
:104F600040F2E980022D00F0C3802A204FEA4C0C69
:104F700083F86940C1F3C01201F07F010CF07E0C90
:104F800083F86AC04FF0010C93F86A40144353F859
:104F9000D42C83F86A40D40F83F86B10910D83F8FA
:104FA0006C40C2F3417401F00C01C2F3815583F8E7
:104FB0006D40C2F3826483F86E4083F86F1093F8FB
:104FC0006F1053F8D04C294383F86F10C2F340514F
:104FD00083F87010002183F87110C2F3004183F848
:104FE0007210C2F3C03183F87310C2F3803183F8BA
:104FF0007410C2F3403183F87510C2F3003183F8A6
:105000007610C2F3812183F87710C2F30121C2F335
:10501000460283F87810C4F3074183F87920220E02
:10502000090283F87AC083F87C20C4F30722A3F82E
:105030007E102406B3F87E1089B21143A3F87E10C7
:1050400053F8CC1CC3F880400C0ED3F8802042EA01
:105050000442C3F880200A0AD3F8804002F47F4259
:105060002243C1F30724C9B2C3F88020D3F880508B
:1050700053F8C82C2C43C3F8804083F88410110ED9
:1050800083F88510110C0906C3F888101102D3F8B3
:1050900088400A4601F47F01214392B253F8C44C80
:1050A000C3F88810D3F888100A43C3F88820C4F3E3
:1050B0000352D3F8881041EA1461C3F8881093F8BA
:1050C0008C101143C4F3072283F88C10210A01F4D9
:1050D0007061A3F88E10B3F88E1089B21143C4F337
:1050E0004602A3F88E1083F8902083F891C070BD1B
:1050F0001204C1F3072C0D0E02F47C121A66C1F3E0
:1051000007421C6E44EA05241C661C6E22434FF4C1
:1051100000741A661A6EC3F8A040013240F1000410
:10512000A40244EA92549202C3F89C40C1F3803432
:10513000C3F898201AE74FEA8C2CC1F3C26594009B
:105140000CF44062C1F3072C04F47F741A661A6EE3
:105150001443CA0B1C6602F006021C6E44EA9174EA
:105160001C66C1F3026483F86450012583F865402E
:10517000C1F3425483F86640C1F3824483F8674028
:10518000C1F3C03483F8682093F86820224383F881
:1051900068201C6E93F8682093F85860023205FA74
:1051A00002F2B540D617A2FB052EC3F8A05005FBAE
:1051B00006EE04FB0EEE0134A2FB0424A644520AC0
:1051C000C1F3803442EACE52C3F898204FEA5E22FF
:1051D000C3F89C20CAE600BF182D012070B50F4E01
:1051E0000D46144656F8543C53B11A689B88126910
:1051F000134016F8572C003B18BF01239A4209D0E0
:10520000FFF768FED6F898204FF4007300202A605C
:10521000238070BD4FF0FF3070BD00BF182D0120FE
:105220002DE9F84F794F0022794E0546D7F8A8406E
:1052300033465968013224338C4200F0A480102A8E
:10524000F7D10024734B9D4205D048339D4202D0D4
:105250000020BDE8F88F04F1FF38DFF8EC9108EB8F
:10526000C8034FEAC80A09EB83029B0092F8B821F1
:10527000002AEDD11E444FF0170BA6F81CB0002CED
:10528000E6D0654E0120736A43F4006373620FF049
:10529000BBF9736A012023F4006373620FF0B4F961
:1052A000736C43F400637364336B43F480033363C0
:1052B000336B43F00C033363584E97F8AE30A6F8C7
:1052C00006BA002B61D106F520600C220E21A6F84B
:1052D00026BAA6F856BAFDF731FB0C220E2150482B
:1052E000D044FDF72BFB0C220E214E48FDF726FB88
:1052F0004D4B09EB8808DB68C7F8A850C3F30223BD
:10530000C3F107011A1D042928BF0421062A88BFFA
:10531000DA1E4FF0FF3398BF00228B40DB4303F0CF
:1053200001039340414A1B01DBB282F831334FF451
:105330000033D8F89C115360374A136B43F4800351
:10534000136300223A4B2A60AB6003F59B3303F5ED
:10535000EC739D423CD0374B4FF47410364AD86002
:105360000720C3F8A020354AC3F8B400914244D0C6
:10537000962059F063FD0023012231492046FDF7B4
:1053800073FA012065E7D4B25CE706F520600C22D1
:105390000E21A6F80EBAA6F816BAA6F81EBAA6F8F6
:1053A00026BAA6F856BAFDF7C9FA06F608200C2266
:1053B0000E21FDF7C3FA06F521600C220E21FDF740
:1053C000BDFA06F618200C220E21FDF7B7FA84E785
:1053D0004FF07460184A43F8500C07201A60174ABF
:1053E000586191420DD0962059F028FD00230122EA
:1053F00014492046FDF738FAC3E7952059F01EFD01
:10540000B9E7952059F01AFDF0E700BF182D0120EB
:105410009C0101205864024000380240201C0120F9
:10542000402601207026012000ED00E000E100E0B0
:10543000802C0140006402406054A30800600240D8
:10544000214B2100594A2100000001200E4A012170
:105450000D2052F8E42C38B50C4C40F2FF5540F2C8
:105460004D43A563A260E360FFF722FAA56340B94C
:105470006069C0F34320A0F10400B0FA80F0400955
:1054800038BD002038BD00BF182D0120002C014080
:105490002DE9F043A54D83B095F8B16036B1A44B2A
:1054A00093F8DC33184603B0BDE8F083A14B01222A
:1054B000A14C022085F8B1205A6C42F400625A6473
:1054C0005B6C03F400630193019A9C4B6268134088
:1054D000032243F076036360636823F480736360A0
:1054E00022600FF091F8636840F2FF5243F480733A
:1054F00063604FF40033A2634FF48062A660E26001
:1055000001E0002B63D0626B013B1606F9D5002B3E
:105510005DD040F2FF564FF4D5724FF489630721F6
:10552000A6630820A663A260E360FFF7C1F9A66343
:10553000002846D04FF000087F4C40F2FF5900236E
:105540000121C4F838903720A36040F27743E3602C
:10555000FFF7AEF9C4F83890034658BB784F0646BB
:1055600048EA0707804611E0C4F838900136A76082
:10557000E260FFF79DF94FF6FF720346C4F83890DA
:10558000C0B96369002B28DB964226D040F27743EE
:10559000C4F838900121C4F808803720E360FFF791
:1055A00087F9034640F2694203212920C4F8389064
:1055B000002BD9D05E4A184682F8DC3303B0BDE830
:1055C000F08301234FF0804805F8AC3CB4E75A4B18
:1055D00040F2FF529A630323ECE74FF6FF729642C4
:1055E00000F0A28013F0804F534B6ED01B68022056
:1055F0009C0705F8AC0C74D001244F4940F2FF53CE
:105600008B6300238B6040F2C243CB604FF40033C6
:1056100000E023B14A6B013B12F0450FF9D0464A36
:10562000536B59077CD4536BDB0770D440F2FF53A4
:1056300006289363536945F8D03C936945F8CC3C00
:10564000D169136A45E932134DD0002C4BD13A4C45
:1056500040F2C94355F8E42C40F2FF5602210920DC
:10566000A663A260E360FFF723F9A6630346002860
:10567000A0D16069A169E269236A45E9380145E979
:105680003623FFF727FC00283FD12B4C40F247433D
:1056900055F8E42C40F2FF5601210720A663A260D2
:1056A000E360FFF705F9A663244A034661680A40F0
:1056B000626000287FF47EAF95F8AE3063B34FF49C
:1056C0000060FFF7A3FA034674E71B68980708D049
:1056D00015F8AC0C0428D4D002288CBF0024012477
:1056E0008BE7262366E7144C40F2434340F2FF5613
:1056F000002206210320A663A260E360FFF7D8F82A
:10570000A66303460028A2D054E72A2352E740F2BA
:10571000FF51012391634DE7FFF778FA034649E70C
:1057200040F2FF53936356E71B2343E7182D0120F4
:105730000000012000380240002C01400081FFFFE2
:105740000000108038B5294C94F8B5000DF03CFBF2
:1057500028B11F210022C1802021FDF7EFF8244D40
:10576000D5F848234AB195F85433918803F00103E2
:1057700012681B0101FA03F3936194F9AF30DAB2B6
:10578000012A19D8C3F1000C1A4B0CF00C0C03F5CC
:1057900028710CF1080C02E01C338B420CD01A78F3
:1057A000032AF9D15A78002AF6D153F80C000028C0
:1057B000F2D0FFF735FD08B9012038BD54F8543C4C
:1057C00053B119689B88096914F8572C0B40003BAA
:1057D00018BF01239A42EFD0FFF75AFE0028EBD101
:1057E000D5F84033C5F8443338BD00BF182D01202B
:1057F000201C0120546E270070B52F4C636BD90517
:105800001DD54FF4807240F2FF562C4BA263A66365
:10581000E26B2B4D1340E36355F8B03C9A0721D45B
:105820000122002345F8C02C45F8BC3C224B40F235
:10583000FF51224A9963D96B0A40DA6370BD636BEA
:10584000980704D51E4B022243F8BC2CEEE7636B8D
:10585000190723D4636B9A0625D5194B062243F802
:10586000BC2CE3E7D5F8A820136823F001031360EC
:105870000022E36A23F00803E36245F8B42C55F8EC
:10588000B03CDB07CCD540F24C43A6630121A260BB
:105890000C20E360FFF70CF8A663C1E7084B042275
:1058A00043F8BC2CC2E7636BDB06BFD5044B052273
:1058B00043F8BC2CBAE700BF002C0140C53EFFFFF7
:1058C000182D01202DE9F0472422D0F820518168BD
:1058D0000023C0F8942104462A6800F5907622F04F
:1058E00001022A602B606B60AB60C0F89C3180F8CD
:1058F0009031C0F89431C0F824114079C4F898313F
:105900008202C4F83831C4F8403102F4805223795D
