:020000040800F2
:1000000000000120859B0408219C040811A8010818
:1000100069A60108219C0408219C04080000000036
:10002000000000000000000000000000219C040807
:10003000219C040800000000219C04086D7B01083D
:10004000219C0408219C0408219C0408219C04088C
:10005000219C0408219C040889A0000891A00008A4
:1000600099A00008A1A00008A9A000087D9E000892
:10007000919E0008A59E0008B99E0008CD9E00082C
:10008000E19E0008F59E0008219C0408219C0408BC
:10009000219C0408219C0408219C0408B1A00008AC
:1000A000E1C70008DDC60008F1C70008CDC600089A
:1000B00005C7000815C7000825C70008AD99000846
:1000C000A1990008E1990008D5990008219C04082D
:1000D000219C0408D17A0108DD7A0108E97A010837
:1000E000B9A00008219C0408219C040801C800084C
:1000F000B9C70008219C0408A9C70008099F000887
:10010000219C0408219C040835C70008219C040890
:10011000F57A0108017B010845C70008F11C0408B5
:100120001D9F0008319F0008459F0008599F000847
:100130006D9F0008000000000000000000000000AB
:10014000000000000000000000000000251104086D
:10015000819F0008959F0008A99F00080D7B01085A
:10016000159A0008099A0008219C0408219C04089B
:10017000219C0408219C04080000000000000000ED
:10018000219C0408219C0408219C0408219C04084B
:10019000219C0408219C040800000000219C040804
:1001A000000000000000000000000000219C040886
:1001B000219C0408219C04080000000000000000AD
:1001C000000000000000000000000000000000002F
:1001D000000000000000000000000000219C040856
:10800000084A0346D0F8E4005268D3F8F010121A78
:1080100000209142B8BFC3F8F020012283F81C2150
:10802000704700BF001000E01B4B016803F57D7C2A
:1080300002E02C3363452BD01A688A42F9D170B51F
:1080400093F804E0427996450BD02C33634505D074
:108050001A688A42F4D02C336345F9D14FF0FF30CF
:1080600070BD9E4684680022DEF80C50A54208D000
:1080700001320EF10C0E032AE7D0DEF80C50A542B7
:10808000F6D1DEF81050C668B542F1D150B270BDDD
:108090004FF0FF30704700BF90B904084368426D4D
:1080A00030B49A61EFF31182502383F31288416850
:1080B000D2B2856C0B68046D23EA050323430B6081
:1080C00082F31188436981681A68096822F0010205
:1080D000D0E908541A60826A1D605C615A60D0E978
:1080E0000B429C60DA600023B0F86C2030BCCA629E
:1080F00003777047002A4FEA014C034630B50ABFA8
:10810000E6468E468C4600F1C005002419680C3303
:1081100053F8042C43F8084C41EA0C0142EA0E02E1
:10812000AB4243F80C1C43F8042CEFD1D0F8C0301C
:1081300043EA0E03C0E93144C0F8C03030BD00BF8F
:1081400083695969B3F810C00A6830B49C6822F09A
:10815000010224680A60E26822EA0C02E260027D01
:1081600000681F2A08D9203A0824D0F804C0944097
:1081700014EA0C0F44D0FEE70824D0F800C0944065
:1081800014EA0C0FF7D1202404FA02F28260254A87
:108190001278002A32D01A7F012A36D0D3F8002173
:1081A0000132C3F80021EFF31181502282F31288CB
:1081B0005868C9B29D6C0268DC6C22EA0502224351
:1081C000026081F311885A699968D3E90D40096802
:1081D00014605061D3E90F40546090605C6CB3F858
:1081E000B400D4600124C8621068204310601A8A69
:1081F0001C7783F8FD40CB681343CB6030BC7047DD
:10820000202404FA02F2C260C1E70022D3F804017C
:1082100083F8FD2001300A68C3F8040122F001024E
:108220000A60EBE7C801002010B40C4C6368002B17
:1082300011DD002004F1080C0146DCF8AC3003F13C
:10824000C00259600C339342FBD1013063680CF5D6
:10825000867C8342F1DC5DF8044B7047C801002046
:10826000704700BF024B03EB401393F8550470476F
:10827000C8010020704700BF0B4890F86C1589B109
:1082800001EB4101002300F27450490010B41C4678
:1082900050F82320063302B114608B42F8D15DF808
:1082A000044B7047704700BFC80100200B4890F88E
:1082B0006C1589B101EB4101002300F274504900B3
:1082C00010B41C4650F82320063302B114608B42D0
:1082D000F8D15DF8044B7047704700BFC80100201B
:1082E0000120704700EB4000024B03EBC00393F802
:1082F00085057047C8010020204890F86C35002B98
:108300003AD0002200F274534FF02C0C2DE9F043C8
:108310004FF0500E1A4E1B4D144607E053F8181B31
:1083200001320C6090F86C15914223DD197C002914
:10833000F4D05F68B90AA1F58011522929448CBF95
:108340004FF0FE0991F8F493EFF311818EF3128848
:10835000D7F824800CFB0969C9B208F10108C9F8F3
:108360002880D7F8148048F00108C7F8148081F3FA
:108370001188D3E7BDE8F083704700BFC801002033
:10838000A017012090B9040800EE100AB8EE400AC8
:10839000704700BFBCEEC00A10EE103A98B27047AA
:1083A00009494FF4EB7200234FF0230CC0F8021080
:1083B000C2800649064A0370A0F808C0C0F80A1037
:1083C0004382C0F80E2070474A01B400C2010E017A
:1083D000960044000346012200205A77704700BFF0
:1083E000826908B50346006BD96A02449A6101B1FB
:1083F0008847002008BD00BF436A02461B681B6A0D
:108400005B685B7813F0010008BF5077704700BFCE
:10841000C2628161704700BF704700BF043070477F
:108420000C4B93F89822D3F8941202440144D2B230
:10843000C3F8941283F8982293F89822120605D56F
:1084400093F8982282F0800283F89822024B01224E
:108450001A707047A0170120000001202DE9F84391
:10846000144FD7F89C52ED0A1FD00026B04674195D
:10847000D7F8A0124FF010030F4A48BF0134D1F8CB
:1084800028900E486410C7F8CC82E102C8470F2834
:108490000BDD094B03F1100153F8042B013207D116
:1084A0009942F9D12546AE42E1DBE802BDE8F88306
:1084B000661CF8E7A017012000000020401A0120E8
:1084C000194BD3F8D412D3F8D8228A1A322A15D8E5
:1084D000D3F8EC228A4200D37047D3F8DC22F2B101
:1084E00010683231928810B44469C3F8EC12224209
:1084F0005DF8044B18BF120482617047D3F8DC1298
:1085000049B193F8E822888802F001020968120153
:1085100000FA02F28A610022C3F8EC22704732317D
:10852000C3F8EC12704700BFA0170120074BD3F827
:10853000DC224AB193F8E832918803F00103126813
:108540001B0101FA03F3936100207047A01701207B
:10855000044B4FF4007C0020D3F8F832A2F800C09E
:108560000B607047A0170120002070470120704762
:108570000120704700207047134BD0F8D8105B687B
:10858000D0F8E02010B50446581A824200DC22B927
:10859000D4F8E4200A44C4F8DC2094F8D020C4F8CD
:1085A000D830012A05D0D4F8D4300133C4F8D430FF
:1085B00010BD04F1E801201D0EF0E6FCD4F8D43023
:1085C0000133C4F8D43010BD001000E0CB070DD447
:1085D00030B590F828308DB0C468012B07D0B4F1C5
:1085E000807F01D9012303770DB030BD7047194B4F
:1085F000456AD3E9CA13B1EB930F4FEA93024FF0E8
:10860000020306D252085B0091429BB201D2FF2BBB
:10861000F8D9B4F1807FAB80E6D90122002301A90B
:10862000B7240277284604928DF814208DF828206C
:108630008DF804400B93CDE9021302A9CDE906336E
:10864000CDE908330EF0A0FC2A68136A002BFCD198
:10865000CAE700BFA017012030B590F828308BB0D2
:108660000446012B08D0407F10B901200BB030BD6B
:10867000002363770BB030BD456A2B681A7B22BBA1
:10868000637F002BF1D013490220002301220290C6
:10869000081D8DF80C208DF820200993CDE90010DD
:1086A00069462846CDE90433CDE906330EF06CFC6B
:1086B0002A68136A002BFCD1074B5B7DD84303F07B
:1086C000010300F001006377D4E71B6A002BD7D0C9
:1086D0000020CBE7100000200000002030B5044649
:1086E0008BB094F82830012B08D0637F0BB10023A6
:1086F000637701200BB030BD1B6A23B1656A2B681C
:108700001A7B002AF8D1637F002BF2D01049022097
:10871000002301220290081D8DF80C208DF82020E6
:108720000993CDE9001069462846CDE90433CDE927
:1087300006330EF029FC2A68136A002BFCD1054B86
:108740005B7D03F00102DB076277D2D5C9E700BF8A
:108750001000002000000020214A002330B504460C
:1087600095B0101D1F4D0693019002200B9310939E
:10877000139311930290207F00920495CDE90E335C
:1087800001238DF80C3007938DF820308DF83430AC
:108790008DF8483002F10803083A0593031D0A9248
:1087A0000C93114B0993636A1A68136A002BFCD16E
:1087B000A0B10E480A0E00F11A0342760A0A997017
:1087C000080C69465A701870606A0EF0DDFB636A27
:1087D0001A68136A002BFCD115B030BD044BEDE7CD
:1087E00020000020F9830008D58300080000002045
:1087F0001900002010B594B004465022074968467D
:1088000042F028FD6946606A0EF0BEFB636A1A6892
:10881000136A002BFCD114B010BD00BFD8BD0408F2
:10882000F8B50546406A0068046A002CFCD12C7F2C
:10883000A869002C32D0264E040E052786F82D405C
:108840002E36B0704FEA104C000A224C86F800C059
:10885000012B70704FF000000E6867632664166885
:10886000A6642E63A0651CD0022B16D1536801228A
:1088700020651E444968E365174B84F84C00616528
:108880002E6363666B7F686A84F860209BB113492E
:108890000EF07AFBEB6AA3B1286BF8BD0427104EEB
:1088A000CFE70D4A84F84C306B7F6065E065226548
:1088B000686A002BEBD10B490EF066FBEB6A002BCC
:1088C000EAD16B6A1A68136A002BFCD1E4E700BF97
:1088D0000000002000000120E183000804000120C6
:1088E0002D0000201800012000B583B081610192A5
:1088F00001A9049A00930123C2626A46FFF790FF20
:1089000003B05DF804FB00BF70B51D46436A94B028
:1089100006461B681C6A002CFCD1314B0B9203F1FC
:108920003C0230480694009203F14002049003F1A7
:108930003400019202220590029201228DF820401B
:108940008DF80C208DF834208DF84820327F0C955E
:10895000101D1394CDE90944CDE90E44CDE910442E
:108960000790002A3AD00A0E363303F8012C0A0C7D
:1089700099701D4C090A1A705970706AD4E9CA328C
:10898000B3EB920F4FEA92014FF0020206D2490870
:1089900052008B4292B201D2FF2AF8D9737F8280B3
:1089A000D3B169460EF0F0FA706A03681A6A002AB9
:1089B000FCD10222D4E9CB34B4EB930F4FEA9301FC
:1089C00006D2490852008C4292B201D2FF2AF8D94D
:1089D0008280284614B070BD05A9E3E73533C6E7A9
:1089E00000000020F9830008A0170120F8B50C4B07
:1089F0001D685A69154005405D617DB1094F01262A
:108A0000B5FA85F4C4F11F0407EB840306FA04F4F5
:108A1000D3F8340303689847A543F1D1F8BD00BFEC
:108A2000003C0140A017012002692DE9F843C3680A
:108A300012EA030828D005460E464FF00047B8FA60
:108A400088F327FA03F21B3BD24308EA02082A61A3
:108A5000042B16D8DFE803F03B30251A0300B36A75
:108A6000002B3FD003F1FF3900231FFA89F9B362CD
:108A7000746A34B123682046494698476468002CDC
:108A8000F8D1B8F1000FDAD1BDE8F883706800289A
:108A9000F7D0696B036889B29847B8F1000FCED15F
:108AA000F2E7B0680028ECD0A96B036889B2984758
:108AB000B8F1000FC3D1E7E7F0680028E1D0E96B17
:108AC000036889B29847B8F1000FB8D1DCE7306984
:108AD0000028D6D0296C036889B29847B8F1000FF6
:108AE000ADD1D1E7EB6A1FFA83F9C1E78269F0B52E
:108AF00092F8DC308BB00546012B27D0023B012BCE
:108B00002FD892F84C31EC46D2F89C2063F07F03CA
:108B1000154C13708669D6F8A0305F1C0FCCACE8FA
:108B20000F00D6F89C30CDE900370FCCACE80F0031
:108B300094E803008CE80300694606F110000EF08B
:108B400023FAAA6911690B6A002BFCD1D2F8A03074
:108B50005A8852BAEA819A8852BA2A82DB885BBA6A
:108B60006B8201200BB0F0BD28BE0408F0B590F870
:108B7000DC308BB00446D0F8A060012B4BD034D948
:108B8000023B012B2ED890F84D31EC46D0F89C20BA
:108B900063F07F03434D1370D0F8A0305F1C0FCDFE
:108BA000ACE80F00D4F89C30CDE900370FCDACE82D
:108BB0000F0095E803008CE80300694604F11000FB
:108BC0000EF0E2F92269136A002BFCD173885BBABC
:108BD000A4F8D030B3885BBAA4F8D230F3885BBA7B
:108BE000A4F8D43001200BB0F0BDD0F89C304FF089
:108BF000FF3205211A605A609A60DA60D0F8E030DE
:108C0000C0F8F010B3F57A7F1FD8032380F8DC306A
:108C100001200BB0F0BD90F84C2190F84D319B1A1B
:108C20005B100133DBB236F8132006EB430653BA70
:108C3000A0F8D03073885BBAA0F8D230B3885BBAA2
:108C4000A0F8D43001200BB0F0BD03691A7B2AB321
:108C50005B691BB390F8983003B390F84C31012254
:108C6000D0F89C0063F07F03C4F8A4400E49037061
:108C700094F84D3194F84C0184F800211B1A84F8C3
:108C8000DC20D4F8A0200733C4F804110132D4F852
:108C90009C10C4E93E23C4F8F410A3E7022384F82F
:108CA000DC309FE728BE0408018000082DE9F04170
:108CB0002E4F07EB401696F854340BB9BDE8F081FF
:108CC00000EB80030D460021044607EB43134FEAF7
:108CD000401893F8362683F8361686F83A2442F080
:108CE0003BFE90BB224807EB08044044A4F83854EC
:108CF00042F03AFED4F850343978D4F83C24D3F812
:108D0000AC3081B1012403F1C0019440420010F461
:108D1000004F90B202D15A6822435A600C339942F4
:108D2000F4D1BDE8F0811032012403F1C001944078
:108D3000420010F4004F90B202D15A6822435A60A8
:108D40000C338B42F4D1BDE8F0810A4B93F8EC234D
:108D500002EB420203EBC203234493F89953002D24
:108D6000C0D0012386F83A34BCE700BFC801002018
:108D700000060020A01701202DE9F04F364D83B0EA
:108D80002B781BB9012003B0BDE8F08FDFF8CC8051
:108D900005F63836D5F834AB05F5876BD8F8D432FC
:108DA00005F6186700244FF6FF79019312E0B0F53D
:108DB000606F43D0B881B0EB0901019A304618BF0B
:108DC00001210DF015FF01345C360BF1200B143737
:108DD000082C2CD054452ADADBF81800DBF80420E4
:108DE000D0E93D0142F080FD4FF6FE7398F87523FF
:108DF000984214D0542A04D1B8F878230132A8F844
:108E00007823D5F8202E484502F10102C5F8202E1E
:108E1000CDD1D5F81C2E0132C5F81C2ECBE7542A33
:108E2000D1D1B8F87A230132A8F87A23CBE701230D
:108E3000012085F81C3F03B0BDE8F08F98F8EC23C3
:108E400002EB420208EBC202224492F899230D2A57
:108E5000B0D18022BA77AEE7C8010020A017012068
:108E60002DE9F0472F4F0EF0DDFFDFF8C090804670
:108E70007E6800202C4C002E48DD00234FF48671C4
:108E80001D4601FB0372013392F80521B34245EA06
:108E90000205F6D128435FFA80FAD9F80430C3F30B
:108EA000080383BBEFF311836BBB4FF0E02CD4F8C6
:108EB000D432DCF81810D4F8D4229342F7D1D4F885
:108EC000F0239142F3D8D4F8F4C34FF47A7202FB42
:108ED0000CF0401AB0FBFCF002FB0300A0EB08030F
:108EE000B3F5FA6FCCBF002005F001000028C2D115
:108EF000BAF1000F04D00C4B93F87523542A08D014
:108F00005046BDE8F0870EF057FEE7E782460025A1
:108F1000C3E7B3F87C2350460132A3F87C23BDE8B5
:108F2000F08700BFC8010020A017012000ED00E07D
:108F300010B5044641F01EFC0146204689B2BDE84A
:108F40001040B3E638B50B4D00EB400005F274530A
:108F5000C40003EBC003254493ED027AD3ED037AFA
:108F6000E7EE007AB0EE670A41F004FCD5F87435FC
:108F7000186038BDC8010020F8B542F005FD78B38F
:108F80001A4F7D68002D11DD3846002410F8086B5B
:108F900016B1037F012B1DD04269013400F58670A4
:108FA0001368AC4243F001031360F1D10EF03AFFB5
:108FB000D7F8204F002C0CDD0D4B03EBC4041968CF
:108FC000083333F8042CC868A34242EA0002CA609E
:108FD000F5D1F8BD002380F8FC30FFF75FF8DBE740
:108FE0003FF074FD0028CBD1F8BD00BFC8010020C0
:108FF000EC100020836910B51A4C04EB8303D3F8FE
:109000001C0435F043FAB4F83C340C2B0ED8DFE8DE
:1090100003F0220D0D0D1B0D0D0D070D0D0D140090
:10902000D4F8FC23D36823F40063D3600122002327
:1090300084F8392484F83E3410BDD4F8FC23D36876
:1090400023F48053D360F1E7D4F8FC23D36823F4EE
:109050008063D360EAE7D4F8FC23D36823F4007379
:10906000D360E3E7A017012080699C3035F00EBA89
:10907000F8B5830AA3F58013522B53D804465848F9
:10908000034493F8F4330D2B4CD8564E9D0106EB58
:109090008313D3F84004A04244D00139C3F84044BC
:1090A00089B2C3F84C14D6F82C13B1FBF2F2013A92
:1090B000C3F844240022C3F85024C3F84824C3F85A
:1090C000542493F87D2402F0FF01002A00F08580EB
:1090D0004549022377192046294487F87D3437F023
:1090E0002BFD0123B4F1804F87F87D343F4BA4EB77
:1090F0000303B3FA83F34FEA53135DD0002B5BD124
:109100003B4A94420FD002F5806294420BD0394919
:1091100002F57C42944218BF8C4225D002F5705271
:10912000944221D0F8BD731993F87C24012AF9D018
:109130000221314A83F87D14A0680240A260012216
:1091400083F87D2483F87D146268A168354422F099
:10915000700221F08001012000236260A16085F887
:109160007D0485F87C34F8BD721992F87C140129CD
:10917000D8D0022182F87D141F49A06801401F4801
:10918000A1600121201A82F87D140021B0FA80F03C
:1091900082F87C14174A4009944201D00028C1D0BB
:1091A0007219022182F87D146268A1680BB9002847
:1091B000CCD022F47002C9E7721992F87C1401290C
:1091C000B0D0022182F87D140B49A0680140002034
:1091D000A160012182F87D14E2E783F87C1477E72F
:1091E00090B90408A0170120E41B012000000140F1
:1091F00000040040000C00408800FEFF0004014015
:109200002DE9F843DDF820800F4616460021202284
:1092100004461D4642F013F9B8F1000F0CD0D8F8FF
:109220000030B8F80A20E3811B0C2382D8F8043000
:109230006282E3821B0C238338463FF075FFF306FE
:1092400019D4431EB8B107EB000C01E0013B12D367
:109250001CF801EDBEF12E0FF8D1C01A03F101097F
:10926000421EB944032AA8BF0322082BA8BF082323
:1092700090461A4606E008280246B9464FF0000814
:10928000A8BF08224FF02033394620462360636090
:1092900041F0E0FF164B04F10800424649462381A5
:1092A000837041F0D7FF611EE21D11F801CFACF1D0
:1092B0006103ACF1200C192B98BF81F800C09142DA
:1092C000F3D104F10A0011F8013FA3F16102203B40
:1092D000192A98BF0B708142F5D1182365832D0C94
:1092E000E6722373099BA582E361BDE8F88300BFA2
:1092F000202020002DE9F04FD74F85B0D7F8D402B9
:10930000C7F8D802002B00F0CD8001F5007B134494
:10931000884614465E46029320E0002C5BD0D7F8C6
:109320000433A34200F0C280D7F80033A34200F018
:10933000F980D7E9C231A34244D8A14200F2CB81DF
:10934000611A40463BF0F4FA0134029BD84606F518
:1093500000769C4200F0A6800BF5007BD7F8102326
:10936000A242DAD8A21AD7F82053D30802F007098C
:109370002A6B0233934202D3AA6B93420BD929463C
:10938000184603933BF0A4FA039B0546002800F01F
:10939000C281C7F820032A79002A40F02C81D5F831
:1093A00028A0BAF1000F00F0AF812A6B40464FF4BD
:1093B00000719B1AEA6809EBC3092B4602EB4922AC
:1093C000D047C1E7A142BBD940464FF4007200210B
:1093D00042F035F8B8E74FF400722146404642F0BB
:1093E0002EF880239D4A88F8BE310C2388F8C231BC
:1093F000D7F80013D7F8F8329142C8F8C611C8F868
:10940000CA3100F36D81964A013B964D82FB010201
:10941000C81785FB01C50A44C0EB6212C0EB2530BA
:10942000914D85FB02C5C2EB821C88F8C1018010FA
:10943000A1EB0C01154420F03F0001310843D11786
:10944000C1EBE51188F8C0010A4488F8BF21834ABE
:10945000934200F35181824A824882FB0312D9175A
:1094600080FB03501A44C1EB6212C1EB20317E48ED
:1094700080FB0250C2EB821588F8C51189105B1B76
:10948000104421F03F0101331943D317C3EBE0131C
:1094900088F8C4111A4488F8C3214AF65523A8F85D
:1094A000FE3151E7002005B0BDE8F08F4FF0FF33EB
:1094B00000254FF4F07208F1040088F8EC312946D9
:1094C00088F8ED3188F8EE3188F8EF31522388F8CA
:1094D000003088F80130612388F8023088F8E731DD
:1094E000412388F8033088F8E631722388F8E431A4
:1094F00088F8E531D7F81833C8F8E83141F09FFF14
:109500005523C8F8F05188F8FE316FF05503C8F8BC
:10951000F451C8F8F85188F8FC5188F8FD5188F8E2
:10952000FF3111E74FF400720021404641F087FF00
:109530004E4B022203CB45F6EB0388F8102088F847
:109540000C20A8F80030902388F80E2088F802300C
:10955000F82388F82C200822C8F8030088F80D208A
:10956000C8F8071088F81530D7F80013D7F8F83284
:109570005B1AC8F82030D7E9C2135B1A4AF65521A6
:10958000C8F82430002388F80B3088F80F3088F8AA
:109590001D3088F81E3088F81F3088F82D3088F884
:1095A0002E3088F82F3088F83130314BC8F8183019
:1095B0003E2388F81C30012388F83030802388F857
:1095C00040302C4BC8F842302B4B88F84620A8F886
:1095D000FE112A4A03CBC8F84B101988C8F8470077
:1095E0009B78A8F84F1088F8513003CAC8F8520089
:1095F000C8F85610A8E64FF400720021404641F02A
:109600001EFF2B6CB9F1000F40F08D8008F1200A8D
:10961000002B00F09B802B6B112219494046CDE9AD
:109620000099FFF7EDFD2B6C1A6C002A00F09A8070
:109630001B6B504611221349CDE90099FFF7E0FD5D
:1096400008F1400A4FF4E0786D6C002D3FF47CAED9
:10965000C244039424E000BFA0170120FF03FB00D5
:109660008320088297554541818080803C2F0508E2
:109670003F00FF0029940E0D482F0508542F0508C0
:10968000342F0508382F05080024A8F12008CDE95B
:1096900000E4FFF7B5FDAD6CDDB1B8F11F0F18D9CF
:1096A00095F8049005F11C0E112229682B6BAAEB8A
:1096B0000800B9F1000FE7D16A79A8F120082C69F8
:1096C00042F02102CDE900E4FFF79AFDAD6C002DD8
:1096D000E3D1039C38E6E11A40463BF029F933E632
:1096E000FF22013B88F8C1214FF6FF72A8F8BF2185
:1096F000214A93427FF7AFAEFF2388F8C5314FF67A
:10970000FF73A8F8C331C8E6514640464FF40072D3
:1097100041F095FE18E6194BC8E9003308F1080836
:109720004645F9D110E6002B6D6C14BF02230123CE
:10973000C3EB0913002D3FF407AE013BAD6C01D024
:10974000002DFAD1C2464FF400787EE740464B46E2
:1097500008224FF4F078CDE90099D7F8FC12FFF712
:109760004FFD71E750464B4611220549CDE900995E
:10977000FFF746FD64E700BFFF03FB00DEADBEEF71
:10978000382F05082DE9F041044690F8210182B0F8
:1097900010B902B0BDE8F0810DF0B8FF064680B305
:1097A00081882622264B4FF00048C280B1FA81F50D
:1097B000244844F80C3FC5F11F03026828FA05F558
:1097C000214F22EA050C214A1A4407EB8303C3F810
:1097D0003443002392F84045C0F800C02744456157
:1097E0001B4A3068CDE900333EF0EAF997F80038BB
:1097F000F02B0BD8134A13682B43136002B0BDE85B
:10980000F0810F4BE36002B0BDE8F081F02303214B
:1098100087F800380F4B1F5D1C5720463CF026F997
:10982000B588002CB5FA85F528FA05F5E2DB07F0D6
:109830001F0101237F09084A8B4042F82730D9E7EE
:1098400079850008003C0140A017012090B9040868
:1098500000001110FC2F050800E100E010B490F8A2
:10986000443000F10801484A012BC2F808186DD0B5
:109870008368464CD968A34221F46001D960D96855
:1098800041F46001D960996B21F440119963996B9F
:1098900041F480119963996B21F4F8419963996BB4
:1098A00041F488419963996821F47021996099681D
:1098B0009960996821F44011996099689960596894
:1098C00021F480615960596821F4805159605969C7
:1098D0006FF30B0159615969596148D0D9682B4C14
:1098E00021F0E061A342D960D96841F0E061D9601C
:1098F000996B21F440119963996B41F4801199633C
:10990000996B21F478219963996B41F41021996343
:10991000996821F47021996099689960996821F497
:109920004011996099689960596821F48061596083
:10993000596821F48051596099696FF30B0199615D
:10994000996999611AD0002380F844301048114B6E
:10995000848DC18D408D091BC2F81048C2F80C08D7
:109960005DF8044B93FBF1F3C2F814387047D4F858
:10997000041341F40001C4F80413AFE706494B682F
:1099800043F400034B60DEE7A017012000200140F4
:10999000007AF01F8038010000230140704700BFAB
:1099A000014834F047BE00BFCC1F0120084810B466
:1099B000D0F82C38D0F8604899691A682CB1234641
:1099C00000F62C005DF8044B18475DF8044B704717
:1099D000A0170120014834F02DBE00BF2C2001202B
:1099E000084810B4D0F88C38D0F8C04899691A6883
:1099F0002CB1234600F68C005DF8044B18475DF847
:109A0000044B7047A0170120014834F013BE00BF7B
:109A10008C200120084810B4D0F8EC38D0F8204948
:109A200099691A682CB1234600F6EC005DF8044BE6
:109A300018475DF8044B7047A017012030B4046943
:109A4000002341684025E46882690C31546244690E
:109A50009560536093631160C2E90333C2E9053333
:109A6000C2E90733C2E90A33C2E90C3384B1C269DF
:109A7000E068936350621160C2E90133C2E90333C5
:109A8000C2E90533C2E90733C2E90A33C2E90C333C
:109A900030BC7047114A037A0168D35C10B4CC58CB
:109AA000CA1824F00104CC501368DB07FCD4037DF2
:109AB0001F2B09D9203B20225DF8044B02FA03F347
:109AC00043F01803CB60704720225DF8044B02FA84
:109AD00003F343F018038B60704700BFF02F0508B5
:109AE000F0B50668356A00295DD12B68AC68B769A6
:109AF000002B60D09C46344B0CEA0303B3F1005FAB
:109B00005DD00CF01F0104F11F032CF01F0219445B
:109B100021F01F01BFF34F8F00290BDD114402F12B
:109B20002003DFF8A8E08B42CEF868221A4603F142
:109B30002003F8D1BFF34F8FBFF36F8F02684FF44C
:109B400080637B615369C7F804C03C6253B36B68A0
:109B5000F569002B35D01E461B4B3340B3F1005F37
:109B60001BD006F01F0104F11F0326F01F02194449
:109B700021F01F01BFF34F8F00290ADD114402F1CC
:109B8000200312488B42C0F870221A4603F12003CA
:109B9000F8D1BFF34F8FBFF36F8F4FF480636E60C8
:109BA0006B612C62F0BDEC69002CFBD06B69143545
:109BB000B769002B9ED1DFF81CC03246C1E73246A0
:109BC000BDE7034EEBE700BF0000FFFF00ED00E044
:109BD00048000020440000202DE9F0410468D4E949
:109BE00004351A7DD3E90061002D4DD01F2AA861EC
:109BF00038D820202F6800FA02F242F01802B26032
:109C00002A7D1F2A39D9203A202000FA02F242F098
:109C10001802FA606A680020086010603046116817
:109C200041F01001116093F80880A26941463DF0AF
:109C30009FFD2D7AE269384629463DF099FD274B74
:109C4000626813F80800595D335843F0010333503C
:109C50007B5843F001037B50536843F00303536088
:109C6000BDE8F081203A20202F6800FA02F242F08D
:109C70001802F2602A7D1F2AC5D8202000FA02F2BD
:109C800042F01802BA60C5E71F2A98611ED820204A
:109C900000FA02F242F01802B260002230460A6076
:109CA0000A6842F010020A601D7AA26929463DF056
:109CB0005FFD0A4B6268595D735843F001037350AE
:109CC000536843F002035360BDE8F081203A20203E
:109CD00000FA02F242F01802F260DEE7F02F050807
:109CE00010B1036882889A61704700BF18B18388F9
:109CF00002681B049361704708B51D200DF006FD36
:109D000008B183794BB11E200DF000FD08B18379B5
:109D100003B108BD5523C38008BD5523C380F2E7B6
:109D2000D3B2012B22D8524270B502F00C0E104C67
:109D3000002223460EF1080503E001321C33172AE6
:109D400012D093F800C08445F7D193F801C08C4538
:109D5000F3D15E59002EF0D0C2EBC2020EF1040323
:109D600003EB8203E01870BD002070BD0020704737
:109D7000E0BE040810B40C4C002304F6981C01E06B
:109D8000152B0CD003EB430201331CF80210814267
:109D9000F6D1144494F99A095DF8044B70474FF0DA
:109DA000FF305DF8044B7047A0170120D3B2022B9F
:109DB00021D802EB420270B54FEA820E0F4C00220E
:109DC00023460EF10C0503E001322C33172A10D084
:109DD0001E68B042F8D193F804C08C45F4D15E59A6
:109DE000002EF1D02C210EF1080301FB0233E01804
:109DF00070BD002070BD0020704700BF90B90408FE
:109E000030B51C4D0023047905F6981C01E0152B94
:109E10002DD003EB430201331CF80210A142F6D10E
:109E20001544046890F805C095F99A39DAB2022A07
:109E30001DD803EB4303104D002298002B4600F180
:109E40000C0E03E001322C33172A10D019688C4213
:109E5000F8D119796145F5D153F80E100029F1D0E8
:109E60002C2100F1080301FB0233E81830BD00206B
:109E700030BD00BFA017012090B904080348D0F8F6
:109E800090300BB180301847704700BF00000120B0
:109E90000348D0F8B4300BB1A4301847704700BF66
:109EA000000001200348D0F8D8300BB1C830184763
:109EB000704700BF000001200348D0F8FC300BB110
:109EC000EC301847704700BF000001200348D0F86D
:109ED000203113B100F58870184770470000012049
:109EE0000348D0F8443113B100F59A701847704711
:109EF000000001200348D0F8683113B100F5AC70C0
:109F000018477047000001200348D0F88C3113B186
:109F100000F5BE7018477047000001200348D0F8D4
:109F2000B03113B100F5D070184770470000012020
:109F30000348D0F8D43113B100F5E27018477047E8
:109F4000000001200348D0F8F83113B100F5F47097
:109F500018477047000001200348D0F81C3213B1A5
:109F600000F5037018477047000001200348D0F83F
:109F7000403213B100F50C70184770470000012003
:109F80000348D0F8643213B100F5157018477047D4
:109F9000000001200348D0F8883213B100F51E708C
:109FA00018477047000001200348D0F8AC3213B1C5
:109FB00000F52770184770470000012000EBC00033
:109FC0000C4B0D4A03EB8003116BDB6D10B40B4C93
:109FD00083B0A34214BF4FF480034FF4001319431E
:109FE0001163126B13400193019B03B05DF8044BA6
:109FF000704700BF000001200038024000600240AE
:10A000000138F8B500EBC000124C1D46124B04EBB2
:10A01000800417460E46D4F88000984214BF96205C
:10A0200095203BF04FFD94F99500B909C4F8906074
:10A03000C4F898503BF01AFD94F99530002B07DBDB
:10A0400003F01F0001225B090449824041F82320EC
:10A05000F8BD00BF000001200060024000E100E008
:10A06000800AA0F58010522808D8054B034493F8C5
:10A07000F4330D2B02D8034AD056704700207047A6
:10A0800090B90408E02F05080120FEF7AFBC00BF1F
:10A090000220FEF7ABBC00BF0420FEF7A7BC00BF48
:10A0A0000820FEF7A3BC00BF1020FEF79FBC00BF36
:10A0B0004FF47870FEF79ABC4FF47C40FEF796BCE4
:10A0C00030B1036880881B691840003818BF012030
:10A0D000704700BF2DE9F04F0E4683B00446154689
:10A0E000002800F0C7800268644B13449B0A644A4E
:10A0F000C6F34119134493F8D4073BF0E3FCC6F3CD
:10A100008103B4F804E006F00301246801939EFA89
:10A11000AEF0B0FA80F001F1FF383EFA00F367D0FC
:10A1200001220327009603E001303EFA00F35ED0DF
:10A1300002FA00F313EA0E03F6D0D4F800C093FA43
:10A14000A3FBBBFA8BFB93FAA3FABAFA8AFA4FEA9B
:10A150004B0BB8F1010F4FEA4A0A07FA0BFB01FA61
:10A160000AFA2CEA0B0C4CEA0A0CC4F800C04ED9CF
:10A17000D4F80CC093FAA3FBBBFA8BFB93FAA3FAB7
:10A18000BAFA8AFA4FEA4B0B02294FEA4A0A07FA4F
:10A190000BFB09FA0AFA2CEA0B0C4CEA0A0CC4F87D
:10A1A0000CC0C1D193FAA3FABAFA8AFA4FEA132C77
:10A1B000BAF1070F45DCD4F820C093FAA3FABAFA33
:10A1C0008AFA93FAA3F34FF00F0BB3FA83F34FEA33
:10A1D0008A0A01309B000BFA0AFA05FA03F32CEA0B
:10A1E0000A0C4CEA030323623EFA00F3A0D1009E5E
:10A1F000B8F1010F08D86268C6F3001322EA0E0214
:10A200000EFB03F31343636003B0BDE8F08FD4F893
:10A2100008C093FAA3FBBBFA8BFB93FAA3FABAFA32
:10A220008AFA4FEA4B0B019E4FEA4A0A07FA0BFBE8
:10A2300006FA0AFA2CEA0B0C4CEA0A0CC4F808C01D
:10A2400096E7D4F824A09CFAACFBBBFA8BFB9CFAF3
:10A25000ACF34FF00F0CB3FA83F34FEA8B0B9B0078
:10A260000CFA0BFC05FA03F32AEA0C0A4AEA030388
:10A27000636259E74FF0FF3339E700BF0000FEBFCC
:10A2800090B9040800B125E770472DE9F84FBD4C9F
:10A290006023054603FB0043D3F81878002F00F035
:10A2A0005E81D3F82088B8F1000F04D098F806300A
:10A2B000002B40F05481602303FB0543D3F824684E
:10A2C0001EB1B379002B40F04A816B1CDBB2B8F1B0
:10A2D000000F04D0152288F8073088F8062016B140
:10A2E0001622F371B2714FF06009387C3BF0EAFB43
:10A2F000314609FB05F940463EF004FB404604EBBD
:10A30000090A0422DFF8A0829AF82838002B0CBF33
:10A310004FF01E0B4FF03E0B5946FFF7B3FF304690
:10A3200009F11406042259464644FFF7ABFF4C22BC
:10A330000021304641F083F8DAF818389FED927A20
:10A34000B0EE084A5B68F7EE003ADFED905A002065
:10A35000CAF82C388E4BBAF82AA89A688D4BC2F3EB
:10A3600082229FED8D5A134493F8DC27D4F82C33C6
:10A37000D34007EE903AF8EE677A87EE276A07EE49
:10A3800090AA9FED867AF8EEE77AC7EE274AF0EEBC
:10A39000007AE6EE275AA6EE275A26EE044A74EE15
:10A3A000E52ABAF5C87F40F3DE804FF4FA714FF426
:10A3B00082793223782200F1010E1344323A494463
:10A3C00007EE90EAF8EEE76A07EE903AB8EEE77A21
:10A3D00066EE866AC7EE267A77EEE37AFCEEE77AD7
:10A3E00017EE903A07EE902AF8EEE77A77EEC47A05
:10A3F00087EEA67AFCEEC77A17EE90CA07EE909A1F
:10A40000B8EEE73A07EE901AF8EEE77A23EE243A30
:10A4100083EE277A37EE453A32EEC77AC3EE267AD4
:10A4200035EE853A77EEE37AFCEEE77A17EE901A8E
:10A43000C7EE267A77EEE37AFCEEE77A17EE902AFB
:10A4400002F1020909EB010BB0EE437A07EE90BA74
:10A45000F8EE677AA6EEA77AF4EEC74AF1EE10FAA4
:10A4600000F3898043EA0C095FFA89F9B9F10F0F0B
:10A4700000F2838041EA02091FFA89F9B9F1FF0F5E
:10A480007BD81B054FEA0C4C03F07F6392B20CF4AF
:10A490007F0C43EA0C0343EA0073414800EA0121C0
:10A4A0000B43134360224FF00009304655432C44C0
:10A4B0002835C4F83038A8440123C4F83498C4F8C7
:10A4C0003C98C4F83838C4F84098C8E902993DF07F
:10A4D00029FB94F86D38202BD9B21AD194F86C3836
:10A4E000012B16D0242384F86D38D4F82C381A6840
:10A4F00022F001021A601A6822F480521A601A6867
:10A500001A601A6842F001021A6084F86D1884F823
:10A510006C98002197F912003BF0A8FA97F91220E5
:10A52000BB7C002A08DB5909012203F01F0302FA51
:10A5300003F31C4A42F82130002197F911003BF047
:10A5400095FA97F911207B7C002A08DB5909012232
:10A5500003F01F0302FA03F3124A42F82130BDE868
:10A56000F88F70461DE740F214514FF416796423BA
:10A570004FF496721FE7013164E7BEF10F0FF0D17F
:10A5800000238FE7A0170120286B6E4E0000704259
:10A590000038024090B904080000164300247449B2
:10A5A00000FFFF0000E100E0B81F01202DE9F84F97
:10A5B0006D4EC0EB001306EBC303D3F8D849002C53
:10A5C00000F0938093F8488A0546070140463BF027
:10A5D00079FA01224FEA581308F01F08013B02FAEA
:10A5E00008F2032B08D8DFE803F0B3B902AD5F49E6
:10A5F0000B6A23EA02030B627B1B05F1010B06EBDE
:10A60000C3035FFA8BFB93F8DC090DF07FF88046FB
:10A6100018B1122380F807B083717B1B06EBC303CC
:10A6200093F8DD090DF072F8824618B1132380F813
:10A6300007B083717B1B06EBC30393F8DE090DF0B3
:10A6400065F8814618B1142380F807B083717F1B29
:10A6500050462E2106EBC70696F8E029FFF712FEBA
:10A6600096F8E12948460E21FFF70CFE96F8DF29FF
:10A670002E214046FFF706FE23683D4A23F04003A3
:10A680009442236033D03B4B9C423AD03A4B9C429D
:10A690004DD03A4B9C423FD0394B9C4209D103F5F7
:10A6A00068435A6A42F480125A625A6A22F480124B
:10A6B0005A62636843F48053636023685B060CD47A
:10A6C000206840F217322F492F4B01400A43226085
:10A6D0006268134043F4E0636360E36923F400635A
:10A6E000E361236843F040032360BDE8F88F1F4B0C
:10A6F0005A6A42F480525A625A6A22F480525A626A
:10A70000D7E703F500331A6A42F480421A621A6AE4
:10A7100022F480421A62CCE703F582335A6A42F48B
:10A7200000525A625A6A22F400525A62C1E703F593
:10A73000FE331A6A42F400421A621A6A22F4004294
:10A740001A62B6E709490B6923EA02030B6153E772
:10A7500006494B6923EA02034B614DE703494B6A03
:10A7600023EA02034B6247E7A017012000380240AA
:10A770000030014000380040003C004000340140FF
:10A78000005001404000FFFFFBF0FFFF08B1002236
:10A79000A0E470472DE9F04191F80380B8F1000F73
:10A7A00003D100263046BDE8F08100F110070C46C9
:10A7B0000546897838460CF087FA06460028F0D01E
:10A7C00040460CF0A3FFA861237880460133DBB23A
:10A7D00010B1C3712223837140460D21FFF7D6FFCC
:10A7E0004046FFF77DFA0F4AD2F8D432632BFBD9EB
:10A7F0000D480CF055FADFF838800C4BA88202E0C7
:10A8000058F8043F53B13846984703460028F7D01C
:10A81000286985F8D8303EF045F9C3E7E0780CF0B8
:10A82000D3FFBEE7A017012040420F0051AD03083F
:10A8300074C1040870B50E4CD4F8346B002E15DDCD
:10A8400004F58764002503E001352034B5420DD0BE
:10A85000237F002BF8D0E06800220028F4D00135D7
:10A86000217DFFF737FC2034B542F1D1012070BDC6
:10A87000C80100202DE9F04F002393B0A74F0193AA
:10A88000A74BA7F6EC0BA74D93F8CA3BA64EAA46DA
:10A8900003F1FF3903935FFA89F30293A34DA946AD
:10A8A000D9F80050AB0AA3F58013522B00F2D780E1
:10A8B0005B4493F8F4330D2B00F2D18016F903803A
:10A8C000039B012B00F01581039B022B02D1B8F1F1
:10A8D000080F3AD10024214640460FF083FD0FF0C7
:10A8E0000BFE90F800C0BCF1000F18BFBCF1540F74
:10A8F00014BF4FF0010C4FF0000C40F00481043401
:10A90000A4B2102CE7D1019B002B00F0B380854A44
:10A910000CE05B4493F8F4330D2B0ED8F35643450B
:10A920000ED002F58672524500F0A08091680B6847
:10A930009B0AA3F58013522BEBD900234345F0D19A
:10A940004B7999F805109942EBD109F11C094F4553
:10A95000A6D1019B0AF5867A0133042B01939DD180
:10A96000DFF8DCA10023AAF5876B01930AF59E733B
:10A970000293DBF8343B019A93426DDDDAF80C70F8
:10A98000002F69D09AF810303A68DBF80450684814
:10A990000493002DBB88104403934FEA902040F3AA
:10A9A000D380604B002405E0013403F58673AC428C
:10A9B00000F0C88019688142F6D15A4B4FF4867175
:10A9C000039E01FB0434049B4FF0030E019D8AF8A3
:10A9D0001030039B0135CAF80C70B3FA83FCCAF837
:10A9E0001840CCF11F035800CAF8043087F806E07D
:10A9F000FD710EFA00FEA16C0127D4F8548041EAE3
:10AA00000E0107FA00F007FA03F39BF800E0A164D7
:10AA1000216D0143D4F8AC00216599B2BEF1000F5D
:10AA200000F0FC8043EA0803636596613A46FDF74F
:10AA300061FB20460AF1200AFDF730FB40F20112CB
:10AA40000123082D2AF8042C029A019502F118021C
:10AA500002F8073C02928CD113B0BDE8F08F029B44
:10AA6000012B7FF672AF4FF0000833E7BCF1000F07
:10AA70007FF46BAF4846FDF7D7FA99F805E0C3B20B
:10AA8000022B00F26C8300F1010C2A4A4FFA8CFC75
:10AA900002F57D700CEB4C0C4FEA8C0C03E02C3271
:10AAA000904200F05C8313689D42F8D1137973459E
:10AAB000F5D152F80C30002BF1D01F48002142682C
:10AAC0009A4212D0013124301029F8D14FF0FF33CF
:10AAD00003EBC303194A02EB830393F89C30002B6A
:10AAE0007FF433AFCAF8089033E74B1CDBB2013B6D
:10AAF000EEE7B8F1010F3FF4EDAE09F11C094F4547
:10AB00007FF4CEAE25E7019B002B7FF400AF09F167
:10AB10001C094F457FF4C4AE1BE700BF7CC204088C
:10AB2000A0170120D0010020E02F050880C10408F3
:10AB30000000FEBF90B90408800001200000012041
:10AB400000060020042C76D04FF4867303FB05B377
:10AB500019690691002900F0EA82986001305421B9
:10AB60000792C4B2AE4A83F8101183F811416B1CEE
:10AB700092F8E12BCBF80430069B089218461E6829
:10AB80005B790593FDF750FAC3B2022B00F2E7821E
:10AB900000F1010EA3494FF0000CDDF814904FFABC
:10ABA0008EFE079A0EEB4E0E4FEA8E0E06E00CF16B
:10ABB000010C2C31BCF1170F00F0D1820B689E42C2
:10ABC000F5D10B794B45F2D151F80E30002BEED078
:10ABD00098462C2300EB4000924903FB0CF3DFF86E
:10ABE000789203EB800348460B4419694FF486734F
:10ABF00003FB05B3C3E907810021436843452BD01C
:10AC0000013124301029F8D1874B93F87820B2B95C
:10AC1000542283F8794083F8782010E0CCF12F0C8F
:10AC2000360407FA0CF343EA08036365966172463B
:10AC3000FDF760FAFDE60323794A82F8E03B7B4B9F
:10AC40007B487C497C4AC3F84804C3F84014C3F8E5
:10AC5000502413B0BDE8F08F4B1C7349DBB2013BAD
:10AC600003EBC30301EB830393F89C1009910029C4
:10AC7000E5D14FF4867171484FF08C0C83F89D40FC
:10AC800001FB05F16E4C0791891004F54C7E00FB29
:10AC900001F107985844C0F800C10CFB01FC01EB1E
:10ACA0004101C2600EEB4C0201EB0111C0F8FC2027
:10ACB000542204EB8104079983F89C203323C0F8C5
:10ACC000B440C0F8B8305F4B5C18554BD3F82C2318
:10ACD000089B062B00F01C82072B00F016825A49B5
:10ACE0005A4B3046B2FBF3F3B2FBF1F2013B4FF4A7
:10ACF0008671013A9BB201FB05B1A1F8BC20A1F815
:10AD0000743023660023A4F858306366E365079B1C
:10AD100003F158014B4B19443CF0DCFB3368059AB6
:10AD200043F0800333600C2A0ED8DFE812F098015C
:10AD30000D000D000D0077010D000D000D00B70195
:10AD40000D000D000D0054014FF486736022304653
:10AD500003FB05B30A924FF480725969336810926D
:10AD6000012223F0010308910B920A223360002391
:10AD70000C930F9311930223CDE90D230AAA3CF003
:10AD800061FA08990023B1F5807F00F0CD8100F2CF
:10AD9000C281102900F0DC8100F2CE81012902D0AD
:10ADA000042940F0CC81082206F11801C85802435A
:10ADB000CA50069B1879002840F09681336843F00A
:10ADC000010333600023D9F804200133904500F0DB
:10ADD0008781102B09F12409F5D14FF0FF33124A76
:10ADE00003EBC30302EB8303D3F88000184B9842B4
:10ADF00014BF962095203AF065FE059B0C2B00F2BF
:10AE00006C81084A02EB4303B3F8ECC84FF4867335
:10AE1000104903FB05B3A3F818C0002325E000BFC9
:10AE2000A017012090B9040800000120C0120020E2
:10AE30007955010875550108815501086B4CA40727
:10AE400020170020D001002044950800D0DD060026
:10AE500000600240EC10002080000120964200F0CB
:10AE600072810133042B00F07D8151F83320002AD8
:10AE7000F4D1DBF8202F0132CBF8202F0BEBC302EB
:10AE8000DB00C2F8246F19440998234690228E886B
:10AE90004CEA060C0026A1F804C0B449FFF7B0F84C
:10AEA0004FF48673B2484FF4403203FB05B8D8F82C
:10AEB0001C50D8F80C902B68E9B243F010031039FD
:10AEC0002B602B68A0FB0101402043F0140309090B
:10AED0002B60C4F8A860C4E91F66C4E92866D8F8E6
:10AEE0002030C4F898204FF48062C4F8943008935E
:10AEF0000423A067C4F89C30C4F884209D4BD8E993
:10AF00002D02C4F8902009F1180260674FF48040C8
:10AF100022674FF4805209F11009C4E92220079AF0
:10AF200025F0FF0070321A44CDE905013CF020FC09
:10AF3000D5F800E0079AC4F820E0D5F814E0B8325C
:10AF40008C4BC4F824E0D5F804E01A44089BC4F8FC
:10AF500028E0D5F808E0C4F82CE0D5F80CE0C4F8F7
:10AF6000DC300423C4F830E0C4F8E4304FF48063EC
:10AF7000C4F8C860C4F8CC304FF40033C4F8F060B3
:10AF8000C4F8E030C4E93066C4E93A66D8E93F6302
:10AF9000DDE90501C4E92E964FF48046C4E9356326
:10AFA0004FF40063C4F8D0303CF0E2FB2B683A6801
:10AFB00063636B69BE88A3636B68E363AB682364F8
:10AFC000EB6863642B6843F010032B602B6843F03D
:10AFD00014032B60F7E433684FF486724FF480510A
:10AFE0004FF0020E23F0010302FB05B2304651611F
:10AFF0000AAA336000230C930F93119360230A93E2
:10B000004FF48073109301230B930A23CDE90D3E77
:10B010003CF018F94FF400620423C5E64FF4867241
:10B0200010213368022002FB05B223F001035161B5
:10B030006022336000230A924FF480720C931092C6
:10B0400001220F930B920A221193CDE90D200AAA37
:10B0500030463CF0F7F800234FF40062A4E64FF4CA
:10B06000867233680121304602FB05B223F00103EA
:10B070000B9151616022336000230A924FF4807279
:10B080000C930F931193022310920A22CDE90D2302
:10B090000AAA3CF0D7F80023082285E633684FF46B
:10B0A00086724FF48071022023F0010302FB05B287
:10B0B000109151616022336000230C930F93119320
:10B0C0000123CDE90A230A230AAACDE90D3030462F
:10B0D0003CF0B8F80822042366E64FF0000C95E631
:10B0E000DBB20993013B7AE60CF010FB089038B113
:10B0F000069B0221DA79FEF7EDFF5422089BDA80E5
:10B10000736C43F40043736458E61B491B4BE8E53A
:10B110001B491C4BE5E5B1F5805F1CD0B1F5803FC4
:10B1200013D0B1F5806F0AD1082204233CE6022334
:10B13000154A82F8E03B82E540293FF434AE4FF4F3
:10B1400000623C2330E6DB009DE608223C232BE630
:10B150004FF4006228E64FF40062042324E6002343
:10B160005B68FFDE00239B88FFDE00BF4181000893
:10B17000ABAAAAAAD00100201055220040771B00DC
:10B18000882A1100A0BB0D00A017012070B590F80F
:10B19000B2311C09013C052C0FD81A4E054603F0AC
:10B1A0000F0306EB4402B2F8080940FA03F2D20793
:10B1B00003D595F8BD21012A01D0012070BD9A4028
:10B1C0002644013A104040F0E7F996F814390E4A47
:10B1D000034402EBC30452F83320A38810691840DB
:10B1E000ECD0002395F8B3210221204685F8BD312B
:10B1F000FEF770FFD5F82021136843F008031360B1
:10B20000DBE700BF90B904088423012008B90020BF
:10B2100070472DE9F04F00228DB02F2104460FF02A
:10B22000C1F9074600B390F80580994ED0F8009018
:10B23000A6F83C84FEF7E4FDB0B14568A5B1DFF89F
:10B2400088B200225946DC46DCF8043001320CF1A9
:10B25000240C9D420CD0102AF6D18E4B93F8782006
:10B2600012B92F22A3F8782000200DB0BDE8F08F8E
:10B27000D2B2DFF820A2013A02EBC2020AEB820C42
:10B2800092009CF89C300093002BEDD111442F22AA
:10B2900083688A83804AD6F82C1301939142C6F8BA
:10B2A000FC9380F0D680009A090A7C48C6F80024F6
:10B2B0000022A0FB01107A49C6F80C24C6F8042429
:10B2C00002090009A1FB0212C6F808045208A6F8F8
:10B2D000E62E5200A6F8E42E96F8392402F0FF017B
:10B2E000002A00F0CB80022248466E4986F83924B5
:10B2F00035F022FC0122204686F839240CF006FAAB
:10B30000C6F8E80E28B12F21C1804E21FA79FEF748
:10B31000E1FE654A0021019BB8F10C0FC6F8F81E4A
:10B32000C6F8F03EC6F8081FC6F8101FC6F8181F6A
:10B33000C6F81C1F106BC6F8EC5E40F400101063DA
:10B34000106B00F4001003900398106B40F4800021
:10B350001063126B02F480020492049A4FF04002D0
:10B36000C6F8F42E4FF48062C6F8FC2E4FF48052DB
:10B37000C6F8002F4FF48042C6F8042F4FF4003275
:10B38000C6F80C2F4FF00302C6F8142F6DD8474AA9
:10B3900002EB4802B2F81C49A14608344448594619
:10B3A000002206EB840CCCF8FC03A0F52F60C6F855
:10B3B000240F48680132243185425CD0102AF8D12C
:10B3C0004FF0FF3202EBC2020AEB820A394ADAF886
:10B3D0008000904214BF962095203AF073FB002223
:10B3E000DBF8041001320BF1240B8D4240D0102AFF
:10B3F000F6D106EB840600984B4660222E49FEF7F4
:10B40000FFFDD6F8FC0332F067FF00287FF42CAF75
:10B41000BC7960210A904246630005910B9005A912
:10B4200003F00203069009900793E300234803F01A
:10B43000080308933AF0CAF800287FF415AFA30771
:10B4400041461E481DD535F05FFCB0FA80F040093A
:10B450000BE71B4A1B480A44A0FB0202920D013A6B
:10B4600092B2501CB1FBF0F11EE789460C4694E7FE
:10B47000D3B20093BDE7D2B2013AA3E786F83814FD
:10B4800031E735F029FBB0FA80F04009EDE600BF66
:10B49000A017012000000120006CDC02598B4F0135
:10B4A000ABAAAAAAA01B01200038024090B9040848
:10B4B0008C26012000600240F58F00089C1B0120B3
:10B4C00000366E01819F5E1680000120014B53F80B
:10B4D0002000704750280040014B43F8201070476F
:10B4E00050280040204B2148196C214A41F08051DE
:10B4F00030B482B01964196CFF2401F080510191BD
:10B500000199016841F480710160CA20196C41F40D
:10B5100080611964196C01F4806100915321009DD0
:10B520005462506251625B6FDB0013D4114B0022F6
:10B530001149C3F85428C3F85828C3F85C28C3F845
:10B540006028C3F86428C3F86828C3F8501802B00C
:10B5500030BC7047074A084BD2F850289A42E5D1D0
:10B5600002B030BC704700BF00380240007000409D
:10B570000028004000200040316665422DE9F04F70
:10B580000646086889B00C46850ABDF848A0A5F5AE
:10B5900080159DF84CB0522D54D819462E4B2B4493
:10B5A00093F8F4530D2D4DD82C4FFDF761FD94F811
:10B5B000058007EB851794F80690AD01BBF1000FED
:10B5C00043D14B465A004FF48071DB00384602F0FD
:10B5D0000202CDF808A003F0080303924246049348
:10B5E000602301934FF40073CDE90613002301A9F2
:10B5F000059339F0EBFF19F0020F4146384627D08A
:10B6000035F082FB164B02215A1982F87D14D2F8CC
:10B610004014144A88680240062A06D0B2F5803FDA
:10B6200003D00A6842F001020A602B44012283F829
:10B630007D242168637901F1340271600021D01802
:10B640003060D15009B0BDE8F08F89F00103B9E74F
:10B6500035F042FAD6E700BF90B90408E01B01209C
:10B66000A0170120070001002DE9F84FD0F89470D1
:10B6700004464A4B00F16406FDB227F0FF098268D8
:10B6800000F1180A103D4846D2F80080A3FB0535AA
:10B690002D0929463CF0B4F8626D0023B2F5807F95
:10B6A00084F8583057D037D8102A68D064D8012A87
:10B6B00001D0042A39D16FF00801324608F118068A
:10B6C000404656F803C001EA0C01F150D4F854B0DA
:10B6D00059463BF0B7FDBBF5807F37D029D8BBF189
:10B6E000100F4FD044D8BBF1010F02D0BBF1040FB3
:10B6F00028D14FF0080C336852462946484643EAA1
:10B700000C033360402323623CF032F83B6843F083
:10B7100010033B60BDE8F88FB2F5805F3AD0B2F518
:10B72000803F21D0B2F5806F15D06FF400613C23CB
:10B73000C3E7BBF5805F28D0BBF5803F0FD0BBF5DA
:10B74000806F03D03C364FF4006CD4E708F11C0640
:10B750004FF0080CCFE76FF008010423ADE708F1C4
:10B7600054064FF0080CC6E76FF008013C23A4E72D
:10B77000BBF1400FBDD0E5E7402A9CD0D5E76FF480
:10B7800000619AE74FF4006CB5E708F11C064FF42E
:10B79000006CB0E76FF4006104238EE7ABAAAAAA9D
:10B7A0002DE9F04FDFF840B287B09BF800301BB9AD
:10B7B000012007B0BDE8F08F854BD3F8D432049355
:10B7C0000CF030FB834A92F8243C002B00F0F88008
:10B7D0000BF23464D2F81C340BF6383A0BF61868C6
:10B7E000C31A2646002705940193019A002A03DB19
:10B7F000F36D934200F3CA8007EB87030BEB43130F
:10B8000093F88C3603F0FF0E002B00F08680D6F8FC
:10B810009410B36870481A68CBB221F0FF01103B56
:10B82000A0FB03036D481B09C35C0B44B1895C6832
:10B83000D368A4B223EA0103C4F11604D360072C31
:10B840006BD9DBF8203E00220121013315468946E1
:10B85000CBF8203ED6F89C3018689C46CDE902E330
:10B8600015E0142D1EDC13F1080E48BF03F1170E6E
:10B870004FEA2E1305EB2E1503F1FF3E013102FABC
:10B8800003F309FA0EFE8C424EEA03020AD3034682
:10B890008C425CF8040FA0EB0303E2D8C5F115035A
:10B8A0001525E9E7152DDDE902E366D14C4CC2F31D
:10B8B0008421C2F3441004EB810104EB8000D1F831
:10B8C0003819D0F83809090241EA001102F01F00C6
:10B8D000C2F3C43204EB800004EB8202D0F83809D2
:10B8E000D2F83829014341EA023282EA122181EA80
:10B8F000111101F00F010F293FD1C2F30F124FF6C2
:10B90000FF718A4239D0B2F5606F43D0A8F80C209D
:10B910007146049A50460BF06BF930460137FFF739
:10B92000A3FE2C4BA0360AF15C0A93F8243C08F1E4
:10B930001408BB423FF759AF01222649059C8BF8FA
:10B940001C2F0022C1F81C24002B3FF431AF03EB65
:10B95000830304EB4313A268A03414F8901C12680C
:10B9600054F84C0C11F0020F116A14BF41EA800127
:10B970000143A3421162EED11AE7DBF81C2E01321B
:10B98000CBF81C2EB7B14FF0000EC1E7002007B076
:10B99000BDE8F08F0E4991F8EC3303EB430301EB64
:10B9A000C3033B4493F899330D2BAFD1802388F820
:10B9B0001E30ADE7194658220A483FF04BFCE2E73B
:10B9C000012204498BF81C2FC1F81C34F0E600BF9B
:10B9D000A0170120C0120020ABAAAAAAF02F0508C8
:10B9E00090B904088C100020C80100202DE9F04710
:10B9F0002422D0F8205181680023C0F89421044605
:10BA00002A6800F5907622F001022A602B606B60B4
:10BA1000AB60C0F89C3180F89031C0F89431C0F828
:10BA200024114079C4F898318202C4F83831C4F83E
:10BA3000403102F480522379C4F82821020313F024
:10BA4000010702F40052C4F82C214FEA002202F44C
:10BA50008062C4F8302103F0020240F0C780002A5F
:10BA600040F0EF80C4F83471B34B03F1200153F878
:10BA7000042F944200F0FA808B42F8D10007D4F8EA
:10BA8000943140F10781002B00F0388124233046A7
:10BA9000C4F894312B6823F001032B6035F058F97A
:10BAA000012817D0D4F84431002B40F031816B6865
:10BAB00023F490436B60AB6823F02203AB60AB6868
:10BAC00043F00803AB6030462B6843F001032B6062
:10BAD0003BF0C8FF002F5CD0D4F8FC70002F00F0C2
:10BAE000F380D4F8043104F13C08C4E90F73002357
:10BAF0004046C4E91133C4E91433C4E91833C4E936
:10BB00001A334FF48033E3654FF48063E3644FF4FA
:10BB10008073A3653CF0ECFB404632F0DDFBD4F8CB
:10BB200098A1C4F88C81BAF1200F66672ED1E36822
:10BB3000626999B252B3B1FA81F94FEA591929B33E
:10BB400094F89001012821D00B46A4F87811222105
:10BB5000C4F89C914046C4F87421C4F89811774900
:10BB6000C4F88C90A1677649E1677649C4F88810DB
:10BB700005F1240132F04AFC002800F0CD801023AA
:10BB800084F89091C4F89C31C4F894A17B68C4F8FF
:10BB9000143123799A0767D5D4F80051002D59D074
:10BBA000D4F80821002304F19C07C4F8A8303846D3
:10BBB000C4F8B030C4E927524022C4F8A4204FF49E
:10BBC0008062C4F8AC204FF48032C4E92D33C4E95C
:10BBD0003033C4E93233C4F8BC203CF089FB38462A
:10BBE00032F07AFB002800F08280FEE70423C4F8DC
:10BBF000343100F00103B2B10C22C4F83421002B1F
:10BC00003FF432AFD4F844314FF4803243F00203B2
:10BC1000C4F84C2143F00103C4F844314FF400331D
:10BC2000C4F8483120E7002B3FF41EAFD4F844316C
:10BC300043F00203C4F844314FF48033C4F84C316C
:10BC400012E70823C4F83431C3077FF50DAFD4F8E9
:10BC50004431DFE7D4F8A0311A6842F080021A605C
:10BC60001A6842F040021A60BDE8F08794F8BC31CF
:10BC7000002B3FF403AFD4F84431000743F008032E
:10BC8000C4F844314FF40043C4F85431D4F894312B
:10BC90003FF5F9AE002B34D024233046C4F894315C
:10BCA0002B6823F001032B6035F052F801283FF494
:10BCB00011AFD4F844313BBB6B6823F490436B6005
:10BCC000AB6823F02A03FDE6D4F8A0311A6842F4E9
:10BCD00080721A609A6842F001029A601A6842F013
:10BCE00020021A601A6842F010021A6051E7C4F884
:10BCF0008871C4F8D4606860BDE8F08784F890313A
:10BD0000C4E684F89031C7E7304635F095F9D3E7BB
:10BD1000304635F091F9CAE684F890012B6843F477
:10BD200080732B60AB6843F00103AB60AB6843F0FA
:10BD30004003AB602AE700BFE81E002031E803089B
:10BD400061E8030865E803082DE9F041EFF3118588
:10BD5000502383F31288D0F800311B6813F00103DD
:10BD600004D0EDB285F31188BDE8F081D0F89421BC
:10BD70000446D0F898110A4302F02102212AF0D09B
:10BD8000D0E90912914250D090B23ED819462369A9
:10BD90001B1A9BB2D4F89461A1620021202E84F872
:10BDA000A411DED1A1698918DBD0B3FA83F77F092A
:10BDB000002BD6D094F89021012AD2D00122D4F8B9
:10BDC0008801A4F8723184F890212122C4F89C7172
:10BDD000D4F82081C4F86C11A4F87031C4F894210F
:10BDE000B0B1144A0765C263134A0264134AC264BD
:10BDF00008F1280232F00AFB50B1102384F8907148
:10BE0000C4F89C31C4F89461ABE7081A83B2C1E767
:10BE100000234022C8F8202084F89031D8F8083058
:10BE200043F08003C8F808309BE7012380F8A43171
:10BE300097E700BF09E803082DE8030865E8030851
:10BE400070B5D0F820410546E369990614D5606ABB
:10BE5000EB6AC0B2002B6ED0296B9847D5F8204111
:10BE6000236823F480732360A36823F00103A36095
:10BE7000A36943F00803A361E369DA0701D501234D
:10BE80002362E3699B0701D502232362E3695E070E
:10BE900001D504232362E369180701D5082323622F
:10BEA000E369590610D54023236295F8BD6166B356
:10BEB000D5F80031B3B12846FFF746FF95F8A43115
:10BEC000D5F82041002B42D1D5F8003153B1E369B8
:10BED000DB0606D56B6B13B19847D5F820411023CC
:10BEE000236270BDE3691A06F1D5D5E909239342AF
:10BEF00043D0A969CA5C0133D2B2A2622A69B3FBFA
:10BF0000F2F102FB1133AB62E1E795F8B2010BF0FD
:10BF1000FDFB236823F008032360012385F8BD316E
:10BF20000028C5D032462021FEF7D4F8D5F80031DC
:10BF3000002BC0D1D6E7EB696A69D054EB69EA6897
:10BF40000133B3FBF2F102FB1133EB6186E795F8A5
:10BF5000BD61002EB8D195F8B2010BF0D7FB236874
:10BF600023F008032360012385F8BD310028ABD0FE
:10BF700032462021FEF7AEF8A6E7236823F08003BF
:10BF80002360A4E72DE9F04FC74C83B004EB800495
:10BF9000D4F82C8CB8F1000F77D0D8F8AC411E46FD
:10BFA0001746C24A63680546C8F80810C8F8A031A9
:10BFB000636BBF49C8F81430236BDFF80CB3C8F8C3
:10BFC0001830638FC8F80C30238FC8F8A811C8F850
:10BFD000103002F6B813C8F8003020780BEB40039D
:10BFE00093F94C9F430001935FFA89F3012B50D9D9
:10BFF000D8F800E1BEF1000F13D0AE4B0022596813
:10C00000013224338E4500F00381102AF7D1AA4B68
:10C0100093F878202AB901300B2283F8790083F84D
:10C020007820D8F8FC90B9F1000F40F09280636856
:10C03000C8F8203194F82800002840F0A88098F82B
:10C04000B2010BF063FB02213207034698F8B0A15E
:10C0500088F8BD1140F19E80002800F0A08016F005
:10C06000110F40F0048116F0400F14BF4A213A210D
:10C070000B2201351846DD719A7198F8B321FEF74D
:10C0800029F8B9F1000F00F0F880404603B0BDE890
:10C09000F08FC9F1000A02F5AA614FF0000E0AF014
:10C0A0000C0A8C460AF1080A06E00EF1010E0CF1AA
:10C0B0001C0CBEF1170F19D09CF80030042BF4D1E2
:10C0C0009CF801308342F0D15CF80A30002BECD0B0
:10C0D000C8F80031CEEBCE0309EB490C9B0003EB13
:10C0E0008C031344D3F85C35C8F80831019B9B449A
:10C0F0009BF94D3F01333FF47BAF0023A64604E09C
:10C1000001331C31172B00F0ED8091F800C0BCF119
:10C11000050FF5D191F801C08445F1D151F80A40DD
:10C12000002CEDD0C3EBC303A44609EB49097446C8
:10C130009B00D8F800E1C8F8FCC003EB89031A445F
:10C14000D2F85C35C8F80431BEF1000F7FF455AF6A
:10C15000E146584A0023516801332432894535D0DD
:10C16000102BF8D1544A636892F8781000297FF4B4
:10C170005FAF2178013182F879100C2182F87810B4
:10C18000C8F8203194F8280000283FF458AF39F05F
:10C1900099FC54E7BA0702D5002840F09780504632
:10C1A0000BF0B4FA00283FF46CAFFA077FF569AFE3
:10C1B0000C2201350221C571827198F8B121FDF779
:10C1C00089FFB9F1000F7FF460AF56E0DBB23A4A65
:10C1D000013B03EBC30302EB830393F89C20002A8B
:10C1E0007FF425AF2278D3F88000013283F89D20B8
:10C1F000324A904214BF962095200C2283F89C204E
:10C2000039F060FC636803F12402C8F81C210FE7D1
:10C210005FFA82F9284B09F1FF3202EBC20203EB0D
:10C22000820393F89C20002A7FF4FBAE0130D3F800
:10C23000802083F89D002148824214BF96209520DB
:10C240000B2283F89C2039F03DFC4346484694F885
:10C250002B201B49FDF7D4FE6368D8F8FC902833E7
:10C26000C8F81831B9F1000F3FF4E1AE71E716F0EC
:10C27000410F14BF4A212A21FAE694F82C1094F9B0
:10C280002A00890939F0F2FB94F92A2094F82A301F
:10C29000002AFFF6FAAE03F01F0001225B090949EC
:10C2A000824041F82320F0E6C012002090B9040833
:10C2B0008DB10008800001200000012000600240D4
:10C2C0006990000800E100E0A01701200B2236066B
:10C2D000827105F10102C27106D498F8B321FDF70D
:10C2E000F9FE5CE7744683E60123404688F8BD31D9
:10C2F000FEF74CFF53E700BFBFF34F8F0549064BD6
:10C30000CA6802F4E0621343CB60BFF34F8F00BFF3
:10C31000FDE700BF00ED00E00400FA0508B572B6C5
:10C32000FFF7EAFF30B583B0FFF7DCF80320FFF733
:10C33000CDF801284CD0324C0025324A0523C4F8F0
:10C340009850C4F89C50C4F8A020C4F89430BFF3AF
:10C350004F8FBFF36F8F4FF6FF01E2682A4B0A4001
:10C3600013432A4AE360536F34F014F9284B2949E8
:10C37000A3FB0023D4F8FC209B0C42F08072C4F88D
:10C38000FC20C1F8F433D1F82C332349234AA1FB14
:10C39000031323499B09C2F8B01F5560013B116884
:10C3A000B3F1807F41F00101116007D34FF0E0222B
:10C3B000136943F00403136103B030BD4FF0E02272
:10C3C000F0215361072384F8231095611361EDE791
:10C3D00002210320FFF780F80C4B12485A6C1249D7
:10C3E00042F480425A645B6C03F480430193019AE7
:10C3F00002680B68026083F308884B689847FEE781
:10C4000000ED00E01B0000060005FA0500380240C0
:10C4100083DE1B43A0170120D34D6210001000E003
:10C4200055CEACC5003801400000F01F800AA0F5D1
:10C43000801052281CD80F4B034493F8F4330D2B73
:10C4400016D8013910B40C4C04EB831CD4F82C43DF
:10C450008BB2DCF840040CF24441CCF84C34B4FB11
:10C46000F2F2013A5DF8044BCCF8442434F064BB9A
:10C47000704700BF90B90408A017012070B5046888
:10C48000A30AA3F58013522B05D82D4E334493F8FD
:10C49000F4530D2D00D970BD2046FCF7E9FD294B62
:10C4A000A801022203EB8515D5F8401485F87D24F8
:10C4B000254A8D682A40062A06D0B2F5803F03D06F
:10C4C0000A6842F001020A601A180121002382F86A
:10C4D0007D141E4951F8332094420AD001330E2BAB
:10C4E000F8D10121002039F0C1FA194B01221A605C
:10C4F00070BD06EBC306012196F9ED4996F8ED599A
:10C50000204639F0B3FA002CC5DB05F01F020121EB
:10C510006B090F4C01FA02F21B2D44F8232006D1BF
:10C52000192039F0A3FA4FF00073236070BD2E2D4F
:10C53000B1D12C2039F09AFA4FF48053636070BD6A
:10C5400090B90408A01701200700010078C304086F
:10C5500000E100E003689B0AA3F58013522B54D836
:10C56000F0B5334C234493F8F4330D2B4CD8457974
:10C570004FF0020E2F489C0125FA0EFC00EB8316AB
:10C580000EFA0CFE654603EB830CD6F8406403EB11
:10C590004C0C00293DD0AC44F56845EA0E0500EB93
:10C5A0008C0ECEF80410CEF81420F560EFF3118C49
:10C5B000502282F312882C2203FB02F28158851844
:10C5C00021B3696204312C221B4D03FB02F205EBFF
:10C5D000020E1032024452F8045F0DB10D60291DA5
:10C5E0007245F8D100225FFA8CFC0A608CF3118846
:10C5F0002C22044402FB0300D4F84034426A92B176
:10C60000DA6842F00102DA60F0BD70472432811826
:10C61000D9E7F768654427EA0E07F76000EB85065F
:10C6200071607261C2E7DA6822F00102DA60F0BD7F
:10C6300090B90408A0170120C017012003689B0AC5
:10C64000A3F58013522B1AD8104A134493F8F433ED
:10C650000D2B14D84FF0020C10B40D4C427904EBA2
:10C66000831022FA0CF3D0F840240CFA03FCD368B0
:10C6700031B143EA0C035DF8044BD3607047704757
:10C6800023EA0C035DF8044BD360704790B90408AB
:10C69000A017012003689B0AA3F58013522B10D822
:10C6A000084A134493F8F4230D2A0AD84079022348
:10C6B0000549D84001EB82128340D2F84024DB4385
:10C6C0001361704790B90408A0170120014902487E
:10C6D000FCF7AAB9A01701200000014008B50648E0
:10C6E0000649FCF7A1F9054B054803F5C671BDE8FD
:10C6F0000840FCF799B900BF00000140A0170120D5
:10C700000044014002494FF08040FCF78DB900BF62
:10C71000CC17012001490248FCF786B9F81701201F
:10C720000004004001490248FCF77EB924180120AA
:10C730000008004001490248FCF776B95018012072
:10C74000000C0040F8B5164D164E2A69EB681A40E9
:10C750004FF00040B2FA82F3EAB120FA03F3012A63
:10C760006FEA030302EA03012B610A46F2D1D6F80D
:10C7700004718FB1013F0023BFB2C6F80431D6F86F
:10C78000004134B123682046394698476468002C3C
:10C79000F8D10022DCE7F8BDEF6ABFB2EFE700BFD7
:10C7A00000100040A017012001490248FCF73CB9E5
:10C7B000D41801200004014010B5064C064804F5C9
:10C7C0009A71FCF731F904F504710448BDE8104092
:10C7D000FCF72AB9A017012000040140001C00400A
:10C7E00001490248FCF720B900190120004001402E
:10C7F00001490248FCF718B95819012000480140C6
:10C8000001490248FCF710B98419012000180040C2
:10C810002DE9F0414FF425728EB000215E483EF0C4
:10C820000EFE5E4B5E4D4FF000085A6C40F2222720
:10C83000A5F65826A5F1700442F001025A645A6C1C
:10C8400002F001020092009A1A6C42F001021A648E
:10C850001A6C02F001020192019A1A6C42F0020273
:10C860001A641A6C02F002020292029A1A6C42F0E6
:10C8700004021A641A6C02F004020392039A1A6CFE
:10C8800042F008021A641A6C02F008020492049A38
:10C890001A6C42F010021A641A6C02F0100205922F
:10C8A000059A1A6C42F020021A641A6C02F02002F7
:10C8B0000692069A5A6C42F002025A645A6C02F0CE
:10C8C00002020792079A5A6C42F480325A645A6CF8
:10C8D00002F480320892089A5A6C42F400325A6488
:10C8E0005A6C02F400320992099A5A6C42F480227E
:10C8F0005A645A6C02F480220A920A9A1A6C42F024
:10C9000040021A641A6C02F040020B920B9A1A6CE5
:10C9100042F080021A641A6C02F080020C920C9AA7
:10C920001A6C42F480721A641B6C03F480730D93CA
:10C930000D9B55F82810002354F83320914226D03F
:10C9400001330E2BF8D1002008F1070839F0BAF8AE
:10C95000B845EED14FF0000840F2222755F82810D4
:10C96000002354F8332091420CD001330E2BF8D120
:10C97000002008F1070839F0A5F8B845EED10EB04F
:10C98000BDE8F08106EBC30393F8EC09F1E706EB91
:10C99000C30393F8EC09D7E7A01701200038024041
:10C9A000E8C30408800AA0F5801052280ED8084B6E
:10C9B000034493F8F4230D2A08D8064B03EB8213A3
:10C9C000D3F84024136843F001031360704700BF9D
:10C9D00090B90408A017012038B5264C94F8643F9C
:10C9E000012B12D1042894BF002301236BB904EB5F
:10C9F00040000D4694F87C1FC4F8903FB4F87E2F99
:10CA0000B0F8863FB4F8820F01B138BD07EE902A26
:10CA1000DFED196AD4F8742FB8EEE77ADFED177AF4
:10CA200027EE267A06EE902A6422F8EE666A02FB6A
:10CA300003F366EEA76A07EE903A02FB0033B8EE06
:10CA4000E76A07EE903A27EE067AF8EEE77A87EE85
:10CA5000270A20EE260A3DF08DFED4F86C2FB4F89C
:10CA6000803F1060D4F8D42213442B44C4F8943F80
:10CA700038BD00BFA01701200AD7233CCA269B3E21
:10CA80002DE9F041A14CA4B0D4F85C38022B00F0A1
:10CA900039829F489F4AA049121A3EF0DBFB9F480B
:10CAA0009F4AA049121A3EF0D5FBD4F85838012B02
:10CAB00000F2C08003EB43039B4A9C4E02EB430011
:10CAC00032F8132041888388C6E9B021C6F8C832FD
:10CAD000974C984D984BB2FBF1F2984901FB02F24A
:10CAE0000021C5F82C23D4F8882042F47002C4F841
:10CAF00088201A6842F001021A609960904A18680A
:10CB0000024090481A60C0F308078F4A5A601A68BA
:10CB100022F480221A60D96007B1FEE78B49A06039
:10CB20004FF6FF000A688A4B42F400720A60E2681E
:10CB300002401343E36039F097FABFF34F8FBFF31E
:10CB40006F8FC4F85072BFF34F8FBFF36F8F63695D
:10CB500043F400336361BFF34F8FBFF36F8FC4F8AB
:10CB60008470BFF34F8FD4F8803043F6E07CC3F37A
:10CB7000C90EC3F34E33580100EA0C01734641EA73
:10CB80008372013B5F1CC4F86022F8D1203810F199
:10CB9000200FF1D1BFF34F8F636943F4803363619A
:10CBA000BFF34F8FBFF36F8F6849634B0A6842F43E
:10CBB00080720A60196C674A41F080511964196CDF
:10CBC00001F0805102910299116841F440411160D5
:10CBD0001268D6F8C04202F440420192019A9A6863
:10CBE00002F00C02042AD6E9B17100F08B809A6839
:10CBF00002F00C02082A00F081804F4A136843F4C7
:10CC000080331360D5F8980F04E0D5F8983F1B1ACD
:10CC1000642B72D813689B03F7D5474A936803F0D7
:10CC20000C03082B69D0136823F080731360D5F8C8
:10CC3000980F08E03D4ED6E9B02149E7D5F8983F76
:10CC40001B1A022B59D813689E01F7D40B067908DA
:10CC500043EA8413013943EA01433F4919435160D0
:10CC6000136843F080731360334AD5F8981F04E0CB
:10CC7000D5F8983F5B1A022B3FD813689801F7D577
:10CC8000136C43F080531364136C324A03F08053E7
:10CC90000393039B136843F480331360D5F8981F04
:10CCA00005E0D5F8983F5B1AB3F57A7F2DD8536825
:10CCB000DB03F6D51368274943F400331360D5F836
:10CCC000982F05E0D5F8983F9B1AB3F57A7F1CD8CA
:10CCD0004B689E03F6D54FF400124FF0006304A892
:10CCE00004924FF4C07221930723CDE90823032354
:10CCF0000A9333F083FC88B3FEE7FEE75B685A02D1
:10CD00007FF57BAF0C4B1B6887E7FEE700200040F8
:10CD100000000000F039000090B20508000000207B
:10CD2000C8010020BB0D060870CC040800000120DB
:10CD300000ED00E0A01701200038024040420F0043
:10CD4000FFFFF6FE0000000810300024003C024007
:10CD50000003FA0500700040080040206C4A136888
:10CD600003F00F03062B0AD8136823F00F0343F0D8
:10CD700007031360136803F00F03072B69D1654B9A
:10CD80009A6842F4E0529A609A6842F460429A606B
:10CD90009A6822F0F0029A601A68900159D59A6850
:10CDA00041F2883022F0030242F002029A60D5F884
:10CDB000981F04E0D5F8982F521A824249D89A68F1
:10CDC00002F00C02082AF5D1514A136819070AD556
:10CDD000136823F00F0343F007031360136803F095
:10CDE0000F03072B35D1DFF82C814B4ED8F80830D4
:10CDF00023F4E05343F4A053C8F80830D8F80830BF
:10CE000023F4604343F40043C8F8083033F0C2FB16
:10CE1000D8F80830C3F30313334493F8F43120FAFD
:10CE200003F3C5F82C3339F01FF9002304A8CDE92A
:10CE30001333CDE91533CDE91733CDE91933CDE9F6
:10CE40001B33CDE91D33354B049333F0D7FB08B1C9
:10CE5000FEE7FEE702234FF0007204A8CDE9063397
:10CE6000D823CDE9042301230B9333F0C7FB00B192
:10CE7000FEE7D8F88C3023F08073C8F88C30D8F8EF
:10CE80008C3043F08073C8F88C30D8F8083003F049
:10CE90000C03042B31D0082B12D0214B2149B4FBB9
:10CEA000F7F201FB02F21B498968C1F303110E443A
:10CEB00096F8F411CB409A42C5F82C331FD0FEE708
:10CEC000D8F80430D8F8042013F4800FD8F80430D0
:10CED00002F03F0218BF1449C3F3881308BF10497A
:10CEE000B1FBF2F202FB03F30A4A5268C2F30142B9
:10CEF00001325200B3FBF2F3D0E70B4BCEE724B084
:10CF0000BDE8F08100210320FEF7E6FAFFF7F4F90F
:10CF1000003C02400038024088CA0408C0FF0300F9
:10CF20000024F40040420F0000127A000548D0F8B7
:10CF3000A03223B1DB6A13B100F52870184702480C
:10CF4000704700BFA01701208CCC040810B5154C09
:10CF5000D4F89C3F1B883BB9002384F8AB3F84F88E
:10CF60009832C4F8943210BDD4F8A02F002AF3DD13
:10CF7000D4F8A41F012A488805D00123A4F8A80FDB
:10CF800084F8AA3FE8E78A880132121A9A42F4D15B
:10CF90000022D4F8A03204F528701B69C4F8CC2212
:10CFA0009847D9E7A01701200748D0F89C3213B161
:10CFB00090F8AA3F0BB100207047D0F8A03200F5DE
:10CFC00028705B68184700BFA01701200F4B93F82B
:10CFD000982293F8AB0F93F89822904293F89822F6
:10CFE0000FD8904204D3D3F89432002018447047ED
:10CFF00093F89822D3F89432C2F180021044184476
:10D000007047801AD3F8943218447047A017012053
:10D0100070B51B4C84B01B4B94F8982203931344B7
:10D0200094F8AB1F029394F89832994294F898328E
:10D0300016D899420CD294F898520E46C5F1800544
:10D04000D9B92B4601223F2BCDE900560DD860B946
:10D0500094F89802401AB0FA80F0400904B070BD0C
:10D06000CB1A002601221D46EDE76946002302A8DF
:10D070003BF0B2FF94F8AB1FEAE76B180222E2E73D
:10D08000A01701200C1F00202DE9F043374C85B07C
:10D09000154694F8ABCF00293DD0461EDFF8D88066
:10D0A0004FF0000977180DE094F898328C466345EC
:10D0B00094F898321DD9C3F1800319443F291BD835
:10D0C000B74228D00CF1010116F8013FC444C9B29F
:10D0D0008CF84C3C0B0684F8AB1FE5D54FF0000CE8
:10D0E00094F8983284F8AB9F6345614694F898327F
:10D0F000E1D8C91A3F29E3D994F898326345DFD0C3
:10D100001B4B1B78002BDBD00020FFF781FFB742C1
:10D1100094F8ABCFD6D194F89832164A13440392C0
:10D1200094F898220293944594F8983218D89C4524
:10D1300013D2614694F898320029C3F180030CBFE2
:10D14000012202229C44BCF13F0FCDE9003104D9F9
:10D150002B46694602A83BF03FFF05B0BDE8F083CF
:10D16000ACEB030C002101226346ECE7A017012081
:10D17000000001200C1F0020C012002010B51A4C26
:10D1800084B01A4B94F8980294F8AB1F94F8982244
:10D19000039303449142029394F898321FD8994222
:10D1A00010D2081E94F8983218BF0222C3F18001F1
:10D1B00008BF01220123CDE90010694602A83BF017
:10D1C0000BFF03E000220023CDE90023D4F8A032B6
:10D1D00007485B6898470028F8D004B010BD0020CD
:10D1E0000122C91AE6E700BFA01701200C1F00208A
:10D1F000401A01202DE9F0410F4C164682180546D1
:10D20000D4F89C320F469A4294F8AB2F88BF1E1A6E
:10D2100094F898329A4201D0FFF7B0FF00203346CD
:10D220003A462946C4F8CC02D4F8A002846A0348DE
:10D23000A446BDE8F0416047A0170120401A012034
:10D240008C461346014662461846D3E738B5244C4F
:10D25000002204F6AC701346C4F89C2202461178F2
:10D26000063202292BD00133062BF8D10022D4F844
:10D27000A032C4F8A42FF3B1DA6AE2B1194890479A
:10D28000D4F8A43FC4F89C0FA3B159889A88436886
:10D29000521A02FB0333C4F89C32FBF7DFF894F810
:10D2A0009832054694F8AB2F9A4201D0FFF766FFFB
:10D2B000C4F8945238BD0C4BC4F89C3F38BD03EB06
:10D2C0004303D4F8A02200EB4303C4F8A43F12B1F7
:10D2D000D26A002AD2D10448C4F89C0FD5E700BF17
:10D2E000A0170120401A01208CCC040810B50A4C6C
:10D2F000D4F8A0325B6A13B104F528709847D4F8CB
:10D300009432D4F89C2F013B52881344524213406C
:10D31000C4F8943210BD00BFA0170120F0B5344D01
:10D3200093B0FFF713FEFFF791FF95F8983295F849
:10D33000AB2F9A4201D0FFF721FF0024D5F89C6261
:10D34000C5F894427EB122462A496846203401F04D
:10D350000FFE68463BF0E8FE012201466846FFF7F3
:10D3600093FEA642EFD895F8983295F8AB2F9A42E3
:10D3700001D0FFF703FFD5F89C3F9B7B012B30D0FA
:10D3800095F8983295F8AB2F9A4201D0FFF7F6FE48
:10D390000027C5F894723EB33C462246154909A8B9
:10D3A00001F0E6FD2122002168463EF048F82022E7
:10D3B00069462046FFF71EFF0546202209A9684658
:10D3C00020343EF060F8202D08BF002814BF012053
:10D3D0000020A6420744E0D8B7FA87F0400913B00E
:10D3E000F0BDFFF783FFCBE7012013B0F0BD00BF16
:10D3F000A0170120602F05080B4B93F8CC0218B939
:10D400000A4B93F8D00F7047094AD2F85C180329E9
:10D41000F6D106494FF0010C81F8D0CF0021C2F8B7
:10D420005C1883F8CC12704700000120A01701207F
:10D43000002000400321044608B50846FEF74CF8DA
:10D4400072B6104BD3F8D80FD3F8DC1F50EA0102A4
:10D450000AD1002211460420FEF73EF811460520AD
:10D46000FEF73AF8FEF748FFD3F8D4224EF66023D1
:10D47000121803FB04F041F10001821841EBE07146
:10D48000E9E700BFA01701200021032008B5FEF73F
:10D4900023F872B6FEF730FF174C08B5D4F8E03F1A
:10D4A000DBB914200CF0FCFD01E0FBF709F800BF2C
:10D4B000D4F8E03F002BF8D0196894F8E62F9B8849
:10D4C0000969003A03EA010318BF0122003B18BFB3
:10D4D00001239342E9D0FFF7D7FF94F8E62F1868AD
:10D4E000003A998818BF012203690B40003B18BF1E
:10D4F00001239342F8D1D4E7A0170120F8B51C20EE
:10D500000AF004F904461121FDF740F97CB3A38821
:10D51000C82022681B0493610CF0C2FD2368A28816
:10D520001B209A610AF0F2F808B12923C38029234D
:10D53000E380264CD4F8743213B10023C4F874325B
:10D540000023234E0125234FC4F8706287F8E83F7B
:10D5500084F85C523AF058FC06F11C03C4F87432AB
:10D560001D4B93F8A131AB420CD02846F8BDC82022
:10D570000CF096FD1B200AF0C9F80028D9D0292309
:10D58000C380D6E7D4F89002543690F8BC33C4F880
:10D590008C62AB4214D00168D1F8043823F0020346
:10D5A000C1F80438D7F8982FD7F8983F9B1A032B67
:10D5B000FAD98B68002243F001038B6080F8BC230A
:10D5C0000023064A184682F82330F8BDA027012020
:10D5D000D0020120A01701209828012000ED00E0D2
:10D5E0002DE9F04F002189B041F69462C5483DF025
:10D5F00026FF0420FDF76AFF01460520FDF766FFC0
:10D6000051EA000340F07081BF4B02934C2200218D
:10D61000BC4801243DF013FF00214C22B9483DF0E5
:10D620000EFF029BB74AD3F87433B84D14711560DE
:10D630001546D3611362536238F036FDFFF706FEDC
:10D64000002108460AF0F0F8FAF708FFB0F1000AE6
:10D6500040F3BA810027AE4C05F14C0BAD4DB846F6
:10D660003E4604F5D279019704E006F50066B2451E
:10D6700040F3BF80A84AD2F8D432C2F8D832FAF7C1
:10D680001FFF202249463046FFF7B4FD1222A3496E
:10D6900048463DF0F8FE0028E7D1464525D00199DF
:10D6A0009F4B01EB410203EB82034A1C9D49184644
:10D6B0000193A6EB08030492039301F059FC019B2C
:10D6C0005946049A41F84C3B039BCBF80C800192DD
:10D6D000CBE90433DBF81C30CBE908330123CBF86A
:10D6E0000830914BCBF828308B46029BB046122273
:10D6F000D3F87433CBF81C30A318013293F8A4117B
:10D70000EB5D994218D00027202AF5D108F12008B6
:10D71000C24564DB49464046FFF76CFDEA5D94F87C
:10D72000A4319A4200F0DA8094F8A5310127022250
:10D73000482B18BF0027DFE70137152FE4D108EB8E
:10D7400002007A492022FFF755FD00230A2207A98B
:10D750007648CDF81C9001F0C1FD80460798002363
:10D760000A22013007A9079001F0B8FD05900023B7
:10D7700007980A2207A90130079001F0AFFD049035
:10D78000002307980A2207A90130079001F0A6FD9F
:10D79000039007A9079800230A220130079001F09F
:10D7A0009DFD0023074607980A221946013001F023
:10D7B00095FDB8F1000F11D00399A8F2BC78DDE90E
:10D7C000043243EA42127B0142EA482243EAC1237F
:10D7D00043EA600343EA0243CBF81C301527019B60
:10D7E000642B00F02881B04606F50066B2453FF78D
:10D7F00041AF019B642B03F101041F4600F0DF8061
:10D80000464500F0DC800C22454D4649A6EB080653
:10D8100002FB03552246284601F0AAFBBA1C0194DC
:10D820001446DBF81C20404FCBF80050CBF80C809E
:10D83000CBF82870CBE908220122CBE90466CBF8AB
:10D8400008204C262F4B0021DFF8EC9006FB04F457
:10D8500032464FF001081D1928463DF0F0FD3246D2
:10D86000284B0021324E284643F80490C5F8088022
:10D87000C5E90766C5E909673DF0E1FD214904F105
:10D880001002019B41F804901834C5F80880023357
:10D890002E62AF6241F802A00A440431C2F804A02B
:10D8A000029AD2F874230A510C4462606A624FEA09
:10D8B0004A02B2F1805FC0F28880124B9C6834B992
:10D8C0001A461B791BB11368002B40F0BD80002164
:10D8D000084609B0BDE8F04F09F0A6BF01370122A4
:10D8E000152F7FF409AF2AE74FF47A7200233CF03A
:10D8F000DFF8104B40F2B27240F26D14B0FBF3F35C
