:020000040800F2
:10000000F0FF00100DB10708DD290708D5AF020881
:10001000ADB10708ADB10708ADB107080000000099
:10002000000000000000000000000000E1290708B7
:10003000E529070800000000E929070831930208B4
:10004000ADB10708ADB10708ADB10708ADB10708FC
:10005000ADB10708ADB10708417C0208657C020814
:10006000897C0208AD7C0208D17C020821C8000806
:1000700031C8000841C8000851C8000865C8000818
:1000800079C800088DC80008ADB10708ADB10708F0
:10009000ADB10708ADB10708ADB10708F57C02089E
:1000A00079AB0208D9AA020889AB0208C9AA0208DA
:1000B00001AB020811AB020821AB020835BB0008F6
:1000C000DDC200083DBB0008E1C20008ADB1070871
:1000D000ADB10708BD8C0208C18D0208C58E0208AB
:1000E0002D7D0208ADB107082151070899AB020820
:1000F00051AB0208A9AB020841AB0208A1C8000835
:10010000ADB107080DF2000831AB0208ADB1070828
:10011000C98F0208CD900208852C0408B92C040868
:10012000B5C80008C9C80008DDC80008F1C8000843
:1001300005C90008ADB10708ADB10708ADB10708A2
:10014000ADB10708ADB10708ADB10708ED29070843
:1001500019C900082DC9000841C90008D191020839
:1001600045BB0008E5C20008ADB10708ADB10708FE
:10017000ADB10708ADB10708ADB10708ADB10708CB
:08018000ADB10708ADB107089D
:0828000000C00F0800001008E1
:1080000082B01C4B1C49002201920193019B043356
:108010000193019B1A688B6803F00C03042B02D0B8
:10802000082B04D0154A164B1A6002B070474868F6
:108030004B68400203F03F0313D44A680F49B1FB79
:10804000F3F3C2F3881203FB02F20B4B5B68C3F33A
:10805000014301335B00B2FBF3F2094B1A6002B03B
:1080600070474968B2FBF3F2C1F3881303FB02F2D5
:10807000EBE700BF50280040003802400024F40025
:10808000301E0020074BD0F8E4105B68D0F8F020D9
:108090005B1A9A42B8BFC0F8F030012380F81C3157
:1080A00000207047001000E0BD4B00EB800103EBA7
:1080B000C101F0B54A685268B2F814E01EF0010F31
:1080C0004FEA800C72D15FFA8EF4A50741D5BFF359
:1080D0005F8F91F82040012CE5B200F0D780118B22
:1080E000BFF35F8F0CEB000103EBC10191F820405F
:1080F000022C00F0ED800CEB000103EBC10191F8C4
:108100002040032C07D191F8221021B193F87D1063
:10811000002940F0ED80918889B241F4806191801E
:1081200093F97C400CEB000103EBC10191F82010A6
:108130000131A1420CD1002183F87D1093F87E100B
:10814000002940F0BE80604403EBC0000023437769
:10815000F0BD67071FFA8EF593F97CE05ED414F04A
:10816000400400F0CE80148A8D6AE4B205F80E4017
:108170005FFA8EFE91F820600EF1010149B2CD1C2C
:10818000AE4283F87C100C4600F01F810CEB00051A
:1081900003EBC50595F82050A942C3D10EF1020E9C
:1081A0004FFA8EFE83F87CE07446BBE7B2F800E03D
:1081B0002EF4006E4FEA0E4E4FEA1E4EA2F800E07B
:1081C0001488A4B244F48064148091F822400025FD
:1081D00083F87C50002C4AD093F87D40002C43D08B
:1081E000012183F87D100CEB000103EBC10191F834
:1081F0002010022904D1118889B241F40061118054
:108200000CEB000103EBC101897F41F001011182F8
:10821000844403EBCC0393F82030F0BD91F8225056
:10822000012483F87E4093F87D40002D00F0848087
:10823000002C40F085800CEB000103EBC10191F8AC
:108240002110002900F0A38011880EF1010489B2E9
:108250004FFA84FE41F4007183F87CE011801188AC
:10826000CE05FCD474465DE7C97FFF29B8D00CEB7E
:10827000000103EBC1018C7F04F0FE041482CA7F6D
:10828000FF2AC5D0FF2283F87C20C1E791F8221095
:1082900000293FF424AF93F87D1000293FF41FAF6D
:1082A000118821F480610904090C1180BFF35F8FEC
:1082B000118B118883F87E5089B241F400711180CE
:1082C00029E7918821F440710904090C91803AE76B
:1082D00091F8221000293FF40EAF93F87D10002989
:1082E0003FF409AF118821F480610904090C118061
:1082F000918821F480610904090C918093F97C40F4
:1083000010E72D06AED5BEF1FF3F65D04C6A14F8DC
:108310000E50EDB2158291F820100EF1010464B2F6
:10832000A14283F87C407FF4FDAE918821F4806106
:108330000904090C9180F5E6002C3FF47CAF83E73B
:1083400091F820608F6A5FFA8EF4651C022E6DB280
:1083500028D9168826F480663604360C1680168ACC
:10836000F6B207F80E6002344FFA84FE8C6A118868
:1083700083F87CE089B241F400711180118AC9B29E
:108380006155918889B241F48061918067E71188D5
:1083900089B241F480711180012183F87D105EE77C
:1083A000301E00201688B6B246F400761680168A73
:1083B000F6B207F80E6003344FFA84FE8C6A118A15
:1083C00083F87CE0C9B2615549E7958825F480655A
:1083D0002D042D0C9580D9E683F87C40CC7FE4B247
:1083E000148291F8224024B991F8201000297FF4DA
:1083F0000FAF918821F480610904090C918007E78F
:10840000002A4FEA014C30B503460ABFE6468E46C5
:108410008C4600F1C005002419689A6841EA0C01F5
:1084200042EA0E029A60C3E900140C33AB42F3D166
:10843000D0F8C030C0F8C44043EA0E03C0F8C030E2
:10844000C0F8C84030BD00BF83691969B3F80CC0DB
:108450000A6830B49C6822F0010224680A60A2898C
:1084600092B222EA0C02A281027D00681F2A06D97C
:108470004568203A082494402C4245D0FEE7056820
:10848000082494402C42F9D1202404FA02F282609C
:10849000264A1278002A35D01A7E012A39D0D3F81C
:1084A000F4200132C3F8F420EFF31181502282F35B
:1084B000128858685C6C026822EA04029C6C2243B1
:1084C000C9B2026081F31188D3E90C401A69996836
:1084D0001D6C096814605061D3E90E4054609060CF
:1084E0000024B3F8A800D5604C62C862106801246B
:1084F000204310601C7683F8F1408A899B891343DE
:108500009BB28B8130BC7047202404FA02F2C26017
:10851000BEE7002283F8F120D3F8F8000A680130A2
:1085200022F00102C3F8F8000A60EBE70400001033
:1085300010B40C4C6368002B11DD002004F1080C12
:108540000146DCF8A03003F1C00259600C339342BD
:10855000FBD16368013083420CF5807CF1DC5DF86F
:10856000044B704704000010F0B5484C04EB401277
:1085700092F8243403B9F0BD454B4FF08C0C0CFB42
:10858000003C93F8E06493F8E1549CF8827082F820
:108590000A74AE424FF000024FEA401E8CF882206F
:1085A0000ED005EB450203EBC20292F8E4C40CF1D5
:1085B000FF37012F4FEA450259D9BCF1030F51D0C3
:1085C00004EB0E00A0F80814EFF31182902383F35C
:1085D000128890F80A34B0F8081443EA41030021E5
:1085E000D2B29BB280F80A1482F311882178D0F8B5
:1085F00020441A0982EA13225A40C9B1D0F80C1457
:10860000D4F8A040D2431B019BB202F00F0201201C
:108610008840134304F1C0015A0013F4004F93B291
:1086200002D16268024362600C34A142F4D1F0BD11
:10863000D0F80C14D4F8A0401B0110319BB202F00A
:108640000F0201208840134304F1C0015A0013F4C3
:10865000004F93B202D16268024362600C34A142BF
:10866000F4D1F0BD6F1C07F00307B742A8D02A442D
:1086700003EBC203184490F8F1140029A0D004EBD6
:108680000E03012283F80A249AE700BF04000010B9
:10869000301E0020704700BF024B03EB401393F8DD
:1086A00025047047040000104368B0F8502010B44F
:1086B0001A83EFF31182502383F312884168446CCC
:1086C0000B6823EA0403C46C2343D2B20B6082F329
:1086D0001188D0E907418268036912681C605961FA
:1086E000D0E909415C60C46A9960B0F86010DC6050
:1086F0000023D1625DF8044B03767047084B10B538
:10870000D3F8443503440C46187E1FF095FD18B18C
:10871000036882880CB11A8310BD5A83FCE700BF3E
:10872000301E0020037D1F2B30B54FF0200204685F
:1087300016D9A3F120056168AA400A420FD00B4A5E
:10874000002182F8481541680A681F2B22F00102B7
:108750000A604FF0200206D9203B9A40E26030BD0B
:1087600021689A40E9E79A40A260F8E7301E0020AD
:10877000037D1F2B30B54FF02002046816D9A3F1FA
:1087800020056168AA400A420FD00B4A002182F8F6
:10879000491541680A681F2B22F001020A604FF058
:1087A000200206D9203B9A40E26030BD21689A4001
:1087B000E9E79A40A260F8E7301E0020437D13B13C
:1087C000012B04D070474FF48063838170474FF4CE
:1087D0000063FAE74FF40063838170472DE9F843A3
:1087E00020F0F2FD204F214E7C6805464FF0000836
:1087F000002C2DDD00231A4607EB0321013391F8ED
:10880000F9109C4242EA0102F6D142EA08095FFAF5
:1088100089F990467368C3F30803B3B9EFF3118382
:108820009BB920F025FE401BB0F5FA6F02DCB8F1D1
:10883000000FDDD1B9F1000F04D00D4B93F84A259C
:108840004F2A09D04846BDE8F88320F091FDEAE7B9
:10885000C1464FF00008DDE7B3F850250132A3F818
:1088600050254846BDE8F8830400001000ED00E004
:10887000301E0020074BD0F8E4105B68D0F8F020E1
:108880005B1A9342C8BFC0F8F030012380F81C3156
:1088900000207047001000E04FF480538381704740
:1088A000074BD0F8E4105B68D0F8F0205B1A9342D5
:1088B000C8BFC0F8F030012380F81C310020704799
:1088C000001000E0164AD0F8E0305268D0F8D81016
:1088D00010B5044673B1501A83420BDC94F8D030C3
:1088E000C4F8D820012B10D0D4F8D4300133C4F808
:1088F000D43010BDD4F8E430C4F8D8200B44C4F808
:10890000DC3094F8D030012BEED104F1E801201DC9
:108910001EF08EFCD4F8D4300133C4F8D43010BD2E
:10892000001000E02DE9F04F814C94F8542593B0ED
:10893000002A40F0F88002F0FF03FF2283468DF802
:1089400007200DF10702CDE90223CDE90633CDE979
:1089500008330B9302A9012304938DF814308DF88A
:1089600028301EF065FCDBF800305A6A1AB19345D6
:1089700000F0CE80FEE71A6A002AFCD1DFF8B4C10D
:108980004FF0640E10274FF0E0224FF47A714FF051
:108990000108DCF80430C3F30803002B40F0918099
:1089A000EFF31183002B40F08C80D4F85C3595698F
:1089B000D4F85C058342F8D1D4F864058542F4D834
:1089C000D4F860A501FB0AF0401BB0FBFAF001FBF4
:1089D0000300DCF80430C3F30803002B54D1EFF399
:1089E0001183002B50D1D4F85C559669D4F85C35CE
:1089F0009D42F8D1D4F864359E42F4D8D4F860A5ED
:108A000001FB0AF39B1BB3FBFAF301FB05331B1AB3
:108A1000B3F57A7FDDD3BEF1010EBAD10DF10703B4
:108A200008930123049309938DF828308DF83C3086
:108A300080238DF806300DF106030022029302A96F
:108A400000235846CDE90C23CDE906EECDF80CE025
:108A50008DF814E0CDF82CE0CDF838E0CDF840E00A
:108A60001EF0E6FBDBF800305A6A12B1934548D09D
:108A7000FEE71A6A002AFCD19DF80730D12B4FD0AF
:108A8000002013B0BDE8F08FEFF3118387F3128855
:108A900096691569ED0344BFC4F858859669D4F802
:108AA0005C55D4F85895DBB283F31188A944D4F807
:108AB000605501FB05F39B1BB3FBF5F301FB093389
:108AC000A5E7EFF3118087F31288D2F818901369A5
:108AD000DE0344BFC4F85885D2F81890D4F85C354A
:108AE000D4F85855C0B280F311882B44D4F860559F
:108AF00001FB05F0A0EB0900B0FBF5F001FB030062
:108B000067E71A6A002AB7D01A6A002AF9D1B3E7D0
:108B10001A6A002A3FF432AF1A6A002AF8D12DE708
:108B2000012384F854350E2013B0BDE8F08F00BF48
:108B3000301E002000ED00E010B504460E49D0F8CC
:108B4000D83094F8D020D0F8E40049680344012AD2
:108B5000C4E9361305D0D4F8D4300133C4F8D43086
:108B600010BD04F1E801201D1EF062FBD4F8D430E2
:108B70000133C4F8D43010BD001000E0F0B58669B0
:108B800096F8DC30012B8BB0054641D0023B012B1F
:108B900034D8D6F89C30254C92225A70D6F89C30A6
:108BA00003F1010ED6F8A0305F1C0FCCEC46ACE808
:108BB0000F000FCCACE80F0094E80300AB698CE821
:108BC0000300694603F11000CDE900E71EF030FB19
:108BD000AA691369596AA1B11032914200D0FEE727
:108BE0001A6A002AFCD1D6F8A030B3F90220EA8133
:108BF000B3F904202A82B3F906306B8201200BB04E
:108C0000F0BD1A6A002AEED01A6A002AF9D1EAE702
:108C1000D6F8A030B3F90820C281B3F90A20028245
:108C2000B3F90C30438201200BB0F0BD7CCF0708B4
:108C30002DE9F04F836893B0044613B11A689B88FE
:108C40005383AE4B5B68C3F30803002B40F02B81CA
:108C5000EFF31183002B40F02681A94B4FF0E02564
:108C6000D3F85C15A869D3F85C258A42F8D1D3F80B
:108C700064158842F4D8D3F860654FF47A7505FB23
:108C800006F1091AB1FBF6F19C4E05FB02114FF0FB
:108C9000E0204FF47A754FF0100C01277268C2F390
:108CA0000802002A40F0C580EFF31182002A40F04C
:108CB000C080D3F85C85D0F818E0D3F85C259045E7
:108CC000F7D1D3F864259645F3D8D3F8609505FB22
:108CD00009F2A2EB0E02B2FBF9F205FB0822521ACE
:108CE000B2F57A7FDAD3A26812B1116892880A834A
:108CF00082484FF00A0B10254FF0E0214FF47A7CA8
:108D00004268C2F30802002A40F0B580EFF31182F6
:108D1000002A40F0B080D3F85C25D1F81880D3F851
:108D20005C65B242F7D1D3F86465B045F3D8D3F8A7
:108D300060950CFB09FEAEEB080EBEFBF9FE0CFBCA
:108D400002EE4268C2F30802002A54D1EFF3118206
:108D5000002A50D1D3F85C658F69D3F85C25964220
:108D6000F8D1D3F864259742F4D8D3F860A50CFB6A
:108D70000AF2D21BB2FBFAF20CFB0622A2EB0E02A5
:108D8000B2F57A7FDDD3BBF1010BB9D12368ADF821
:108D900004B05A6A2AB1944203D0002013B0BDE84F
:108DA000F08F1B6A002BF8D180200DF103018DF8A4
:108DB0000300029101A80221CDE908010020002151
:108DC0000122CDE90C0102A92046CDE90332CDE90B
:108DD00006338DF814308DF828200B930E938DF800
:108DE0003C2010931EF024FA23685A6A002A7ED091
:108DF000944272D0FEE7EFF3118285F312888F69F7
:108E00000E69F60303D50126C3F858658F69D3F8B8
:108E10005C65D3F85885D2B282F31188B044D3F898
:108E200060650CFB06F2D21BB2FBF6F20CFB0822CB
:108E3000A4E7EFF311828CF31288D0F81880D0F8F1
:108E400010E01EF4803F03D0C3F85875D0F81880A6
:108E5000D3F85C95D3F858E5D2B282F31188CE44AA
:108E6000D3F8609505FB09F2A2EB0802B2FBF9F218
:108E700005FB0E2233E7EFF3118E85F31288D1F84C
:108E800018800A69D70304D50122C3F85825D1F800
:108E90001880D3F85C95D3F858255FFA8EFE8EF3D0
:108EA00011884A4443E7EFF31181102383F31288BA
:108EB0004FF0E0229069136913F4803F104B03D008
:108EC0000120C3F858059069D3F85C55D3F85825AC
:108ED000C9B281F311882A44CDE61A6A002AFCD16E
:108EE0009DF80530242B7FF458AF0F2056E71A6AFF
:108EF000002AF5D01A6A002AF9D1F1E700ED00E066
:108F0000301E002010B504460E49D0F8D83094F831
:108F1000D020D0F8E40049680344012AC4E936139C
:108F200005D0D4F8D4300133C4F8D43010BD04F1E6
:108F3000E801201D1EF07CF9D4F8D4300133C4F8C8
:108F4000D43010BD001000E070B5866996F8DC30B2
:108F5000012B8AB0054629D0023B012B31D8D6F827
:108F60009C301D4C8C221A700FCCEC46ACE80F00E4
:108F7000D6F89C300093D6F8A03001930FCCACE823
:108F80000F0094E80300AB698CE8030003F11000C4
:108F900069461EF04DF9AA691369596AA1B11032E8
:108FA000914200D0FEE71A6A002AFCD1D6F8A03020
:108FB000B3F90220EA81B3F904202A82B3F906301A
:108FC0006B8201200AB070BD1A6A002AEED01A6ABC
:108FD000002AF9D1EAE700BFA4CF0708F0B58369FA
:108FE00093F8DC20012A8BB005462ED0023A012AE4
:108FF00036D893F84C21D3F89C101E4C62F07F03B6
:109000000B708669D6F8A0305F1C0FCCEC46ACE83C
:109010000F00D6F89C30CDE900370FCCACE80F003C
:1090200094E803008CE80300694606F110001EF086
:10903000FFF8AB691A69516AA9B103F110008142C6
:1090400000D0FEE7116A0029FCD1D3F8A0305A887D
:1090500052BAEA819A8852BA2A82DB885BBA6B825A
:1090600001200BB0F0BD116A0029EED0116A002971
:10907000F9D1EAE77CCF07082DE9F04190F8DC3020
:10908000D0F8A060012B8AB0044653D03BD9023BF4
:10909000012B34D890F84D31D0F89C204D4D63F021
:1090A0007F031370D0F8A03000F110085F1C0FCDC3
:1090B000EC46ACE80F00D4F89C30CDE900370FCD7A
:1090C000ACE80F0095E803008CE8030069464046D1
:1090D0001EF0AEF823695A6A12B1904545D0FEE7FA
:1090E0001A6A002AFCD173885BBAA4F8D030B3881E
:1090F0005BBAA4F8D230F3885BBAA4F8D43001206C
:109100000AB0BDE8F081D0F89C304FF0FF321A6011
:109110005A609A60DA60D0F8E0300522B3F57A7FC1
:10912000C0F8F02028D8032380F8DC3001200AB0F2
:10913000BDE8F08190F84C2190F84D319B1A5B10FE
:109140000133DBB206EB430236F813305BBAA0F80A
:10915000D03053885BBAA0F8D23093885BBAA0F8BD
:10916000D43001200AB0BDE8F0811A6A002ABAD0D2
:109170001A6A002AF9D1B6E703691A7B2AB35B6938
:109180001BB390F8983003B390F84C31D0F89C2082
:10919000C4F8A40063F07F03137090F84C1190F8AA
:1091A0004D31D0F8A0200C48C4F804015B1A0733F5
:1091B0000121C4F8FC30D4F89C3084F800110A4432
:1091C000C4E93D3284F8DC1099E7022384F8DC30EE
:1091D00095E700BF7CCF0708858000082DE9F041A6
:1091E00090F8DC30D0F8A060012B8AB004462BD078
:1091F00041D9023B012B33D8D0F89C303B4D8C2217
:109200005A70D0F89C3003F1010ED0F8A03000F174
:1092100010085F1C0FCDEC46ACE80F000FCDACE89A
:109220000F0095E803008CE8030069464046CDE94D
:1092300000E71DF0FDFF23695A6AAAB1904500D0EE
:10924000FEE71A6A002AFCD1B6F90230A4F8D03041
:10925000B6F90430A4F8D230B6F90630A4F8D43008
:1092600001200AB0BDE8F0811A6A002AECD01A6A1F
:10927000002AF9D1E8E7D0F89C3000221A605A6041
:109280009A609A81D0F8E0300522B3F57A7FC0F871
:10929000F02006D8032380F8DC3001200AB0BDE8B6
:1092A000F08103691A7BE2B15B69D3B190F8983021
:1092B000BBB1D0F89C30C4F8A4008C225A70D0E91D
:1092C000272301210A48C4F804010D250A440B4450
:1092D000C4E93D23C4F8FC5084F8001184F8DC1084
:1092E000BEE7022384F8DC30BAE700BF7CCF070872
:1092F00075880008F0B590F81E31032B91B0044634
:109300001BD090F8DC30D0F8A060012B00F0A880D2
:1093100053D8D0F89C3000221A605A609A609A8123
:10932000D0F8E0300522B3F57A7FC0F8F02000F2E3
:10933000BC80032380F8DC309EE00023CDE90533B8
:10934000CDE9073378490A9300F11006774B019174
:109350000122029301A90A2330468DF810208DF8CE
:10936000242003931DF064FF23695A6AF2B19642E8
:1093700000D0FEE71A6A002AFCD16D4AB2F86A35BD
:10938000052B41DDD2F86C15B2F9702508B210F545
:10939000004F00F0B980C4F8D010A4F8D420012503
:1093A000063B002B33D1284611B0F0BD1A6A002AC3
:1093B000E3D01A6A002AF9D1DFE7023B012B5BD820
:1093C000D0F89C305B4D92221A7000F110070FCD3F
:1093D0000DF1040CACE80F000FCDACE80F0095E8E0
:1093E0000300D4F89C308CE80300019301A9D4F861
:1093F000A030029338461DF01BFF23695A6A002AE9
:109400004CD097423AD0FEE70025002BCBD07E23EC
:109410008DF80230B0238DF803300DF10203019373
:109420000023CDE90A33CDE90C3302938DF81030D7
:10943000059307930F930123039308938DF824302A
:109440008DF8383001A90DF10303304606931DF065
:10945000EFFE23695A6A002A4ED0964244D0FEE7B6
:10946000B6F90830A0F8D030B6F90A30A0F8D230FA
:10947000B6F90C30A0F8D430012594E71A6A002A16
:10948000FCD1B6F90230A4F8D030B6F90430A4F813
:10949000D230B6F90630A4F8D430EDE71A6A002AC3
:1094A000EFD01A6A002AF9D1EBE703691A7B002A88
:1094B00035D05B699BB390F8983083B3D0F89C307B
:1094C000C4F8A4008C221A70D4E9271201231A4888
:1094D000C4F804010E25C4E93D12C4F8FC5084F818
:1094E000003184F8DC30C7E71A6A002A3FF45BAF2A
:1094F0001A6A002AF8D156E71A6A002A3FF453AFD5
:109500001A6A002AF8D14EE7081410F5004F7FF4CC
:1095100042AF12F5004F7FF43EAF002540E7022333
:1095200084F8DC30A8E700BF8801002098230020E1
:10953000301E0020A4CF0708A188000870B50F4C8A
:10954000D4F80865002E16DD04F58164002504E0DA
:109550000135B54204F120040DD0237F002BF7D054
:10956000E0680028F4D0217D01351EF0A9FEB54247
:1095700004F12004F1D1012070BD00BF04000010EF
:10958000F8B5037D856902681F2B044648D95068E9
:10959000203B20219940084234D0D16010219940CD
:1095A000D1605168D940CE077CD4EFF311835022AB
:1095B00082F312882A6C1168C90754D4516889B2A1
:1095C00079B9D5E9096086424AD0AF690744D760C6
:1095D00080B26CD9301A80B250600021AE6285F83A
:1095E0006410116841F00101DBB2116083F311884E
:1095F00095F86430002B3DD1237D22681F2B19463E
:1096000014D9203B506808219940084200D0D1600D
:109610005068042101FA03F3184200D0D360F8BD6A
:1096200016682020984006420DD11946106808237C
:109630008B40184200D09360106804238B4018427E
:10964000EDD09360F8BD1021994090609160116851
:10965000D940C807A9D5012101FA03F39360A4E713
:10966000012285F86420DBB283F3118895F8643019
:10967000002BC1D095F87C30002BBDD195F871003E
:109680001EF0DAFD2A6E938923F008031B040121E2
:109690001B0C938185F87C100028ADD020211EF092
:1096A0000FFEA9E7012101FA03F3D3607DE70E461F
:1096B0002969091A89B251608FE700BF2DE9F04F7F
:1096C000B34C94F8722595B0054622B902F0FF0319
:1096D00094F8542542BB95F82131002B40F0A38229
:1096E0002268AC4BB3EB920F80F0BB87B3EBD20F89
:1096F00080F0B487B3EB121F80F0CB87B3EB521F1F
:1097000080F0C487B3EB921F80F0BA87B3EBD21F0F
:1097100080F0B987B3EB122F2CBF80234FF48073F6
:10972000AB8215B0BDE8F08F7E2200F110060DF17E
:10973000120ACDE905A3CDE90E33CDE910338DF83A
:1097400012208DF82030152209930B9313930DF1FD
:10975000130B012305A930468DF8132007930C93B2
:109760008DF834308DF84830CDF828B01DF060FD0C
:109770002B695A6A002A00F08180964200D0FEE7E9
:109780001A6A002AFCD1DFF810C2039664214FF058
:10979000100E4FF0E0224FF47A704FF00108DCF821
:1097A0000430C3F30803002B40F01F82EFF3118352
:1097B000002B40F01A82D4F85C359669D4F85C75B9
:1097C000BB42F8D1D4F86475BE42F4D8D4F86095A1
:1097D000029100FB09F7BE1BB6FBF9F600FB03661E
:1097E000DCF80430C3F30803002B40F0C181EFF331
:1097F0001183002B40F0BC81D4F85C759169D4F8DA
:109800005C359F42F8D1D4F864359942F4D8B94612
:10981000D4F8607500FB07F35B1AB3FBF7F300FBAA
:1098200009339B1BB3F57A7FDAD302990139B6D19C
:109830000123039E07930C938DF834308DF8483044
:109840007E23CDE905A1CDE9091BCDE90E11CDE9B6
:1098500010118DF820100B9113918DF8123005A97D
:10986000112330468DF813301DF0E2FC2B695A6A43
:10987000002A00F08680964207D0FEE71A6A002A86
:1098800081D01A6A002AF9D17DE71A6A002AFCD130
:10989000DFF804E10396052110274FF0E0224FF492
:1098A0007A704FF00108DEF80430C3F30803002B90
:1098B00040F07B81EFF31183002B40F07681D4F8E8
:1098C0005C35D2F818C0D4F85C65B342F7D1D4F84F
:1098D0006465B445F3D8D4F860950291664600FB00
:1098E00009FCACEB0606B6FBF9F600FB0366DEF8F6
:1098F0000430C3F30803002B40F01A81EFF3118307
:10990000002B40F01581D4F85C959169D4F85C3552
:109910009945F8D1D4F864359942F4D8D4F860C5A3
:1099200000FB0CF35B1AB3FBFCF300FB09339B1B3E
:10993000B3F57A7FDBD302990139B4D1039E8DF858
:1099400020100123CDE905A1CDE90911CDE90E11C2
:10995000CDE91011139107930C938DF834308DF8E5
:10996000483005A9832330468DF81230CDF82CB04D
:109970001DF05EFC2B695A6A002A41D096420DD038
:10998000FEE71A6A002A83D01A6A002AF9D17FE713
:10999000301E00208096980000ED00E01A6A002A30
:1099A000FCD19DF8133003F03C03142B7FF493AEED
:1099B0000023CDE90E33CDE9103306938DF8203026
:1099C00009930B931393012307930C938DF8343071
:1099D0008DF8483040238DF8123005A91B233046FE
:1099E0008DF81330CDF814A0CDF828B01DF020FC70
:1099F0002B695A6A002A00F09380964207D0FEE74E
:109A00001A6A002ACDD01A6A002AF9D1C9E71A6A5F
:109A1000002AFCD19F4B5B68C3F30803002B40F086
:109A2000A284EFF31183002B40F09D844FF0E020DF
:109A3000D4F85C358169D4F85C259342F8D1D4F828
:109A400064259142F4D8D4F86005DFF848E2029624
:109A50004FF47A7202FB00F77F1A4FF47A7CB7FB5F
:109A6000F0F74FF0E02102FB03774FF010094FF0C1
:109A70000108DEF80430C3F30803002B40F03C85F6
:109A8000EFF31183002B40F03785D4F85C358A69F9
:109A9000D4F85C058342F8D1D4F864058242F4D846
:109AA000D4F860650CFB06F0821AB2FBF6F20CFBF0
:109AB0000323DB1BB3F57A7FDBD394F87535029E65
:109AC000012B00F05085023B012B8CBF0D232D2371
:109AD0008DF813300023CDE90E33CDE91033069312
:109AE0008DF8203009930B931393012307930C9364
:109AF0008DF834308DF8483005A9422330468DF872
:109B00001230CDF814A0CDF828B01DF091FB2B69D0
:109B10005A6A002A00F04781964200F0C580FEE7AD
:109B20001A6A002A3FF476AF1A6A002AF8D171E760
:109B3000EFF3118387F31288D2F818C01169C903B3
:109B400044BFC4F85885D2F818C0D4F85C15D4F8CE
:109B50005895DBB283F311884944D4F8609500FB33
:109B600009F3A3EB0C03B3FBF9F300FB0133DEE6CF
:109B7000EFF311838EF3128897691169C90344BF0B
:109B8000C4F858859769D4F85C15D4F85895DBB2B9
:109B900083F311884944D4F8609500FB09F3DB1B7B
:109BA000B3FBF9F300FB01333BE6EFF3118C87F3D2
:109BB000128896691369DB0344BFC4F85885966917
:109BC000D4F85C35D4F858955FFA8CFC8CF3118886
:109BD00009EB030CD4F86095029100FB09F39E1B7E
:109BE000B6FBF9F600FB0C6681E6EFF311838EF30A
:109BF000128896691769FF0344BFC4F858859669AF
:109C0000D4F85C75D4F85895DBB283F311884F44CF
:109C1000D4F86095029100FB09F39E1BB6FBF9F6A0
:109C200000FB0766DCE51E09013E052E03F00F036D
:109C300000F21A85184F07EB4602B2F8500040FABE
:109C400003F2D20740F11085012202FA03F3013B2F
:109C50001840374472F0EAFF97F85C300F4E104A14
:109C6000034406EBC30629462623F380002341F86C
:109C70000C2F30460093F0221EF00EFD0949B288E9
:109C80000868B2FA82F24FF00043D34003430B60FE
:109C900026E500BF00ED00E07CCF0708C8230020C8
:109CA000398B0008003C01401A6A002AFCD1C14BE4
:109CB0005B68C3F30803002B40F03C84EFF311838F
:109CC000002B40F037844FF0E020D4F85C358169F8
:109CD000D4F85C259342F8D1D4F864259142F4D8A5
:109CE000D4F86005DFF8CCE202964FF47A7202FBFA
:109CF00000F77F1A4FF47A7CB7FBF0F74FF0E021C2
:109D000002FB03774FF010094FF00108DEF8043032
:109D1000C3F30803002B40F0D283EFF31183002B31
:109D200040F0CD83D4F85C358A69D4F85C05834271
:109D3000F8D1D4F864058242F4D8D4F860650CFBFD
:109D400006F0821AB2FBF6F20CFB0323DB1BB3F521
:109D50007A7FDBD30023CDE90E33CDE91033029EA9
:109D600006938DF8203009930B93139301230793E7
:109D70000C938DF834308DF8483041238DF8123033
:109D800005A9082330468DF81330CDF814A0CDF87E
:109D900028B01DF04DFA2B695A6A002A00F088801D
:109DA000964207D0FEE71A6A002A80D01A6A002A73
:109DB000F9D17CE71A6A002AFCD17E4B5B68C3F3B9
:109DC0000803002B40F0EA83EFF31183002B40F0EF
:109DD000E5834FF0E020D4F85C358169D4F85C2548
:109DE0009342F8D1D4F864259142F4D8D4F86005B0
:109DF000DFF8C0E102964FF47A7202FB00F77F1A97
:109E00004FF47A7CB7FBF0F74FF0E02102FB0377C9
:109E10004FF010094FF00108DEF80430C3F30803D7
:109E2000002B40F02F83EFF31183002B40F02A83A7
:109E3000D4F85C358A69D4F85C058342F8D1D4F84B
:109E400064058242F4D8D4F860650CFB06F0821AEF
:109E5000B2FBF6F20CFB0323DB1BB3F57A7FDBD3FB
:109E60000023029E8DF81330CDE90E33CDE9103377
:109E700006938DF8203009930B93139301230793D6
:109E80000C938DF834308DF8483005A943233046C3
:109E90008DF81230CDF814A0CDF828B01DF0C8F917
:109EA0002B695A6A002A00F08780964207D0FEE7A5
:109EB0001A6A002A81D01A6A002AF9D17DE71A6A43
:109EC000002AFCD13B4B5B68C3F30803002B40F036
:109ED0004D83EFF31183002B40F048834FF0E020D7
:109EE000D4F85C358169D4F85C259342F8D1D4F874
:109EF00064259142F4D8D4F86005DFF8B8E0029602
:109F00004FF47A7202FB00F77F1A4FF47A7CB7FBAA
:109F1000F0F74FF0E02102FB03774FF010094FF00C
:109F20000108DEF80430C3F30803002B40F08D82F3
:109F3000EFF31183002B40F08882D4F85C358A69F6
:109F4000D4F85C058342F8D1D4F864058242F4D891
:109F5000D4F860650CFB06F0821AB2FBF6F20CFB3B
:109F60000323DB1BB3F57A7FDBD30023029E06932A
:109F7000CDE90933CDE90E33CDE910338DF820302A
:109F80001393012307930C938DF834308DF84830E8
:109F900005A9F72330468DF81230CDF814A0CDF87E
:109FA0002CB01DF045F92B695A6A002A38D0964228
:109FB00009D0FEE700ED00E01A6A002A82D01A6A92
:109FC000002AF9D17EE71A6A002AFCD19DF81330E5
:109FD000CDF814A063F03F038DF813300023CDE9D2
:109FE0000E33CDE9103306938DF8203009930B938F
:109FF0001393012307930C938DF834308DF8483078
:10A0000005A9772330468DF81230CDF828B01DF021
:10A010000FF92B695A6A002A34D0964207D0FEE71E
:10A020001A6A002AD2D01A6A002AF9D1CEE71A6A2F
:10A03000002AFCD10023CDE90E33CDE9103306937D
:10A040008DF8203009930B931393012307930C93FE
:10A050008DF834308DF8483051238DF8123005A931
:10A06000102330468DF81330CDF814A0CDF828B069
:10A070001DF0DEF82B695A6A002A00F089809642AA
:10A0800007D0FEE71A6A002AD4D01A6A002AF9D14A
:10A09000D0E71A6A002AFCD1BF4B5B68C3F3080300
:10A0A000002B40F0AB82EFF31183002B40F0A6822F
:10A0B0004FF0E020D4F85C358169D4F85C259342F8
:10A0C000F8D1D4F864259142F4D8D4F86005DFF8CB
:10A0D000C8E202964FF47A7202FB00F77F1A4FF43F
:10A0E0007A7CB7FBF0F74FF0E02102FB03774FF0EB
:10A0F00010094FF00108DEF80430C3F30803002B09
:10A1000040F06981EFF31183002B40F06481D4F8B3
:10A110005C058A69D4F85C358342F8D1D4F86405CB
:10A120009042F4D3D4F860650CFB06F0821AB2FBBF
:10A13000F6F20CFB0323DB1BB3F57A7FDBD30023A2
:10A14000CDE90E33CDE91033029E06938DF8203011
:10A1500009930B931393012307930C938DF83430D9
:10A160008DF8483053238DF8123005A90A23304664
:10A170008DF81330CDF814A0CDF828B01DF058F8A4
:10A180002B695A6A002A00F08880964207D0FEE7C1
:10A190001A6A002A80D01A6A002AF9D17CE71A6A62
:10A1A000002AFCD17C4B5B68C3F30803002B40F012
:10A1B0000D82EFF31183002B40F008824FF0E02076
:10A1C000D4F85C358169D4F85C259342F8D1D4F891
:10A1D00064259142F4D8D4F86005DFF8BCE102961A
:10A1E0004FF47A7202FB00F77F1A4FF47A7CB7FBC8
:10A1F000F0F74FF0E02102FB03774FF010094FF02A
:10A200000108DEF80430C3F30803002B40F0C680D9
:10A21000EFF31183002B40F0C180D4F85C058A690C
:10A22000D4F85C358342F8D1D4F864058242F4D87E
:10A23000D4F860650CFB06F0821AB2FBF6F20CFB58
:10A240000323DB1BB3F57A7FDBD30023CDE90E3389
:10A25000CDE91033029E06938DF8203009930B93BD
:10A260001393012307930C938DF834308DF8483005
:10A2700056238DF8123005A9802330468DF813300F
:10A28000CDF814A0CDF828B01CF0D2FF2B695A6A83
:10A29000002A61D0964207D0FEE71A6A002A81D0D0
:10A2A0001A6A002AF9D17DE71A6A002AFCD13A4BD2
:10A2B0005B68C3F30803002B40F0B881EFF3118310
:10A2C000002B40F0B3814FF0E020D4F85C35816979
:10A2D000D4F85C259342F8D1D4F864258A42F4D3AB
:10A2E000D4F86005DFF8B0C04FF47A7202FB00F6D4
:10A2F000761A4FF47A77B6FBF0F64FF0100802FBAF
:10A3000003664FF0E0204FF0010EDCF80430C3F399
:10A310000803002B7CD1EFF31183002B78D1D4F804
:10A320005C358169D4F85C259342F8D1D4F8642572
:10A330008A42F4D3D4F8609507FB09F2521AB2FBB3
:10A34000F9F207FB03239B1BB3F57A7FDDD30123CF
:10A3500084F87235FFF7BFB91A6A002AA7D01A6AC3
:10A36000002AF9D1A3E7EFF31182102383F31288B7
:10A370004FF0E02399691869C00303D50121C4F89F
:10A3800058159969D4F85C05D4F85835D2B282F3DF
:10A3900011880344FFF757BB00ED00E0EFF3118392
:10A3A00089F3128888690A69D60302D5C4F85885EA
:10A3B0008869D4F85C65D4F85825DBB283F311883A
:10A3C0003244D4F860650CFB06F31B1AB3FBF6F3BA
:10A3D0000CFB023335E7EFF3118389F312888869A8
:10A3E0000A69D20302D5C4F858858869D4F85C6537
:10A3F000D4F85825DBB283F311883244D4F8606571
:10A400000CFB06F31B1AB3FBF6F30CFB023392E6CC
:10A41000EFF3118388F3128881690269D20302D5B0
:10A42000C4F858E58169D4F85C95D4F85825DBB2B6
:10A4300083F311884A44D4F8609507FB09F35B1A4B
:10A44000B3FBF9F307FB02337DE7EFF3118389F3E5
:10A45000128888690A69D60302D5C4F858858869C4
:10A46000D4F85C65D4F85825DBB283F31188324404
:10A47000D4F860650CFB06F31B1AB3FBF6F30CFB78
:10A4800002336EE5EFF3118389F3128888690A6954
:10A49000D20302D5C4F858858869D4F85C65D4F82D
:10A4A0005825DBB283F311883244D4F860650CFB85
:10A4B00006F31B1AB3FBF6F30CFB0233CCE4EFF309
:10A4C000118389F3128888690A69D60302D5C4F812
:10A4D00058858869D4F85C65D4F85825DBB283F3D5
:10A4E00011883244D4F860650CFB06F31B1AB3FBE9
:10A4F000F6F30CFB023329E4EFF3118389F312889E
:10A5000088690A69D20302D5C4F858858869D4F8E5
:10A510005C65D4F85825DBB283F311883244D4F853
:10A5200060650CFB06F31B1AB3FBF6F30CFB02335E
:10A53000FFF7BFBAEFF31182102383F312884FF0B5
:10A54000E02399691869C70303D50121C4F8581598
:10A550009969D4F85C05D4F85835D2B282F31188E1
:10A560000344FFF7BDBB1D23FFF7B2BAEFF311821F
:10A57000102383F312884FF0E02399691869C70309
:10A5800003D50121C4F858159969D4F85C05D4F8AD
:10A590005835D2B282F311880344ACE4EFF3118250
:10A5A000102383F312884FF0E02399691869C003E0
:10A5B00003D50121C4F858159969D4F85C05D4F87D
:10A5C0005835D2B282F3118803440FE4EFF31182BD
:10A5D000102383F312884FF0E02399691869C703A9
:10A5E00003D50121C4F858159969D4F85C05D4F84D
:10A5F0005835D2B282F311880344ECE5EFF31182AF
:10A60000102383F312884FF0E02399691869C0037F
:10A6100003D50121C4F858159969D4F85C05D4F81C
:10A620005835D2B282F3118803444EE5EFF311821C
:10A63000102383F312884FF0E02399691869C0034F
:10A6400003D50121C4F858159969D4F85C05D4F8EC
:10A650005835D2B282F31188034441E60423FFF750
:10A660005FB80223FFF75CB829460B4B41F80C3F5B
:10A67000002300931846F0221EF00EF8FFF730B8C2
:10A680002023FFF74DB84023FFF74AB81023FFF708
:10A6900047B80823FFF744B8398B0008A94B1B784B
:10A6A0000BB9012070472DE9F04FDFF8ACB2A64995
:10A6B000DBF85C35A54AA1FB03135B09A2FB03127F
:10A6C000D208A04987B002EB8202A3EB4203D1F883
:10A6D0000825049201F20C54DAB2059204EB8307C8
:10A6E000002201F2EC73019301F5816A9046049B0C
:10A6F000984580F20481DAF81820DAF80490D2F84C
:10A70000E830D2F8EC6002931EF05EFE029B0390EC
:10A710004FEA890C9BF84A959BF898080CF1085C65
:10A7200006F180610CEB431C3939B9F14F0F0CEB8A
:10A7300081110CEB801301D1ABF85205994240F224
:10A7400075811A68002A00F069811A6C002A00F0ED
:10A750007B81D3F88020002A00F07881D3F8C020D4
:10A7600003F58073002AE9D1A3EB0C0C99424FEA60
:10A77000AC1240F25B81B61A452E28BF452603EB8A
:10A78000861100263046B6461D4616460DE01A6C68
:10A79000002A40F0E380D3F88020002A40F00E81A8
:10A7A000D3F8C02003F580732AB9994206D91A68F4
:10A7B000002AECD04033994200F2D48032467646EB
:10A7C000112E40F23781DEF1150100F13381604B2B
:10A7D0001D46DB689A4238BF2B46039D38BFDA60BE
:10A7E000DBF89C38EA1A002A16DB03F5F42303F59C
:10A7F00090739D4284BF2B460533CBF89C38544B55
:10A80000534ADB68052B86BF053BDBB200238BF880
:10A8100098384FF0FF33D36031B100FA01F1C6F13F
:10A8200014060120B04008434A4EC0F3C43306EB7F
:10A830008303596E00F01F0306EB83035A6E42EA4E
:10A840000132C0F3441106EB8101C0F3842306EB0F
:10A850008303496E5B6E42EA011141EA032181EAFA
:10A86000112383EA131303F00F02364BD3F8F437A6
:10A870000F2A03F1010340F0BE80B1F5803F80F064
:10A88000BA80B9F14F0F4FEA111140D02D4AB1F5FE
:10A89000606FC2F8F43745D0019B998194F8583025
:10A8A000059883420CD0BA6823689B1A23603A6BE0
:10A8B00063689B1A63600023BB603B6384F85800A5
:10A8C000236801332360BB680133BB604FF6FF731D
:10A8D000994205D16368013363603B6B01333B638D
:10A8E000019B08F101081433B8F1080F04F15C046E
:10A8F00007F15C0701930AF1200A7FF4F8AE114AD0
:10A900000123012082F8F23807B0BDE8F08FBBF8D0
:10A910004C250132ABF84C250A4AB1F5606FC2F8FC
:10A92000F437B9D19BF8E13403EB43030BEBC303DA
:10A93000434493F8F1340D2BAED1019A80239377E1
:10A94000ACE700BF040000101F85EB51CDCCCCCC90
:10A95000880100207CCF0708301E002080339942F8
:10A960007FF62CAFA3EB050C3C4A4FEAAC1C0CF174
:10A97000010C82FB0C52A2EBEC72012AB8BF01223F
:10A9800090404FF0010C9644013A0CFA02F2104349
:10A990009C46DCF800209AB1DCF84020002A57D011
:10A9A000DCF88020002A56D0DCF8C0200CF5807C32
:10A9B00042B16145EDD81D466346F6E6C033FAE67E
:10A9C0000CF1400C6145F6D9ACEB03029211234B1C
:10A9D000013283FB0253A3EBE273012BB8BF0123C7
:10A9E00098409E440122013B02FA03F31843634658
:10A9F0001D466346D9E6B9F14F0F04D1BBF84C258B
:10AA00000132ABF84C25164AC2F8F437D2F8F037C9
:10AA10000133C2F8F0374FF6FF713FE74033A3EB45
:10AA20000C0C99424FEAAC123FF6A5AE10B10138BA
:10AA30008BF89808B9F14F0F7FF452AFBBF84E3541
:10AA40000133ABF84E354BE780338DE6C0338BE6F0
:10AA50000CF1800CB6E70CF1C00CB3E75655555518
:10AA60000400001010B5044671F0A4FB81B220462A
:10AA7000BDE81040FDF778BDF8B51D4B93F8E02414
:10AA800093F8E1349A422ED11A4F7D68002D11DDE2
:10AA90003846002410F8086B16B1037E012B1CD039
:10AAA00002691368013443F00103AC4200F5807081
:10AAB0001360F1D11EF088FCD7F8F448002C0BDDB0
:10AAC0000D4A02EBC4041168938888890832034355
:10AAD0009BB294428B81F6D1F8BD002380F8F03010
:10AAE000FDF7E2FDDCE76FF04FF90028CCD1F8BDAF
:10AAF000301E002004000010FC08001038B5764C11
:10AB000094F8E02494F8E1349A4240F08B81734B3E
:10AB100093F81829002A00F0DE8093F81C39002BE6
:10AB200040F0DE80D4F8A018088820F080000004EF
:10AB3000000C0880B4F8A408C862088880B240F00D
:10AB4000800008804B628D89B4F8B408284380B235
:10AB5000012A8881A4F8B43800F0BD80D4F8B81870
:10AB6000088820F080000004000C0880B4F8BC08BD
:10AB7000C862088880B240F0800008804B628D89EE
:10AB8000B4F8CC08284380B2022A8881A4F8CC38D3
:10AB900000F0A180D4F8D018088820F080000004CC
:10ABA000000C0880B4F8D408C862088880B240F06D
:10ABB000800008804B628D89B4F8E408284380B295
:10ABC000032A8881A4F8E43800F08580D4F8E818D6
:10ABD000088820F080000004000C0880B4F8EC081D
:10ABE000C862088880B240F0800008804B628D897E
:10ABF000B4F8FC08284380B2042A8881A4F8FC3801
:10AC000069D0D4F80019088820F080000004000CF6
:10AC10000880B4F80409C862088880B240F0800057
:10AC200008804B628D89B4F81409284380B2052A44
:10AC30008881A4F814394ED0D4F81819088820F067
:10AC400080000004000C0880B4F81C09C862088861
:10AC500080B240F0800008804B628D89B4F82C09E6
:10AC6000284380B2062A8881A4F82C3933D0D4F83E
:10AC70003019088820F080000004000C0880B4F827
:10AC80003409C862088880B240F0800008804B62B6
:10AC90008D89B4F84409284380B2072A8881A4F832
:10ACA000443918D0D4F84829B4F84C09118821F057
:10ACB00080010904090C1180D0621088B4F85C1975
:10ACC00080B240F08000108053629089014389B2C5
:10ACD0009181A4F85C3938BD301E002004000010BA
:10ACE000D4F8A838B4F8AC1859601968D4F8A0089A
:10ACF00041F00101196040F20D33A0F8483081891C
:10AD000089B241F48071012A8181E4D0D4F8C0185D
:10AD1000B4F8C458D4F8B8084D600D6845F0010582
:10AD20000D60A0F84830818989B241F48071022A0F
:10AD30008181D0D0D4F8D818B4F8DC58D4F8D00831
:10AD40004D600D6845F001050D60A0F8483081891F
:10AD500089B241F48071032A8181BCD0D4F8F01803
:10AD6000B4F8F458D4F8E8084D600D6845F00105D2
:10AD70000D60A0F84830818989B241F48071042ABD
:10AD80008181A8D0D4F80819B4F80C59D4F8000976
:10AD90004D600D6845F001050D60A0F848308189CF
:10ADA00089B241F48071052A818194D0D4F82019A8
:10ADB000B4F82459D4F818094D600D6845F0010520
:10ADC0000D60A0F84830818989B241F48071062A6B
:10ADD000818180D0D4F83819B4F83C59D4F83009BE
:10ADE0004D600D6845F001050D60A0F8483081897F
:10ADF00089B241F48071072A81813FF46CAFD4F8A5
:10AE00005019B4F85409D4F848294860086840F04B
:10AE100001000860A2F8483093899BB243F4807324
:10AE2000938138BD6EF0B0FF00287FF470AE38BD5E
:10AE300070B590F871301C09013C052C0FD81A4EE2
:10AE400006EB44020546B2F8500003F00F0340FA47
:10AE500003F2D20703D595F87C20012A01D0012006
:10AE600070BD9A40013A1040264471F0DFFE96F81A
:10AE70005C300E4A034402EBC30452F83320A3882B
:10AE800010691840ECD0EB6E002285F87C2093F816
:10AE90002120022120461CF06FFF2A6E93899BB26D
:10AEA00043F008039381DAE77CCF0708C82300202A
:10AEB0002DE9F047037D02681F2B044608D950682E
:10AEC000A3F120052021A940014206D1BDE8F08769
:10AED0001068202199400142F8D05D49A569DFF84A
:10AEE000809148685B4E8C2101FB0591C6F82009D2
:10AEF00096F81C79D1F88800D0F80080D7B9D1F83D
:10AF00000001B1F88C70016821F001010160B8F80E
:10AF10000C1089B221EA0701A8F80C103178C9B9E0
:10AF20001F2B40F28980A3F1200120238B40D360A6
:10AF3000BDE8F0874069016821F001010160B8F8BF
:10AF40000C1021F480710904090CA8F80C10317858
:10AF50000029E5D04FF08C0A0AFB059ADAF8007157
:10AF6000384663F085F901238AF8D430D6F82839B9
:10AF7000002B67D0B8F8003037499BB243F080030C
:10AF8000A8F800308C2303FB05F54FF0FF3329446C
:10AF9000C8F82C30404663F0CFFB09EB05030022D4
:10AFA000D3F8AC00C3F8A420D3F898203968024342
:10AFB000D3F8B0000243D3F8B4000243D3F8B8008A
:10AFC0000243D3F8BC000243D3F8C0000243D3F8D5
:10AFD000CC000243D3F8D00002432048084002438B
:10AFE0003A60D3E931207969024321F007010A432D
:10AFF0007A61D3F8A8207A60D3F89C20BA60D3F89D
:10B00000A020FA60D3F8002116215160116841F0A8
:10B0100001011160D3F88820B3F88C30126891894F
:10B020000B439BB20A4993814B68C6F82439237DB0
:10B0300022681F2B3FF677AF202101FA03F39360BC
:10B04000BDE8F0871EF0C0F9C6F8280992E700BFF6
:10B05000001000E004000010241F00203F801CF0BE
:10B06000301E00202DE9F04F314D2B7887B01BB9F1
:10B07000012007B0BDE8F08F2E4ED6F85C451EF0DB
:10B08000A3F995F860390193002B00F0AD822A4BAB
:10B09000A3FB0423294A5B09A2FB0312D20802EB9B
:10B0A0008202A3EB4203D5F8282905F20C5B821A31
:10B0B0000BEB83080292DAB205F2EC73D9460492E4
:10B0C00006F1E00400934FF0000AC346029A002AFA
:10B0D00004DB54F8083C934200F37282154B54F899
:10B0E000587C256A3E688C2202FB0A3393F8D430E0
:10B0F000002B40F09A81284663F0BAF80D4B8C2162
:10B1000001FB0A33002283F8D42079790C2917D85F
:10B11000DFE811F063011600160016004F0116005B
:10B120001600160077011600160016003B0100BF3E
:10B1300004000010301E00201F85EB51CDCCCCCC7C
:10B14000304622461FF0CEFD009B54F8342C54F8B4
:10B15000101C1433009354F8483C43F0400313434D
:10B1600054F8302C134354F82C2C134354F8282C47
:10B17000134354F8242C134354F8202C1343402237
:10B1800044F83C2C54F8142C13432A6822F07E62B5
:10B1900022F45F3222F470720B4313432B6054E9A4
:10B1A00007316A690B4322F0070213436B6154F8BD
:10B1B000383C6B6054F8443CAB6054F8403CEB6066
:10B1C0002B6843F010032B60019B0AF1010A9A459A
:10B1D00009F15C090BF15C0B04F18C047FF476AF90
:10B1E000A249A34C0123002281F8F238C1F8282992
:10B1F000D4F888100A68487994F89010890748BFF5
:10B200000423118C83409BB289B221EA030111848B
:10B21000118C89B20B431384019B012B3FF428AF9F
:10B220009348D0F814211368517990F81C2197079E
:10B2300054BF012204228A40198C92B289B221EAB9
:10B2400002011984198C89B20A431A84019B022BCA
:10B250003FF40EAF8648D0F8A0211368517990F8DA
:10B26000A821960754BF012204228A40198C92B269
:10B2700089B221EA02011984198C89B20A431A841D
:10B28000019B032B3FF4F4AE7948D0F82C221368CD
:10B29000517990F83422950754BF012204228A4044
:10B2A000198C92B289B221EA02011984198C89B2EF
:10B2B0000A431A84019B042B3FF4DAAE6C48D0F8A1
:10B2C000B8221368517990F8C022940754BF012224
:10B2D00004228A40198C92B289B221EA02011984AF
:10B2E000198C89B20A431A84019B052B3FF4C0AE26
:10B2F0005F48D0F844231368517990F84C239007A5
:10B3000054BF012204228A40198C92B289B221EAE8
:10B3100002011984198C89B20A431A84019B062BF5
:10B320003FF4A6AE5248D0F8D0231368517990F874
:10B33000D823920754BF012204228A40198C92B26A
:10B3400089B221EA02011984198C89B20A431A844C
:10B35000019B082B7FF48CAE454BD3F85C2493F80B
:10B3600064141368507911F0020F18BF0422198C6D
:10B3700008BF0122824092B289B221EA02011984F7
:10B38000198C89B20A431A8472E6B38B23F40063E2
:10B390001B041B0CB38322460C2130461FF0A2FC79
:10B3A000B38B23F400631B041B0C43F40063B383CF
:10B3B000CAE6338B23F400631B041B0C3383224641
:10B3C000042130461FF08EFC338B23F400631B04F2
:10B3D0001B0C43F400633383B6E6338B23F008037E
:10B3E0001B041B0C33832246002130461FF07AFCDD
:10B3F000338B23F008031B041B0C43F00803338337
:10B40000A2E6B38B23F008031B041B0CB383224674
:10B41000082130461FF066FCB38B23F008031B04A1
:10B420001B0C43F00803B3838EE66B6834F8542C8E
:10B430001FFA83FCB389CCF1160C9BB223EA0203FA
:10B44000BCF1070FB3817FF656AE084ACDF80CA0C9
:10B45000D2F8F4370133C2F8F437A36A0593002217
:10B4600018680121984696461CE000BF04000010B1
:10B47000301E0020BEF1140F20DC13F1080A48BF73
:10B4800003F1170A4FEA2A130EEB2A1E03F1FF3AC3
:10B4900002FA03F30122114402FA0AFA8C454AEA3D
:10B4A00003020BD3034658F8040F8C45A0EB0303AB
:10B4B000E0D8CEF115034FF0150EE7E7BEF1150FFA
:10B4C000DDF80CA066D14D48C2F38421034600EBA1
:10B4D0008101C2F3441003EB8000D1F8E410D0F8EE
:10B4E000E400090241EA001102F01F0003EB8000B2
:10B4F000C2F3C43203EB8202D0F8E400D2F8E420B5
:10B50000014341EA023282EA122181EA111101F07B
:10B510000F010F293ED1C2F30F124FF6FF718A427D
:10B5200038D0B2F5606F4FD0009B9A8199F85830AF
:10B530000498834214D0DBF80810D9F800305B1A65
:10B54000C9F80030DBF83010D9F804305B1AC9F8BC
:10B5500004300023CBF80830CBF8303089F858009D
:10B56000D9F800300133C9F80030DBF80830013376
:10B57000CBF808304FF6FF739A427FF4BCADD9F890
:10B5800004300133C9F80430DBF830300133CBF834
:10B590003030B0E51A4BD3F8F0270132C3F8F0276A
:10B5A000BAF1000F02D04FF6FF72BFE7582205999B
:10B5B00003F6980071F0B0FA3E684FF6FF72B5E7F7
:10B5C000002007B0BDE8F08F0E4991F8E13403EB9D
:10B5D000430301EBC303534493F8F1340D2BA3D180
:10B5E000009980238B77A1E7054A012382F8F2387E
:10B5F0001346019AC3F828293AE500BF7CCF070813
:10B6000004000010301E0020BFF34F8F0549064B89
:10B61000CA6802F4E0621343CB60BFF34F8F00BFF0
:10B62000FDE700BF00ED00E00400FA051648174AE8
:10B63000174938B5174C184D121A71F06DFAD4F835
:10B640008820164B164842F47002C4F888201A6805
:10B65000002142F001021A6099601A6822F0847297
:10B6600022F480321A6058601A6822F480221A602C
:10B670000C4AD960521B28460B4971F04DFAA5605F
:10B68000BDE83840FCF7BCBC00000010040000100E
:10B69000AF26090800ED00E000000020003802405D
:10B6A0001030002488010020000000082DE9F84F28
:10B6B00090F8213144F23B32A0F84C210BB9BDE89F
:10B6C000F88F1D09013D052D044603F00F0377D8BF
:10B6D000434F07EB4502B2F8500040FA03F2D2079D
:10B6E0006ED5012202FA03F3013B3D44184071F08C
:10B6F0009DFADFF8009195F85CA03A4D824409F577
:10B70000B36B0BEBCA0026238288C380B2FA82F2A5
:10B71000C2F11F06BB19296893F86481324B44F8C3
:10B720000C3F4FF00047D74009EB860221EA0701A2
:10B73000C2F86049296000216F611CF0C1FD5BF80F
:10B740003A3006F0FC0101F1804101F59C3103F132
:10B750003F4303F57E0306F003068868B600C3F393
:10B7600087234FF00F0CB3400CFA06F620EA0600D0
:10B770008860886803438B602B68FC4323402B6000
:10B780006B6823406B60194BD3F8001C3943C3F836
:10B79000001CA9682140A960E9680C40EC60D3F85E
:10B7A000081C09EB08023943C3F8081C92F8A039B9
:10B7B000F02B09D80B4A13683B431360BDE8F88FA0
:10B7C000094BE360BDE8F88F0949F02311F8080040
:10B7D00082F8A039032100226AF074F9EAE700BF79
:10B7E0007CCF0708003C0140C588000800300140BC
:10B7F00054670808301E002090F8DB30052B03D872
:10B8000090F81E31032B01D00020704790F82331AF
:10B8100003F0FB03022B14BF07200020704738B54C
:10B8200000F110040546FFF741FF80226B212046FE
:10B830001BF06AFD64201EF065F803226B21204690
:10B840001BF062FD95F82021192120461BF05CFDBC
:10B850000F201EF057F82846FFF7CEFF1A210246A8
:10B8600020461BF051FD18221B2120461BF04CFDE9
:10B8700018221C2120461BF047FD022237212046BA
:10B880001BF042FD20460122BDE8384038211BF064
:10B890003BBDF8B5054600F11004FFF707FF95F82A
:10B8A000D830072B5BD195F81D6102270236802224
:10B8B0006B2120461BF028FD64201EF023F8072290
:10B8C000682120461BF020FD64201EF01BF800229A
:10B8D0006B2120461BF018FD64201EF013F8012296
:10B8E0006B2120461BF010FD0F201EF00BF8F2001C
:10B8F00002F0F8021B2120461BF006FD0F201EF06F
:10B9000001F8FA001C2120461BF0FEFC0F201DF060
:10B91000F9FF2846FFF770FF1A21024620461BF068
:10B92000F3FC0F201DF0EEFF95F820211921204691
:10B930001BF0EAFC64201DF0E5FF102237212046B1
:10B940001BF0E2FC0F201DF0DDFF20460122382114
:10B950001BF0DAFCBDE8F8400F201DF0D3BF032731
:10B960003E46A4E72DE9F04102691678012E84B025
:10B9700004460D4616D10B79013B13714B79002B10
:10B9800008BF682300F1100703754FF00008334625
:10B990000DF10502752138468DF805801BF044FD38
:10B9A00078B9226902231370EE7836B104F11007DA
:10B9B000A97838461AF0D2FE28BB002004B0BDE8B2
:10B9C000F08120696DF042FE334641460DF10602DA
:10B9D00038461BF029FD9DF8063003F07E038DF8F4
:10B9E000063008B1682B41D09DF8053003F07E0386
:10B9F000682B8DF805303CD0702B04BF042384F8ED
:10BA0000D8300120DAE730461CF016FCA0612B7814
:10BA100001330646DBB210B1C371222383710921C1
:10BA200030461CF0FBFD30461AF092FE2F4AD2F849
:10BA30005C35632BFBD92E482E4E1AF059FE2E4B47
:10BA4000A08202E056F8043F53B1384698470346B7
:10BA50000028F7D0206984F8D8306DF0F7FDD0E7E2
:10BA6000E8781CF0E9FB1CF0F8FDA6E784F8D86044
:10BA7000C7E706230222194684F8D820384602AACE
:10BA80001BF0D2FC9DF80D309DF80B209DF809109D
:10BA900090B19B00520002F0020203F00403134332
:10BAA00001F00102134307D0032B18D8012B12D148
:10BAB000002384F8D930A4E701230DF107020C21FB
:10BAC00038461BF0B1FC9DF8073050B113F00F035E
:10BAD00007D0042BECD0012384F8D93091E7072B51
:10BAE000F9D003201EF0E0F88BE700BF301E0020E5
:10BAF00040420F00F0D0070867FF000843680B4A78
:10BB000023F0407323F4807343F4807343608368AD
:10BB10001A4042F002028260C36A0139C9B223F4BA
:10BB2000700343EA0153C362704700BFFDF7FFC0D3
:10BB3000704700BF0020FCF7B7BA00BF0120FCF738
:10BB4000B3BA00BF0220FCF7AFBA00BF431C00F03D
:10BB500041812DE9F04FDFF8C0A300EB80030AEB31
:10BB6000C30287B0D2F80490810005460191DB0042
:10BB7000B9F1000F06D0D2E90348002C00F0F6809E
:10BB8000A27912B107B0BDE8F08FB8F1000F00F054
:10BB9000398198F80620002AF4D118330AF10406F6
:10BBA000F018D9F80470F250691CC0E9012215237D
:10BBB000C260C9B2A3711623E17188F8071088F832
:10BBC000063099F818006BF0EDFDBB882268A0885C
:10BBD00023F440731B041B0CBB80D8F80030108387
:10BBE000B8F804201A83112120461CF069FB1121AA
:10BBF00040461CF065FB09264FF0330B2CB9E0E002
:10BC0000BBF1010B08D01DF055FC2268A188136917
:10BC100019424FF00A00F3D0518305201DF04AFC71
:10BC20002368A2881A8305201DF044FC013EE3D15D
:10BC3000002C00F009812368A2885A8305201DF09A
:10BC400039FCB8F1000F00F02781D8F80030B8F8BF
:10BC500004205A8305201DF02DFC2368A2881A8336
:10BC600005201DF027FCD8F80030B8F804201A830E
:10BC7000019B20465C190AEBC404A37D227D002BA6
:10BC80000CBF1226322631461AF03CFB627D31464B
:10BC900040461AF037FB9A4B9F4200F0E780994BE1
:10BCA0009F4200F0EE80984B9F4200F0FF80019B86
:10BCB0002B440AEBC3034FF47A721C8BBB8823F42A
:10BCC00040731B041B0CBB803B889BB243F00103F9
:10BCD0003B80BD8802A802FB04F425F03F0562F01A
:10BCE00067FA0498894B2D04A3FB00232D0C45EA29
:10BCF0009345BD803A8822F001021204120C3A806A
:10BD0000834A990C94420B4665DC6200B0FBF2F268
:10BD100092B20133042A38BF04223B84BA833B88A1
:10BD20009BB243F001033B803B8823F4816323F003
:10BD300002031B041B0C4FF4804143F480633B80DF
:10BD400039813B8823F080031B041B0C00223B80BD
:10BD500099F81A00114669F0B5FE002299F8190009
:10BD6000114607B0BDE8F04F69F0ACBEB8F1000F66
:10BD700000F0A78098F80620002A7FF403AF18335C
:10BD80000AF10401CA18D9F80470CC50C2E9014480
:10BD90001623D46088F806306B1C88F8073099F8B1
:10BDA00018006BF0FFFCBB88B8F8042023F4407344
:10BDB0001B041B0CBB80D8F800301A8317E71DF05A
:10BDC00079FBBBF1010B4FF00A00F8D105201DF003
:10BDD00071FB28E7704704EB4404B0FBF4F082B237
:10BDE000C0F30B0008B942F001024FF4967301FB57
:10BDF00003F34849A1FB03139B09013342F40042BA
:10BE00003B848BE70AF104011833CA18D9F804708F
:10BE100041F80380C2E901881523C2F80C80A371A0
:10BE2000431CE37199F818006BF0BCFCBB88A28836
:10BE300023F440731B041B0CBB80236811211A835D
:10BE400020461CF03DFAD6E605201DF033FBB8F184
:10BE5000000F4DD0D8F80030B8F804205A830520E0
:10BE60001DF028FB05201DF025FBFCE603F5F23351
:10BE70001A6A42F400121A621A6A22F400121A6252
:10BE800015E703F5F0331A6A42F480021A621A6A5F
:10BE900022F480021A620AE705201DF00BFB2368DA
:10BEA000A2881A8305201DF005FBE1E603F5EE33B9
:10BEB0001A6A42F400021A621A6A22F400021A6232
:10BEC000F5E618330AF10401CA18D9F8047041F8EC
:10BED0000380C2E90188C2F80C8099F818006BF061
:10BEE00061FCBB8823F440731B041B0CBB8082E6FF
:10BEF00005201DF0DFFA05201DF0DCFAB8E600BFD2
:10BF00000054004000580040005C004083DE1B43AA
:10BF1000A0860100D34D6210301E00202DE9F843A9
:10BF200007461DF025FADFF84C8007EB8709044629
:10BF300008EBC90542F20F7604E01DF019FA001B68
:10BF4000B0420ADC6B7F002BF7D108EBC90898F8E8
:10BF50001C0080F00100BDE8F883B8F8A83901336F
:10BF600038469BB2A8F8A839FFF7F0FD0020BDE8DD
:10BF7000F88300BF301E002010B582B004468DF853
:10BF800007300DF107036BF0A1FB08B902B010BD3B
:10BF90002046FFF7C3FF02B010BD00BFB0F1FF3F66
:10BFA00069D02DE9F04F022883B0044613DC334EEC
:10BFB000984600EB800306EBC305DB00D5F808A02C
:10BFC0000093BAF1000F06D08946697F934601F0CD
:10BFD000FF02019219B1002003B0BDE8F08F1DF0FF
:10BFE000C7F9009B019A203307464FEA4901301DEB
:10BFF000C9B200EB030CA9774FF0010E0C9985F83C
:10C000001FB085F8212085F822E0C150CCF804103B
:10C0100085F8208085F81DE02A77BAF80430990564
:10C020001DD4BAF80030DA0512D442F20F7504E0DC
:10C030001DF09EF9C31BAB4213DCBAF800309B0520
:10C04000F6D4BAF800309BB243F48073AAF80030FB
:10C05000BAF804309BB243F44073AAF804300120CC
:10C06000BAE7B6F8A83901339BB22046A6F8A8393A
:10C07000FFF76CFDAFE70020704700BF301E0020C7
:10C0800070B585692B6995F84C211978012996B00E
:10C09000044634D0022902D0002016B070BD596A7F
:10C0A00005F1100609B18E42F6D11B6A002BF3D1BF
:10C0B00062F07F028DF80F200DF10F02069201222F
:10C0C000CDE90732CDE90A338DF824300F9312936E
:10C0D000149304AB0C9306238DF838208DF84C2074
:10C0E0000D930022002306A93046CDE910231BF052
:10C0F0009FF82B695A6A0AB3964226D0FEE793F955
:10C100000460297D04AB009330460623FFF746FF09
:10C110000028C1D03046FFF701FF0028BCD0BDF891
:10C120001010BDF81220BDF8143049BA52BA5BBAEB
:10C130000120E1812282638216B070BD1A6A002A52
:10C14000EDD01A6A002AF9D1E9E71A6A002AE6D086
:10C150001A6A002AF9D1E2E730B5036990F84D2157
:10C160001978012997B0044634D0022902D0002062
:10C1700017B030BD596A00F1100509B18D42F6D1F2
:10C180001B6A002BF3D10121CDE90731CDE90A3338
:10C190008DF824300F931293149304AB62F07F0256
:10C1A0000DF10F000C93062306908DF80F208DF8EB
:10C1B000381000228DF84C100D9306A90023284654
:10C1C000CDE910231BF034F823695A6A22B3954253
:10C1D00029D0FEE793F90450017D04AB0093284673
:10C1E0000623FFF7DBFE0028C1D02846FFF796FEA6
:10C1F0000028BCD0BDF81010BDF81220BDF81430D6
:10C2000049BA52BA5BBA0120A4F8D010A4F8D220DF
:10C21000A4F8D43017B030BD1A6A002AEAD01A6ADE
:10C22000002AF9D1E6E71A6A002AE3D01A6A002A3E
:10C23000F9D1DFE7E0B5284E00EB800306EBC3033E
:10C2400084B05A685568AA8A92B20392039A12F48B
:10C25000706F1CBF01221A77039B13F4E06F4FEA43
:10C2600080070CD1AB8A074423F4706306EBC70642
:10C270001B041B0C0022AB82727704B0E0BD2B8B39
:10C28000AB8823F480631B041B0CAB80039B9A05D3
:10C29000E8D42B889B05E5D42B88D9050FD52B88AE
:10C2A000DA05FCD42B889BB243F400732B802B88D7
:10C2B0009B05FCD40190FFF749FC0198D2E72B883D
:10C2C0009BB243F400732B80AB8823F440731B04B0
:10C2D0001B0CAB80C6E700BF301E00200020A9E782
:10C2E0000120A7E70220A5E72DE9F047684E06EBFD
:10C2F0000013D3F8AC49002C76D093F8B4790546F6
:10C300004FEA001838466BF04DFA07F01F027F091C
:10C310000123032F03FA02F372D0042F6BD0022FF4
:10C3200064D006EB0803013593F8B0091BF084FFD5
:10C33000EDB2824610B11223C571837106EB08037A
:10C3400093F8B1091BF078FF814610B11323C57132
:10C35000837106EB080393F8B2091BF06DFF0746E3
:10C3600010B11423C571837106EB0803504693F88E
:10C37000B3594A212A4619F0C5FF2A4648462A21C0
:10C3800019F0C0FF2A460A21384619F0BBFF414B7D
:10C390009C423AD0404B9C4242D0404B9C424AD0B7
:10C3A0003F4B9C4252D03F4B9C425AD03E4B9C420A
:10C3B00062D0A38823F003031B041B0CA3802388F3
:10C3C00003F4415343F4457343F003032380A38BE9
:10C3D00023F400631B041B0C0722A38322822388FF
:10C3E0009BB243F040032380BDE8F0872F4A516A97
:10C3F0000B43536295E72D4A11690B43136190E794
:10C400002A4A116A0B4313628BE703F584335A6A95
:10C4100042F480525A625A6A22F480525A62C8E741
:10C4200003F500331A6A42F480421A621A6A22F44F
:10C4300080421A62BDE703F5FE331A6A42F40042F5
:10C440001A621A6A22F400421A62B2E703F58233D2
:10C450005A6A42F400525A625A6A22F400525A62EC
:10C46000A7E703F568435A6A42F480125A625A6A8F
:10C4700022F480125A629CE703F564435A6A42F43C
:10C4800000125A625A6A22F400125A6291E700BFFF
:10C49000301E00200030014000380040003C0040C9
:10C4A0000034014000500140005401400038024077
:10C4B00010B404698269E468416814600023402470
:10C4C000C2E90234446993630C31C2E90433C2E91E
:10C4D0000633C2E90833C2E90A33C2E90C335160BA
:10C4E00084B1C269C2E90233C2E90433C2E9063346
:10C4F000C2E90833C2E90A33C2E90C33E068936346
:10C50000C2E900015DF8044B704700BFD0E9001399
:10C5100000221A60037D1F2B07D9203B202202FA3C
:10C5200003F343F01803CB607047202202FA03F3B1
:10C5300043F018038B607047F8B50468D4E904230E
:10C540005568117D1768002B40D01F295E689861DF
:10C550002CD820228A4042F01802BA601A7D19684D
:10C560001F2A2DD9203A2023934043F01803CB6093
:10C5700000232B6033603368A16943F010033360FC
:10C58000284661F00BFFE169304661F007FF2B6838
:10C59000626843F001032B60336843F001033360AA
:10C5A00093889BB243F003039380F8BD2039202287
:10C5B0008A4042F01802FA601A7D19681F2AD1D801
:10C5C0002023934043F018038B60D1E71F2990612B
:10C5D00019D820238B4043F01803BB6000232B6045
:10C5E0002B68A16943F010032B60284661F0D6FE4A
:10C5F0002B68626843F001032B6093889BB243F081
:10C6000002039380F8BD203920238B4043F01803A8
:10C61000FB60E3E72DE9F8437F4F064601243568C8
:10C6200096F888806B68B0881A8885F8284022F0D0
:10C6300040021204120C1A802A89824221D01A88E0
:10C64000764922F0380212048B424FEA124200F07F
:10C65000BF8001F580618B4200F0BA800146B1F5E0
:10C66000807FA8BF4FF480710229B8BF022191FAE0
:10C67000A1F1B1FA81F1013942EAC10292B21A8004
:10C680002881317BAA7A8A420CD01A8822F00302D0
:10C690001204120C1A801A8892B2002900F09580B8
:10C6A0001A80A9721A8895F80C9092B242F0400252
:10C6B0001A802A6A9168002900F0A4804FF0000CCB
:10C6C0001432E64652F8100C8E4400EA070120B1FD
:10C6D000B1F1805F25D0696919B352F8141C143286
:10C6E00001EA070011B1B0F1805F1AD052F80C1CBA
:10C6F0000CF1010C0029E5D1B9F1000F11D0B8F10E
:10C70000000F0ED0BCF1010F6FD8BEF1070F6CD82F
:10C710000CEB8C0C4FEA8C012A6A0A44127B002A2B
:10C7200063D02A6A9268002A54D000220AB1127B90
:10C7300022B1B26812B1116892884A832A6A1068DD
:10C740002A6A51682A6A926802F1FF3CA2B130B3AA
:10C75000024612F801EB10461A899207FCD5A3F89D
:10C760000CE01A89D207FCD59A8992B209B101F876
:10C77000012BBCF1010CEAD22B6A1B7BF3B92B6AAB
:10C780001B6993B12B6AD6F894001B69984701285E
:10C7900008D0022809D100232B62BDE8F8834FF0AE
:10C7A000FF0ED9E72B6A143B2B622A6A2B6A1433DB
:10C7B0002B622B6A9B686BB16B68B7E7B368002B81
:10C7C000DDD01A689B881383D9E742F0030267E73C
:10C7D000410844E72B6A1B68DBB12B6AD3E900628E
:10C7E0002A620022C3E9002219E7306800216DF0B7
:10C7F00081FFB36813B11A689B8853833046BDE844
:10C80000F84399E6B9F1000F8BD0B8F1000F83D14E
:10C8100087E72B62C1E700BF0000FFFF0038004040
:10C820000248036A0BB11030184770478801002096
:10C830000248436C0BB13430184770478801002020
:10C840000248836E0BB158301847704788010020AA
:10C850000348D0F88C300BB17C301847704700BFCC
:10C86000880100200348D0F8B0300BB1A030184741
:10C87000704700BF880100200348D0F8D4300BB1C6
:10C88000C4301847704700BF880100200348D0F823
:10C89000F8300BB1E8301847704700BF880100201E
:10C8A0000348D0F81C3113B100F586701847704763
:10C8B000880100200348D0F8403113B100F598708A
:10C8C00018477047880100200348D0F8643113B13D
:10C8D00000F5AA7018477047880100200348D0F877
:10C8E000883113B100F5BC701847704788010020EB
:10C8F0000348D0F8AC3113B100F5CE70184770473B
:10C90000880100200348D0F8D03113B100F5E07061
:10C9100018477047880100200348D0F8F43113B15C
:10C9200000F5F27018477047880100200348D0F8DE
:10C93000183213B100F502701847704788010020C3
:10C940000348D0F83C3213B100F50B70184770471C
:10C9500088010020094B0A4A013800EBC00003EBB4
:10C96000800308481B69116B834214BF4FF4800396
:10C970004FF400130B431363704700BF880100207E
:10C98000003802400060024070B501383C4C3D4D1B
:10C9900000EBC00C04EB8C0C9646DCF810603A4AB5
:10C9A000AE4214BF4FF480054FF40015166B3543AB
:10C9B0001563CCF82010CCF828303449DCF814305A
:10C9C0008B424FEAC0023ED001F580618B423AD0E3
:10C9D000A1F57A718B4246D001F580618B4242D03D
:10C9E000A1F57A718B4240D001F580618B423CD039
:10C9F000A1F57A718B4234D001F580618B4230D041
:10CA0000A1F57A718B4232D001F580618B422ED034
:10CA1000A1F57A718B422CD001F580618B4228D030
:10CA2000A1F57A718B4226D001F580618B4222D02C
:10CA3000A1F57A718B4220D0154D01F580618B42B2
:10CA400018BF002500E0134D131804EB8303CEF349
:10CA500087111D6393F82500BDE87040002269F03E
:10CA600031B80D4DF0E70D4DEEE70D4DECE70D4DF6
:10CA7000EAE70D4DE8E70D4DE6E7054DE4E700BFB9
:10CA8000880100200060024000380240106002402F
:10CA9000008000282080001000800018008800100E
:10CAA00000802010208000200088002000802020AE
:10CAB0002DE9F04FB14BDFF8DC9293F8EE39DFF857
:10CAC000D8B295B003F1FF3802935FFA88F3009370
:10CAD0000023CA460193ABF2DC55DFF8BC82D8F8DC
:10CAE0000070BB0AA3F58013522B00F20A812B447D
:10CAF00093F894310D2B00F20481A14AD656029B83
:10CB0000012B00F00781029B022B01D1082E6DD171
:10CB10000024214630461DF091FB1DF01BFC0378DC
:10CB200013B1542B40F06F810434A4B2102CF0D117
:10CB3000019B00211BB34A460CE02B4493F894312F
:10CB40000D2B0ED88E4CE356B3420DD002F58072F9
:10CB5000524512D0906803689B0AA3F58013522BAC
:10CB6000EBD90023B342F1D1437998F805009842FC
:10CB70003CD002F580725245ECD1002936D14046B6
:10CB80001AF0FEFFC3B2022B98F805E000F2098309
:10CB900000F1010C0CEB4C0C7A4A4FEA8C0C03E0D0
:10CBA0002C32934500F0FD8213689F42F8D113792F
:10CBB0007345F5D152F80C000028F1D072490023DA
:10CBC0004A68824203F1010300F0A180102B01F1B9
:10CBD0002401F5D14FF0FF336C4A03EBC30302EBA2
:10CBE000830393F82C30002B00F02081684B08F170
:10CBF000200843457FF473AF019B0133042B01935D
:10CC00000AF5807A7FF469AFDFF890B1DBF8083578
:10CC100005930BF66813019300230BF5816A0093CB
:10CC2000009B059A934269DA544BDAF80C7093F83A
:10CC3000022A9AF810300393002F5FD03B68DBF88C
:10CC40000400049303F13F4505F57E05BB8802937C
:10CC500000284FEA952564DD002302E0013383427A
:10CC60005CD01C0259F80410A942F7D14C44039B34
:10CC70008AF81030029B009DCAF80C70B3FA83F654
:10CC8000C6F11F034FF003020135CAF80430CAF899
:10CC90001840BA71FD715800E26C616C4FF0010CE4
:10CCA000032787400CFA00F00243E2649BF800205F
:10CCB000D4F8A00039430CFA03F36164276D99B2EC
:10CCC000002A00F0A680049A3B432365029B13834D
:10CCD0006246FBF795FB2046FBF7E6FC40F20113AA
:10CCE000AAF81C30019B00954FF001025A74082DE0
:10CCF00003F118030AF1200A019391D115B0BDE8A0
:10CD0000F08F009B012B7FF671AF002600E7DBB2AE
:10CD1000013B61E7012E3FF4FBAE67E7042B00F017
:10CD200088800BEB00230102069119690791002905
:10CD300000F02D826C1C0892E4B24FF054029D600A
:10CD400083F8042183F80541079B01305E79CBF815
:10CD5000040018461D6809961AF012FFC3B2022B90
:10CD600000F21F8200F1010C0CEB4C0C054B089AF1
:10CD70004FEA8C0C0021B64618E000BF301E0020A0
:10CD80004467080864D10708980100208801002042
:10CD900078D607080C00001058D5070804000010CA
:10CDA0000131172903F12C0300F0FB811E68B54205
:10CDB000F6D11E797645F3D153F80C60002EEFD0F2
:10CDC0002C2300EB400001FB03F38549DFF854827C
:10CDD00003EB80030B444046D3F8F811069B0C91FB
:10CDE0005B44C3E9066100214368B34231D001319D
:10CDF000102900F12400F7D17A4B1A7AEAB95422AB
:10CE00001A725C7219E0019B0121002B7FF493AE32
:10CE1000ECE6C6F12F03012606FA03F33B43236534
:10CE2000049B029E5E83FBF7EBFA54E7CAF8088086
:10CE3000E2E66D4A032382F8033A6C496C4A6D4B73
:10CE4000CBF84C1ACBF8442ACBF8543A15B0BDE8CD
:10CE5000F08F4B1CDBB26349013B03EBC30301EBD7
:10CE6000830393F82C100B910029E6D183F82D4011
:10CE7000069C6148E11101EB242101EB011100EB5B
:10CE80008101089106998C24091204FB01F100F537
:10CE90004C7000EB410006990A9059440898C1F87B
:10CEA000F440049CCC60C1F8A80054240A98C1F84E
:10CEB000F00083F82C405148069C3323C1F8AC3075
:10CEC000494B854219684C440FD04D4B9D420CD0C4
:10CED00003F580439D4208D003F580639D4204D052
:10CEE00003F580639D4218BF4908062A00F04C8173
:10CEF000072A4448444A454B18BF1346444A18BFC2
:10CF000002460698B1FBF2F2B1FBF3F3013A0BEBE8
:10CF1000000192B2013BA1F8B030A1F8682000F105
:10CF200054010023A4F85C30284649F80130A2657A
:10CF3000494461F0A9FB2A88364992B242F0800246
:10CF400000232A80ADF84030022312932B880F91E2
:10CF500023F001034FF480721B041B0C13920A226E
:10CF6000119228462B8009990FAA1DF0BBFE079B42
:10CF70001879002840F0F2802B889BB243F001031F
:10CF80002B800023D8F80420964203F1010300F01F
:10CF9000E180102B08F12408F4D14FF0FF33114A3F
:10CFA0001D491E4803EBC30302EB83031C4A1B69A4
:10CFB0008B4214BF4FF480034FF40013116B0B43EB
:10CFC0001363099B0C2B9BBF054A02EB4303002212
:10CFD000B3F8FC26069B5B449A8200232BE000BF3B
:10CFE0007CCF070888010020301E0020B94C0208C1
:10CFF000B54C0208C14C020834280020000401404E
:10D0000000000140D0DD06004495080010552200C4
:10D0100040771B006000010000600240FC08001027
:10D0200000380240980100208D4200F0B5800133A5
:10D03000042B00F0B38050F833100029F4D1DBF852
:10D04000F4180131CBF8F4180BEBC301DB00C1F885
:10D05000F85803440B9899880A439A80524923460A
:10D060009022FFF791FC3368069A049843F010036E
:10D070003360089BE3660C9B636602F16401042342
:10D080004FF40032C4E9232340233322C4E91C3285
:10D0900000F1180200254FF48068A2664FF480501A
:10D0A0004FF48042C4E9200249443046C4E9255582
:10D0B000A567C4F88850C4F89C50C4F87C8061F01F
:10D0C0006DF93068E0617069206270680C9B606285
:10D0D000B068A062F068C4F8AC300423C4F8D8305B
:10D0E0000A9BE062C4F8B4300498069AC4F8C4807D
:10D0F0004FF44033C4F8D4308C23C4F8BC3000F172
:10D10000100302F1AC01C4F8B0304FF480424FF488
:10D110000063C4F8C830C4E937554944C4F8CC208A
:10D12000C4F8B850C4F8C050C4F8D050C4F8E450A3
:10D13000304661F033F9336823637369636373685E
:10D14000A363B368E363F3682364336843F01003B5
:10D1500033608CE5DBB20B93013B20E71BF06CF8EE
:10D160000D9038B1079B02211A7A1AF005FE0D9B2B
:10D170005422DA80B5F844306FEA43436FEA5343F0
:10D180009BB2A5F84430F7E6084B094AB9E6094ACC
:10D19000022382F8033A50E6DB005AE700239B881B
:10D1A000FFDE00235B68FFDE49840008882A110047
:10D1B000A0BB0D00301E00200B4A0C4903469342D1
:10D1C000086810D0A2F5806293420CD002F580422C
:10D1D000934208D002F58062934204D002F5806247
:10D1E000934218BF4008704700040140301E0020E1
:10D1F0000B4B10B5D3F8443503440446187E1BF09E
:10D200001BF860B12E228271621CC27101211BF0D9
:10D2100005FA20460021BDE81040FBF76FBA10BDAB
:10D22000301E00202DE9F04FDFF8C4A191B08846F0
:10D230009DF8684002939AF81C39059405460193BD
:10D24000002800F0C680664F0679002307F19C0491
:10D2500002E0152B00F0BC8003EB43010133605C5E
:10D26000B042F6D10F442E6897F99EE095F805C0BC
:10D270005FFA8EF3022B00F2AB800EF1010707EB91
:10D280004707584BBF00002005E00130172803F185
:10D290002C0300F09D8019688E42F6D11979614502
:10D2A000F3D1DC59002CF0D0019B002B00F0588406
:10D2B000D5E905430A93002C00F08E8001230193E9
:10D2C000DFF83091D9F81430A34200F02E82D9F85B
:10D2D0003830A34200F09184D9F85C30A34200F0CA
:10D2E0009584D9F88030A34200F09284D9F8A43014
:10D2F000A34200F08F84D9F8C830A34200F08C8498
:10D30000D9F8EC30A34200F08984D9F81031A34257
:10D3100000F08684D9F83431A34200F08384D9F830
:10D3200058319C4200F09084D9F87C319C4200F046
:10D330008D84D9F8A0319C4200F08A84D9F8C43198
:10D340009C4200F08784D9F8E8319C4200F08A843E
:10D35000D9F80C329C4200F08784D9F83032A342CD
:10D3600008BF0F2300F0E2814FF0FF330493002346
:10D3700007930499019801EBC10309EB8303C900EA
:10D38000099193F82C10002836D02E6839294FEADD
:10D390009622A2F5801200F00383522A00F25482F2
:10D3A000114B134493F894310D2B00F24D820F4A28
:10D3B000D25C89B9099B0498034409EB830383F881
:10D3C0002D20392283F82C20079B2BB1089120E0D7
:10D3D000019B002B7FF46CAF002011B0BDE8F08FF3
:10D3E000282F002064D107087CCF0708446708086D
:10D3F00004000010880100200029EDD1013283F8DB
:10D400002D20032283F82C20079B002BE4D02E68CC
:10D41000089008EB8802C2EBC2020FFA88F1C74FEE
:10D420000F9191000E919AF8183907F1800101EBE4
:10D4300082020D92ABB3D7F8A028964200F0F48395
:10D44000012B2ED0D7F8B828964200F0FA83022B91
:10D4500027D0D7F8D028964200F0FE83032B20D0A7
:10D46000D7F8E828B24200F0FA83042B19D0D7F895
:10D470000029B24200F0FA83052B12D0D7F8182900
:10D48000B24200F0F683062B0BD0D7F83029B24217
:10D4900000F0F283072B04D0D7F84829B24200F0FD
:10D4A0006D8303EB430207EBC2029B46C2F8A06800
:10D4B0005A1CD2B28AF818291346013BA049069398
:10D4C0008C2303FB08730BEB4B0201EBC20283F8C6
:10D4D0009180C3F88850C3F8042195F804E04FEA1E
:10D4E0004B0303934FEA1E13013B052B0EF00F0E67
:10D4F00000F22E83934A0B9302EB4300B0F85000E6
:10D5000040FA0EFC1CF0010C00F028834FF0010CD7
:10D510000CFA0EFC0CF1FF3C0CEA00006FF086FBED
:10D520000B9B884A86491A44A1F5427C92F85C30EC
:10D5300003440CEBC300059A9AF800300B9302F0F9
:10D54000010183EA020A01318C2303FB08734901BC
:10D5500041F00A01C3F894102A7A18F0D3FE029B16
:10D56000063BDBB20593069B5B4500F03D828C23B6
:10D5700003FB08F3744A07EB030E03F16800002174
:10D5800010446033AEF8E410CEF8E810C0E90111A1
:10D590006020D0501AF002030C9300F0DB804FEAB9
:10D5A000CA0303F00803AEF8EE300423AEF8F2101D
:10D5B000AEF8E4308C2303FB08730022C3F8E820A4
:10D5C0000A2295F805A0A3F8F6200122C3F8F82056
:10D5D0000222A3F8F4A0A3F8FC20019B002B00F08A
:10D5E000C581039B5B4407EBC303C3F8A8482368CA
:10D5F00023F001032360204660F03AFE089B002BD5
:10D6000000F0A2818C2303FB087301990022C3E977
:10D610002622C3E92822C3E92A22C3E92C22C3E92E
:10D620002E22C3E93022C3E93222C3F8D0200029D8
:10D6300000F069810299039808295844434907EB8F
:10D64000C0000BEBCB0C01EB4C11C0F8B018A86973
:10D65000C3F89800C3E933224FF04002C3F8A42076
:10D660004FF004004FF00302C3E9310206F14C020F
:10D67000C3F89C2014BF12220622C3F8A010C3F8DE
:10D68000A8208C2303FB08730022C3F8AC20C3F846
:10D69000BC204FF480604FF48052C3E92C024FF459
:10D6A0008042C3F8B8204FF40032C3F8C020059A76
:10D6B000C3F80041022A3DD8029B082B214B03EB03
:10D6C000820318BF1321D3F88837214AB2FBF3F243
:10D6D00008BF5F212332039B5B4407EBC303204653
:10D6E000A3F8A4180E9B03F16009174B4B44029357
:10D6F0008C2303FB0879C9F8D82060F0B9FD00221B
:10D7000089F8D420029ABAF10C0F31D8DFE81AF068
:10D71000D700300030003000C4003000300030004E
:10D72000B1003000300030009E000023591C0791EA
:10D7300004931EE68D221321CDE700BF301E00208A
:10D74000D02600207CCF0708B01E00200430002027
:10D7500000D012134FEA4A0303F00203AEF8EC3094
:10D760000123AEF8E2304FF48073AEF8F03021E7D9
:10D77000514630461DF0B6FA0D9920688C2202FB06
:10D78000087240234B62D2F8A410D2F898300B43B1
:10D79000D2F8AC100B43D2F8B0100B43D2F8B4104F
:10D7A0000B43D2F8B8100B43D2F8BC100B43D2F89D
:10D7B000C0100B43D2F8CC100B43D2F8D0100B435F
:10D7C000824901400B432360D2E9313160690B4348
:10D7D00020F0070003436361D2F8A8306360D2F8F9
:10D7E0009C30A360D2F8A030E360236843F01003BC
:10D7F0002360019B002B75D0089B002B72D03388CF
:10D800009BB243F001033380328C0C9B92B2002B0D
:10D8100070D0042303FA0AF39BB222EA0302328493
:10D82000328C92B213433384069B5B4500F07C81BB
:10D830000B9B002B60D18C2303FB0873012083F822
:10D840008F0011B0BDE8F08F0022B2E5B38B23F456
:10D8500000631B041B0CB3830C2130461DF042FAFD
:10D86000B38B23F400631B041B0C43F40063B383EA
:10D8700082E7B38B23F008031B041B0CB38308213E
:10D8800030461DF02FFAB38B23F008031B041B0C4A
:10D8900043F00803B3836FE7338B23F400631B0467
:10D8A0001B0C3383042130461DF01CFA338B23F408
:10D8B00000631B041B0C43F4006333835CE7338B6E
:10D8C00023F008031B041B0C3383002130461DF09A
:10D8D00009FA338B23F008031B041B0C43F00803E5
:10D8E000338349E792F89130079839499022FFF73E
:10D8F0004BF884E701238DE72B686A7934334FF6C0
:10D90000FF71995097E70A9AC3F898200F98019AE7
:10D91000C3F8D020C3E9322200EB80012D4A00EB8E
:10D92000410102EBC102C3F80821C3F8A020402244
:10D93000C3F8A4200422C3F8C4202A6869793432C9
