:020000040800F2
:1000000000000120A1CF05083DD00508AD3E020843
:10001000013D02083DD005083DD005080000000064
:100020000000000000000000000000003DD00508B6
:100030003DD00508000000003DD00508C128020899
:100040003DD005083DD005083DD005083DD0050848
:100050003DD005083DD00508ED230208F523020830
:10006000FD230208052402080D240208B1AD000892
:10007000C1AD0008D1AD0008E1AD0008F5AD000844
:1000800009AE00081DAE00083DD005083DD00508AA
:100090003DD005083DD005083DD0050815240208CF
:1000A00035CB000831CA000845CB000821CA00083A
:1000B00059CA000869CA000879CA000895A9000849
:1000C00089A90008C9A90008BDA900083DD00508F4
:1000D0003DD005081D2802082928020835280208F5
:1000E0001D2402083DD005083DD0050855CB000869
:1000F0000DCB00083DD00508FDCA000831AE000850
:100100003DD0050825E6000889CA00083DD005084D
:10011000412802084D28020899CA0008BD4E05086A
:1001200045AE000859AE00086DAE000881AE00086B
:1001300095AE000800000000000000000000000074
:100140000000000000000000000000003544050829
:10015000A9AE0008BDAE0008D1AE000859280208BB
:10016000FDA90008F1A900083DD005083DD005080B
:100170003DD005083DD0050800000000000000004B
:100180003DD005083DD005083DD005083DD0050807
:100190003DD005083DD00508000000003DD0050811
:1001A0000000000000000000000000003DD0050835
:1001B0003DD005083DD0050800000000000000000B
:1001C000000000000000000000000000000000002F
:1001D0000000000000000000000000003DD0050805
:0801E000DCCC05000100000069
:1001E8000A90010024000000EC210120482B012086
:1001F800000000008D8E0308442B0120140201002A
:10020800050000003C2B0120702B0120000000009D
:100218003C3607086C2B01201F0208001000000064
:10022800902A01207C2B0120000000006D7301083A
:10023800782B012006200100260000002C22012036
:10024800902B012000000000657201088C2B012012
:100258001F500100240000002C43012048420120C7
:100268000000000044360708444201200B3001001A
:100278001A000000504301207042012000000000D5
:10028800683607086C4201202B0201000C000000B0
:10029800202E01209042012000000000823607082D
:1002A8008C4201201E020100060000004C3701208C
:1002B800A0420120000000008E3607089C42012061
:1002C8000D1201001400000094410120AC420120ED
:1002D8000000000094360708A8420120031101001D
:1002E8000A00000014380120C44201200000000068
:1002F80049730408C04201201230010010000000B8
:10030800D8360120D442012000000000A836070892
:10031800D04201200B2201003D000000E42E012004
:10032800E842012000000000B8360708E442012036
:100338001500100070000000985D01200C5E01207F
:100348000000000000000000085E01202A000800EC
:1003580060000000385D0120805E01200000000080
:100368003D8903087C5E012021020100F0000000A5
:10037800485C0120E45E012000000000CD3804083C
:10038800E05E01202C00040010000000385C012011
:10039800D85F012000000000D58A0308D45F01203F
:1003A80025201E002C0100000C5B0120EC5F0120C1
:1003B8000000000000000000E85F01202B00120090
:1003C80024000000E45A01201C6101200000000004
:1003D800E58A030818610120012001000C000000D3
:1003E8007C5401204461012000000000F836070811
:1003F80040610120162001000600000094540120ED
:1004080054610120000000000437070850610120F2
:1004180027000100040000008854012060610120C9
:10042800000000000A3707085C6101200C50040036
:1004380080000000EC4D01206861012000000000F0
:10044800D5C5020864610120F7010100060000001B
:1004580084520120EC610120000000000E370708DB
:10046800E86101202920140078000000E4510120EF
:10047800F86101200000000000000000F461012084
:100488002320010010000000D451012074620120D3
:1004980000000000798E03087062012028300100F6
:1004A80016000000A0510120886201200000000011
:1004B800B5900308846201200E5004007002000009
:1004C8006C4E0120A4620120000000005D2E03088C
:1004D800A06201200D100100700000002C510120C5
:1004E8001865012000000000F95602081465012073
:1004F800220201001C0100000C5301208C65012020
:100508000000000071950108886501201602150099
:100518003F000000EC660120AC66012000000000EE
:1005280095730108A8660120FB0101000100000085
:10053800346701203067012000000000497301087A
:100548002C670120FC010100090000004867012018
:100558003C670120000000003D7301083867012056
:100568001B02010010000000686701205867012085
:1005780000000000297301085467012028020400C4
:1005880004000000806701207C6701200000000053
:100598002173010878670120270204000400000085
:1005A8008C6701208867012000000000197301088A
:1005B800846701201C0202001C000000B8510120C1
:1005C8009467012000000000397701089067012036
:1005D800010201000A000000C0670120B467012081
:1005E8000000000041720108B06701201A020100F2
:1005F8003C0000000C680120D067012000000000CA
:1006080005810108CC670120FE01010014000000EB
:10061800605201204C68012000000000E9710108C7
:10062800486801201D0202000600000058550120FC
:1006380064680120000000000000000060680120DC
:10064800FD010100240000006055012070680120B0
:1006580000000000EBEB01086C68012004000800B2
:1006680080000000F8550120986801200000000073
:100678000000000094680120FA0101000400000055
:100688009C5601201C6901200000000051720108DD
:10069800186901201902010010000000745201209D
:1006A800246901200000000051730108206901201D
:1006B8000C02010004000000A05601203869012046
:1006C8000000000059720108346901200812040072
:1006D8001400000088560120406901200000000035
:1006E800017201083C6901200A020100140000009F
:1006F800F0560120586901200000000011C60208C8
:1007080054690120031201003D0000003457012004
:100718007069012000000000143707086C69012087
:10072800FD1701009A0000003C5A0120B46901201D
:1007380000000000D5170408B0690120131001005B
:10074800040000009C510120546A012000000000B0
:1007580054370708506A0120F62101000C000000F8
:100768008C5201205C6A01200000000058370708FD
:10077800586A0120F831010008000000DC5001200F
:100788006C6A01200000000064370708686A0120CD
:100798000612040018000000D8560120786A0120CB
:1007A80000000000C1760108746A0120F5C101004B
:1007B8007400000098520120946A01200000000093
:1007C80055180408906A0120020201000300000085
:1007D800E48301200C6B01200000000000000000F1
:1007E800086B01201A0001000E0000007856012055
:1007F800146B0120000000006C370708106B012003
:100808001400010005000000EC500120286B0120B5
:10081800000000007A370708246B01201840010007
:1008280038000000F4500120346B01200000000063
:1008380075810108306B0120FF21010005000000CF
:1008480004470120706B012000000000617301085B
:100858006C6B01200530010008000000FC460120F7
:100868007C6B01200000000080370708786B0120AE
:10087800130201000400000004480120886B0120D5
:100888000000000088370708846B0120F901010087
:100898000400000010AD01200CAD01200000000094
:1008A800A9EB010808AD01200E02010002000000BA
:1008B800CCAC012018AD0120000000008C370708DF
:1008C80014AD01202F2001002200000020AD0120DE
:1008D8007CAC0120000000008E3707081CAD012009
:1008E8002902010040000000CCB5012010B601200B
:1008F80000000000B03707080CB6012026300100C0
:1009080008000000C4B5012054B601200000000012
:10091800716E040850B60120205201000800000042
:10092800BCB5012060B6012000000000F0370708C0
:100938005CB601202A12010008000000B4B50120AD
:100948006CB6012000000000F837070868B60120DF
:100958001900010005000000ACB5012078B601209F
:10096800000000000038070874B6012002000100EA
:100978000C0000009CB5012084B601200000000096
:100988000000000080B60120384001000600000089
:1009980048AE012094B60120000000000638070880
:1009A80090B601201B2001000C000000D4B40120E7
:1009B800A0B6012000000000CD1104089CB601205B
:1009C8001010010002000000B0B20120B0B60120F2
:1009D800000000000C380708ACB601200502010031
:1009E8000400000090B7012004BF012000000000AF
:1009F8000E38070800BF01202C0201000400000087
:100A0800D4B701202CBF01200000000012380708CD
:100A180028BF01202D02010001000000A0B701201D
:100A280034BF0120000000000000000030BF01209A
:100A380012120100040000009CB701203CBF0120F5
:100A4800000000001638070838BF01200101010026
:100A58000400000080B7012044BF0120000000000E
:100A68000000000040BF0120000101000400000058
:100A7800CCB601204CBF0120000000001A3807083E
:100A880048BF0120020101000300000060B70120F7
:100A980054BF012000000000C5C5020850BF012056
:100AA8002332010014000000F8C20120A0C3012075
:100AB80000000000203807089CC301200300010043
:100AC80001000000E0C00120B8C3012000000000C0
:100AD80000000000B4C30120340001001000000031
:100AE800E4C00120C0C301200000000025890308DC
:100AF800BCC30120001201000A00000028D2012016
:100B080098D50120000000000000000094D50120C5
:100B18001102010008000000740B022034160220A4
:100B280000000000343807083016022010020100C7
:100B38000100000064260220602602200000000058
:080B48003C3807085C2602207E
:08280000082800080040000850
:10800000084A0346D0F8E4005268D3F8F010121A78
:1080100000209142B8BFC3F8F020012283F81C2150
:10802000704700BF001000E090F8DB30052B03D84C
:1080300090F81E31032B01D00020704790F82331B7
:1080400003F0FB03022B14BF07200020704700BF82
:10805000002A4FEA014C034630B50ABFE6468E4679
:108060008C4600F1C005002419680C3353F8042C29
:1080700043F8084C41EA0C0142EA0E02AB4243F8D5
:108080000C1C43F8042CEFD1D0F8C03043EA0E03A7
:10809000C0E93144C0F8C03030BD00BF83695969C0
:1080A000B3F810C00A6830B49C6822F0010224685A
:1080B0000A60E26822EA0C02E260027D00681F2A80
:1080C00006D9203A0824456894402C4242D0FEE765
:1080D0000824056894402C42F9D1202404FA02F2C5
:1080E0008260254A1278002A32D01A7F012A36D0BF
:1080F000D3F800210132C3F80021EFF3118150229F
:1081000082F312885868C9B29D6C0268DC6C22EA5E
:1081100005022243026081F311885A699968D3E904
:108120000D40096814605061D3E90F4054609060BD
:108130005C6CB3F8B400D4600124C86210682043BA
:1081400010601A8A1C7783F8FD40CB681343CB601C
:1081500030BC7047202404FA02F2C260C1E700225A
:10816000D3F8040183F8FD2001300A68C3F8040144
:1081700022F001020A60EBE72402002010B40C4C4C
:108180006368002B11DD002004F1080C0146DCF8C7
:10819000AC3003F1C00259600C339342FBD1013083
:1081A00063680CF5867C8342F1DC5DF8044B704714
:1081B0002402002070B50E4CD4F83864002E15DD72
:1081C00004F23C44002503E001352034B5420DD0D3
:1081D000237F002BF8D0E06800220028F4D001357E
:1081E000217D1AF077F92034B542F1D1012070BD1C
:1081F00024020020704700BF024B03EB401393F8AA
:1082000059047047240200204368426D30B49A61DB
:10821000EFF31182502383F312884168D2B2856C48
:108220000B68046D23EA050323430B6082F3118876
:10823000436981681A68096822F00102D0E908548C
:108240001A60826A1D605C615A60D0E90B429C60D2
:10825000DA600023B0F86C2030BCCA620377704744
:108260004FF4006383817047084A0346D0F8E40066
:108270005268D3F8F010121A00208A42C8BFC3F81F
:10828000F020012283F81C21704700BF001000E09D
:108290004FF40063838170474FF40063838170471C
:1082A0004FF4006383817047012380F810317047D9
:1082B0004FF40063838170474FF4006383817047FC
:1082C0004FF400638381704770470120704701209D
:1082D000704730B1094BD3ED097AFDEEE77AC0ED76
:1082E000007A51B1054B9FED067AD3ED0A7A67EE1D
:1082F000877AFDEEE77AC1ED007A7047781B01209E
:108300000000C842024B012283F82C20704700BFB6
:10831000781B0120324BF0B5DA8D5C8FB3F94450F5
:10832000121B1C8FB3F93E706243B3F94240B3F99C
:1083300034E005EBE235B3F95060E40294FBF5F468
:1083400004EBE234B3F93250A4F57A62DC6402FB48
:1083500002FC55434FEA2C3C02FB0EFEED12B3F932
:108360003C200CFB07F70CFB02F2B3F836C005EB20
:10837000E725B3F9307012145B6D05EB870502EB4E
:108380006E32B540023202359210A3EBA5054CF2D5
:10839000503302F5004233410CFB02F26B434FEACB
:1083A000D23219D45B00B3FBF2F370B11A1240F66B
:1083B000DE3552436A430B4D12145D4302EB2542F6
:1083C00002F6CF6203EB2213036021B10A235C4360
:1083D000083424110C60F0BDB3FBF2F35B00E4E75A
:1083E000781B012043E3FFFF704701207047012005
:1083F00070472DE9F74F5E4F88468146BA6DB7F852
:108400005C30C3EB22155B006D43C3EBE203B7F9AD
:108410005E202D135343B7F960205543AD1305EB90
:10842000E325BB6FA5F5FA360093B7F9663086FBF6
:10843000061EB7F96C00DA17B7F96AC003FB0EF431
:10844000B7F968B07D6701FB0244A3FB01231C441C
:10845000130AB7F9642043EA046382FB06A21203FD
:1084600042EA1A524FEA0A3A13EB0A0342EB242279
:10847000002402F500420192B7F862A0A3FB0A2390
:10848000019A0AFB023A4FEAEA734FEA6A0253EA98
:108490006A0A5BD08CFB066C4FEAE07A00FB0EFEAA
:1084A0004FEA4C4C01FB0AEE4CEAD63CA0FB011013
:1084B000760470447618009940EB0C0CC1F58010DE
:1084C000A61940F6354400F000410CEBCB0C41EA14
:1084D0005001C007801B61EB0C01A0FB040604FBEC
:1084E000016154F0F3FCB7F972304A130646440BAD
:1084F00003FB02FC4FEAE37E44EAC14404FB0ECED8
:10850000A3FB043CF4445A4304FB0C22A3FB0434B5
:1085100022445B0EB7F9704043EAC2134FEAE47C91
:108520001B1841EB62626143A4FB06460CFB001181
:10853000E40C314444EA41341C19B7F96E3042EB83
:10854000E142240A44EA026404EB0314B9F1000F87
:1085500002D0240AC9F80040B8F1000F05D005EB9D
:10856000850580352D12C8F8005003B0BDE8F08FA6
:10857000781B0120704700BF012070470120704721
:1085800008B5006851F022F930B9044A0120B2F868
:108590007C305BBAD38508BD0020FCE7781B012046
:1085A00008B5006851F012F990B90A4A012092F812
:1085B0007D3092F87C101B0243EA014392F87E1052
:1085C0000B43B2F95010C1F10801CB40536508BD0F
:1085D0000020FCE7781B012008B5006851F0F6F890
:1085E000D8B90F4A0F4992F83D3592F83C051B0166
:1085F00043EA003392F83E0543EA101392F83F0530
:108600008B6792F8403592F841251B0143EA00330D
:10861000012043EA12138B6508BD0020FCE700BF70
:1086200024020020781B0120036810B41A78012A64
:108630001CD0194C1949012091F8462591F845C5DF
:1086400091F8493512041B0442EA0C2291F848C5FE
:1086500043EA0C2391F844C591F8471542EA0C020D
:108660000B43C4E980235DF8044B704793F9043051
:10867000094C03EB430304EB431393F8D520202A62
:1086800003D000205DF8044B7047D3F894309B6909
:108690001B04F6D4CEE700BF781B01202402002083
:1086A0002DE9F04FC54C83B0B4F80822D4F8043259
:1086B000B4F80A52A3EB022394F90C220091A5FB13
:1086C00003574FEAE27CA3FB0336BF0402FB06F626
:1086D00047EA953703FB0C66AD04A2FB032352194E
:1086E000334443EB0703002B02DA013A43F1000362
:1086F000DE17C4E98836002800F0118103FB06F27A
:10870000D4F80052A3FB037E0EEB420E4FEA971CF7
:108710004FEAAE184CEA8E6C0CFB06F203FB082203
:10872000ACFB03C812EB080200F143814FEA1C2C9A
:108730004CEA026C12121146019294F912224FEA8D
:10874000E27802FB01FA0CFB08AAA2FB0C281AEB48
:10875000080A00F12A815209B4F90F8242EACA617B
:1087600094F91122A8F580484FEAE27B02FB0EF94A
:1087700007FB0B99A2FB072BD944B4F90DB24FEAC2
:108780008909ABF5804B49EA92794FEA8B3B92001D
:108790000BEB6A1A8A184FEAE87B4AEB090A08FBD6
:1087A00006F903FB0B99A8FB038BD9444FEA4959FF
:1087B00049EAD8294FEA485812EB08024AEB09085F
:1087C000B8F1000FC0F2EA80120E019942EA082ABD
:1087D00094F918224FEA286802FB01FB4FEAE2797C
:1087E0000CFB09BBA2FB0C2C1BEB0C0C00F1D28088
:1087F00094F917B252090BFB0EFE42EACC694FEA1C
:10880000EB7207FB02EEABFB077B0EEB0B02B4F83F
:1088100013E212014FEACE3E42EA17723F010EEB1D
:108820006C1E19EB0707B4F815924EEB020EA9FB6C
:1088300003C209FB0622920542EA9C224FEA8C5CA5
:1088400017EB0C074EEB020EBEF1000FC0F29E803C
:10885000BF0894F91B22AAFB05AC47EA8E7705FBFB
:1088600008CC4FEAE27917EB0A0702FB06F84CEB5B
:10887000AE0C03FB0988B4F919E2A2FB0329C84432
:108880004FEA0E4912EB090248EBEE78A2FB052EE7
:1088900005FB08EEBEF1000F71DB520B42EACE423F
:1088A0004FEA6E3EA2FB052805FB0E8EBEF1000FBF
:1088B0005EDB520A94F91C8242EACE52BF184FEA9C
:1088C000E8724CEB6E2EA5FB054C04FB02F208FB94
:1088D0000C22A4FB084812EB080843D4240C44EAF9
:1088E00008444FEA2848A4FB054205FB0825002D53
:1088F00034DBE40944EA4564E2194EEBE51E9418C2
:108900004EEB0E05A4184EEB0505ED0045EA547537
:10891000E400A4184EEB050E4FEA1E420260009AD6
:108920009AB1DA1846EB0600D21846EB0000C000F8
:1089300040EA5270D200D21846EB0006002E07DB48
:10894000920B009B42EA86421A6003B0BDE8F08FAA
:1089500043F6FF73D21846F10006F1E77F3445F184
:108960000005C6E74FF6FF72A41848F10008B5E706
:1089700040F2FF1812EB08024EF1000E99E741F6A3
:10898000FF7812EB08024EF1000E86E703374EF136
:10899000000E5DE71F324CF1000C29E76FF07F49B4
:1089A00012EB090248F100080EE71F324AF1000AF3
:1089B000D1E61CF1FF0C42F10002B7E6781B012062
:1089C0003B4BDFED3C3A93F8291293F82802090259
:1089D00093F82A2293F82BC201EB004193F82C0262
:1089E00093ED8E6A0A4409024FEA002093F82D1293
:1089F00048BF02F17F42B8EEC66A00EB0C4007EEBA
:108A0000902AB3F944220144000205EE902AB3F9FA
:108A10004022F8EEE77A48BF01F17F4104EE902A48
:108A2000B3F94222F8EEE55A07EE101A67EEA37A80
:108A300006EE902AF8EEE44AB3F93E22F8EEE66A32
:108A4000012005EE102AB3F93C22E7EEA54AB8EE64
:108A5000C55A04EE102AB8EEC77AB3F93222B8EE3E
:108A6000C44AA7EEA65AD3ED8D6A27EE237A05EE07
:108A7000902AA4EEA76AB3F93022F8EEE66AF8EE7F
:108A8000E55A04EE902AF6EE003AE7EE046AF8EEB4
:108A9000E44AA5EE076A65EE875AB0EE667AE4EE20
:108AA000A35AA6EE277AC3ED935A83ED927A7047C4
:108AB000781B01200821843630B10A4BD3ED927A1D
:108AC000FDEEE77AC0ED007A51B1064B9FED067AD4
:108AD000D3ED937A67EE877AFDEEE77AC1ED007AFF
:108AE000704700BF781B01200000C842704700BFDC
:108AF0000120704701207047704770470120704780
:108B00000B4A642310B5D2F85042634348BF03F6C2
:108B1000FF731B130360B2F854320A22534330220E
:108B2000B3FBF2F303F584531A330B6010BD00BF9F
:108B3000781B012008B5006850F048FE78B9094A52
:108B4000012092F84D3592F84C151B0292F84E25F3
:108B500043EA01431343044AC2F8583208BD0020D7
:108B6000FCE700BF24020020781B012008B5006844
:108B700050F02CFE78B9094A012092F84D3592F850
:108B80004C151B0292F84E2543EA01431343044A55
:108B9000C2F85C3208BD0020FCE700BF24020020C0
:108BA000781B01202DE9F74F564AB2F86A32B2F825
:108BB00066621B02B2F86C72CDE90001D2F858125D
:108BC000C91AB2F868326EEB0E0EA3FB010403FB68
:108BD0000E44C009B2F8643240EA44601B04E41158
:108BE000C018A6FB013506FB0E554FEA1323B2F859
:108BF000626244F1000443EA0563F6032D129B19F7
:108C0000A7FB012607FB0E664FEAD25245F100058D
:108C100042EA4622F61512F5FA6C46F1000BBCF555
:108C2000FA6F7BF1000750DA02FB06F84FF0050AF5
:108C3000A2FB027909EB4809A7FB0A780AFB09881D
:108C40004FEA5709BF0849EAC87947EA8877B0EB85
:108C5000090964EB6804DF1B48463B462A4F65EB75
:108C6000A805BC454FF0FF377BEB070722DA40F63B
:108C7000AC57D21946F100065643A2FB027202EB32
:108C80004602FE004FEAC208BE1B48EA577862EB74
:108C90000808361844EB08044FF00B083046A7FBD1
:108CA000087608FB02627F0847EAC277DF1B3B4673
:108CB00065EB620501FB0EFEA1FB011202EB4E0209
:108CC000C90F41EA4201BCEB010C009A92B10D4A76
:108CD000D2F85C12A1FB033201FB05225B0D43EAD3
:108CE000C22352151B1A62EB0402DB0B43EA424318
:108CF000009A1360019B0BB1C3F800C003B0BDE83C
:108D0000F08F00BF781B012024FAFFFF704701207D
:108D100070470120704708B5006850F057FDD8B97A
:108D20000E4A0F4992F8513592F850051B0243EA5A
:108D3000004392F85205034392F85305C1F870328C
:108D400092F8543592F855251B0243EA004301205E
:108D50001343C1F8743208BD0020FCE72402002050
:108D6000781B01202A4BD3F8742293EDA06AA2F558
:108D70000002D3ED9F6AD3ED9E7A07EE102AD3ED61
:108D8000A35AD3EDA24AB8EEC77AD3F8702293ED76
:108D9000A74AA2F5000293EDA55AE7EE066A93ED05
:108DA000A46AE7EE267A06EE902A93EDA17AF8EE11
:108DB000E66AE5EEA74AD3EDA65AA4EE275A93ED4C
:108DC000A84AA7EEA47AD3EDA94AA5EE276AE6EE53
:108DD000A45AE4EE275AA6EEA56AA6EE867AB5EE68
:108DE000407AF1EE10FA03D0BDEEC77A80ED007A3A
:108DF000F5EE407AF1EE10FA08D0FDEEE77A17EEC4
:108E0000903A002BB8BFFF331B120B60704700BFB6
:108E1000781B012010B5074C94F8A8320BB900203C
:108E200010BD19F0B5FED4F8AC32C01AD0F5FA5026
:108E3000F6D5F4E7781B0120134BD0F8D8105B6807
:108E4000D0F8E02010B50446581A824200DC22B95E
:108E5000D4F8E4200A44C4F8DC2094F8D020C4F804
:108E6000D830012A05D0D4F8D4300133C4F8D43036
:108E700010BD04F1E801201D18F0ACFCD4F8D4308A
:108E80000133C4F8D43010BD001000E010B5104B11
:108E900004465868D4F8E410D4F8D83094F8D020B8
:108EA0000B44C4F8D800012AC4F8DC3005D0D4F84B
:108EB000D4300133C4F8D43010BD04F1E801201DD2
:108EC00018F088FCD4F8D4300133C4F8D43010BD85
:108ED000001000E070B586698AB0054696F8DC306F
:108EE000012B29D0023B012B31D8D6F89C308C22A3
:108EF000194CEC461A700FCCACE80F00D6F89C3039
:108F00000093D6F8A03001930FCCACE80F0094E8A2
:108F10000300AB698CE8030003F11000694618F008
:108F200059FCAB6953F8102F516A994218BF0029B8
:108F300010D1136A002BFCD1D6F8A030B3F902206F
:108F4000EA81B3F904202A82B3F906306B8201204A
:108F50000AB070BDFEE700BFE8EB050810B5044697
:108F600082B0806906236A4690F84C11103018F0E0
:108F70005BFE58B1BDF80010BDF80220BDF804300A
:108F800049BA52BA5BBAE1812282638202B010BD53
:108F900010B582B0044690F84D1106236A46103091
:108FA00018F042FE70B1BDF80010BDF80220BDF807
:108FB000043049BA52BA5BBAA4F8D010A4F8D2204F
:108FC000A4F8D43002B010BD10B5044682B0806958
:108FD00006236A462821103018F026FE009ABDF8B4
:108FE00004300120C4F80E20638202B010BD00BF1F
:108FF00010B582B00446062322216A46103018F0CC
:1090000013FE009ABDF804300120C4F8D020A4F863
:10901000D43002B010BD002307B50F218DF8073002
:109020000DF10702012318F0FFFD30B19DF8070094
:10903000A0F16C0358425841000103B05DF804FBF5
:1090400000B583B04FF0000C012311210DF1070290
:1090500098388DF807C018F0E7FD03B05DF804FB01
:109060008369F0B593F8DC208BB00546012A2ED039
:10907000023A012A36D893F84C21EC46D3F89C10DA
:1090800062F07F03194C0B708669D6F8A0305F1C24
:109090000FCCACE80F00D6F89C30CDE900370FCCF0
:1090A000ACE80F0094E803008CE80300694606F181
:1090B000100018F08FFBAB691A4652F8101F486A6F
:1090C000904218BF002810D10A6A002AFCD1D3F8B8
:1090D000A0305A8852BAEA819A8852BA2A82DB882A
:1090E0005BBA6B8201200BB0F0BDFEE710EC050807
:1090F000F0B590F8DC308BB00446D0F8A060012BBE
:1091000053D03CD9023B012B35D890F84D3100F1BA
:10911000100ED0F89C20EC4663F07F03464D137090
:10912000D0F8A0305F1C0FCDACE80F00D4F89C3015
:10913000CDE900370FCDACE80F0095E80300754688
:109140008CE803006946704618F044FB2269536AB4
:109150009D4218BF002B11D1136A002BFCD17388DC
:109160005BBAA4F8D030B3885BBAA4F8D230F388E5
:109170005BBAA4F8D43001200BB0F0BDFEE7D0F804
:109180009C304FF0FF3205211A605A609A60DA6015
:10919000D0F8E030C0F8F010B3F57A7F1FD8032381
:1091A00080F8DC3001200BB0F0BD90F84C2190F835
:1091B0004D319B1A5B100133DBB236F8132006EBFE
:1091C000430653BAA0F8D03073885BBAA0F8D23007
:1091D000B3885BBAA0F8D43001200BB0F0BD0369AE
:1091E0001A7B2AB35B691BB390F8983003B390F8ED
:1091F0004C310122D0F89C0063F07F03C4F8A440F6
:109200000E49037094F84D3194F84C0184F8002114
:109210001B1A84F8DC20D4F8A0200733C4F804110A
:109220000132D4F89C10C4E93E23C4F8F410A2E73C
:10923000022384F8DC309EE710EC0508018000086A
:1092400070B544F23B33044690F82101A4F84C3148
:1092500000B970BD19F016F92146054698B12622CD
:109260000D4BC28041F80C3F00231A4650F0C2F863
:10927000AA880A494FF00043B2FA82F20868D34044
:1092800003430B6070BD044C0346024641F80C4F8B
:10929000BDE8704050F0AEB8398E0008003C014087
:1092A00002692DE9F843C36812EA030828D005468D
:1092B0000E464FF00047B8FA88F327FA03F21B3B3B
:1092C000D24308EA02082A61042B16D8DFE803F02B
:1092D000352C231A0300B36A002B37D003F1FF3972
:1092E00000231FFA89F9B362746A34B123682046F7
:1092F000494698476468002CF8D1B8F1000FDAD1DC
:10930000BDE8F8837068696B036889B29847B8F163
:10931000000FD0D1F4E7B068A96B036889B2984711
:10932000B8F1000FC7D1EBE7F068E96B036889B2C9
:109330009847B8F1000FBED1E2E73069296C0368A5
:1093400089B29847B8F1000FB5D1D9E7EB6A1FFA97
:1093500083F9C9E7836910B5074C04EB8303D3F89D
:10936000D00247F0F1FE0021B4F8F00250F0CEF93F
:10937000002384F8F23210BD781B012080699C30F4
:1093800047F0E2BE2DE9F0472F4F19F001FCDFF85E
:10939000C09080467E6800202C4C002E48DD0023C3
:1093A0004FF486711D4601FB0372013392F80521CB
:1093B0009E4245EA0205F6D128435FFA80FAD9F8C1
:1093C0000430C3F3080383BBEFF311836BBB4FF08F
:1093D000E02CD4F8F432DCF81810D4F8F4229342DC
:1093E000F7D1D4F8F8229142F3D8D4F8FCC24FF464
:1093F0007A7202FB0CF0401AB0FBFCF002FB030097
:10940000A0EB0803B3F5FA6FCCBF002005F0010014
:109410000028C2D1BAF1000F04D00C4B93F80023FE
:109420004F2A08D05046BDE8F08719F06FFAE7E7F9
:1094300082460025C3E7B3F8082350460132A3F85B
:109440000823BDE8F08700BF24020020781B01201C
:1094500000ED00E02DE9F041304F07EB401898F89F
:1094600058340BB9BDE8F08100EB80030E460021B3
:10947000044607EB4313450193F85A2583F85A1520
:1094800088F83E2455F06CFBB8BB25483D4400EB02
:109490004410A5F83C6455F09BFB3B78D5F8542468
:1094A000A3B1D5F840140124D2F8AC308C4003F1BC
:1094B000C001420010F4004F90B202D15A6822431A
:1094C0005A600C339942F4D1BDE8F081D5F84014CC
:1094D0000124D2F8AC3001F1100203F1C001944034
:1094E000420010F4004F90B202D15A6822435A60F1
:1094F0000C338B42F4D1BDE8F0810A4B93F86C2316
:1095000002EB420203EBC203234493F81963002EDB
:10951000BBD0012388F83E34B7E700BF2402002007
:1095200060060020781B012010B5044654F068FB4B
:109530000146204689B2BDE810408BE7F8B555F0EA
:109540003FFB78B31A4F7D68002D11DD38460024AB
:1095500010F8086B16B1037F012B1DD0426901344E
:1095600000F586701368AC4243F001031360F1D13B
:1095700019F00EFBD7F8584A002C0CDD0D4B03EB0D
:10958000C4041968083333F8042CC868A34242EABB
:109590000002CA60F5D1F8BD002380F8FC30FEF768
:1095A00033FEDBE753F006F90028CBD1F8BD00BF4E
:1095B00024020020800C00202DE9F04F374C83B0AE
:1095C00023781BB9012003B0BDE8F08F344F04F2BB
:1095D0003C44DFF8D0B04FF0000AD7F8F4324FF631
:1095E000FF7854F8049C0BF538750BF1B406019321
:1095F00014E0B0F5606F43D0A881B0EB0801019A88
:10960000584618BF012117F0D9F90AF1010A0BF1E8
:109610005C0B20341435BAF1080F2AD0CA4528DA79
:10962000A0696268D0E93D0155F08EFA4FF6FE73ED
:1096300097F80023984214D04F2A04D1B7F8042396
:109640000132A7F80423D6F83422404502F1010282
:10965000C6F83422CDD1D6F830220132C6F83022F5
:10966000CBE74F2AD1D1B7F806230132A7F806235A
:10967000CBE70123012086F8323303B0BDE8F08F39
:1096800097F86C2302EB420207EBC202524492F8B5
:1096900019230D2AB0D18022AA77AEE72402002038
:1096A000781B0120681200202DE9F04190F8B231BA
:1096B00086B01C09013C052C0FD8234E054603F04B
:1096C0000F0306EB4402B2F8D00040FA03F2D207CF
:1096D00003D595F8BD21012A03D0012006B0BDE8CD
:1096E000F0819A403444013A104055F095F894F8CE
:1096F000DC30164A184402EBC00352F830709C88E4
:1097000038692040EAD0124B4FF000083B4485F8FE
:10971000BD8106EB932696F8E40095F8B3614EF010
:10972000BFF902233846694600940193CDE90288C7
:10973000CDE9048651F0AEFDD5F82021136843F041
:1097400008031360C9E700BFE8EB0508EC1E012021
:109750000000FEBFF8B5054600F11004FFF770FDEC
:1097600095F8D830072B5BD195F81D61022702369A
:1097700080226B21204618F0EDF8642019F022FCBD
:1097800007226821204618F0E5F8642019F01AFC39
:1097900000226B21204618F0DDF8642019F012FC3D
:1097A00001226B21204618F0D5F80F2019F00AFC91
:1097B0001B21F200204602F0F80218F0CBF80F202F
:1097C00019F000FC1C21FA00204618F0C3F80F2005
:1097D00019F0F8FB2846FEF727FC1A21024620461E
:1097E00018F0B8F80F2019F0EDFB95F82021192199
:1097F000204618F0AFF8642019F0E4FB102237215E
:10980000204618F0A7F80F2019F0DCFB20460122B3
:10981000382118F09FF80F20BDE8F84019F0D2BBAE
:1098200003273E46A4E7F7B517461C460DF107028D
:10983000012305460E4618F0F7F980B1022019F011
:10984000D5F99DF807303146284623EA070222431E
:109850008DF8072018F07EF8089819F0B3FB03B0D4
:10986000F0BD642373B500F1100400930123054695
:10987000122120461A460126FFF7D5FF02220D21AC
:10988000204618F067F8012019F09CFB02220E21F7
:10989000204618F05FF8012019F094FB7422102183
:1098A000204618F057F8012019F08CFBAC2211214A
:1098B000204618F04FF8012019F084FB44237C2245
:1098C000122120460096FFF7AEFF06231321204603
:1098D0001A460096FFF7A7FF0023172215212046FE
:1098E0000096FFF7A0FF0223204618211A46009693
:1098F000FFF799FF95F8210188B118F0C3FD0446E0
:1099000008B12623C3802946084B204641F80C3F66
:1099100000231A464FF06EFD204618F059FD04480A
:1099200017F0A4F8A88202B070BD00BFA982000899
:10993000809698007522F42118F00CB87B22F4214F
:1099400018F008B8836810B5044682B01BB19A8835
:10995000196812048A61012019F034FBA36813B15D
:109960001A689B8893610A2019F02CFB2268002159
:10997000536AADF804109C4203D013B1002002B02A
:1099800010BD136A002BF9D1022301AA80212046C1
:1099900018F01EF99DF80530242BEFD10F2002B0EE
:1099A00010BD38B504460D46FFF734FA23685C68ED
:1099B00008B119F01BF9226800200A4B516A83F89C
:1099C000A80209B18C4209D1126A42B9204693F823
:1099D000A9322A46C92118F0FBF8012038BD002021
:1099E000FCE700BF781B0120F0B590F81E318BB06A
:1099F0000446032B1BD090F8DC30D0F8A070012B6C
:109A000000F08F8059D8D0F89C30002205211A60D0
:109A10005A609A609A81D0F8E030C0F8F010B3F53F
:109A20007A7F00F28D80032380F8DC3085E0594E88
:109A3000002300F11007012206F10C0109933846BA
:109A40008DF80C208DF82020CDE90433CDE90633C4
:109A50000A23CDE900616946029317F0BBFE226933
:109A6000556AAF4218BF002D14BF0125002523D130
:109A7000136A002BFCD1F289052A18DD3069B6F98A
:109A80001460011403B213F5004F08BF11F5004F25
:109A900014BF0121002116F5004318BF012353EA2A
:109AA000010503D0C4F8D000A4F8D460063A002A17
:109AB00064D128460BB0F0BDFEE7023B012B3CD839
:109AC000D0F89C309222344E00F1100C1A706D4682
:109AD0000FCE0FC50FCE0FC596E80300D4F89C300B
:109AE00085E8030000936946D4F8A03060466546D7
:109AF000019317F06FFE2269536A9D4218BF002B35
:109B00001DD1136A002BFCD1B7F90230A4F8D03074
:109B1000B7F90430A4F8D230B7F90630A4F8D4303D
:109B20000BE0B7F90830A0F8D030B7F90A30A0F848
:109B3000D230B7F90C30A0F8D4300125B9E7FEE7F0
:109B400003691A7B12B35B6903B390F89830EBB1E9
:109B5000D0F89C100E228C200123C4F8A440087079
:109B60000E48C4F8FC20C4F8040184F8003184F8DD
:109B7000DC30D4E92712C4E93D12DEE73846B022D2
:109B80007E2117F0A3FE28460BB0F0BD022384F817
:109B9000DC30D2E700000020E8EB0508698200080D
:109BA00038B5054600F11004194816F05FFFA88289
:109BB0002846FFF745FB01226B21204617F086FE61
:109BC000782019F013F8204618221B2117F07EFE8A
:109BD000204618221C2117F079FE2846FEF724FAA9
:109BE0001A210246204617F071FE95F820212046E2
:109BF000192117F06BFE20461022372117F066FE60
:109C0000204601223821BDE8384017F05FBE00BF72
:109C100000127A0038B500F110050446FFF710FB7A
:109C200003226B21284617F051FE0F2018F0DEFFAB
:109C300010226A21284617F049FE0F2018F0D6FF9F
:109C400000226C21284617F041FE0F2018F0CEFFAD
:109C500094F820211921284617F038FE0F2018F01B
:109C6000C5FF18221B21284617F030FE0F2018F0E0
:109C7000BDFF18221C21284617F028FE0F2018F0DF
:109C8000B5FF10223721284617F020FE0F2018F0CC
:109C9000ADFF01223821284617F018FE0F2018F0DA
:109CA000A5FF2046FEF7C0F91A210246284617F004
:109CB0000DFE012018F09AFF0A4816F0D7FEA08288
:109CC0002046FFF765F994F9D230013308D194F9B1
:109CD000D030013304D10620BDE8384019F04ABC29
:109CE00038BD00BF002D310110B50446FFF732FD2D
:109CF00010226A21A01817F0E9FD642019F062F91A
:109D0000044816F0B3FEA0820120BDE8104018F010
:109D10006DBF00BF002D3101F8B500F11004B6226F
:109D20007E21054690F81E61204617F0CFFD642085
:109D300019F048F9AB691BB11A689B881B04936141
:109D4000012019F03FF9AB6913B11A689B88936140
:109D50000A2019F037F900227C21204617F0B6FDC1
:109D6000012019F02FF900225921204617F0AEFDED
:109D7000012019F027F94FF4A473924A5E2120467E
:109D800018F0F4F90A2019F01DF901225921204692
:109D900017F09CFD012019F015F9032E00F08C80BE
:109DA0009B2240212046884F17F090FD012019F09A
:109DB00009F903224121204617F088FD012019F0FE
:109DC00001F997F87536012B00F0F080023B012B6A
:109DD00061D8ED224221204617F078FD012019F0CC
:109DE000F1F808224321204617F070FD012019F0F8
:109DF000E9F8032E00F0B18004225821204617F024
:109E000065FD012019F0DEF80A225321204617F0E3
:109E10005DFD012019F0D6F802227C21204617F0C2
:109E200055FD012019F0CEF820460E227D2117F0B5
:109E30004DFD012019F0C6F895F82101C8B118F0C0
:109E400021FB0446002800F0B38026232946C38066
:109E50005E4B41F80C3F00231A464FF0CBFAA28824
:109E60005B494FF00043B2FA82F20868D3400343E3
:109E70000B60D7F8983657499A08B1EB930F4FF01B
:109E8000020306D252085B008A429BB201D9FF2B23
:109E9000F8D9AB82F8BDCD224221204617F016FD3D
:109EA000012019F08FF820460822432117F00EFDFB
:109EB000012019F087F89FE7002248212046424FF1
:109EC00017F004FD012019F07DF880224921204679
:109ED00017F0FCFC012019F075F8002245212046FE
:109EE00017F0F4FC012019F06DF8062246212046F7
:109EF00017F0ECFC012019F065F8002247212046FC
:109F000017F0E4FC012019F05DF89B224021204667
:109F100017F0DCFC012019F055F8324641212046AB
:109F200017F0D4FC012019F04DF897F87536012B85
:109F30003CD0023B012B7FF64CAFCD224221204684
:109F400017F0C4FC012019F03DF8204608224321F7
:109F500017F0BCFC012019F035F8022258212046E8
:109F600017F0B4FC012019F02DF80A2253212046E5
:109F700017F0ACFC012019F025F802227C212046C4
:109F800017F0A4FC012019F01DF80E227D212046B7
:109F900017F09CFC012019F015F82046B0227E2114
:109FA00017F094FC012019F00DF845E7DD2211E7C8
:109FB000064B2946024641F80C3F03464FF01AFA79
:109FC00057E700BFD4EC0508781B01208D8E0008F0
:109FD000003C01408096980038B5802205466B21F0
:109FE00017F074FC642018F0EDFFF521284618F0F6
:109FF000E9F8AC2818D005D8122817D0982817D01F
:10A0000000240FE0AF28FBD1092410226A21284642
:10A0100017F05CFC28460322682117F057FC6420E7
:10A0200018F0D0FF204638BD0724EEE70824ECE7FF
:10A030000B24EAE738B5152400224E21054617F017
:10A0400045FC962018F0BEFFF521284618F0BAF816
:10A05000422807D0472807D0013C14F0FF04F0D174
:10A06000204638BD0C24FBE70D24F9E72DE9F84321
:10A07000054600F11004784816F0F8FCA88228463E
:10A08000FFF7DEF842F21F5300227621A5F84C318B
:10A09000204617F01BFC00224E21204617F016FC2C
:10A0A00095F8D8906D4BB9F10C0F93F8753640F0D8
:10A0B000AC80012B00F0B980022B15BF06260326C9
:10A0C0004FF4DC774FF4786714BF4FF015084FF06A
:10A0D0003F0801227621204617F0F8FB42460C216A
:10A0E000204617F0F3FB07F0FC020D21204617F085
:10A0F000EDFB0E213201204642EA172217F0E6FB63
:10A10000B9F10C0F4FF002024FF076010BBF4FF088
:10A1100015084FF006084FF4DC77242720460CBFC3
:10A1200006260A2617F0D2FB4FEA480203212046F2
:10A1300017F0CCFB07F0BC020421204617F0C6FB49
:10A1400005213201204642EA172217F0BFFB002208
:10A150007621204617F0BAFBFF225221204617F045
:10A16000B5FB03221421204617F0B0FB0022632127
:10A17000204617F0ABFB08226521204617F0A6FB0E
:10A18000E421204618F01EF800F0EF02642120467A
:10A1900042F0600217F09AFBCD21204618F012F829
:10A1A00000F03F024D21204642F0400217F08EFBA6
:10A1B0000F224E21204617F089FB012018F002FFE4
:10A1C00095F8DB2095F82031002A40D0013343F088
:10A1D0000103B3FA83F3C3F11F03032B37DC204AD7
:10A1E000D55C05F00F054F2120462A4617F06EFB7F
:10A1F0000F2018F0E7FE20462A46502117F066FB94
:10A200000F20BDE8F84318F0DDBE022B13D0032B5E
:10A2100017D0012B0BBF08260A26902724270CBF36
:10A220004FF00C084FF0060853E704264FF4C067C0
:10A230004FF027084DE706264FF4DC774FF015085E
:10A2400047E704264FF4AC674FF0250841E70023A9
:10A2500085F8DB300625C4E700366E01781B012047
:10A26000546F060838B5802204466B2117F02EFB88
:10A27000642018F0A7FE07226821204617F026FB6D
:10A28000642018F09FFEF521204617F09BFF05463D
:10A29000012018F0ABFC682D0DD18C21204617F061
:10A2A00091FF182803D8132805D9032004E0543857
:10A2B000C0B20628F9D9002038BDF52108B517F03D
:10A2C00081FF702819D009D8422818D0472818D003
:10A2D000A0F1120358425841C00008BDAC2812D06A
:10A2E00006D800F0FD00712814BF00200620F4E716
:10A2F000AF2814BF00200920EFE70520EDE70C2070
:10A30000EBE70D20E9E70720E7E710B50446006812
:10A310004FF05CFA38B920460623044AF72152F080
:10A32000F9F8012010BD0020FCE700BF1422012035
:10A3300010B5044600684FF049FA70B9084B93F81D
:10A34000A22612B193F82C0030B120460223054A10
:10A35000F62152F0DFF8012010BD0020FCE700BF1D
:10A36000781B0120F41B012010B5044600684FF053
:10A370002DFA70B9084B93F8A22612B193F82C006D
:10A3800030B120460323054AF62152F0C3F80120DC
:10A3900010BD0020FCE700BF781B0120F41B01204A
:10A3A00010B5044600684FF011FA38B9204606236C
:10A3B000034AF72152F0AEF8012010BD0020FCE75F
:10A3C0006007002008B503681A78012A06D0062322
:10A3D0000C4A042152F09EF8012008BD93F9043084
:10A3E000094A03EB430302EB431393F8D520202AD9
:10A3F00001D0002008BDD3F894309B691B04F8D429
:10A40000E5E700BF68070020781B012008B5036856
:10A410001A78012A06D006230C4A002152F07AF855
:10A42000012008BD93F90430094A03EB430302EB12
:10A43000431393F8D520202A01D0002008BDD3F87B
:10A4400094309B691B04F8D4E5E700BFA01D0120F0
:10A45000781B012038B50568044628464FF0B6F948
:10A460000146A8B92B78022B0CD16B6A0BB19C4228
:10A4700006D1296A21B90323064A204617F0A8FB12
:10A48000012038BD0323034A204652F043F8F7E782
:10A490000020F6E770070020DCE710B504460068EE
:10A4A0004FF094F938B920460623044AF72152F0B8
:10A4B00031F8012010BD0020FCE700BF7407002028
:10A4C00008B500684FF082F9002868D1354BF7EEE7
:10A4D000004A012093F8A02693F89F161202D3EDAC
:10A4E000005A93ED017A42EA014293F8A1160A4319
:10A4F0009968A2F50002891A93F89D2607EE901A32
:10A50000120293F89C16B8EEE76AF1EE007A42EA7E
:10A51000014293F89E1665EEA76A0A435969A2F5AF
:10A52000000266EEC66A891AE7EE076AB1EEE66ACD
:10A53000FEEE006A37EE067A93ED036A66EE277A3E
:10A5400027EE267AD3ED066A87EE255A9FED167A16
:10A55000D3ED045A25EE077A83ED0A7A07EE101A36
:10A56000B8EEC77A67EEC77AE5EEA57AB1EEE77A7C
:10A57000D3ED077AE5EE267AD3ED086A76EEA46A83
:10A58000E7EE856A77EE657AB6EE007A26EE266A01
:10A5900067EE877A87EE867A83ED097A08BD002018
:10A5A000FCE700BF781B01200000803B0022034B2A
:10A5B000F42183F82C202E2252F056B8781B01206B
:10A5C000064B0021B3F8502083F82C10F42192019F
:10A5D000343202F0FC0252F047B800BF781B012071
:10A5E0003122F42152F040B813221B2152F03CB822
:10A5F00030B5002385B0272105468DF807300DF1D1
:10A6000007020123154C52F0F0FB9DF8073013F0C0
:10A6100003031FD0052302AA2821284652F0E5FB98
:10A620009DF80A209DF80910130412F0800F43EAE8
:10A6300001239DF808100CBF00224FF07F420B430E
:10A640001343C4F85032BDF80B300120A4F8543243
:10A6500005B030BDC4F85032F7E700BF781B0120C9
:10A6600058214FF0CDB848214FF0CAB8BFF34F8FF3
:10A670000549064BCA6802F4E0621343CB60BFF39E
:10A680004F8F00BFFDE700BF00ED00E00400FA05BA
:10A69000014B53F8200070475028004002692DE913
:10A6A000F041167884B004460D46012E16D10B7980
:10A6B00000F110074FF00008013B8DF80580137181
:10A6C0000DF105024B797521002B08BF6823037536
:10A6D0003346384617F0A8FA78B922690223137076
:10A6E000EE7836B104F11007A978384616F0DEF995
:10A6F00030BB002004B0BDE8F081206951F0F6FEC7
:10A70000334641460DF10602384617F08DFA9DF8A2
:10A71000063003F07E03682B8DF8063001D1002847
:10A7200041D19DF8053003F07E03682B8DF805308C
:10A730003CD0702B02D1042384F8D8300120D9E713
:10A74000304617F09FFEA0612B7806460133DBB23E
:10A7500010B1C371222383710D21304617F000FF21
:10A76000304616F09DF9334AD2F8F432632BFBD908
:10A77000314816F07BF9314E314BA08202E056F899
:10A78000043F53B13846984703460028F7D0206964
:10A7900084F8D83051F0AAFED0E7E87817F072FEBE
:10A7A00017F0FEFEA5E784F8D860C7E7062302216C
:10A7B00002AA384684F8D810194617F035FA9DF8E1
:10A7C0000D309DF80B209B00520003F0040302F0B3
:10A7D000020213439DF8092002F0010213430ED038
:10A7E00068B1032B05D8012B05D1002384F8D9309B
:10A7F000A4E7072B19D1012384F8D9309EE7012360
:10A800000DF107020C21384617F00EFA80F0010313
:10A810009DF80720DBB202F00F0233B9B2FA82F3DF
:10A820005B0912B1042AE6D1E6E7032018F0A2FE84
:10A8300084E700BF781B012040420F001CEE050892
:10A84000D99F000810B490F8443000F10801484A3C
:10A85000012BC2F8A4166DD08368464CD968A34278
:10A8600021F46001D960D96841F46001D960996B25
:10A8700021F440119963996B41F480119963996BAC
:10A8800021F4F8419963996B41F48841996399687F
:10A8900021F47021996099689960996821F44011B8
:10A8A000996099689960596821F480615960596884
:10A8B00021F48051596059696FF30B01596159694D
:10A8C000596148D0D9682B4C21F0E061A342D9608E
:10A8D000D96841F0E061D960996B21F44011996326
:10A8E000996B41F480119963996B21F478219963F4
:10A8F000996B41F410219963996821F47021996052
:10A9000099689960996821F44011996099689960F3
:10A91000596821F480615960596821F48051596067
:10A9200099696FF30B019961996999611AD00023B4
:10A9300080F844301048114B848DC18D408D091B27
:10A94000C2F8AC46C2F8A8065DF8044B93FBF1F3DD
:10A95000C2F8B0367047D4F8041341F40001C4F8CB
:10A960000413AFE706494B6843F400034B60DEE78E
:10A97000781B012000200140007AF01F8038010080
:10A9800000230140704700BF014846F0B1BC00BF42
:10A990000C1C0120084810B4D0F89430D0F8C840FE
:10A9A00099691A6824B1234694305DF8044B18471E
:10A9B0005DF8044B704700BF781B0120014846F04A
:10A9C00097BC00BF6C1C0120084810B4D0F8F430CC
:10A9D000D0F8284199691A6824B12346F4305DF80B
:10A9E000044B18475DF8044B704700BF781B0120EB
:10A9F000014846F07DBC00BFCC1C0120084810B4C3
:10AA0000D0F85431D0F8884199691A682CB123469E
:10AA100000F5AA705DF8044B18475DF8044B7047C9
:10AA2000781B01202DE9F74F6023D74C054603FB27
:10AA30000043D3F88070D3E92268002F00F0998199
:10AA40001EB1B379002B40F09481B8F1000F04D00F
:10AA500098F80630002B40F08C816B1CDBB216B1ED
:10AA60001522F371B271B8F1000F04D0162288F8E4
:10AA7000073088F80620387C4FF009094DF010F8AF
:10AA8000304616F00DF8404616F00AF8112130460F
:10AA900017F066FD1121404617F062FD4FF0330AB2
:10AAA00005E0BAF1010A07D00A2018F09FF83046F5
:10AAB00017F0B8FC0028F4D0304615F0EBFF052065
:10AAC00018F094F8304615F0EBFF052018F08EF8DA
:10AAD000B9F10109E2D130464FF0600B15F0DAFF11
:10AAE000052018F083F8404615F0D4FF0BFB05FB5A
:10AAF000052018F07BF8304615F0D2FF04EB0B0A66
:10AB0000052018F073F8404615F0CAFF9AF8903007
:10AB100030460422002B0BF114060CBF1E213E21EF
:10AB2000019117F0FFFC4046DFF880820422019972
:10AB3000464417F0F7FC4C224946304653F0BEFD20
:10AB4000DAF880309FED917AB0EE084A5B68F7EE54
:10AB5000003A9FED8F5ACC46CAF894308D4B9A68D4
:10AB6000BAF89230C2F3822203EE103A8A4B1344B1
:10AB700093F85022D4F89836D34007EE903AF8EE86
:10AB8000677AC7EE275A9FED857AF8EEC37AC7EE4B
:10AB9000274ADFED837AB0EE007AE5EE877AA5EEFC
:10ABA000875A25EE844A37EE856A34EEE72A13EE9B
:10ABB000103A0CF1010EB3F5C87F40F2145307EEC2
:10ABC00090EADBBF19464FF4967278226423C8BF1F
:10ABD0003223F8EEE76AD4BF4FF4167B4FF4827B42
:10ABE0001344A2F1320266EEA56AC8BF4FF4FA71AF
:10ABF00007EE903A5944B8EEE77AC7EE267A07EEA8
:10AC0000102AB8EEC77A37EE447A77EEE37AFCEE94
:10AC1000E77A17EE903AC7EE267AFCEEE77A17EE5F
:10AC2000900A07EE90BAF8EEE72A07EE901AF8EECF
:10AC3000E77A62EEA42A82EEA77A77EE452A32EE10
:10AC4000477AC2EEA67A77EEE37AFCEEE77A17EE61
:10AC5000901AC7EE267A77EEE37AFCEEE77A17EEE3
:10AC6000902A02F1020B0BEB010AB0EE467A07EED6
:10AC700090AAF8EE677AA6EEA77AF4EEC74AF1EE4C
:10AC800010FA79DC43EA000B5FFA8BFBBBF10F0F84
:10AC900074D841EA020B1FFA8BFBBBF1FF0F6DD892
:10ACA0001B05000403F07F6392B200F47F000343AE
:10ACB0003C4843EA0C7300EA01210B4343EA0209D2
:10ACC000602330465D4301232C442835C4F8989016
:10ACD000A8444FF00009C4E92793C4E92999C8E9B9
:10ACE000029950F007FE94F8D530202BD9B21AD132
:10ACF00094F8D430012B16D0242384F8D530D4F81E
:10AD000094301A6822F001021A601A6822F4805204
:10AD10001A601A681A601A6842F001021A6084F810
:10AD2000D51084F8D490002197F912004EF0C2FAA1
:10AD300097F91220BB7C002A08DB5909012203F095
:10AD40001F0302FA03F3184A42F82130002197F951
:10AD500011004EF0AFFA97F911207B7C002A08DB36
:10AD60005909012203F01F0302FA03F30E4A42F8C5
:10AD7000213003B0BDE8F08F013174E7BEF10F0F51
:10AD80009ED0F44613E700BF781B0120286B6E4E5F
:10AD90000000164300380240E8EB0508002474491F
:10ADA0000000704200FFFF0000E100E0F81B0120FE
:10ADB000024843690BB10430184770470000012076
:10ADC0000248836B0BB12830184770470000012000
:10ADD0000248C36D0BB14C3018477047000001208A
:10ADE0000348D0F880300BB170301847704700BF6F
:10ADF000000001200348D0F8A4300BB1943018476C
:10AE0000704700BF000001200348D0F8C8300BB1E4
:10AE1000B8301847704700BF000001200348D0F841
:10AE2000EC300BB1DC301847704700BF0000012048
:10AE30000348D0F8103113B100F5807018477047FF
:10AE4000000001200348D0F8343113B100F59270AE
:10AE500018477047000001200348D0F8583113B15B
:10AE600000F5A47018477047000001200348D0F88F
:10AE70007C3113B100F5B67018477047000001200F
:10AE80000348D0F8A03113B100F5C87018477047D7
:10AE9000000001200348D0F8C43113B100F5DA7086
:10AEA00018477047000001200348D0F8E83113B17B
:10AEB00000F5EC7018477047000001200348D0F8F7
:10AEC0000C3213B100F5FE701847704700000120E6
:10AED0000348D0F8303213B100F5087018477047B6
:10AEE0000000012001380D4B0D4A00EBC000116B32
:10AEF00003EB800310B45B6883B00A4CA34214BF19
:10AF00004FF480034FF4001319431163126B134085
:10AF10000193019B03B05DF8044B704700000120D2
:10AF200000380240006002400138F8B500EBC00074
:10AF3000104C1D46104B04EB800417460E4660680B
:10AF4000984214BF962095204CF0AAFD94F9190060
:10AF5000B9096661E5614EF0ADF994F91930002B3D
:10AF600007DB03F01F0001225B090449824041F81E
:10AF70002320F8BD000001200060024000E100E055
:10AF80002DE9F04F002399B0DFF8ACA20193A74B55
:10AF9000AAF5D46BA64D93F8C636A64EA94603F182
:10AFA000FF3802935FFA88F30093A34DA846D8F8C0
:10AFB0000050AB0AA3F58013522B00F2DD805B44F6
:10AFC00093F858320D2B00F2D780F756029B012BD5
:10AFD00000F02281029B022B01D1082F3AD10024DC
:10AFE0002146384618F0FCFB18F082FC90F800C0AF
:10AFF000BCF1000F18BFBCF1540F14BF4FF0010C8F
:10B000004FF0000C40F0FD800434A4B2102CE7D1C6
:10B01000019B002B00F0BA80854A0CE05B4493F85A
:10B0200058320D2B0ED8F356BB420ED002F5867265
:10B030004A4500F0A78091680B689B0AA3F580132E
:10B04000522BEBD90023BB42F0D14B7998F8051075
:10B050009942EBD108F12008784B9845A7D1019B84
:10B0600009F586790133042B01939ED1744BDFF8E7
:10B07000E4A101930023AAF23C4B0093DBF838349F
:10B08000009A934275DD694BDAF80C9093F8DA2652
:10B090009AF810300293B9F1000F6AD0B9F8041091
:10B0A000D9F80030DBF8045003916649002D049371
:10B0B00019444FEA912140F3D1805D48002405E016
:10B0C000013400F58670AC4200F0C68003688B4204
:10B0D000F6D1574B4FF48672039E02FB0434029B59
:10B0E0004FF0030C009D01228AF81030039B0135BC
:10B0F000CAF80C90B3FA83F7CAF81840C7F11F03D7
:10B100005800CAF8043089F806C002FA03F389F837
:10B1100007500CFA00FCA16C02FA00F0D4F854E0DD
:10B1200041EA0C019BF800C0A164216D0143D4F8F1
:10B13000AC00216599B2BCF1000F00F0F38043EA46
:10B140000E036365049B9E61FCF782FF20460AF1B3
:10B15000200AFDF759F840F201120123082D2AF8C0
:10B16000042C019A009502F1180202F8073C0192A2
:10B1700084D119B0BDE8F08F009B012B7FF66AAF38
:10B1800000272CE7BCF1000F7FF464AF404617F0B6
:10B19000E5F898F805E0C3B2022B00F2B28300F1A3
:10B1A000010C294A0CEB4C0C4FEA8C0C03E02C32BE
:10B1B000924500F0A68313689D42F8D11379734538
:10B1C000F5D152F80C000028F1D0204900234A683C
:10B1D0000133824212D0102B01F12401F7D14FF03C
:10B1E000FF3303EBC3031A4A02EB830393F82030C7
:10B1F000002B7FF42FAFC9F8088030E7DBB2013BAA
:10B20000EFE7019B002B7FF407AF08F120080B4B01
:10B2100098457FF4CCAE22E7012F3FF4E0AE08F171
:10B220002008064B98457FF4C2AE18E7781B012032
:10B230002C0200205C6F060888F20508A8F30508B8
:10B240005C1600200000FEBF94EE050804000120FB
:10B250000000012060060020042C71D04FF486739A
:10B2600003FB05B318690590002800F01A83996064
:10B27000013106924FF05402CCB283F8102183F8CA
:10B2800011416B1CCBF80430059B5F7918461E6892
:10B29000079717F063F8C3B2022B00F2328300F174
:10B2A000010EA7494FF0000C069A0EEB4E0EB84661
:10B2B0004FEA8E0E06E00CF1010C2C31BCF1170F99
:10B2C00000F01F830B689E42F5D10B794345F2D104
:10B2D00051F80E70002FEED02C2300EB400099495E
:10B2E00003FB0CF3DFF89C8203EB800340460B4426
:10B2F000D3F8BC124FF4867303FB05B3C3E907719F
:10B3000000214368BB422CD0013124301029F8D1F0
:10B310008D4B13F8042CBAB9542203F8034C03F8EC
:10B32000042C11E0C7F12F07360402FA07F3624636
:10B3300043EA0E036365049B9E61FCF789FE05E703
:10B340000323824A82F8DB36814B82488249834A52
:10B35000C3F82404C3F81C14C3F82C2419B0BDE8A6
:10B36000F08F4B1C7849DBB2013B03EBC30301EBCD
:10B37000830393F8201008910029E5D14FF48671DA
:10B38000774883F821404FF08C0C01FB05F1062A29
:10B390000C464FEAA10100FB01F17248069400F54A
:10B3A0004C7E0BEB0400049CC0F800C10CFB01FCBC
:10B3B00001EB4101C46001EB01116A4C0EEB4C0E34
:10B3C00004EB81044FF05401C0F8FCE083F8201036
:10B3D0004FF033030699C0F8B830634BC0F8B4405F
:10B3E00003EB0104594BD3F8981600F04882072A62
:10B3F0005E4B5F485F4A18BF1A465F4B18BF034653
:10B400003046B1FBF3F3B1FBF2F2013B511E4FF4B6
:10B4100086729BB202FB05B2A2F8BC10A2F874308F
:10B420002366069B03F158014F4B19440023A4F8EF
:10B4300058306366E3654FF0C9FE3368079A43F0FE
:10B44000800333600C2A0ED8DFE812F0AA010D0049
:10B450000D000D0089010D000D000D00C9010D004A
:10B460000D000D0066014FF486730222304603FB87
:10B4700005B359693368049123F001033360002355
:10B48000129315931793602310934FF480731693C0
:10B49000012311930A23CDE9133210AA4FF04EFD78
:10B4A0000499B1F5807F00F01E8200F2EB81102933
:10B4B00000F0238200F20A82012900F01B82042995
:10B4C00015BF4FF4006308233C20002006F118024A
:10B4D00011580B431350059B1879002840F0A481A4
:10B4E000336843F0010333600023D8F804200133AC
:10B4F000974200F09581102B08F12408F5D14FF008
:10B50000FF33114A03EBC30302EB830358681B4B61
:10B51000984214BF962095204CF0C2FA079B0C2B42
:10B5200000F27C81074A02EB4303B3F8C0774FF483
:10B530008673134903FB05B31F8300232BE000BF71
:10B5400094EE0508E8EB050800000120781B0120B7
:10B550001C130020C5EB0108C1EB0108CDEB01086D
:10B560006B4CA407581700202C02002044950800BB
:10B57000D0DD06001055220040771B00006002401D
:10B58000800C002004000120964200F0A7810133C6
:10B59000042B00F0B98151F83320002AF4D1DBF8F4
:10B5A000582A0132CBF8582A0BEBC302DB00C2F851
:10B5B0005C6A19440898234690228E8837430026F7
:10B5C0008F80BA49FFF7B0FC4FF4867340214FF4E7
:10B5D000403C03FB05B70423B548FD692A6842F0E7
:10B5E00010022A602A6842F014022A60C4F8A86097
:10B5F000C4E91F66C4E928663A6AA1674FF480610E
:10B60000C4F898C04FF4804CC4F89C30C4F884103F
:10B61000E9B2C4F8942004921039D7F8B820A0FBFE
:10B62000010125F0FF00C4F890204FF48052D7F8B4
:10B630000C80D940C4F88820069B08F118020791B5
:10B6400008F11008226703F170029A4B05901A4422
:10B65000D7F8B430C4F88CC063674FF0C9FED5F892
:10B6600000E0069BC4F820E0D5F814E003F1B8022E
:10B67000904BC4F824E0D5F804E01A44049BC4F8C5
:10B6800028E0D5F808E00799C4F82CE0D5F80CE0DC
:10B69000C4F8DC300423C4F8C860C4F8E4304FF4C4
:10B6A0008063C4F8F060C4F8CC304FF40033C4F8C1
:10B6B00030E0C4F8E0300598C4E93066C4E93A6681
:10B6C0004FF40066D7F80031C4F8B880C4F8D060F1
:10B6D0004FF48046C4F8D830D7F8FC30C4F8D460B2
:10B6E000C4F8BC304FF084FE2B68B9F80460636383
:10B6F0006B69A3636B68E363AB682364EB686364A3
:10B700002B6843F010032B602B6843F014032B606D
:10B71000D9F800300493E2E433684FF486724FF4B2
:10B7200080514FF0020E23F0010302FB05B23046B8
:10B73000516110AA3360002312931593179360236D
:10B7400010934FF480731693012311930A23CDE9CC
:10B75000133E4FF0F3FB4FF400630420B6E633686A
:10B760004FF486721021022023F0010302FB05B280
:10B77000516110AA3360002312931593179360232D
:10B7800010934FF480731693012311930A23CDE98C
:10B79000133030464FF0D2FB00204FF4006395E6A3
:10B7A00033684FF486720121304623F0010302FB17
:10B7B00005B2119151610222336000231293159357
:10B7C0001793602310934FF4807316930A23CDE9E7
:10B7D000133210AA4FF0B2FB0020082376E633683C
:10B7E0004FF486724FF48071022023F0010302FBB4
:10B7F00005B21691516160223360002312931593B4
:10B8000017930123CDE910230A2310AACDE91330A1
:10B8100030464FF093FB0823042057E6002786E6C6
:10B82000DBB20893013B6CE616F02CFE10B3059BCF
:10B8300021491B7A214A049303680990194405930E
:10B8400002EB912191F8E4004CF02AF9049B099A4B
:10B850000AA90F93059B049218460023CDE90C33E7
:10B860000E9393880A9302230B934FF013FD5423F6
:10B87000049AD380736C43F40043736430E6104A37
:10B88000104BBDE5B1F5805F30D0B1F5803F27D0DA
:10B89000B1F5806F15BF4FF4006308233C200420EE
:10B8A00014E60223084A82F8DB364DE59D80000845
:10B8B000ABAAAAAA2C0200200000FEBFE8EB0508F4
:10B8C000882A1100A0BB0D00781B0120402915BF5C
:10B8D0004FF4006308233C200020F7E5DB0068E616
:10B8E00008233C20F2E508230420EFE54FF4006331
:10B8F0000420EBE500200823E8E500204FF4006376
:10B90000E4E500235B68FFDE00239B88FFDE00BFC9
:10B910002DE9F84F6D4EC0EB001306EBC303D3F8CF
:10B92000DC46002C00F08A8093F84C87054607011E
:10B9300040464CF0B5F801224FEA581308F01F08B2
:10B94000013B02FA08F2032B08D8DFE803F0ADB39D
:10B9500002B95F490B6A23EA02030B627B1B05F104
:10B96000010B06EBC3035FFA8BFB93F8E00616F0BE
:10B9700089FD804618B1122380F807B083717B1BC4
:10B9800006EBC30393F8E10616F07CFD824618B17E
:10B99000132380F807B083717B1B06EBC30393F876
:10B9A000E20616F06FFD814618B1142380F807B047
:10B9B00083717F1B50462E2106EBC70696F8E426BE
:10B9C00016F0B0FD96F8E52648460E2116F0AAFDC1
:10B9D00096F8E3262E21404616F0A4FD23683D4A42
:10B9E00023F04003944223602AD03B4B9C4231D148
:10B9F00003F500331A6A42F480421A621A6A22F48A
:10BA000080421A62636843F48053636023685B0674
:10BA10000CD4206840F217323049314B01400A43C0
:10BA200022606268134043F4E0636360E36923F4D7
:10BA30000063E361236843F040032360BDE8F88FAF
:10BA4000234B5A6A42F480525A625A6A22F4805254
:10BA50005A62D7E7234B9C421BD0234B9C420DD00C
:10BA6000224B9C42CED103F568435A6A42F48012BD
:10BA70005A625A6A22F480125A62C3E703F582338B
:10BA80005A6A42F400525A625A6A22F400525A62C6
:10BA9000B8E703F5FE331A6A42F400421A621A6AE2
:10BAA00022F400421A62ADE709494B6923EA020316
:10BAB0004B6153E706494B6A23EA02034B624DE7A9
:10BAC00003490B6923EA02030B6147E7781B012056
:10BAD0000038024000300140003800404000FFFFC5
:10BAE000FBF0FFFF003C00400034014000500140EB
:10BAF00030B40469002341684025E46882690C3150
:10BB0000546244699560536093631160C2E90333E2
:10BB1000C2E90533C2E90733C2E90A33C2E90C338B
:10BB200084B1C269E068936350621160C2E9013375
:10BB3000C2E90333C2E90533C2E90733C2E90A3374
:10BB4000C2E90C3330BC7047114A037A0168D35CF8
:10BB500010B4CC58CA1824F00104CC501368DB0789
:10BB6000FCD4037D1F2B09D9203B20225DF8044B18
:10BB700002FA03F343F01803CB60704720225DF80C
:10BB8000044B02FA03F343F018038B60704700BFC5
:10BB90006C6F0608F0B50668356A00295DD12B6820
:10BBA000AC68B769002B60D09C46344B0CEA0303A9
:10BBB000B3F1005F5DD00CF01F0104F11F032CF006
:10BBC0001F02194421F01F01BFF34F8F00290BDD25
:10BBD000114402F12003DFF8A8E08B42CEF868227E
:10BBE0001A4603F12003F8D1BFF34F8FBFF36F8FD5
:10BBF00002684FF480637B615369C7F804C03C62FC
:10BC000053B36B68F569002B35D01E461B4B334090
:10BC1000B3F1005F1BD006F01F0104F11F0326F0F3
:10BC20001F02194421F01F01BFF34F8F00290ADDC5
:10BC3000114402F1200312488B42C0F870221A46C8
:10BC400003F12003F8D1BFF34F8FBFF36F8F4FF491
:10BC500080636E606B612C62F0BDEC69002CFBD0E0
:10BC60006B691435B769002B9ED1DFF81CC03246D2
:10BC7000C1E73246BDE7034EEBE700BF0000FFFF20
:10BC800000ED00E01C000020180000202DE9F0412C
:10BC90000468D4E904351A7DD3E90061002D4DD044
:10BCA0001F2AA86138D820202F6800FA02F242F03B
:10BCB0001802B2602A7D1F2A39D9203A202000FAC2
:10BCC00002F242F01802FA606A6800200860106010
:10BCD0003046116841F01001116093F80880A269A4
:10BCE00041464FF085FB2D7AE269384629464FF0F0
:10BCF0007FFB274B626813F80800595D335843F007
:10BD0000010333507B5843F001037B50536843F0E9
:10BD100003035360BDE8F081203A20202F6800FA29
:10BD200002F242F01802F2602A7D1F2AC5D82020B4
:10BD300000FA02F242F01802BA60C5E71F2A9861C1
:10BD40001ED8202000FA02F242F01802B26000224F
:10BD500030460A600A6842F010020A601D7AA26941
:10BD600029464FF045FB0A4B6268595D735843F012
:10BD700001037350536843F002035360BDE8F08140
:10BD8000203A202000FA02F242F01802F260DEE7C8
:10BD90006C6F0608014B43F8201070475028004094
:10BDA0002DE9F041A14CA4B0D4F85C38022B00F08E
:10BDB00039829F489F4AA049121A52F089FB9F4836
:10BDC0009F4AA049121A52F083FBD4F85838012B2D
:10BDD00000F2C08003EB43039B4A9C4E02EB4300FE
:10BDE00032F8132041888388C6E99121C6F84C3285
:10BDF000974C984D984BB2FBF1F2984901FB02F237
:10BE00000021C5F89826D4F8882042F47002C4F8BE
:10BE100088201A6842F001021A609960904A1868F6
:10BE2000024090481A60C0F308078F4A5A601A68A7
:10BE300022F480221A60D96007B1FEE78B49A06026
:10BE40004FF6FF000A688A4B42F400720A60E2680B
:10BE500002401343E3604DF039FCBFF34F8FBFF353
:10BE60006F8FC4F85072BFF34F8FBFF36F8F63694A
:10BE700043F400336361BFF34F8FBFF36F8FC4F898
:10BE80008470BFF34F8FD4F8803043F6E07CC3F367
:10BE9000C90EC3F34E33580100EA0C01734641EA60
:10BEA0008372013B5F1CC4F86022F8D1203810F186
:10BEB000200FF1D1BFF34F8F636943F48033636187
:10BEC000BFF34F8FBFF36F8F6849634B0A6842F42B
:10BED00080720A60196C674A41F080511964196CCC
:10BEE00001F0805102910299116841F440411160C2
:10BEF0001268D6F8444202F440420192019A9A68CC
:10BF000002F00C02042AD6E9927100F08B809A6844
:10BF100002F00C02082A00F081804F4A136843F4B3
:10BF200080331360D5F8BC0804E0D5F8BC381B1A80
:10BF3000642B72D813689B03F7D5474A936803F0C4
:10BF40000C03082B69D0136823F080731360D5F8B5
:10BF5000BC0808E03D4ED6E9912149E7D5F8BC3848
:10BF60001B1A022B59D813689E01F7D40B067908C7
:10BF700043EA8413013943EA01433F4919435160BD
:10BF8000136843F080731360334AD5F8BC1804E09B
:10BF9000D5F8BC385B1A022B3FD813689801F7D547
:10BFA000136C43F080531364136C324A03F08053D4
:10BFB0000393039B136843F480331360D5F8BC18D4
:10BFC00005E0D5F8BC385B1AB3F57A7F2DD85368F5
:10BFD000DB03F6D51368274943F400331360D5F823
:10BFE000BC2805E0D5F8BC389B1AB3F57A7F1CD87D
:10BFF0004B689E03F6D54FF400124FF0006304A87F
:10C0000004924FF4C07221930723CDE90823032340
:10C010000A9345F027FA88B3FEE7FEE75B685A0209
:10C020007FF57BAF0C4B1B6887E7FEE700200040E5
:10C0300000000000083F000034F706080000002060
:10C0400024020020B5530708C4F3050800000120AE
:10C0500000ED00E0781B01200038024040420F0054
:10C06000FFFFF6FE0000000810300024003C0240F4
:10C070000003FA0500700040080040206C4A136875
:10C0800003F00F03062B0AD8136823F00F0343F0C5
:10C0900007031360136803F00F03072B69D1654B87
:10C0A0009A6842F4E0529A609A6842F460429A6058
:10C0B0009A6822F0F0029A601A68900159D59A683D
:10C0C00041F2883022F0030242F002029A60D5F871
:10C0D000BC1804E0D5F8BC28521A824249D89A68A4
:10C0E00002F00C02082AF5D1514A136819070AD543
:10C0F000136823F00F0343F007031360136803F082
:10C100000F03072B35D1DFF82C814B4ED8F80830C0
:10C1100023F4E05343F4A053C8F80830D8F80830AB
:10C1200023F4604343F40043C8F8083045F06CF949
:10C13000D8F80830C3F30313334493F8E83720FAF0
:10C1400003F3C5F898364DF0C1FA002304A8CDE9F1
:10C150001333CDE91533CDE91733CDE91933CDE9E3
:10C160001B33CDE91D33354B049345F07BF908B102
:10C17000FEE7FEE702234FF0007204A8CDE9063384
:10C18000D823CDE9042301230B9345F06BF900B1CB
:10C19000FEE7D8F88C3023F08073C8F88C30D8F8DC
:10C1A0008C3043F08073C8F88C30D8F8083003F036
:10C1B0000C03042B31D0082B12D0214B2149B4FBA6
:10C1C000F7F201FB02F21B498968C1F303110E4427
:10C1D00096F8E817CB409A42C5F898361FD0FEE78C
:10C1E000D8F80430D8F8042013F4800FD8F80430BD
:10C1F00002F03F0218BF1449C3F3881308BF104967
:10C20000B1FBF2F202FB03F30A4A5268C2F30142A5
:10C2100001325200B3FBF2F3D0E70B4BCEE724B070
:10C22000BDE8F08100210320FFF7B4FDFEF71EFA00
:10C23000003C024000380240E8EB0508C0FF030064
:10C240000024F40040420F0000127A00204B2148E5
:10C25000196C214A41F0805130B4196482B0196CD4
:10C26000FF2401F0805101910199016841F480712E
:10C270000160CA20196C41F480611964196C01F4E1
:10C28000806100915321009D5462506251625B6F46
:10C29000DB0013D4114B00221149C3F85428C3F812
:10C2A0005828C3F85C28C3F86028C3F86428C3F88A
:10C2B0006828C3F8501802B030BC7047A2F500627D
:10C2C000074BD2F850289A42E4D102B030BC7047F4
:10C2D000003802400070004000280040002000406C
:10C2E00031666542800AA0F58010522808D8054BB7
:10C2F000034493F858320D2B02D8034AD0567047A6
:10C3000000207047E8EB05085C6F06082DE9F84F40
:10C31000D0F894700446524B00F16406FDB227F049
:10C32000FF09826800F1180A103D4846D2F80080E3
:10C33000A3FB05352D0929464FF0A2F8626D0023B5
:10C34000B2F5807F84F858307ED00DD8102A00F0E6
:10C3500083805CD8012A45D0042A16BF6FF400619F
:10C360006FF008013C230EE0B2F5805F70D0B2F5AB
:10C37000803F3AD0B2F5806F15BF6FF400616FF067
:10C3800008013C230423324608F11806404656F8BB
:10C3900003C001EA0C01F150D4F854B059464EF0F4
:10C3A000CDFDBBF5807F2DD023D8BBF1100F3ED043
:10C3B00036D8BBF1010F02D0BBF1040F33D14FF0DF
:10C3C000080C336852462946484643EA0C0333605A
:10C3D000402323624FF00CF83B6843F010033B60AE
:10C3E000BDE8F88F6FF00801CDE76FF008013C233E
:10C3F000C9E7BBF5805F22D0BBF5803F1AD0BBF503
:10C40000806F10D108F11C064FF0080CD9E7402AC4
:10C4100015BF6FF400616FF008013C230023B2E701
:10C42000BBF1400FCBD03C364FF4006CC9E74FF462
:10C43000006CC6E708F154064FF0080CC1E708F19C
:10C440001C064FF4006CBCE76FF0080104239AE768
:10C450006FF40061042396E76FF4006193E700BF77
:10C46000ABAAAAAA2DE9F04F884C87B023781BB954
:10C47000012007B0BDE8F08F854BDFF828B2D3F874
:10C48000F432049316F084FB9BF8003C002B00F080
:10C49000F78004F5AB64DBF83C33ABF1B40A0BF581
:10C4A0000B78C31A2646002705940193019A002AA7
:10C4B00003DBF36D934200F3C98007EB8703734AF4
:10C4C00002EB431393F8B03503F0FF0E002B00F09E
:10C4D0008680D6F89410B3686E481A68CBB221F003
:10C4E000FF01103BA0FB03036B481B09C35C0B441B
:10C4F000B1895C68D368A4B223EA0103C4F11604CD
:10C50000D360072C6BD9DBF83432002201210133D0
:10C5100015468946CBF83432D6F89C30CDE902E78F
:10C5200018689C4615E0142D1EDC17F1080E48BF54
:10C5300007F1170E4FEA2E1705EB2E1507F1FF3EF8
:10C54000013102FA07F709FA0EFE8C424EEA0702A1
:10C550000AD307468C425CF8040FA0EB0707E2D829
:10C56000C5F115071525E9E7152DDDE902E764D1C9
:10C570004A4CC2F38421C2F3441004EB810104EB62
:10C580008000D1F8F817D0F8F807090241EA001145
:10C5900002F01F00C2F3C43204EB800004EB8202FD
:10C5A000D0F8F807D2F8F827014341EA023282EACC
:10C5B000122181EA111101F00F010F293DD1C2F3BF
:10C5C0000F124FF6FF718A4237D0B2F5606F41D03B
:10C5D000A8F80C207146049A504614F0EFF9304642
:10C5E0000137FFF793FE9BF8003CA0360AF15C0A86
:10C5F000BB4208F114083FF759AF01210022059C06
:10C600008BF83213CBF83C23002B3FF431AF03EB14
:10C61000830304EB4313A268A03414F8901C12683F
:10C6200054F84C0C11F0020F116A14BF41EA80015A
:10C6300001439C421162EED11AE7DBF8302201324D
:10C64000CBF83022B7B14FF0000EC3E7002007B09F
:10C65000BDE8F08F0E4991F86C3303EB430301EB17
:10C66000C3033B4493F819330D2BB1D1802388F8D1
:10C670001E30AFE719465822094851F029FFE2E77A
:10C680000122CBF83C338BF83223F1E62402002060
:10C69000781B0120ABAAAAAA6C6F0608E8EB050874
:10C6A000F41500201C130020F8B5830AA3F58013AD
:10C6B000522B52D804465748034493F858020D2889
:10C6C0004BD8554D860105EB8013D3F8C078A742AF
:10C6D00043D00139C3F8C04889B2C3F8CC18D5F8A3
:10C6E0009816B1FBF2F100220139C3F8D028C3F843
:10C6F000C828C3F8D42893F8FD28C3F8C41802F05A
:10C70000FF015AB345490223AF1901EB80112046BE
:10C7100087F8FD38043145F02BF90123B4F1804F3F
:10C7200087F8FD383E4BA4EB0303B3FA83F34FEADB
:10C73000531316D0ABB93B4A944257D002F58062EE
:10C74000944253D0384902F57C42944218BF8C423F
:10C750002FD002F5705294422BD0F8BD83F8FC180C
:10C76000D0E7AA1992F8FC180129F6D0022182F824
:10C77000FD182E49A06801400020A160012182F827
:10C78000FD18AA19022182F8FD186268A16803B990
:10C7900008B122F470022E4422F0700221F08001D0
:10C7A000012000236260A16086F8FD0886F8FC384D
:10C7B000F8BDAA1992F8FC180129CED0022182F8FE
:10C7C000FD181A49A06801401948A1600121201AEA
:10C7D00082F8FD180021B0FA80F082F8FC18124AA5
:10C7E00040099442CDD00028CBD1F8BDAB1993F8C5
:10C7F000FC28012AB1D002210C4A83F8FD18A06858
:10C800000240A260012283F8FD2883F8FD186268C7
:10C81000A168C0E7E8EB0508781B01203824012057
:10C820000000014000040040000C00408800FEFFB2
:10C830000004014070B50468A30AA3F58013522BCD
:10C8400005D82D4E334493F858520D2D00D970BDA4
:10C850002046FFF729FF294BA801022203EB85158B
:10C86000D5F8C01885F8FD28254A8D682A40062A83
:10C8700006D0B2F5803F03D00A6842F001020A6098
:10C880001A180121002382F8FD181E4951F833209F
:10C8900094420AD001330E2BF8D1012100204CF034
:10C8A00009FD194B01221A6070BD06EBC306012178
:10C8B00096F97D4896F87D5820464CF0FBFC002CFC
:10C8C000C5DB05F01F0201216B090F4C01FA02F2D2
:10C8D0001B2D44F8232006D119204CF0EBFC4FF01F
:10C8E0000073236070BD2E2DB1D12C204CF0E2FCE2
:10C8F0004FF48053636070BDE8EB0508781B01209E
:10C900000700010060F4050800E100E0890AA1F5D4
:10C91000801152292CD81D4B0B4410B593F858E2C6
:10C92000BEF10D0F23D8EFF31184502383F3128847
:10C930000368F3B1191D436200F1100200F1200CED
:10C9400052F8043F0BB10B60191D9445F8D1002239
:10C95000E3B20A6083F31188436A6BB10C4B03EBBB
:10C960008E13D3F8C028D36843F00103D36010BD01
:10C97000704700F12401DFE7054B03EB8E13D3F87A
:10C98000C028D36823F00103D36010BDE8EB05088D
:10C99000781B0120F0B40D4601688B0AA3F58013C3
:10C9A000522B2AD81B4C234493F858320D2B24D8F1
:10C9B000194E4FF0020C407906EB8314D4F8C0787E
:10C9C00020FA0CF403EB83000CFA04FC03EB4000A8
:10C9D0002044FC689DB144EA0C0406EB800CCCF8C2
:10C9E000845CCCF8942CFC6003EB83020B4803EBD3
:10C9F0004203F0BC00EB830088E7F0BC704724EAF8
:10CA00000C04FC6006EB8004C4F8845CC4F8942C2D
:10CA1000EAE700BFE8EB0508781B0120F8270120B2
:10CA200001490248FCF73CBCF82701200000014006
:10CA300010B5064C064804F54861FCF731FC04F6D5
:10CA40000C610448BDE81040FCF72ABC781B0120AB
:10CA5000000001400044014002494FF08040FCF7D3
:10CA60001FBC00BF2428012001490248FCF718BC64
:10CA7000502801200004004001490248FCF710BC86
:10CA80007C2801200008004001490248FCF708BC4E
:10CA9000A8280120000C0040F8B5164D164E2A6952
:10CAA000EB681A404FF00040B2FA82F3EAB120FA84
:10CAB00003F3012A6FEA030302EA03012B610A462A
:10CAC000F2D1D6F8847D8FB1013F0023BFB2C6F802
:10CAD000843DD6F8804D34B12368204639469847C6
:10CAE0006468002CF8D10022DCE7F8BDEF6ABFB221
:10CAF000EFE700BF00100040781B01200149024809
:10CB0000FCF7CEBB2C2901200004014010B5064CD7
:10CB1000064804F6B451FCF7C3FB04F56961044808
:10CB2000BDE81040FCF7BCBB781B012000040140AD
:10CB3000001C004001490248FCF7B2BB5829012003
:10CB40000040014001490248FCF7AABBB02901207E
:10CB50000048014001490248FCF7A2BBDC29012042
:10CB6000001800402DE9F04F4FF4257297B00021D6
:10CB7000704851F0A3FD704B704D00275A6CA5F61C
:10CB8000E806A5F1700442F001025A645A6C02F002
:10CB900001020292029A1A6C42F001021A641A6CA3
:10CBA00002F001020392039A1A6C42F002021A6424
:10CBB0001A6C02F002020492049A1A6C42F0040207
:10CBC0001A641A6C02F004020592059A1A6C42F07B
:10CBD00008021A641A6C02F008020692069A1A6C8D
:10CBE00042F010021A641A6C02F010020792079ABF
:10CBF0001A6C42F020021A641A6C02F020020892A9
:10CC0000089A5A6C42F002025A645A6C02F002020C
:10CC10000992099A5A6C42F480325A645A6C02F4AE
:10CC200080320A920A9A5A6C42F400325A645A6C60
:10CC300002F400320B920B9A5A6C42F480225A642E
:10CC40005A6C02F480220C920C9A1A6C42F0400248
:10CC50001A641A6C02F040020D920D9A1A6C42F09E
:10CC600080021A641A6C02F080020E920E9A1A6CFC
:10CC700042F480721A641B6C03F480730F930F9B51
:10CC800055F82710002354F8332091424CD001333B
:10CC90000E2BF8D1002008374AF002FFB7F51C7FB1
:10CCA000EED1264F05F51C694FF00008BB79F3B1B2
:10CCB000387915F0E7FB8246C8B1D0F800B02048BB
:10CCC0003B7A5844019306EB902090F8E4004AF038
:10CCD000E7FE0223BAF8042010A958461092CDE9C5
:10CCE0001138019BCDE9138815934EF0D3FA203704
:10CCF0004F45DBD1002755F82710002354F8332087
:10CD000091420CD001330E2BF8D1002008374AF0A5
:10CD1000C7FEB7F51C7FEED117B0BDE8F08F06EB6C
:10CD2000C30393F87C08F1E706EBC30393F87C0890
:10CD3000B1E700BFF827012000380240D0F4050811
:10CD40000000FEBF08B572B6FDF790FC70B5032079
:10CD500082B0FDF79DFC01284ED0334C0025334AAC
:10CD60000523C4F89850C4F89C50C4F8A020C4F817
:10CD70009430BFF34F8FBFF36F8F4FF6FF01E26820
:10CD80002B4B0A402B4E13432B4AE360536FC6F8DC
:10CD9000143F44F039FB294B2949A3FB0023D4F865
:10CDA000FC209B0C42F08072C4F8FC20C6F8FC32D8
:10CDB000D6F89836234AA1FB031323499B09C2F8EE
:10CDC000B01F5560013B1168B3F1807F41F0010154
:10CDD000116007D34FF0E022136943F0040313619D
:10CDE00002B070BD4FF0E022F0215361072384F8B8
:10CDF000231095611361EDE702210320FEF7CAFFBE
:10CE00000D4B12485A6C124942F480425A645B6CD2
:10CE100003F480430193019A02680B68026083F374
:10CE200008884B689847FEE700ED00E01B0000060D
:10CE30000005FA05781B01200038024083DE1B4301
:10CE4000D34D6210001000E055CEACC50038014053
:10CE50000000F01F2DE9F0472422D0F8205181680E
:10CE60000023C0F8942104462A6800F5907622F049
:10CE700001022A602B606B60AB60C0F89C3180F8C7
:10CE80009031C0F89431C0F824114079C4F8983139
:10CE90008202C4F83831C4F8403102F48052237958
:10CEA000C4F82821020313F0010702F40052C4F869
:10CEB0002C214FEA002202F48062C4F8302103F0F2
:10CEC000020240F0C680002A40F0EC80C4F83471C1
:10CED000B14B03F1200153F8042F944200F0F78086
:10CEE0009942F8D10207D4F8943140F10481002B23
:10CEF00000F0358124233046C4F894312B6823F0A8
:10CF000001032B6044F0C8FD012817D0D4F8443148
:10CF1000002B40F02E816B6823F490436B60AB686C
:10CF200023F02203AB60AB6843F00803AB603046EC
:10CF30002B6843F001032B604EF0CCFB002F5CD03C
:10CF4000D4F8FC70002F00F0F080D4F8043104F124
:10CF50003C08C4E90F7300234046C4E91133C4E917
:10CF60001433C4E91833C4E91A334FF48033E3654A
:10CF70004FF48063E3644FF48073A3654EF02CFE9E
