:020000040800F2
:100000000010002071020008C1020008C1020008AF
:1000100000000000000000000000000000000000E0
:10002000000000000000000000000000C102000805
:100030000000000000000000C1020008C10200082A
:10004000C1020008C1020008C1020008C102000884
:10005000C1020008C1020008C1020008C102000874
:10006000C1020008C1020008C1020008C102000864
:10007000C1020008C1020008C1020008C102000854
:10008000C1020008C102000800000000C10200080F
:10009000C1020008C1020008C1020008C102000834
:1000A000C1020008C1020008C1020008C102000824
:1000B000C102000800000000C102000800000000AA
:1000C000002243088B4274D303098B425FD3030A97
:1000D0008B4244D3030B8B4228D3030C8B420DD3AA
:1000E000FF22090212BA030C8B4202D31212090238
:1000F00065D0030B8B4219D300E0090AC30B8B4276
:1001000001D3CB03C01A5241830B8B4201D38B0323
:10011000C01A5241430B8B4201D34B03C01A5241C8
:10012000030B8B4201D30B03C01A5241C30A8B420B
:1001300001D3CB02C01A5241830A8B4201D38B02F6
:10014000C01A5241430A8B4201D34B02C01A52419A
:10015000030A8B4201D30B02C01A5241CDD2C3090C
:100160008B4201D3CB01C01A524183098B4201D388
:100170008B01C01A524143098B4201D34B01C01A73
:10018000524103098B4201D30B01C01A5241C308EB
:100190008B4201D3CB00C01A524183088B4201D35A
:1001A0008B00C01A524143088B4201D34B00C01A46
:1001B0005241411A00D20146524110467047FFE7B2
:1001C00001B5002000F006F802BDC0460029F7D0B6
:1001D00076E770477047C0460448054B10B5834228
:1001E00003D0044B002B00D0984710BD0400002022
:1001F000040000200000000006480749091A8B107F
:10020000C90FC91810B5491003D0044B002B00D0FA
:10021000984710BD040000200400002000000000EA
:1002200010B5074C2378002B09D1FFF7D5FF054BFC
:10023000002B02D0044800E000BF0123237010BD52
:100240001E02002000000000400E0008054B10B503
:10025000002B03D00449054800E000BFFFF7CCFFA6
:1002600010BDC0460000000020020020400E000823
:100270000D4885460D480E490E4A002302E0D45829
:10028000C4500433C4188C42F9D30B4A0B4C0023DE
:1002900001E013600432A242FBD300F097FA00F0B1
:1002A000A1FD00F0CBFAFEE70010002000000020C6
:1002B00004000020600E0008040000203802002026
:1002C000FEE7F7B500254B680A6800935F1E130030
:1002D000EB4009D1012F05D84368C96893434A43CD
:1002E000134343600020FEBD01241300AC402340B3
:1002F00022422BD01A0003265A435643B446F643F3
:10030000019666460468B443009E56433443046035
:10031000012F06D88C6887685443019E37403C43C0
:1003200084600C69C7685443019E37403C43C460F5
:10033000009C022C0AD14C69FF2B09D80F2652438E
:1003400056436243036AB3431A4302620135BAE774
:100350000F261B0A5B435B435E435C43426AB24326
:1003600022434262F2E700002E4A030090420AD183
:1003700080222D4B1201D9680A43DA60DA682B49D2
:100380000A40DA600BE08022D205904209D10121B7
:10039000254B1A690A431A611A698A431A610020B7
:1003A0007047234A904203D11F4B02211A69F1E79B
:1003B000204A904203D11C4B10211A69EAE71E4AD9
:1003C000904209D18022184B520019690A431A61E0
:1003D0001A691A490A40E1E7194A904208D1802275
:1003E000114B5202D9680A43DA60DA681549C7E747
:1003F000154A904208D180220B4B9202D9680A43D9
:10040000DA60DA681149BBE7114A01209342C7D18B
:100410008022054BD202D9680A43DA60DA680D49B6
:10042000AEE7C046002C014000100240FFF7FFFF7E
:10043000000400400010004000200040FFFEFFFFCD
:1004400000400140FFFFFEFF00440140FFFFFDFFB1
:1004500000480140FFFFFBFF10B51C4C0368A042A1
:1004600006D08022D205904202D0194A904208D18B
:10047000702293434A681343164A1A40CB681343C9
:100480000BE0154A9042F7D0144A9042F4D0144A37
:100490009042F1D0134A9042EED003608B68C36261
:1004A0000B888362A04208D00C4B984205D00C4BBD
:1004B000984202D00B4B984201D10B7C036301237D
:1004C000426913434361002010BDC046002C014027
:1004D00000040040FFFCFFFF0020004000400140FE
:1004E0000044014000480140FA2110B58900FFF79F
:1004F000E7FD0022034B013858609A6005321A600C
:1005000010BDC04610E000E0014B18607047C046C7
:10051000000000200123F0B5150087B00A430090C9
:100520000E0000201A4232D14A08294C0192E2689A
:100530001A42FCD123691B0603D5264B6360264B68
:100540006360AB050FD102332361656122693E33DD
:10055000134323610123E268110019401A42FAD1C2
:100560002023E36021610023012704930593059B69
:10057000019A93420DD380232269290013432361FA
:100580003200009800F018FC43425841C0B207B056
:10059000F0BD0599009B4900591802AB0222981D35
:1005A00000F044FC2761049B02AAD2885B191A80E0
:1005B000E3681A003A403B42FAD12023E36022610B
:1005C000049B02330493059B01330593CFE7C04698
:1005D0000020024023016745AB89EFCD10B500F044
:1005E00025FC10BD8021C9054A6A044B92B21A80CD
:1005F0004B6A9B1A9BB29842FAD8704704000020BD
:10060000F8B590260423F6050500B3623420FFF701
:10061000E9FF0824012704233D420DD0B361013CCA
:100620003420E4B2FFF7DEFF6D08002CF3D19023F5
:100630000422DB059A61F8BDB362F0E770B5124B96
:100640001B78012B03D00022104B5A8070BDE02292
:100650000F4C120623689B18802252029342F2D854
:100660000C4D0D4A2B689B188022D2029342EAD887
:1006700072B68020C005FFF777FE23682A689D4682
:1006800083F308881047E1E7007C0008040000209D
:10069000001000080410000800F0FFF7902230213D
:1006A000D205136800018B431360D3688B43034367
:1006B000D360704710B50120FFF7F0FF10BD902305
:1006C00004203022DB0510B5986119689143203A67
:1006D0000A431A605A6882435A603030FFF782FF3B
:1006E00010BD000010B5FFF7EAFFC120FFF788FF3B
:1006F000FFF7E0FF024A53880133538010BDC04624
:100700000400002010B5FFF7DAFF3020FFF778FF74
:10071000FFF7D0FF0022014B5A8010BD04000020DB
:1007200010B5FFF7CCFFC220FFF76AFFFFF7C2FF4B
:10073000024A53880133538010BDC0460400002094
:1007400010B5FFF7BCFF0024064B1B19187AFFF702
:1007500057FF01343420FFF745FF092CF4D1FFF790
:10076000A9FF10BDE00F000870B5144B144C5B6A74
:10077000A544DB001ED5134B1B780D2B1AD0013B73
:10078000DBB2FD2B16D8802268460F49D20000F05C
:100790004DFB6D460D2380260024AB70F6008021B2
:1007A000094B2819E21801344900FF34FFF7B2FE63
:1007B000B442F4D18023DB009D4470BD00100240A0
:1007C00000FCFFFF027C0008007C0008704700006E
:1007D000F7B500220D4B0400012710009C46019143
:1007E000019B934200DCFEBD0821A55C2B00664600
:1007F00043403B405B423340400801395840C9B256
:1008000080B26D080029F1D10132E9E701A0FFFFB4
:1008100070B50400074D01002800FFF7D9FF064B13
:100820001A5D2B5D12021343181A42425041C0B2A6
:1008300070BDC0461C0100201D0100201023F0B532
:10084000D84A8FB01168D84C0B431360012311684C
:1008500000AF19431160226813432360022322680A
:100860001A42FCD0F82322689A43783B1343236052
:100870000123626B134363630223626B1A42FCD051
:10088000F823626B9A43783B134363630123626AE4
:10089000134363620223626A1A42FCD06268C34B4C
:1008A0001A40A0239B0313430F226360E36A934320
:1008B000E362802322685B041343236080239B044C
:1008C00022681A42FCD0F022636893436360636835
:1008D000B74A13406360032362689A43013B1343A2
:1008E0000C22636063681340082BFBD1B148FFF70B
:1008F000FBFDB048FFF708FE122210200125131857
:100900000021D81900F066FAE36980262B43E361E1
:10091000E369F6052B407B617B692F233B84303BE9
:10092000BB621133DB18D9193000FFF795FD802128
:100930003368A14A8B433360B36818201340702298
:10094000B360736893437360B3688B43B360336879
:100950000021934333603368603A2B43336083183C
:10096000D81900F037FA80226369D2021343636119
:100970006369902013408022FB61FB6963699202E6
:10098000134363616369C0051340BB61BB69002306
:1009900004227B621033DB18D9193A623D63FFF7FA
:1009A00090FC0220FFF77AFEFA20FA254000FFF7BC
:1009B00019FE2D0190230422DB051B697F4E134293
:1009C00002D1B3880133B3800A20FFF70BFEE12385
:1009D000B2885B009A4200D9A8E0013D002DE9D120
:1009E0000120FFF75BFEFA20FA2490254000FFF774
:1009F000F9FD6400ED0504222B69134202D1B3888E
:100A00000133B3800A20013CFFF7ECFD002CF2D14A
:100A1000B388002B1DD02000B480FFF73FFEFA20E2
:100A200090254000FFF7DEFDF534FF34ED0504228C
:100A30002B69134202D1B3880133B3800A20013CF1
:100A4000FFF7D0FD002CF2D1B388002B01D0FFF7C7
:100A5000F5FD0020FFF722FEFFF786FE002381222E
:100A6000574D190052002800B3603373902400F0F2
:100A7000B1F9FFF71FFE0023BD607B60E405002392
:100A8000737380230421DB055A6A4E4892B2328088
:100A900023690B4251D08023DB055A6A82235B0015
:100AA0009C4692B2317B328004202369034257D1A5
:100AB0001630FFF797FD0422042123691A400B42E8
:100AC00044D1FA603A603420FFF78CFD23693A681C
:100AD0005B07DB0F9340FA681A43D3B2FB60737372
:100AE0003B6801333B60082BEDD13420FFF77AFDE2
:100AF00023695B072AD50123B27B3373002A65D0B3
:100B0000328AB36802329A4233D0BA68F968013344
:100B10001170B36081227B68520001337B60BB6837
:100B20000133BB607B689342A9D122E0636ADB009A
:100B300000D555E7FFF782FD52E78023DB055B6AAE
:100B40009B1A9BB28342A3D965237380337B002B0E
:100B50000FD17388642B00D880E7FFF76FFD7DE726
:100B60008023DB055B6A9B1A9BB263459CD90029F5
:100B70009AD0B37B002B32D0348A2000FFF748FE96
:100B800000284DD08022104B002118005200FB603D
:100B900000F020F90023A3423DDBFFF7B3FD002363
:100BA000B373D6E70020024000100240FFFFC2FFEF
:100BB000FFF8FFFF006CDC02F8BFFFFF040000201D
:100BC0001C010020204E00001C0000208023DB05BB
:100BD0005B6A31885B1A9BB2FA2B0FD9B2602B7C0F
:100BE00028787D2B1FD12B7A0D2BB2D16B7A422B1B
:100BF000AFD1FFF7A5FD00232B75AAE7BB68FA6804
:100C00001A7002237A68FF339A4200D082E7738811
:100C1000143373807EE7EA5CF968CA540133BAE79B
:100C2000FFF77EFD95E72B7D7D2B05D12B7B0D2BD3
:100C300002D16B7B422BDCD02B0028331B787D2B21
:100C400007D16B1CDB7F0D2B03D1AB1CDB7F422B51
:100C5000CFD0002810D1AA786B781343EA781343D9
:100C600001D165337380FFF72AFDC120FFF7C8FC6F
:100C700073880133738038E0012814D10130FFF705
:100C8000C7FD0028CCD07269494B9A4202D8FFF7C1
:100C900029FD5EE7318A4748FFF73CFC0028F6D083
:100CA000FFF730FD55E7FF2811D1FB38FFF7B0FD06
:100CB0000028B5D000237380EB78AA781B02134379
:100CC00080225BBA9BB212059B187361E8E7FE288D
:100CD00011D1FA38FFF79CFD0028A1D0AB78012B89
:100CE00006D0EB7833820123B373FFF7E3FC30E7E0
:100CF00080235B00F6E7FD280AD1FB38FFF788FD6B
:100D000000288DD0FFF7DBFCC120FFF779FCECE772
:100D1000022809D1FFF77CFD002800D180E7244B91
:100D200072699A42B3D9BBE703289CD16B4601385C
:100D3000FB60FFF76DFD002804D1FFF7F1FCFB68B5
:100D40009D4606E7B3680133B3606C78002C01D18F
:100D50000134FF34FFF7B3FC6A46E31CBB60073382
:100D6000DB08DB00D31A9D46E21C0021684600F038
:100D700031F8220068467169FFF730FC21006846AF
:100D8000FFF726FD6D46302328556C44000A60703D
:100D9000A3700024285DFFF733FC3420FFF722FC0A
:100DA000BB680134A342F5DCFFF784FCC7E7C0460B
:100DB000FF0F00081C00002030B500240139A242BA
:100DC00001D1002005E0035D01340D5DAB42F6D09A
:100DD000581B30BD03008218934200D17047197030
:100DE0000133F9E770B500260C4C0D4D641BA410BF
:100DF000A64209D1002600F023F80A4C0A4D641BD4
:100E0000A410A64205D170BDB300EB589847013637
:100E1000EEE7B300EB5898470136F2E7580E0008AA
:100E2000580E00085C0E0008580E0008002310B58C
:100E30009A4200D110BDCC5CC4540133F8E70000E5
:100E4000F8B5C046F8BC08BC9E467047F8B5C04629
:080E5000F8BC08BC9E46704787
:040E58004D0200083F
:040E5C002102000867
:040E600000127A0002
:100FE000DAE32559D963B84E343731021F060601BA
:040FF00030000000CD
:04000005080002717C
:00000001FF
