:020000040800F2
:1000000000000120197E0408B57E0408F1BB010838
:1000100045BA0108B57E0408B57E0408000000005A
:10002000000000000000000000000000B57E040891
:10003000B57E040800000000B57E0408E57B0108D9
:10004000B57E0408B57E0408B57E0408B57E0408B4
:10005000B57E0408B57E0408A59F0008AD9F000882
:10006000B59F0008BD9F0008C59F0008959D00082A
:10007000A99D0008BD9D0008D19D0008E59D0008D0
:10008000F99D00080D9E0008B57E0408B57E0408A1
:10009000B57E0408B57E0408B57E0408CD9F00082F
:1000A00099C7000895C60008A9C7000885C60008BA
:1000B000BDC60008CDC60008DDC60008BD98000812
:1000C000B1980008F1980008E5980008B57E04088A
:1000D000B57E04083D7B0108497B0108557B01087A
:1000E000D59F0008B57E0408B57E0408B9C700088E
:1000F00071C70008B57E040861C70008219E00088A
:10010000B57E0408B57E0408EDC60008B57E040877
:10011000617B01086D7B0108FDC600087535040888
:10012000359E0008499E00085D9E0008719E0008EB
:10013000859E000800000000000000000000000094
:10014000000000000000000000000000A5410408BD
:10015000999E0008AD9E0008C19E0008797B0108A9
:100160002599000819990008B57E0408B57E040891
:10017000B57E0408B57E0408000000000000000001
:10018000B57E0408B57E0408B57E0408B57E040873
:10019000B57E0408B57E040800000000B57E0408A2
:1001A000000000000000000000000000B57E040810
:1001B000B57E0408B57E04080000000000000000C1
:1001C000000000000000000000000000000000002F
:1001D000000000000000000000000000B57E0408E0
:10800000084A0346D0F8E4005268D3F8F010121A78
:1080100000209142B8BFC3F8F020012283F81C2150
:10802000704700BF001000E01B4B016803F57D7C2A
:1080300002E02C3363452BD01A688A42F9D170B51F
:1080400093F804E0427996450BD02C33634505D074
:108050001A688A42F4D02C336345F9D14FF0FF30CF
:1080600070BD9E4684680022DEF80C50A54208D000
:1080700001320EF10C0E032AE7D0DEF80C50A542B7
:10808000F6D1DEF81050C668B542F1D150B270BDDD
:108090004FF0FF30704700BFA09B04084368426D5B
:1080A00030B49A61EFF31182502383F31288416850
:1080B000D2B2856C0B68046D23EA050323430B6081
:1080C00082F31188436981681A68096822F0010205
:1080D000D0E908541A60826A1D605C615A60D0E978
:1080E0000B429C60DA600023B0F86C2030BCCA629E
:1080F00003777047002A4FEA014C034630B50ABFA8
:10810000E6468E468C4600F1C005002419680C3303
:1081100053F8042C43F8084C41EA0C0142EA0E02E1
:10812000AB4243F80C1C43F8042CEFD1D0F8C0301C
:1081300043EA0E03C0E93144C0F8C03030BD00BF8F
:1081400083695969B3F810C00A6830B49C6822F09A
:10815000010224680A60E26822EA0C02E260027D01
:1081600000681F2A06D9203A0824456894402C420A
:1081700042D0FEE70824056894402C42F9D120241F
:1081800004FA02F28260254A1278002A32D01A7F5D
:10819000012A36D0D3F800210132C3F80021EFF3D1
:1081A0001181502282F312885868C9B29D6C02680E
:1081B000DC6C22EA05022243026081F311885A69CD
:1081C0009968D3E90D40096814605061D3E90F4004
:1081D000546090605C6CB3F8B400D4600124C86251
:1081E0001068204310601A8A1C7783F8FD40CB6822
:1081F0001343CB6030BC7047202404FA02F2C26003
:10820000C1E70022D3F8040183F8FD2001300A6899
:10821000C3F8040122F001020A60EBE7C801002064
:1082200010B40C4C6368002B11DD002004F1080C25
:108230000146DCF8AC3003F1C00259600C339342C4
:10824000FBD1013063680CF5867C8342F1DC5DF87C
:10825000044B7047C8010020704700BF024B03EB7E
:10826000401393F855047047C8010020704700BFC1
:108270000B4890F86C1589B101EB4101002300F225
:108280007450490010B41C4650F82320063302B144
:1082900014608B42F8D15DF8044B7047704700BF03
:1082A000C80100200B4890F86C1589B101EB410121
:1082B000002300F27450490010B41C4650F82320EB
:1082C000063302B114608B42F8D15DF8044B70475D
:1082D000704700BFC80100200120704700EB40003C
:1082E000024B03EBC00393F885057047C8010020DB
:1082F000204890F86C35002B3AD0002200F27453DD
:108300004FF02C0C2DE9F0434FF0500E1A4E1B4D40
:10831000144607E053F8181B01320C6090F86C15F6
:10832000914223DD197C0029F4D05F684FF0FE08EC
:10833000B90AA1F580115229294498BF91F8F48314
:10834000EFF311818EF31288D7F824900CFB0868A4
:10835000C9B209F10109C8F82890D7F8148048F08B
:108360000108C7F8148081F31188D3E7BDE8F083D2
:10837000704700BFC801002070170120A09B0408AF
:1083800000EE100AB8EE400A704700BFBCEEC00A0B
:1083900010EE103A98B2704709494FF4EB7200237F
:1083A0004FF0230CC0F80210C2800649064A037041
:1083B000A0F808C0C0F80A104382C0F80E20704729
:1083C0004A01B400C2010E01960044000346012296
:1083D00000205A77704700BF826908B50346006BDA
:1083E000D96A02449A6101B18847002008BD00BFE4
:1083F000436A02461B681B6A5B685B7813F00100E6
:1084000008BF5077704700BFC2628161704700BFEC
:10841000704700BF043070470C4B93F89822D3F894
:10842000941202440144D2B2C3F8941283F8982201
:1084300093F89822120605D593F8982282F08002CC
:1084400083F89822024B01221A707047701701209E
:10845000000001202DE9F84F164FD7F89C52ED0A85
:1084600023D00026DFF850A007F52879B04674190C
:10847000D7F8A0124FF01003524648BF0134D1F88C
:1084800028B04846C7F8CC826410E102D8470F28CC
:108490000BDD094B03F1100153F8042B013207D116
:1084A0008B42F9D12546B542E1DCE802BDE8F88F00
:1084B000661CF8E77017012000000020194BD3F864
:1084C000D412D3F8D8228A1A322A15D8D3F8EC223B
:1084D0008A4200D37047D3F8DC22F2B110683231FF
:1084E000928810B44469C3F8EC1222425DF8044B40
:1084F00018BF120482617047D3F8DC1249B193F8B7
:10850000E822888802F001020968120100FA02F2EA
:108510008A610022C3F8EC2270473231C3F8EC12B2
:10852000704700BF70170120074BD3F8DC224AB117
:1085300093F8E832918803F0010312681B0101FAF5
:1085400003F393610020704770170120044B4FF430
:10855000007C0020D3F8F832A2F800C00B6070470E
:1085600070170120002070470120704701207047DC
:1085700000207047134BD0F8D8105B68D0F8E0208B
:1085800010B50446581A824200DC22B9D4F8E4201F
:108590000A44C4F8DC2094F8D020C4F8D830012A6A
:1085A00005D0D4F8D4300133C4F8D43010BD04F170
:1085B000E801201D0EF05AFDD4F8D4300133C4F880
:1085C000D43010BD001000E0CB070DD430B590F8CA
:1085D00028308DB0C468012B07D0B4F1807F01D959
:1085E000012303770DB030BD7047194B456AD3E9BD
:1085F000CA13B1EB930F4FEA93024FF0020306D276
:1086000052085B0091429BB201D2FF2BF8D9B4F122
:10861000807FAB80E6D90122002301A9B72402772D
:10862000284604928DF814208DF828208DF80440F7
:108630000B93CDE9021302A9CDE90633CDE9083346
:108640000EF014FD2A68136A002BFCD1CAE700BFA4
:108650007017012030B590F828308BB00446012BFC
:1086600008D0407F10B901200BB030BD00236377E4
:108670000BB030BD456A2B681A7B22BB637F002B91
:10868000F1D013490220002301220290081D8DF829
:108690000C208DF820200993CDE90010694628466A
:1086A000CDE90433CDE906330EF0E0FC2A68136A05
:1086B000002BFCD1074B5B7DD84303F0010300F096
:1086C00001006377D4E71B6A002BD7D00020CBE7EB
:1086D000100000200000002030B504468BB094F854
:1086E0002830012B08D0637F0BB100236377012072
:1086F0000BB030BD1B6A23B1656A2B681A7B002A58
:10870000F8D1637F002BF2D0104902200023012210
:108710000290081D8DF80C208DF820200993CDE9DA
:10872000001069462846CDE90433CDE906330EF042
:108730009DFC2A68136A002BFCD1054B5B7D03F07E
:108740000102DB076277D2D5C9E700BF1000002025
:1087500000000020214A002330B5044695B0101DCA
:108760001F4D0693019002200B93109313931193C6
:108770000290207F00920495CDE90E3301238DF8FD
:108780000C3007938DF820308DF834308DF8483058
:1087900002F10803083A0593031D0A920C93114B4A
:1087A0000993636A1A68136A002BFCD1A0B10E48C2
:1087B0000A0E00F11A0342760A0A9970080C6946FB
:1087C0005A701870606A0EF051FC636A1A68136A76
:1087D000002BFCD115B030BD044BEDE7200000208C
:1087E000F1830008CD83000800000020190000205C
:1087F00010B594B0044650220749684640F050FE38
:108800006946606A0EF032FC636A1A68136A002BCC
:10881000FCD114B010BD00BFE89F0408F8B50546B0
:10882000406A0068046A002CFCD12C7FA869002CE7
:1088300036D0234E040E052786F82D402E36B07014
:108840004FEA104C000A1F4C86F800C0012B7070D4
:108850004FF000000E68676326641668A6642E63F6
:10886000A06520D0022B1AD15368012220651E4436
:108870004968E365144B84F84C0061652E6384F805
:1088800060206366114B6A7FA3F11401686A002AB5
:1088900008BF19460EF0EAFBEB6A5BB1286BF8BD26
:1088A00004270B4ECBE7084A84F84C306065E0653E
:1088B0002265E7E76B6A1A68136A002BFCD1EDE7C3
:1088C0000000002000000120D983000818000120CA
:1088D0002D00002000B583B08161019201A9049AA6
:1088E00000930123C2626A46FFF798FF03B05DF868
:1088F00004FB00BF70B51D46436A94B006461B6872
:108900001C6A002CFCD1314B0B9203F13C02304825
:108910000694009203F14002049003F134000192A6
:1089200002220590029201228DF820408DF80C2041
:108930008DF834208DF84820327F0C95101D13944B
:10894000CDE90944CDE90E44CDE910440790002A51
:108950003AD00A0E363303F8012C0A0C99701D4CDC
:10896000090A1A705970706AD4E9CA32B3EB920FCF
:108970004FEA92014FF0020206D2490852008B42A0
:1089800092B201D2FF2AF8D9737F8280D3B16946AF
:108990000EF06CFB706A03681A6A002AFCD102228E
:1089A000D4E9CB34B4EB930F4FEA930106D24908D4
:1089B00052008C4292B201D2FF2AF8D98280284616
:1089C00014B070BD05A9E3E73533C6E70000002009
:1089D000F1830008701701208269F0B592F8DC304D
:1089E0008BB00546012B27D0023B012B2FD892F8E4
:1089F0004C31EC46D2F89C2063F07F03154C137089
:108A00008669D6F8A0305F1C0FCCACE80F00D6F812
:108A10009C30CDE900370FCCACE80F0094E80300A0
:108A20008CE80300694606F110000EF01FFBAA69EE
:108A300011690B6A002BFCD1D2F8A0305A8852BAC7
:108A4000EA819A8852BA2A82DB885BBA6B8201205B
:108A50000BB0F0BD38A00408F0B590F8DC308BB056
:108A60000446D0F8A060012B4BD034D9023B012B37
:108A70002ED890F84D31EC46D0F89C2063F07F035F
:108A8000434D1370D0F8A0305F1C0FCDACE80F0041
:108A9000D4F89C30CDE900370FCDACE80F0095E855
:108AA00003008CE80300694604F110000EF0DEFAC2
:108AB0002269136A002BFCD173885BBAA4F8D0300A
:108AC000B3885BBAA4F8D230F3885BBAA4F8D43088
:108AD00001200BB0F0BDD0F89C304FF0FF320521E3
:108AE0001A605A609A60DA60D0F8E030C0F8F0108E
:108AF000B3F57A7F1FD8032380F8DC3001200BB058
:108B0000F0BD90F84C2190F84D319B1A5B10013369
:108B1000DBB236F8132006EB430653BAA0F8D03088
:108B200073885BBAA0F8D230B3885BBAA0F8D430AF
:108B300001200BB0F0BD03691A7B2AB35B691BB33C
:108B400090F8983003B390F84C310122D0F89C0093
:108B500063F07F03C4F8A4400E49037094F84D31CC
:108B600094F84C0184F800211B1A84F8DC20D4F816
:108B7000A0200733C4F804110132D4F89C10C4E9D2
:108B80003E23C4F8F410A3E7022384F8DC309FE707
:108B900038A00408018000082DE9F041304F07EBB0
:108BA000401898F854340BB9BDE8F08100EB80030D
:108BB0000E460021044607EB4313450193F8362681
:108BC00083F8361688F83A2440F0C6FFB8BB25482B
:108BD0003D4400EB4410A5F8386440F0A1FF3B7819
:108BE000D5F85024A3B1D5F83C140124D2F8AC3008
:108BF0008C4003F1C001420010F4004F90B202D14A
:108C00005A6822435A600C339942F4D1BDE8F0818E
:108C1000D5F83C140124D2F8AC3001F1100203F174
:108C2000C0019440420010F4004F90B202D15A6843
:108C300022435A600C338B42F4D1BDE8F0810A4BD9
:108C400093F8AC2302EB420203EBC203234493F8F4
:108C50005963002EBBD0012388F83A34B7E700BF30
:108C6000C801002000060020701701202DE9F04FF8
:108C7000364D83B02B781BB9012003B0BDE8F08FCF
:108C8000DFF8CC8005F63836D5F834AB05F5876BC0
:108C9000D8F8D43205F6186700244FF6FF7901930F
:108CA00012E0B0F5606F43D0B881B0EB0901019AD2
:108CB000304618BF01210EF015F801345C360BF177
:108CC000200B1437082C2CD054452ADADBF8180076
:108CD000DBF80420D0E93D0140F05AFF4FF6FE7367
:108CE00098F83523984214D0542A04D1B8F8382380
:108CF0000132A8F83823D5F8202E484502F10102A8
:108D0000C5F8202ECDD1D5F81C2E0132C5F81C2E69
:108D1000CBE7542AD1D1B8F83A230132A8F83A2344
:108D2000CBE70123012085F81C3F03B0BDE8F08F9D
:108D300098F8AC2302EB420208EBC202224492F8FC
:108D400059230D2AB0D18022BA77AEE7C80100209E
:108D5000701701202DE9F0472F4F0FF0A9F8DFF829
:108D6000C09080467E6800202C4C002E48DD0023F9
:108D70004FF486711D4601FB0372013392F8052101
:108D80009E4245EA0205F6D128435FFA80FAD9F8F7
:108D90000430C3F3080383BBEFF311836BBB4FF0C5
:108DA000E02CD4F8D432DCF81810D4F8D422934252
:108DB000F7D1D4F8B0239142F3D8D4F8B4C34FF428
:108DC0007A7202FB0CF0401AB0FBFCF002FB0300CD
:108DD000A0EB0803B3F5FA6FCCBF002005F001004B
:108DE0000028C2D1BAF1000F04D00C4B93F8352300
:108DF000542A08D05046BDE8F0870EF019FFE7E787
:108E000082460025C3E7B3F83C2350460132A3F85D
:108E10003C23BDE8F08700BFC80100207017012087
:108E200000ED00E010B504463FF0DCFD01462046B1
:108E300089B2BDE81040AFE638B50B4D00EB4000FD
:108E400005F27453C40003EBC003254493ED027A8A
:108E5000D3ED037AE7EE007AB0EE670A3FF0C2FD89
:108E6000D5F87435186038BDC8010020F8B540F059
:108E700067FE78B31A4F7D68002D11DD3846002457
:108E800010F8086B16B1037F012B1DD04269013425
:108E900000F586701368AC4243F001031360F1D112
:108EA0000FF006F8D7F8204F002C0CDD0D4B03EB2C
:108EB000C4041968083333F8042CC868A34242EA92
:108EC0000002CA60F5D1F8BD002380F8FC30FFF73E
:108ED000E5F8DBE73DF0F8FF0028CBD1F8BD00BF97
:108EE000C8010020EC100020F8B50C4B1D685A6931
:108EF000154005405D617DB1094F0126B5FA85F445
:108F0000C4F11F0407EB840306FA04F4D3F8BC038E
:108F100003689847A543F1D1F8BD00BF003C01406C
:108F20007017012002692DE9F843C36812EA0308AB
:108F300028D005460E464FF00047B8FA88F327FAC6
:108F400003F21B3BD24308EA02082A61042B16D81D
:108F5000DFE803F03B30251A0300B36A002B3FD053
:108F600003F1FF3900231FFA89F9B362746A34B13F
:108F700023682046494698476468002CF8D1B8F128
:108F8000000FDAD1BDE8F88370680028F7D0696B6C
:108F9000036889B29847B8F1000FCED1F2E7B06804
:108FA0000028ECD0A96B036889B29847B8F1000F8C
:108FB000C3D1E7E7F0680028E1D0E96B036889B224
:108FC0009847B8F1000FB8D1DCE730690028D6D057
:108FD000296C036889B29847B8F1000FADD1D1E789
:108FE000EB6A1FFA83F9C1E7836910B51A4C04EBE9
:108FF0008303D3F81C0435F0C3FBB4F83C340C2BCA
:109000000ED8DFE803F0220D0D0D1B0D0D0D070D21
:109010000D0D1400D4F8FC23D36823F40063D3604F
:109020000122002384F8392484F83E3410BDD4F89A
:10903000FC23D36823F48053D360F1E7D4F8FC23F6
:10904000D36823F48063D360EAE7D4F8FC23D368C1
:1090500023F40073D360E3E77017012080699C302C
:1090600035F08EBBF8B5830AA3F58013522B52D886
:1090700004465748034493F8F4030D284BD8554D44
:10908000860105EB8013D3F84074A74243D0013921
:10909000C3F8404489B2C3F84C14D5F82C13B1FB83
:1090A000F2F100220139C3F85024C3F84824C3F870
:1090B000542493F87D24C3F8441402F0FF015AB3FA
:1090C00045490223AF1901EB8011204687F87D3412
:1090D000043135F021FF0123B4F1804F87F87D344E
:1090E0003E4BA4EB0303B3FA83F34FEA531316D0BA
:1090F000ABB93B4A944257D002F58062944253D0B8
:10910000384902F57C42944218BF8C422FD002F5B8
:10911000705294422BD0F8BD83F87C14D0E7AA1982
:1091200092F87C140129F6D0022182F87D142E4990
:10913000A06801400020A160012182F87D14AA19D5
:10914000022182F87D146268A16803B908B122F493
:1091500070022E4422F0700221F0800101200023D1
:109160006260A16086F87D0486F87C34F8BDAA1997
:1091700092F87C140129CED0022182F87D141A497C
:10918000A06801401948A1600121201A82F87D14CD
:109190000021B0FA80F082F87C14124A400994420F
:1091A000CDD00028CBD1F8BDAB1993F87C24012A8F
:1091B000B1D002210C4A83F87D14A0680240A2605D
:1091C000012283F87D2483F87D146268A168C0E7DA
:1091D000A09B040870170120B01B01200000014073
:1091E00000040040000C00408800FEFF0004014025
:1091F0002DE9F843DDF820800F4616460021202295
:1092000004461D4640F042FAB8F1000F0CD0D8F8E1
:109210000030B8F80A20E3811B0C2382D8F8043010
:109220006282E3821B0C238338463EF0C7F8F306C4
:1092300019D4431EB8B107EB000C01E0013B12D377
:109240001CF801EDBEF12E0FF8D1C01A03F101098F
:10925000421EB944032AA8BF0322082BA8BF082333
:1092600090461A4606E008280246B9464FF0000824
:10927000A8BF08224FF020333946204623606360A0
:1092800040F00EF9164B04F108004246494623818E
:10929000837040F005F9611EE21D11F801CFACF1B9
:1092A0006103ACF1200C192B98BF81F800C09142EA
:1092B000F3D104F10A0011F8013FA3F16102203B50
:1092C000192A98BF0B708142F5D1182365832D0CA4
:1092D000E6722373099BA582E361BDE8F88300BFB2
:1092E000202020002DE9F04FD24F85B0D7F8D402CE
:1092F000C7F8D802002B60D013440C46154601F580
:10930000FF7B99461EE0002D66D0D7F80433AB42B0
:1093100000F0CB80D7F80033AB4200F0FF80D7E9F4
:10932000C231AB424DD88D42C0F07C81691A2046D3
:1093300038F00CFA04F50072013514460BF5007B89
:109340004D453AD0D7F81023AA42DCD8AA1AD7F84C
:109350002063D308316B02F0070802338B4202D33B
:10936000B26B93420BD931461846039338F0BEF9DD
:10937000039B0646002800F09281C7F8200332794B
:10938000002A40F02681D6F828A0BAF1000F00F09C
:109390007D81326B013520464FF400719B1AF268D3
:1093A0000BF5007B08EBC308334602EB4822D0479D
:1093B00004F500724D451446C4D1002005B0BDE847
:1093C000F08F8D42B2D24FF400720021204640F05F
:1093D0005DF904F50072AFE74FF4007229462046AC
:1093E00040F054F98023944A84F8BE310C2384F869
:1093F000C231D7F80013D7F8F8329142C4F8C61139
:10940000C4F8CA3100F32E818C4A013B8C4E82FB9A
:109410000102C81786FB01C60A44C0EB6212C0EB0A
:109420002630884E86FB02C6C2EB821C84F8C1013E
:109430008010A1EB0C01164420F03F0001310843DD
:10944000D117C1EBE61184F8C0010A4484F8BF21AA
:10945000794A934200F31281784A794882FB0312D9
:10946000D91780FB03601A44C1EB6212C1EB2031B3
:10947000744880FB0260C2EB821684F8C511891023
:109480009B1B104421F03F0101331943D317C3EB59
:10949000E01384F8C4111A4484F8C3214AF6552312
:1094A00004F50072ABF8003046E74FF0FF330026BA
:1094B0004FF4F072201D84F8EC31314684F8ED3120
:1094C00084F8EE3184F8EF31522323706370612306
:1094D000A37084F8E7314123E37084F8E631722306
:1094E00084F8E43184F8E531D7F81833C4F8E8316A
:1094F00040F0CCF8552304F50072C4F8F06184F80C
:10950000FE316FF05503C4F8F461C4F8F86184F8D3
:10951000FC6184F8FD6184F8FF310DE74FF40072BF
:1095200000212046484E40F0B1F8484B02224AF64E
:10953000552C03CB45F6EB03227422732380902332
:10954000A273A370F82384F82C200822C4F8030027
:109550006273C4F807106375D7F80013D7F8F832B0
:109560005B1A2362D7E9C2135B1A63620023E372BA
:10957000E3736377A377E37784F82D3084F82E3094
:1095800084F82F3084F83130314BA3613E232377A8
:10959000012384F83030802384F840302D4BC4F808
:1095A00042302D4B84F8462004F5007203CBC4F8FA
:1095B0004B101988C4F84700A4F84F109B7803CECD
:1095C00084F85130C4F85200C4F85610ABF800C00B
:1095D000B2E64FF400720021204640F057F8336C99
:1095E000B8F1000F64D104F1200A002B00F0A28032
:1095F000336B112219492046CDE90088FFF7F8FDA9
:10960000336C1A6C002A00F0A2801B6B50461122AA
:109610001349CDE90088FFF7EBFD04F1400A4FF450
:10962000E07892E0E91A204638F090F804F50072EC
:1096300082E600BF70170120FF03FB008320088231
:109640009755454181808080981205088012050851
:109650003F00FF0029940E0D8C12050878120508B2
:109660007C120508FF22013B84F8C1214FF6FF72EE
:10967000A4F8BF213A4A93427FF7EEAEFF2384F865
:10968000C5314FF6FF73A4F8C33107E74FF40072FA
:10969000514620463FF0FAFF04F500724CE6314B8C
:1096A00004F50072C4E900330834A242FAD143E65B
:1096B000002B766C14BF02230123C3EB0813002E8A
:1096C0003FF487AE013BB66C002B01DD002EF9D1D3
:1096D000A2464FF40078002E3FF47BAE0AEB08035D
:1096E00003959A460BE00025A8F12008CDE900E596
:1096F000FFF77EFDB66CCEB1B8F11F0F16D93579E4
:1097000006F11C0E11223168336BAAEB0800002D04
:10971000E9D17279A8F12008356942F02102CDE93A
:1097200000E5FFF765FDB66C002EE5D1039D04F55D
:10973000007201E6CDE9008843464FF4F078082234
:10974000D7F8FC122046FFF753FD766CC3E750466E
:10975000434611220449CDE90088FFF749FD5CE743
:10976000FF03FB00DEADBEEF7C12050810B490F8DD
:10977000443000F10801484A012BC2F800186DD0AE
:109780008368464CD968A34221F46001D960D96846
:1097900041F46001D960996B21F440119963996B90
:1097A00041F480119963996B21F4F8419963996BA5
:1097B00041F488419963996821F47021996099680E
:1097C0009960996821F44011996099689960596885
:1097D00021F480615960596821F4805159605969B8
:1097E0006FF30B0159615969596148D0D9682B4C05
:1097F00021F0E061A342D960D96841F0E061D9600D
:10980000996B21F440119963996B41F4801199632C
:10981000996B21F478219963996B41F41021996334
:10982000996821F47021996099689960996821F488
:109830004011996099689960596821F48061596074
:10984000596821F48051596099696FF30B0199614E
:10985000996999611AD0002380F844301048114B5F
:10986000848DC18D408D091BC2F80848C2F80408D8
:109870005DF8044B93FBF1F3C2F80C387047D4F851
:10988000041341F40001C4F80413AFE706494B6820
:1098900043F400034B60DEE7701701200020014015
:1098A000007AF01F8038010000230140704700BF9C
:1098B000014835F039B800BF941F0120084810B4A2
:1098C000D0F82438D0F8584899691A682CB1234642
:1098D00000F624005DF8044B18475DF8044B704710
:1098E00070170120014835F01FB800BFF41F012098
:1098F000084810B4D0F88438D0F8B84899691A6884
:109900002CB1234600F684005DF8044B18475DF83F
:10991000044B704770170120014835F005B800BFAF
:1099200054200120084810B4D0F8E438D0F8184981
:1099300099691A682CB1234600F6E4005DF8044BDF
:1099400018475DF8044B70477017012030B4046964
:10995000002341684025E46882690C3154624469FF
:109960009560536093631160C2E90333C2E9053324
:10997000C2E90733C2E90A33C2E90C3384B1C269D0
:10998000E068936350621160C2E90133C2E90333B6
:10999000C2E90533C2E90733C2E90A33C2E90C332D
:1099A00030BC7047114A037A0168D35C10B4CC58BC
:1099B000CA1824F00104CC501368DB07FCD4037DE3
:1099C0001F2B09D9203B20225DF8044B02FA03F338
:1099D00043F01803CB60704720225DF8044B02FA75
:1099E00003F343F018038B60704700BF341305087E
:1099F000F0B50668356A00295DD12B68AC68B76997
:109A0000002B60D09C46344B0CEA0303B3F1005F9B
:109A10005DD00CF01F0104F11F032CF01F0219444C
:109A200021F01F01BFF34F8F00290BDD114402F11C
:109A30002003DFF8A8E08B42CEF868221A4603F133
:109A40002003F8D1BFF34F8FBFF36F8F02684FF43D
:109A500080637B615369C7F804C03C6253B36B6891
:109A6000F569002B35D01E461B4B3340B3F1005F28
:109A70001BD006F01F0104F11F0326F01F0219443A
:109A800021F01F01BFF34F8F00290ADD114402F1BD
:109A9000200312488B42C0F870221A4603F12003BB
:109AA000F8D1BFF34F8FBFF36F8F4FF480636E60B9
:109AB0006B612C62F0BDEC69002CFBD06B69143536
:109AC000B769002B9ED1DFF81CC03246C1E7324691
:109AD000BDE7034EEBE700BF0000FFFF00ED00E035
:109AE00048000020440000202DE9F0410468D4E93A
:109AF00004351A7DD3E90061002D4DD01F2AA861DD
:109B000038D820202F6800FA02F242F01802B26022
:109B10002A7D1F2A39D9203A202000FA02F242F089
:109B20001802FA606A680020086010603046116808
:109B300041F01001116093F80880A26941463BF0A2
:109B400065FA2D7AE269384629463BF05FFA274BE1
:109B5000626813F80800595D335843F0010333502D
:109B60007B5843F001037B50536843F00303536079
:109B7000BDE8F081203A20202F6800FA02F242F07E
:109B80001802F2602A7D1F2AC5D8202000FA02F2AE
:109B900042F01802BA60C5E71F2A98611ED820203B
:109BA00000FA02F242F01802B260002230460A6067
:109BB0000A6842F010020A601D7AA26929463BF049
:109BC00025FA0A4B6268595D735843F001037350DC
:109BD000536843F002035360BDE8F081203A20202F
:109BE00000FA02F242F01802F260DEE734130508D0
:109BF00010B1036882889A61704700BF18B18388EA
:109C000002681B049361704708B51D200DF0F0FD3C
:109C100008B183794BB11E200DF0EAFD08B18379BC
:109C200003B108BD5523C38008BD5523C380F2E7A7
:109C3000D3B2012B23D802EB420270B54FEA820E59
:109C4000104C002223460EF1080503E001321C33BC
:109C5000172A12D093F800C08445F7D193F801C0B9
:109C60008C45F3D15E59002EF0D0C2EBC2020EF14A
:109C7000040303EB8203E01870BD002070BD0020D8
:109C8000704700BFE0A0040810B40C4C002304F59A
:109C9000196C01E0152B0CD003EB430201331CF8C7
:109CA00002108142F6D1144494F992095DF8044BF4
:109CB00070474FF0FF305DF8044B7047701701207C
:109CC000D3B2022B21D802EB420270B54FEA820ECA
:109CD0000F4C002223460EF10C0503E001322C3319
:109CE000172A10D01E68B042F8D193F804C08C45F2
:109CF000F4D15E59002EF1D02C210EF1080301FBA6
:109D00000233E01870BD002070BD0020704700BF16
:109D1000A09B0408002838D0002330B51B4D90F8D4
:109D200004C005F5196401E0152B2CD003EB4302A8
:109D30000133A15C6145F7D11544046890F805E052
:109D400095F99239DAB2022A1DD803EB4303104881
:109D500000224FEA830C03460CF10C0503E00132AC
:109D60002C33172A0FD019688C42F8D11979714514
:109D7000F5D159590029F2D02C210CF1080301FB2F
:109D80000233184430BD002030BD704770170120E9
:109D9000A09B04080348D0F890300BB180301847DE
:109DA000704700BF000001200348D0F8B4300BB169
:109DB000A4301847704700BF000001200348D0F8C6
:109DC000D8300BB1C8301847704700BF00000120E1
:109DD0000348D0F8FC300BB1EC301847704700BF97
:109DE000000001200348D0F8203113B100F588703D
:109DF00018477047000001200348D0F8443113B1E0
:109E000000F59A7018477047000001200348D0F809
:109E1000683113B100F5AC7018477047000001209D
:109E20000348D0F88C3113B100F5BE701847704765
:109E3000000001200348D0F8B03113B100F5D07014
:109E400018477047000001200348D0F8D43113B1FF
:109E500000F5E27018477047000001200348D0F871
:109E6000F83113B100F5F470184770470000012075
:109E70000348D0F81C3213B100F50370184770473F
:109E8000000001200348D0F8403213B100F50C70F7
:109E900018477047000001200348D0F8643213B11E
:109EA00000F5157018477047000001200348D0F8EE
:109EB000883213B100F51E7018477047000001206A
:109EC0000348D0F8AC3213B100F52770184770473B
:109ED0000000012001380E4B0E4A00EBC000116B50
:109EE00003EB800310B4D3F8803083B00A4CA34254
:109EF00014BF4FF480034FF4001319431163126B26
:109F000013400193019B03B05DF8044B704700BF01
:109F10000000012000380240006002400138F8B51E
:109F200000EBC000124C1D46124B04EB8004174698
:109F30000E46D4F88000984214BF9620952038F041
:109F400049FC94F99500B909C4F89060C4F8985098
:109F500038F0A0FB94F99530002B07DB03F01F00CD
:109F600001225B090449824041F82320F8BD00BF6B
:109F7000000001200060024000E100E0800AA0F53E
:109F80008010522808D8054B034493F8F4330D2B66
:109F900002D8034AD056704700207047A09B04089F
:109FA000241305080120FEF79FBF00BF0220FEF723
:109FB0009BBF00BF0420FEF797BF00BF0820FEF73D
:109FC00093BF00BF1020FEF78FBF00BF4FF4787023
:109FD000FEF78ABF4FF47C40FEF786BF2DE9F04FB5
:109FE0000E4683B004461546002800F0C78002687C
:109FF000644B13449B0A644AC6F34119134493F813
:10A00000C40738F0E7FBC6F38103B4F804E006F0B8
:10A010000301246801939EFAAEF0B0FA80F001F1DA
:10A02000FF383EFA00F367D001220327009603E0D1
:10A0300001303EFA00F35ED002FA00F313EA0E0399
:10A04000F6D0D4F800C093FAA3FBBBFA8BFB93FACB
:10A05000A3FABAFA8AFA4FEA4B0BB8F1010F4FEAAA
:10A060004A0A07FA0BFB01FA0AFA2CEA0B0C4CEA33
:10A070000A0CC4F800C04ED9D4F80CC093FAA3FB64
:10A08000BBFA8BFB93FAA3FABAFA8AFA4FEA4B0BA4
:10A0900002294FEA4A0A07FA0BFB09FA0AFA2CEAE4
:10A0A0000B0C4CEA0A0CC4F80CC0C1D193FAA3FA09
:10A0B000BAFA8AFA4FEA132CBAF1070F45DCD4F842
:10A0C00020C093FAA3FABAFA8AFA93FAA3F34FF0EC
:10A0D0000F0BB3FA83F34FEA8A0A01309B000BFAA5
:10A0E0000AFA05FA03F32CEA0A0C4CEA030323628A
:10A0F0003EFA00F3A0D1009EB8F1010F08D86268C3
:10A10000C6F3001322EA0E020EFB03F3134363604F
:10A1100003B0BDE8F08FD4F808C093FAA3FBBBFAF4
:10A120008BFB93FAA3FABAFA8AFA4FEA4B0B019E19
:10A130004FEA4A0A07FA0BFB06FA0AFA2CEA0B0C5A
:10A140004CEA0A0CC4F808C096E7D4F824A09CFA9C
:10A15000ACFBBBFA8BFB9CFAACF34FF00F0CB3FAE1
:10A1600083F34FEA8B0B9B000CFA0BFC05FA03F30D
:10A170002AEA0C0A4AEA0303636259E74FF0FF3305
:10A1800039E700BF0000FEBFA09B040800B125E72F
:10A19000704700BF2DE9F84F6D4EC0EB001306EB82
:10A1A000C303D3F8D049002C00F08A8093F8408A8A
:10A1B00005460701404638F00DFB01224FEA5813CF
:10A1C00008F01F08013B02FA08F2032B08D8DFE869
:10A1D00003F0ADB302B95F490B6A23EA02030B62D5
:10A1E0007B1B05F1010B06EBC3035FFA8BFB93F8B6
:10A1F000D4090DF0FDFA804618B1122380F807B09B
:10A2000083717B1B06EBC30393F8D5090DF0F0FABD
:10A21000824618B1132380F807B083717B1B06EBCD
:10A22000C30393F8D6090DF0E3FA814618B114235D
:10A2300080F807B083717F1B50462E2106EBC706BE
:10A2400096F8D829FFF7A2FF96F8D92948460E219B
:10A25000FFF79CFF96F8D7292E214046FFF796FF7F
:10A2600023683D4A23F04003944223602AD03B4BAD
:10A270009C4231D103F500331A6A42F480421A62DB
:10A280001A6A22F480421A62636843F4805363605E
:10A2900023685B060CD4206840F217323049314BFA
:10A2A00001400A4322606268134043F4E063636044
:10A2B000E36923F40063E361236843F04003236010
:10A2C000BDE8F88F234B5A6A42F480525A625A6AA8
:10A2D00022F480525A62D7E7234B9C421BD0234B77
:10A2E0009C420DD0224B9C42CED103F568435A6A62
:10A2F00042F480125A625A6A22F480125A62C3E708
:10A3000003F582335A6A42F400525A625A6A22F4BE
:10A3100000525A62B8E703F5FE331A6A42F400426B
:10A320001A621A6A22F400421A62ADE709494B69BF
:10A3300023EA02034B6153E706494B6A23EA02030F
:10A340004B624DE703490B6923EA02030B6147E7C0
:10A3500070170120003802400030014000380040F2
:10A360004000FFFFFBF0FFFF003C004000340140D5
:10A370000050014008B1002230E670472DE9F0415D
:10A38000CF781FB900263046BDE8F08100F11008F3
:10A390000C460546897840460CF010FD064600281C
:10A3A000F0D038460DF024FAA8612378074601332F
:10A3B000DBB210B1C3712223837138460D21FFF740
:10A3C000D9FF3846134FFFF713FCD7F8D432632B6D
:10A3D000FBD911480CF0DEFCA882404630F0AAFF01
:10A3E00018B9E0780DF062FACCE72B6985F8D8004F
:10A3F0001B78012B07D0022BC5D197F8B03B013356
:10A4000087F8B03BBFE797F8B13B013387F8B13B22
:10A41000B9E700BF7017012040420F002DE9F74F48
:10A420006023D94C054603FB0043D3F81078D3F8DA
:10A430001868D3F81C88002F00F0A1811EB1B379F1
:10A44000002B40F09C81B8F1000F04D098F8063042
:10A45000002B40F094816B1CDBB216B11522F37116
:10A46000B271B8F1000F04D0162288F8073088F8CE
:10A470000620387C4FF0090938F0ACF93046FFF778
:10A48000B7FB40461121FFF7B3FB3046FFF772FFE1
:10A4900011214046FFF76EFF4FF0330A05E0BAF195
:10A4A000010A09D00A2010F02DFE002EF7D03368E3
:10A4B000B2881B691A42F2D03046FFF79FFB052095
:10A4C00010F020FE3046FFF793FB052010F01AFE37
:10A4D000B9F10109E0D130464FF0600BFFF78EFB78
:10A4E000052010F00FFE4046FFF788FB0BFB05FB35
:10A4F000052010F007FE3046FFF77AFB04EB0B0A4D
:10A50000052010F0FFFD4046FFF772FB9AF8203857
:10A5100030460422002B0BF114060CBF1E213E21F5
:10A520000191FFF733FE4046DFF880820422019953
:10A530004644FFF72BFE4C22494630463FF0A6F832
:10A54000DAF810389FED917AB0EE084A5B68F7EEC2
:10A55000003A9FED8F5ACC46CAF824388D4B9A6842
:10A56000BAF82238C2F3822203EE103A8A4B13441F
:10A5700093F8CC27D4F82C33D34007EE903AF8EE7A
:10A58000677AC7EE275A9FED857AF8EEC37AC7EE51
:10A59000274ADFED837AB0EE007AE5EE877AA5EE02
:10A5A000875A25EE844A37EE856A34EEE72A13EEA1
:10A5B000103A0CF1010EB3F5C87F40F2145307EEC8
:10A5C00090EADBBF19464FF4967278226423C8BF25
:10A5D0003223F8EEE76AD4BF4FF4167B4FF4827B48
:10A5E0001344A2F1320266EEA56AC8BF4FF4FA71B5
:10A5F00007EE903A5944B8EEE77AC7EE267A07EEAE
:10A60000102AB8EEC77A37EE447A77EEE37AFCEE9A
:10A61000E77A17EE903AC7EE267AFCEEE77A17EE65
:10A62000900A07EE90BAF8EEE72A07EE901AF8EED5
:10A63000E77A62EEA42A82EEA77A77EE452A32EE16
:10A64000477AC2EEA67A77EEE37AFCEEE77A17EE67
:10A65000901AC7EE267A77EEE37AFCEEE77A17EEE9
:10A66000902A02F1020B0BEB010AB0EE467A07EEDC
:10A6700090AAF8EE677AA6EEA77AF4EEC74AF1EE52
:10A6800010FA7FDC43EA000B5FFA8BFBBBF10F0F84
:10A6900000F28E8041EA020B1FFA8BFBBBF1FF0F29
:10A6A00000F286801B05000403F07F6392B200F481
:10A6B0007F0003433B4843EA0C7300EA01210B434C
:10A6C00043EA0209602330465D4301232C442835C8
:10A6D000C4F82898A8444FF00009C4F83038C4F8EA
:10A6E0002C98C4F83498C4F83898C8E902993BF01B
:10A6F00049FC94F86538202BD9B21AD194F8643803
:10A70000012B16D0242384F86538D4F824381A682D
:10A7100022F001021A601A6822F480521A601A6844
:10A720001A601A6842F001021A6084F8651884F809
:10A730006498002197F9120037F0ACFF97F91220C6
:10A74000BB7C002A08DB5909012203F01F0302FA2F
:10A7500003F3154A42F82130002197F9110037F030
:10A7600099FF97F911207B7C002A08DB5909012207
:10A7700003F01F0302FA03F30B4A42F8213003B03F
:10A78000BDE8F08F01316EE770170120286B6E4E27
:10A790000000164300380240A09B040800247449BE
:10A7A0000000704200FFFF0000E100E0801F012078
:10A7B000BEF10F0F86D0F446F9E600BF70B50E4C1F
:10A7C000D4F8346B002E15DD04F58764002503E012
:10A7D00001352034B5420DD0237F002BF8D0E0683E
:10A7E00000220028F4D00135217DFFF7F7FB20344B
:10A7F000B542F1D1012070BDC80100202DE9F04F14
:10A80000002393B0A64E0293A64BA6F50D6ADFF87F
:10A810009C9293F8C6EBA44D0EF1FF37CDF80CE0F7
:10A82000FBB20193DFF898B2DBF80070BB0AA3F526
:10A830008013522B00F2D780534493F8F4330D2B3E
:10A8400000F2D18015F90380039B012B00F01D81DC
:10A85000039B022B02D1B8F1080F3AD10024214604
:10A86000404610F0B3FF11F039F890F800C0BCF189
:10A87000000F18BFBCF1540F14BF4FF0010C4FF084
:10A88000000C40F0F8800434A4B2102CE7D1029BF5
:10A89000002B00F0B380854A0CE0534493F8F43366
:10A8A0000D2B0ED8EB5643450ED002F586724A4565
:10A8B00000F0A08091680B689B0AA3F58013522BCF
:10A8C000EBD900234345F0D14B799BF80510994211
:10A8D000EBD10BF11C0BB345A6D1029B09F5867990
:10A8E0000133042B02939DD1DFF8D8A10023AAF5F0
:10A8F000876B01930AF59E730293DBF8343B019A50
:10A9000093426DDD674BDAF80C7093F8DC2B9AF804
:10A9100010300393002F63D03B68DBF80450644889
:10A92000B988002D184404914FEA902040F3CE805E
:10A930005E4E002405E0013406F58676AC4200F058
:10A94000C38031688142F6D1584A4FF48671DDF8F0
:10A9500010C001FB0424039A019E8AF81020049A77
:10A960000136CAF80C70B2FA82FE0322CAF8184007
:10A97000CEF11F056800CAF80450BA71FE7102FAE0
:10A9800000F7A16C0122D4F85480394302FA00F098
:10A9900002FA05F59BF80070A164216D0143D4F81B
:10A9A000AC002165A9B2002F00F0F98045EA080546
:10A9B0006565C3F818C0FDF79DFB20460AF1200A23
:10A9C000FDF76CFB40F201120123082E2AF8042C3B
:10A9D000029A019602F1180202F8073C02928CD109
:10A9E00013B0BDE8F08F019B012B7FF672AF4FF0E3
:10A9F000000833E7BCF1000F7FF46BAF5846FDF75A
:10AA000013FB9BF805E0C3B2022B00F28B8300F12D
:10AA1000010C284A0CEB4C0C02F57D704FEA8C0CB3
:10AA200003E02C32904200F07D8313689F42F8D1FE
:10AA300013797345F5D152F80C30002BF1D01E4834
:10AA4000002142689A4212D0013124301029F8D1F5
:10AA50004FF0FF3303EBC303184A02EB830393F871
:10AA60009C30002B7FF435AFC9F808B035E74B1C9C
:10AA7000DBB2013BEEE7029B002B7FF40CAF0BF146
:10AA80001C0BB3457FF4D0AE27E7B8F1010F3FF4BC
:10AA9000E5AE0BF11C0BB3457FF4C6AE1DE700BF5E
:10AAA00070A404087017012024130508D0010020A9
:10AAB0000000FEBFA09B04088000012000000120D0
:10AAC00074A3040800060020042C76D04FF486718D
:10AAD00001FB05B10C690694002C00F00583886029
:10AAE0000130CDE90723C4B2069B542081F81141FF
:10AAF00081F81001691C18461E685B79CBF80410B8
:10AB00000593FDF791FAC1B28146022900F20A834A
:10AB100000F1010E4FF0000CA7480EEB4E0E079A05
:10AB2000DDF814804FEA8E0E089B06E00CF1010C54
:10AB30002C30BCF1170F00F0F58201688E42F5D180
:10AB400001794145F2D150F80E100029EED0884627
:10AB50002C2109EB4909984801FB0CF101EB890113
:10AB6000DFF894920144CC4608694FF4867101FBEA
:10AB700005B1C1E907800020DCF8041041452DD063
:10AB800001300CF1240C1028F6D18C4B93F878206E
:10AB9000BAB9542283F8794083F8782011E0CEF1D5
:10ABA0002F0E02FA0EF242EA080262654FEA0C42E8
:10ABB0009A613A46FDF79EFAFFE60323804A82F83F
:10ABC000DD3B804B80488149814AC3F84804C3F883
:10ABD0004014C3F8502413B0BDE8F08F411C7748EF
:10ABE000C9B2013901EBC10100EB810E9EF89C1046
:10ABF00008910029E5D14FF4867176484FF08C0C0E
:10AC00008EF89D4001FB05F1734C062A07914FEA2F
:10AC1000A10100FB01F107985844C36004F54C738F
:10AC2000C0F800C10CFB01FC01EB410103EB4C033C
:10AC300001EB0111C0F8FC304FF0540304EB810428
:10AC400007998EF89C304FF03303C0F8B440C0F839
:10AC5000B830624B03EB0104594BD3F82C1300F0CE
:10AC60003182072A5E4B5F485F4A18BF1A465F4B26
:10AC700018BF03463046B1FBF3F3B1FBF2F2013BE0
:10AC8000511E4FF486729BB202FB05B2A2F8BC10B3
:10AC9000A2F874302366079B03F158014F4B194407
:10ACA0000023A4F858306366E3653AF04BF9336843
:10ACB000059A43F0800333600C2A0ED8DFE812F0C7
:10ACC000AC010D000D000D008B010D000D000D00FD
:10ACD000CB010D000D000D0068014FF4867360225A
:10ACE000304603FB05B30A924FF48072596933680A
:10ACF0001092012223F0010309910B920A22336082
:10AD000000230C930F9311930223CDE90D230AAA7C
:10AD100039F0D0FF09990023B1F5807F00F0F6816A
:10AD200000F2D381102900F0FA8100F2E2810129BA
:10AD300000F0F381042915BF4FF4006208223C2380
:10AD4000002306F11801C8580243CA50069B18791F
:10AD5000002840F0A681336843F0010333600023EC
:10AD6000D9F804200133904500F09781102B09F1A8
:10AD70002409F5D14FF0FF33104A03EBC30302EB74
:10AD80008303D3F880001A4B984214BF9620952075
:10AD900037F020FD059B0C2B00F27C81064A02EB6C
:10ADA0004303B3F8D0C84FF48673124903FB05B3CD
:10ADB000A3F818C0002328E0A09B0408000001208D
:10ADC00070170120C0120020E1550108DD5501086F
:10ADD000E95501086B4CA40720170020D001002082
:10ADE00044950800D0DD06001055220040771B0076
:10ADF00000600240EC10002080000120964200F02C
:10AE000080810133042B00F0908151F83320002A17
:10AE1000F4D1DBF8202F0132CBF8202F0BEBC3024B
:10AE2000DB00C2F8246F19440898234690228E88CC
:10AE30004CEA060C0026A1F804C0BD49FFF76EF8E5
:10AE40004FF4867340214FF4403003FB05B8B94AF4
:10AE50004FF4804CD8F81C502B6843F010032B6043
:10AE60002B6843F014032B60C4F8A860C4E91F6684
:10AE7000C4E92866D8F82030A1670421C4F89430CA
:10AE8000C4F89C10E9B208934FF480631039C4F8F9
:10AE90009800C4F8843025F0FF00A2FB0121D8F807
:10AEA000B820079BC4F890204FF48052D8F80C903B
:10AEB0000909C4F8882009F1180209F1100922676C
:10AEC00003F170029C4B1A44D8F8B430C4F88CC01B
:10AED0006367CDE905013AF099F8D5F800E0079BE2
:10AEE000C4F820E0D5F814E003F1B802924BC4F89E
:10AEF00024E0D5F804E01A44089BC4F828E0D5F80B
:10AF000008E0C4F82CE0D5F80CE0C4F8DC300423E9
:10AF1000C4F8C860C4F8E4304FF48063C4F8F0604B
:10AF2000C4F8CC304FF40033C4F830E0C4F8E0305B
:10AF3000C4E93066C4E93A664FF40066D8F80031D7
:10AF4000C4F8B890C4F8D0604FF48046C4F8D83044
:10AF5000D8F8FC30C4F8D460C4F8BC30DDE9050191
:10AF60003AF054F82B68B7F804C063636B69A363C5
:10AF70006B68E363AB682364EB6863642B6843F03E
:10AF800010032B602B6843F014032B603B68E2E452
:10AF900033684FF486724FF480514FF0020E23F065
:10AFA000010302FB05B2304651610AAA3360002357
:10AFB0000C930F93119360230A934FF480731093B3
:10AFC00001230B930A23CDE90D3E39F073FE4FF4B4
:10AFD00000620423B5E64FF4867210213368022024
:10AFE00002FB05B223F001035161602233600023AC
:10AFF0000A924FF480720C93109201220F930B92DD
:10B000000A221193CDE90D200AAA304639F052FEEA
:10B0100000234FF4006294E64FF4867233680121F6
:10B02000304602FB05B223F001030B91516160220F
:10B03000336000230A924FF480720C930F931193A4
:10B04000022310920A22CDE90D230AAA39F032FE1A
:10B050000023082275E633684FF486724FF480713E
:10B06000022023F0010302FB05B21091516160221E
:10B07000336000230C930F9311930123CDE90A232E
:10B080000A230AAACDE90D30304639F013FE082212
:10B09000042356E64FF0000C85E6DBB20893013B33
:10B0A0006AE60CF0A5FB099038B1069B0221DA791B
:10B0B000FEF794FF5422099BDA80736C43F400433B
:10B0C000736448E61D4A1E4BD4E5B1F5805F20D07D
:10B0D000B1F5803F17D0B1F5806F15BF4FF4006216
:10B0E00008223C2304232CE60223164A82F8DD3B87
:10B0F00067E5402915BF4FF4006208223C23002376
:10B100001FE6DB008FE608223C231AE60822042310
:10B1100017E64FF40062042313E6082211E64FF409
:10B1200000620EE600235B68FFDE00239B88FFDEE3
:10B1300041810008ABAAAAAAD0010020882A1100E8
:10B14000A0BB0D007017012070B590F8B2311C093A
:10B15000013C052C0FD81A4E054603F00F0306EBF1
:10B160004402B2F8EC0840FA03F2D20703D595F88E
:10B17000BD21012A01D0012070BD9A402644013A28
:10B1800010403EF031FB96F8F8380E4A034402EBCB
:10B19000C30452F83320A38810691840ECD0002370
:10B1A00095F8B3210221204685F8BD31FEF716FF40
:10B1B000D5F82021136843F008031360DBE700BFD4
:10B1C000A09B04085023012008B9002070472DE9F6
:10B1D000F04F00228DB02F21044610F0D5FB06461B
:10B1E00000B390F80590984FD0F800A0A7F83C94D1
:10B1F000FEF790FDB0B1D0E90153019395B1DFF8AE
:10B2000080820022414640464368013224309D42FC
:10B210000CD0102AF8D18D4B93F8782012B92F2238
:10B22000A3F8782000200DB0BDE8F08FD2B2874B94
:10B23000013A02EBC20203EB8200920090F89CB04C
:10B24000BBF1000FEED111442F22C7F8FCA38A8373
:10B25000D7F82C137E4A914280F0D7805A46090ACB
:10B260007C48C7F800240022A0FB01107A49C7F8E7
:10B270000C24C7F8042402090009A1FB0212C7F834
:10B2800008045208A7F8E22E5200A7F8E02E97F81B
:10B29000392402F0FF01002A00F0C3800222504648
:10B2A0006E4987F8392433F037FE0122204687F8AB
:10B2B00039240CF09DFAC7F8E40E28B12F21C18083
:10B2C0004E21F279FEF78AFE019B0022C7F8E85E64
:10B2D000B9F10C0FC7F8EC3E614BC7F8F42EC7F874
:10B2E000042FC7F80C2FC7F8142FC7F8182F196BA5
:10B2F00041F400111963196B01F4001103910399D2
:10B30000196B41F4800119631B6B03F480030493F0
:10B31000049B4FF04003C7F8F03E4FF48063C7F83A
:10B32000F83E4FF48053C7F8FC3E4FF48043C7F813
:10B33000003F4FF40033C7F8083F4FF00303C7F84E
:10B34000103F71D8474B03EB4903B3F80049A246BD
:10B35000083445494346002207EB8400C0F8FC133B
:10B36000A1F6EC21C7F8201F5968013224338D4221
:10B370005DD0102AF8D14FF0FF3202EBC202334BFE
:10B3800003EB8203D3F88000384B984214BF962019
:10B39000952037F01FFA0023D8F80420013308F174
:10B3A0002408954246D0102BF6D107EB8407584667
:10B3B000534660222E49FEF7B1FDD7F8FC0333F067
:10B3C00005F900287FF42EAFB47960210A904A462F
:10B3D000630005910B9005A903F002030690099004
:10B3E0000793E300234803F00803089336F012FFA5
:10B3F00000287FF417AFA30749461E481DD533F038
:10B40000FBFDB0FA80F040090DE71B4A1B480A44D7
:10B41000A0FB0202920D013A92B2501CB1FBF0F176
:10B420001DE787F8381439E79246144690E7D2B200
:10B43000013AA2E75FFA83FBB7E733F03DFDB0FACC
:10B4400080F04009EFE600BF7017012000000120E6
:10B45000006CDC02598B4F01ABAAAAAA701B012019
:10B4600000380240A09B04085826012000600240DA
:10B47000E98F00086C1B012000366E01819F5E166B
:10B4800080000120014B53F82000704750280040F5
:10B49000014B43F82010704750280040204B2148B2
:10B4A000196C214A41F0805130B4196482B0196C92
:10B4B000FF2401F0805101910199016841F48071EC
:10B4C0000160CA20196C41F480611964196C01F49F
:10B4D000806100915321009D5462506251625B6F04
:10B4E000DB0013D4114B00221149C3F85428C3F8D0
:10B4F0005828C3F85C28C3F86028C3F86428C3F848
:10B500006828C3F8501802B030BC7047A2F500623A
:10B51000074BD2F850289A42E4D102B030BC7047B1
:10B520000038024000700040002800400020004029
:10B53000316665422DE9F0470646086888B00C463A
:10B54000850ABDF84080A5F580159DF844A0522DD0
:10B5500055D819462D4B2B4493F8F4530D2D4ED846
:10B560002B4FFDF77FFD94F8059007EB8517A37926
:10B57000BAF1000F01D083F001035A004FF480713B
:10B58000DB00384602F00202CDF8088003F0080321
:10B5900003924A460493602301934FF40073CDE96C
:10B5A0000613002301A9059336F034FEA37938462B
:10B5B00049469F0726D433F07FFC164BA801022290
:10B5C00003EB8515D5F8401485F87D24124A8D6863
:10B5D0002A40062A06D0B2F5803F03D00A6842F01E
:10B5E00001020A600344012283F87D242168637903
:10B5F00001F1340271600021D0183060D15008B0E0
:10B60000BDE8F08733F0F8FCD7E700BFA09B040843
:10B61000B01B012070170120070001002DE9F84F31
:10B62000D0F894700446524B00F16406FDB227F046
:10B63000FF09826800F1180A103D4846D2F80080E0
:10B64000A3FB05352D09294639F028FD626D00233D
:10B65000B2F5807F84F858307ED00DD8102A00F0E3
:10B6600083805CD8012A45D0042A16BF6FF400619C
:10B670006FF008013C230EE0B2F5805F70D0B2F5A8
:10B68000803F3AD0B2F5806F15BF6FF400616FF064
:10B6900008013C230423324608F11806404656F8B8
:10B6A00003C001EA0C01F150D4F854B0594639F006
:10B6B00001FBBBF5807F2DD023D8BBF1100F3ED00E
:10B6C00036D8BBF1010F02D0BBF1040F33D14FF0DC
:10B6D000080C336852462946484643EA0C03336057
:10B6E0004023236239F092FC3B6843F010033B6037
:10B6F000BDE8F88F6FF00801CDE76FF008013C233B
:10B70000C9E7BBF5805F22D0BBF5803F1AD0BBF5FF
:10B71000806F10D108F11C064FF0080CD9E7402AC1
:10B7200015BF6FF400616FF008013C230023B2E7FE
:10B73000BBF1400FCBD03C364FF4006CC9E74FF45F
:10B74000006CC6E708F154064FF0080CC1E708F199
:10B750001C064FF4006CBCE76FF0080104239AE765
:10B760006FF40061042396E76FF4006193E700BF74
:10B77000ABAAAAAA2DE9F04FDFF840B287B09BF838
:10B7800000301BB9012007B0BDE8F08F854BD3F81E
:10B79000D43204930CF08CFB834A92F8243C002BA7
:10B7A00000F0F8800BF23464D2F81C340BF6383A0F
:10B7B0000BF61868C31A2646002705940193019AD0
:10B7C000002A03DBF36D934200F3CA8007EB870383
:10B7D0000BEB431393F88C3603F0FF0E002B00F0B5
:10B7E0008680D6F89410B36870481A68CBB221F0FE
:10B7F000FF01103BA0FB03036D481B09C35C0B4416
:10B80000B1895C68D368A4B223EA0103C4F11604C9
:10B81000D360072C6BD9DBF8203E002201210133D5
:10B8200015468946CBF8203ED6F89C30CDE902E794
:10B8300018689C4615E0142D1EDC17F1080E48BF51
:10B8400007F1170E4FEA2E1705EB2E1507F1FF3EF5
:10B85000013102FA07F709FA0EFE8C424EEA07029E
:10B860000AD307468C425CF8040FA0EB0707E2D826
:10B87000C5F115071525E9E7152DDDE902E766D1C4
:10B880004C4CC2F38421C2F3441004EB810104EB5D
:10B890008000D1F81C19D0F81C09090241EA0011F6
:10B8A00002F01F00C2F3C43204EB800004EB8202FA
:10B8B000D0F81C09D2F81C29014341EA023282EA7D
:10B8C000122181EA111101F00F010F293FD1C2F3BA
:10B8D0000F124FF6FF718A4239D0B2F5606F43D034
:10B8E000A8F80C207146049A50460BF0FBF930463C
:10B8F0000137FFF793FE2C4BA0360AF15C0A93F850
:10B90000243C08F11408BB423FF759AF01222649F5
:10B91000059C8BF81C2F0022C1F81C24002B3FF43F
:10B9200031AF03EB830304EB4313A268A03414F894
:10B93000901C126854F84C0C11F0020F116A14BFDD
:10B9400041EA800101439C421162EED11AE7DBF823
:10B950001C2E0132CBF81C2EB7B14FF0000EC1E700
:10B96000002007B0BDE8F08F0E4991F8AC3303EB2F
:10B97000430301EBC3033B4493F859330D2BAFD181
:10B98000802388F81E30ADE7194658220A483DF05A
:10B9900087FDE2E7012204498BF81C2FC1F81C3413
:10B9A000F0E600BF70170120C0120020ABAAAAAABF
:10B9B00034130508A09B04088C100020C801002047
:10B9C0002DE9F0472422D0F8205181680023C0F8E7
:10B9D000942104462A6800F5907622F001022A603C
:10B9E0002B606B60AB60C0F89C3180F89031C0F880
:10B9F0009431C0F824114079C4F898318202C4F817
:10BA00003831C4F8403102F480522379C4F8282137
:10BA1000020313F0010702F40052C4F82C214FEA8C
:10BA2000002202F48062C4F8302103F0020240F0E8
:10BA3000C680002A40F0EC80C4F83471B14B03F1A9
:10BA4000200153F8042F944200F0F7809942F8D176
:10BA50000207D4F8943140F10481002B00F03581C5
:10BA600024233046C4F894312B6823F001032B6063
:10BA700033F0E6FA012817D0D4F84431002B40F017
:10BA80002E816B6823F490436B60AB6823F0220334
:10BA9000AB60AB6843F00803AB6030462B6843F003
:10BAA00001032B603AF040FA002F5CD0D4F8FC7010
:10BAB000002F00F0F080D4F8043104F13C08C4E910
:10BAC0000F7300234046C4E91133C4E91433C4E9B9
:10BAD0001833C4E91A334FF48033E3654FF48063BD
:10BAE000E3644FF48073A3653AF0EEFE404632F013
:10BAF0006DFDD4F898A1C4F88C81BAF1200F666767
:10BB00002ED1E368626999B252B3B1FA81F94FEA72
:10BB1000591929B394F89001012821D00B46A4F8B3
:10BB200078112221C4F89C914046C4F87421C4F8CD
:10BB300098117549C4F88C90A1677449E1677449FC
:10BB4000C4F8881005F1240132F0DAFD002800F075
:10BB5000CA80102384F89091C4F89C31C4F894A151
:10BB60007B68C4F814312379990764D5D4F800515F
:10BB7000002D56D0D4F80821002304F19C07C4F806
:10BB8000A8303846C4F8B030C4E927524022C4F87F
:10BB9000A4204FF48062C4F8AC204FF48032C4E992
:10BBA0002D33C4E93033C4E93233C4F8BC203AF051
:10BBB0008BFE384632F00AFD00287FD0FEE70423D2
:10BBC000C4F83431B2B10C23C4F83431C3077FF563
:10BBD00035AFD4F844314FF4803243F00203C4F857
:10BBE0004C2143F00103C4F844314FF40033C4F84E
:10BBF000483123E7C1077FF521AFD4F8443143F042
:10BC00000203C4F844314FF48033C4F84C3115E7D3
:10BC10000823C207C4F834317FF510AFD4F844319B
:10BC2000DFE7D4F8A0311A6842F080021A601A687F
:10BC300042F040021A60BDE8F08794F8BC31002B56
:10BC40003FF406AFD4F84431020743F00803C4F8C8
:10BC500044314FF40043C4F85431D4F894313FF5E3
:10BC6000FCAE002B34D024233046C4F894312B682A
:10BC700023F001032B6033F0E3F901283FF414AF04
:10BC8000D4F844313BBB6B6823F490436B60AB68E2
:10BC900023F02A0300E7D4F8A0311A6842F4807236
:10BCA0001A609A6842F001029A601A6842F0200213
:10BCB0001A601A6842F010021A6054E7C4F88871DA
:10BCC000C4F8D4606860BDE8F08784F89031C7E6B6
:10BCD00084F89031C7E7304633F026FBD3E730468F
:10BCE00033F022FBCDE684F890012B6843F4807397
:10BCF0002B60AB6843F00103AB60AB6843F04003DB
:10BD0000AB602DE7E81E0020C19F0308F19F0308E8
:10BD1000F59F03082DE9F041EFF31185502383F3DC
:10BD20001288D0F800311B6813F0010304D0EDB283
:10BD300085F31188BDE8F081D0F894210446D0F84D
:10BD400098110A4302F02102212AF0D0D0E9091209
:10BD5000914250D090B23ED8194623691B1A9BB22B
:10BD6000D4F89461A1620021202E84F8A411DED1C0
:10BD7000A1698918DBD0B3FA83F77F09002BD6D0ED
:10BD800094F89021012AD2D00122D4F88801A4F895
:10BD9000723184F890212122C4F89C71D4F820815A
:10BDA000C4F86C11A4F87031C4F89421B0B1144AED
:10BDB0000765C263134A0264134AC26408F1280289
:10BDC00032F09EFC50B1102384F89071C4F89C317D
:10BDD000C4F89461ABE7081A83B2C1E7002340229C
:10BDE000C8F8202084F89031D8F8083043F0800358
:10BDF000C8F808309BE7012380F8A43197E700BF1B
:10BE0000999F0308BD9F0308F59F030870B5D0F8FC
:10BE100020410546E369990614D5606AEB6AC0B211
:10BE2000002B73D0296B9847D5F82041236823F461
:10BE300080732360A36823F00103A360A36943F028
:10BE40000803A361E369DA0701D501232362E369EB
:10BE50009B0701D502232362E3695E0701D5042312
:10BE60002362E369180701D508232362E3695906B1
:10BE700015D54023236295F8BD61002E30D0D5F84A
:10BE80000031D3B12846FFF745FF95F8A431002BC8
:10BE900048D095F8BD61D5F82041002E4AD0D5F89C
:10BEA000003153B1E369DB0606D56B6B13B19847DC
:10BEB000D5F820411023236270BDE3691A06F1D53D
:10BEC000D5E90923934230D0A969CA5C0133D2B2C3
:10BED000A2622A69B3FBF2F102FB1133AB62E1E724
:10BEE00095F8B2010BF084FC236823F0080323606B
:10BEF000012385F8BD310028C1D032462021FEF74C
:10BF00006DF8D5F80031002BBCD1D6E7EB696A6932
:10BF1000D054EB69EA680133B3FBF2F102FB113351
:10BF2000EB6181E7D5F82041B9E7236823F080036E
:10BF30002360B7E795F8B2010BF05AFC236823F0B1
:10BF400008032360012385F8BD310028A7D03246BD
:10BF50002021FEF743F8A2E72DE9F04FC74C83B04C
:10BF600004EB8004D4F82C4C002C71D0D4F8AC51E4
:10BF70001F46DFF8249306466B689046A160C4F81C
:10BF8000A03109F69C13688F2360BD4ADFF80CB31B
:10BF9000D5E90C13E060C4E905312B8FC4F8A82162
:10BFA00023612A780BEB420393F9480F5300019366
:10BFB000C3B2012B50D9D4F800E1BEF1000F13D069
:10BFC000B04B0021586801312433864500F00281CE
:10BFD0001029F7D1AC4B93F8781029B9013283F8C6
:10BFE00079200B2283F87820D4F8FC90B9F1000F67
:10BFF00040F090806B68C4F8203195F82800002844
:10C0000040F0A68094F8B2010BF0F2FB02213A074F
:10C01000034694F8B0A184F8BD1140F19C8000283B
:10C0200000F09E8017F0510F00F0268117F0410FAD
:10C030000CBF2A214A210B2201361846DE719A7163
:10C0400094F8B321FDF7CAFFB9F1000F00F0FD80AD
:10C05000204603B0BDE8F08F09F5A8614FF00C0A47
:10C0600008234FF0000E8C461AFB003A06E00EF152
:10C07000010E0CF11C0CBEF1170F19D09CF800300A
:10C08000042BF4D19CF801309342F0D15CF80A30D3
:10C09000002BECD0C4F80031CEEBCE0300EB400C0B
:10C0A0009B0003EB8C034B44D3F84C35C4F80831A8
:10C0B000019B9B449BF9493F01333FF47CAF002334
:10C0C000864604E001331C31172B3FF474AF91F81E
:10C0D00000C0BCF1050FF5D191F801C09445F1D134
:10C0E00051F80A000028EDD0C3EBC30384460EEBE1
:10C0F0004E00D4F800E19B00C4F8FCC003EB8003C1
:10C100009944D9F84C35C4F80431BEF1000F7FF4DE
:10C1100057AFE1465B4A0023516801332432894519
:10C1200036D0102BF8D1584A6B6892F87810002955
:10C130007FF461AF2978013182F879100C2182F8FF
:10C140007810C4F8203195F8280000283FF45AAF41
:10C1500036F040FB56E718F0020F01D0002868D1F6
:10C1600050460BF045FB00283FF46EAF18F0010F6E
:10C170003FF46AAF0C2201360221C671827194F835
:10C18000B121FDF72BFFB9F1000F7FF461AF5CE047
:10C19000DBB23D4A013B03EBC30302EB830393F89D
:10C1A0009C20002A7FF426AF2A78D3F88000013241
:10C1B00083F89D20354A904214BF962095200C228A
:10C1C00083F89C2036F006FB6B6803F12402C4F868
:10C1D0001C2110E75FFA81F92B4B09F1FF3101EBCC
:10C1E000C10103EB810393F89C1000297FF4FCAE9E
:10C1F0000132264883F89D20D3F88020824214BF64
:10C20000962095200B2283F89C2036F0E3FA2346F3
:10C21000484695F82B201E49FDF780FE6B68D4F840
:10C22000FC902833C4F81831B9F1000F3FF4E2AEA6
:10C2300070E70B223B06827106F10102C2712FD416
:10C2400094F8B321FDF7CAFE8AE795F82C1095F90A
:10C250002A00890936F01EFA95F92A2095F82A3025
:10C26000002AFFF6F5AE03F01F0001225B09094921
:10C27000824041F82320EBE63A21DCE6C0120020A0
:10C2800049B1000880000120000001200060024048
:10C290005D90000800E100E0A09B040870170120F9
:10C2A0000123204684F8BD31FEF74EFF58E700BF5A
:10C2B000BFF34F8F0549064BCA6802F4E06213438F
:10C2C000CB60BFF34F8F00BFFDE700BF00ED00E084
:10C2D0000400FA0508B572B6FFF7EAFF30B583B07F
:10C2E000FFF7DCF80320FFF7CDF801284CD0324CE3
:10C2F0000025324A0523C4F89850C4F89C50C4F86D
:10C30000A020C4F89430BFF34F8FBFF36F8F4FF668
:10C31000FF01E2682A4B0A4013432A4AE360536F45
:10C3200032F040FB284B2949A3FB0023D4F8FC2022
:10C330009B0C42F08072C4F8FC20C1F8B433D1F8F1
:10C340002C332349234AA1FB031323499B09C2F839
:10C35000B01F5560013B1168B3F1807F41F00101CE
:10C36000116007D34FF0E022136943F00403136117
:10C3700003B030BD4FF0E022F0215361072384F871
:10C38000231095611361EDE702210320FFF780F888
:10C390000C4B12485A6C124942F480425A645B6C4E
:10C3A00003F480430193019A02680B68026083F3EF
:10C3B00008884B689847FEE700ED00E01B00000688
:10C3C0000005FA050038024083DE1B437017012088
:10C3D000D34D6210001000E055CEACC500380140CE
:10C3E0000000F01F800AA0F5801052281CD80F4BC7
:10C3F000034493F8F4330D2B16D8013910B40C4CC8
:10C4000004EB831CD4F82C438BB2DCF840040CF210
:10C410004441CCF84C34B4FBF2F2013A5DF8044BE1
:10C42000CCF8442432F078BD704700BFA09B0408CC
:10C430007017012070B50468A30AA3F58013522B6E
:10C4400005D82D4E334493F8F4530D2D00D970BD0B
:10C450002046FCF707FE294BA801022203EB8515B5
:10C46000D5F8401485F87D24254A8D682A40062A8F
:10C4700006D0B2F5803F03D00A6842F001020A609C
:10C480001A180121002382F87D141E4951F8332027
:10C4900094420AD001330E2BF8D10121002036F04E
:10C4A000F9F8194B01221A6070BD06EBC306012191
:10C4B00096F9D14996F8D159204636F0EBF8002C80
:10C4C000C5DB05F01F0201216B090F4C01FA02F2D6
:10C4D0001B2D44F8232006D1192036F0DBF84FF04D
:10C4E0000073236070BD2E2DB1D12C2036F0D2F810
:10C4F0004FF48053636070BDA09B04087017012047
:10C50000070001006CA5040800E100E003689B0A35
:10C51000A3F58013522B52D8F0B5344C234493F832
:10C52000F4330D2B4AD84479022531484FEA831E53
:10C5300024FA05FC00EB831605FA0CF5644603EBC0
:10C54000830CD6F8406403EB4C0C00293BD0A44488
:10C55000F4682C4300EB8C0569606A61F460EFF3CA
:10C56000118C502282F312882C2101FB03F2845893
:10C5700002442CB3211D546203EB83021D4D03EBD7
:10C580004202920015441032024452F8044F0CB19A
:10C590000C60211DAA42F8D100225FFA8CFC0A60CF
:10C5A0008CF311882C2202FB03035B6AABB1864437
:10C5B000DEF84024D36843F00103D360F0BD704738
:10C5C00011462431D8E7F768644427EA0505F56089
:10C5D00000EB840569606A61C1E77044D0F84024CB
:10C5E000D36823F00103D360F0BD00BFA09B040813
:10C5F000701701209017012003689B0AA3F5801390
:10C60000522B00D970470F4A134493F8F4330D2B83
:10C61000F8D8022210B40C4C407904EB831C20FAA9
:10C6200002F3DCF8400402FA03F3C26829B922EAF3
:10C6300003035DF8044BC360704713435DF8044B7C
:10C64000C3607047A09B04087017012003689B0A11
:10C65000A3F58013522B10D8084A134493F8F423FF
:10C660000D2A0AD8407902230549D84001EB8212ED
:10C670008340D2F84024DB4313617047A09B040839
:10C680007017012001490248FCF74CBC70170120CB
:10C690000000014010B5064C06482146FCF742FC5C
:10C6A00004F5C6710448BDE81040FCF73BBC00BF70
:10C6B00070170120000001400044014002494FF082
:10C6C0008040FCF72FBC00BF9C17012001490248A5
:10C6D000FCF728BCC81701200004004001490248AB
:10C6E000FCF720BCF4170120000800400149024873
:10C6F000FCF718BC20180120000C0040F8B5164DBE
:10C70000164E2A69EB681A404FF00040B2FA82F3E5
:10C71000EAB120FA03F3012A6FEA030302EA0301F4
:10C720002B610A46F2D1D6F804718FB1013F002384
:10C73000BFB2C6F80431D6F8004134B123682046B0
:10C74000394698476468002CF8D10022DCE7F8BD30
:10C75000EF6ABFB2EFE700BF001000407017012082
:10C7600001490248FCF7DEBBA41801200004014087
:10C7700010B5064C064804F59A71FCF7D3FB04F596
:10C7800004710448BDE81040FCF7CCBB70170120D1
:10C7900000040140001C004001490248FCF7C2BBF4
:10C7A000D01801200040014001490248FCF7BABB03
:10C7B000281901200048014001490248FCF7B2BB9A
:10C7C00054190120001800402DE9F0414FF4257262
:10C7D0008EB000215E483CF059FF5E4B5E4D4FF03D
:10C7E00000085A6C40F22227A5F63C26A5F17004F9
:10C7F00042F001025A645A6C02F001020092009A5F
:10C800001A6C42F001021A641A6C02F001020192E1
:10C81000019A1A6C42F002021A641A6C02F00202C7
:10C820000292029A1A6C42F004021A641A6C02F024
:10C8300004020392039A1A6C42F008021A641A6CFA
:10C8400002F008020492049A1A6C42F010021A6470
:10C850001A6C02F010020592059A1A6C42F020023E
:10C860001A641A6C02F020020692069A5A6C42F080
:10C8700002025A645A6C02F002020792079A5A6C3A
:10C8800042F480325A645A6C02F480320892089A58
:10C890005A6C42F400325A645A6C02F40032099223
:10C8A000099A5A6C42F480225A645A6C02F480222B
:10C8B0000A920A9A1A6C42F040021A641A6C02F048
:10C8C00040020B920B9A1A6C42F080021A641A6CA6
:10C8D00002F080020C920C9A1A6C42F480721A6474
:10C8E0001B6C03F480730D930D9B55F828100023E7
:10C8F00054F83320914226D001330E2BF8D100207A
:10C9000008F1070835F066FFB845EED14FF0000892
:10C9100040F2222755F82810002354F83320914282
:10C920000CD001330E2BF8D1002008F1070835F0A8
:10C9300051FFB845EED10EB0BDE8F08106EBC30360
:10C9400093F8D009F1E706EBC30393F8D009D7E7D2
:10C950007017012000380240DCA50408800AA0F509
:10C96000801052280ED8084B034493F8F4230D2A64
:10C9700008D8064B03EB8213D3F84024136843F026
:10C9800001031360704700BFA09B040870170120CB
:10C9900038B5264C94F8603F012B12D1042894BF7F
:10C9A000002301236BB904EB40000D4694F8781F77
:10C9B000C4F88C3FB4F87A2FB0F8823FB4F87E0FF9
:10C9C00001B138BD07EE902ADFED196AD4F8702F57
:10C9D000B8EEE77ADFED177A27EE267A06EE902A90
:10C9E0006422F8EE666A02FB03F366EEA76A07EEBE
:10C9F000903A02FB0033B8EEE76A07EE903A27EE72
:10CA0000067AF8EEE77A87EE270A20EE260A3BF050
:10CA1000E9FFD4F8682FB4F87C3F1060D4F8D42232
:10CA200013442B44C4F8903F38BD00BF7017012059
:10CA30000AD7233CCA269B3E2DE9F041A14CA4B065
:10CA4000D4F85C38022B00F039829F489F4AA049F5
:10CA5000121A3CF025FD9F489F4AA049121A3CF04B
:10CA60001FFDD4F85838012B00F2C08003EB4303BC
:10CA70009B4A9C4E02EB430032F813204188838886
:10CA8000C6E9B021C6F8C832974C984D984BB2FB16
:10CA9000F1F2984901FB02F20021C5F82C23D4F8E9
:10CAA000882042F47002C4F888201A6842F001021B
:10CAB0001A609960904A1868024090481A60C0F362
:10CAC00008078F4A5A601A6822F480221A60D960D7
:10CAD00007B1FEE78B49A0604FF6FF000A688A4B5A
:10CAE00042F400720A60E26802401343E36036F0E9
:10CAF00059F9BFF34F8FBFF36F8FC4F85072BFF374
:10CB00004F8FBFF36F8F636943F400336361BFF3EB
:10CB10004F8FBFF36F8FC4F88470BFF34F8FD4F87B
:10CB2000803043F6E07CC3F3C90EC3F34E335801A3
:10CB300000EA0C01734641EA8372013B5F1CC4F8B2
:10CB40006022F8D1203810F1200FF1D1BFF34F8FC0
:10CB5000636943F480336361BFF34F8FBFF36F8F1B
:10CB60006849634B0A6842F480720A60196C674A2C
:10CB700041F080511964196C01F0805102910299C1
:10CB8000116841F4404111601268D6F8C04202F4C5
:10CB900040420192019A9A6802F00C02042AD6E9F6
:10CBA000B17100F08B809A6802F00C02082A00F044
:10CBB00081804F4A136843F480331360D5F8940F93
:10CBC00004E0D5F8943F1B1A642B72D813689B03BA
:10CBD000F7D5474A936803F00C03082B69D0136814
:10CBE00023F080731360D5F8940F08E03D4ED6E92A
:10CBF000B02149E7D5F8943F1B1A022B59D8136886
:10CC00009E01F7D40B06790843EA8413013943EAFD
:10CC100001433F4919435160136843F08073136027
:10CC2000334AD5F8941F04E0D5F8943F5B1A022BE1
:10CC30003FD813689801F7D5136C43F08053136401
:10CC4000136C324A03F080530393039B136843F43D
:10CC500080331360D5F8941F05E0D5F8943F5B1A34
:10CC6000B3F57A7F2DD85368DB03F6D513682749CF
:10CC700043F400331360D5F8942F05E0D5F8943FC2
:10CC80009B1AB3F57A7F1CD84B689E03F6D54FF4F8
:10CC900000124FF0006304A804924FF4C072219375
:10CCA0000723CDE9082303230A9331F0AFFE88B3AD
:10CCB000FEE7FEE75B685A027FF57BAF0C4B1B6813
:10CCC00087E7FEE700200040000000005039000028
:10CCD0006895050800000020C8010020A5EF0508A0
:10CCE00064AE04080000012000ED00E07017012090
:10CCF0000038024040420F00FFFFF6FE000000082F
:10CD000010300024003C02400003FA05007000408F
:10CD1000080040206C4A136803F00F03062B0AD862
:10CD2000136823F00F0343F007031360136803F045
:10CD30000F03072B69D1654B9A6842F4E0529A6061
:10CD40009A6842F460429A609A6822F0F0029A600F
:10CD50001A68900159D59A6841F2883022F003028E
:10CD600042F002029A60D5F8941F04E0D5F8942F9F
:10CD7000521A824249D89A6802F00C02082AF5D168
:10CD8000514A136819070AD5136823F00F0343F0BB
:10CD900007031360136803F00F03072B35D1DFF887
:10CDA0002C814B4ED8F8083023F4E05343F4A053C1
:10CDB000C8F80830D8F8083023F4604343F400433F
:10CDC000C8F8083031F0EEFDD8F80830C3F303138B
:10CDD000334493F8D83120FA03F3C5F82C3335F0F7
:10CDE000E1FF002304A8CDE91333CDE91533CDE9E4
:10CDF0001733CDE91933CDE91B33CDE91D33354B5D
:10CE0000049331F003FE08B1FEE7FEE702234FF082
:10CE1000007204A8CDE90633D823CDE90423012309
:10CE20000B9331F0F3FD00B1FEE7D8F88C3023F01E
:10CE30008073C8F88C30D8F88C3043F08073C8F811
:10CE40008C30D8F8083003F00C03042B31D0082BB9
:10CE500012D0214B2149B4FBF7F201FB02F21B492E
:10CE60008968C1F303110E4496F8D811CB409A4259
:10CE7000C5F82C331FD0FEE7D8F80430D8F80420CA
:10CE800013F4800FD8F8043002F03F0218BF1449A1
:10CE9000C3F3881308BF1049B1FBF2F202FB03F39E
:10CEA0000A4A5268C2F3014201325200B3FBF2F364
:10CEB000D0E70B4BCEE724B0BDE8F0810021032082
:10CEC000FEF7E6FAFFF7F4F9003C024000380240B2
:10CED00098AC0408C0FF03000024F40040420F0097
:10CEE00000127A000548D0F8A03223B1DB6A13B1F2
:10CEF00000F5287018470248704700BF70170120DE
:10CF000080AE040810B5154CD4F8983F1B883BB987
:10CF1000002384F8A73F84F89832C4F8943210BDF7
:10CF2000D4F89C2F002AF3DDD4F8A01F012A4888EA
:10CF300005D00123A4F8A40F84F8A63FE8E78A8867
:10CF40000132121A9A42F4D10022D4F8A03204F528
:10CF500028701B69C4F8CC229847D9E770170120C4
:10CF60000748D0F89C3213B190F8A63F0BB10020CF
:10CF70007047D0F8A03200F528705B68184700BFF2
:10CF800070170120164A30B4164D92F89832456059
:10CF9000EC1892F8A73F046092F89802834216D8E2
:10CFA00092F89802834206D300231A46184630BCF2
:10CFB000C1E90032704792F898021A1EC0F180034E
:10CFC0000CBF0120022030BCC1E90032704792F84A
:10CFD0009842002201201B1B30BCC1E9003270477F
:10CFE000701701200C1F00200F4B93F8982293F824
:10CFF000A70F93F89822904293F898220FD8904266
:10D0000004D3D3F8943200201844704793F8982240
:10D01000D3F89432C2F18002104418447047801A49
:10D02000D3F89432184470477017012070B51B4C28
:10D0300084B01B4B94F898220393134494F8A71FD1
:10D04000029394F89832994294F8983216D89942FB
:10D050000CD294F898520E46C5F18005D9B92B46EA
:10D0600001223F2BCDE900560DD860B994F8980203
:10D07000401AB0FA80F0400904B070BDCB1A002607
:10D0800001221D46EDE76946002302A83AF0BAF8EE
:10D0900094F8A71FEAE76B180222E2E77017012055
:10D0A0000C1F00202DE9F043164685B000293CD026
:10D0B000451E284CDFF8A4804FF000096F180DE0E2
:10D0C00094F898320846994294F898321DD2C3F1E8
:10D0D000800318443F281BD8AF4226D094F8A70FEE
:10D0E00015F8013F411C4044C9B280F84C3C0B0686
:10D0F00084F8A71FE4D5002094F8983284F8A79FFD
:10D100000146994294F89832E1D3C01A3F28E3D9F6
:10D1100094F898329942DFD00F4B1B78002BDBD06C
:10D120000020FFF783FFAF42D8D1694602A8FFF77E
:10D1300029FFDDE9003213443F2B00D910B905B0B7
:10D14000BDE8F0830246334602A83AF05BF805B02A
:10D15000BDE8F0837017012000000120C0120020FC
:10D1600030B585B0694602A8FFF70CFF58B9094CE5
:10D1700004F52875D4F8A03228465B689847002843
:10D18000F8D005B030BD0246012302A83AF03AF8C3
:10D19000EDE700BF701701202DE9F0410F4C164656
:10D1A00082180546D4F89C320F469A4294F8A72F6D
:10D1B00088BF1E1A94F898329A4201D0FFF7D0FF28
:10D1C000002033463A462946C4F8CC02D4F8A002DF
:10D1D000846A0348A446BDE8F04160477017012007
:10D1E000101A01208C461346014662461846D3E7C2
:10D1F00038B5244C002204F6A8701346C4F89C22CB
:10D2000002461178063202292BD00133062BF8D1C1
:10D210000022D4F8A032C4F8A02FF3B1DA6AE2B148
:10D2200019489047D4F8A03FC4F8980FA3B1598883
:10D230009A884368521A02FB0333C4F89C32FBF706
:10D2400009F994F89832054694F8A72F9A4201D02C
:10D25000FFF786FFC4F8945238BD0C4BC4F8983FD2
:10D2600038BD03EB4303D4F8A02200EB4303C4F81A
:10D27000A03F12B1D26A002AD2D10448C4F8980F54
:10D28000D5E700BF70170120101A012080AE0408F6
:10D2900010B50A4CD4F8A0325B6A13B104F52870BB
:10D2A0009847D4F89432D4F8982F013B528813440D
:10D2B00052421340C4F8943210BD00BF70170120D1
:10D2C0002DE9F041364D92B0FFF71CFEFFF790FFBD
:10D2D00095F8983295F8A72F9A4201D0FFF740FFB2
:10D2E0000024D5F89C62C5F8944286B12D4F2246A1
:10D2F00039466846203401F0EDFD68463AF05EF8A4
:10D30000012201466846FFF7CDFEA642EFD895F808
:10D31000983295F8A72F9A4201D0FFF721FFD5F850
:10D32000983F9B7B012B34D095F8983295F8A72F26
:10D330009A4201D0FFF714FF0027C5F894725EB33C
:10D34000DFF860803C4601E0A6421CD922464146F7
:10D3500009A801F0BFFD2122002168463CF096F9A2
:10D36000202269462046FFF717FF2022054609A91B
:10D37000684620343CF0AEF908B9202DE4D0A6422E
:10D3800007F10107E2D8B7FA87F0400912B0BDE80B
:10D39000F081FFF77DFFC7E7012012B0BDE8F08103
:10D3A00070170120A41205080B4B93F8CC0218B992
:10D3B0000A4B93F8CC0F7047094AD2F85C1803293E
:10D3C000F6D106494FF0010C81F8CCCF0021C2F80C
:10D3D0005C1883F8CC127047000001207017012000
:10D3E000002000400321044608B50846FEF750F827
:10D3F00072B6104BD3F8D00FD3F8D41F50EA010205
:10D400000AD1002211460420FEF742F811460520F9
:10D41000FEF73EF8FEF74CFFD3F8D4224EF6602319
:10D42000121803FB04F041F10001821841EBE07196
:10D43000E9E700BF701701200021032008B5FEF7BF
:10D4400027F872B6FEF734FF154C08B5D4F8D83F6C
:10D4500094F8DE0FABB914200EF016F800BFD4F824
:10D46000D83F5BB1196894F8DE2F9B8809690B409F
:10D4700012B91BB1FFF7E0FF002BFBD0FBF71EF842
:10D48000ECE719689A880B69134020B1002BE2D1B0
:10D490000B691340FAE7002BDDD00B691340FAE764
:10D4A00070170120F8B51C200AF0A2F904461121DA
:10D4B000FCF760FF7CB3A388C82022681B0493613B
:10D4C0000DF0E2FF2368A2881B209A610AF090F910
:10D4D00008B12923C3802923E380264CD4F86C3279
:10D4E00013B10023C4F86C320023234E0125234FCF
:10D4F000C4F8686287F8E03F84F8545238F000FFBF
:10D5000006F11C03C4F86C321D4B93F89931AB4201
:10D510000CD02846F8BDC8200DF0B6FF1B200AF03D
:10D5200067F90028D9D02923C380D6E7D4F8880228
:10D53000543690F8BC33C4F88462AB4214D001680E
:10D54000D1F8043823F00203C1F80438D7F8942F37
:10D55000D7F8943F9B1A032BFAD98B68002243F02B
:10D5600001038B6080F8BC230023064A184682F82A
:10D570002330F8BD70270120D00201207017012050
:10D580006828012000ED00E02DE9F04F002189B06E
:10D5900041F69462B7483CF079F80420FDF772FF39
:10D5A00001460520FDF76EFF51EA000340F055816A
:10D5B000B14B01934C220021AE4801243CF066F8A7
:10D5C00000214C22AB483CF061F8019BA94AD3F8FA
:10D5D0007433AA4D164614711560D36113625362F9
:10D5E00035F000FCFFF704FE002108460AF08EF932
:10D5F000FAF730FFB0F1000840F399810024A04D04
:10D6000006F14C099F4E2746A34605F5CE7A0094B5
:10D6100004E00BF5006BD84540F3AE809A4AD2F88F
:10D62000D432C2F8D832FAF749FF20225146584680
:10D63000FFF7B2FD1222954950463CF04BF8002806
:10D64000E7D15F4525D00099914B01EB410203EBF7
:10D6500082034A1C8F4918460093ABEB07030392E1
:10D66000029301F037FC009B4946039A41F84C3B7A
:10D67000029BC9F80C700092C9E90433D9F81C3038
:10D68000C9E908330123C9F80830834BC9F82830A9
:10D690008946019B5F461222D3F87433C9F81C30C7
:10D6A000A918335D013291F89C1199420BD00024E6
:10D6B000202AF5D120375146B845384653DBFFF7CD
:10D6C0006BFD0022ECE70134152CF1D1D019734F1A
:10D6D00020223946FFF760FD384600230A2207A9B9
:10D6E000079701F0A7FD0746079800230A2207A91C
:10D6F0000130079001F09EFD0590002307980A2253
:10D7000007A90130079001F095FD049000230798C8
:10D710000A2207A90130079001F08CFD039007A9A8
:10D72000079800230A220130079001F083FD0023AF
:10D73000029007980A221946013001F07BFD97B14B
:10D740000399DDE9043243EA4212029B5B0143EA9A
:10D75000C123A7F2BC7143EA600342EA412243EAD3
:10D760000243C9F81C30009B642B45D05F460BF583
:10D77000006BD8453FF752AF009B642B20D0BB45D0
:10D780001ED00C22424CABEB070503F1010B02FB50
:10D79000034440495A46204601F09CFBD9F81C201E
:10D7A000C9F80040C9F80C70CDF800B0C9E90822EA
:10D7B0000122C9F80820384AC9E90455C9F82820C7
:10D7C000009B002B03F1010117DC4FEA4803B3F182
:10D7D000805FC0F2AD80274B986830B91A461B793C
:10D7E0001BB11368002B40F0D9800021084609B016
:10D7F000BDE8F04F0AF08AB865214C261D48DFF8D5
:10D80000A8A04FF0010906FB01F432460021244F85
:10D81000051928463BF03AFF3246002128463BF0E6
:10D8200035FF1D4E134804F1100204F1180300994E
:10D8300040F804A0C5F8089002312F62AE6240F8AB
:10D84000028002440430C2F80480019AD2F87423A2
:10D85000C25003445A606A62B7E74FF47A720023F9
:10D860003AF070FA0F4B40F2B27240F26D14B0FB16
:10D87000F3F31DE0902F012000000120F473050850
:10D8800068280120E812050870170120C412050855
:10D89000242A0120D8120508E5D10008042A012015
:10D8A0000068214C80510100001305085B1A013209
:10D8B00012F0030514BF21464FF4B7718B42F5DA1D
:10D8C0008549002D64D001910199D1F844138B4210
:10D8D000C0F29C80814D01245B1A55F8041F01346D
:10D8E0009942F9DD0133A2F2BC72019D43EA44136F
:10D8F0003C2443EA42237A4AB0FBF2F102FB1102D4
