:020000040800F2
:1000000000100020910500088F0500088D050008EC
:1000100000000000000000000000000000000000E0
:100020000000000000000000000000008F05000834
:1000300000000000000000008F0500088F05000888
:100040008D0500088D0500088D0500088D05000848
:100050008D0500088D0500088D0500088D05000838
:100060008D0500088D0500088D0500088D05000828
:100070008D0500088D0500088D0500088D05000818
:100080008D0500088D0500088D0500088D05000808
:100090008D0500088D0500088D0500088D050008F8
:1000A0008D0500088D0500088D0500088D050008E8
:1000B0008D0500088D0500088D0500088D050008D8
:1000C0001F4B204A80211A6080221F4B12011A60A8
:1000D00011221E4B49041A60A0221D4B92031A6084
:1000E0001C4A10680143116080218904106808428D
:1000F000FCD0022219680A431A6090230121164A93
:10010000DB051A60154A49421160802214499202A7
:10011000086802430A6080221249520008680243BC
:100120000A60802210495205086802430A601021C3
:100130000E4802680A4302601A688A431A607047D0
:100140001410024040000600181002400020024037
:100150000410024000100240FFFFFFEB00040048C3
:100160001C10024020000048240000480C000048F9
:1001700008220B4B01211A600A4B0B4A1A600D2210
:100180000A4B1A600A4B0B4A1A600B4B0B4A1A6057
:1001900004220B4B1A600B4A116005221A6070474B
:1001A000084400400C440040E204000000440040C9
:1001B000282C0140BF1200002C2C014087130000A6
:1001C000002C0140142C0140F7B5022301910121BC
:1001D000114A124C5B42116023600023104D019EB6
:1001E000B34204DB01200FE026680E420BD120272A
:1001F0002E683E42F8D02E68B4460626674637423F
:1002000003D0084B1E600020FEBD074E3668C65462
:10021000012616609B19E2E7142C0140102C0140C6
:100220001C440040204400402444004009230B4A61
:10023000F0B5136080250023094C0A4E8B4206DB83
:10024000402321681942FCD00D231360F0BD2768BC
:100250002F42FCD0C75C01333760EFE70044004019
:100260001C4400402844004013B501AC022120008A
:10027000FFF7AAFF002805D0207863784340FF2BC2
:1002800000D116BD01204042FBE707B5C3B201A86B
:100290000370DB4302214370FFF7C8FF07BD37B58A
:1002A0000500FFF7E1FF0400431C03D10124644271
:1002B00020003EBD0134A40021002800FFF784FF88
:1002C0000028F3D0042101A8FFF77EFF0028EDD01D
:1002D0002100280000F0D0F8019B9842E8D0E5E723
:1002E00037B50C00050000F0C7F80190A0100138E8
:1002F000FFF7CBFF28002100FFF798FF042101A89A
:10030000FFF794FF37BD0000F0B5524CA544FFF74E
:10031000D7FEFFF72DFF90224F4B5205196811426F
:1003200005D0802252041A600020FFF7AEFFFFF7CD
:100330009BFF052867D800F01FF9F7030F1E325600
:10034000022300211C2203A8029300F00DF92021B2
:1003500002A8FFF7C5FFEAE7FFF786FF0400431C8A
:1003600051D0FFF781FF431C4DD001303B4B810042
:10037000A002C018EDE7FFF777FF0400431C42D04E
:1003800002A8FFF78CFF0200431C3CD03348A402B4
:10039000334B201802A9984743425841C5E700262D
:1003A00035002E4B2F4FDB1B9B1201932E4B0093DE
:1003B000019B9E4206DB2A00380000992B4B984790
:1003C0000120B2E7009B5819FFF769FF0400431CA6
:1003D00019D00020FFF759FF80232D19DB009C4224
:1003E000E9DB0136E2E7FFF73FFF442807D0552855
:1003F00007D03328E4D1002000F050F8E0E70120D6
:10040000FAE70220F8E7154B19495A7818781202D2
:1004100002438A428BD18022D2009818995C42789C
:1004200012020A43817809041143C27812060A4372
:1004300082F308880F490F4A9A5C5B1859780902C1
:1004400011439A78DB7812040A431B06134398473A
:10045000FEE7C046F4FBFFFF241002400010000836
:10046000010000200000000800100020AD00002066
:10047000EA32000004040000E122064B89101A60F1
:10048000054B013902D21868C043704704C81A608E
:10049000F7E7C046083002400030024073B5254BF4
:1004A0002549264A19601A60254B19601A600122F5
:1004B0002449254B52420A601C886B461C70234C11
:1004C00024885C70224C24889C70224C24889A805A
:1004D000DC70012827D1204C204A121B12139040B7
:1004E0004042187188201E4A800010604030106021
:1004F00001200C680442FCD184200125800010609A
:10050000184C11481E7806800E682E42FCD102302D
:100510000133A042F6D114230968194208D180237F
:100520009B011360FEE70228DCD100229A80D9E704
:1005300073BDC0460420024023016745AB89EFCD5F
:10054000082002400C20024000F8FF1F02F8FF1FA5
:1005500004F8FF1F06F8FF1F00000008FF1F000837
:10056000102002400CF8FF1F03008218934200D1B4
:10057000704719700133F9E702B471464908490020
:10058000095649008E4402BC7047C046FEE77047DA
:1005900010B5164B164A17498B4218D30021164A3C
:1005A000934217D38023154A9B001168144C0B43C8
:1005B0001360144B9C420FD3134C144B9C420ED32C
:1005C000FFF7A2FE124C134B9C420BD310BD01CA85
:1005D00001C3E1E702C3E3E708CC9847E9E708CCA9
:1005E0009847EAE708CC9847EDE7C04600000020AE
:1005F00018060008C8000020C800002014ED00E024
:100600001806000818060008180600081806000852
:08061000180600081806000896
:10061800F7B50300224C234802250460224C0460ED
:100628000124224864420460214C2560214D5D1953
:10063800AD0AAD0201950025954212DB0126002581
:10064800266095421DDB8025256006686C3D3400D8
:1006580000202C402E4203D12000904218DB0120BC
:10066800FEBD019E144FB446AC4466463E60422629
:100678002660012706683E42FBD18026F600AD19A8
:10068800DAE74F5B5F5307683742FCD10235D8E79A
:100698001D580C58A54201D10430DEE70020DFE7E1
:1006A8002301674504200240AB89EFCD0C200240AE
:1006B80010200240FF0300001420024010B5FFF78D
:1006C800A7FF002803D0024B024A1A60FEE710BDBC
:0806D8000CED00E00400FA053E
:040000050800059159
:00000001FF
