:020000040800F2
:100000000000012059820408F582040889A2010831
:10001000E1A00108F5820408F58204080000000050
:10002000000000000000000000000000F58204084D
:10003000F582040800000000F582040875780108C4
:10004000F5820408F5820408F5820408F5820408A4
:10005000F5820408F5820408B19F0008B99F0008E2
:10006000C19F0008C99F0008D19F0008A59D0008F6
:10007000B99D0008CD9D0008E19D0008F59D000890
:10008000099E00081D9E0008F5820408F5820408F8
:10009000F5820408F5820408F5820408D99F000857
:1000A00011C700080DC6000821C70008FDC50008DB
:1000B00035C6000845C6000855C60008D598000892
:1000C000C998000809990008FD980008F5820408FD
:1000D000F5820408D9770108E5770108F17701086E
:1000E000E19F0008F5820408F582040831C7000882
:1000F000E9C60008F5820408D9C60008319E000848
:10010000F5820408F582040865C60008F582040833
:10011000FD7701080978010875C600086907040819
:10012000459E0008599E00086D9E0008819E0008AB
:10013000959E000800000000000000000000000084
:100140000000000000000000000000009DFB03080C
:10015000A99E0008BD9E0008D19E000815780108E0
:100160003D99000831990008F5820408F5820408D9
:10017000F5820408F5820408000000000000000079
:10018000F5820408F5820408F5820408F582040863
:10019000F5820408F582040800000000F5820408D6
:1001A000000000000000000000000000F5820408CC
:1001B000F5820408F5820408000000000000000039
:1001C000000000000000000000000000000000002F
:1001D000000000000000000000000000F58204089C
:10800000084A0346D0F8E4005268D3F8F010121A78
:1080100000209142B8BFC3F8F020012283F81C2150
:10802000704700BF001000E01B4B016803F57D7C2A
:1080300002E02C3363452BD01A688A42F9D170B51F
:1080400093F804E0427996450BD02C33634505D074
:108050001A688A42F4D02C336345F9D14FF0FF30CF
:1080600070BD9E4684680022DEF80C50A54208D000
:1080700001320EF10C0E032AE7D0DEF80C50A542B7
:10808000F6D1DEF81050C668B542F1D150B270BDDD
:108090004FF0FF30704700BF40A004084368426DB6
:1080A00030B49A61EFF31182502383F31288416850
:1080B000D2B2856C0B68046D23EA050323430B6081
:1080C00082F31188436981681A68096822F0010205
:1080D000D0E908541A60826A1D605C615A60D0E978
:1080E0000B429C60DA600023B0F86C2030BCCA629E
:1080F00003777047002A4FEA014C034630B50ABFA8
:10810000E6468E468C4600F1C005002419680C3303
:1081100053F8042C43F8084C41EA0C0142EA0E02E1
:10812000AB4243F80C1C43F8042CEFD1D0F8C0301C
:1081300043EA0E03C0E93144C0F8C03030BD00BF8F
:1081400083695969B3F810C00A6830B49C6822F09A
:10815000010224680A60E26822EA0C02E260027D01
:1081600000681F2A08D9203A0824D0F804C0944097
:1081700014EA0C0F44D0FEE70824D0F800C0944065
:1081800014EA0C0FF7D1202404FA02F28260254A87
:108190001278002A32D01A7F012A36D0D3F8002173
:1081A0000132C3F80021EFF31181502282F31288CB
:1081B0005868C9B29D6C0268DC6C22EA0502224351
:1081C000026081F311885A699968D3E90D40096802
:1081D00014605061D3E90F40546090605C6CB3F858
:1081E000B400D4600124C8621068204310601A8A69
:1081F0001C7783F8FD40CB681343CB6030BC7047DD
:10820000202404FA02F2C260C1E70022D3F804017C
:1082100083F8FD2001300A68C3F8040122F001024E
:108220000A60EBE7C801002010B40C4C6368002B17
:1082300011DD002004F1080C0146DCF8AC3003F13C
:10824000C00259600C339342FBD1013063680CF5D6
:10825000867C8342F1DC5DF8044B7047C801002046
:10826000704700BF024B03EB401393F8550470476F
:10827000C8010020704700BF0B4890F86C1589B109
:1082800001EB4101002300F27450490010B41C4678
:1082900050F82320063302B114608B42F8D15DF808
:1082A000044B7047704700BFC80100200B4890F88E
:1082B0006C1589B101EB4101002300F274504900B3
:1082C00010B41C4650F82320063302B114608B42D0
:1082D000F8D15DF8044B7047704700BFC80100201B
:1082E0000120704700EB4000024B03EBC00393F802
:1082F00085057047C8010020204890F86C35002B98
:108300003AD0002200F274534FF02C0C2DE9F043C8
:108310004FF0500E1A4E1B4D144607E053F8181B31
:1083200001320C6090F86C15914223DD197C002914
:10833000F4D05F68B90AA1F58011522929448CBF95
:108340004FF0FE0991F8F493EFF311818EF3128848
:10835000D7F824800CFB0969C9B208F10108C9F8F3
:108360002880D7F8148048F00108C7F8148081F3FA
:108370001188D3E7BDE8F083704700BFC801002033
:108380007017012040A0040800EE100AB8EE400A61
:10839000704700BFBCEEC00A10EE103A98B27047AA
:1083A00009494FF4EB7200234FF0230CC0F8021080
:1083B000C2800649064A0370A0F808C0C0F80A1037
:1083C0004382C0F80E2070474A01B400C2010E017A
:1083D000960044000346012200205A77704700BFF0
:1083E000826908B50346006BD96A02449A6101B1FB
:1083F0008847002008BD00BF436A02461B681B6A0D
:108400005B685B7813F0010008BF5077704700BFCE
:10841000C2628161704700BF704700BF043070477F
:108420000C4B93F89822D3F8941202440144D2B230
:10843000C3F8941283F8982293F89822120605D56F
:1084400093F8982282F0800283F89822024B01224E
:108450001A70704770170120000001202DE9F843C1
:10846000144FD7F89C52ED0A1FD00026B04674195D
:10847000D7F8A0124FF010030F4A48BF0134D1F8CB
:1084800028900E486410C7F8CC82E102C8470F2834
:108490000BDD094B03F1100153F8042B013207D116
:1084A0009942F9D12546AE42E1DBE802BDE8F88306
:1084B000661CF8E77017012000000020101A012048
:1084C000194BD3F8D412D3F8D8228A1A322A15D8E5
:1084D000D3F8EC228A4200D37047D3F8DC22F2B101
:1084E00010683231928810B44469C3F8EC12224209
:1084F0005DF8044B18BF120482617047D3F8DC1298
:1085000049B193F8E822888802F001020968120153
:1085100000FA02F28A610022C3F8EC22704732317D
:10852000C3F8EC12704700BF70170120074BD3F857
:10853000DC224AB193F8E832918803F00103126813
:108540001B0101FA03F393610020704770170120AB
:10855000044B4FF4007C0020D3F8F832A2F800C09E
:108560000B60704770170120002070470120704792
:108570000120704700207047134BD0F8D8105B687B
:10858000D0F8E02010B50446581A824200DC22B927
:10859000D4F8E4200A44C4F8DC2094F8D020C4F8CD
:1085A000D830012A05D0D4F8D4300133C4F8D430FF
:1085B00010BD04F1E801201D0EF072FBD4F8D43098
:1085C0000133C4F8D43010BD001000E0CB070DD447
:1085D00030B590F828308DB0C468012B07D0B4F1C5
:1085E000807F01D9012303770DB030BD7047194B4F
:1085F000456AD3E9CA13B1EB930F4FEA93024FF0E8
:10860000020306D252085B0091429BB201D2FF2BBB
:10861000F8D9B4F1807FAB80E6D90122002301A90B
:10862000B7240277284604928DF814208DF828206C
:108630008DF804400B93CDE9021302A9CDE906336E
:10864000CDE908330EF02CFB2A68136A002BFCD10D
:10865000CAE700BF7017012030B590F828308BB002
:108660000446012B08D0407F10B901200BB030BD6B
:10867000002363770BB030BD456A2B681A7B22BBA1
:10868000637F002BF1D013490220002301220290C6
:10869000081D8DF80C208DF820200993CDE90010DD
:1086A00069462846CDE90433CDE906330EF0F8FAE1
:1086B0002A68136A002BFCD1074B5B7DD84303F07B
:1086C000010300F001006377D4E71B6A002BD7D0C9
:1086D0000020CBE7100000200000002030B5044649
:1086E0008BB094F82830012B08D0637F0BB10023A6
:1086F000637701200BB030BD1B6A23B1656A2B681C
:108700001A7B002AF8D1637F002BF2D01049022097
:10871000002301220290081D8DF80C208DF82020E6
:108720000993CDE9001069462846CDE90433CDE927
:1087300006330EF0B5FA2A68136A002BFCD1054BFC
:108740005B7D03F00102DB076277D2D5C9E700BF8A
:108750001000002000000020214A002330B504460C
:1087600095B0101D1F4D0693019002200B9310939E
:10877000139311930290207F00920495CDE90E335C
:1087800001238DF80C3007938DF820308DF83430AC
:108790008DF8483002F10803083A0593031D0A9248
:1087A0000C93114B0993636A1A68136A002BFCD16E
:1087B000A0B10E480A0E00F11A0342760A0A997017
:1087C000080C69465A701870606A0EF069FA636A9C
:1087D0001A68136A002BFCD115B030BD044BEDE7CD
:1087E00020000020F9830008D58300080000002045
:1087F0001900002010B594B004465022074968467D
:1088000041F080F86946606A0EF04AFA636A1A68B5
:10881000136A002BFCD114B010BD00BF88A404085B
:10882000F8B50546406A0068046A002CFCD12C7F2C
:10883000A869002C32D0264E040E052786F82D405C
:108840002E36B0704FEA104C000A224C86F800C059
:10885000012B70704FF000000E6867632664166885
:10886000A6642E63A0651CD0022B16D1536801228A
:1088700020651E444968E365174B84F84C00616528
:108880002E6363666B7F686A84F860209BB113492E
:108890000EF006FAEB6AA3B1286BF8BD0427104E60
:1088A000CFE70D4A84F84C306B7F6065E065226548
:1088B000686A002BEBD10B490EF0F2F9EB6A002B42
:1088C000EAD16B6A1A68136A002BFCD1E4E700BF97
:1088D0000000002000000120E183000804000120C6
:1088E0002D0000201800012000B583B081610192A5
:1088F00001A9049A00930123C2626A46FFF790FF20
:1089000003B05DF804FB00BF70B51D46436A94B028
:1089100006461B681C6A002CFCD1314B0B9203F1FC
:108920003C0230480694009203F14002049003F1A7
:108930003400019202220590029201228DF820401B
:108940008DF80C208DF834208DF84820327F0C955E
:10895000101D1394CDE90944CDE90E44CDE910442E
:108960000790002A3AD00A0E363303F8012C0A0C7D
:1089700099701D4C090A1A705970706AD4E9CA328C
:10898000B3EB920F4FEA92014FF0020206D2490870
:1089900052008B4292B201D2FF2AF8D9737F8280B3
:1089A000D3B169460EF07CF9706A03681A6A002A2E
:1089B000FCD10222D4E9CB34B4EB930F4FEA9301FC
:1089C00006D2490852008C4292B201D2FF2AF8D94D
:1089D0008280284614B070BD05A9E3E73533C6E7A9
:1089E00000000020F9830008701701208269F0B5AB
:1089F00092F8DC308BB00546012B27D0023B012BCF
:108A00002FD892F84C31EC46D2F89C2063F07F03CB
:108A1000154C13708669D6F8A0305F1C0FCCACE8FB
:108A20000F00D6F89C30CDE900370FCCACE80F0032
:108A300094E803008CE80300694606F110000EF08C
:108A40002FF9AA6911690B6A002BFCD1D2F8A0306A
:108A50005A8852BAEA819A8852BA2A82DB885BBA6B
:108A60006B8201200BB0F0BDD8A40408F0B590F8DB
:108A7000DC308BB00446D0F8A060012B4BD034D949
:108A8000023B012B2ED890F84D31EC46D0F89C20BB
:108A900063F07F03434D1370D0F8A0305F1C0FCDFF
:108AA000ACE80F00D4F89C30CDE900370FCDACE82E
:108AB0000F0095E803008CE80300694604F11000FC
:108AC0000EF0EEF82269136A002BFCD173885BBAB2
:108AD000A4F8D030B3885BBAA4F8D230F3885BBA7C
:108AE000A4F8D43001200BB0F0BDD0F89C304FF08A
:108AF000FF3205211A605A609A60DA60D0F8E030DF
:108B0000C0F8F010B3F57A7F1FD8032380F8DC306B
:108B100001200BB0F0BD90F84C2190F84D319B1A1C
:108B20005B100133DBB236F8132006EB430653BA71
:108B3000A0F8D03073885BBAA0F8D230B3885BBAA3
:108B4000A0F8D43001200BB0F0BD03691A7B2AB322
:108B50005B691BB390F8983003B390F84C31012255
:108B6000D0F89C0063F07F03C4F8A4400E49037062
:108B700094F84D3194F84C0184F800211B1A84F8C4
:108B8000DC20D4F8A0200733C4F804110132D4F853
:108B90009C10C4E93E23C4F8F410A3E7022384F830
:108BA000DC309FE7D8A40408018000082DE9F041DB
:108BB0002E4F07EB401696F854340BB9BDE8F08100
:108BC00000EB80030D460021044607EB43134FEAF8
:108BD000401893F8362683F8361686F83A2441F082
:108BE000EFF990BB224807EB08044044A4F838543E
:108BF00041F01AFAD4F850343978D4F83C24D3F838
:108C0000AC3081B1012403F1C0019440420010F462
:108C1000004F90B202D15A6822435A600C339942F5
:108C2000F4D1BDE8F0811032012403F1C001944079
:108C3000420010F4004F90B202D15A6822435A60A9
:108C40000C338B42F4D1BDE8F0810A4B93F8AC238E
:108C500002EB420203EBC203234493F85953002D65
:108C6000C0D0012386F83A34BCE700BFC801002019
:108C700000060020701701202DE9F04F364D83B01B
:108C80002B781BB9012003B0BDE8F08FDFF8CC8052
:108C900005F63836D5F834AB05F5876BD8F8D432FD
:108CA00005F6186700244FF6FF79019312E0B0F53E
:108CB000606F43D0B881B0EB0901019A304618BF0C
:108CC00001210DF023FE01345C360BF1200B14372B
:108CD000082C2CD054452ADADBF81800DBF80420E5
:108CE000D0E93D0141F0A8F94FF6FE7398F835231D
:108CF000984214D0542A04D1B8F838230132A8F885
:108D00003823D5F8202E484502F10102C5F8202E5F
:108D1000CDD1D5F81C2E0132C5F81C2ECBE7542A34
:108D2000D1D1B8F83A230132A8F83A23CBE701238E
:108D3000012085F81C3F03B0BDE8F08F98F8AC2304
:108D400002EB420208EBC202224492F859230D2A98
:108D5000B0D18022BA77AEE7C80100207017012099
:108D60002DE9F0472F4F0EF0E1FEDFF8C09080466E
:108D70007E6800202C4C002E48DD00234FF48671C5
:108D80001D4601FB0372013392F80521B34245EA07
:108D90000205F6D128435FFA80FAD9F80430C3F30C
:108DA000080383BBEFF311836BBB4FF0E02CD4F8C7
:108DB000D432DCF81810D4F8D4229342F7D1D4F886
:108DC000B0239142F3D8D4F8B4C34FF47A7202FBC3
:108DD0000CF0401AB0FBFCF002FB0300A0EB080310
:108DE000B3F5FA6FCCBF002005F001000028C2D116
:108DF000BAF1000F04D00C4B93F83523542A08D055
:108E00005046BDE8F0870EF05BFDE7E7824600259F
:108E1000C3E7B3F83C2350460132A3F83C23BDE836
:108E2000F08700BFC80100207017012000ED00E0AE
:108E300010B504463FF0F0FF0146204689B2BDE878
:108E40001040B3E638B50B4D00EB400005F274530B
:108E5000C40003EBC003254493ED027AD3ED037AFB
:108E6000E7EE007AB0EE670A3FF0D6FFD5F874352A
:108E7000186038BDC8010020F8B541F095F878B306
:108E80001A4F7D68002D11DD3846002410F8086B5C
:108E900016B1037F012B1DD04269013400F58670A5
:108EA0001368AC4243F001031360F1D10EF03EFEB3
:108EB000D7F8204F002C0CDD0D4B03EBC4041968D0
:108EC000083333F8042CC868A34242EA0002CA609F
:108ED000F5D1F8BD002380F8FC30FFF7DFF8DBE7C1
:108EE0003EF0E6F90028CBD1F8BD00BFC801002054
:108EF000EC100020F8B50C4B1D685A691540054070
:108F00005D617DB1094F0126B5FA85F4C4F11F04F6
:108F100007EB840306FA04F4D3F8BC03036898470C
:108F2000A543F1D1F8BD00BF003C014070170120FE
:108F300002692DE9F843C36812EA030828D0054600
:108F40000E464FF00047B8FA88F327FA03F21B3BAE
:108F5000D24308EA02082A61042B16D8DFE803F09E
:108F60003B30251A0300B36A002B3FD003F1FF39D1
:108F700000231FFA89F9B362746A34B1236820466A
:108F8000494698476468002CF8D1B8F1000FDAD14F
:108F9000BDE8F88370680028F7D0696B036889B270
:108FA0009847B8F1000FCED1F2E7B0680028ECD0B6
:108FB000A96B036889B29847B8F1000FC3D1E7E7FE
:108FC000F0680028E1D0E96B036889B29847B8F1EE
:108FD000000FB8D1DCE730690028D6D0296C0368CF
:108FE00089B29847B8F1000FADD1D1E7EB6A1FFA0B
:108FF00083F9C1E7836910B51A4C04EB8303D3F8F6
:109000001C0433F0FBFFB4F83C340C2B0ED8DFE823
:1090100003F0220D0D0D1B0D0D0D070D0D0D140090
:10902000D4F8FC23D36823F40063D3600122002327
:1090300084F8392484F83E3410BDD4F8FC23D36876
:1090400023F48053D360F1E7D4F8FC23D36823F4EE
:109050008063D360EAE7D4F8FC23D36823F4007379
:10906000D360E3E77017012080699C3033F0C6BFFE
:10907000F8B5830AA3F58013522B53D804465848F9
:10908000034493F8F4330D2B4CD8564E9D0106EB58
:109090008313D3F84004A04244D00139C3F84044BC
:1090A00089B2C3F84C14D6F82C13B1FBF2F2013A92
:1090B000C3F844240022C3F85024C3F84824C3F85A
:1090C000542493F87D2402F0FF01002A00F08580EB
:1090D0004549022377192046294487F87D3436F024
:1090E00067FA0123B4F1804F87F87D343F4BA4EB3E
:1090F0000303B3FA83F34FEA53135DD0002B5BD124
:109100003B4A94420FD002F5806294420BD0394919
:1091100002F57C42944218BF8C4225D002F5705271
:10912000944221D0F8BD731993F87C24012AF9D018
:109130000221314A83F87D14A0680240A260012216
:1091400083F87D2483F87D146268A168354422F099
:10915000700221F08001012000236260A16085F887
:109160007D0485F87C34F8BD721992F87C140129CD
:10917000D8D0022182F87D141F49A06801401F4801
:10918000A1600121201A82F87D140021B0FA80F03C
:1091900082F87C14174A4009944201D00028C1D0BB
:1091A0007219022182F87D146268A1680BB9002847
:1091B000CCD022F47002C9E7721992F87C1401290C
:1091C000B0D0022182F87D140B49A0680140002034
:1091D000A160012182F87D14E2E783F87C1477E72F
:1091E00040A0040870170120B41B012000000140BA
:1091F00000040040000C00408800FEFF0004014015
:109200002DE9F843DDF820800F4616460021202284
:1092100004461D4640F06BFCB8F1000F0CD0D8F8A6
:109220000030B8F80A20E3811B0C2382D8F8043000
:109230006282E3821B0C238338463EF0DFFAF3069A
:1092400019D4431EB8B107EB000C01E0013B12D367
:109250001CF801EDBEF12E0FF8D1C01A03F101097F
:10926000421EB944032AA8BF0322082BA8BF082323
:1092700090461A4606E008280246B9464FF0000814
:10928000A8BF08224FF02033394620462360636090
:1092900040F038FB164B04F1080042464946238152
:1092A000837040F02FFB611EE21D11F801CFACF17D
:1092B0006103ACF1200C192B98BF81F800C09142DA
:1092C000F3D104F10A0011F8013FA3F16102203B40
:1092D000192A98BF0B708142F5D1182365832D0C94
:1092E000E6722373099BA582E361BDE8F88300BFA2
:1092F000202020002DE9F04FD74F85B0D7F8D402B9
:10930000C7F8D802002B00F0CD8001F5007B134494
:10931000884614465E46029320E0002C5BD0D7F8C6
:109320000433A34200F0C280D7F80033A34200F018
:10933000F980D7E9C231A34244D8A14200F2CB81DF
:10934000611A404639F0F6FE0134029BD84606F514
:1093500000769C4200F0A6800BF5007BD7F8102326
:10936000A242DAD8A21AD7F82053D30802F007098C
:109370002A6B0233934202D3AA6B93420BD929463C
:109380001846039339F0A6FE039B0546002800F01B
:10939000C281C7F820032A79002A40F02C81D5F831
:1093A00028A0BAF1000F00F0AF812A6B40464FF4BD
:1093B00000719B1AEA6809EBC3092B4602EB4922AC
:1093C000D047C1E7A142BBD940464FF4007200210B
:1093D00040F08DFBB8E74FF400722146404640F064
:1093E00086FB80239D4A88F8BE310C2388F8C23161
:1093F000D7F80013D7F8F8329142C8F8C611C8F868
:10940000CA3100F36D81964A013B964D82FB010201
:10941000C81785FB01C50A44C0EB6212C0EB2530BA
:10942000914D85FB02C5C2EB821C88F8C1018010FA
:10943000A1EB0C01154420F03F0001310843D11786
:10944000C1EBE51188F8C0010A4488F8BF21834ABE
:10945000934200F35181824A824882FB0312D9175A
:1094600080FB03501A44C1EB6212C1EB20317E48ED
:1094700080FB0250C2EB821588F8C51189105B1B76
:10948000104421F03F0101331943D317C3EBE0131C
:1094900088F8C4111A4488F8C3214AF65523A8F85D
:1094A000FE3151E7002005B0BDE8F08F4FF0FF33EB
:1094B00000254FF4F07208F1040088F8EC312946D9
:1094C00088F8ED3188F8EE3188F8EF31522388F8CA
:1094D000003088F80130612388F8023088F8E731DD
:1094E000412388F8033088F8E631722388F8E431A4
:1094F00088F8E531D7F81833C8F8E83140F0F7FAC2
:109500005523C8F8F05188F8FE316FF05503C8F8BC
:10951000F451C8F8F85188F8FC5188F8FD5188F8E2
:10952000FF3111E74FF400720021404640F0DFFAAE
:109530004E4B022203CB45F6EB0388F8102088F847
:109540000C20A8F80030902388F80E2088F802300C
:10955000F82388F82C200822C8F8030088F80D208A
:10956000C8F8071088F81530D7F80013D7F8F83284
:109570005B1AC8F82030D7E9C2135B1A4AF65521A6
:10958000C8F82430002388F80B3088F80F3088F8AA
:109590001D3088F81E3088F81F3088F82D3088F884
:1095A0002E3088F82F3088F83130314BC8F8183019
:1095B0003E2388F81C30012388F83030802388F857
:1095C00040302C4BC8F842302B4B88F84620A8F886
:1095D000FE112A4A03CBC8F84B101988C8F8470077
:1095E0009B78A8F84F1088F8513003CAC8F8520089
:1095F000C8F85610A8E64FF400720021404640F02B
:1096000076FA2B6CB9F1000F40F08D8008F1200A3A
:10961000002B00F09B802B6B112219494046CDE9AD
:109620000099FFF7EDFD2B6C1A6C002A00F09A8070
:109630001B6B504611221349CDE90099FFF7E0FD5D
:1096400008F1400A4FF4E0786D6C002D3FF47CAED9
:10965000C244039424E000BF70170120FF03FB0005
:1096600083200882975545418180808040150508F8
:109670003F00FF0029940E0D4C15050858150508EC
:10968000381505083C1505080024A8F12008CDE987
:1096900000E4FFF7B5FDAD6CDDB1B8F11F0F18D9CF
:1096A00095F8049005F11C0E112229682B6BAAEB8A
:1096B0000800B9F1000FE7D16A79A8F120082C69F8
:1096C00042F02102CDE900E4FFF79AFDAD6C002DD8
:1096D000E3D1039C38E6E11A404639F02BFD33E62E
:1096E000FF22013B88F8C1214FF6FF72A8F8BF2185
:1096F000214A93427FF7AFAEFF2388F8C5314FF67A
:10970000FF73A8F8C331C8E6514640464FF40072D3
:1097100040F0EDF918E6194BC8E9003308F10808E4
:109720004645F9D110E6002B6D6C14BF02230123CE
:10973000C3EB0913002D3FF407AE013BAD6C01D024
:10974000002DFAD1C2464FF400787EE740464B46E2
:1097500008224FF4F078CDE90099D7F8FC12FFF712
:109760004FFD71E750464B4611220549CDE900995E
:10977000FFF746FD64E700BFFF03FB00DEADBEEF71
:109780003C15050810B490F8443000F10801484A2F
:10979000012BC2F800186DD08368464CD968A342EB
:1097A00021F46001D960D96841F46001D960996BF6
:1097B00021F440119963996B41F480119963996B7D
:1097C00021F4F8419963996B41F488419963996850
:1097D00021F47021996099689960996821F4401189
:1097E000996099689960596821F480615960596855
:1097F00021F48051596059696FF30B01596159691E
:10980000596148D0D9682B4C21F0E061A342D9605E
:10981000D96841F0E061D960996B21F440119963F6
:10982000996B41F480119963996B21F478219963C4
:10983000996B41F410219963996821F47021996022
:1098400099689960996821F44011996099689960C4
:10985000596821F480615960596821F48051596038
:1098600099696FF30B019961996999611AD0002385
:1098700080F844301048114B848DC18D408D091BF8
:10988000C2F80848C2F804085DF8044B93FBF1F3F2
:10989000C2F80C387047D4F8041341F40001C4F83E
:1098A0000413AFE706494B6843F400034B60DEE75F
:1098B0007017012000200140007AF01F803801005D
:1098C00000230140704700BF014833F06BBC00BF6C
:1098D000941F0120084810B4D0F82438D0F8584814
:1098E00099691A682CB1234600F624005DF8044BF0
:1098F00018475DF8044B704770170120014833F09A
:1099000051BC00BFF41F0120084810B4D0F88438BF
:10991000D0F8B84899691A682CB1234600F684003B
:109920005DF8044B18475DF8044B70477017012031
:10993000014833F037BC00BF54200120084810B460
:10994000D0F8E438D0F8184999691A682CB1234640
:1099500000F6E4005DF8044B18475DF8044B7047CF
:109960007017012030B40469002341684025E46881
:1099700082690C315462446995605360936311604D
:10998000C2E90333C2E90533C2E90733C2E90A3346
:10999000C2E90C3384B1C269E0689363506211601C
:1099A000C2E90133C2E90333C2E90533C2E907332F
:1099B000C2E90A33C2E90C3330BC7047114A037A5A
:1099C0000168D35C10B4CC58CA1824F00104CC5000
:1099D0001368DB07FCD4037D1F2B09D9203B202211
:1099E0005DF8044B02FA03F343F01803CB607047B1
:1099F00020225DF8044B02FA03F343F018038B6056
:109A0000704700BFF4150508F0B50668356A0029EF
:109A10005DD12B68AC68B769002B60D09C46344B95
:109A20000CEA0303B3F1005F5DD00CF01F0104F1F9
:109A30001F032CF01F02194421F01F01BFF34F8FA9
:109A400000290BDD114402F12003DFF8A8E08B426E
:109A5000CEF868221A4603F12003F8D1BFF34F8FE6
:109A6000BFF36F8F02684FF480637B615369C7F85F
:109A700004C03C6253B36B68F569002B35D01E46B9
:109A80001B4B3340B3F1005F1BD006F01F0104F104
:109A90001F0326F01F02194421F01F01BFF34F8F4F
:109AA00000290ADD114402F1200312488B42C0F85C
:109AB00070221A4603F12003F8D1BFF34F8FBFF392
:109AC0006F8F4FF480636E606B612C62F0BDEC6948
:109AD000002CFBD06B691435B769002B9ED1DFF8E1
:109AE0001CC03246C1E73246BDE7034EEBE700BF7C
:109AF0000000FFFF00ED00E04800002044000020CF
:109B00002DE9F0410468D4E904351A7DD3E90061F8
:109B1000002D4DD01F2AA86138D820202F6800FAC8
:109B200002F242F01802B2602A7D1F2A39D9203A87
:109B3000202000FA02F242F01802FA606A6800205F
:109B4000086010603046116841F01001116093F810
:109B50000880A26941463CF001FA2D7AE269384654
:109B600029463CF0FBF9274B626813F80800595D61
:109B7000335843F0010333507B5843F001037B50CB
:109B8000536843F003035360BDE8F081203A20207E
:109B90002F6800FA02F242F01802F2602A7D1F2AB2
:109BA000C5D8202000FA02F242F01802BA60C5E7D8
:109BB0001F2A98611ED8202000FA02F242F01802F3
:109BC000B260002230460A600A6842F010020A6061
:109BD0001D7AA26929463CF0C1F90A4B6268595DB9
:109BE000735843F001037350536843F0020353600A
:109BF000BDE8F081203A202000FA02F242F018027B
:109C0000F260DEE7F415050810B1036882889A61F6
:109C1000704700BF18B1838802681B0493617047C6
:109C200008B51D200DF0F6FB08B183794BB11E205D
:109C30000DF0F0FB08B1837903B108BD5523C38053
:109C400008BD5523C380F2E7D3B2012B22D852427C
:109C500070B502F00C0E104C002223460EF10805E0
:109C600003E001321C33172A12D093F800C0844558
:109C7000F7D193F801C08C45F3D15E59002EF0D096
:109C8000C2EBC2020EF1040303EB8203E01870BDC5
:109C9000002070BD0020704780A5040810B40C4C53
:109CA000002304F5196C01E0152B0CD003EB4302E3
:109CB00001331CF802108142F6D1144494F9920940
:109CC0005DF8044B70474FF0FF305DF8044B704770
:109CD00070170120D3B2022B21D802EB420270B5DB
:109CE0004FEA820E0F4C002223460EF10C0503E0D2
:109CF00001322C33172A10D01E68B042F8D193F8E5
:109D000004C08C45F4D15E59002EF1D02C210EF107
:109D1000080301FB0233E01870BD002070BD002075
:109D2000704700BF40A0040830B51C4D00230479E3
:109D300005F5196C01E0152B2DD003EB430201331F
:109D40001CF80210A142F6D11544046890F805C031
:109D500095F99239DAB2022A1DD803EB4303104D6C
:109D6000002298002B4600F10C0E03E001322C3348
:109D7000172A10D019688C42F8D119796145F5D1AC
:109D800053F80E100029F1D02C2100F1080301FB3B
:109D90000233E81830BD002030BD00BF701701202D
:109DA00040A004080348D0F890300BB18030184729
:109DB000704700BF000001200348D0F8B4300BB159
:109DC000A4301847704700BF000001200348D0F8B6
:109DD000D8300BB1C8301847704700BF00000120D1
:109DE0000348D0F8FC300BB1EC301847704700BF87
:109DF000000001200348D0F8203113B100F588702D
:109E000018477047000001200348D0F8443113B1CF
:109E100000F59A7018477047000001200348D0F8F9
:109E2000683113B100F5AC7018477047000001208D
:109E30000348D0F88C3113B100F5BE701847704755
:109E4000000001200348D0F8B03113B100F5D07004
:109E500018477047000001200348D0F8D43113B1EF
:109E600000F5E27018477047000001200348D0F861
:109E7000F83113B100F5F470184770470000012065
:109E80000348D0F81C3213B100F50370184770472F
:109E9000000001200348D0F8403213B100F50C70E7
:109EA00018477047000001200348D0F8643213B10E
:109EB00000F5157018477047000001200348D0F8DE
:109EC000883213B100F51E7018477047000001205A
:109ED0000348D0F8AC3213B100F52770184770472B
:109EE0000000012000EBC0000C4B0D4A03EB800387
:109EF000116BDB6D10B40B4C83B0A34214BF4FF455
:109F000080034FF4001319431163126B1340019344
:109F1000019B03B05DF8044B704700BF00000120B7
:109F200000380240006002400138F8B500EBC00084
:109F3000124C1D46124B04EB800417460E46D4F813
:109F40008000984214BF962095203AF0ABF994F91E
:109F50009500B909C4F89060C4F898503AF076F9C1
:109F600094F99530002B07DB03F01F0001225B09F9
:109F70000449824041F82320F8BD00BF00000120C1
:109F80000060024000E100E0800AA0F58010522845
:109F900008D8054B034493F8F4330D2B02D8034A39
:109FA000D05670470020704740A00408E41505080B
:109FB0000120FEF79FBF00BF0220FEF79BBF00BF3E
:109FC0000420FEF797BF00BF0820FEF793BF00BF35
:109FD0001020FEF78FBF00BF4FF47870FEF78ABFE6
:109FE0004FF47C40FEF786BF30B1036880881B6960
:109FF0001840003818BF0120704700BF2DE9F04F0E
:10A000000E4683B004461546002800F0C78002685B
:10A01000644B13449B0A644AC6F34119134493F8F2
:10A02000C4073AF03FF9C6F38103B4F804E006F040
:10A030000301246801939EFAAEF0B0FA80F001F1BA
:10A04000FF383EFA00F367D001220327009603E0B1
:10A0500001303EFA00F35ED002FA00F313EA0E0379
:10A06000F6D0D4F800C093FAA3FBBBFA8BFB93FAAB
:10A07000A3FABAFA8AFA4FEA4B0BB8F1010F4FEA8A
:10A080004A0A07FA0BFB01FA0AFA2CEA0B0C4CEA13
:10A090000A0CC4F800C04ED9D4F80CC093FAA3FB44
:10A0A000BBFA8BFB93FAA3FABAFA8AFA4FEA4B0B84
:10A0B00002294FEA4A0A07FA0BFB09FA0AFA2CEAC4
:10A0C0000B0C4CEA0A0CC4F80CC0C1D193FAA3FAE9
:10A0D000BAFA8AFA4FEA132CBAF1070F45DCD4F822
:10A0E00020C093FAA3FABAFA8AFA93FAA3F34FF0CC
:10A0F0000F0BB3FA83F34FEA8A0A01309B000BFA85
:10A100000AFA05FA03F32CEA0A0C4CEA0303236269
:10A110003EFA00F3A0D1009EB8F1010F08D86268A2
:10A12000C6F3001322EA0E020EFB03F3134363602F
:10A1300003B0BDE8F08FD4F808C093FAA3FBBBFAD4
:10A140008BFB93FAA3FABAFA8AFA4FEA4B0B019EF9
:10A150004FEA4A0A07FA0BFB06FA0AFA2CEA0B0C3A
:10A160004CEA0A0CC4F808C096E7D4F824A09CFA7C
:10A17000ACFBBBFA8BFB9CFAACF34FF00F0CB3FAC1
:10A1800083F34FEA8B0B9B000CFA0BFC05FA03F3ED
:10A190002AEA0C0A4AEA0303636259E74FF0FF33E5
:10A1A00039E700BF0000FEBF40A0040800B125E76A
:10A1B00070472DE9F84FBD4C6023054603FB004373
:10A1C000D3F81078002F00F05E81D3F81888B8F12A
:10A1D000000F04D098F80630002B40F05481602323
:10A1E00003FB0543D3F81C681EB1B379002B40F084
:10A1F0004A816B1CDBB2B8F1000F04D0152288F83D
:10A20000073088F8062016B11622F371B2714FF0AC
:10A210006009387C3AF046F8314609FB05F94046BA
:10A220003CF076FF404604EB090A0422DFF8A082E6
:10A230009AF82038002B0CBF4FF01E0B4FF03E0B4E
:10A240005946FFF7B3FF304609F114060422594678
:10A250004644FFF7ABFF4C22002130463FF047FC5D
:10A26000DAF810389FED927AB0EE084A5B68F7EEA4
:10A27000003ADFED905A0020CAF824388E4BBAF825
:10A2800022A89A688D4BC2F382229FED8D5A134407
:10A2900093F8CC27D4F82C33D34007EE903AF8EE5D
:10A2A000677A87EE276A07EE90AA9FED867AF8EE26
:10A2B000E77AC7EE274AF0EE007AE6EE275AA6EED6
:10A2C000275A26EE044A74EEE52ABAF5C87F40F311
:10A2D000DE804FF4FA714FF482793223782200F154
:10A2E000010E1344323A494407EE90EAF8EEE76A69
:10A2F00007EE903AB8EEE77A66EE866AC7EE267AFF
:10A3000077EEE37AFCEEE77A17EE903A07EE902AC2
:10A31000F8EEE77A77EEC47A87EEA67AFCEEC77A93
:10A3200017EE90CA07EE909AB8EEE73A07EE901A49
:10A33000F8EEE77A23EE243A83EE277A37EE453AB1
:10A3400032EEC77AC3EE267A35EE853A77EEE37AB7
:10A35000FCEEE77A17EE901AC7EE267A77EEE37AEC
:10A36000FCEEE77A17EE902A02F1020909EB010BE5
:10A37000B0EE437A07EE90BAF8EE677AA6EEA77AC7
:10A38000F4EEC74AF1EE10FA00F3898043EA0C09B3
:10A390005FFA89F9B9F10F0F00F2838041EA0209EF
:10A3A0001FFA89F9B9F1FF0F7BD81B054FEA0C4C56
:10A3B00003F07F6392B20CF47F0C43EA0C0343EA90
:10A3C0000073414800EA01210B43134360224FF020
:10A3D0000009304655432C442835C4F82838A84491
:10A3E0000123C4F82C98C4F83498C4F83038C4F861
:10A3F0003898C8E902993BF059FF94F86538202B4A
:10A40000D9B21AD194F86438012B16D0242384F8D9
:10A410006538D4F824381A6822F001021A601A68E4
:10A4200022F480521A601A681A601A6842F0010217
:10A430001A6084F8651884F86498002197F912006E
:10A4400039F004FF97F91220BB7C002A08DB590978
:10A45000012203F01F0302FA03F31C4A42F82130E1
:10A46000002197F9110039F0F1FE97F911207B7C5A
:10A47000002A08DB5909012203F01F0302FA03F343
:10A48000124A42F82130BDE8F88F70461DE740F2CD
:10A4900014514FF4167964234FF496721FE701317B
:10A4A00064E7BEF10F0FF0D100238FE77017012092
:10A4B000286B6E4E000070420038024040A0040835
:10A4C000000016430024744900FFFF0000E100E093
:10A4D000801F01202DE9F84F6D4EC0EB001306EBF5
:10A4E000C303D3F8D049002C00F0938093F8408A3E
:10A4F00005460701404639F0D5FE01224FEA5813C0
:10A5000008F01F08013B02FA08F2032B08D8DFE825
:10A5100003F0B3B902AD5F490B6A23EA02030B6291
:10A520007B1B05F1010B06EBC3035FFA8BFB93F872
:10A53000D4090CF06FFF804618B1122380F807B0E1
:10A5400083717B1B06EBC30393F8D5090CF062FF04
:10A55000824618B1132380F807B083717B1B06EB8A
:10A56000C30393F8D6090CF055FF814618B11423A4
:10A5700080F807B083717F1B50462E2106EBC7067B
:10A5800096F8D829FFF712FE96F8D92948460E21E9
:10A59000FFF70CFE96F8D7292E214046FFF706FE5E
:10A5A00023683D4A23F040039442236033D03B4B61
:10A5B0009C423AD03A4B9C424DD03A4B9C423FD0C1
:10A5C000394B9C4209D103F568435A6A42F4801220
:10A5D0005A625A6A22F480125A62636843F48053C2
:10A5E000636023685B060CD4206840F217322F4961
:10A5F0002F4B01400A4322606268134043F4E0633A
:10A600006360E36923F40063E361236843F040037C
:10A610002360BDE8F88F1F4B5A6A42F480525A6299
:10A620005A6A22F480525A62D7E703F500331A6A55
:10A6300042F480421A621A6A22F480421A62CCE71B
:10A6400003F582335A6A42F400525A625A6A22F47B
:10A6500000525A62C1E703F5FE331A6A42F400421F
:10A660001A621A6A22F400421A62B6E709490B69B3
:10A6700023EA02030B6153E706494B6923EA02030D
:10A680004B614DE703494B6A23EA02034B6247E7FC
:10A6900070170120003802400030014000380040AF
:10A6A000003C004000340140005001404000FFFFEA
:10A6B000FBF0FFFF08B10022A0E470472DE9F04154
:10A6C000CF781FB900263046BDE8F08100F11008B0
:10A6D0000C460546897840460CF084F90646002869
:10A6E000F0D038460CF096FEA86123780746013377
:10A6F000DBB210B1C3712223837138460D21FFF7FD
:10A70000D9FF3846134FFFF77FFAD7F8D432632BBF
:10A71000FBD911480CF052F9A88240462FF0BAFB41
:10A7200018B9E0780CF0D4FECCE72B6985F8D80096
:10A730001B78012B07D0022BC5D197F8B03B013312
:10A7400087F8B03BBFE797F8B13B013387F8B13BDF
:10A75000B9E700BF7017012040420F0070B50E4CE2
:10A76000D4F8346B002E15DD04F58764002503E072
:10A7700001352034B5420DD0237F002BF8D0E0689E
:10A7800000220028F4D00135217DFFF737FC20346A
:10A79000B542F1D1012070BDC80100202DE9F04F74
:10A7A000002393B0A74F0193A74BA7F50D6BA74DBF
:10A7B00093F8C63BA64EAA4603F1FF3903935FFA0E
:10A7C00089F30293A34DA946D9F80050AB0AA3F52B
:10A7D0008013522B00F2D7805B4493F8F4330D2B97
:10A7E00000F2D18016F90380039B012B00F0158144
:10A7F000039B022B02D1B8F1080F3AD10024214665
:10A8000040460FF02BFB0FF0B3FB90F800C0BCF1FB
:10A81000000F18BFBCF1540F14BF4FF0010C4FF0E4
:10A82000000C40F004810434A4B2102CE7D1019B49
:10A83000002B00F0B380854A0CE05B4493F8F433BE
:10A840000D2B0ED8F35643450ED002F586725245B5
:10A8500000F0A08091680B689B0AA3F58013522B2F
:10A86000EBD900234345F0D14B7999F80510994273
:10A87000EBD109F11C094F45A6D1019B0AF5867A57
:10A880000133042B01939DD1DFF8DCA10023AAF54D
:10A89000876B01930AF59E730293DBF8343B019AB0
:10A8A00093426DDDDAF80C70002F69D09AF8103001
:10A8B0003A68DBF8045068480493002DBB881044C4
:10A8C00003934FEA902040F3D380604B002405E0CF
:10A8D000013403F58673AC4200F0C88019688142E8
:10A8E000F6D15A4B4FF48671039E01FB0434049B4E
:10A8F0004FF0030E019D8AF81030039B0135CAF812
:10A900000C70B3FA83FCCAF81840CCF11F0358004E
:10A91000CAF8043087F806E0FD710EFA00FEA16C5B
:10A920000127D4F8548041EA0E0107FA00F007FA33
:10A9300003F39BF800E0A164216D0143D4F8AC005F
:10A94000216599B2BEF1000F00F0FC8043EA0803D4
:10A95000636596613A46FDF7CDFB20460AF1200A71
:10A96000FDF79CFB40F201120123082D2AF8042C6C
:10A97000029A019502F1180202F8073C02928CD16A
:10A9800013B0BDE8F08F029B012B7FF672AF4FF042
:10A99000000833E7BCF1000F7FF46BAF4846FDF7CA
:10A9A00043FB99F805E0C3B2022B00F26C8300F17F
:10A9B000010C2A4A4FFA8CFC02F57D700CEB4C0C12
:10A9C0004FEA8C0C03E02C32904200F05C83136859
:10A9D0009D42F8D113797345F5D152F80C30002B14
:10A9E000F1D01F48002142689A4212D00131243030
:10A9F0001029F8D14FF0FF3303EBC303194A02EBE0
:10AA0000830393F89C30002B7FF433AFCAF808908F
:10AA100033E74B1CDBB2013BEEE7B8F1010F3FF42B
:10AA2000EDAE09F11C094F457FF4CEAE25E7019B41
:10AA3000002B7FF400AF09F11C094F457FF4C4AE31
:10AA40001BE700BF10A9040870170120D0010020E7
:10AA5000E415050814A804080000FEBF40A004087F
:10AA6000800001200000012000060020042C76D088
:10AA70004FF4867303FB05B319690691002900F0B2
:10AA8000EA829860013054210792C4B2AE4A83F83A
:10AA9000101183F811416B1C92F8DD2BCBF80430B8
:10AAA000069B089218461E685B790593FDF7BCFA71
:10AAB000C3B2022B00F2E78200F1010EA3494FF06E
:10AAC000000CDDF814904FFA8EFE079A0EEB4E0E36
:10AAD0004FEA8E0E06E00CF1010C2C31BCF1170F81
:10AAE00000F0D1820B689E42F5D10B794B45F2D133
:10AAF00051F80E30002BEED098462C2300EB40008E
:10AB0000924903FB0CF3DFF8789203EB800348468D
:10AB10000B4419694FF4867303FB05B3C3E907813E
:10AB20000021436843452BD0013124301029F8D14E
:10AB3000874B93F87820B2B9542283F8794083F890
:10AB4000782010E0CCF12F0C360407FA0CF343EA1E
:10AB50000803636596617246FDF7CCFAFDE60323B0
:10AB6000794A82F8DC3B7B4B7B487C497C4AC3F8C2
:10AB70004804C3F84014C3F8502413B0BDE8F08F64
:10AB80004B1C7349DBB2013B03EBC30301EB8303B3
:10AB900093F89C1009910029E5D14FF48671714812
:10ABA0004FF08C0C83F89D4001FB05F16E4C079132
:10ABB000891004F54C7E00FB01F107985844C0F859
:10ABC00000C10CFB01FC01EB4101C2600EEB4C0229
:10ABD00001EB0111C0F8FC20542204EB8104079919
:10ABE00083F89C203323C0F8B440C0F8B8305F4BE2
:10ABF0005C18554BD3F82C23089B062B00F01C82C5
:10AC0000072B00F016825A495A4B3046B2FBF3F339
:10AC1000B2FBF1F2013B4FF48671013A9BB201FBAA
:10AC200005B1A1F8BC20A1F8743023660023A4F874
:10AC300058306366E365079B03F158014B4B194499
:10AC40003BF03EF83368059A43F0800333600C2AEA
:10AC50000ED8DFE812F098010D000D000D0077010D
:10AC60000D000D000D00B7010D000D000D00540189
:10AC70004FF486736022304603FB05B30A924FF40B
:10AC80008072596933681092012223F00103089100
:10AC90000B920A22336000230C930F93119302232B
:10ACA000CDE90D230AAA3AF0C3FE08990023B1F5B5
:10ACB000807F00F0CD8100F2C281102900F0DC819C
:10ACC00000F2CE81012902D0042940F0CC81082273
:10ACD00006F11801C8580243CA50069B187900288B
:10ACE00040F09681336843F0010333600023D9F8C4
:10ACF00004200133904500F08781102B09F12409CD
:10AD0000F5D14FF0FF33124A03EBC30302EB830389
:10AD1000D3F88000184B984214BF9620952039F044
:10AD2000C1FA059B0C2B00F26C81084A02EB43032D
:10AD3000B3F8D0C84FF48673104903FB05B3A3F8EA
:10AD400018C0002325E000BF7017012040A00408B0
:10AD500000000120C0120020855401088154010820
:10AD60008D5401086B4CA40720170020D00100204F
:10AD700044950800D0DD060000600240EC10002081
:10AD800080000120964200F072810133042B00F014
:10AD90007D8151F83320002AF4D1DBF8202F0132D5
:10ADA000CBF8202F0BEBC302DB00C2F8246F194451
:10ADB0000998234690228E884CEA060C0026A1F8BA
:10ADC00004C0B449FFF7B0F84FF48673B2484FF4AB
:10ADD000403203FB05B8D8F81C50D8F80C902B680B
:10ADE000E9B243F0100310392B602B68A0FB01017E
:10ADF000402043F0140309092B60C4F8A860C4E99B
:10AE00001F66C4E92866D8F82030C4F898204FF4AB
:10AE10008062C4F8943008930423A067C4F89C307F
:10AE2000C4F884209D4BD8E92D02C4F8902009F184
:10AE3000180260674FF4804022674FF4805209F196
:10AE40001009C4E92220079A25F0FF0070321A4445
:10AE5000CDE905013BF082F8D5F800E0079AC4F887
:10AE600020E0D5F814E0B8328C4BC4F824E0D5F8D3
:10AE700004E01A44089BC4F828E0D5F808E0C4F8B8
:10AE80002CE0D5F80CE0C4F8DC300423C4F830E042
:10AE9000C4F8E4304FF48063C4F8C860C4F8CC3020
:10AEA0004FF40033C4F8F060C4F8E030C4E9306611
:10AEB000C4E93A66D8E93F63DDE90501C4E92E96A5
:10AEC0004FF48046C4E935634FF40063C4F8D030D2
:10AED0003BF044F82B683A6863636B69BE88A363F0
:10AEE0006B68E363AB682364EB6863642B6843F0CF
:10AEF00010032B602B6843F014032B60F7E43368D6
:10AF00004FF486724FF480514FF0020E23F001038C
:10AF100002FB05B2304651610AAA336000230C934C
:10AF20000F93119360230A934FF4807310930123BE
:10AF30000B930A23CDE90D3E3AF07AFD4FF40062FF
:10AF40000423C5E64FF4867210213368022002FB09
:10AF500005B223F0010351616022336000230A929D
:10AF60004FF480720C93109201220F930B920A22DD
:10AF70001193CDE90D200AAA30463AF059FD00237D
:10AF80004FF40062A4E64FF4867233680121304624
:10AF900002FB05B223F001030B9151616022336083
:10AFA00000230A924FF480720C930F9311930223A3
:10AFB00010920A22CDE90D230AAA3AF039FD0023A6
:10AFC000082285E633684FF486724FF480710220C0
:10AFD00023F0010302FB05B210915161602233603E
:10AFE00000230C930F9311930123CDE90A230A2325
:10AFF0000AAACDE90D3030463AF01AFD08220423A2
:10B0000066E64FF0000C95E6DBB20993013B7AE669
:10B010000CF000FA089038B1069B0221DA79FEF7AD
:10B02000EDFF5422089BDA80736C43F40043736491
:10B0300058E61B491B4BE8E51B491C4BE5E5B1F500
:10B04000805F1CD0B1F5803F13D0B1F5806F0AD17D
:10B05000082204233CE60223154A82F8DC3B82E501
:10B0600040293FF434AE4FF400623C2330E6DB006D
:10B070009DE608223C232BE64FF4006228E64FF4BD
:10B080000062042324E600235B68FFDE00239B8824
:10B09000FFDE00BF41810008ABAAAAAAD0010020B0
:10B0A0001055220040771B00882A1100A0BB0D001C
:10B0B0007017012070B590F8B2311C09013C052CC5
:10B0C0000FD81A4E054603F00F0306EB4402B2F800
:10B0D000EC0840FA03F2D20703D595F8BD21012A06
:10B0E00001D0012070BD9A402644013A10403EF044
:10B0F000ABFD96F8F8380E4A034402EBC30452F84D
:10B100003320A38810691840ECD0002395F8B321B0
:10B110000221204685F8BD31FEF770FFD5F82021C9
:10B12000136843F008031360DBE700BF40A0040886
:10B130005023012008B9002070472DE9F04F00226C
:10B140008DB02F2104460EF069FF074600B390F83A
:10B150000580994ED0F80090A6F83C84FEF7E4FDF7
:10B16000B0B14568A5B1DFF888B200225946DC4687
:10B17000DCF8043001320CF1240C9D420CD0102A72
:10B18000F6D18E4B93F8782012B92F22A3F87820AD
:10B1900000200DB0BDE8F08FD2B2DFF820A2013A56
:10B1A00002EBC2020AEB820C92009CF89C300093E6
:10B1B000002BEDD111442F2283688A83804AD6F870
:10B1C0002C1301939142C6F8FC9380F0D680009A2C
:10B1D000090A7C48C6F800240022A0FB01107A4925
:10B1E000C6F80C24C6F8042402090009A1FB0212C7
:10B1F000C6F808045208A6F8E22E5200A6F8E02E7F
:10B2000096F8392402F0FF01002A00F0CB800222D8
:10B2100048466E4986F8392434F0CAF9012220469E
:10B2200086F839240CF0F6F8C6F8E40E28B12F2180
:10B23000C1804E21FA79FEF7E1FE654A0021019BAB
:10B24000B8F10C0FC6F8F41EC6F8EC3EC6F8041FA1
:10B25000C6F80C1FC6F8141FC6F8181F106BC6F8E6
:10B26000E85E40F400101063106B00F400100390CF
:10B270000398106B40F480001063126B02F480029C
:10B280000492049A4FF04002C6F8F02E4FF4806208
:10B29000C6F8F82E4FF48052C6F8FC2E4FF48042C8
:10B2A000C6F8002F4FF40032C6F8082F4FF0030203
:10B2B000C6F8102F6DD8474A02EB4802B2F8004991
:10B2C000A146083444485946002206EB840CCCF8C9
:10B2D000FC03A0F6EC20C6F8200F486801322431A8
:10B2E00085425CD0102AF8D14FF0FF3202EBC20247
:10B2F0000AEB820A394ADAF88000904214BF96209D
:10B30000952038F0CFFF0022DBF8041001320BF15A
:10B31000240B8D4240D0102AF6D106EB840600980B
:10B320004B4660222E49FEF7FFFDD6F8FC0331F0B4
:10B330008BFD00287FF42CAFBC7960210A90424637
:10B34000630005910B9005A903F002030690099094
:10B350000793E300234803F00803089338F07EFCCA
:10B3600000287FF415AFA30741461E481DD534F0D1
:10B3700007FAB0FA80F040090BE71B4A1B480A4461
:10B38000A0FB0202920D013A92B2501CB1FBF0F107
:10B390001EE789460C4694E7D3B20093BDE7D2B2CC
:10B3A000013AA3E786F8381431E734F0D1F8B0FA5F
:10B3B00080F04009EDE600BF701701200000012079
:10B3C000006CDC02598B4F01ABAAAAAA701B0120AA
:10B3D0000038024040A004085826012000600240C6
:10B3E000F58F00086C1B012000366E01819F5E16F0
:10B3F00080000120014B53F8200070475028004086
:10B40000014B43F82010704750280040204B214842
:10B41000196C214A41F0805130B482B01964196C22
:10B42000FF2401F0805101910199016841F480717C
:10B430000160CA20196C41F480611964196C01F42F
:10B44000806100915321009D5462506251625B6F94
:10B45000DB0013D4114B00221149C3F85428C3F860
:10B460005828C3F85C28C3F86028C3F86428C3F8D8
:10B470006828C3F8501802B030BC7047074A084B20
:10B48000D2F850289A42E5D102B030BC704700BFD4
:10B4900000380240007000400028004000200040BA
:10B4A000316665422DE9F04F0646086889B00C46C2
:10B4B000850ABDF848A0A5F580159DF84CB0522D21
:10B4C00054D819462E4B2B4493F8F4530D2D4DD8D8
:10B4D0002C4FFDF7CDFD94F8058007EB851794F808
:10B4E0000690AD01BBF1000F43D14B465A004FF41B
:10B4F0008071DB00384602F00202CDF808A003F0AC
:10B500000803039242460493602301934FF40073AF
:10B51000CDE90613002301A9059338F09FFB19F02C
:10B52000020F4146384627D034F02AF9164B022143
:10B530005A1982F87D14D2F84014144A88680240DF
:10B54000062A06D0B2F5803F03D00A6842F0010215
:10B550000A602B44012283F87D242168637901F17C
:10B56000340271600021D0183060D15009B0BDE8BC
:10B57000F08F89F00103B9E733F0EAFFD6E700BFA7
:10B5800040A00408B01B0120701701200700010033
:10B590002DE9F84FD0F8947004464A4B00F1640648
:10B5A000FDB227F0FF09826800F1180A103D4846F5
:10B5B000D2F80080A3FB05352D0929463AF016FD87
:10B5C000626D0023B2F5807F84F8583057D037D8A9
:10B5D000102A68D064D8012A01D0042A39D16FF02A
:10B5E0000801324608F11806404656F803C001EA41
:10B5F0000C01F150D4F854B059463AF019FABBF5A1
:10B60000807F37D029D8BBF1100F4FD044D8BBF181
:10B61000010F02D0BBF1040F28D14FF0080C3368A2
:10B6200052462946484643EA0C03336040232362CE
:10B630003AF094FC3B6843F010033B60BDE8F88FA0
:10B64000B2F5805F3AD0B2F5803F21D0B2F5806F7D
:10B6500015D06FF400613C23C3E7BBF5805F28D0B1
:10B66000BBF5803F0FD0BBF5806F03D03C364FF465
:10B67000006CD4E708F11C064FF0080CCFE76FF020
:10B6800008010423ADE708F154064FF0080CC6E7A3
:10B690006FF008013C23A4E7BBF1400FBDD0E5E704
:10B6A000402A9CD0D5E76FF400619AE74FF4006C14
:10B6B000B5E708F11C064FF4006CB0E76FF40061C9
:10B6C00004238EE7ABAAAAAA2DE9F04FDFF840B217
:10B6D00087B09BF800301BB9012007B0BDE8F08FA0
:10B6E000854BD3F8D43204930CF020FA834A92F8B5
:10B6F000243C002B00F0F8800BF23464D2F81C34A8
:10B700000BF6383A0BF61868C31A2646002705943C
:10B710000193019A002A03DBF36D934200F3CA8080
:10B7200007EB87030BEB431393F88C3603F0FF0E04
:10B73000002B00F08680D6F89410B36870481A6821
:10B74000CBB221F0FF01103BA0FB03036D481B09A6
:10B75000C35C0B44B1895C68D368A4B223EA0103DB
:10B76000C4F11604D360072C6BD9DBF8203E00220D
:10B770000121013315468946CBF8203ED6F89C308E
:10B7800018689C46CDE902E315E0142D1EDC13F188
:10B79000080E48BF03F1170E4FEA2E1305EB2E15C6
:10B7A00003F1FF3E013102FA03F309FA0EFE8C4267
:10B7B0004EEA03020AD303468C425CF8040FA0EB66
:10B7C0000303E2D8C5F115031525E9E7152DDDE9D9
:10B7D00002E366D14C4CC2F38421C2F3441004EB63
:10B7E000810104EB8000D1F81C19D0F81C09090272
:10B7F00041EA001102F01F00C2F3C43204EB8000E2
:10B8000004EB8202D0F81C09D2F81C29014341EA5A
:10B81000023282EA122181EA111101F00F010F298F
:10B820003FD1C2F30F124FF6FF718A4239D0B2F501
:10B83000606F43D0A8F80C207146049A50460BF074
:10B8400065F830460137FFF7A3FE2C4BA0360AF10E
:10B850005C0A93F8243C08F11408BB423FF759AF47
:10B8600001222649059C8BF81C2F0022C1F81C24BC
:10B87000002B3FF431AF03EB830304EB4313A268C7
:10B88000A03414F8901C126854F84C0C11F0020FFC
:10B89000116A14BF41EA80010143A3421162EED153
:10B8A0001AE7DBF81C2E0132CBF81C2EB7B14FF093
:10B8B000000EC1E7002007B0BDE8F08F0E4991F8F7
:10B8C000AC3303EB430301EBC3033B4493F859331D
:10B8D0000D2BAFD1802388F81E30ADE719465822D2
:10B8E0000A483EF00FF8E2E7012204498BF81C2FCA
:10B8F000C1F81C34F0E600BF70170120C012002010
:10B90000ABAAAAAAF415050840A004088C100020D0
:10B91000C80100202DE9F0472422D0F82051816889
:10B920000023C0F8942104462A6800F5907622F09E
:10B9300001022A602B606B60AB60C0F89C3180F81C
:10B940009031C0F89431C0F824114079C4F898318E
:10B950008202C4F83831C4F8403102F480522379AD
:10B96000C4F82821020313F0010702F40052C4F8BE
:10B970002C214FEA002202F48062C4F8302103F047
:10B98000020240F0C780002A40F0EF80C4F8347112
:10B99000B34B03F1200153F8042F944200F0FA80D6
:10B9A0008B42F8D10007D4F8943140F10781002B85
:10B9B00000F0388124233046C4F894312B6823F0FA
:10B9C00001032B6033F000FF012817D0D4F8443175
:10B9D000002B40F031816B6823F490436B60AB68BF
:10B9E00023F02203AB60AB6843F00803AB60304642
:10B9F0002B6843F001032B603AF02AFC002F5CD047
:10BA0000D4F8FC70002F00F0F380D4F8043104F176
:10BA10003C08C4E90F7300234046C4E91133C4E96C
:10BA20001433C4E91833C4E91A334FF48033E3659F
:10BA30004FF48063E3644FF48073A3653BF066F8D2
:10BA4000404631F001FAD4F898A1C4F88C81BAF1DB
:10BA5000200F66672ED1E368626999B252B3B1FADA
:10BA600081F94FEA591929B394F89001012821D09E
:10BA70000B46A4F878112221C4F89C914046C4F8E2
:10BA80007421C4F898117749C4F88C90A16776495D
:10BA9000E1677649C4F8881005F1240131F06EFAA7
:10BAA000002800F0CD80102384F89091C4F89C31D8
:10BAB000C4F894A17B68C4F8143123799A0767D538
:10BAC000D4F80051002D59D0D4F80821002304F1F6
:10BAD0009C07C4F8A8303846C4F8B030C4E92752EF
:10BAE0004022C4F8A4204FF48062C4F8AC204FF484
:10BAF0008032C4E92D33C4E93033C4E93233C4F8A9
:10BB0000BC203BF003F8384631F09EF9002800F0E5
:10BB10008280FEE70423C4F8343100F00103B2B19F
:10BB20000C22C4F83421002B3FF432AFD4F8443156
:10BB30004FF4803243F00203C4F84C2143F0010378
:10BB4000C4F844314FF40033C4F8483120E7002BE7
:10BB50003FF41EAFD4F8443143F00203C4F844313B
:10BB60004FF48033C4F84C3112E70823C4F8343161
:10BB7000C3077FF50DAFD4F84431DFE7D4F8A03127
:10BB80001A6842F080021A601A6842F040021A6095
:10BB9000BDE8F08794F8BC31002B3FF403AFD4F834
:10BBA0004431000743F00803C4F844314FF4004324
:10BBB000C4F85431D4F894313FF5F9AE002B34D0A9
:10BBC00024233046C4F894312B6823F001032B6002
:10BBD00033F0FAFD01283FF411AFD4F844313BBBF8
:10BBE0006B6823F490436B60AB6823F02A03FDE697
:10BBF000D4F8A0311A6842F480721A609A6842F050
:10BC000001029A601A6842F020021A601A6842F033
:10BC100010021A6051E7C4F88871C4F8D4606860F3
:10BC2000BDE8F08784F89031C4E684F89031C7E726
:10BC3000304633F03DFFD3E7304633F039FFCAE6F4
:10BC400084F890012B6843F480732B60AB6843F059
:10BC50000103AB60AB6843F04003AB602AE700BF71
:10BC6000E81E0020ADD30308DDD30308E1D30308A9
:10BC70002DE9F041EFF31185502383F31288D0F8BA
:10BC800000311B6813F0010304D0EDB285F3118875
:10BC9000BDE8F081D0F894210446D0F898110A4309
:10BCA00002F02102212AF0D0D0E90912914250D0AD
:10BCB00090B23ED8194623691B1A9BB2D4F89461FE
:10BCC000A1620021202E84F8A411DED1A169891877
:10BCD000DBD0B3FA83F77F09002BD6D094F89021FC
:10BCE000012AD2D00122D4F88801A4F8723184F854
:10BCF00090212122C4F89C71D4F82081C4F86C11E1
:10BD0000A4F87031C4F89421B0B1144A0765C26335
:10BD1000134A0264134AC26408F1280231F02EF972
:10BD200050B1102384F89071C4F89C31C4F8946128
:10BD3000ABE7081A83B2C1E700234022C8F82020ED
:10BD400084F89031D8F8083043F08003C8F8083000
:10BD50009BE7012380F8A43197E700BF85D3030850
:10BD6000A9D30308E1D3030870B5D0F820410546F4
:10BD7000E369990614D5606AEB6AC0B2002B6ED0F5
:10BD8000296B9847D5F82041236823F480732360FA
:10BD9000A36823F00103A360A36943F00803A36130
:10BDA000E369DA0701D501232362E3699B0701D523
:10BDB00002232362E3695E0701D504232362E3695A
:10BDC000180701D508232362E369590610D54023DB
:10BDD000236295F8BD6166B3D5F80031B3B128464A
:10BDE000FFF746FF95F8A431D5F82041002B42D14A
:10BDF000D5F8003153B1E369DB0606D56B6B13B19F
:10BE00009847D5F820411023236270BDE3691A06D4
:10BE1000F1D5D5E90923934243D0A969CA5C01331E
:10BE2000D2B2A2622A69B3FBF2F102FB1133AB6218
:10BE3000E1E795F8B2010BF0EDFA236823F008036F
:10BE40002360012385F8BD310028C5D0324620216A
:10BE5000FEF7D4F8D5F80031002BC0D1D6E7EB6956
:10BE60006A69D054EB69EA680133B3FBF2F102FB73
:10BE70001133EB6186E795F8BD61002EB8D195F8D6
:10BE8000B2010BF0C7FA236823F0080323600123F3
:10BE900085F8BD310028ABD032462021FEF7AEF840
:10BEA000A6E7236823F080032360A4E72DE9F04F81
:10BEB000C74C83B004EB8004D4F82C8CB8F1000F8D
:10BEC0007AD0D8F8AC411E461746C24A6368054688
:10BED000C8F80810C8F8A031636BBF49C8F814301F
:10BEE000236BDFF80CB3C8F81830638FC8F80C3038
:10BEF000238FC8F8A811C8F8103002F69C13C8F8B0
:10BF0000003020780BEB400393F9489F43000193E6
:10BF10005FFA89F3012B53D9D8F800E1BEF1000F85
:10BF200013D0AE4B00225968013224338E4500F005
:10BF30000681102AF7D1AA4B93F878202AB901304C
:10BF40000B2283F8790083F87820D8F8FC90B9F1B7
:10BF5000000F40F095806368C8F8203194F82800FD
:10BF6000002840F0AB8098F8B2010BF053FA0221A0
:10BF70003207034698F8B0A188F8BD1140F1A180BE
:10BF8000002800F0A380F70700F10881F00606F012
:10BF9000400200F13D81002A14BF4A213A210B22C0
:10BFA00001351846DD719A7198F8B321FEF726F82D
:10BFB000B9F1000F00F0F480404603B0BDE8F08F07
:10BFC000C9F1000A02F5A8614FF0000E0AF00C0A50
:10BFD0008C460AF1080A06E00EF1010E0CF11C0C69
:10BFE000BEF1170F19D09CF80030042BF4D19CF847
:10BFF00001308342F0D15CF80A30002BECD0C8F855
:10C000000031CEEBCE0309EB490C9B0003EB8C0314
:10C010001344D3F84C35C8F80831019B9B449BF975
:10C02000493F01333FF478AF0023A64604E00133D3
:10C030001C31172B00F0EA8091F800C0BCF1050F0D
:10C04000F5D191F801C08445F1D151F80A40002C96
:10C05000EDD0C3EBC303A44609EB490974469B002A
:10C06000D8F800E1C8F8FCC003EB89031A44D2F801
:10C070004C35C8F80431BEF1000F7FF452AFE146F1
:10C08000564A0023516801332432894535D0102B9C
:10C09000F8D1534A636892F8781000297FF45CAFB6
:10C0A0002178013182F879100C2182F87810C8F8D3
:10C0B000203194F8280000283FF455AF38F0F2F80A
:10C0C00051E7BA0702D5002840F0948050460BF0A3
:10C0D000A1F900283FF46CAFFA077FF569AF0C2295
:10C0E00001350221C571827198F8B121FDF786FFF3
:10C0F000B9F1000F7FF460AF52E0DBB2384A013B88
:10C1000003EBC30302EB830393F89C20002A7FF424
:10C1100022AF2278D3F88000013283F89D20314A83
:10C12000904214BF962095200C2283F89C2038F072
:10C13000B9F8636803F12402C8F81C210CE75FFA20
:10C1400082F9274B09F1FF3202EBC20203EB8203B3
:10C1500093F89C20002A7FF4F8AE0130D3F88020B9
:10C1600083F89D001F48824214BF962095200B2221
:10C1700083F89C2038F096F84346484694F82B20E4
:10C180001949FDF7D1FE6368D8F8FC902833C8F848
:10C190001831B9F1000F3FF4DEAE71E74A21FEE637
:10C1A00094F82C1094F92A00890938F04FF894F982
:10C1B0002A2094F82A30002AFFF6FEAE03F01F0072
:10C1C00001225B090949824041F82320F4E600BFBF
:10C1D000C012002040A00408B5B000088000012073
:10C1E00000000120006002406990000800E100E0CA
:10C1F000701701200B223606827105F10102C2710F
:10C200000BD498F8B321FDF7F9FE5FE7744683E697
:10C21000002A14BF4A212A21C1E60123404688F89A
:10C22000BD31FEF747FF51E7BFF34F8F0549064B7E
:10C23000CA6802F4E0621343CB60BFF34F8F00BFC4
:10C24000FDE700BF00ED00E00400FA0508B572B696
:10C25000FFF7EAFF30B583B0FFF7D8F80320FFF708
:10C26000C9F801284CD0324C0025324A0523C4F8C5
:10C270009850C4F89C50C4F8A020C4F89430BFF380
:10C280004F8FBFF36F8F4FF6FF01E2682A4B0A40D2
:10C2900013432A4AE360536F30F0C2FF284B294909
:10C2A000A3FB0023D4F8FC209B0C42F08072C4F85E
:10C2B000FC20C1F8B433D1F82C332349234AA1FB25
:10C2C000031323499B09C2F8B01F5560013B116855
:10C2D000B3F1807F41F00101116007D34FF0E022FC
:10C2E000136943F00403136103B030BD4FF0E02243
:10C2F000F0215361072384F8231095611361EDE762
:10C3000002210320FFF77CF80C4B12485A6C1249AB
:10C3100042F480425A645B6C03F480430193019AB7
:10C3200002680B68026083F308884B689847FEE751
:10C3300000ED00E01B0000060005FA050038024091
:10C3400083DE1B4370170120D34D6210001000E004
:10C3500055CEACC5003801400000F01F800AA0F5A2
:10C36000801052281CD80F4B034493F8F4330D2B44
:10C3700016D8013910B40C4C04EB831CD4F82C43B0
:10C380008BB2DCF840040CF24441CCF84C34B4FBE2
:10C39000F2F2013A5DF8044BCCF8442433F008B9CA
:10C3A000704700BF40A004087017012070B50468F2
:10C3B000A30AA3F58013522B05D82D4E334493F8CE
:10C3C000F4530D2D00D970BD2046FCF751FE294BCA
:10C3D000A801022203EB8515D5F8401485F87D24C9
:10C3E000254A8D682A40062A06D0B2F5803F03D040
:10C3F0000A6842F001020A601A180121002382F83B
:10C400007D141E4951F8332094420AD001330E2B7B
:10C41000F8D10121002037F019FF194B01221A60D1
:10C4200070BD06EBC306012196F9D14996F8D159A2
:10C43000204637F00BFF002CC5DB05F01F02012161
:10C440006B090F4C01FA02F21B2D44F8232006D190
:10C45000192037F0FBFE4FF00073236070BD2E2DC6
:10C46000B1D12C2037F0F2FE4FF48053636070BDE1
:10C4700040A0040870170120070001000CAA04085E
:10C4800000E100E003689B0AA3F58013522B54D807
:10C49000F0B5334C234493F8F4330D2B4CD8457945
:10C4A0004FF0020E2F489C0125FA0EFC00EB83167C
:10C4B0000EFA0CFE654603EB830CD6F8406403EBE2
:10C4C0004C0C00293DD0AC44F56845EA0E0500EB64
:10C4D0008C0ECEF80410CEF81420F560EFF3118C1A
:10C4E000502282F312882C2203FB02F28158851815
:10C4F00021B3696204312C221B4D03FB02F205EBD0
:10C50000020E1032024452F8045F0DB10D60291D75
:10C510007245F8D100225FFA8CFC0A608CF3118816
:10C520002C22044402FB0300D4F84034426A92B146
:10C53000DA6842F00102DA60F0BD704724328118F7
:10C54000D9E7F768654427EA0E07F76000EB850630
:10C5500071607261C2E7DA6822F00102DA60F0BD50
:10C5600040A00408701701209017012003689B0A5F
:10C57000A3F58013522B1AD8104A134493F8F433BE
:10C580000D2B14D84FF0020C10B40D4C427904EB73
:10C59000831022FA0CF3D0F840240CFA03FCD36881
:10C5A00031B143EA0C035DF8044BD3607047704728
:10C5B00023EA0C035DF8044BD360704740A00408E5
:10C5C0007017012003689B0AA3F58013522B10D823
:10C5D000084A134493F8F4230D2A0AD84079022319
:10C5E0000549D84001EB82128340D2F84024DB4356
:10C5F0001361704740A004087017012001490248E8
:10C60000FCF796BC701701200000014008B50648F1
:10C610000649FCF78DFC054B054803F5C671BDE8DE
:10C620000840FCF785BC00BF0000014070170120E6
:10C630000044014002494FF08040FCF779BC00BF44
:10C640009C17012001490248FCF772BCC817012061
:10C650000004004001490248FCF76ABCF4170120BD
:10C660000008004001490248FCF762BC2018012084
:10C67000000C0040F8B5164D164E2A69EB681A40BA
:10C680004FF00040B2FA82F3EAB120FA03F3012A34
:10C690006FEA030302EA03012B610A46F2D1D6F8DE
:10C6A00004718FB1013F0023BFB2C6F80431D6F840
:10C6B000004134B123682046394698476468002C0D
:10C6C000F8D10022DCE7F8BDEF6ABFB2EFE700BFA8
:10C6D000001000407017012001490248FCF728BCF7
:10C6E000A41801200004014010B5064C064804F5CA
:10C6F0009A71FCF71DFC04F504710448BDE8104074
:10C70000FCF716BC7017012000040140001C00401B
:10C7100001490248FCF70CBCD01801200040014040
:10C7200001490248FCF704BC2819012000480140D7
:10C7300001490248FCF7FCBB5419012000180040D5
:10C740002DE9F0414FF425728EB000215E483DF096
:10C75000CEF95E4B5E4D4FF000085A6C40F2222736
:10C76000A5F63C26A5F1700442F001025A645A6C09
:10C7700002F001020092009A1A6C42F001021A645F
:10C780001A6C02F001020192019A1A6C42F0020244
:10C790001A641A6C02F002020292029A1A6C42F0B7
:10C7A00004021A641A6C02F004020392039A1A6CCF
:10C7B00042F008021A641A6C02F008020492049A09
:10C7C0001A6C42F010021A641A6C02F01002059200
:10C7D000059A1A6C42F020021A641A6C02F02002C8
:10C7E0000692069A5A6C42F002025A645A6C02F09F
:10C7F00002020792079A5A6C42F480325A645A6CC9
:10C8000002F480320892089A5A6C42F400325A6458
:10C810005A6C02F400320992099A5A6C42F480224E
:10C820005A645A6C02F480220A920A9A1A6C42F0F4
:10C8300040021A641A6C02F040020B920B9A1A6CB6
:10C8400042F080021A641A6C02F080020C920C9A78
:10C850001A6C42F480721A641B6C03F480730D939B
:10C860000D9B55F82810002354F83320914226D010
:10C8700001330E2BF8D1002008F1070837F012FD24
:10C88000B845EED14FF0000840F2222755F82810A5
:10C89000002354F8332091420CD001330E2BF8D1F1
:10C8A000002008F1070837F0FDFCB845EED10EB0C6
:10C8B000BDE8F08106EBC30393F8D009F1E706EB7E
:10C8C000C30393F8D009D7E770170120003802405E
:10C8D0007CAA0408800AA0F5801052280ED8084BC4
:10C8E000034493F8F4230D2A08D8064B03EB821374
:10C8F000D3F84024136843F001031360704700BF6E
:10C9000040A004087017012038B5264C94F8603F09
:10C91000012B12D1042894BF002301236BB904EB2F
:10C9200040000D4694F8781FC4F88C3FB4F87A2F75
:10C93000B0F8823FB4F87E0F01B138BD07EE902AFF
:10C94000DFED196AD4F8702FB8EEE77ADFED177AC9
:10C9500027EE267A06EE902A6422F8EE666A02FB3B
:10C9600003F366EEA76A07EE903A02FB0033B8EED7
:10C97000E76A07EE903A27EE067AF8EEE77A87EE56
:10C98000270A20EE260A3CF047FAD4F8682FB4F8BC
:10C990007C3F1060D4F8D42213442B44C4F8903F59
:10C9A00038BD00BF701701200AD7233CCA269B3E22
:10C9B0002DE9F041A14CA4B0D4F85C38022B00F072
:10C9C00039829F489F4AA049121A3CF09BFF9F481A
:10C9D0009F4AA049121A3CF095FFD4F85838012B11
:10C9E00000F2C08003EB43039B4A9C4E02EB4300E2
:10C9F00032F8132041888388C6E9B021C6F8C832CE
:10CA0000974C984D984BB2FBF1F2984901FB02F21A
:10CA10000021C5F82C23D4F8882042F47002C4F811
:10CA200088201A6842F001021A609960904A1868DA
:10CA3000024090481A60C0F308078F4A5A601A688B
:10CA400022F480221A60D96007B1FEE78B49A0600A
:10CA50004FF6FF000A688A4B42F400720A60E268EF
:10CA600002401343E36037F0EFFEBFF34F8FBFF395
:10CA70006F8FC4F85072BFF34F8FBFF36F8F63692E
:10CA800043F400336361BFF34F8FBFF36F8FC4F87C
:10CA90008470BFF34F8FD4F8803043F6E07CC3F34B
:10CAA000C90EC3F34E33580100EA0C01734641EA44
:10CAB0008372013B5F1CC4F86022F8D1203810F16A
:10CAC000200FF1D1BFF34F8F636943F4803363616B
:10CAD000BFF34F8FBFF36F8F6849634B0A6842F40F
:10CAE00080720A60196C674A41F080511964196CB0
:10CAF00001F0805102910299116841F440411160A6
:10CB00001268D6F8C04202F440420192019A9A6833
:10CB100002F00C02042AD6E9B17100F08B809A6809
:10CB200002F00C02082A00F081804F4A136843F497
:10CB300080331360D5F8940F04E0D5F8943F1B1AA6
:10CB4000642B72D813689B03F7D5474A936803F0A8
:10CB50000C03082B69D0136823F080731360D5F899
:10CB6000940F08E03D4ED6E9B02149E7D5F8943F4F
:10CB70001B1A022B59D813689E01F7D40B067908AB
:10CB800043EA8413013943EA01433F4919435160A1
:10CB9000136843F080731360334AD5F8941F04E0A0
:10CBA000D5F8943F5B1A022B3FD813689801F7D54C
:10CBB000136C43F080531364136C324A03F08053B8
:10CBC0000393039B136843F480331360D5F8941FD9
:10CBD00005E0D5F8943F5B1AB3F57A7F2DD85368FA
:10CBE000DB03F6D51368274943F400331360D5F807
:10CBF000942F05E0D5F8943F9B1AB3F57A7F1CD8A3
:10CC00004B689E03F6D54FF400124FF0006304A862
:10CC100004924FF4C07221930723CDE90823032324
:10CC20000A9332F027FA88B3FEE7FEE75B685A0200
:10CC30007FF57BAF0C4B1B6887E7FEE700200040C9
:10CC400000000000103A00000098050800000020D5
:10CC5000C8010020F9F2050804B30408000001200F
:10CC600000ED00E0701701200038024040420F0044
:10CC7000FFFFF6FE0000000810300024003C0240D8
:10CC80000003FA0500700040080040206C4A136859
:10CC900003F00F03062B0AD8136823F00F0343F0A9
:10CCA00007031360136803F00F03072B69D1654B6B
:10CCB0009A6842F4E0529A609A6842F460429A603C
:10CCC0009A6822F0F0029A601A68900159D59A6821
:10CCD00041F2883022F0030242F002029A60D5F855
:10CCE000941F04E0D5F8942F521A824249D89A68CA
:10CCF00002F00C02082AF5D1514A136819070AD527
:10CD0000136823F00F0343F007031360136803F065
:10CD10000F03072B35D1DFF82C814B4ED8F80830A4
:10CD200023F4E05343F4A053C8F80830D8F808308F
:10CD300023F4604343F40043C8F8083030F070FA3D
:10CD4000D8F80830C3F30313334493F8D83120FAEA
:10CD500003F3C5F82C3337F077FD002304A8CDE9A1
:10CD60001333CDE91533CDE91733CDE91933CDE9C7
:10CD70001B33CDE91D33354B049332F07BF908B1F9
:10CD8000FEE7FEE702234FF0007204A8CDE9063368
:10CD9000D823CDE9042301230B9332F06BF900B1C2
:10CDA000FEE7D8F88C3023F08073C8F88C30D8F8C0
:10CDB0008C3043F08073C8F88C30D8F8083003F01A
:10CDC0000C03042B31D0082B12D0214B2149B4FB8A
:10CDD000F7F201FB02F21B498968C1F303110E440B
:10CDE00096F8D811CB409A42C5F82C331FD0FEE7F5
:10CDF000D8F80430D8F8042013F4800FD8F80430A1
:10CE000002F03F0218BF1449C3F3881308BF10494A
:10CE1000B1FBF2F202FB03F30A4A5268C2F3014289
:10CE200001325200B3FBF2F3D0E70B4BCEE724B054
:10CE3000BDE8F08100210320FEF7E2FAFFF7F4F9E4
:10CE4000003C02400038024038B10408C0FF030033
:10CE50000024F40040420F0000127A000548D0F888
:10CE6000A03223B1DB6A13B100F5287018470248DD
:10CE7000704700BF7017012020B3040810B5154C8F
:10CE8000D4F8983F1B883BB9002384F8A73F84F867
:10CE90009832C4F8943210BDD4F89C2F002AF3DDE8
:10CEA000D4F8A01F012A488805D00123A4F8A40FB4
:10CEB00084F8A63FE8E78A880132121A9A42F4D130
:10CEC0000022D4F8A03204F528701B69C4F8CC22E3
:10CED0009847D9E7701701200748D0F89C3213B162
:10CEE00090F8A63F0BB100207047D0F8A03200F5B3
:10CEF00028705B68184700BF701701200F4B93F82C
:10CF0000982293F8A70F93F89822904293F89822CA
:10CF10000FD8904204D3D3F89432002018447047BD
:10CF200093F89822D3F89432C2F180021044184446
:10CF30007047801AD3F89432184470477017012054
:10CF400070B51B4C84B01B4B94F898220393134488
:10CF500094F8A71F029394F89832994294F8983263
:10CF600016D899420CD294F898520E46C5F1800515
:10CF7000D9B92B4601223F2BCDE900560DD860B917
:10CF800094F89802401AB0FA80F0400904B070BDDD
:10CF9000CB1A002601221D46EDE76946002302A8B0
:10CFA0003AF084FB94F8A71FEAE76B180222E2E745
:10CFB000701701200C1F00202DE9F043374C85B07D
:10CFC000154694F8A7CF00293DD0461EDFF8D8803B
:10CFD0004FF0000977180DE094F898328C466345BD
:10CFE00094F898321DD9C3F1800319443F291BD806
:10CFF000B74228D00CF1010116F8013FC444C9B270
:10D000008CF84C3C0B0684F8A71FE5D54FF0000CBC
:10D0100094F8983284F8A79F6345614694F8983253
:10D02000E1D8C91A3F29E3D994F898326345DFD093
:10D030001B4B1B78002BDBD00020FFF781FFB74292
:10D0400094F8A7CFD6D194F89832164A1344039295
:10D0500094F898220293944594F8983218D89C45F5
:10D0600013D2614694F898320029C3F180030CBFB3
:10D07000012202229C44BCF13F0FCDE9003104D9CA
:10D080002B46694602A83AF011FB05B0BDE8F083D3
:10D09000ACEB030C002101226346ECE77017012082
:10D0A000000001200C1F0020C012002010B51A4CF7
:10D0B00084B01A4B94F8980294F8A71F94F8982219
:10D0C000039303449142029394F898321FD89942F3
:10D0D00010D2081E94F8983218BF0222C3F18001C2
:10D0E00008BF01220123CDE90010694602A83AF0E9
:10D0F000DDFA03E000220023CDE90023D4F8A032BA
:10D1000007485B6898470028F8D004B010BD00209D
:10D110000122C91AE6E700BF701701200C1F00208A
:10D12000101A01202DE9F0410F4C164682180546D1
:10D13000D4F89C320F469A4294F8A72F88BF1E1A43
:10D1400094F898329A4201D0FFF7B0FF002033469E
:10D150003A462946C4F8CC02D4F8A002846A0348AF
:10D16000A446BDE8F041604770170120101A012065
:10D170008C461346014662461846D3E738B5244C20
:10D18000002204F6A8701346C4F89C2202461178C7
:10D19000063202292BD00133062BF8D10022D4F815
:10D1A000A032C4F8A02FF3B1DA6AE2B1194890476F
:10D1B000D4F8A03FC4F8980FA3B159889A8843685F
:10D1C000521A02FB0333C4F89C32FBF747F994F878
:10D1D0009832054694F8A72F9A4201D0FFF766FFD0
:10D1E000C4F8945238BD0C4BC4F8983F38BD03EBDB
:10D1F0004303D4F8A02200EB4303C4F8A03F12B1CC
:10D20000D26A002AD2D10448C4F8980FD5E700BFEB
:10D2100070170120101A012020B3040810B50A4C21
:10D22000D4F8A0325B6A13B104F528709847D4F89B
:10D230009432D4F8982F013B528813445242134041
:10D24000C4F8943210BD00BF70170120F0B5344D02
:10D2500093B0FFF713FEFFF791FF95F8983295F81A
:10D26000A72F9A4201D0FFF721FF0024D5F89C6236
:10D27000C5F894427EB122462A496846203401F01E
:10D280000FFE68463AF0BAFA012201466846FFF7F7
:10D2900093FEA642EFD895F8983295F8A72F9A42B8
:10D2A00001D0FFF703FFD5F8983F9B7B012B30D0CF
:10D2B00095F8983295F8A72F9A4201D0FFF7F6FE1D
:10D2C0000027C5F894723EB33C462246154909A88A
:10D2D00001F0E6FD2122002168463CF008FC2022F6
:10D2E00069462046FFF71EFF0546202209A9684629
:10D2F00020343CF020FC202D08BF002814BF012062
:10D300000020A6420744E0D8B7FA87F0400913B0DE
:10D31000F0BDFFF783FFCBE7012013B0F0BD00BFE6
:10D3200070170120641505080B4B93F8CC0218B94F
:10D330000A4B93F8CC0F7047094AD2F85C180329BE
:10D34000F6D106494FF0010C81F8CCCF0021C2F88C
:10D350005C1883F8CC127047000001207017012080
:10D36000002000400321044608B50846FEF748F8AF
:10D3700072B6104BD3F8D00FD3F8D41F50EA010285
:10D380000AD1002211460420FEF73AF81146052082
:10D39000FEF736F8FEF748FFD3F8D4224EF66023A6
:10D3A000121803FB04F041F10001821841EBE07117
:10D3B000E9E700BF701701200021032008B5FEF740
:10D3C0001FF872B6FEF730FF174C08B5D4F8D83FF7
:10D3D000DBB914200CF0A0FB01E0FBF771F800BFF3
:10D3E000D4F8D83F002BF8D0196894F8DE2F9B882A
:10D3F0000969003A03EA010318BF0122003B18BF84
:10D4000001239342E9D0FFF7D7FF94F8DE2F186885
:10D41000003A998818BF012203690B40003B18BFEE
:10D4200001239342F8D1D4E770170120F8B51C20EE
:10D4300009F0F0FF04461121FDF73CF97CB3A38805
:10D44000C82022681B0493610CF066FB2368A28845
:10D450001B209A6109F0DEFF08B12923C38029232C
:10D46000E380264CD4F86C3213B10023C4F86C323C
:10D470000023234E0125234FC4F8686287F8E03F5C
:10D4800084F8545239F0D0F806F11C03C4F86C3219
:10D490001D4B93F89931AB420CD02846F8BDC820FB
:10D4A0000CF03AFB1B2009F0B5FF0028D9D0292346
:10D4B000C380D6E7D4F88802543690F8BC33C4F859
:10D4C0008462AB4214D00168D1F8043823F002031F
:10D4D000C1F80438D7F8942FD7F8943F9B1A032B40
:10D4E000FAD98B68002243F001038B6080F8BC23DB
:10D4F0000023064A184682F82330F8BD7027012021
:10D50000D0020120701701206828012000ED00E002
:10D510002DE9F04F002189B041F69462C5483CF0F6
:10D52000E6FA0420FDF766FF01460520FDF762FFDD
:10D5300051EA000340F07081BF4B02934C2200215E
:10D54000BC4801243CF0D3FA00214C22B9483CF0FD
:10D55000CEFA029BB74AD3F87433B84D14711560F4
:10D560001546D3611362536237F08EF9FFF706FE5A
:10D570000021084609F0DCFFFAF770FFB0F1000A5D
:10D5800040F3BA810027AE4C05F14C0BAD4DB846C7
:10D590003E4604F5CE79019704E006F50066B245F3
:10D5A00040F3BF80A84AD2F8D432C2F8D832FAF792
:10D5B00087FF202249463046FFF7B4FD1222A349D7
:10D5C00048463CF0B8FA0028E7D1464525D00199F5
:10D5D0009F4B01EB410203EB82034A1C9D49184615
:10D5E0000193A6EB08030492039301F059FC019BFD
:10D5F0005946049A41F84C3B039BCBF80C800192AE
:10D60000CBE90433DBF81C30CBE908330123CBF83A
:10D610000830914BCBF828308B46029BB046122243
:10D62000D3F87433CBF81C30A318013293F89C1153
:10D63000EB5D994218D00027202AF5D108F1200887
:10D64000C24564DB49464046FFF76CFDEA5D94F84D
:10D650009C319A4200F0DA8094F89D310127022231
:10D66000482B18BF0027DFE70137152FE4D108EB5F
:10D6700002007A492022FFF755FD00230A2207A95C
:10D680007648CDF81C9001F0C1FD80460798002334
:10D690000A22013007A9079001F0B8FD0590002388
:10D6A00007980A2207A90130079001F0AFFD049006
:10D6B000002307980A2207A90130079001F0A6FD70
:10D6C000039007A9079800230A220130079001F070
:10D6D0009DFD0023074607980A221946013001F0F4
:10D6E00095FDB8F1000F11D00399A8F2BC78DDE9DF
:10D6F000043243EA42127B0142EA482243EAC12350
:10D7000043EA600343EA0243CBF81C301527019B30
:10D71000642B00F02881B04606F50066B2453FF75D
:10D7200041AF019B642B03F101041F4600F0DF8031
:10D73000464500F0DC800C22454D4649A6EB080624
:10D7400002FB03552246284601F0AAFBBA1C0194AD
:10D750001446DBF81C20404FCBF80050CBF80C806F
:10D76000CBF82870CBE908220122CBE90466CBF87C
:10D7700008204C262F4B0021DFF8EC9006FB04F428
:10D7800032464FF001081D1928463CF0B0F93246E8
:10D79000284B0021324E284643F80490C5F80880F3
:10D7A000C5E90766C5E909673CF0A1F9214904F11B
:10D7B0001002019B41F804901834C5F80880023328
:10D7C0002E62AF6241F802A00A440431C2F804A0FC
:10D7D000029AD2F874230A510C4462606A624FEADA
:10D7E0004A02B2F1805FC0F28880124B9C6834B963
:10D7F0001A461B791BB11368002B40F0BD80002135
:10D80000084609B0BDE8F04F09F092BE0137012289
:10D81000152F7FF409AF2AE74FF47A7200233AF00C
:10D82000B1FC104B40F2B27240F26D14B0FBF3F356
:10D830001EE000BF902F012000000120E0760508C7
:10D8400068280120A815050870170120841505080F
:10D85000242A01209815050871D10008042A012006
:10D860000068214C80510100C01505085B1A013287
:10D8700012F0030514BF21464FF4B7718B42F5DA5D
:10D880008B49002D72D002910299D1F844138B423A
:10D89000C0F20B81874D01245B1A55F8041F013437
:10D8A0009942F9DD0133A2F2BC72029D43EA4413AE
:10D8B0003C2443EA4223804AB0FBF2F102FB11020E
:10D8C0004FF46160B2FBF0F100FB11221C20C5F89F
:10D8D0004803B2FBF4F004FB1022521042EA40125B
:10D8E00042EAC12242EA0343C5F8743326E6019BAB
:10D8F000002B39D1012372E723464C266F4FDFF806
